{
	"myprojectfest/ArtworkRegistry.sol": {
		"ArtworkRegistry": {
			"abi": [
				{
					"anonymous": false,
					"inputs": [
						{
							"indexed": false,
							"internalType": "uint256",
							"name": "artworkId",
							"type": "uint256"
						},
						{
							"indexed": false,
							"internalType": "string",
							"name": "title",
							"type": "string"
						},
						{
							"indexed": false,
							"internalType": "string",
							"name": "ipfsHash",
							"type": "string"
						},
						{
							"indexed": true,
							"internalType": "address",
							"name": "creator",
							"type": "address"
						}
					],
					"name": "ArtworkRegistered",
					"type": "event"
				},
				{
					"inputs": [],
					"name": "artworkCount",
					"outputs": [
						{
							"internalType": "uint256",
							"name": "",
							"type": "uint256"
						}
					],
					"stateMutability": "view",
					"type": "function"
				},
				{
					"inputs": [
						{
							"internalType": "uint256",
							"name": "",
							"type": "uint256"
						}
					],
					"name": "artworks",
					"outputs": [
						{
							"internalType": "string",
							"name": "title",
							"type": "string"
						},
						{
							"internalType": "string",
							"name": "ipfsHash",
							"type": "string"
						},
						{
							"internalType": "address",
							"name": "creator",
							"type": "address"
						}
					],
					"stateMutability": "view",
					"type": "function"
				},
				{
					"inputs": [
						{
							"internalType": "uint256",
							"name": "_artworkId",
							"type": "uint256"
						}
					],
					"name": "getArtwork",
					"outputs": [
						{
							"internalType": "string",
							"name": "title",
							"type": "string"
						},
						{
							"internalType": "string",
							"name": "ipfsHash",
							"type": "string"
						},
						{
							"internalType": "address",
							"name": "creator",
							"type": "address"
						}
					],
					"stateMutability": "view",
					"type": "function"
				},
				{
					"inputs": [
						{
							"internalType": "string",
							"name": "_title",
							"type": "string"
						},
						{
							"internalType": "string",
							"name": "_ipfsHash",
							"type": "string"
						}
					],
					"name": "registerArtwork",
					"outputs": [],
					"stateMutability": "nonpayable",
					"type": "function"
				}
			],
			"devdoc": {
				"kind": "dev",
				"methods": {},
				"version": 1
			},
			"evm": {
				"assembly": "    /* \"myprojectfest/ArtworkRegistry.sol\":60:925  contract ArtworkRegistry {... */\n  mstore(0x40, 0x80)\n  callvalue\n  dup1\n  iszero\n  tag_1\n  jumpi\n  0x00\n  dup1\n  revert\ntag_1:\n  pop\n  dataSize(sub_0)\n  dup1\n  dataOffset(sub_0)\n  0x00\n  codecopy\n  0x00\n  return\nstop\n\nsub_0: assembly {\n        /* \"myprojectfest/ArtworkRegistry.sol\":60:925  contract ArtworkRegistry {... */\n      mstore(0x40, 0x80)\n      callvalue\n      dup1\n      iszero\n      tag_1\n      jumpi\n      0x00\n      dup1\n      revert\n    tag_1:\n      pop\n      jumpi(tag_2, lt(calldatasize, 0x04))\n      shr(0xe0, calldataload(0x00))\n      dup1\n      0x167ddf6e\n      eq\n      tag_3\n      jumpi\n      dup1\n      0x4b602673\n      eq\n      tag_4\n      jumpi\n      dup1\n      0xa0876445\n      eq\n      tag_5\n      jumpi\n      dup1\n      0xa8ae1376\n      eq\n      tag_6\n      jumpi\n    tag_2:\n      0x00\n      dup1\n      revert\n        /* \"myprojectfest/ArtworkRegistry.sol\":667:922  function getArtwork(uint256 _artworkId) public view returns (string memory title, string memory ipfsHash, address creator) {... */\n    tag_3:\n      tag_7\n      0x04\n      dup1\n      calldatasize\n      sub\n      dup2\n      add\n      swap1\n      tag_8\n      swap2\n      swap1\n      tag_9\n      jump\t// in\n    tag_8:\n      tag_10\n      jump\t// in\n    tag_7:\n      mload(0x40)\n      tag_11\n      swap4\n      swap3\n      swap2\n      swap1\n      tag_12\n      jump\t// in\n    tag_11:\n      mload(0x40)\n      dup1\n      swap2\n      sub\n      swap1\n      return\n        /* \"myprojectfest/ArtworkRegistry.sol\":202:245  mapping(uint256 => Artwork) public artworks */\n    tag_4:\n      tag_13\n      0x04\n      dup1\n      calldatasize\n      sub\n      dup2\n      add\n      swap1\n      tag_14\n      swap2\n      swap1\n      tag_9\n      jump\t// in\n    tag_14:\n      tag_15\n      jump\t// in\n    tag_13:\n      mload(0x40)\n      tag_16\n      swap4\n      swap3\n      swap2\n      swap1\n      tag_12\n      jump\t// in\n    tag_16:\n      mload(0x40)\n      dup1\n      swap2\n      sub\n      swap1\n      return\n        /* \"myprojectfest/ArtworkRegistry.sol\":252:279  uint256 public artworkCount */\n    tag_5:\n      tag_17\n      tag_18\n      jump\t// in\n    tag_17:\n      mload(0x40)\n      tag_19\n      swap2\n      swap1\n      tag_20\n      jump\t// in\n    tag_19:\n      mload(0x40)\n      dup1\n      swap2\n      sub\n      swap1\n      return\n        /* \"myprojectfest/ArtworkRegistry.sol\":395:659  function registerArtwork(string memory _title, string memory _ipfsHash) public {... */\n    tag_6:\n      tag_21\n      0x04\n      dup1\n      calldatasize\n      sub\n      dup2\n      add\n      swap1\n      tag_22\n      swap2\n      swap1\n      tag_23\n      jump\t// in\n    tag_22:\n      tag_24\n      jump\t// in\n    tag_21:\n      stop\n        /* \"myprojectfest/ArtworkRegistry.sol\":667:922  function getArtwork(uint256 _artworkId) public view returns (string memory title, string memory ipfsHash, address creator) {... */\n    tag_10:\n        /* \"myprojectfest/ArtworkRegistry.sol\":728:747  string memory title */\n      0x60\n        /* \"myprojectfest/ArtworkRegistry.sol\":749:771  string memory ipfsHash */\n      dup1\n        /* \"myprojectfest/ArtworkRegistry.sol\":773:788  address creator */\n      0x00\n        /* \"myprojectfest/ArtworkRegistry.sol\":801:823  Artwork memory artwork */\n      dup1\n        /* \"myprojectfest/ArtworkRegistry.sol\":826:834  artworks */\n      0x00\n        /* \"myprojectfest/ArtworkRegistry.sol\":826:846  artworks[_artworkId] */\n      dup1\n        /* \"myprojectfest/ArtworkRegistry.sol\":835:845  _artworkId */\n      dup7\n        /* \"myprojectfest/ArtworkRegistry.sol\":826:846  artworks[_artworkId] */\n      dup2\n      mstore\n      0x20\n      add\n      swap1\n      dup2\n      mstore\n      0x20\n      add\n      0x00\n      keccak256\n        /* \"myprojectfest/ArtworkRegistry.sol\":801:846  Artwork memory artwork = artworks[_artworkId] */\n      mload(0x40)\n      dup1\n      0x60\n      add\n      0x40\n      mstore\n      swap1\n      dup2\n      0x00\n      dup3\n      add\n      dup1\n      sload\n      tag_26\n      swap1\n      tag_27\n      jump\t// in\n    tag_26:\n      dup1\n      0x1f\n      add\n      0x20\n      dup1\n      swap2\n      div\n      mul\n      0x20\n      add\n      mload(0x40)\n      swap1\n      dup2\n      add\n      0x40\n      mstore\n      dup1\n      swap3\n      swap2\n      swap1\n      dup2\n      dup2\n      mstore\n      0x20\n      add\n      dup3\n      dup1\n      sload\n      tag_28\n      swap1\n      tag_27\n      jump\t// in\n    tag_28:\n      dup1\n      iszero\n      tag_29\n      jumpi\n      dup1\n      0x1f\n      lt\n      tag_30\n      jumpi\n      0x0100\n      dup1\n      dup4\n      sload\n      div\n      mul\n      dup4\n      mstore\n      swap2\n      0x20\n      add\n      swap2\n      jump(tag_29)\n    tag_30:\n      dup3\n      add\n      swap2\n      swap1\n      0x00\n      mstore\n      keccak256(0x00, 0x20)\n      swap1\n    tag_31:\n      dup2\n      sload\n      dup2\n      mstore\n      swap1\n      0x01\n      add\n      swap1\n      0x20\n      add\n      dup1\n      dup4\n      gt\n      tag_31\n      jumpi\n      dup3\n      swap1\n      sub\n      0x1f\n      and\n      dup3\n      add\n      swap2\n    tag_29:\n      pop\n      pop\n      pop\n      pop\n      pop\n      dup2\n      mstore\n      0x20\n      add\n      0x01\n      dup3\n      add\n      dup1\n      sload\n      tag_32\n      swap1\n      tag_27\n      jump\t// in\n    tag_32:\n      dup1\n      0x1f\n      add\n      0x20\n      dup1\n      swap2\n      div\n      mul\n      0x20\n      add\n      mload(0x40)\n      swap1\n      dup2\n      add\n      0x40\n      mstore\n      dup1\n      swap3\n      swap2\n      swap1\n      dup2\n      dup2\n      mstore\n      0x20\n      add\n      dup3\n      dup1\n      sload\n      tag_33\n      swap1\n      tag_27\n      jump\t// in\n    tag_33:\n      dup1\n      iszero\n      tag_34\n      jumpi\n      dup1\n      0x1f\n      lt\n      tag_35\n      jumpi\n      0x0100\n      dup1\n      dup4\n      sload\n      div\n      mul\n      dup4\n      mstore\n      swap2\n      0x20\n      add\n      swap2\n      jump(tag_34)\n    tag_35:\n      dup3\n      add\n      swap2\n      swap1\n      0x00\n      mstore\n      keccak256(0x00, 0x20)\n      swap1\n    tag_36:\n      dup2\n      sload\n      dup2\n      mstore\n      swap1\n      0x01\n      add\n      swap1\n      0x20\n      add\n      dup1\n      dup4\n      gt\n      tag_36\n      jumpi\n      dup3\n      swap1\n      sub\n      0x1f\n      and\n      dup3\n      add\n      swap2\n    tag_34:\n      pop\n      pop\n      pop\n      pop\n      pop\n      dup2\n      mstore\n      0x20\n      add\n      0x02\n      dup3\n      add\n      0x00\n      swap1\n      sload\n      swap1\n      0x0100\n      exp\n      swap1\n      div\n      0xffffffffffffffffffffffffffffffffffffffff\n      and\n      0xffffffffffffffffffffffffffffffffffffffff\n      and\n      0xffffffffffffffffffffffffffffffffffffffff\n      and\n      dup2\n      mstore\n      pop\n      pop\n      swap1\n      pop\n        /* \"myprojectfest/ArtworkRegistry.sol\":865:872  artwork */\n      dup1\n        /* \"myprojectfest/ArtworkRegistry.sol\":865:878  artwork.title */\n      0x00\n      add\n      mload\n        /* \"myprojectfest/ArtworkRegistry.sol\":880:887  artwork */\n      dup2\n        /* \"myprojectfest/ArtworkRegistry.sol\":880:896  artwork.ipfsHash */\n      0x20\n      add\n      mload\n        /* \"myprojectfest/ArtworkRegistry.sol\":898:905  artwork */\n      dup3\n        /* \"myprojectfest/ArtworkRegistry.sol\":898:913  artwork.creator */\n      0x40\n      add\n      mload\n        /* \"myprojectfest/ArtworkRegistry.sol\":857:914  return (artwork.title, artwork.ipfsHash, artwork.creator) */\n      swap4\n      pop\n      swap4\n      pop\n      swap4\n      pop\n      pop\n        /* \"myprojectfest/ArtworkRegistry.sol\":667:922  function getArtwork(uint256 _artworkId) public view returns (string memory title, string memory ipfsHash, address creator) {... */\n      swap2\n      swap4\n      swap1\n      swap3\n      pop\n      jump\t// out\n        /* \"myprojectfest/ArtworkRegistry.sol\":202:245  mapping(uint256 => Artwork) public artworks */\n    tag_15:\n      mstore(0x20, 0x00)\n      dup1\n      0x00\n      mstore\n      keccak256(0x00, 0x40)\n      0x00\n      swap2\n      pop\n      swap1\n      pop\n      dup1\n      0x00\n      add\n      dup1\n      sload\n      tag_37\n      swap1\n      tag_27\n      jump\t// in\n    tag_37:\n      dup1\n      0x1f\n      add\n      0x20\n      dup1\n      swap2\n      div\n      mul\n      0x20\n      add\n      mload(0x40)\n      swap1\n      dup2\n      add\n      0x40\n      mstore\n      dup1\n      swap3\n      swap2\n      swap1\n      dup2\n      dup2\n      mstore\n      0x20\n      add\n      dup3\n      dup1\n      sload\n      tag_38\n      swap1\n      tag_27\n      jump\t// in\n    tag_38:\n      dup1\n      iszero\n      tag_39\n      jumpi\n      dup1\n      0x1f\n      lt\n      tag_40\n      jumpi\n      0x0100\n      dup1\n      dup4\n      sload\n      div\n      mul\n      dup4\n      mstore\n      swap2\n      0x20\n      add\n      swap2\n      jump(tag_39)\n    tag_40:\n      dup3\n      add\n      swap2\n      swap1\n      0x00\n      mstore\n      keccak256(0x00, 0x20)\n      swap1\n    tag_41:\n      dup2\n      sload\n      dup2\n      mstore\n      swap1\n      0x01\n      add\n      swap1\n      0x20\n      add\n      dup1\n      dup4\n      gt\n      tag_41\n      jumpi\n      dup3\n      swap1\n      sub\n      0x1f\n      and\n      dup3\n      add\n      swap2\n    tag_39:\n      pop\n      pop\n      pop\n      pop\n      pop\n      swap1\n      dup1\n      0x01\n      add\n      dup1\n      sload\n      tag_42\n      swap1\n      tag_27\n      jump\t// in\n    tag_42:\n      dup1\n      0x1f\n      add\n      0x20\n      dup1\n      swap2\n      div\n      mul\n      0x20\n      add\n      mload(0x40)\n      swap1\n      dup2\n      add\n      0x40\n      mstore\n      dup1\n      swap3\n      swap2\n      swap1\n      dup2\n      dup2\n      mstore\n      0x20\n      add\n      dup3\n      dup1\n      sload\n      tag_43\n      swap1\n      tag_27\n      jump\t// in\n    tag_43:\n      dup1\n      iszero\n      tag_44\n      jumpi\n      dup1\n      0x1f\n      lt\n      tag_45\n      jumpi\n      0x0100\n      dup1\n      dup4\n      sload\n      div\n      mul\n      dup4\n      mstore\n      swap2\n      0x20\n      add\n      swap2\n      jump(tag_44)\n    tag_45:\n      dup3\n      add\n      swap2\n      swap1\n      0x00\n      mstore\n      keccak256(0x00, 0x20)\n      swap1\n    tag_46:\n      dup2\n      sload\n      dup2\n      mstore\n      swap1\n      0x01\n      add\n      swap1\n      0x20\n      add\n      dup1\n      dup4\n      gt\n      tag_46\n      jumpi\n      dup3\n      swap1\n      sub\n      0x1f\n      and\n      dup3\n      add\n      swap2\n    tag_44:\n      pop\n      pop\n      pop\n      pop\n      pop\n      swap1\n      dup1\n      0x02\n      add\n      0x00\n      swap1\n      sload\n      swap1\n      0x0100\n      exp\n      swap1\n      div\n      0xffffffffffffffffffffffffffffffffffffffff\n      and\n      swap1\n      pop\n      dup4\n      jump\t// out\n        /* \"myprojectfest/ArtworkRegistry.sol\":252:279  uint256 public artworkCount */\n    tag_18:\n      sload(0x01)\n      dup2\n      jump\t// out\n        /* \"myprojectfest/ArtworkRegistry.sol\":395:659  function registerArtwork(string memory _title, string memory _ipfsHash) public {... */\n    tag_24:\n        /* \"myprojectfest/ArtworkRegistry.sol\":485:497  artworkCount */\n      0x01\n      0x00\n        /* \"myprojectfest/ArtworkRegistry.sol\":485:499  artworkCount++ */\n      dup2\n      sload\n      dup1\n      swap3\n      swap2\n      swap1\n      tag_48\n      swap1\n      tag_49\n      jump\t// in\n    tag_48:\n      swap2\n      swap1\n      pop\n      sstore\n      pop\n        /* \"myprojectfest/ArtworkRegistry.sol\":535:573  Artwork(_title, _ipfsHash, msg.sender) */\n      mload(0x40)\n      dup1\n      0x60\n      add\n      0x40\n      mstore\n      dup1\n        /* \"myprojectfest/ArtworkRegistry.sol\":543:549  _title */\n      dup4\n        /* \"myprojectfest/ArtworkRegistry.sol\":535:573  Artwork(_title, _ipfsHash, msg.sender) */\n      dup2\n      mstore\n      0x20\n      add\n        /* \"myprojectfest/ArtworkRegistry.sol\":551:560  _ipfsHash */\n      dup3\n        /* \"myprojectfest/ArtworkRegistry.sol\":535:573  Artwork(_title, _ipfsHash, msg.sender) */\n      dup2\n      mstore\n      0x20\n      add\n        /* \"myprojectfest/ArtworkRegistry.sol\":562:572  msg.sender */\n      caller\n        /* \"myprojectfest/ArtworkRegistry.sol\":535:573  Artwork(_title, _ipfsHash, msg.sender) */\n      0xffffffffffffffffffffffffffffffffffffffff\n      and\n      dup2\n      mstore\n      pop\n        /* \"myprojectfest/ArtworkRegistry.sol\":510:518  artworks */\n      0x00\n        /* \"myprojectfest/ArtworkRegistry.sol\":510:532  artworks[artworkCount] */\n      dup1\n        /* \"myprojectfest/ArtworkRegistry.sol\":519:531  artworkCount */\n      sload(0x01)\n        /* \"myprojectfest/ArtworkRegistry.sol\":510:532  artworks[artworkCount] */\n      dup2\n      mstore\n      0x20\n      add\n      swap1\n      dup2\n      mstore\n      0x20\n      add\n      0x00\n      keccak256\n        /* \"myprojectfest/ArtworkRegistry.sol\":510:573  artworks[artworkCount] = Artwork(_title, _ipfsHash, msg.sender) */\n      0x00\n      dup3\n      add\n      mload\n      dup2\n      0x00\n      add\n      swap1\n      dup2\n      tag_50\n      swap2\n      swap1\n      tag_51\n      jump\t// in\n    tag_50:\n      pop\n      0x20\n      dup3\n      add\n      mload\n      dup2\n      0x01\n      add\n      swap1\n      dup2\n      tag_52\n      swap2\n      swap1\n      tag_51\n      jump\t// in\n    tag_52:\n      pop\n      0x40\n      dup3\n      add\n      mload\n      dup2\n      0x02\n      add\n      exp(0x0100, 0x00)\n      dup2\n      sload\n      dup2\n      0xffffffffffffffffffffffffffffffffffffffff\n      mul\n      not\n      and\n      swap1\n      dup4\n      0xffffffffffffffffffffffffffffffffffffffff\n      and\n      mul\n      or\n      swap1\n      sstore\n      pop\n      swap1\n      pop\n      pop\n        /* \"myprojectfest/ArtworkRegistry.sol\":640:650  msg.sender */\n      caller\n        /* \"myprojectfest/ArtworkRegistry.sol\":589:651  ArtworkRegistered(artworkCount, _title, _ipfsHash, msg.sender) */\n      0xffffffffffffffffffffffffffffffffffffffff\n      and\n      0x41e085a2f4b2ea8b9558e809dbac277bbafd74b106b645cddc0c86b3533325b0\n        /* \"myprojectfest/ArtworkRegistry.sol\":607:619  artworkCount */\n      sload(0x01)\n        /* \"myprojectfest/ArtworkRegistry.sol\":621:627  _title */\n      dup5\n        /* \"myprojectfest/ArtworkRegistry.sol\":629:638  _ipfsHash */\n      dup5\n        /* \"myprojectfest/ArtworkRegistry.sol\":589:651  ArtworkRegistered(artworkCount, _title, _ipfsHash, msg.sender) */\n      mload(0x40)\n      tag_53\n      swap4\n      swap3\n      swap2\n      swap1\n      tag_54\n      jump\t// in\n    tag_53:\n      mload(0x40)\n      dup1\n      swap2\n      sub\n      swap1\n      log2\n        /* \"myprojectfest/ArtworkRegistry.sol\":395:659  function registerArtwork(string memory _title, string memory _ipfsHash) public {... */\n      pop\n      pop\n      jump\t// out\n        /* \"#utility.yul\":7:82   */\n    tag_55:\n        /* \"#utility.yul\":40:46   */\n      0x00\n        /* \"#utility.yul\":73:75   */\n      0x40\n        /* \"#utility.yul\":67:76   */\n      mload\n        /* \"#utility.yul\":57:76   */\n      swap1\n      pop\n        /* \"#utility.yul\":7:82   */\n      swap1\n      jump\t// out\n        /* \"#utility.yul\":88:205   */\n    tag_56:\n        /* \"#utility.yul\":197:198   */\n      0x00\n        /* \"#utility.yul\":194:195   */\n      dup1\n        /* \"#utility.yul\":187:199   */\n      revert\n        /* \"#utility.yul\":211:328   */\n    tag_57:\n        /* \"#utility.yul\":320:321   */\n      0x00\n        /* \"#utility.yul\":317:318   */\n      dup1\n        /* \"#utility.yul\":310:322   */\n      revert\n        /* \"#utility.yul\":334:411   */\n    tag_58:\n        /* \"#utility.yul\":371:378   */\n      0x00\n        /* \"#utility.yul\":400:405   */\n      dup2\n        /* \"#utility.yul\":389:405   */\n      swap1\n      pop\n        /* \"#utility.yul\":334:411   */\n      swap2\n      swap1\n      pop\n      jump\t// out\n        /* \"#utility.yul\":417:539   */\n    tag_59:\n        /* \"#utility.yul\":490:514   */\n      tag_102\n        /* \"#utility.yul\":508:513   */\n      dup2\n        /* \"#utility.yul\":490:514   */\n      tag_58\n      jump\t// in\n    tag_102:\n        /* \"#utility.yul\":483:488   */\n      dup2\n        /* \"#utility.yul\":480:515   */\n      eq\n        /* \"#utility.yul\":470:533   */\n      tag_103\n      jumpi\n        /* \"#utility.yul\":529:530   */\n      0x00\n        /* \"#utility.yul\":526:527   */\n      dup1\n        /* \"#utility.yul\":519:531   */\n      revert\n        /* \"#utility.yul\":470:533   */\n    tag_103:\n        /* \"#utility.yul\":417:539   */\n      pop\n      jump\t// out\n        /* \"#utility.yul\":545:684   */\n    tag_60:\n        /* \"#utility.yul\":591:596   */\n      0x00\n        /* \"#utility.yul\":629:635   */\n      dup2\n        /* \"#utility.yul\":616:636   */\n      calldataload\n        /* \"#utility.yul\":607:636   */\n      swap1\n      pop\n        /* \"#utility.yul\":645:678   */\n      tag_105\n        /* \"#utility.yul\":672:677   */\n      dup2\n        /* \"#utility.yul\":645:678   */\n      tag_59\n      jump\t// in\n    tag_105:\n        /* \"#utility.yul\":545:684   */\n      swap3\n      swap2\n      pop\n      pop\n      jump\t// out\n        /* \"#utility.yul\":690:1019   */\n    tag_9:\n        /* \"#utility.yul\":749:755   */\n      0x00\n        /* \"#utility.yul\":798:800   */\n      0x20\n        /* \"#utility.yul\":786:795   */\n      dup3\n        /* \"#utility.yul\":777:784   */\n      dup5\n        /* \"#utility.yul\":773:796   */\n      sub\n        /* \"#utility.yul\":769:801   */\n      slt\n        /* \"#utility.yul\":766:885   */\n      iszero\n      tag_107\n      jumpi\n        /* \"#utility.yul\":804:883   */\n      tag_108\n      tag_56\n      jump\t// in\n    tag_108:\n        /* \"#utility.yul\":766:885   */\n    tag_107:\n        /* \"#utility.yul\":924:925   */\n      0x00\n        /* \"#utility.yul\":949:1002   */\n      tag_109\n        /* \"#utility.yul\":994:1001   */\n      dup5\n        /* \"#utility.yul\":985:991   */\n      dup3\n        /* \"#utility.yul\":974:983   */\n      dup6\n        /* \"#utility.yul\":970:992   */\n      add\n        /* \"#utility.yul\":949:1002   */\n      tag_60\n      jump\t// in\n    tag_109:\n        /* \"#utility.yul\":939:1002   */\n      swap2\n      pop\n        /* \"#utility.yul\":895:1012   */\n      pop\n        /* \"#utility.yul\":690:1019   */\n      swap3\n      swap2\n      pop\n      pop\n      jump\t// out\n        /* \"#utility.yul\":1025:1124   */\n    tag_61:\n        /* \"#utility.yul\":1077:1083   */\n      0x00\n        /* \"#utility.yul\":1111:1116   */\n      dup2\n        /* \"#utility.yul\":1105:1117   */\n      mload\n        /* \"#utility.yul\":1095:1117   */\n      swap1\n      pop\n        /* \"#utility.yul\":1025:1124   */\n      swap2\n      swap1\n      pop\n      jump\t// out\n        /* \"#utility.yul\":1130:1299   */\n    tag_62:\n        /* \"#utility.yul\":1214:1225   */\n      0x00\n        /* \"#utility.yul\":1248:1254   */\n      dup3\n        /* \"#utility.yul\":1243:1246   */\n      dup3\n        /* \"#utility.yul\":1236:1255   */\n      mstore\n        /* \"#utility.yul\":1288:1292   */\n      0x20\n        /* \"#utility.yul\":1283:1286   */\n      dup3\n        /* \"#utility.yul\":1279:1293   */\n      add\n        /* \"#utility.yul\":1264:1293   */\n      swap1\n      pop\n        /* \"#utility.yul\":1130:1299   */\n      swap3\n      swap2\n      pop\n      pop\n      jump\t// out\n        /* \"#utility.yul\":1305:1444   */\n    tag_63:\n        /* \"#utility.yul\":1394:1400   */\n      dup3\n        /* \"#utility.yul\":1389:1392   */\n      dup2\n        /* \"#utility.yul\":1384:1387   */\n      dup4\n        /* \"#utility.yul\":1378:1401   */\n      mcopy\n        /* \"#utility.yul\":1435:1436   */\n      0x00\n        /* \"#utility.yul\":1426:1432   */\n      dup4\n        /* \"#utility.yul\":1421:1424   */\n      dup4\n        /* \"#utility.yul\":1417:1433   */\n      add\n        /* \"#utility.yul\":1410:1437   */\n      mstore\n        /* \"#utility.yul\":1305:1444   */\n      pop\n      pop\n      pop\n      jump\t// out\n        /* \"#utility.yul\":1450:1552   */\n    tag_64:\n        /* \"#utility.yul\":1491:1497   */\n      0x00\n        /* \"#utility.yul\":1542:1544   */\n      0x1f\n        /* \"#utility.yul\":1538:1545   */\n      not\n        /* \"#utility.yul\":1533:1535   */\n      0x1f\n        /* \"#utility.yul\":1526:1531   */\n      dup4\n        /* \"#utility.yul\":1522:1536   */\n      add\n        /* \"#utility.yul\":1518:1546   */\n      and\n        /* \"#utility.yul\":1508:1546   */\n      swap1\n      pop\n        /* \"#utility.yul\":1450:1552   */\n      swap2\n      swap1\n      pop\n      jump\t// out\n        /* \"#utility.yul\":1558:1935   */\n    tag_65:\n        /* \"#utility.yul\":1646:1649   */\n      0x00\n        /* \"#utility.yul\":1674:1713   */\n      tag_115\n        /* \"#utility.yul\":1707:1712   */\n      dup3\n        /* \"#utility.yul\":1674:1713   */\n      tag_61\n      jump\t// in\n    tag_115:\n        /* \"#utility.yul\":1729:1800   */\n      tag_116\n        /* \"#utility.yul\":1793:1799   */\n      dup2\n        /* \"#utility.yul\":1788:1791   */\n      dup6\n        /* \"#utility.yul\":1729:1800   */\n      tag_62\n      jump\t// in\n    tag_116:\n        /* \"#utility.yul\":1722:1800   */\n      swap4\n      pop\n        /* \"#utility.yul\":1809:1874   */\n      tag_117\n        /* \"#utility.yul\":1867:1873   */\n      dup2\n        /* \"#utility.yul\":1862:1865   */\n      dup6\n        /* \"#utility.yul\":1855:1859   */\n      0x20\n        /* \"#utility.yul\":1848:1853   */\n      dup7\n        /* \"#utility.yul\":1844:1860   */\n      add\n        /* \"#utility.yul\":1809:1874   */\n      tag_63\n      jump\t// in\n    tag_117:\n        /* \"#utility.yul\":1899:1928   */\n      tag_118\n        /* \"#utility.yul\":1921:1927   */\n      dup2\n        /* \"#utility.yul\":1899:1928   */\n      tag_64\n      jump\t// in\n    tag_118:\n        /* \"#utility.yul\":1894:1897   */\n      dup5\n        /* \"#utility.yul\":1890:1929   */\n      add\n        /* \"#utility.yul\":1883:1929   */\n      swap2\n      pop\n        /* \"#utility.yul\":1650:1935   */\n      pop\n        /* \"#utility.yul\":1558:1935   */\n      swap3\n      swap2\n      pop\n      pop\n      jump\t// out\n        /* \"#utility.yul\":1941:2067   */\n    tag_66:\n        /* \"#utility.yul\":1978:1985   */\n      0x00\n        /* \"#utility.yul\":2018:2060   */\n      0xffffffffffffffffffffffffffffffffffffffff\n        /* \"#utility.yul\":2011:2016   */\n      dup3\n        /* \"#utility.yul\":2007:2061   */\n      and\n        /* \"#utility.yul\":1996:2061   */\n      swap1\n      pop\n        /* \"#utility.yul\":1941:2067   */\n      swap2\n      swap1\n      pop\n      jump\t// out\n        /* \"#utility.yul\":2073:2169   */\n    tag_67:\n        /* \"#utility.yul\":2110:2117   */\n      0x00\n        /* \"#utility.yul\":2139:2163   */\n      tag_121\n        /* \"#utility.yul\":2157:2162   */\n      dup3\n        /* \"#utility.yul\":2139:2163   */\n      tag_66\n      jump\t// in\n    tag_121:\n        /* \"#utility.yul\":2128:2163   */\n      swap1\n      pop\n        /* \"#utility.yul\":2073:2169   */\n      swap2\n      swap1\n      pop\n      jump\t// out\n        /* \"#utility.yul\":2175:2293   */\n    tag_68:\n        /* \"#utility.yul\":2262:2286   */\n      tag_123\n        /* \"#utility.yul\":2280:2285   */\n      dup2\n        /* \"#utility.yul\":2262:2286   */\n      tag_67\n      jump\t// in\n    tag_123:\n        /* \"#utility.yul\":2257:2260   */\n      dup3\n        /* \"#utility.yul\":2250:2287   */\n      mstore\n        /* \"#utility.yul\":2175:2293   */\n      pop\n      pop\n      jump\t// out\n        /* \"#utility.yul\":2299:2923   */\n    tag_12:\n        /* \"#utility.yul\":2488:2492   */\n      0x00\n        /* \"#utility.yul\":2526:2528   */\n      0x60\n        /* \"#utility.yul\":2515:2524   */\n      dup3\n        /* \"#utility.yul\":2511:2529   */\n      add\n        /* \"#utility.yul\":2503:2529   */\n      swap1\n      pop\n        /* \"#utility.yul\":2575:2584   */\n      dup2\n        /* \"#utility.yul\":2569:2573   */\n      dup2\n        /* \"#utility.yul\":2565:2585   */\n      sub\n        /* \"#utility.yul\":2561:2562   */\n      0x00\n        /* \"#utility.yul\":2550:2559   */\n      dup4\n        /* \"#utility.yul\":2546:2563   */\n      add\n        /* \"#utility.yul\":2539:2586   */\n      mstore\n        /* \"#utility.yul\":2603:2681   */\n      tag_125\n        /* \"#utility.yul\":2676:2680   */\n      dup2\n        /* \"#utility.yul\":2667:2673   */\n      dup7\n        /* \"#utility.yul\":2603:2681   */\n      tag_65\n      jump\t// in\n    tag_125:\n        /* \"#utility.yul\":2595:2681   */\n      swap1\n      pop\n        /* \"#utility.yul\":2728:2737   */\n      dup2\n        /* \"#utility.yul\":2722:2726   */\n      dup2\n        /* \"#utility.yul\":2718:2738   */\n      sub\n        /* \"#utility.yul\":2713:2715   */\n      0x20\n        /* \"#utility.yul\":2702:2711   */\n      dup4\n        /* \"#utility.yul\":2698:2716   */\n      add\n        /* \"#utility.yul\":2691:2739   */\n      mstore\n        /* \"#utility.yul\":2756:2834   */\n      tag_126\n        /* \"#utility.yul\":2829:2833   */\n      dup2\n        /* \"#utility.yul\":2820:2826   */\n      dup6\n        /* \"#utility.yul\":2756:2834   */\n      tag_65\n      jump\t// in\n    tag_126:\n        /* \"#utility.yul\":2748:2834   */\n      swap1\n      pop\n        /* \"#utility.yul\":2844:2916   */\n      tag_127\n        /* \"#utility.yul\":2912:2914   */\n      0x40\n        /* \"#utility.yul\":2901:2910   */\n      dup4\n        /* \"#utility.yul\":2897:2915   */\n      add\n        /* \"#utility.yul\":2888:2894   */\n      dup5\n        /* \"#utility.yul\":2844:2916   */\n      tag_68\n      jump\t// in\n    tag_127:\n        /* \"#utility.yul\":2299:2923   */\n      swap5\n      swap4\n      pop\n      pop\n      pop\n      pop\n      jump\t// out\n        /* \"#utility.yul\":2929:3047   */\n    tag_69:\n        /* \"#utility.yul\":3016:3040   */\n      tag_129\n        /* \"#utility.yul\":3034:3039   */\n      dup2\n        /* \"#utility.yul\":3016:3040   */\n      tag_58\n      jump\t// in\n    tag_129:\n        /* \"#utility.yul\":3011:3014   */\n      dup3\n        /* \"#utility.yul\":3004:3041   */\n      mstore\n        /* \"#utility.yul\":2929:3047   */\n      pop\n      pop\n      jump\t// out\n        /* \"#utility.yul\":3053:3275   */\n    tag_20:\n        /* \"#utility.yul\":3146:3150   */\n      0x00\n        /* \"#utility.yul\":3184:3186   */\n      0x20\n        /* \"#utility.yul\":3173:3182   */\n      dup3\n        /* \"#utility.yul\":3169:3187   */\n      add\n        /* \"#utility.yul\":3161:3187   */\n      swap1\n      pop\n        /* \"#utility.yul\":3197:3268   */\n      tag_131\n        /* \"#utility.yul\":3265:3266   */\n      0x00\n        /* \"#utility.yul\":3254:3263   */\n      dup4\n        /* \"#utility.yul\":3250:3267   */\n      add\n        /* \"#utility.yul\":3241:3247   */\n      dup5\n        /* \"#utility.yul\":3197:3268   */\n      tag_69\n      jump\t// in\n    tag_131:\n        /* \"#utility.yul\":3053:3275   */\n      swap3\n      swap2\n      pop\n      pop\n      jump\t// out\n        /* \"#utility.yul\":3281:3398   */\n    tag_70:\n        /* \"#utility.yul\":3390:3391   */\n      0x00\n        /* \"#utility.yul\":3387:3388   */\n      dup1\n        /* \"#utility.yul\":3380:3392   */\n      revert\n        /* \"#utility.yul\":3404:3521   */\n    tag_71:\n        /* \"#utility.yul\":3513:3514   */\n      0x00\n        /* \"#utility.yul\":3510:3511   */\n      dup1\n        /* \"#utility.yul\":3503:3515   */\n      revert\n        /* \"#utility.yul\":3527:3707   */\n    tag_72:\n        /* \"#utility.yul\":3575:3652   */\n      0x4e487b7100000000000000000000000000000000000000000000000000000000\n        /* \"#utility.yul\":3572:3573   */\n      0x00\n        /* \"#utility.yul\":3565:3653   */\n      mstore\n        /* \"#utility.yul\":3672:3676   */\n      0x41\n        /* \"#utility.yul\":3669:3670   */\n      0x04\n        /* \"#utility.yul\":3662:3677   */\n      mstore\n        /* \"#utility.yul\":3696:3700   */\n      0x24\n        /* \"#utility.yul\":3693:3694   */\n      0x00\n        /* \"#utility.yul\":3686:3701   */\n      revert\n        /* \"#utility.yul\":3713:3994   */\n    tag_73:\n        /* \"#utility.yul\":3796:3823   */\n      tag_136\n        /* \"#utility.yul\":3818:3822   */\n      dup3\n        /* \"#utility.yul\":3796:3823   */\n      tag_64\n      jump\t// in\n    tag_136:\n        /* \"#utility.yul\":3788:3794   */\n      dup2\n        /* \"#utility.yul\":3784:3824   */\n      add\n        /* \"#utility.yul\":3926:3932   */\n      dup2\n        /* \"#utility.yul\":3914:3924   */\n      dup2\n        /* \"#utility.yul\":3911:3933   */\n      lt\n        /* \"#utility.yul\":3890:3908   */\n      0xffffffffffffffff\n        /* \"#utility.yul\":3878:3888   */\n      dup3\n        /* \"#utility.yul\":3875:3909   */\n      gt\n        /* \"#utility.yul\":3872:3934   */\n      or\n        /* \"#utility.yul\":3869:3957   */\n      iszero\n      tag_137\n      jumpi\n        /* \"#utility.yul\":3937:3955   */\n      tag_138\n      tag_72\n      jump\t// in\n    tag_138:\n        /* \"#utility.yul\":3869:3957   */\n    tag_137:\n        /* \"#utility.yul\":3977:3987   */\n      dup1\n        /* \"#utility.yul\":3973:3975   */\n      0x40\n        /* \"#utility.yul\":3966:3988   */\n      mstore\n        /* \"#utility.yul\":3756:3994   */\n      pop\n        /* \"#utility.yul\":3713:3994   */\n      pop\n      pop\n      jump\t// out\n        /* \"#utility.yul\":4000:4129   */\n    tag_74:\n        /* \"#utility.yul\":4034:4040   */\n      0x00\n        /* \"#utility.yul\":4061:4081   */\n      tag_140\n      tag_55\n      jump\t// in\n    tag_140:\n        /* \"#utility.yul\":4051:4081   */\n      swap1\n      pop\n        /* \"#utility.yul\":4090:4123   */\n      tag_141\n        /* \"#utility.yul\":4118:4122   */\n      dup3\n        /* \"#utility.yul\":4110:4116   */\n      dup3\n        /* \"#utility.yul\":4090:4123   */\n      tag_73\n      jump\t// in\n    tag_141:\n        /* \"#utility.yul\":4000:4129   */\n      swap2\n      swap1\n      pop\n      jump\t// out\n        /* \"#utility.yul\":4135:4443   */\n    tag_75:\n        /* \"#utility.yul\":4197:4201   */\n      0x00\n        /* \"#utility.yul\":4287:4305   */\n      0xffffffffffffffff\n        /* \"#utility.yul\":4279:4285   */\n      dup3\n        /* \"#utility.yul\":4276:4306   */\n      gt\n        /* \"#utility.yul\":4273:4329   */\n      iszero\n      tag_143\n      jumpi\n        /* \"#utility.yul\":4309:4327   */\n      tag_144\n      tag_72\n      jump\t// in\n    tag_144:\n        /* \"#utility.yul\":4273:4329   */\n    tag_143:\n        /* \"#utility.yul\":4347:4376   */\n      tag_145\n        /* \"#utility.yul\":4369:4375   */\n      dup3\n        /* \"#utility.yul\":4347:4376   */\n      tag_64\n      jump\t// in\n    tag_145:\n        /* \"#utility.yul\":4339:4376   */\n      swap1\n      pop\n        /* \"#utility.yul\":4431:4435   */\n      0x20\n        /* \"#utility.yul\":4425:4429   */\n      dup2\n        /* \"#utility.yul\":4421:4436   */\n      add\n        /* \"#utility.yul\":4413:4436   */\n      swap1\n      pop\n        /* \"#utility.yul\":4135:4443   */\n      swap2\n      swap1\n      pop\n      jump\t// out\n        /* \"#utility.yul\":4449:4597   */\n    tag_76:\n        /* \"#utility.yul\":4547:4553   */\n      dup3\n        /* \"#utility.yul\":4542:4545   */\n      dup2\n        /* \"#utility.yul\":4537:4540   */\n      dup4\n        /* \"#utility.yul\":4524:4554   */\n      calldatacopy\n        /* \"#utility.yul\":4588:4589   */\n      0x00\n        /* \"#utility.yul\":4579:4585   */\n      dup4\n        /* \"#utility.yul\":4574:4577   */\n      dup4\n        /* \"#utility.yul\":4570:4586   */\n      add\n        /* \"#utility.yul\":4563:4590   */\n      mstore\n        /* \"#utility.yul\":4449:4597   */\n      pop\n      pop\n      pop\n      jump\t// out\n        /* \"#utility.yul\":4603:5028   */\n    tag_77:\n        /* \"#utility.yul\":4681:4686   */\n      0x00\n        /* \"#utility.yul\":4706:4772   */\n      tag_148\n        /* \"#utility.yul\":4722:4771   */\n      tag_149\n        /* \"#utility.yul\":4764:4770   */\n      dup5\n        /* \"#utility.yul\":4722:4771   */\n      tag_75\n      jump\t// in\n    tag_149:\n        /* \"#utility.yul\":4706:4772   */\n      tag_74\n      jump\t// in\n    tag_148:\n        /* \"#utility.yul\":4697:4772   */\n      swap1\n      pop\n        /* \"#utility.yul\":4795:4801   */\n      dup3\n        /* \"#utility.yul\":4788:4793   */\n      dup2\n        /* \"#utility.yul\":4781:4802   */\n      mstore\n        /* \"#utility.yul\":4833:4837   */\n      0x20\n        /* \"#utility.yul\":4826:4831   */\n      dup2\n        /* \"#utility.yul\":4822:4838   */\n      add\n        /* \"#utility.yul\":4871:4874   */\n      dup5\n        /* \"#utility.yul\":4862:4868   */\n      dup5\n        /* \"#utility.yul\":4857:4860   */\n      dup5\n        /* \"#utility.yul\":4853:4869   */\n      add\n        /* \"#utility.yul\":4850:4875   */\n      gt\n        /* \"#utility.yul\":4847:4959   */\n      iszero\n      tag_150\n      jumpi\n        /* \"#utility.yul\":4878:4957   */\n      tag_151\n      tag_71\n      jump\t// in\n    tag_151:\n        /* \"#utility.yul\":4847:4959   */\n    tag_150:\n        /* \"#utility.yul\":4968:5022   */\n      tag_152\n        /* \"#utility.yul\":5015:5021   */\n      dup5\n        /* \"#utility.yul\":5010:5013   */\n      dup3\n        /* \"#utility.yul\":5005:5008   */\n      dup6\n        /* \"#utility.yul\":4968:5022   */\n      tag_76\n      jump\t// in\n    tag_152:\n        /* \"#utility.yul\":4687:5028   */\n      pop\n        /* \"#utility.yul\":4603:5028   */\n      swap4\n      swap3\n      pop\n      pop\n      pop\n      jump\t// out\n        /* \"#utility.yul\":5048:5388   */\n    tag_78:\n        /* \"#utility.yul\":5104:5109   */\n      0x00\n        /* \"#utility.yul\":5153:5156   */\n      dup3\n        /* \"#utility.yul\":5146:5150   */\n      0x1f\n        /* \"#utility.yul\":5138:5144   */\n      dup4\n        /* \"#utility.yul\":5134:5151   */\n      add\n        /* \"#utility.yul\":5130:5157   */\n      slt\n        /* \"#utility.yul\":5120:5242   */\n      tag_154\n      jumpi\n        /* \"#utility.yul\":5161:5240   */\n      tag_155\n      tag_70\n      jump\t// in\n    tag_155:\n        /* \"#utility.yul\":5120:5242   */\n    tag_154:\n        /* \"#utility.yul\":5278:5284   */\n      dup2\n        /* \"#utility.yul\":5265:5285   */\n      calldataload\n        /* \"#utility.yul\":5303:5382   */\n      tag_156\n        /* \"#utility.yul\":5378:5381   */\n      dup5\n        /* \"#utility.yul\":5370:5376   */\n      dup3\n        /* \"#utility.yul\":5363:5367   */\n      0x20\n        /* \"#utility.yul\":5355:5361   */\n      dup7\n        /* \"#utility.yul\":5351:5368   */\n      add\n        /* \"#utility.yul\":5303:5382   */\n      tag_77\n      jump\t// in\n    tag_156:\n        /* \"#utility.yul\":5294:5382   */\n      swap2\n      pop\n        /* \"#utility.yul\":5110:5388   */\n      pop\n        /* \"#utility.yul\":5048:5388   */\n      swap3\n      swap2\n      pop\n      pop\n      jump\t// out\n        /* \"#utility.yul\":5394:6228   */\n    tag_23:\n        /* \"#utility.yul\":5482:5488   */\n      0x00\n        /* \"#utility.yul\":5490:5496   */\n      dup1\n        /* \"#utility.yul\":5539:5541   */\n      0x40\n        /* \"#utility.yul\":5527:5536   */\n      dup4\n        /* \"#utility.yul\":5518:5525   */\n      dup6\n        /* \"#utility.yul\":5514:5537   */\n      sub\n        /* \"#utility.yul\":5510:5542   */\n      slt\n        /* \"#utility.yul\":5507:5626   */\n      iszero\n      tag_158\n      jumpi\n        /* \"#utility.yul\":5545:5624   */\n      tag_159\n      tag_56\n      jump\t// in\n    tag_159:\n        /* \"#utility.yul\":5507:5626   */\n    tag_158:\n        /* \"#utility.yul\":5693:5694   */\n      0x00\n        /* \"#utility.yul\":5682:5691   */\n      dup4\n        /* \"#utility.yul\":5678:5695   */\n      add\n        /* \"#utility.yul\":5665:5696   */\n      calldataload\n        /* \"#utility.yul\":5723:5741   */\n      0xffffffffffffffff\n        /* \"#utility.yul\":5715:5721   */\n      dup2\n        /* \"#utility.yul\":5712:5742   */\n      gt\n        /* \"#utility.yul\":5709:5826   */\n      iszero\n      tag_160\n      jumpi\n        /* \"#utility.yul\":5745:5824   */\n      tag_161\n      tag_57\n      jump\t// in\n    tag_161:\n        /* \"#utility.yul\":5709:5826   */\n    tag_160:\n        /* \"#utility.yul\":5850:5913   */\n      tag_162\n        /* \"#utility.yul\":5905:5912   */\n      dup6\n        /* \"#utility.yul\":5896:5902   */\n      dup3\n        /* \"#utility.yul\":5885:5894   */\n      dup7\n        /* \"#utility.yul\":5881:5903   */\n      add\n        /* \"#utility.yul\":5850:5913   */\n      tag_78\n      jump\t// in\n    tag_162:\n        /* \"#utility.yul\":5840:5913   */\n      swap3\n      pop\n        /* \"#utility.yul\":5636:5923   */\n      pop\n        /* \"#utility.yul\":5990:5992   */\n      0x20\n        /* \"#utility.yul\":5979:5988   */\n      dup4\n        /* \"#utility.yul\":5975:5993   */\n      add\n        /* \"#utility.yul\":5962:5994   */\n      calldataload\n        /* \"#utility.yul\":6021:6039   */\n      0xffffffffffffffff\n        /* \"#utility.yul\":6013:6019   */\n      dup2\n        /* \"#utility.yul\":6010:6040   */\n      gt\n        /* \"#utility.yul\":6007:6124   */\n      iszero\n      tag_163\n      jumpi\n        /* \"#utility.yul\":6043:6122   */\n      tag_164\n      tag_57\n      jump\t// in\n    tag_164:\n        /* \"#utility.yul\":6007:6124   */\n    tag_163:\n        /* \"#utility.yul\":6148:6211   */\n      tag_165\n        /* \"#utility.yul\":6203:6210   */\n      dup6\n        /* \"#utility.yul\":6194:6200   */\n      dup3\n        /* \"#utility.yul\":6183:6192   */\n      dup7\n        /* \"#utility.yul\":6179:6201   */\n      add\n        /* \"#utility.yul\":6148:6211   */\n      tag_78\n      jump\t// in\n    tag_165:\n        /* \"#utility.yul\":6138:6211   */\n      swap2\n      pop\n        /* \"#utility.yul\":5933:6221   */\n      pop\n        /* \"#utility.yul\":5394:6228   */\n      swap3\n      pop\n      swap3\n      swap1\n      pop\n      jump\t// out\n        /* \"#utility.yul\":6234:6414   */\n    tag_79:\n        /* \"#utility.yul\":6282:6359   */\n      0x4e487b7100000000000000000000000000000000000000000000000000000000\n        /* \"#utility.yul\":6279:6280   */\n      0x00\n        /* \"#utility.yul\":6272:6360   */\n      mstore\n        /* \"#utility.yul\":6379:6383   */\n      0x22\n        /* \"#utility.yul\":6376:6377   */\n      0x04\n        /* \"#utility.yul\":6369:6384   */\n      mstore\n        /* \"#utility.yul\":6403:6407   */\n      0x24\n        /* \"#utility.yul\":6400:6401   */\n      0x00\n        /* \"#utility.yul\":6393:6408   */\n      revert\n        /* \"#utility.yul\":6420:6740   */\n    tag_27:\n        /* \"#utility.yul\":6464:6470   */\n      0x00\n        /* \"#utility.yul\":6501:6502   */\n      0x02\n        /* \"#utility.yul\":6495:6499   */\n      dup3\n        /* \"#utility.yul\":6491:6503   */\n      div\n        /* \"#utility.yul\":6481:6503   */\n      swap1\n      pop\n        /* \"#utility.yul\":6548:6549   */\n      0x01\n        /* \"#utility.yul\":6542:6546   */\n      dup3\n        /* \"#utility.yul\":6538:6550   */\n      and\n        /* \"#utility.yul\":6569:6587   */\n      dup1\n        /* \"#utility.yul\":6559:6640   */\n      tag_168\n      jumpi\n        /* \"#utility.yul\":6625:6629   */\n      0x7f\n        /* \"#utility.yul\":6617:6623   */\n      dup3\n        /* \"#utility.yul\":6613:6630   */\n      and\n        /* \"#utility.yul\":6603:6630   */\n      swap2\n      pop\n        /* \"#utility.yul\":6559:6640   */\n    tag_168:\n        /* \"#utility.yul\":6687:6689   */\n      0x20\n        /* \"#utility.yul\":6679:6685   */\n      dup3\n        /* \"#utility.yul\":6676:6690   */\n      lt\n        /* \"#utility.yul\":6656:6674   */\n      dup2\n        /* \"#utility.yul\":6653:6691   */\n      sub\n        /* \"#utility.yul\":6650:6734   */\n      tag_169\n      jumpi\n        /* \"#utility.yul\":6706:6724   */\n      tag_170\n      tag_79\n      jump\t// in\n    tag_170:\n        /* \"#utility.yul\":6650:6734   */\n    tag_169:\n        /* \"#utility.yul\":6471:6740   */\n      pop\n        /* \"#utility.yul\":6420:6740   */\n      swap2\n      swap1\n      pop\n      jump\t// out\n        /* \"#utility.yul\":6746:6926   */\n    tag_80:\n        /* \"#utility.yul\":6794:6871   */\n      0x4e487b7100000000000000000000000000000000000000000000000000000000\n        /* \"#utility.yul\":6791:6792   */\n      0x00\n        /* \"#utility.yul\":6784:6872   */\n      mstore\n        /* \"#utility.yul\":6891:6895   */\n      0x11\n        /* \"#utility.yul\":6888:6889   */\n      0x04\n        /* \"#utility.yul\":6881:6896   */\n      mstore\n        /* \"#utility.yul\":6915:6919   */\n      0x24\n        /* \"#utility.yul\":6912:6913   */\n      0x00\n        /* \"#utility.yul\":6905:6920   */\n      revert\n        /* \"#utility.yul\":6932:7165   */\n    tag_49:\n        /* \"#utility.yul\":6971:6974   */\n      0x00\n        /* \"#utility.yul\":6994:7018   */\n      tag_173\n        /* \"#utility.yul\":7012:7017   */\n      dup3\n        /* \"#utility.yul\":6994:7018   */\n      tag_58\n      jump\t// in\n    tag_173:\n        /* \"#utility.yul\":6985:7018   */\n      swap2\n      pop\n        /* \"#utility.yul\":7040:7106   */\n      0xffffffffffffffffffffffffffffffffffffffffffffffffffffffffffffffff\n        /* \"#utility.yul\":7033:7038   */\n      dup3\n        /* \"#utility.yul\":7030:7107   */\n      sub\n        /* \"#utility.yul\":7027:7130   */\n      tag_174\n      jumpi\n        /* \"#utility.yul\":7110:7128   */\n      tag_175\n      tag_80\n      jump\t// in\n    tag_175:\n        /* \"#utility.yul\":7027:7130   */\n    tag_174:\n        /* \"#utility.yul\":7157:7158   */\n      0x01\n        /* \"#utility.yul\":7150:7155   */\n      dup3\n        /* \"#utility.yul\":7146:7159   */\n      add\n        /* \"#utility.yul\":7139:7159   */\n      swap1\n      pop\n        /* \"#utility.yul\":6932:7165   */\n      swap2\n      swap1\n      pop\n      jump\t// out\n        /* \"#utility.yul\":7171:7312   */\n    tag_81:\n        /* \"#utility.yul\":7220:7224   */\n      0x00\n        /* \"#utility.yul\":7243:7246   */\n      dup2\n        /* \"#utility.yul\":7235:7246   */\n      swap1\n      pop\n        /* \"#utility.yul\":7266:7269   */\n      dup2\n        /* \"#utility.yul\":7263:7264   */\n      0x00\n        /* \"#utility.yul\":7256:7270   */\n      mstore\n        /* \"#utility.yul\":7300:7304   */\n      0x20\n        /* \"#utility.yul\":7297:7298   */\n      0x00\n        /* \"#utility.yul\":7287:7305   */\n      keccak256\n        /* \"#utility.yul\":7279:7305   */\n      swap1\n      pop\n        /* \"#utility.yul\":7171:7312   */\n      swap2\n      swap1\n      pop\n      jump\t// out\n        /* \"#utility.yul\":7318:7411   */\n    tag_82:\n        /* \"#utility.yul\":7355:7361   */\n      0x00\n        /* \"#utility.yul\":7402:7404   */\n      0x20\n        /* \"#utility.yul\":7397:7399   */\n      0x1f\n        /* \"#utility.yul\":7390:7395   */\n      dup4\n        /* \"#utility.yul\":7386:7400   */\n      add\n        /* \"#utility.yul\":7382:7405   */\n      div\n        /* \"#utility.yul\":7372:7405   */\n      swap1\n      pop\n        /* \"#utility.yul\":7318:7411   */\n      swap2\n      swap1\n      pop\n      jump\t// out\n        /* \"#utility.yul\":7417:7524   */\n    tag_83:\n        /* \"#utility.yul\":7461:7469   */\n      0x00\n        /* \"#utility.yul\":7511:7516   */\n      dup3\n        /* \"#utility.yul\":7505:7509   */\n      dup3\n        /* \"#utility.yul\":7501:7517   */\n      shl\n        /* \"#utility.yul\":7480:7517   */\n      swap1\n      pop\n        /* \"#utility.yul\":7417:7524   */\n      swap3\n      swap2\n      pop\n      pop\n      jump\t// out\n        /* \"#utility.yul\":7530:7923   */\n    tag_84:\n        /* \"#utility.yul\":7599:7605   */\n      0x00\n        /* \"#utility.yul\":7649:7650   */\n      0x08\n        /* \"#utility.yul\":7637:7647   */\n      dup4\n        /* \"#utility.yul\":7633:7651   */\n      mul\n        /* \"#utility.yul\":7672:7769   */\n      tag_180\n        /* \"#utility.yul\":7702:7768   */\n      0xffffffffffffffffffffffffffffffffffffffffffffffffffffffffffffffff\n        /* \"#utility.yul\":7691:7700   */\n      dup3\n        /* \"#utility.yul\":7672:7769   */\n      tag_83\n      jump\t// in\n    tag_180:\n        /* \"#utility.yul\":7790:7829   */\n      tag_181\n        /* \"#utility.yul\":7820:7828   */\n      dup7\n        /* \"#utility.yul\":7809:7818   */\n      dup4\n        /* \"#utility.yul\":7790:7829   */\n      tag_83\n      jump\t// in\n    tag_181:\n        /* \"#utility.yul\":7778:7829   */\n      swap6\n      pop\n        /* \"#utility.yul\":7862:7866   */\n      dup1\n        /* \"#utility.yul\":7858:7867   */\n      not\n        /* \"#utility.yul\":7851:7856   */\n      dup5\n        /* \"#utility.yul\":7847:7868   */\n      and\n        /* \"#utility.yul\":7838:7868   */\n      swap4\n      pop\n        /* \"#utility.yul\":7911:7915   */\n      dup1\n        /* \"#utility.yul\":7901:7909   */\n      dup7\n        /* \"#utility.yul\":7897:7916   */\n      and\n        /* \"#utility.yul\":7890:7895   */\n      dup5\n        /* \"#utility.yul\":7887:7917   */\n      or\n        /* \"#utility.yul\":7877:7917   */\n      swap3\n      pop\n        /* \"#utility.yul\":7606:7923   */\n      pop\n      pop\n        /* \"#utility.yul\":7530:7923   */\n      swap4\n      swap3\n      pop\n      pop\n      pop\n      jump\t// out\n        /* \"#utility.yul\":7929:7989   */\n    tag_85:\n        /* \"#utility.yul\":7957:7960   */\n      0x00\n        /* \"#utility.yul\":7978:7983   */\n      dup2\n        /* \"#utility.yul\":7971:7983   */\n      swap1\n      pop\n        /* \"#utility.yul\":7929:7989   */\n      swap2\n      swap1\n      pop\n      jump\t// out\n        /* \"#utility.yul\":7995:8137   */\n    tag_86:\n        /* \"#utility.yul\":8045:8054   */\n      0x00\n        /* \"#utility.yul\":8078:8131   */\n      tag_184\n        /* \"#utility.yul\":8096:8130   */\n      tag_185\n        /* \"#utility.yul\":8105:8129   */\n      tag_186\n        /* \"#utility.yul\":8123:8128   */\n      dup5\n        /* \"#utility.yul\":8105:8129   */\n      tag_58\n      jump\t// in\n    tag_186:\n        /* \"#utility.yul\":8096:8130   */\n      tag_85\n      jump\t// in\n    tag_185:\n        /* \"#utility.yul\":8078:8131   */\n      tag_58\n      jump\t// in\n    tag_184:\n        /* \"#utility.yul\":8065:8131   */\n      swap1\n      pop\n        /* \"#utility.yul\":7995:8137   */\n      swap2\n      swap1\n      pop\n      jump\t// out\n        /* \"#utility.yul\":8143:8218   */\n    tag_87:\n        /* \"#utility.yul\":8186:8189   */\n      0x00\n        /* \"#utility.yul\":8207:8212   */\n      dup2\n        /* \"#utility.yul\":8200:8212   */\n      swap1\n      pop\n        /* \"#utility.yul\":8143:8218   */\n      swap2\n      swap1\n      pop\n      jump\t// out\n        /* \"#utility.yul\":8224:8493   */\n    tag_88:\n        /* \"#utility.yul\":8334:8373   */\n      tag_189\n        /* \"#utility.yul\":8365:8372   */\n      dup4\n        /* \"#utility.yul\":8334:8373   */\n      tag_86\n      jump\t// in\n    tag_189:\n        /* \"#utility.yul\":8395:8486   */\n      tag_190\n        /* \"#utility.yul\":8444:8485   */\n      tag_191\n        /* \"#utility.yul\":8468:8484   */\n      dup3\n        /* \"#utility.yul\":8444:8485   */\n      tag_87\n      jump\t// in\n    tag_191:\n        /* \"#utility.yul\":8436:8442   */\n      dup5\n        /* \"#utility.yul\":8429:8433   */\n      dup5\n        /* \"#utility.yul\":8423:8434   */\n      sload\n        /* \"#utility.yul\":8395:8486   */\n      tag_84\n      jump\t// in\n    tag_190:\n        /* \"#utility.yul\":8389:8393   */\n      dup3\n        /* \"#utility.yul\":8382:8487   */\n      sstore\n        /* \"#utility.yul\":8300:8493   */\n      pop\n        /* \"#utility.yul\":8224:8493   */\n      pop\n      pop\n      pop\n      jump\t// out\n        /* \"#utility.yul\":8499:8572   */\n    tag_89:\n        /* \"#utility.yul\":8544:8547   */\n      0x00\n        /* \"#utility.yul\":8499:8572   */\n      swap1\n      jump\t// out\n        /* \"#utility.yul\":8578:8767   */\n    tag_90:\n        /* \"#utility.yul\":8655:8687   */\n      tag_194\n      tag_89\n      jump\t// in\n    tag_194:\n        /* \"#utility.yul\":8696:8761   */\n      tag_195\n        /* \"#utility.yul\":8754:8760   */\n      dup2\n        /* \"#utility.yul\":8746:8752   */\n      dup5\n        /* \"#utility.yul\":8740:8744   */\n      dup5\n        /* \"#utility.yul\":8696:8761   */\n      tag_88\n      jump\t// in\n    tag_195:\n        /* \"#utility.yul\":8631:8767   */\n      pop\n        /* \"#utility.yul\":8578:8767   */\n      pop\n      pop\n      jump\t// out\n        /* \"#utility.yul\":8773:8959   */\n    tag_91:\n        /* \"#utility.yul\":8833:8953   */\n    tag_197:\n        /* \"#utility.yul\":8850:8853   */\n      dup2\n        /* \"#utility.yul\":8843:8848   */\n      dup2\n        /* \"#utility.yul\":8840:8854   */\n      lt\n        /* \"#utility.yul\":8833:8953   */\n      iszero\n      tag_199\n      jumpi\n        /* \"#utility.yul\":8904:8943   */\n      tag_200\n        /* \"#utility.yul\":8941:8942   */\n      0x00\n        /* \"#utility.yul\":8934:8939   */\n      dup3\n        /* \"#utility.yul\":8904:8943   */\n      tag_90\n      jump\t// in\n    tag_200:\n        /* \"#utility.yul\":8877:8878   */\n      0x01\n        /* \"#utility.yul\":8870:8875   */\n      dup2\n        /* \"#utility.yul\":8866:8879   */\n      add\n        /* \"#utility.yul\":8857:8879   */\n      swap1\n      pop\n        /* \"#utility.yul\":8833:8953   */\n      jump(tag_197)\n    tag_199:\n        /* \"#utility.yul\":8773:8959   */\n      pop\n      pop\n      jump\t// out\n        /* \"#utility.yul\":8965:9508   */\n    tag_92:\n        /* \"#utility.yul\":9066:9068   */\n      0x1f\n        /* \"#utility.yul\":9061:9064   */\n      dup3\n        /* \"#utility.yul\":9058:9069   */\n      gt\n        /* \"#utility.yul\":9055:9501   */\n      iszero\n      tag_202\n      jumpi\n        /* \"#utility.yul\":9100:9138   */\n      tag_203\n        /* \"#utility.yul\":9132:9137   */\n      dup2\n        /* \"#utility.yul\":9100:9138   */\n      tag_81\n      jump\t// in\n    tag_203:\n        /* \"#utility.yul\":9184:9213   */\n      tag_204\n        /* \"#utility.yul\":9202:9212   */\n      dup5\n        /* \"#utility.yul\":9184:9213   */\n      tag_82\n      jump\t// in\n    tag_204:\n        /* \"#utility.yul\":9174:9182   */\n      dup2\n        /* \"#utility.yul\":9170:9214   */\n      add\n        /* \"#utility.yul\":9367:9369   */\n      0x20\n        /* \"#utility.yul\":9355:9365   */\n      dup6\n        /* \"#utility.yul\":9352:9370   */\n      lt\n        /* \"#utility.yul\":9349:9398   */\n      iszero\n      tag_205\n      jumpi\n        /* \"#utility.yul\":9388:9396   */\n      dup2\n        /* \"#utility.yul\":9373:9396   */\n      swap1\n      pop\n        /* \"#utility.yul\":9349:9398   */\n    tag_205:\n        /* \"#utility.yul\":9411:9491   */\n      tag_206\n        /* \"#utility.yul\":9467:9489   */\n      tag_207\n        /* \"#utility.yul\":9485:9488   */\n      dup6\n        /* \"#utility.yul\":9467:9489   */\n      tag_82\n      jump\t// in\n    tag_207:\n        /* \"#utility.yul\":9457:9465   */\n      dup4\n        /* \"#utility.yul\":9453:9490   */\n      add\n        /* \"#utility.yul\":9440:9451   */\n      dup3\n        /* \"#utility.yul\":9411:9491   */\n      tag_91\n      jump\t// in\n    tag_206:\n        /* \"#utility.yul\":9070:9501   */\n      pop\n      pop\n        /* \"#utility.yul\":9055:9501   */\n    tag_202:\n        /* \"#utility.yul\":8965:9508   */\n      pop\n      pop\n      pop\n      jump\t// out\n        /* \"#utility.yul\":9514:9631   */\n    tag_93:\n        /* \"#utility.yul\":9568:9576   */\n      0x00\n        /* \"#utility.yul\":9618:9623   */\n      dup3\n        /* \"#utility.yul\":9612:9616   */\n      dup3\n        /* \"#utility.yul\":9608:9624   */\n      shr\n        /* \"#utility.yul\":9587:9624   */\n      swap1\n      pop\n        /* \"#utility.yul\":9514:9631   */\n      swap3\n      swap2\n      pop\n      pop\n      jump\t// out\n        /* \"#utility.yul\":9637:9806   */\n    tag_94:\n        /* \"#utility.yul\":9681:9687   */\n      0x00\n        /* \"#utility.yul\":9714:9765   */\n      tag_210\n        /* \"#utility.yul\":9762:9763   */\n      0x00\n        /* \"#utility.yul\":9758:9764   */\n      not\n        /* \"#utility.yul\":9750:9755   */\n      dup5\n        /* \"#utility.yul\":9747:9748   */\n      0x08\n        /* \"#utility.yul\":9743:9756   */\n      mul\n        /* \"#utility.yul\":9714:9765   */\n      tag_93\n      jump\t// in\n    tag_210:\n        /* \"#utility.yul\":9710:9766   */\n      not\n        /* \"#utility.yul\":9795:9799   */\n      dup1\n        /* \"#utility.yul\":9789:9793   */\n      dup4\n        /* \"#utility.yul\":9785:9800   */\n      and\n        /* \"#utility.yul\":9775:9800   */\n      swap2\n      pop\n        /* \"#utility.yul\":9688:9806   */\n      pop\n        /* \"#utility.yul\":9637:9806   */\n      swap3\n      swap2\n      pop\n      pop\n      jump\t// out\n        /* \"#utility.yul\":9811:10106   */\n    tag_95:\n        /* \"#utility.yul\":9887:9891   */\n      0x00\n        /* \"#utility.yul\":10033:10062   */\n      tag_212\n        /* \"#utility.yul\":10058:10061   */\n      dup4\n        /* \"#utility.yul\":10052:10056   */\n      dup4\n        /* \"#utility.yul\":10033:10062   */\n      tag_94\n      jump\t// in\n    tag_212:\n        /* \"#utility.yul\":10025:10062   */\n      swap2\n      pop\n        /* \"#utility.yul\":10095:10098   */\n      dup3\n        /* \"#utility.yul\":10092:10093   */\n      0x02\n        /* \"#utility.yul\":10088:10099   */\n      mul\n        /* \"#utility.yul\":10082:10086   */\n      dup3\n        /* \"#utility.yul\":10079:10100   */\n      or\n        /* \"#utility.yul\":10071:10100   */\n      swap1\n      pop\n        /* \"#utility.yul\":9811:10106   */\n      swap3\n      swap2\n      pop\n      pop\n      jump\t// out\n        /* \"#utility.yul\":10111:11506   */\n    tag_51:\n        /* \"#utility.yul\":10228:10265   */\n      tag_214\n        /* \"#utility.yul\":10261:10264   */\n      dup3\n        /* \"#utility.yul\":10228:10265   */\n      tag_61\n      jump\t// in\n    tag_214:\n        /* \"#utility.yul\":10330:10348   */\n      0xffffffffffffffff\n        /* \"#utility.yul\":10322:10328   */\n      dup2\n        /* \"#utility.yul\":10319:10349   */\n      gt\n        /* \"#utility.yul\":10316:10372   */\n      iszero\n      tag_215\n      jumpi\n        /* \"#utility.yul\":10352:10370   */\n      tag_216\n      tag_72\n      jump\t// in\n    tag_216:\n        /* \"#utility.yul\":10316:10372   */\n    tag_215:\n        /* \"#utility.yul\":10396:10434   */\n      tag_217\n        /* \"#utility.yul\":10428:10432   */\n      dup3\n        /* \"#utility.yul\":10422:10433   */\n      sload\n        /* \"#utility.yul\":10396:10434   */\n      tag_27\n      jump\t// in\n    tag_217:\n        /* \"#utility.yul\":10481:10548   */\n      tag_218\n        /* \"#utility.yul\":10541:10547   */\n      dup3\n        /* \"#utility.yul\":10533:10539   */\n      dup3\n        /* \"#utility.yul\":10527:10531   */\n      dup6\n        /* \"#utility.yul\":10481:10548   */\n      tag_92\n      jump\t// in\n    tag_218:\n        /* \"#utility.yul\":10575:10576   */\n      0x00\n        /* \"#utility.yul\":10599:10603   */\n      0x20\n        /* \"#utility.yul\":10586:10603   */\n      swap1\n      pop\n        /* \"#utility.yul\":10631:10633   */\n      0x1f\n        /* \"#utility.yul\":10623:10629   */\n      dup4\n        /* \"#utility.yul\":10620:10634   */\n      gt\n        /* \"#utility.yul\":10648:10649   */\n      0x01\n        /* \"#utility.yul\":10643:11261   */\n      dup2\n      eq\n      tag_220\n      jumpi\n        /* \"#utility.yul\":11305:11306   */\n      0x00\n        /* \"#utility.yul\":11322:11328   */\n      dup5\n        /* \"#utility.yul\":11319:11396   */\n      iszero\n      tag_221\n      jumpi\n        /* \"#utility.yul\":11371:11380   */\n      dup3\n        /* \"#utility.yul\":11366:11369   */\n      dup8\n        /* \"#utility.yul\":11362:11381   */\n      add\n        /* \"#utility.yul\":11356:11382   */\n      mload\n        /* \"#utility.yul\":11347:11382   */\n      swap1\n      pop\n        /* \"#utility.yul\":11319:11396   */\n    tag_221:\n        /* \"#utility.yul\":11422:11489   */\n      tag_222\n        /* \"#utility.yul\":11482:11488   */\n      dup6\n        /* \"#utility.yul\":11475:11480   */\n      dup3\n        /* \"#utility.yul\":11422:11489   */\n      tag_95\n      jump\t// in\n    tag_222:\n        /* \"#utility.yul\":11416:11420   */\n      dup7\n        /* \"#utility.yul\":11409:11490   */\n      sstore\n        /* \"#utility.yul\":11278:11500   */\n      pop\n        /* \"#utility.yul\":10613:11500   */\n      jump(tag_219)\n        /* \"#utility.yul\":10643:11261   */\n    tag_220:\n        /* \"#utility.yul\":10695:10699   */\n      0x1f\n        /* \"#utility.yul\":10691:10700   */\n      not\n        /* \"#utility.yul\":10683:10689   */\n      dup5\n        /* \"#utility.yul\":10679:10701   */\n      and\n        /* \"#utility.yul\":10729:10766   */\n      tag_223\n        /* \"#utility.yul\":10761:10765   */\n      dup7\n        /* \"#utility.yul\":10729:10766   */\n      tag_81\n      jump\t// in\n    tag_223:\n        /* \"#utility.yul\":10788:10789   */\n      0x00\n        /* \"#utility.yul\":10802:11010   */\n    tag_224:\n        /* \"#utility.yul\":10816:10823   */\n      dup3\n        /* \"#utility.yul\":10813:10814   */\n      dup2\n        /* \"#utility.yul\":10810:10824   */\n      lt\n        /* \"#utility.yul\":10802:11010   */\n      iszero\n      tag_226\n      jumpi\n        /* \"#utility.yul\":10895:10904   */\n      dup5\n        /* \"#utility.yul\":10890:10893   */\n      dup10\n        /* \"#utility.yul\":10886:10905   */\n      add\n        /* \"#utility.yul\":10880:10906   */\n      mload\n        /* \"#utility.yul\":10872:10878   */\n      dup3\n        /* \"#utility.yul\":10865:10907   */\n      sstore\n        /* \"#utility.yul\":10946:10947   */\n      0x01\n        /* \"#utility.yul\":10938:10944   */\n      dup3\n        /* \"#utility.yul\":10934:10948   */\n      add\n        /* \"#utility.yul\":10924:10948   */\n      swap2\n      pop\n        /* \"#utility.yul\":10993:10995   */\n      0x20\n        /* \"#utility.yul\":10982:10991   */\n      dup6\n        /* \"#utility.yul\":10978:10996   */\n      add\n        /* \"#utility.yul\":10965:10996   */\n      swap5\n      pop\n        /* \"#utility.yul\":10839:10843   */\n      0x20\n        /* \"#utility.yul\":10836:10837   */\n      dup2\n        /* \"#utility.yul\":10832:10844   */\n      add\n        /* \"#utility.yul\":10827:10844   */\n      swap1\n      pop\n        /* \"#utility.yul\":10802:11010   */\n      jump(tag_224)\n    tag_226:\n        /* \"#utility.yul\":11038:11044   */\n      dup7\n        /* \"#utility.yul\":11029:11036   */\n      dup4\n        /* \"#utility.yul\":11026:11045   */\n      lt\n        /* \"#utility.yul\":11023:11202   */\n      iszero\n      tag_227\n      jumpi\n        /* \"#utility.yul\":11096:11105   */\n      dup5\n        /* \"#utility.yul\":11091:11094   */\n      dup10\n        /* \"#utility.yul\":11087:11106   */\n      add\n        /* \"#utility.yul\":11081:11107   */\n      mload\n        /* \"#utility.yul\":11139:11187   */\n      tag_228\n        /* \"#utility.yul\":11181:11185   */\n      0x1f\n        /* \"#utility.yul\":11173:11179   */\n      dup10\n        /* \"#utility.yul\":11169:11186   */\n      and\n        /* \"#utility.yul\":11158:11167   */\n      dup3\n        /* \"#utility.yul\":11139:11187   */\n      tag_94\n      jump\t// in\n    tag_228:\n        /* \"#utility.yul\":11131:11137   */\n      dup4\n        /* \"#utility.yul\":11124:11188   */\n      sstore\n        /* \"#utility.yul\":11046:11202   */\n      pop\n        /* \"#utility.yul\":11023:11202   */\n    tag_227:\n        /* \"#utility.yul\":11248:11249   */\n      0x01\n        /* \"#utility.yul\":11244:11245   */\n      0x02\n        /* \"#utility.yul\":11236:11242   */\n      dup9\n        /* \"#utility.yul\":11232:11246   */\n      mul\n        /* \"#utility.yul\":11228:11250   */\n      add\n        /* \"#utility.yul\":11222:11226   */\n      dup9\n        /* \"#utility.yul\":11215:11251   */\n      sstore\n        /* \"#utility.yul\":10650:11261   */\n      pop\n      pop\n      pop\n        /* \"#utility.yul\":10613:11500   */\n    tag_219:\n      pop\n        /* \"#utility.yul\":10203:11506   */\n      pop\n      pop\n      pop\n        /* \"#utility.yul\":10111:11506   */\n      pop\n      pop\n      jump\t// out\n        /* \"#utility.yul\":11512:12136   */\n    tag_54:\n        /* \"#utility.yul\":11701:11705   */\n      0x00\n        /* \"#utility.yul\":11739:11741   */\n      0x60\n        /* \"#utility.yul\":11728:11737   */\n      dup3\n        /* \"#utility.yul\":11724:11742   */\n      add\n        /* \"#utility.yul\":11716:11742   */\n      swap1\n      pop\n        /* \"#utility.yul\":11752:11823   */\n      tag_230\n        /* \"#utility.yul\":11820:11821   */\n      0x00\n        /* \"#utility.yul\":11809:11818   */\n      dup4\n        /* \"#utility.yul\":11805:11822   */\n      add\n        /* \"#utility.yul\":11796:11802   */\n      dup7\n        /* \"#utility.yul\":11752:11823   */\n      tag_69\n      jump\t// in\n    tag_230:\n        /* \"#utility.yul\":11870:11879   */\n      dup2\n        /* \"#utility.yul\":11864:11868   */\n      dup2\n        /* \"#utility.yul\":11860:11880   */\n      sub\n        /* \"#utility.yul\":11855:11857   */\n      0x20\n        /* \"#utility.yul\":11844:11853   */\n      dup4\n        /* \"#utility.yul\":11840:11858   */\n      add\n        /* \"#utility.yul\":11833:11881   */\n      mstore\n        /* \"#utility.yul\":11898:11976   */\n      tag_231\n        /* \"#utility.yul\":11971:11975   */\n      dup2\n        /* \"#utility.yul\":11962:11968   */\n      dup6\n        /* \"#utility.yul\":11898:11976   */\n      tag_65\n      jump\t// in\n    tag_231:\n        /* \"#utility.yul\":11890:11976   */\n      swap1\n      pop\n        /* \"#utility.yul\":12023:12032   */\n      dup2\n        /* \"#utility.yul\":12017:12021   */\n      dup2\n        /* \"#utility.yul\":12013:12033   */\n      sub\n        /* \"#utility.yul\":12008:12010   */\n      0x40\n        /* \"#utility.yul\":11997:12006   */\n      dup4\n        /* \"#utility.yul\":11993:12011   */\n      add\n        /* \"#utility.yul\":11986:12034   */\n      mstore\n        /* \"#utility.yul\":12051:12129   */\n      tag_232\n        /* \"#utility.yul\":12124:12128   */\n      dup2\n        /* \"#utility.yul\":12115:12121   */\n      dup5\n        /* \"#utility.yul\":12051:12129   */\n      tag_65\n      jump\t// in\n    tag_232:\n        /* \"#utility.yul\":12043:12129   */\n      swap1\n      pop\n        /* \"#utility.yul\":11512:12136   */\n      swap5\n      swap4\n      pop\n      pop\n      pop\n      pop\n      jump\t// out\n\n    auxdata: 0xa2646970667358221220164a87ea209a1a45e9369989e0ec22996346558889f03956fc90f5d07cd1653e64736f6c634300081a0033\n}\n",
				"bytecode": {
					"linkReferences": {},
					"object": "6080604052348015600e575f80fd5b50610bfa8061001c5f395ff3fe608060405234801561000f575f80fd5b506004361061004a575f3560e01c8063167ddf6e1461004e5780634b60267314610080578063a0876445146100b2578063a8ae1376146100d0575b5f80fd5b6100686004803603810190610063919061055d565b6100ec565b60405161007793929190610637565b60405180910390f35b61009a6004803603810190610095919061055d565b61029e565b6040516100a993929190610637565b60405180910390f35b6100ba6103ee565b6040516100c79190610689565b60405180910390f35b6100ea60048036038101906100e591906107ce565b6103f4565b005b6060805f805f808681526020019081526020015f206040518060600160405290815f8201805461011b90610871565b80601f016020809104026020016040519081016040528092919081815260200182805461014790610871565b80156101925780601f1061016957610100808354040283529160200191610192565b820191905f5260205f20905b81548152906001019060200180831161017557829003601f168201915b505050505081526020016001820180546101ab90610871565b80601f01602080910402602001604051908101604052809291908181526020018280546101d790610871565b80156102225780601f106101f957610100808354040283529160200191610222565b820191905f5260205f20905b81548152906001019060200180831161020557829003601f168201915b50505050508152602001600282015f9054906101000a900473ffffffffffffffffffffffffffffffffffffffff1673ffffffffffffffffffffffffffffffffffffffff1673ffffffffffffffffffffffffffffffffffffffff16815250509050805f015181602001518260400151935093509350509193909250565b5f602052805f5260405f205f91509050805f0180546102bc90610871565b80601f01602080910402602001604051908101604052809291908181526020018280546102e890610871565b80156103335780601f1061030a57610100808354040283529160200191610333565b820191905f5260205f20905b81548152906001019060200180831161031657829003601f168201915b50505050509080600101805461034890610871565b80601f016020809104026020016040519081016040528092919081815260200182805461037490610871565b80156103bf5780601f10610396576101008083540402835291602001916103bf565b820191905f5260205f20905b8154815290600101906020018083116103a257829003601f168201915b505050505090806002015f9054906101000a900473ffffffffffffffffffffffffffffffffffffffff16905083565b60015481565b60015f815480929190610406906108ce565b919050555060405180606001604052808381526020018281526020013373ffffffffffffffffffffffffffffffffffffffff168152505f8060015481526020019081526020015f205f820151815f0190816104619190610ab2565b5060208201518160010190816104779190610ab2565b506040820151816002015f6101000a81548173ffffffffffffffffffffffffffffffffffffffff021916908373ffffffffffffffffffffffffffffffffffffffff1602179055509050503373ffffffffffffffffffffffffffffffffffffffff167f41e085a2f4b2ea8b9558e809dbac277bbafd74b106b645cddc0c86b3533325b0600154848460405161050d93929190610b81565b60405180910390a25050565b5f604051905090565b5f80fd5b5f80fd5b5f819050919050565b61053c8161052a565b8114610546575f80fd5b50565b5f8135905061055781610533565b92915050565b5f6020828403121561057257610571610522565b5b5f61057f84828501610549565b91505092915050565b5f81519050919050565b5f82825260208201905092915050565b8281835e5f83830152505050565b5f601f19601f8301169050919050565b5f6105ca82610588565b6105d48185610592565b93506105e48185602086016105a2565b6105ed816105b0565b840191505092915050565b5f73ffffffffffffffffffffffffffffffffffffffff82169050919050565b5f610621826105f8565b9050919050565b61063181610617565b82525050565b5f6060820190508181035f83015261064f81866105c0565b9050818103602083015261066381856105c0565b90506106726040830184610628565b949350505050565b6106838161052a565b82525050565b5f60208201905061069c5f83018461067a565b92915050565b5f80fd5b5f80fd5b7f4e487b71000000000000000000000000000000000000000000000000000000005f52604160045260245ffd5b6106e0826105b0565b810181811067ffffffffffffffff821117156106ff576106fe6106aa565b5b80604052505050565b5f610711610519565b905061071d82826106d7565b919050565b5f67ffffffffffffffff82111561073c5761073b6106aa565b5b610745826105b0565b9050602081019050919050565b828183375f83830152505050565b5f61077261076d84610722565b610708565b90508281526020810184848401111561078e5761078d6106a6565b5b610799848285610752565b509392505050565b5f82601f8301126107b5576107b46106a2565b5b81356107c5848260208601610760565b91505092915050565b5f80604083850312156107e4576107e3610522565b5b5f83013567ffffffffffffffff81111561080157610800610526565b5b61080d858286016107a1565b925050602083013567ffffffffffffffff81111561082e5761082d610526565b5b61083a858286016107a1565b9150509250929050565b7f4e487b71000000000000000000000000000000000000000000000000000000005f52602260045260245ffd5b5f600282049050600182168061088857607f821691505b60208210810361089b5761089a610844565b5b50919050565b7f4e487b71000000000000000000000000000000000000000000000000000000005f52601160045260245ffd5b5f6108d88261052a565b91507fffffffffffffffffffffffffffffffffffffffffffffffffffffffffffffffff820361090a576109096108a1565b5b600182019050919050565b5f819050815f5260205f209050919050565b5f6020601f8301049050919050565b5f82821b905092915050565b5f600883026109717fffffffffffffffffffffffffffffffffffffffffffffffffffffffffffffffff82610936565b61097b8683610936565b95508019841693508086168417925050509392505050565b5f819050919050565b5f6109b66109b16109ac8461052a565b610993565b61052a565b9050919050565b5f819050919050565b6109cf8361099c565b6109e36109db826109bd565b848454610942565b825550505050565b5f90565b6109f76109eb565b610a028184846109c6565b505050565b5b81811015610a2557610a1a5f826109ef565b600181019050610a08565b5050565b601f821115610a6a57610a3b81610915565b610a4484610927565b81016020851015610a53578190505b610a67610a5f85610927565b830182610a07565b50505b505050565b5f82821c905092915050565b5f610a8a5f1984600802610a6f565b1980831691505092915050565b5f610aa28383610a7b565b9150826002028217905092915050565b610abb82610588565b67ffffffffffffffff811115610ad457610ad36106aa565b5b610ade8254610871565b610ae9828285610a29565b5f60209050601f831160018114610b1a575f8415610b08578287015190505b610b128582610a97565b865550610b79565b601f198416610b2886610915565b5f5b82811015610b4f57848901518255600182019150602085019450602081019050610b2a565b86831015610b6c5784890151610b68601f891682610a7b565b8355505b6001600288020188555050505b505050505050565b5f606082019050610b945f83018661067a565b8181036020830152610ba681856105c0565b90508181036040830152610bba81846105c0565b905094935050505056fea2646970667358221220164a87ea209a1a45e9369989e0ec22996346558889f03956fc90f5d07cd1653e64736f6c634300081a0033",
					"opcodes": "PUSH1 0x80 PUSH1 0x40 MSTORE CALLVALUE DUP1 ISZERO PUSH1 0xE JUMPI PUSH0 DUP1 REVERT JUMPDEST POP PUSH2 0xBFA DUP1 PUSH2 0x1C PUSH0 CODECOPY PUSH0 RETURN INVALID PUSH1 0x80 PUSH1 0x40 MSTORE CALLVALUE DUP1 ISZERO PUSH2 0xF JUMPI PUSH0 DUP1 REVERT JUMPDEST POP PUSH1 0x4 CALLDATASIZE LT PUSH2 0x4A JUMPI PUSH0 CALLDATALOAD PUSH1 0xE0 SHR DUP1 PUSH4 0x167DDF6E EQ PUSH2 0x4E JUMPI DUP1 PUSH4 0x4B602673 EQ PUSH2 0x80 JUMPI DUP1 PUSH4 0xA0876445 EQ PUSH2 0xB2 JUMPI DUP1 PUSH4 0xA8AE1376 EQ PUSH2 0xD0 JUMPI JUMPDEST PUSH0 DUP1 REVERT JUMPDEST PUSH2 0x68 PUSH1 0x4 DUP1 CALLDATASIZE SUB DUP2 ADD SWAP1 PUSH2 0x63 SWAP2 SWAP1 PUSH2 0x55D JUMP JUMPDEST PUSH2 0xEC JUMP JUMPDEST PUSH1 0x40 MLOAD PUSH2 0x77 SWAP4 SWAP3 SWAP2 SWAP1 PUSH2 0x637 JUMP JUMPDEST PUSH1 0x40 MLOAD DUP1 SWAP2 SUB SWAP1 RETURN JUMPDEST PUSH2 0x9A PUSH1 0x4 DUP1 CALLDATASIZE SUB DUP2 ADD SWAP1 PUSH2 0x95 SWAP2 SWAP1 PUSH2 0x55D JUMP JUMPDEST PUSH2 0x29E JUMP JUMPDEST PUSH1 0x40 MLOAD PUSH2 0xA9 SWAP4 SWAP3 SWAP2 SWAP1 PUSH2 0x637 JUMP JUMPDEST PUSH1 0x40 MLOAD DUP1 SWAP2 SUB SWAP1 RETURN JUMPDEST PUSH2 0xBA PUSH2 0x3EE JUMP JUMPDEST PUSH1 0x40 MLOAD PUSH2 0xC7 SWAP2 SWAP1 PUSH2 0x689 JUMP JUMPDEST PUSH1 0x40 MLOAD DUP1 SWAP2 SUB SWAP1 RETURN JUMPDEST PUSH2 0xEA PUSH1 0x4 DUP1 CALLDATASIZE SUB DUP2 ADD SWAP1 PUSH2 0xE5 SWAP2 SWAP1 PUSH2 0x7CE JUMP JUMPDEST PUSH2 0x3F4 JUMP JUMPDEST STOP JUMPDEST PUSH1 0x60 DUP1 PUSH0 DUP1 PUSH0 DUP1 DUP7 DUP2 MSTORE PUSH1 0x20 ADD SWAP1 DUP2 MSTORE PUSH1 0x20 ADD PUSH0 KECCAK256 PUSH1 0x40 MLOAD DUP1 PUSH1 0x60 ADD PUSH1 0x40 MSTORE SWAP1 DUP2 PUSH0 DUP3 ADD DUP1 SLOAD PUSH2 0x11B SWAP1 PUSH2 0x871 JUMP JUMPDEST DUP1 PUSH1 0x1F ADD PUSH1 0x20 DUP1 SWAP2 DIV MUL PUSH1 0x20 ADD PUSH1 0x40 MLOAD SWAP1 DUP2 ADD PUSH1 0x40 MSTORE DUP1 SWAP3 SWAP2 SWAP1 DUP2 DUP2 MSTORE PUSH1 0x20 ADD DUP3 DUP1 SLOAD PUSH2 0x147 SWAP1 PUSH2 0x871 JUMP JUMPDEST DUP1 ISZERO PUSH2 0x192 JUMPI DUP1 PUSH1 0x1F LT PUSH2 0x169 JUMPI PUSH2 0x100 DUP1 DUP4 SLOAD DIV MUL DUP4 MSTORE SWAP2 PUSH1 0x20 ADD SWAP2 PUSH2 0x192 JUMP JUMPDEST DUP3 ADD SWAP2 SWAP1 PUSH0 MSTORE PUSH1 0x20 PUSH0 KECCAK256 SWAP1 JUMPDEST DUP2 SLOAD DUP2 MSTORE SWAP1 PUSH1 0x1 ADD SWAP1 PUSH1 0x20 ADD DUP1 DUP4 GT PUSH2 0x175 JUMPI DUP3 SWAP1 SUB PUSH1 0x1F AND DUP3 ADD SWAP2 JUMPDEST POP POP POP POP POP DUP2 MSTORE PUSH1 0x20 ADD PUSH1 0x1 DUP3 ADD DUP1 SLOAD PUSH2 0x1AB SWAP1 PUSH2 0x871 JUMP JUMPDEST DUP1 PUSH1 0x1F ADD PUSH1 0x20 DUP1 SWAP2 DIV MUL PUSH1 0x20 ADD PUSH1 0x40 MLOAD SWAP1 DUP2 ADD PUSH1 0x40 MSTORE DUP1 SWAP3 SWAP2 SWAP1 DUP2 DUP2 MSTORE PUSH1 0x20 ADD DUP3 DUP1 SLOAD PUSH2 0x1D7 SWAP1 PUSH2 0x871 JUMP JUMPDEST DUP1 ISZERO PUSH2 0x222 JUMPI DUP1 PUSH1 0x1F LT PUSH2 0x1F9 JUMPI PUSH2 0x100 DUP1 DUP4 SLOAD DIV MUL DUP4 MSTORE SWAP2 PUSH1 0x20 ADD SWAP2 PUSH2 0x222 JUMP JUMPDEST DUP3 ADD SWAP2 SWAP1 PUSH0 MSTORE PUSH1 0x20 PUSH0 KECCAK256 SWAP1 JUMPDEST DUP2 SLOAD DUP2 MSTORE SWAP1 PUSH1 0x1 ADD SWAP1 PUSH1 0x20 ADD DUP1 DUP4 GT PUSH2 0x205 JUMPI DUP3 SWAP1 SUB PUSH1 0x1F AND DUP3 ADD SWAP2 JUMPDEST POP POP POP POP POP DUP2 MSTORE PUSH1 0x20 ADD PUSH1 0x2 DUP3 ADD PUSH0 SWAP1 SLOAD SWAP1 PUSH2 0x100 EXP SWAP1 DIV PUSH20 0xFFFFFFFFFFFFFFFFFFFFFFFFFFFFFFFFFFFFFFFF AND PUSH20 0xFFFFFFFFFFFFFFFFFFFFFFFFFFFFFFFFFFFFFFFF AND PUSH20 0xFFFFFFFFFFFFFFFFFFFFFFFFFFFFFFFFFFFFFFFF AND DUP2 MSTORE POP POP SWAP1 POP DUP1 PUSH0 ADD MLOAD DUP2 PUSH1 0x20 ADD MLOAD DUP3 PUSH1 0x40 ADD MLOAD SWAP4 POP SWAP4 POP SWAP4 POP POP SWAP2 SWAP4 SWAP1 SWAP3 POP JUMP JUMPDEST PUSH0 PUSH1 0x20 MSTORE DUP1 PUSH0 MSTORE PUSH1 0x40 PUSH0 KECCAK256 PUSH0 SWAP2 POP SWAP1 POP DUP1 PUSH0 ADD DUP1 SLOAD PUSH2 0x2BC SWAP1 PUSH2 0x871 JUMP JUMPDEST DUP1 PUSH1 0x1F ADD PUSH1 0x20 DUP1 SWAP2 DIV MUL PUSH1 0x20 ADD PUSH1 0x40 MLOAD SWAP1 DUP2 ADD PUSH1 0x40 MSTORE DUP1 SWAP3 SWAP2 SWAP1 DUP2 DUP2 MSTORE PUSH1 0x20 ADD DUP3 DUP1 SLOAD PUSH2 0x2E8 SWAP1 PUSH2 0x871 JUMP JUMPDEST DUP1 ISZERO PUSH2 0x333 JUMPI DUP1 PUSH1 0x1F LT PUSH2 0x30A JUMPI PUSH2 0x100 DUP1 DUP4 SLOAD DIV MUL DUP4 MSTORE SWAP2 PUSH1 0x20 ADD SWAP2 PUSH2 0x333 JUMP JUMPDEST DUP3 ADD SWAP2 SWAP1 PUSH0 MSTORE PUSH1 0x20 PUSH0 KECCAK256 SWAP1 JUMPDEST DUP2 SLOAD DUP2 MSTORE SWAP1 PUSH1 0x1 ADD SWAP1 PUSH1 0x20 ADD DUP1 DUP4 GT PUSH2 0x316 JUMPI DUP3 SWAP1 SUB PUSH1 0x1F AND DUP3 ADD SWAP2 JUMPDEST POP POP POP POP POP SWAP1 DUP1 PUSH1 0x1 ADD DUP1 SLOAD PUSH2 0x348 SWAP1 PUSH2 0x871 JUMP JUMPDEST DUP1 PUSH1 0x1F ADD PUSH1 0x20 DUP1 SWAP2 DIV MUL PUSH1 0x20 ADD PUSH1 0x40 MLOAD SWAP1 DUP2 ADD PUSH1 0x40 MSTORE DUP1 SWAP3 SWAP2 SWAP1 DUP2 DUP2 MSTORE PUSH1 0x20 ADD DUP3 DUP1 SLOAD PUSH2 0x374 SWAP1 PUSH2 0x871 JUMP JUMPDEST DUP1 ISZERO PUSH2 0x3BF JUMPI DUP1 PUSH1 0x1F LT PUSH2 0x396 JUMPI PUSH2 0x100 DUP1 DUP4 SLOAD DIV MUL DUP4 MSTORE SWAP2 PUSH1 0x20 ADD SWAP2 PUSH2 0x3BF JUMP JUMPDEST DUP3 ADD SWAP2 SWAP1 PUSH0 MSTORE PUSH1 0x20 PUSH0 KECCAK256 SWAP1 JUMPDEST DUP2 SLOAD DUP2 MSTORE SWAP1 PUSH1 0x1 ADD SWAP1 PUSH1 0x20 ADD DUP1 DUP4 GT PUSH2 0x3A2 JUMPI DUP3 SWAP1 SUB PUSH1 0x1F AND DUP3 ADD SWAP2 JUMPDEST POP POP POP POP POP SWAP1 DUP1 PUSH1 0x2 ADD PUSH0 SWAP1 SLOAD SWAP1 PUSH2 0x100 EXP SWAP1 DIV PUSH20 0xFFFFFFFFFFFFFFFFFFFFFFFFFFFFFFFFFFFFFFFF AND SWAP1 POP DUP4 JUMP JUMPDEST PUSH1 0x1 SLOAD DUP2 JUMP JUMPDEST PUSH1 0x1 PUSH0 DUP2 SLOAD DUP1 SWAP3 SWAP2 SWAP1 PUSH2 0x406 SWAP1 PUSH2 0x8CE JUMP JUMPDEST SWAP2 SWAP1 POP SSTORE POP PUSH1 0x40 MLOAD DUP1 PUSH1 0x60 ADD PUSH1 0x40 MSTORE DUP1 DUP4 DUP2 MSTORE PUSH1 0x20 ADD DUP3 DUP2 MSTORE PUSH1 0x20 ADD CALLER PUSH20 0xFFFFFFFFFFFFFFFFFFFFFFFFFFFFFFFFFFFFFFFF AND DUP2 MSTORE POP PUSH0 DUP1 PUSH1 0x1 SLOAD DUP2 MSTORE PUSH1 0x20 ADD SWAP1 DUP2 MSTORE PUSH1 0x20 ADD PUSH0 KECCAK256 PUSH0 DUP3 ADD MLOAD DUP2 PUSH0 ADD SWAP1 DUP2 PUSH2 0x461 SWAP2 SWAP1 PUSH2 0xAB2 JUMP JUMPDEST POP PUSH1 0x20 DUP3 ADD MLOAD DUP2 PUSH1 0x1 ADD SWAP1 DUP2 PUSH2 0x477 SWAP2 SWAP1 PUSH2 0xAB2 JUMP JUMPDEST POP PUSH1 0x40 DUP3 ADD MLOAD DUP2 PUSH1 0x2 ADD PUSH0 PUSH2 0x100 EXP DUP2 SLOAD DUP2 PUSH20 0xFFFFFFFFFFFFFFFFFFFFFFFFFFFFFFFFFFFFFFFF MUL NOT AND SWAP1 DUP4 PUSH20 0xFFFFFFFFFFFFFFFFFFFFFFFFFFFFFFFFFFFFFFFF AND MUL OR SWAP1 SSTORE POP SWAP1 POP POP CALLER PUSH20 0xFFFFFFFFFFFFFFFFFFFFFFFFFFFFFFFFFFFFFFFF AND PUSH32 0x41E085A2F4B2EA8B9558E809DBAC277BBAFD74B106B645CDDC0C86B3533325B0 PUSH1 0x1 SLOAD DUP5 DUP5 PUSH1 0x40 MLOAD PUSH2 0x50D SWAP4 SWAP3 SWAP2 SWAP1 PUSH2 0xB81 JUMP JUMPDEST PUSH1 0x40 MLOAD DUP1 SWAP2 SUB SWAP1 LOG2 POP POP JUMP JUMPDEST PUSH0 PUSH1 0x40 MLOAD SWAP1 POP SWAP1 JUMP JUMPDEST PUSH0 DUP1 REVERT JUMPDEST PUSH0 DUP1 REVERT JUMPDEST PUSH0 DUP2 SWAP1 POP SWAP2 SWAP1 POP JUMP JUMPDEST PUSH2 0x53C DUP2 PUSH2 0x52A JUMP JUMPDEST DUP2 EQ PUSH2 0x546 JUMPI PUSH0 DUP1 REVERT JUMPDEST POP JUMP JUMPDEST PUSH0 DUP2 CALLDATALOAD SWAP1 POP PUSH2 0x557 DUP2 PUSH2 0x533 JUMP JUMPDEST SWAP3 SWAP2 POP POP JUMP JUMPDEST PUSH0 PUSH1 0x20 DUP3 DUP5 SUB SLT ISZERO PUSH2 0x572 JUMPI PUSH2 0x571 PUSH2 0x522 JUMP JUMPDEST JUMPDEST PUSH0 PUSH2 0x57F DUP5 DUP3 DUP6 ADD PUSH2 0x549 JUMP JUMPDEST SWAP2 POP POP SWAP3 SWAP2 POP POP JUMP JUMPDEST PUSH0 DUP2 MLOAD SWAP1 POP SWAP2 SWAP1 POP JUMP JUMPDEST PUSH0 DUP3 DUP3 MSTORE PUSH1 0x20 DUP3 ADD SWAP1 POP SWAP3 SWAP2 POP POP JUMP JUMPDEST DUP3 DUP2 DUP4 MCOPY PUSH0 DUP4 DUP4 ADD MSTORE POP POP POP JUMP JUMPDEST PUSH0 PUSH1 0x1F NOT PUSH1 0x1F DUP4 ADD AND SWAP1 POP SWAP2 SWAP1 POP JUMP JUMPDEST PUSH0 PUSH2 0x5CA DUP3 PUSH2 0x588 JUMP JUMPDEST PUSH2 0x5D4 DUP2 DUP6 PUSH2 0x592 JUMP JUMPDEST SWAP4 POP PUSH2 0x5E4 DUP2 DUP6 PUSH1 0x20 DUP7 ADD PUSH2 0x5A2 JUMP JUMPDEST PUSH2 0x5ED DUP2 PUSH2 0x5B0 JUMP JUMPDEST DUP5 ADD SWAP2 POP POP SWAP3 SWAP2 POP POP JUMP JUMPDEST PUSH0 PUSH20 0xFFFFFFFFFFFFFFFFFFFFFFFFFFFFFFFFFFFFFFFF DUP3 AND SWAP1 POP SWAP2 SWAP1 POP JUMP JUMPDEST PUSH0 PUSH2 0x621 DUP3 PUSH2 0x5F8 JUMP JUMPDEST SWAP1 POP SWAP2 SWAP1 POP JUMP JUMPDEST PUSH2 0x631 DUP2 PUSH2 0x617 JUMP JUMPDEST DUP3 MSTORE POP POP JUMP JUMPDEST PUSH0 PUSH1 0x60 DUP3 ADD SWAP1 POP DUP2 DUP2 SUB PUSH0 DUP4 ADD MSTORE PUSH2 0x64F DUP2 DUP7 PUSH2 0x5C0 JUMP JUMPDEST SWAP1 POP DUP2 DUP2 SUB PUSH1 0x20 DUP4 ADD MSTORE PUSH2 0x663 DUP2 DUP6 PUSH2 0x5C0 JUMP JUMPDEST SWAP1 POP PUSH2 0x672 PUSH1 0x40 DUP4 ADD DUP5 PUSH2 0x628 JUMP JUMPDEST SWAP5 SWAP4 POP POP POP POP JUMP JUMPDEST PUSH2 0x683 DUP2 PUSH2 0x52A JUMP JUMPDEST DUP3 MSTORE POP POP JUMP JUMPDEST PUSH0 PUSH1 0x20 DUP3 ADD SWAP1 POP PUSH2 0x69C PUSH0 DUP4 ADD DUP5 PUSH2 0x67A JUMP JUMPDEST SWAP3 SWAP2 POP POP JUMP JUMPDEST PUSH0 DUP1 REVERT JUMPDEST PUSH0 DUP1 REVERT JUMPDEST PUSH32 0x4E487B7100000000000000000000000000000000000000000000000000000000 PUSH0 MSTORE PUSH1 0x41 PUSH1 0x4 MSTORE PUSH1 0x24 PUSH0 REVERT JUMPDEST PUSH2 0x6E0 DUP3 PUSH2 0x5B0 JUMP JUMPDEST DUP2 ADD DUP2 DUP2 LT PUSH8 0xFFFFFFFFFFFFFFFF DUP3 GT OR ISZERO PUSH2 0x6FF JUMPI PUSH2 0x6FE PUSH2 0x6AA JUMP JUMPDEST JUMPDEST DUP1 PUSH1 0x40 MSTORE POP POP POP JUMP JUMPDEST PUSH0 PUSH2 0x711 PUSH2 0x519 JUMP JUMPDEST SWAP1 POP PUSH2 0x71D DUP3 DUP3 PUSH2 0x6D7 JUMP JUMPDEST SWAP2 SWAP1 POP JUMP JUMPDEST PUSH0 PUSH8 0xFFFFFFFFFFFFFFFF DUP3 GT ISZERO PUSH2 0x73C JUMPI PUSH2 0x73B PUSH2 0x6AA JUMP JUMPDEST JUMPDEST PUSH2 0x745 DUP3 PUSH2 0x5B0 JUMP JUMPDEST SWAP1 POP PUSH1 0x20 DUP2 ADD SWAP1 POP SWAP2 SWAP1 POP JUMP JUMPDEST DUP3 DUP2 DUP4 CALLDATACOPY PUSH0 DUP4 DUP4 ADD MSTORE POP POP POP JUMP JUMPDEST PUSH0 PUSH2 0x772 PUSH2 0x76D DUP5 PUSH2 0x722 JUMP JUMPDEST PUSH2 0x708 JUMP JUMPDEST SWAP1 POP DUP3 DUP2 MSTORE PUSH1 0x20 DUP2 ADD DUP5 DUP5 DUP5 ADD GT ISZERO PUSH2 0x78E JUMPI PUSH2 0x78D PUSH2 0x6A6 JUMP JUMPDEST JUMPDEST PUSH2 0x799 DUP5 DUP3 DUP6 PUSH2 0x752 JUMP JUMPDEST POP SWAP4 SWAP3 POP POP POP JUMP JUMPDEST PUSH0 DUP3 PUSH1 0x1F DUP4 ADD SLT PUSH2 0x7B5 JUMPI PUSH2 0x7B4 PUSH2 0x6A2 JUMP JUMPDEST JUMPDEST DUP2 CALLDATALOAD PUSH2 0x7C5 DUP5 DUP3 PUSH1 0x20 DUP7 ADD PUSH2 0x760 JUMP JUMPDEST SWAP2 POP POP SWAP3 SWAP2 POP POP JUMP JUMPDEST PUSH0 DUP1 PUSH1 0x40 DUP4 DUP6 SUB SLT ISZERO PUSH2 0x7E4 JUMPI PUSH2 0x7E3 PUSH2 0x522 JUMP JUMPDEST JUMPDEST PUSH0 DUP4 ADD CALLDATALOAD PUSH8 0xFFFFFFFFFFFFFFFF DUP2 GT ISZERO PUSH2 0x801 JUMPI PUSH2 0x800 PUSH2 0x526 JUMP JUMPDEST JUMPDEST PUSH2 0x80D DUP6 DUP3 DUP7 ADD PUSH2 0x7A1 JUMP JUMPDEST SWAP3 POP POP PUSH1 0x20 DUP4 ADD CALLDATALOAD PUSH8 0xFFFFFFFFFFFFFFFF DUP2 GT ISZERO PUSH2 0x82E JUMPI PUSH2 0x82D PUSH2 0x526 JUMP JUMPDEST JUMPDEST PUSH2 0x83A DUP6 DUP3 DUP7 ADD PUSH2 0x7A1 JUMP JUMPDEST SWAP2 POP POP SWAP3 POP SWAP3 SWAP1 POP JUMP JUMPDEST PUSH32 0x4E487B7100000000000000000000000000000000000000000000000000000000 PUSH0 MSTORE PUSH1 0x22 PUSH1 0x4 MSTORE PUSH1 0x24 PUSH0 REVERT JUMPDEST PUSH0 PUSH1 0x2 DUP3 DIV SWAP1 POP PUSH1 0x1 DUP3 AND DUP1 PUSH2 0x888 JUMPI PUSH1 0x7F DUP3 AND SWAP2 POP JUMPDEST PUSH1 0x20 DUP3 LT DUP2 SUB PUSH2 0x89B JUMPI PUSH2 0x89A PUSH2 0x844 JUMP JUMPDEST JUMPDEST POP SWAP2 SWAP1 POP JUMP JUMPDEST PUSH32 0x4E487B7100000000000000000000000000000000000000000000000000000000 PUSH0 MSTORE PUSH1 0x11 PUSH1 0x4 MSTORE PUSH1 0x24 PUSH0 REVERT JUMPDEST PUSH0 PUSH2 0x8D8 DUP3 PUSH2 0x52A JUMP JUMPDEST SWAP2 POP PUSH32 0xFFFFFFFFFFFFFFFFFFFFFFFFFFFFFFFFFFFFFFFFFFFFFFFFFFFFFFFFFFFFFFFF DUP3 SUB PUSH2 0x90A JUMPI PUSH2 0x909 PUSH2 0x8A1 JUMP JUMPDEST JUMPDEST PUSH1 0x1 DUP3 ADD SWAP1 POP SWAP2 SWAP1 POP JUMP JUMPDEST PUSH0 DUP2 SWAP1 POP DUP2 PUSH0 MSTORE PUSH1 0x20 PUSH0 KECCAK256 SWAP1 POP SWAP2 SWAP1 POP JUMP JUMPDEST PUSH0 PUSH1 0x20 PUSH1 0x1F DUP4 ADD DIV SWAP1 POP SWAP2 SWAP1 POP JUMP JUMPDEST PUSH0 DUP3 DUP3 SHL SWAP1 POP SWAP3 SWAP2 POP POP JUMP JUMPDEST PUSH0 PUSH1 0x8 DUP4 MUL PUSH2 0x971 PUSH32 0xFFFFFFFFFFFFFFFFFFFFFFFFFFFFFFFFFFFFFFFFFFFFFFFFFFFFFFFFFFFFFFFF DUP3 PUSH2 0x936 JUMP JUMPDEST PUSH2 0x97B DUP7 DUP4 PUSH2 0x936 JUMP JUMPDEST SWAP6 POP DUP1 NOT DUP5 AND SWAP4 POP DUP1 DUP7 AND DUP5 OR SWAP3 POP POP POP SWAP4 SWAP3 POP POP POP JUMP JUMPDEST PUSH0 DUP2 SWAP1 POP SWAP2 SWAP1 POP JUMP JUMPDEST PUSH0 PUSH2 0x9B6 PUSH2 0x9B1 PUSH2 0x9AC DUP5 PUSH2 0x52A JUMP JUMPDEST PUSH2 0x993 JUMP JUMPDEST PUSH2 0x52A JUMP JUMPDEST SWAP1 POP SWAP2 SWAP1 POP JUMP JUMPDEST PUSH0 DUP2 SWAP1 POP SWAP2 SWAP1 POP JUMP JUMPDEST PUSH2 0x9CF DUP4 PUSH2 0x99C JUMP JUMPDEST PUSH2 0x9E3 PUSH2 0x9DB DUP3 PUSH2 0x9BD JUMP JUMPDEST DUP5 DUP5 SLOAD PUSH2 0x942 JUMP JUMPDEST DUP3 SSTORE POP POP POP POP JUMP JUMPDEST PUSH0 SWAP1 JUMP JUMPDEST PUSH2 0x9F7 PUSH2 0x9EB JUMP JUMPDEST PUSH2 0xA02 DUP2 DUP5 DUP5 PUSH2 0x9C6 JUMP JUMPDEST POP POP POP JUMP JUMPDEST JUMPDEST DUP2 DUP2 LT ISZERO PUSH2 0xA25 JUMPI PUSH2 0xA1A PUSH0 DUP3 PUSH2 0x9EF JUMP JUMPDEST PUSH1 0x1 DUP2 ADD SWAP1 POP PUSH2 0xA08 JUMP JUMPDEST POP POP JUMP JUMPDEST PUSH1 0x1F DUP3 GT ISZERO PUSH2 0xA6A JUMPI PUSH2 0xA3B DUP2 PUSH2 0x915 JUMP JUMPDEST PUSH2 0xA44 DUP5 PUSH2 0x927 JUMP JUMPDEST DUP2 ADD PUSH1 0x20 DUP6 LT ISZERO PUSH2 0xA53 JUMPI DUP2 SWAP1 POP JUMPDEST PUSH2 0xA67 PUSH2 0xA5F DUP6 PUSH2 0x927 JUMP JUMPDEST DUP4 ADD DUP3 PUSH2 0xA07 JUMP JUMPDEST POP POP JUMPDEST POP POP POP JUMP JUMPDEST PUSH0 DUP3 DUP3 SHR SWAP1 POP SWAP3 SWAP2 POP POP JUMP JUMPDEST PUSH0 PUSH2 0xA8A PUSH0 NOT DUP5 PUSH1 0x8 MUL PUSH2 0xA6F JUMP JUMPDEST NOT DUP1 DUP4 AND SWAP2 POP POP SWAP3 SWAP2 POP POP JUMP JUMPDEST PUSH0 PUSH2 0xAA2 DUP4 DUP4 PUSH2 0xA7B JUMP JUMPDEST SWAP2 POP DUP3 PUSH1 0x2 MUL DUP3 OR SWAP1 POP SWAP3 SWAP2 POP POP JUMP JUMPDEST PUSH2 0xABB DUP3 PUSH2 0x588 JUMP JUMPDEST PUSH8 0xFFFFFFFFFFFFFFFF DUP2 GT ISZERO PUSH2 0xAD4 JUMPI PUSH2 0xAD3 PUSH2 0x6AA JUMP JUMPDEST JUMPDEST PUSH2 0xADE DUP3 SLOAD PUSH2 0x871 JUMP JUMPDEST PUSH2 0xAE9 DUP3 DUP3 DUP6 PUSH2 0xA29 JUMP JUMPDEST PUSH0 PUSH1 0x20 SWAP1 POP PUSH1 0x1F DUP4 GT PUSH1 0x1 DUP2 EQ PUSH2 0xB1A JUMPI PUSH0 DUP5 ISZERO PUSH2 0xB08 JUMPI DUP3 DUP8 ADD MLOAD SWAP1 POP JUMPDEST PUSH2 0xB12 DUP6 DUP3 PUSH2 0xA97 JUMP JUMPDEST DUP7 SSTORE POP PUSH2 0xB79 JUMP JUMPDEST PUSH1 0x1F NOT DUP5 AND PUSH2 0xB28 DUP7 PUSH2 0x915 JUMP JUMPDEST PUSH0 JUMPDEST DUP3 DUP2 LT ISZERO PUSH2 0xB4F JUMPI DUP5 DUP10 ADD MLOAD DUP3 SSTORE PUSH1 0x1 DUP3 ADD SWAP2 POP PUSH1 0x20 DUP6 ADD SWAP5 POP PUSH1 0x20 DUP2 ADD SWAP1 POP PUSH2 0xB2A JUMP JUMPDEST DUP7 DUP4 LT ISZERO PUSH2 0xB6C JUMPI DUP5 DUP10 ADD MLOAD PUSH2 0xB68 PUSH1 0x1F DUP10 AND DUP3 PUSH2 0xA7B JUMP JUMPDEST DUP4 SSTORE POP JUMPDEST PUSH1 0x1 PUSH1 0x2 DUP9 MUL ADD DUP9 SSTORE POP POP POP JUMPDEST POP POP POP POP POP POP JUMP JUMPDEST PUSH0 PUSH1 0x60 DUP3 ADD SWAP1 POP PUSH2 0xB94 PUSH0 DUP4 ADD DUP7 PUSH2 0x67A JUMP JUMPDEST DUP2 DUP2 SUB PUSH1 0x20 DUP4 ADD MSTORE PUSH2 0xBA6 DUP2 DUP6 PUSH2 0x5C0 JUMP JUMPDEST SWAP1 POP DUP2 DUP2 SUB PUSH1 0x40 DUP4 ADD MSTORE PUSH2 0xBBA DUP2 DUP5 PUSH2 0x5C0 JUMP JUMPDEST SWAP1 POP SWAP5 SWAP4 POP POP POP POP JUMP INVALID LOG2 PUSH5 0x6970667358 0x22 SLT KECCAK256 AND BLOBBASEFEE DUP8 0xEA KECCAK256 SWAP11 BYTE GASLIMIT 0xE9 CALLDATASIZE SWAP10 DUP10 0xE0 0xEC 0x22 SWAP10 PUSH4 0x46558889 CREATE CODECOPY JUMP 0xFC SWAP1 CREATE2 0xD0 PUSH29 0xD1653E64736F6C634300081A0033000000000000000000000000000000 "
				},
				"gasEstimates": {
					"creation": {
						"codeDepositCost": "613200",
						"executionCost": "643",
						"totalCost": "613843"
					},
					"external": {
						"artworkCount()": "2447",
						"artworks(uint256)": "infinite",
						"getArtwork(uint256)": "infinite",
						"registerArtwork(string,string)": "infinite"
					}
				},
				"methodIdentifiers": {
					"artworkCount()": "a0876445",
					"artworks(uint256)": "4b602673",
					"getArtwork(uint256)": "167ddf6e",
					"registerArtwork(string,string)": "a8ae1376"
				}
			},
			"storageLayout": {
				"storage": [
					{
						"astId": 13,
						"contract": "myprojectfest/ArtworkRegistry.sol:ArtworkRegistry",
						"label": "artworks",
						"offset": 0,
						"slot": "0",
						"type": "t_mapping(t_uint256,t_struct(Artwork)8_storage)"
					},
					{
						"astId": 15,
						"contract": "myprojectfest/ArtworkRegistry.sol:ArtworkRegistry",
						"label": "artworkCount",
						"offset": 0,
						"slot": "1",
						"type": "t_uint256"
					}
				],
				"types": {
					"t_address": {
						"encoding": "inplace",
						"label": "address",
						"numberOfBytes": "20"
					},
					"t_mapping(t_uint256,t_struct(Artwork)8_storage)": {
						"encoding": "mapping",
						"key": "t_uint256",
						"label": "mapping(uint256 => struct ArtworkRegistry.Artwork)",
						"numberOfBytes": "32",
						"value": "t_struct(Artwork)8_storage"
					},
					"t_string_storage": {
						"encoding": "bytes",
						"label": "string",
						"numberOfBytes": "32"
					},
					"t_struct(Artwork)8_storage": {
						"encoding": "inplace",
						"label": "struct ArtworkRegistry.Artwork",
						"members": [
							{
								"astId": 3,
								"contract": "myprojectfest/ArtworkRegistry.sol:ArtworkRegistry",
								"label": "title",
								"offset": 0,
								"slot": "0",
								"type": "t_string_storage"
							},
							{
								"astId": 5,
								"contract": "myprojectfest/ArtworkRegistry.sol:ArtworkRegistry",
								"label": "ipfsHash",
								"offset": 0,
								"slot": "1",
								"type": "t_string_storage"
							},
							{
								"astId": 7,
								"contract": "myprojectfest/ArtworkRegistry.sol:ArtworkRegistry",
								"label": "creator",
								"offset": 0,
								"slot": "2",
								"type": "t_address"
							}
						],
						"numberOfBytes": "96"
					},
					"t_uint256": {
						"encoding": "inplace",
						"label": "uint256",
						"numberOfBytes": "32"
					}
				}
			},
			"userdoc": {
				"kind": "user",
				"methods": {},
				"version": 1
			}
		}
	}
}