{
	"myprojectfest/AuctionHouse.sol": {
		"AuctionHouse": {
			"abi": [
				{
					"inputs": [
						{
							"internalType": "address",
							"name": "_artworkRegistry",
							"type": "address"
						}
					],
					"stateMutability": "nonpayable",
					"type": "constructor"
				},
				{
					"inputs": [],
					"name": "artworkRegistry",
					"outputs": [
						{
							"internalType": "contract ArtworkRegistry",
							"name": "",
							"type": "address"
						}
					],
					"stateMutability": "view",
					"type": "function"
				},
				{
					"inputs": [
						{
							"internalType": "uint256",
							"name": "",
							"type": "uint256"
						},
						{
							"internalType": "uint256",
							"name": "",
							"type": "uint256"
						}
					],
					"name": "bids",
					"outputs": [
						{
							"internalType": "address",
							"name": "bidder",
							"type": "address"
						},
						{
							"internalType": "uint256",
							"name": "amount",
							"type": "uint256"
						}
					],
					"stateMutability": "view",
					"type": "function"
				},
				{
					"inputs": [
						{
							"internalType": "uint256",
							"name": "_artworkId",
							"type": "uint256"
						}
					],
					"name": "getBids",
					"outputs": [
						{
							"components": [
								{
									"internalType": "address",
									"name": "bidder",
									"type": "address"
								},
								{
									"internalType": "uint256",
									"name": "amount",
									"type": "uint256"
								}
							],
							"internalType": "struct AuctionHouse.Bid[]",
							"name": "",
							"type": "tuple[]"
						}
					],
					"stateMutability": "view",
					"type": "function"
				},
				{
					"inputs": [
						{
							"internalType": "uint256",
							"name": "_artworkId",
							"type": "uint256"
						}
					],
					"name": "placeBid",
					"outputs": [],
					"stateMutability": "payable",
					"type": "function"
				}
			],
			"devdoc": {
				"kind": "dev",
				"methods": {},
				"version": 1
			},
			"evm": {
				"assembly": "    /* \"myprojectfest/AuctionHouse.sol\":95:726  contract AuctionHouse {... */\n  mstore(0x40, 0x80)\n    /* \"myprojectfest/AuctionHouse.sol\":292:400  constructor(address _artworkRegistry) {... */\n  callvalue\n  dup1\n  iszero\n  tag_1\n  jumpi\n  0x00\n  dup1\n  revert\ntag_1:\n  pop\n  mload(0x40)\n  sub(codesize, bytecodeSize)\n  dup1\n  bytecodeSize\n  dup4\n  codecopy\n  dup2\n  dup2\n  add\n  0x40\n  mstore\n  dup2\n  add\n  swap1\n  tag_2\n  swap2\n  swap1\n  tag_3\n  jump\t// in\ntag_2:\n    /* \"myprojectfest/AuctionHouse.sol\":375:391  _artworkRegistry */\n  dup1\n    /* \"myprojectfest/AuctionHouse.sol\":341:356  artworkRegistry */\n  0x01\n  0x00\n    /* \"myprojectfest/AuctionHouse.sol\":341:392  artworkRegistry = ArtworkRegistry(_artworkRegistry) */\n  0x0100\n  exp\n  dup2\n  sload\n  dup2\n  0xffffffffffffffffffffffffffffffffffffffff\n  mul\n  not\n  and\n  swap1\n  dup4\n  0xffffffffffffffffffffffffffffffffffffffff\n  and\n  mul\n  or\n  swap1\n  sstore\n  pop\n    /* \"myprojectfest/AuctionHouse.sol\":292:400  constructor(address _artworkRegistry) {... */\n  pop\n    /* \"myprojectfest/AuctionHouse.sol\":95:726  contract AuctionHouse {... */\n  jump(tag_6)\n    /* \"#utility.yul\":88:205   */\ntag_8:\n    /* \"#utility.yul\":197:198   */\n  0x00\n    /* \"#utility.yul\":194:195   */\n  dup1\n    /* \"#utility.yul\":187:199   */\n  revert\n    /* \"#utility.yul\":334:460   */\ntag_10:\n    /* \"#utility.yul\":371:378   */\n  0x00\n    /* \"#utility.yul\":411:453   */\n  0xffffffffffffffffffffffffffffffffffffffff\n    /* \"#utility.yul\":404:409   */\n  dup3\n    /* \"#utility.yul\":400:454   */\n  and\n    /* \"#utility.yul\":389:454   */\n  swap1\n  pop\n    /* \"#utility.yul\":334:460   */\n  swap2\n  swap1\n  pop\n  jump\t// out\n    /* \"#utility.yul\":466:562   */\ntag_11:\n    /* \"#utility.yul\":503:510   */\n  0x00\n    /* \"#utility.yul\":532:556   */\n  tag_20\n    /* \"#utility.yul\":550:555   */\n  dup3\n    /* \"#utility.yul\":532:556   */\n  tag_10\n  jump\t// in\ntag_20:\n    /* \"#utility.yul\":521:556   */\n  swap1\n  pop\n    /* \"#utility.yul\":466:562   */\n  swap2\n  swap1\n  pop\n  jump\t// out\n    /* \"#utility.yul\":568:690   */\ntag_12:\n    /* \"#utility.yul\":641:665   */\n  tag_22\n    /* \"#utility.yul\":659:664   */\n  dup2\n    /* \"#utility.yul\":641:665   */\n  tag_11\n  jump\t// in\ntag_22:\n    /* \"#utility.yul\":634:639   */\n  dup2\n    /* \"#utility.yul\":631:666   */\n  eq\n    /* \"#utility.yul\":621:684   */\n  tag_23\n  jumpi\n    /* \"#utility.yul\":680:681   */\n  0x00\n    /* \"#utility.yul\":677:678   */\n  dup1\n    /* \"#utility.yul\":670:682   */\n  revert\n    /* \"#utility.yul\":621:684   */\ntag_23:\n    /* \"#utility.yul\":568:690   */\n  pop\n  jump\t// out\n    /* \"#utility.yul\":696:839   */\ntag_13:\n    /* \"#utility.yul\":753:758   */\n  0x00\n    /* \"#utility.yul\":784:790   */\n  dup2\n    /* \"#utility.yul\":778:791   */\n  mload\n    /* \"#utility.yul\":769:791   */\n  swap1\n  pop\n    /* \"#utility.yul\":800:833   */\n  tag_25\n    /* \"#utility.yul\":827:832   */\n  dup2\n    /* \"#utility.yul\":800:833   */\n  tag_12\n  jump\t// in\ntag_25:\n    /* \"#utility.yul\":696:839   */\n  swap3\n  swap2\n  pop\n  pop\n  jump\t// out\n    /* \"#utility.yul\":845:1196   */\ntag_3:\n    /* \"#utility.yul\":915:921   */\n  0x00\n    /* \"#utility.yul\":964:966   */\n  0x20\n    /* \"#utility.yul\":952:961   */\n  dup3\n    /* \"#utility.yul\":943:950   */\n  dup5\n    /* \"#utility.yul\":939:962   */\n  sub\n    /* \"#utility.yul\":935:967   */\n  slt\n    /* \"#utility.yul\":932:1051   */\n  iszero\n  tag_27\n  jumpi\n    /* \"#utility.yul\":970:1049   */\n  tag_28\n  tag_8\n  jump\t// in\ntag_28:\n    /* \"#utility.yul\":932:1051   */\ntag_27:\n    /* \"#utility.yul\":1090:1091   */\n  0x00\n    /* \"#utility.yul\":1115:1179   */\n  tag_29\n    /* \"#utility.yul\":1171:1178   */\n  dup5\n    /* \"#utility.yul\":1162:1168   */\n  dup3\n    /* \"#utility.yul\":1151:1160   */\n  dup6\n    /* \"#utility.yul\":1147:1169   */\n  add\n    /* \"#utility.yul\":1115:1179   */\n  tag_13\n  jump\t// in\ntag_29:\n    /* \"#utility.yul\":1105:1179   */\n  swap2\n  pop\n    /* \"#utility.yul\":1061:1189   */\n  pop\n    /* \"#utility.yul\":845:1196   */\n  swap3\n  swap2\n  pop\n  pop\n  jump\t// out\n    /* \"myprojectfest/AuctionHouse.sol\":95:726  contract AuctionHouse {... */\ntag_6:\n  dataSize(sub_0)\n  dup1\n  dataOffset(sub_0)\n  0x00\n  codecopy\n  0x00\n  return\nstop\n\nsub_0: assembly {\n        /* \"myprojectfest/AuctionHouse.sol\":95:726  contract AuctionHouse {... */\n      mstore(0x40, 0x80)\n      jumpi(tag_1, lt(calldatasize, 0x04))\n      shr(0xe0, calldataload(0x00))\n      dup1\n      0x131d9a27\n      eq\n      tag_2\n      jumpi\n      dup1\n      0x7b3c4baa\n      eq\n      tag_3\n      jumpi\n      dup1\n      0x9979ef45\n      eq\n      tag_4\n      jumpi\n      dup1\n      0xcde08db0\n      eq\n      tag_5\n      jumpi\n    tag_1:\n      0x00\n      dup1\n      revert\n        /* \"myprojectfest/AuctionHouse.sol\":609:723  function getBids(uint256 _artworkId) public view returns (Bid[] memory) {... */\n    tag_2:\n      callvalue\n      dup1\n      iszero\n      tag_6\n      jumpi\n      0x00\n      dup1\n      revert\n    tag_6:\n      pop\n      tag_7\n      0x04\n      dup1\n      calldatasize\n      sub\n      dup2\n      add\n      swap1\n      tag_8\n      swap2\n      swap1\n      tag_9\n      jump\t// in\n    tag_8:\n      tag_10\n      jump\t// in\n    tag_7:\n      mload(0x40)\n      tag_11\n      swap2\n      swap1\n      tag_12\n      jump\t// in\n    tag_11:\n      mload(0x40)\n      dup1\n      swap2\n      sub\n      swap1\n      return\n        /* \"myprojectfest/AuctionHouse.sol\":201:238  mapping(uint256 => Bid[]) public bids */\n    tag_3:\n      callvalue\n      dup1\n      iszero\n      tag_13\n      jumpi\n      0x00\n      dup1\n      revert\n    tag_13:\n      pop\n      tag_14\n      0x04\n      dup1\n      calldatasize\n      sub\n      dup2\n      add\n      swap1\n      tag_15\n      swap2\n      swap1\n      tag_16\n      jump\t// in\n    tag_15:\n      tag_17\n      jump\t// in\n    tag_14:\n      mload(0x40)\n      tag_18\n      swap3\n      swap2\n      swap1\n      tag_19\n      jump\t// in\n    tag_18:\n      mload(0x40)\n      dup1\n      swap2\n      sub\n      swap1\n      return\n        /* \"myprojectfest/AuctionHouse.sol\":408:601  function placeBid(uint256 _artworkId) public payable {... */\n    tag_4:\n      tag_20\n      0x04\n      dup1\n      calldatasize\n      sub\n      dup2\n      add\n      swap1\n      tag_21\n      swap2\n      swap1\n      tag_9\n      jump\t// in\n    tag_21:\n      tag_22\n      jump\t// in\n    tag_20:\n      stop\n        /* \"myprojectfest/AuctionHouse.sol\":245:283  ArtworkRegistry public artworkRegistry */\n    tag_5:\n      callvalue\n      dup1\n      iszero\n      tag_23\n      jumpi\n      0x00\n      dup1\n      revert\n    tag_23:\n      pop\n      tag_24\n      tag_25\n      jump\t// in\n    tag_24:\n      mload(0x40)\n      tag_26\n      swap2\n      swap1\n      tag_27\n      jump\t// in\n    tag_26:\n      mload(0x40)\n      dup1\n      swap2\n      sub\n      swap1\n      return\n        /* \"myprojectfest/AuctionHouse.sol\":609:723  function getBids(uint256 _artworkId) public view returns (Bid[] memory) {... */\n    tag_10:\n        /* \"myprojectfest/AuctionHouse.sol\":667:679  Bid[] memory */\n      0x60\n        /* \"myprojectfest/AuctionHouse.sol\":699:703  bids */\n      0x00\n        /* \"myprojectfest/AuctionHouse.sol\":699:715  bids[_artworkId] */\n      dup1\n        /* \"myprojectfest/AuctionHouse.sol\":704:714  _artworkId */\n      dup4\n        /* \"myprojectfest/AuctionHouse.sol\":699:715  bids[_artworkId] */\n      dup2\n      mstore\n      0x20\n      add\n      swap1\n      dup2\n      mstore\n      0x20\n      add\n      0x00\n      keccak256\n        /* \"myprojectfest/AuctionHouse.sol\":692:715  return bids[_artworkId] */\n      dup1\n      sload\n      dup1\n      0x20\n      mul\n      0x20\n      add\n      mload(0x40)\n      swap1\n      dup2\n      add\n      0x40\n      mstore\n      dup1\n      swap3\n      swap2\n      swap1\n      dup2\n      dup2\n      mstore\n      0x20\n      add\n      0x00\n      swap1\n    tag_29:\n      dup3\n      dup3\n      lt\n      iszero\n      tag_30\n      jumpi\n      dup4\n      dup3\n      swap1\n      0x00\n      mstore\n      keccak256(0x00, 0x20)\n      swap1\n      0x02\n      mul\n      add\n      mload(0x40)\n      dup1\n      0x40\n      add\n      0x40\n      mstore\n      swap1\n      dup2\n      0x00\n      dup3\n      add\n      0x00\n      swap1\n      sload\n      swap1\n      0x0100\n      exp\n      swap1\n      div\n      0xffffffffffffffffffffffffffffffffffffffff\n      and\n      0xffffffffffffffffffffffffffffffffffffffff\n      and\n      0xffffffffffffffffffffffffffffffffffffffff\n      and\n      dup2\n      mstore\n      0x20\n      add\n      0x01\n      dup3\n      add\n      sload\n      dup2\n      mstore\n      pop\n      pop\n      dup2\n      mstore\n      0x20\n      add\n      swap1\n      0x01\n      add\n      swap1\n      jump(tag_29)\n    tag_30:\n      pop\n      pop\n      pop\n      pop\n      swap1\n      pop\n        /* \"myprojectfest/AuctionHouse.sol\":609:723  function getBids(uint256 _artworkId) public view returns (Bid[] memory) {... */\n      swap2\n      swap1\n      pop\n      jump\t// out\n        /* \"myprojectfest/AuctionHouse.sol\":201:238  mapping(uint256 => Bid[]) public bids */\n    tag_17:\n      mstore(0x20, 0x00)\n      dup2\n      0x00\n      mstore\n      keccak256(0x00, 0x40)\n      dup2\n      dup2\n      sload\n      dup2\n      lt\n      tag_32\n      jumpi\n      0x00\n      dup1\n      revert\n    tag_32:\n      swap1\n      0x00\n      mstore\n      keccak256(0x00, 0x20)\n      swap1\n      0x02\n      mul\n      add\n      0x00\n      swap2\n      pop\n      swap2\n      pop\n      pop\n      dup1\n      0x00\n      add\n      0x00\n      swap1\n      sload\n      swap1\n      0x0100\n      exp\n      swap1\n      div\n      0xffffffffffffffffffffffffffffffffffffffff\n      and\n      swap1\n      dup1\n      0x01\n      add\n      sload\n      swap1\n      pop\n      dup3\n      jump\t// out\n        /* \"myprojectfest/AuctionHouse.sol\":408:601  function placeBid(uint256 _artworkId) public payable {... */\n    tag_22:\n        /* \"myprojectfest/AuctionHouse.sol\":492:493  0 */\n      0x00\n        /* \"myprojectfest/AuctionHouse.sol\":480:489  msg.value */\n      callvalue\n        /* \"myprojectfest/AuctionHouse.sol\":480:493  msg.value > 0 */\n      gt\n        /* \"myprojectfest/AuctionHouse.sol\":472:533  require(msg.value > 0, \"Bid amount should be greater than 0\") */\n      tag_35\n      jumpi\n      mload(0x40)\n      0x08c379a000000000000000000000000000000000000000000000000000000000\n      dup2\n      mstore\n      0x04\n      add\n      tag_36\n      swap1\n      tag_37\n      jump\t// in\n    tag_36:\n      mload(0x40)\n      dup1\n      swap2\n      sub\n      swap1\n      revert\n    tag_35:\n        /* \"myprojectfest/AuctionHouse.sol\":544:548  bids */\n      0x00\n        /* \"myprojectfest/AuctionHouse.sol\":544:560  bids[_artworkId] */\n      dup1\n        /* \"myprojectfest/AuctionHouse.sol\":549:559  _artworkId */\n      dup3\n        /* \"myprojectfest/AuctionHouse.sol\":544:560  bids[_artworkId] */\n      dup2\n      mstore\n      0x20\n      add\n      swap1\n      dup2\n      mstore\n      0x20\n      add\n      0x00\n      keccak256\n        /* \"myprojectfest/AuctionHouse.sol\":566:592  Bid(msg.sender, msg.value) */\n      mload(0x40)\n      dup1\n      0x40\n      add\n      0x40\n      mstore\n      dup1\n        /* \"myprojectfest/AuctionHouse.sol\":570:580  msg.sender */\n      caller\n        /* \"myprojectfest/AuctionHouse.sol\":566:592  Bid(msg.sender, msg.value) */\n      0xffffffffffffffffffffffffffffffffffffffff\n      and\n      dup2\n      mstore\n      0x20\n      add\n        /* \"myprojectfest/AuctionHouse.sol\":582:591  msg.value */\n      callvalue\n        /* \"myprojectfest/AuctionHouse.sol\":566:592  Bid(msg.sender, msg.value) */\n      dup2\n      mstore\n      pop\n        /* \"myprojectfest/AuctionHouse.sol\":544:593  bids[_artworkId].push(Bid(msg.sender, msg.value)) */\n      swap1\n      dup1\n      0x01\n      dup2\n      sload\n      add\n      dup1\n      dup3\n      sstore\n      dup1\n      swap2\n      pop\n      pop\n      0x01\n      swap1\n      sub\n      swap1\n      0x00\n      mstore\n      keccak256(0x00, 0x20)\n      swap1\n      0x02\n      mul\n      add\n      0x00\n      swap1\n      swap2\n      swap1\n      swap2\n      swap1\n      swap2\n      pop\n      0x00\n      dup3\n      add\n      mload\n      dup2\n      0x00\n      add\n      exp(0x0100, 0x00)\n      dup2\n      sload\n      dup2\n      0xffffffffffffffffffffffffffffffffffffffff\n      mul\n      not\n      and\n      swap1\n      dup4\n      0xffffffffffffffffffffffffffffffffffffffff\n      and\n      mul\n      or\n      swap1\n      sstore\n      pop\n      0x20\n      dup3\n      add\n      mload\n      dup2\n      0x01\n      add\n      sstore\n      pop\n      pop\n        /* \"myprojectfest/AuctionHouse.sol\":408:601  function placeBid(uint256 _artworkId) public payable {... */\n      pop\n      jump\t// out\n        /* \"myprojectfest/AuctionHouse.sol\":245:283  ArtworkRegistry public artworkRegistry */\n    tag_25:\n      0x01\n      0x00\n      swap1\n      sload\n      swap1\n      0x0100\n      exp\n      swap1\n      div\n      0xffffffffffffffffffffffffffffffffffffffff\n      and\n      dup2\n      jump\t// out\n        /* \"#utility.yul\":88:205   */\n    tag_40:\n        /* \"#utility.yul\":197:198   */\n      0x00\n        /* \"#utility.yul\":194:195   */\n      dup1\n        /* \"#utility.yul\":187:199   */\n      revert\n        /* \"#utility.yul\":334:411   */\n    tag_42:\n        /* \"#utility.yul\":371:378   */\n      0x00\n        /* \"#utility.yul\":400:405   */\n      dup2\n        /* \"#utility.yul\":389:405   */\n      swap1\n      pop\n        /* \"#utility.yul\":334:411   */\n      swap2\n      swap1\n      pop\n      jump\t// out\n        /* \"#utility.yul\":417:539   */\n    tag_43:\n        /* \"#utility.yul\":490:514   */\n      tag_72\n        /* \"#utility.yul\":508:513   */\n      dup2\n        /* \"#utility.yul\":490:514   */\n      tag_42\n      jump\t// in\n    tag_72:\n        /* \"#utility.yul\":483:488   */\n      dup2\n        /* \"#utility.yul\":480:515   */\n      eq\n        /* \"#utility.yul\":470:533   */\n      tag_73\n      jumpi\n        /* \"#utility.yul\":529:530   */\n      0x00\n        /* \"#utility.yul\":526:527   */\n      dup1\n        /* \"#utility.yul\":519:531   */\n      revert\n        /* \"#utility.yul\":470:533   */\n    tag_73:\n        /* \"#utility.yul\":417:539   */\n      pop\n      jump\t// out\n        /* \"#utility.yul\":545:684   */\n    tag_44:\n        /* \"#utility.yul\":591:596   */\n      0x00\n        /* \"#utility.yul\":629:635   */\n      dup2\n        /* \"#utility.yul\":616:636   */\n      calldataload\n        /* \"#utility.yul\":607:636   */\n      swap1\n      pop\n        /* \"#utility.yul\":645:678   */\n      tag_75\n        /* \"#utility.yul\":672:677   */\n      dup2\n        /* \"#utility.yul\":645:678   */\n      tag_43\n      jump\t// in\n    tag_75:\n        /* \"#utility.yul\":545:684   */\n      swap3\n      swap2\n      pop\n      pop\n      jump\t// out\n        /* \"#utility.yul\":690:1019   */\n    tag_9:\n        /* \"#utility.yul\":749:755   */\n      0x00\n        /* \"#utility.yul\":798:800   */\n      0x20\n        /* \"#utility.yul\":786:795   */\n      dup3\n        /* \"#utility.yul\":777:784   */\n      dup5\n        /* \"#utility.yul\":773:796   */\n      sub\n        /* \"#utility.yul\":769:801   */\n      slt\n        /* \"#utility.yul\":766:885   */\n      iszero\n      tag_77\n      jumpi\n        /* \"#utility.yul\":804:883   */\n      tag_78\n      tag_40\n      jump\t// in\n    tag_78:\n        /* \"#utility.yul\":766:885   */\n    tag_77:\n        /* \"#utility.yul\":924:925   */\n      0x00\n        /* \"#utility.yul\":949:1002   */\n      tag_79\n        /* \"#utility.yul\":994:1001   */\n      dup5\n        /* \"#utility.yul\":985:991   */\n      dup3\n        /* \"#utility.yul\":974:983   */\n      dup6\n        /* \"#utility.yul\":970:992   */\n      add\n        /* \"#utility.yul\":949:1002   */\n      tag_44\n      jump\t// in\n    tag_79:\n        /* \"#utility.yul\":939:1002   */\n      swap2\n      pop\n        /* \"#utility.yul\":895:1012   */\n      pop\n        /* \"#utility.yul\":690:1019   */\n      swap3\n      swap2\n      pop\n      pop\n      jump\t// out\n        /* \"#utility.yul\":1025:1158   */\n    tag_45:\n        /* \"#utility.yul\":1111:1117   */\n      0x00\n        /* \"#utility.yul\":1145:1150   */\n      dup2\n        /* \"#utility.yul\":1139:1151   */\n      mload\n        /* \"#utility.yul\":1129:1151   */\n      swap1\n      pop\n        /* \"#utility.yul\":1025:1158   */\n      swap2\n      swap1\n      pop\n      jump\t// out\n        /* \"#utility.yul\":1164:1367   */\n    tag_46:\n        /* \"#utility.yul\":1282:1293   */\n      0x00\n        /* \"#utility.yul\":1316:1322   */\n      dup3\n        /* \"#utility.yul\":1311:1314   */\n      dup3\n        /* \"#utility.yul\":1304:1323   */\n      mstore\n        /* \"#utility.yul\":1356:1360   */\n      0x20\n        /* \"#utility.yul\":1351:1354   */\n      dup3\n        /* \"#utility.yul\":1347:1361   */\n      add\n        /* \"#utility.yul\":1332:1361   */\n      swap1\n      pop\n        /* \"#utility.yul\":1164:1367   */\n      swap3\n      swap2\n      pop\n      pop\n      jump\t// out\n        /* \"#utility.yul\":1373:1524   */\n    tag_47:\n        /* \"#utility.yul\":1459:1463   */\n      0x00\n        /* \"#utility.yul\":1482:1485   */\n      dup2\n        /* \"#utility.yul\":1474:1485   */\n      swap1\n      pop\n        /* \"#utility.yul\":1512:1516   */\n      0x20\n        /* \"#utility.yul\":1507:1510   */\n      dup3\n        /* \"#utility.yul\":1503:1517   */\n      add\n        /* \"#utility.yul\":1495:1517   */\n      swap1\n      pop\n        /* \"#utility.yul\":1373:1524   */\n      swap2\n      swap1\n      pop\n      jump\t// out\n        /* \"#utility.yul\":1530:1656   */\n    tag_48:\n        /* \"#utility.yul\":1567:1574   */\n      0x00\n        /* \"#utility.yul\":1607:1649   */\n      0xffffffffffffffffffffffffffffffffffffffff\n        /* \"#utility.yul\":1600:1605   */\n      dup3\n        /* \"#utility.yul\":1596:1650   */\n      and\n        /* \"#utility.yul\":1585:1650   */\n      swap1\n      pop\n        /* \"#utility.yul\":1530:1656   */\n      swap2\n      swap1\n      pop\n      jump\t// out\n        /* \"#utility.yul\":1662:1758   */\n    tag_49:\n        /* \"#utility.yul\":1699:1706   */\n      0x00\n        /* \"#utility.yul\":1728:1752   */\n      tag_85\n        /* \"#utility.yul\":1746:1751   */\n      dup3\n        /* \"#utility.yul\":1728:1752   */\n      tag_48\n      jump\t// in\n    tag_85:\n        /* \"#utility.yul\":1717:1752   */\n      swap1\n      pop\n        /* \"#utility.yul\":1662:1758   */\n      swap2\n      swap1\n      pop\n      jump\t// out\n        /* \"#utility.yul\":1764:1872   */\n    tag_50:\n        /* \"#utility.yul\":1841:1865   */\n      tag_87\n        /* \"#utility.yul\":1859:1864   */\n      dup2\n        /* \"#utility.yul\":1841:1865   */\n      tag_49\n      jump\t// in\n    tag_87:\n        /* \"#utility.yul\":1836:1839   */\n      dup3\n        /* \"#utility.yul\":1829:1866   */\n      mstore\n        /* \"#utility.yul\":1764:1872   */\n      pop\n      pop\n      jump\t// out\n        /* \"#utility.yul\":1878:1986   */\n    tag_51:\n        /* \"#utility.yul\":1955:1979   */\n      tag_89\n        /* \"#utility.yul\":1973:1978   */\n      dup2\n        /* \"#utility.yul\":1955:1979   */\n      tag_42\n      jump\t// in\n    tag_89:\n        /* \"#utility.yul\":1950:1953   */\n      dup3\n        /* \"#utility.yul\":1943:1980   */\n      mstore\n        /* \"#utility.yul\":1878:1986   */\n      pop\n      pop\n      jump\t// out\n        /* \"#utility.yul\":2050:2539   */\n    tag_52:\n        /* \"#utility.yul\":2175:2179   */\n      0x40\n        /* \"#utility.yul\":2170:2173   */\n      dup3\n        /* \"#utility.yul\":2166:2180   */\n      add\n        /* \"#utility.yul\":2264:2268   */\n      0x00\n        /* \"#utility.yul\":2257:2262   */\n      dup3\n        /* \"#utility.yul\":2253:2269   */\n      add\n        /* \"#utility.yul\":2247:2270   */\n      mload\n        /* \"#utility.yul\":2283:2346   */\n      tag_91\n        /* \"#utility.yul\":2340:2344   */\n      0x00\n        /* \"#utility.yul\":2335:2338   */\n      dup6\n        /* \"#utility.yul\":2331:2345   */\n      add\n        /* \"#utility.yul\":2317:2329   */\n      dup3\n        /* \"#utility.yul\":2283:2346   */\n      tag_50\n      jump\t// in\n    tag_91:\n        /* \"#utility.yul\":2190:2356   */\n      pop\n        /* \"#utility.yul\":2440:2444   */\n      0x20\n        /* \"#utility.yul\":2433:2438   */\n      dup3\n        /* \"#utility.yul\":2429:2445   */\n      add\n        /* \"#utility.yul\":2423:2446   */\n      mload\n        /* \"#utility.yul\":2459:2522   */\n      tag_92\n        /* \"#utility.yul\":2516:2520   */\n      0x20\n        /* \"#utility.yul\":2511:2514   */\n      dup6\n        /* \"#utility.yul\":2507:2521   */\n      add\n        /* \"#utility.yul\":2493:2505   */\n      dup3\n        /* \"#utility.yul\":2459:2522   */\n      tag_51\n      jump\t// in\n    tag_92:\n        /* \"#utility.yul\":2366:2532   */\n      pop\n        /* \"#utility.yul\":2144:2539   */\n      pop\n        /* \"#utility.yul\":2050:2539   */\n      pop\n      pop\n      jump\t// out\n        /* \"#utility.yul\":2545:2800   */\n    tag_53:\n        /* \"#utility.yul\":2652:2662   */\n      0x00\n        /* \"#utility.yul\":2673:2757   */\n      tag_94\n        /* \"#utility.yul\":2753:2756   */\n      dup4\n        /* \"#utility.yul\":2745:2751   */\n      dup4\n        /* \"#utility.yul\":2673:2757   */\n      tag_52\n      jump\t// in\n    tag_94:\n        /* \"#utility.yul\":2789:2793   */\n      0x40\n        /* \"#utility.yul\":2784:2787   */\n      dup4\n        /* \"#utility.yul\":2780:2794   */\n      add\n        /* \"#utility.yul\":2766:2794   */\n      swap1\n      pop\n        /* \"#utility.yul\":2545:2800   */\n      swap3\n      swap2\n      pop\n      pop\n      jump\t// out\n        /* \"#utility.yul\":2806:2938   */\n    tag_54:\n        /* \"#utility.yul\":2895:2899   */\n      0x00\n        /* \"#utility.yul\":2927:2931   */\n      0x20\n        /* \"#utility.yul\":2922:2925   */\n      dup3\n        /* \"#utility.yul\":2918:2932   */\n      add\n        /* \"#utility.yul\":2910:2932   */\n      swap1\n      pop\n        /* \"#utility.yul\":2806:2938   */\n      swap2\n      swap1\n      pop\n      jump\t// out\n        /* \"#utility.yul\":3006:3890   */\n    tag_55:\n        /* \"#utility.yul\":3163:3166   */\n      0x00\n        /* \"#utility.yul\":3192:3265   */\n      tag_97\n        /* \"#utility.yul\":3259:3264   */\n      dup3\n        /* \"#utility.yul\":3192:3265   */\n      tag_45\n      jump\t// in\n    tag_97:\n        /* \"#utility.yul\":3281:3386   */\n      tag_98\n        /* \"#utility.yul\":3379:3385   */\n      dup2\n        /* \"#utility.yul\":3374:3377   */\n      dup6\n        /* \"#utility.yul\":3281:3386   */\n      tag_46\n      jump\t// in\n    tag_98:\n        /* \"#utility.yul\":3274:3386   */\n      swap4\n      pop\n        /* \"#utility.yul\":3410:3485   */\n      tag_99\n        /* \"#utility.yul\":3479:3484   */\n      dup4\n        /* \"#utility.yul\":3410:3485   */\n      tag_47\n      jump\t// in\n    tag_99:\n        /* \"#utility.yul\":3508:3515   */\n      dup1\n        /* \"#utility.yul\":3539:3540   */\n      0x00\n        /* \"#utility.yul\":3524:3865   */\n    tag_100:\n        /* \"#utility.yul\":3549:3555   */\n      dup4\n        /* \"#utility.yul\":3546:3547   */\n      dup2\n        /* \"#utility.yul\":3543:3556   */\n      lt\n        /* \"#utility.yul\":3524:3865   */\n      iszero\n      tag_102\n      jumpi\n        /* \"#utility.yul\":3625:3631   */\n      dup2\n        /* \"#utility.yul\":3619:3632   */\n      mload\n        /* \"#utility.yul\":3652:3753   */\n      tag_103\n        /* \"#utility.yul\":3749:3752   */\n      dup9\n        /* \"#utility.yul\":3734:3747   */\n      dup3\n        /* \"#utility.yul\":3652:3753   */\n      tag_53\n      jump\t// in\n    tag_103:\n        /* \"#utility.yul\":3645:3753   */\n      swap8\n      pop\n        /* \"#utility.yul\":3776:3855   */\n      tag_104\n        /* \"#utility.yul\":3848:3854   */\n      dup4\n        /* \"#utility.yul\":3776:3855   */\n      tag_54\n      jump\t// in\n    tag_104:\n        /* \"#utility.yul\":3766:3855   */\n      swap3\n      pop\n        /* \"#utility.yul\":3584:3865   */\n      pop\n        /* \"#utility.yul\":3571:3572   */\n      0x01\n        /* \"#utility.yul\":3568:3569   */\n      dup2\n        /* \"#utility.yul\":3564:3573   */\n      add\n        /* \"#utility.yul\":3559:3573   */\n      swap1\n      pop\n        /* \"#utility.yul\":3524:3865   */\n      jump(tag_100)\n    tag_102:\n        /* \"#utility.yul\":3528:3542   */\n      pop\n        /* \"#utility.yul\":3881:3884   */\n      dup6\n        /* \"#utility.yul\":3874:3884   */\n      swap4\n      pop\n        /* \"#utility.yul\":3168:3890   */\n      pop\n      pop\n      pop\n        /* \"#utility.yul\":3006:3890   */\n      swap3\n      swap2\n      pop\n      pop\n      jump\t// out\n        /* \"#utility.yul\":3896:4345   */\n    tag_12:\n        /* \"#utility.yul\":4077:4081   */\n      0x00\n        /* \"#utility.yul\":4115:4117   */\n      0x20\n        /* \"#utility.yul\":4104:4113   */\n      dup3\n        /* \"#utility.yul\":4100:4118   */\n      add\n        /* \"#utility.yul\":4092:4118   */\n      swap1\n      pop\n        /* \"#utility.yul\":4164:4173   */\n      dup2\n        /* \"#utility.yul\":4158:4162   */\n      dup2\n        /* \"#utility.yul\":4154:4174   */\n      sub\n        /* \"#utility.yul\":4150:4151   */\n      0x00\n        /* \"#utility.yul\":4139:4148   */\n      dup4\n        /* \"#utility.yul\":4135:4152   */\n      add\n        /* \"#utility.yul\":4128:4175   */\n      mstore\n        /* \"#utility.yul\":4192:4338   */\n      tag_106\n        /* \"#utility.yul\":4333:4337   */\n      dup2\n        /* \"#utility.yul\":4324:4330   */\n      dup5\n        /* \"#utility.yul\":4192:4338   */\n      tag_55\n      jump\t// in\n    tag_106:\n        /* \"#utility.yul\":4184:4338   */\n      swap1\n      pop\n        /* \"#utility.yul\":3896:4345   */\n      swap3\n      swap2\n      pop\n      pop\n      jump\t// out\n        /* \"#utility.yul\":4351:4825   */\n    tag_16:\n        /* \"#utility.yul\":4419:4425   */\n      0x00\n        /* \"#utility.yul\":4427:4433   */\n      dup1\n        /* \"#utility.yul\":4476:4478   */\n      0x40\n        /* \"#utility.yul\":4464:4473   */\n      dup4\n        /* \"#utility.yul\":4455:4462   */\n      dup6\n        /* \"#utility.yul\":4451:4474   */\n      sub\n        /* \"#utility.yul\":4447:4479   */\n      slt\n        /* \"#utility.yul\":4444:4563   */\n      iszero\n      tag_108\n      jumpi\n        /* \"#utility.yul\":4482:4561   */\n      tag_109\n      tag_40\n      jump\t// in\n    tag_109:\n        /* \"#utility.yul\":4444:4563   */\n    tag_108:\n        /* \"#utility.yul\":4602:4603   */\n      0x00\n        /* \"#utility.yul\":4627:4680   */\n      tag_110\n        /* \"#utility.yul\":4672:4679   */\n      dup6\n        /* \"#utility.yul\":4663:4669   */\n      dup3\n        /* \"#utility.yul\":4652:4661   */\n      dup7\n        /* \"#utility.yul\":4648:4670   */\n      add\n        /* \"#utility.yul\":4627:4680   */\n      tag_44\n      jump\t// in\n    tag_110:\n        /* \"#utility.yul\":4617:4680   */\n      swap3\n      pop\n        /* \"#utility.yul\":4573:4690   */\n      pop\n        /* \"#utility.yul\":4729:4731   */\n      0x20\n        /* \"#utility.yul\":4755:4808   */\n      tag_111\n        /* \"#utility.yul\":4800:4807   */\n      dup6\n        /* \"#utility.yul\":4791:4797   */\n      dup3\n        /* \"#utility.yul\":4780:4789   */\n      dup7\n        /* \"#utility.yul\":4776:4798   */\n      add\n        /* \"#utility.yul\":4755:4808   */\n      tag_44\n      jump\t// in\n    tag_111:\n        /* \"#utility.yul\":4745:4808   */\n      swap2\n      pop\n        /* \"#utility.yul\":4700:4818   */\n      pop\n        /* \"#utility.yul\":4351:4825   */\n      swap3\n      pop\n      swap3\n      swap1\n      pop\n      jump\t// out\n        /* \"#utility.yul\":4831:4949   */\n    tag_56:\n        /* \"#utility.yul\":4918:4942   */\n      tag_113\n        /* \"#utility.yul\":4936:4941   */\n      dup2\n        /* \"#utility.yul\":4918:4942   */\n      tag_49\n      jump\t// in\n    tag_113:\n        /* \"#utility.yul\":4913:4916   */\n      dup3\n        /* \"#utility.yul\":4906:4943   */\n      mstore\n        /* \"#utility.yul\":4831:4949   */\n      pop\n      pop\n      jump\t// out\n        /* \"#utility.yul\":4955:5073   */\n    tag_57:\n        /* \"#utility.yul\":5042:5066   */\n      tag_115\n        /* \"#utility.yul\":5060:5065   */\n      dup2\n        /* \"#utility.yul\":5042:5066   */\n      tag_42\n      jump\t// in\n    tag_115:\n        /* \"#utility.yul\":5037:5040   */\n      dup3\n        /* \"#utility.yul\":5030:5067   */\n      mstore\n        /* \"#utility.yul\":4955:5073   */\n      pop\n      pop\n      jump\t// out\n        /* \"#utility.yul\":5079:5411   */\n    tag_19:\n        /* \"#utility.yul\":5200:5204   */\n      0x00\n        /* \"#utility.yul\":5238:5240   */\n      0x40\n        /* \"#utility.yul\":5227:5236   */\n      dup3\n        /* \"#utility.yul\":5223:5241   */\n      add\n        /* \"#utility.yul\":5215:5241   */\n      swap1\n      pop\n        /* \"#utility.yul\":5251:5322   */\n      tag_117\n        /* \"#utility.yul\":5319:5320   */\n      0x00\n        /* \"#utility.yul\":5308:5317   */\n      dup4\n        /* \"#utility.yul\":5304:5321   */\n      add\n        /* \"#utility.yul\":5295:5301   */\n      dup6\n        /* \"#utility.yul\":5251:5322   */\n      tag_56\n      jump\t// in\n    tag_117:\n        /* \"#utility.yul\":5332:5404   */\n      tag_118\n        /* \"#utility.yul\":5400:5402   */\n      0x20\n        /* \"#utility.yul\":5389:5398   */\n      dup4\n        /* \"#utility.yul\":5385:5403   */\n      add\n        /* \"#utility.yul\":5376:5382   */\n      dup5\n        /* \"#utility.yul\":5332:5404   */\n      tag_57\n      jump\t// in\n    tag_118:\n        /* \"#utility.yul\":5079:5411   */\n      swap4\n      swap3\n      pop\n      pop\n      pop\n      jump\t// out\n        /* \"#utility.yul\":5417:5477   */\n    tag_58:\n        /* \"#utility.yul\":5445:5448   */\n      0x00\n        /* \"#utility.yul\":5466:5471   */\n      dup2\n        /* \"#utility.yul\":5459:5471   */\n      swap1\n      pop\n        /* \"#utility.yul\":5417:5477   */\n      swap2\n      swap1\n      pop\n      jump\t// out\n        /* \"#utility.yul\":5483:5625   */\n    tag_59:\n        /* \"#utility.yul\":5533:5542   */\n      0x00\n        /* \"#utility.yul\":5566:5619   */\n      tag_121\n        /* \"#utility.yul\":5584:5618   */\n      tag_122\n        /* \"#utility.yul\":5593:5617   */\n      tag_123\n        /* \"#utility.yul\":5611:5616   */\n      dup5\n        /* \"#utility.yul\":5593:5617   */\n      tag_48\n      jump\t// in\n    tag_123:\n        /* \"#utility.yul\":5584:5618   */\n      tag_58\n      jump\t// in\n    tag_122:\n        /* \"#utility.yul\":5566:5619   */\n      tag_48\n      jump\t// in\n    tag_121:\n        /* \"#utility.yul\":5553:5619   */\n      swap1\n      pop\n        /* \"#utility.yul\":5483:5625   */\n      swap2\n      swap1\n      pop\n      jump\t// out\n        /* \"#utility.yul\":5631:5757   */\n    tag_60:\n        /* \"#utility.yul\":5681:5690   */\n      0x00\n        /* \"#utility.yul\":5714:5751   */\n      tag_125\n        /* \"#utility.yul\":5745:5750   */\n      dup3\n        /* \"#utility.yul\":5714:5751   */\n      tag_59\n      jump\t// in\n    tag_125:\n        /* \"#utility.yul\":5701:5751   */\n      swap1\n      pop\n        /* \"#utility.yul\":5631:5757   */\n      swap2\n      swap1\n      pop\n      jump\t// out\n        /* \"#utility.yul\":5763:5911   */\n    tag_61:\n        /* \"#utility.yul\":5835:5844   */\n      0x00\n        /* \"#utility.yul\":5868:5905   */\n      tag_127\n        /* \"#utility.yul\":5899:5904   */\n      dup3\n        /* \"#utility.yul\":5868:5905   */\n      tag_60\n      jump\t// in\n    tag_127:\n        /* \"#utility.yul\":5855:5905   */\n      swap1\n      pop\n        /* \"#utility.yul\":5763:5911   */\n      swap2\n      swap1\n      pop\n      jump\t// out\n        /* \"#utility.yul\":5917:6092   */\n    tag_62:\n        /* \"#utility.yul\":6026:6085   */\n      tag_129\n        /* \"#utility.yul\":6079:6084   */\n      dup2\n        /* \"#utility.yul\":6026:6085   */\n      tag_61\n      jump\t// in\n    tag_129:\n        /* \"#utility.yul\":6021:6024   */\n      dup3\n        /* \"#utility.yul\":6014:6086   */\n      mstore\n        /* \"#utility.yul\":5917:6092   */\n      pop\n      pop\n      jump\t// out\n        /* \"#utility.yul\":6098:6364   */\n    tag_27:\n        /* \"#utility.yul\":6213:6217   */\n      0x00\n        /* \"#utility.yul\":6251:6253   */\n      0x20\n        /* \"#utility.yul\":6240:6249   */\n      dup3\n        /* \"#utility.yul\":6236:6254   */\n      add\n        /* \"#utility.yul\":6228:6254   */\n      swap1\n      pop\n        /* \"#utility.yul\":6264:6357   */\n      tag_131\n        /* \"#utility.yul\":6354:6355   */\n      0x00\n        /* \"#utility.yul\":6343:6352   */\n      dup4\n        /* \"#utility.yul\":6339:6356   */\n      add\n        /* \"#utility.yul\":6330:6336   */\n      dup5\n        /* \"#utility.yul\":6264:6357   */\n      tag_62\n      jump\t// in\n    tag_131:\n        /* \"#utility.yul\":6098:6364   */\n      swap3\n      swap2\n      pop\n      pop\n      jump\t// out\n        /* \"#utility.yul\":6370:6539   */\n    tag_63:\n        /* \"#utility.yul\":6454:6465   */\n      0x00\n        /* \"#utility.yul\":6488:6494   */\n      dup3\n        /* \"#utility.yul\":6483:6486   */\n      dup3\n        /* \"#utility.yul\":6476:6495   */\n      mstore\n        /* \"#utility.yul\":6528:6532   */\n      0x20\n        /* \"#utility.yul\":6523:6526   */\n      dup3\n        /* \"#utility.yul\":6519:6533   */\n      add\n        /* \"#utility.yul\":6504:6533   */\n      swap1\n      pop\n        /* \"#utility.yul\":6370:6539   */\n      swap3\n      swap2\n      pop\n      pop\n      jump\t// out\n        /* \"#utility.yul\":6545:6767   */\n    tag_64:\n        /* \"#utility.yul\":6685:6719   */\n      0x42696420616d6f756e742073686f756c64206265206772656174657220746861\n        /* \"#utility.yul\":6681:6682   */\n      0x00\n        /* \"#utility.yul\":6673:6679   */\n      dup3\n        /* \"#utility.yul\":6669:6683   */\n      add\n        /* \"#utility.yul\":6662:6720   */\n      mstore\n        /* \"#utility.yul\":6754:6759   */\n      0x6e20300000000000000000000000000000000000000000000000000000000000\n        /* \"#utility.yul\":6749:6751   */\n      0x20\n        /* \"#utility.yul\":6741:6747   */\n      dup3\n        /* \"#utility.yul\":6737:6752   */\n      add\n        /* \"#utility.yul\":6730:6760   */\n      mstore\n        /* \"#utility.yul\":6545:6767   */\n      pop\n      jump\t// out\n        /* \"#utility.yul\":6773:7139   */\n    tag_65:\n        /* \"#utility.yul\":6915:6918   */\n      0x00\n        /* \"#utility.yul\":6936:7003   */\n      tag_135\n        /* \"#utility.yul\":7000:7002   */\n      0x23\n        /* \"#utility.yul\":6995:6998   */\n      dup4\n        /* \"#utility.yul\":6936:7003   */\n      tag_63\n      jump\t// in\n    tag_135:\n        /* \"#utility.yul\":6929:7003   */\n      swap2\n      pop\n        /* \"#utility.yul\":7012:7105   */\n      tag_136\n        /* \"#utility.yul\":7101:7104   */\n      dup3\n        /* \"#utility.yul\":7012:7105   */\n      tag_64\n      jump\t// in\n    tag_136:\n        /* \"#utility.yul\":7130:7132   */\n      0x40\n        /* \"#utility.yul\":7125:7128   */\n      dup3\n        /* \"#utility.yul\":7121:7133   */\n      add\n        /* \"#utility.yul\":7114:7133   */\n      swap1\n      pop\n        /* \"#utility.yul\":6773:7139   */\n      swap2\n      swap1\n      pop\n      jump\t// out\n        /* \"#utility.yul\":7145:7564   */\n    tag_37:\n        /* \"#utility.yul\":7311:7315   */\n      0x00\n        /* \"#utility.yul\":7349:7351   */\n      0x20\n        /* \"#utility.yul\":7338:7347   */\n      dup3\n        /* \"#utility.yul\":7334:7352   */\n      add\n        /* \"#utility.yul\":7326:7352   */\n      swap1\n      pop\n        /* \"#utility.yul\":7398:7407   */\n      dup2\n        /* \"#utility.yul\":7392:7396   */\n      dup2\n        /* \"#utility.yul\":7388:7408   */\n      sub\n        /* \"#utility.yul\":7384:7385   */\n      0x00\n        /* \"#utility.yul\":7373:7382   */\n      dup4\n        /* \"#utility.yul\":7369:7386   */\n      add\n        /* \"#utility.yul\":7362:7409   */\n      mstore\n        /* \"#utility.yul\":7426:7557   */\n      tag_138\n        /* \"#utility.yul\":7552:7556   */\n      dup2\n        /* \"#utility.yul\":7426:7557   */\n      tag_65\n      jump\t// in\n    tag_138:\n        /* \"#utility.yul\":7418:7557   */\n      swap1\n      pop\n        /* \"#utility.yul\":7145:7564   */\n      swap2\n      swap1\n      pop\n      jump\t// out\n\n    auxdata: 0xa2646970667358221220e548227007efe3dbaad537f07c1a7d9efd27ca2cd934313f0b030afb940efa7a64736f6c63430008180033\n}\n",
				"bytecode": {
					"linkReferences": {},
					"object": "608060405234801561000f575f80fd5b506040516107bb3803806107bb833981810160405281019061003191906100d5565b8060015f6101000a81548173ffffffffffffffffffffffffffffffffffffffff021916908373ffffffffffffffffffffffffffffffffffffffff16021790555050610100565b5f80fd5b5f73ffffffffffffffffffffffffffffffffffffffff82169050919050565b5f6100a48261007b565b9050919050565b6100b48161009a565b81146100be575f80fd5b50565b5f815190506100cf816100ab565b92915050565b5f602082840312156100ea576100e9610077565b5b5f6100f7848285016100c1565b91505092915050565b6106ae8061010d5f395ff3fe60806040526004361061003e575f3560e01c8063131d9a27146100425780637b3c4baa1461007e5780639979ef45146100bb578063cde08db0146100d7575b5f80fd5b34801561004d575f80fd5b5061006860048036038101906100639190610375565b610101565b60405161007591906104c3565b60405180910390f35b348015610089575f80fd5b506100a4600480360381019061009f91906104e3565b6101cb565b6040516100b292919061053f565b60405180910390f35b6100d560048036038101906100d09190610375565b610223565b005b3480156100e2575f80fd5b506100eb610319565b6040516100f891906105c1565b60405180910390f35b60605f808381526020019081526020015f20805480602002602001604051908101604052809291908181526020015f905b828210156101c0578382905f5260205f2090600202016040518060400160405290815f82015f9054906101000a900473ffffffffffffffffffffffffffffffffffffffff1673ffffffffffffffffffffffffffffffffffffffff1673ffffffffffffffffffffffffffffffffffffffff16815260200160018201548152505081526020019060010190610132565b505050509050919050565b5f602052815f5260405f2081815481106101e3575f80fd5b905f5260205f2090600202015f9150915050805f015f9054906101000a900473ffffffffffffffffffffffffffffffffffffffff16908060010154905082565b5f3411610265576040517f08c379a000000000000000000000000000000000000000000000000000000000815260040161025c9061065a565b60405180910390fd5b5f808281526020019081526020015f2060405180604001604052803373ffffffffffffffffffffffffffffffffffffffff16815260200134815250908060018154018082558091505060019003905f5260205f2090600202015f909190919091505f820151815f015f6101000a81548173ffffffffffffffffffffffffffffffffffffffff021916908373ffffffffffffffffffffffffffffffffffffffff16021790555060208201518160010155505050565b60015f9054906101000a900473ffffffffffffffffffffffffffffffffffffffff1681565b5f80fd5b5f819050919050565b61035481610342565b811461035e575f80fd5b50565b5f8135905061036f8161034b565b92915050565b5f6020828403121561038a5761038961033e565b5b5f61039784828501610361565b91505092915050565b5f81519050919050565b5f82825260208201905092915050565b5f819050602082019050919050565b5f73ffffffffffffffffffffffffffffffffffffffff82169050919050565b5f6103f2826103c9565b9050919050565b610402816103e8565b82525050565b61041181610342565b82525050565b604082015f82015161042b5f8501826103f9565b50602082015161043e6020850182610408565b50505050565b5f61044f8383610417565b60408301905092915050565b5f602082019050919050565b5f610471826103a0565b61047b81856103aa565b9350610486836103ba565b805f5b838110156104b657815161049d8882610444565b97506104a88361045b565b925050600181019050610489565b5085935050505092915050565b5f6020820190508181035f8301526104db8184610467565b905092915050565b5f80604083850312156104f9576104f861033e565b5b5f61050685828601610361565b925050602061051785828601610361565b9150509250929050565b61052a816103e8565b82525050565b61053981610342565b82525050565b5f6040820190506105525f830185610521565b61055f6020830184610530565b9392505050565b5f819050919050565b5f61058961058461057f846103c9565b610566565b6103c9565b9050919050565b5f61059a8261056f565b9050919050565b5f6105ab82610590565b9050919050565b6105bb816105a1565b82525050565b5f6020820190506105d45f8301846105b2565b92915050565b5f82825260208201905092915050565b7f42696420616d6f756e742073686f756c642062652067726561746572207468615f8201527f6e20300000000000000000000000000000000000000000000000000000000000602082015250565b5f6106446023836105da565b915061064f826105ea565b604082019050919050565b5f6020820190508181035f83015261067181610638565b905091905056fea2646970667358221220e548227007efe3dbaad537f07c1a7d9efd27ca2cd934313f0b030afb940efa7a64736f6c63430008180033",
					"opcodes": "PUSH1 0x80 PUSH1 0x40 MSTORE CALLVALUE DUP1 ISZERO PUSH2 0xF JUMPI PUSH0 DUP1 REVERT JUMPDEST POP PUSH1 0x40 MLOAD PUSH2 0x7BB CODESIZE SUB DUP1 PUSH2 0x7BB DUP4 CODECOPY DUP2 DUP2 ADD PUSH1 0x40 MSTORE DUP2 ADD SWAP1 PUSH2 0x31 SWAP2 SWAP1 PUSH2 0xD5 JUMP JUMPDEST DUP1 PUSH1 0x1 PUSH0 PUSH2 0x100 EXP DUP2 SLOAD DUP2 PUSH20 0xFFFFFFFFFFFFFFFFFFFFFFFFFFFFFFFFFFFFFFFF MUL NOT AND SWAP1 DUP4 PUSH20 0xFFFFFFFFFFFFFFFFFFFFFFFFFFFFFFFFFFFFFFFF AND MUL OR SWAP1 SSTORE POP POP PUSH2 0x100 JUMP JUMPDEST PUSH0 DUP1 REVERT JUMPDEST PUSH0 PUSH20 0xFFFFFFFFFFFFFFFFFFFFFFFFFFFFFFFFFFFFFFFF DUP3 AND SWAP1 POP SWAP2 SWAP1 POP JUMP JUMPDEST PUSH0 PUSH2 0xA4 DUP3 PUSH2 0x7B JUMP JUMPDEST SWAP1 POP SWAP2 SWAP1 POP JUMP JUMPDEST PUSH2 0xB4 DUP2 PUSH2 0x9A JUMP JUMPDEST DUP2 EQ PUSH2 0xBE JUMPI PUSH0 DUP1 REVERT JUMPDEST POP JUMP JUMPDEST PUSH0 DUP2 MLOAD SWAP1 POP PUSH2 0xCF DUP2 PUSH2 0xAB JUMP JUMPDEST SWAP3 SWAP2 POP POP JUMP JUMPDEST PUSH0 PUSH1 0x20 DUP3 DUP5 SUB SLT ISZERO PUSH2 0xEA JUMPI PUSH2 0xE9 PUSH2 0x77 JUMP JUMPDEST JUMPDEST PUSH0 PUSH2 0xF7 DUP5 DUP3 DUP6 ADD PUSH2 0xC1 JUMP JUMPDEST SWAP2 POP POP SWAP3 SWAP2 POP POP JUMP JUMPDEST PUSH2 0x6AE DUP1 PUSH2 0x10D PUSH0 CODECOPY PUSH0 RETURN INVALID PUSH1 0x80 PUSH1 0x40 MSTORE PUSH1 0x4 CALLDATASIZE LT PUSH2 0x3E JUMPI PUSH0 CALLDATALOAD PUSH1 0xE0 SHR DUP1 PUSH4 0x131D9A27 EQ PUSH2 0x42 JUMPI DUP1 PUSH4 0x7B3C4BAA EQ PUSH2 0x7E JUMPI DUP1 PUSH4 0x9979EF45 EQ PUSH2 0xBB JUMPI DUP1 PUSH4 0xCDE08DB0 EQ PUSH2 0xD7 JUMPI JUMPDEST PUSH0 DUP1 REVERT JUMPDEST CALLVALUE DUP1 ISZERO PUSH2 0x4D JUMPI PUSH0 DUP1 REVERT JUMPDEST POP PUSH2 0x68 PUSH1 0x4 DUP1 CALLDATASIZE SUB DUP2 ADD SWAP1 PUSH2 0x63 SWAP2 SWAP1 PUSH2 0x375 JUMP JUMPDEST PUSH2 0x101 JUMP JUMPDEST PUSH1 0x40 MLOAD PUSH2 0x75 SWAP2 SWAP1 PUSH2 0x4C3 JUMP JUMPDEST PUSH1 0x40 MLOAD DUP1 SWAP2 SUB SWAP1 RETURN JUMPDEST CALLVALUE DUP1 ISZERO PUSH2 0x89 JUMPI PUSH0 DUP1 REVERT JUMPDEST POP PUSH2 0xA4 PUSH1 0x4 DUP1 CALLDATASIZE SUB DUP2 ADD SWAP1 PUSH2 0x9F SWAP2 SWAP1 PUSH2 0x4E3 JUMP JUMPDEST PUSH2 0x1CB JUMP JUMPDEST PUSH1 0x40 MLOAD PUSH2 0xB2 SWAP3 SWAP2 SWAP1 PUSH2 0x53F JUMP JUMPDEST PUSH1 0x40 MLOAD DUP1 SWAP2 SUB SWAP1 RETURN JUMPDEST PUSH2 0xD5 PUSH1 0x4 DUP1 CALLDATASIZE SUB DUP2 ADD SWAP1 PUSH2 0xD0 SWAP2 SWAP1 PUSH2 0x375 JUMP JUMPDEST PUSH2 0x223 JUMP JUMPDEST STOP JUMPDEST CALLVALUE DUP1 ISZERO PUSH2 0xE2 JUMPI PUSH0 DUP1 REVERT JUMPDEST POP PUSH2 0xEB PUSH2 0x319 JUMP JUMPDEST PUSH1 0x40 MLOAD PUSH2 0xF8 SWAP2 SWAP1 PUSH2 0x5C1 JUMP JUMPDEST PUSH1 0x40 MLOAD DUP1 SWAP2 SUB SWAP1 RETURN JUMPDEST PUSH1 0x60 PUSH0 DUP1 DUP4 DUP2 MSTORE PUSH1 0x20 ADD SWAP1 DUP2 MSTORE PUSH1 0x20 ADD PUSH0 KECCAK256 DUP1 SLOAD DUP1 PUSH1 0x20 MUL PUSH1 0x20 ADD PUSH1 0x40 MLOAD SWAP1 DUP2 ADD PUSH1 0x40 MSTORE DUP1 SWAP3 SWAP2 SWAP1 DUP2 DUP2 MSTORE PUSH1 0x20 ADD PUSH0 SWAP1 JUMPDEST DUP3 DUP3 LT ISZERO PUSH2 0x1C0 JUMPI DUP4 DUP3 SWAP1 PUSH0 MSTORE PUSH1 0x20 PUSH0 KECCAK256 SWAP1 PUSH1 0x2 MUL ADD PUSH1 0x40 MLOAD DUP1 PUSH1 0x40 ADD PUSH1 0x40 MSTORE SWAP1 DUP2 PUSH0 DUP3 ADD PUSH0 SWAP1 SLOAD SWAP1 PUSH2 0x100 EXP SWAP1 DIV PUSH20 0xFFFFFFFFFFFFFFFFFFFFFFFFFFFFFFFFFFFFFFFF AND PUSH20 0xFFFFFFFFFFFFFFFFFFFFFFFFFFFFFFFFFFFFFFFF AND PUSH20 0xFFFFFFFFFFFFFFFFFFFFFFFFFFFFFFFFFFFFFFFF AND DUP2 MSTORE PUSH1 0x20 ADD PUSH1 0x1 DUP3 ADD SLOAD DUP2 MSTORE POP POP DUP2 MSTORE PUSH1 0x20 ADD SWAP1 PUSH1 0x1 ADD SWAP1 PUSH2 0x132 JUMP JUMPDEST POP POP POP POP SWAP1 POP SWAP2 SWAP1 POP JUMP JUMPDEST PUSH0 PUSH1 0x20 MSTORE DUP2 PUSH0 MSTORE PUSH1 0x40 PUSH0 KECCAK256 DUP2 DUP2 SLOAD DUP2 LT PUSH2 0x1E3 JUMPI PUSH0 DUP1 REVERT JUMPDEST SWAP1 PUSH0 MSTORE PUSH1 0x20 PUSH0 KECCAK256 SWAP1 PUSH1 0x2 MUL ADD PUSH0 SWAP2 POP SWAP2 POP POP DUP1 PUSH0 ADD PUSH0 SWAP1 SLOAD SWAP1 PUSH2 0x100 EXP SWAP1 DIV PUSH20 0xFFFFFFFFFFFFFFFFFFFFFFFFFFFFFFFFFFFFFFFF AND SWAP1 DUP1 PUSH1 0x1 ADD SLOAD SWAP1 POP DUP3 JUMP JUMPDEST PUSH0 CALLVALUE GT PUSH2 0x265 JUMPI PUSH1 0x40 MLOAD PUSH32 0x8C379A000000000000000000000000000000000000000000000000000000000 DUP2 MSTORE PUSH1 0x4 ADD PUSH2 0x25C SWAP1 PUSH2 0x65A JUMP JUMPDEST PUSH1 0x40 MLOAD DUP1 SWAP2 SUB SWAP1 REVERT JUMPDEST PUSH0 DUP1 DUP3 DUP2 MSTORE PUSH1 0x20 ADD SWAP1 DUP2 MSTORE PUSH1 0x20 ADD PUSH0 KECCAK256 PUSH1 0x40 MLOAD DUP1 PUSH1 0x40 ADD PUSH1 0x40 MSTORE DUP1 CALLER PUSH20 0xFFFFFFFFFFFFFFFFFFFFFFFFFFFFFFFFFFFFFFFF AND DUP2 MSTORE PUSH1 0x20 ADD CALLVALUE DUP2 MSTORE POP SWAP1 DUP1 PUSH1 0x1 DUP2 SLOAD ADD DUP1 DUP3 SSTORE DUP1 SWAP2 POP POP PUSH1 0x1 SWAP1 SUB SWAP1 PUSH0 MSTORE PUSH1 0x20 PUSH0 KECCAK256 SWAP1 PUSH1 0x2 MUL ADD PUSH0 SWAP1 SWAP2 SWAP1 SWAP2 SWAP1 SWAP2 POP PUSH0 DUP3 ADD MLOAD DUP2 PUSH0 ADD PUSH0 PUSH2 0x100 EXP DUP2 SLOAD DUP2 PUSH20 0xFFFFFFFFFFFFFFFFFFFFFFFFFFFFFFFFFFFFFFFF MUL NOT AND SWAP1 DUP4 PUSH20 0xFFFFFFFFFFFFFFFFFFFFFFFFFFFFFFFFFFFFFFFF AND MUL OR SWAP1 SSTORE POP PUSH1 0x20 DUP3 ADD MLOAD DUP2 PUSH1 0x1 ADD SSTORE POP POP POP JUMP JUMPDEST PUSH1 0x1 PUSH0 SWAP1 SLOAD SWAP1 PUSH2 0x100 EXP SWAP1 DIV PUSH20 0xFFFFFFFFFFFFFFFFFFFFFFFFFFFFFFFFFFFFFFFF AND DUP2 JUMP JUMPDEST PUSH0 DUP1 REVERT JUMPDEST PUSH0 DUP2 SWAP1 POP SWAP2 SWAP1 POP JUMP JUMPDEST PUSH2 0x354 DUP2 PUSH2 0x342 JUMP JUMPDEST DUP2 EQ PUSH2 0x35E JUMPI PUSH0 DUP1 REVERT JUMPDEST POP JUMP JUMPDEST PUSH0 DUP2 CALLDATALOAD SWAP1 POP PUSH2 0x36F DUP2 PUSH2 0x34B JUMP JUMPDEST SWAP3 SWAP2 POP POP JUMP JUMPDEST PUSH0 PUSH1 0x20 DUP3 DUP5 SUB SLT ISZERO PUSH2 0x38A JUMPI PUSH2 0x389 PUSH2 0x33E JUMP JUMPDEST JUMPDEST PUSH0 PUSH2 0x397 DUP5 DUP3 DUP6 ADD PUSH2 0x361 JUMP JUMPDEST SWAP2 POP POP SWAP3 SWAP2 POP POP JUMP JUMPDEST PUSH0 DUP2 MLOAD SWAP1 POP SWAP2 SWAP1 POP JUMP JUMPDEST PUSH0 DUP3 DUP3 MSTORE PUSH1 0x20 DUP3 ADD SWAP1 POP SWAP3 SWAP2 POP POP JUMP JUMPDEST PUSH0 DUP2 SWAP1 POP PUSH1 0x20 DUP3 ADD SWAP1 POP SWAP2 SWAP1 POP JUMP JUMPDEST PUSH0 PUSH20 0xFFFFFFFFFFFFFFFFFFFFFFFFFFFFFFFFFFFFFFFF DUP3 AND SWAP1 POP SWAP2 SWAP1 POP JUMP JUMPDEST PUSH0 PUSH2 0x3F2 DUP3 PUSH2 0x3C9 JUMP JUMPDEST SWAP1 POP SWAP2 SWAP1 POP JUMP JUMPDEST PUSH2 0x402 DUP2 PUSH2 0x3E8 JUMP JUMPDEST DUP3 MSTORE POP POP JUMP JUMPDEST PUSH2 0x411 DUP2 PUSH2 0x342 JUMP JUMPDEST DUP3 MSTORE POP POP JUMP JUMPDEST PUSH1 0x40 DUP3 ADD PUSH0 DUP3 ADD MLOAD PUSH2 0x42B PUSH0 DUP6 ADD DUP3 PUSH2 0x3F9 JUMP JUMPDEST POP PUSH1 0x20 DUP3 ADD MLOAD PUSH2 0x43E PUSH1 0x20 DUP6 ADD DUP3 PUSH2 0x408 JUMP JUMPDEST POP POP POP POP JUMP JUMPDEST PUSH0 PUSH2 0x44F DUP4 DUP4 PUSH2 0x417 JUMP JUMPDEST PUSH1 0x40 DUP4 ADD SWAP1 POP SWAP3 SWAP2 POP POP JUMP JUMPDEST PUSH0 PUSH1 0x20 DUP3 ADD SWAP1 POP SWAP2 SWAP1 POP JUMP JUMPDEST PUSH0 PUSH2 0x471 DUP3 PUSH2 0x3A0 JUMP JUMPDEST PUSH2 0x47B DUP2 DUP6 PUSH2 0x3AA JUMP JUMPDEST SWAP4 POP PUSH2 0x486 DUP4 PUSH2 0x3BA JUMP JUMPDEST DUP1 PUSH0 JUMPDEST DUP4 DUP2 LT ISZERO PUSH2 0x4B6 JUMPI DUP2 MLOAD PUSH2 0x49D DUP9 DUP3 PUSH2 0x444 JUMP JUMPDEST SWAP8 POP PUSH2 0x4A8 DUP4 PUSH2 0x45B JUMP JUMPDEST SWAP3 POP POP PUSH1 0x1 DUP2 ADD SWAP1 POP PUSH2 0x489 JUMP JUMPDEST POP DUP6 SWAP4 POP POP POP POP SWAP3 SWAP2 POP POP JUMP JUMPDEST PUSH0 PUSH1 0x20 DUP3 ADD SWAP1 POP DUP2 DUP2 SUB PUSH0 DUP4 ADD MSTORE PUSH2 0x4DB DUP2 DUP5 PUSH2 0x467 JUMP JUMPDEST SWAP1 POP SWAP3 SWAP2 POP POP JUMP JUMPDEST PUSH0 DUP1 PUSH1 0x40 DUP4 DUP6 SUB SLT ISZERO PUSH2 0x4F9 JUMPI PUSH2 0x4F8 PUSH2 0x33E JUMP JUMPDEST JUMPDEST PUSH0 PUSH2 0x506 DUP6 DUP3 DUP7 ADD PUSH2 0x361 JUMP JUMPDEST SWAP3 POP POP PUSH1 0x20 PUSH2 0x517 DUP6 DUP3 DUP7 ADD PUSH2 0x361 JUMP JUMPDEST SWAP2 POP POP SWAP3 POP SWAP3 SWAP1 POP JUMP JUMPDEST PUSH2 0x52A DUP2 PUSH2 0x3E8 JUMP JUMPDEST DUP3 MSTORE POP POP JUMP JUMPDEST PUSH2 0x539 DUP2 PUSH2 0x342 JUMP JUMPDEST DUP3 MSTORE POP POP JUMP JUMPDEST PUSH0 PUSH1 0x40 DUP3 ADD SWAP1 POP PUSH2 0x552 PUSH0 DUP4 ADD DUP6 PUSH2 0x521 JUMP JUMPDEST PUSH2 0x55F PUSH1 0x20 DUP4 ADD DUP5 PUSH2 0x530 JUMP JUMPDEST SWAP4 SWAP3 POP POP POP JUMP JUMPDEST PUSH0 DUP2 SWAP1 POP SWAP2 SWAP1 POP JUMP JUMPDEST PUSH0 PUSH2 0x589 PUSH2 0x584 PUSH2 0x57F DUP5 PUSH2 0x3C9 JUMP JUMPDEST PUSH2 0x566 JUMP JUMPDEST PUSH2 0x3C9 JUMP JUMPDEST SWAP1 POP SWAP2 SWAP1 POP JUMP JUMPDEST PUSH0 PUSH2 0x59A DUP3 PUSH2 0x56F JUMP JUMPDEST SWAP1 POP SWAP2 SWAP1 POP JUMP JUMPDEST PUSH0 PUSH2 0x5AB DUP3 PUSH2 0x590 JUMP JUMPDEST SWAP1 POP SWAP2 SWAP1 POP JUMP JUMPDEST PUSH2 0x5BB DUP2 PUSH2 0x5A1 JUMP JUMPDEST DUP3 MSTORE POP POP JUMP JUMPDEST PUSH0 PUSH1 0x20 DUP3 ADD SWAP1 POP PUSH2 0x5D4 PUSH0 DUP4 ADD DUP5 PUSH2 0x5B2 JUMP JUMPDEST SWAP3 SWAP2 POP POP JUMP JUMPDEST PUSH0 DUP3 DUP3 MSTORE PUSH1 0x20 DUP3 ADD SWAP1 POP SWAP3 SWAP2 POP POP JUMP JUMPDEST PUSH32 0x42696420616D6F756E742073686F756C64206265206772656174657220746861 PUSH0 DUP3 ADD MSTORE PUSH32 0x6E20300000000000000000000000000000000000000000000000000000000000 PUSH1 0x20 DUP3 ADD MSTORE POP JUMP JUMPDEST PUSH0 PUSH2 0x644 PUSH1 0x23 DUP4 PUSH2 0x5DA JUMP JUMPDEST SWAP2 POP PUSH2 0x64F DUP3 PUSH2 0x5EA JUMP JUMPDEST PUSH1 0x40 DUP3 ADD SWAP1 POP SWAP2 SWAP1 POP JUMP JUMPDEST PUSH0 PUSH1 0x20 DUP3 ADD SWAP1 POP DUP2 DUP2 SUB PUSH0 DUP4 ADD MSTORE PUSH2 0x671 DUP2 PUSH2 0x638 JUMP JUMPDEST SWAP1 POP SWAP2 SWAP1 POP JUMP INVALID LOG2 PUSH5 0x6970667358 0x22 SLT KECCAK256 0xE5 BASEFEE 0x22 PUSH17 0x7EFE3DBAAD537F07C1A7D9EFD27CA2CD9 CALLVALUE BALANCE EXTCODEHASH SIGNEXTEND SUB EXP 0xFB SWAP5 0xE STATICCALL PUSH27 0x64736F6C6343000818003300000000000000000000000000000000 "
				},
				"gasEstimates": {
					"creation": {
						"codeDepositCost": "342000",
						"executionCost": "infinite",
						"totalCost": "infinite"
					},
					"external": {
						"artworkRegistry()": "infinite",
						"bids(uint256,uint256)": "infinite",
						"getBids(uint256)": "infinite",
						"placeBid(uint256)": "71291"
					}
				},
				"methodIdentifiers": {
					"artworkRegistry()": "cde08db0",
					"bids(uint256,uint256)": "7b3c4baa",
					"getBids(uint256)": "131d9a27",
					"placeBid(uint256)": "9979ef45"
				}
			},
			"storageLayout": {
				"storage": [
					{
						"astId": 97,
						"contract": "myprojectfest/AuctionHouse.sol:AuctionHouse",
						"label": "bids",
						"offset": 0,
						"slot": "0",
						"type": "t_mapping(t_uint256,t_array(t_struct(Bid)91_storage)dyn_storage)"
					},
					{
						"astId": 100,
						"contract": "myprojectfest/AuctionHouse.sol:AuctionHouse",
						"label": "artworkRegistry",
						"offset": 0,
						"slot": "1",
						"type": "t_contract(ArtworkRegistry)83"
					}
				],
				"types": {
					"t_address": {
						"encoding": "inplace",
						"label": "address",
						"numberOfBytes": "20"
					},
					"t_array(t_struct(Bid)91_storage)dyn_storage": {
						"base": "t_struct(Bid)91_storage",
						"encoding": "dynamic_array",
						"label": "struct AuctionHouse.Bid[]",
						"numberOfBytes": "32"
					},
					"t_contract(ArtworkRegistry)83": {
						"encoding": "inplace",
						"label": "contract ArtworkRegistry",
						"numberOfBytes": "20"
					},
					"t_mapping(t_uint256,t_array(t_struct(Bid)91_storage)dyn_storage)": {
						"encoding": "mapping",
						"key": "t_uint256",
						"label": "mapping(uint256 => struct AuctionHouse.Bid[])",
						"numberOfBytes": "32",
						"value": "t_array(t_struct(Bid)91_storage)dyn_storage"
					},
					"t_struct(Bid)91_storage": {
						"encoding": "inplace",
						"label": "struct AuctionHouse.Bid",
						"members": [
							{
								"astId": 88,
								"contract": "myprojectfest/AuctionHouse.sol:AuctionHouse",
								"label": "bidder",
								"offset": 0,
								"slot": "0",
								"type": "t_address"
							},
							{
								"astId": 90,
								"contract": "myprojectfest/AuctionHouse.sol:AuctionHouse",
								"label": "amount",
								"offset": 0,
								"slot": "1",
								"type": "t_uint256"
							}
						],
						"numberOfBytes": "64"
					},
					"t_uint256": {
						"encoding": "inplace",
						"label": "uint256",
						"numberOfBytes": "32"
					}
				}
			},
			"userdoc": {
				"kind": "user",
				"methods": {},
				"version": 1
			}
		}
	}
}