{
	"csefest23/Artwork.sol": {
		"Artwork": {
			"abi": [
				{
					"anonymous": false,
					"inputs": [
						{
							"indexed": false,
							"internalType": "uint256",
							"name": "artId",
							"type": "uint256"
						},
						{
							"indexed": false,
							"internalType": "address",
							"name": "buyer",
							"type": "address"
						},
						{
							"indexed": false,
							"internalType": "address",
							"name": "seller",
							"type": "address"
						},
						{
							"indexed": false,
							"internalType": "uint256",
							"name": "amount",
							"type": "uint256"
						}
					],
					"name": "ArtworkPurchased",
					"type": "event"
				},
				{
					"inputs": [
						{
							"internalType": "uint256",
							"name": "",
							"type": "uint256"
						}
					],
					"name": "artworks",
					"outputs": [
						{
							"internalType": "address",
							"name": "owner",
							"type": "address"
						},
						{
							"internalType": "string",
							"name": "image",
							"type": "string"
						},
						{
							"internalType": "string",
							"name": "description",
							"type": "string"
						},
						{
							"internalType": "uint256",
							"name": "price",
							"type": "uint256"
						},
						{
							"internalType": "string",
							"name": "credentials",
							"type": "string"
						},
						{
							"internalType": "uint256",
							"name": "quantity",
							"type": "uint256"
						},
						{
							"internalType": "bool",
							"name": "isVerified",
							"type": "bool"
						},
						{
							"internalType": "string",
							"name": "tokenUri",
							"type": "string"
						},
						{
							"internalType": "address",
							"name": "original_artist",
							"type": "address"
						}
					],
					"stateMutability": "view",
					"type": "function"
				},
				{
					"inputs": [
						{
							"internalType": "uint256",
							"name": "art_id",
							"type": "uint256"
						}
					],
					"name": "buyArtwork",
					"outputs": [],
					"stateMutability": "payable",
					"type": "function"
				},
				{
					"inputs": [
						{
							"internalType": "uint256",
							"name": "purchase_id",
							"type": "uint256"
						}
					],
					"name": "completeDelivery",
					"outputs": [
						{
							"internalType": "string",
							"name": "",
							"type": "string"
						}
					],
					"stateMutability": "nonpayable",
					"type": "function"
				},
				{
					"inputs": [
						{
							"internalType": "address",
							"name": "_owner",
							"type": "address"
						},
						{
							"internalType": "string",
							"name": "_image_path",
							"type": "string"
						},
						{
							"internalType": "string",
							"name": "_description",
							"type": "string"
						},
						{
							"internalType": "uint256",
							"name": "_price",
							"type": "uint256"
						},
						{
							"internalType": "string",
							"name": "_credentials",
							"type": "string"
						},
						{
							"internalType": "uint256",
							"name": "_quantity",
							"type": "uint256"
						}
					],
					"name": "createArt",
					"outputs": [],
					"stateMutability": "nonpayable",
					"type": "function"
				},
				{
					"inputs": [
						{
							"internalType": "uint256",
							"name": "art_id",
							"type": "uint256"
						}
					],
					"name": "getArtQuantity",
					"outputs": [
						{
							"internalType": "uint256",
							"name": "",
							"type": "uint256"
						}
					],
					"stateMutability": "view",
					"type": "function"
				},
				{
					"inputs": [],
					"name": "getArtworks",
					"outputs": [
						{
							"components": [
								{
									"internalType": "address",
									"name": "owner",
									"type": "address"
								},
								{
									"internalType": "string",
									"name": "image",
									"type": "string"
								},
								{
									"internalType": "string",
									"name": "description",
									"type": "string"
								},
								{
									"internalType": "uint256",
									"name": "price",
									"type": "uint256"
								},
								{
									"internalType": "string",
									"name": "credentials",
									"type": "string"
								},
								{
									"internalType": "uint256",
									"name": "quantity",
									"type": "uint256"
								},
								{
									"internalType": "bool",
									"name": "isVerified",
									"type": "bool"
								},
								{
									"internalType": "string",
									"name": "tokenUri",
									"type": "string"
								},
								{
									"internalType": "address",
									"name": "original_artist",
									"type": "address"
								}
							],
							"internalType": "struct Artwork.Art[]",
							"name": "",
							"type": "tuple[]"
						}
					],
					"stateMutability": "view",
					"type": "function"
				},
				{
					"inputs": [],
					"name": "getPurchases",
					"outputs": [
						{
							"components": [
								{
									"internalType": "uint256",
									"name": "id",
									"type": "uint256"
								},
								{
									"internalType": "uint256",
									"name": "artId",
									"type": "uint256"
								},
								{
									"internalType": "address",
									"name": "buyer",
									"type": "address"
								},
								{
									"internalType": "address",
									"name": "seller",
									"type": "address"
								},
								{
									"internalType": "uint256",
									"name": "amount",
									"type": "uint256"
								},
								{
									"internalType": "uint256",
									"name": "total_amount",
									"type": "uint256"
								},
								{
									"internalType": "uint256",
									"name": "amounts_paid",
									"type": "uint256"
								},
								{
									"internalType": "uint256",
									"name": "amounts_remaining",
									"type": "uint256"
								},
								{
									"internalType": "string",
									"name": "delivery_state",
									"type": "string"
								},
								{
									"internalType": "bool",
									"name": "delivered_status",
									"type": "bool"
								}
							],
							"internalType": "struct Artwork.Purchase[]",
							"name": "",
							"type": "tuple[]"
						}
					],
					"stateMutability": "view",
					"type": "function"
				},
				{
					"inputs": [
						{
							"internalType": "uint256",
							"name": "_purchase_id",
							"type": "uint256"
						}
					],
					"name": "goodsDelivered",
					"outputs": [],
					"stateMutability": "payable",
					"type": "function"
				},
				{
					"inputs": [
						{
							"internalType": "uint256",
							"name": "art_id",
							"type": "uint256"
						}
					],
					"name": "issueCertificate",
					"outputs": [
						{
							"internalType": "bool",
							"name": "",
							"type": "bool"
						}
					],
					"stateMutability": "nonpayable",
					"type": "function"
				},
				{
					"inputs": [
						{
							"internalType": "uint256",
							"name": "",
							"type": "uint256"
						}
					],
					"name": "purchases",
					"outputs": [
						{
							"internalType": "uint256",
							"name": "id",
							"type": "uint256"
						},
						{
							"internalType": "uint256",
							"name": "artId",
							"type": "uint256"
						},
						{
							"internalType": "address",
							"name": "buyer",
							"type": "address"
						},
						{
							"internalType": "address",
							"name": "seller",
							"type": "address"
						},
						{
							"internalType": "uint256",
							"name": "amount",
							"type": "uint256"
						},
						{
							"internalType": "uint256",
							"name": "total_amount",
							"type": "uint256"
						},
						{
							"internalType": "uint256",
							"name": "amounts_paid",
							"type": "uint256"
						},
						{
							"internalType": "uint256",
							"name": "amounts_remaining",
							"type": "uint256"
						},
						{
							"internalType": "string",
							"name": "delivery_state",
							"type": "string"
						},
						{
							"internalType": "bool",
							"name": "delivered_status",
							"type": "bool"
						}
					],
					"stateMutability": "view",
					"type": "function"
				},
				{
					"inputs": [
						{
							"internalType": "uint256",
							"name": "purchase_id",
							"type": "uint256"
						}
					],
					"name": "startDelivery",
					"outputs": [
						{
							"internalType": "string",
							"name": "",
							"type": "string"
						}
					],
					"stateMutability": "nonpayable",
					"type": "function"
				},
				{
					"inputs": [
						{
							"internalType": "uint256",
							"name": "art_id",
							"type": "uint256"
						},
						{
							"internalType": "uint256",
							"name": "_new_quantity",
							"type": "uint256"
						}
					],
					"name": "updateQuantity",
					"outputs": [
						{
							"internalType": "uint256",
							"name": "",
							"type": "uint256"
						}
					],
					"stateMutability": "nonpayable",
					"type": "function"
				}
			],
			"devdoc": {
				"kind": "dev",
				"methods": {},
				"version": 1
			},
			"evm": {
				"assembly": "    /* \"csefest23/Artwork.sol\":67:5503  contract Artwork {... */\n  mstore(0x40, 0x80)\n  callvalue\n  dup1\n  iszero\n  tag_1\n  jumpi\n  0x00\n  dup1\n  revert\ntag_1:\n  pop\n  dataSize(sub_0)\n  dup1\n  dataOffset(sub_0)\n  0x00\n  codecopy\n  0x00\n  return\nstop\n\nsub_0: assembly {\n        /* \"csefest23/Artwork.sol\":67:5503  contract Artwork {... */\n      mstore(0x40, 0x80)\n      jumpi(tag_1, lt(calldatasize, 0x04))\n      shr(0xe0, calldataload(0x00))\n      dup1\n      0x8392fe31\n      gt\n      tag_14\n      jumpi\n      dup1\n      0x8392fe31\n      eq\n      tag_8\n      jumpi\n      dup1\n      0x94ecf65d\n      eq\n      tag_9\n      jumpi\n      dup1\n      0x9b171c1e\n      eq\n      tag_10\n      jumpi\n      dup1\n      0xc47f0f90\n      eq\n      tag_11\n      jumpi\n      dup1\n      0xd80fa7cf\n      eq\n      tag_12\n      jumpi\n      dup1\n      0xe44c3c4b\n      eq\n      tag_13\n      jumpi\n      jump(tag_1)\n    tag_14:\n      dup1\n      0xa71527\n      eq\n      tag_2\n      jumpi\n      dup1\n      0x385fe0a9\n      eq\n      tag_3\n      jumpi\n      dup1\n      0x4b602673\n      eq\n      tag_4\n      jumpi\n      dup1\n      0x79cd4921\n      eq\n      tag_5\n      jumpi\n      dup1\n      0x79f9ec1c\n      eq\n      tag_6\n      jumpi\n      dup1\n      0x82c9804a\n      eq\n      tag_7\n      jumpi\n    tag_1:\n      0x00\n      dup1\n      revert\n        /* \"csefest23/Artwork.sol\":2928:3227  function getArtworks() public view returns (Art[] memory) {... */\n    tag_2:\n      callvalue\n      dup1\n      iszero\n      tag_15\n      jumpi\n      0x00\n      dup1\n      revert\n    tag_15:\n      pop\n      tag_16\n      tag_17\n      jump\t// in\n    tag_16:\n      mload(0x40)\n      tag_18\n      swap2\n      swap1\n      tag_19\n      jump\t// in\n    tag_18:\n      mload(0x40)\n      dup1\n      swap2\n      sub\n      swap1\n      return\n        /* \"csefest23/Artwork.sol\":1828:2062  function startDelivery(uint256 purchase_id) public returns (string memory) {... */\n    tag_3:\n      callvalue\n      dup1\n      iszero\n      tag_20\n      jumpi\n      0x00\n      dup1\n      revert\n    tag_20:\n      pop\n      tag_21\n      0x04\n      dup1\n      calldatasize\n      sub\n      dup2\n      add\n      swap1\n      tag_22\n      swap2\n      swap1\n      tag_23\n      jump\t// in\n    tag_22:\n      tag_24\n      jump\t// in\n    tag_21:\n      mload(0x40)\n      tag_25\n      swap2\n      swap1\n      tag_26\n      jump\t// in\n    tag_25:\n      mload(0x40)\n      dup1\n      swap2\n      sub\n      swap1\n      return\n        /* \"csefest23/Artwork.sol\":787:826  mapping(uint256 => Art) public artworks */\n    tag_4:\n      callvalue\n      dup1\n      iszero\n      tag_27\n      jumpi\n      0x00\n      dup1\n      revert\n    tag_27:\n      pop\n      tag_28\n      0x04\n      dup1\n      calldatasize\n      sub\n      dup2\n      add\n      swap1\n      tag_29\n      swap2\n      swap1\n      tag_23\n      jump\t// in\n    tag_29:\n      tag_30\n      jump\t// in\n    tag_28:\n      mload(0x40)\n      tag_31\n      swap10\n      swap9\n      swap8\n      swap7\n      swap6\n      swap5\n      swap4\n      swap3\n      swap2\n      swap1\n      tag_32\n      jump\t// in\n    tag_31:\n      mload(0x40)\n      dup1\n      swap2\n      sub\n      swap1\n      return\n        /* \"csefest23/Artwork.sol\":1562:1797  function updateQuantity(... */\n    tag_5:\n      callvalue\n      dup1\n      iszero\n      tag_33\n      jumpi\n      0x00\n      dup1\n      revert\n    tag_33:\n      pop\n      tag_34\n      0x04\n      dup1\n      calldatasize\n      sub\n      dup2\n      add\n      swap1\n      tag_35\n      swap2\n      swap1\n      tag_36\n      jump\t// in\n    tag_35:\n      tag_37\n      jump\t// in\n    tag_34:\n      mload(0x40)\n      tag_38\n      swap2\n      swap1\n      tag_39\n      jump\t// in\n    tag_38:\n      mload(0x40)\n      dup1\n      swap2\n      sub\n      swap1\n      return\n        /* \"csefest23/Artwork.sol\":910:1518  function createArt(... */\n    tag_6:\n      callvalue\n      dup1\n      iszero\n      tag_40\n      jumpi\n      0x00\n      dup1\n      revert\n    tag_40:\n      pop\n      tag_41\n      0x04\n      dup1\n      calldatasize\n      sub\n      dup2\n      add\n      swap1\n      tag_42\n      swap2\n      swap1\n      tag_43\n      jump\t// in\n    tag_42:\n      tag_44\n      jump\t// in\n    tag_41:\n      stop\n        /* \"csefest23/Artwork.sol\":2096:2348  function completeDelivery(... */\n    tag_7:\n      callvalue\n      dup1\n      iszero\n      tag_45\n      jumpi\n      0x00\n      dup1\n      revert\n    tag_45:\n      pop\n      tag_46\n      0x04\n      dup1\n      calldatasize\n      sub\n      dup2\n      add\n      swap1\n      tag_47\n      swap2\n      swap1\n      tag_23\n      jump\t// in\n    tag_47:\n      tag_48\n      jump\t// in\n    tag_46:\n      mload(0x40)\n      tag_49\n      swap2\n      swap1\n      tag_26\n      jump\t// in\n    tag_49:\n      mload(0x40)\n      dup1\n      swap2\n      sub\n      swap1\n      return\n        /* \"csefest23/Artwork.sol\":833:878  mapping(uint256 => Purchase) public purchases */\n    tag_8:\n      callvalue\n      dup1\n      iszero\n      tag_50\n      jumpi\n      0x00\n      dup1\n      revert\n    tag_50:\n      pop\n      tag_51\n      0x04\n      dup1\n      calldatasize\n      sub\n      dup2\n      add\n      swap1\n      tag_52\n      swap2\n      swap1\n      tag_23\n      jump\t// in\n    tag_52:\n      tag_53\n      jump\t// in\n    tag_51:\n      mload(0x40)\n      tag_54\n      swap11\n      swap10\n      swap9\n      swap8\n      swap7\n      swap6\n      swap5\n      swap4\n      swap3\n      swap2\n      swap1\n      tag_55\n      jump\t// in\n    tag_54:\n      mload(0x40)\n      dup1\n      swap2\n      sub\n      swap1\n      return\n        /* \"csefest23/Artwork.sol\":4468:5137  function goodsDelivered(uint256 _purchase_id) public payable{... */\n    tag_9:\n      tag_56\n      0x04\n      dup1\n      calldatasize\n      sub\n      dup2\n      add\n      swap1\n      tag_57\n      swap2\n      swap1\n      tag_23\n      jump\t// in\n    tag_57:\n      tag_58\n      jump\t// in\n    tag_56:\n      stop\n        /* \"csefest23/Artwork.sol\":2383:2536  function getArtQuantity(uint256 art_id) public view returns (uint256) {... */\n    tag_10:\n      callvalue\n      dup1\n      iszero\n      tag_59\n      jumpi\n      0x00\n      dup1\n      revert\n    tag_59:\n      pop\n      tag_60\n      0x04\n      dup1\n      calldatasize\n      sub\n      dup2\n      add\n      swap1\n      tag_61\n      swap2\n      swap1\n      tag_23\n      jump\t// in\n    tag_61:\n      tag_62\n      jump\t// in\n    tag_60:\n      mload(0x40)\n      tag_63\n      swap2\n      swap1\n      tag_39\n      jump\t// in\n    tag_63:\n      mload(0x40)\n      dup1\n      swap2\n      sub\n      swap1\n      return\n        /* \"csefest23/Artwork.sol\":5172:5500  function getPurchases() public view returns (Purchase[] memory) {... */\n    tag_11:\n      callvalue\n      dup1\n      iszero\n      tag_64\n      jumpi\n      0x00\n      dup1\n      revert\n    tag_64:\n      pop\n      tag_65\n      tag_66\n      jump\t// in\n    tag_65:\n      mload(0x40)\n      tag_67\n      swap2\n      swap1\n      tag_68\n      jump\t// in\n    tag_67:\n      mload(0x40)\n      dup1\n      swap2\n      sub\n      swap1\n      return\n        /* \"csefest23/Artwork.sol\":2563:2891  function issueCertificate(uint256 art_id) public returns (bool) {... */\n    tag_12:\n      callvalue\n      dup1\n      iszero\n      tag_69\n      jumpi\n      0x00\n      dup1\n      revert\n    tag_69:\n      pop\n      tag_70\n      0x04\n      dup1\n      calldatasize\n      sub\n      dup2\n      add\n      swap1\n      tag_71\n      swap2\n      swap1\n      tag_23\n      jump\t// in\n    tag_71:\n      tag_72\n      jump\t// in\n    tag_70:\n      mload(0x40)\n      tag_73\n      swap2\n      swap1\n      tag_74\n      jump\t// in\n    tag_73:\n      mload(0x40)\n      dup1\n      swap2\n      sub\n      swap1\n      return\n        /* \"csefest23/Artwork.sol\":3446:4460  function buyArtwork(uint256 art_id) public payable {... */\n    tag_13:\n      tag_75\n      0x04\n      dup1\n      calldatasize\n      sub\n      dup2\n      add\n      swap1\n      tag_76\n      swap2\n      swap1\n      tag_23\n      jump\t// in\n    tag_76:\n      tag_77\n      jump\t// in\n    tag_75:\n      stop\n        /* \"csefest23/Artwork.sol\":2928:3227  function getArtworks() public view returns (Art[] memory) {... */\n    tag_17:\n        /* \"csefest23/Artwork.sol\":2972:2984  Art[] memory */\n      0x60\n        /* \"csefest23/Artwork.sol\":2997:3021  Art[] memory allArtworks */\n      0x00\n        /* \"csefest23/Artwork.sol\":3034:3043  art_count */\n      dup1\n      sload\n        /* \"csefest23/Artwork.sol\":3024:3044  new Art[](art_count) */\n      0xffffffffffffffff\n      dup2\n      gt\n      iszero\n      tag_79\n      jumpi\n      tag_80\n      tag_81\n      jump\t// in\n    tag_80:\n    tag_79:\n      mload(0x40)\n      swap1\n      dup1\n      dup3\n      mstore\n      dup1\n      0x20\n      mul\n      0x20\n      add\n      dup3\n      add\n      0x40\n      mstore\n      dup1\n      iszero\n      tag_82\n      jumpi\n      dup2\n      0x20\n      add\n    tag_83:\n      tag_84\n      tag_85\n      jump\t// in\n    tag_84:\n      dup2\n      mstore\n      0x20\n      add\n      swap1\n      0x01\n      swap1\n      sub\n      swap1\n      dup2\n      tag_83\n      jumpi\n      swap1\n      pop\n    tag_82:\n      pop\n        /* \"csefest23/Artwork.sol\":2997:3044  Art[] memory allArtworks = new Art[](art_count) */\n      swap1\n      pop\n        /* \"csefest23/Artwork.sol\":3062:3068  uint i */\n      0x00\n        /* \"csefest23/Artwork.sol\":3057:3189  for (uint i = 0; i < art_count; i++) {... */\n    tag_86:\n        /* \"csefest23/Artwork.sol\":3078:3087  art_count */\n      sload(0x00)\n        /* \"csefest23/Artwork.sol\":3074:3075  i */\n      dup2\n        /* \"csefest23/Artwork.sol\":3074:3087  i < art_count */\n      lt\n        /* \"csefest23/Artwork.sol\":3057:3189  for (uint i = 0; i < art_count; i++) {... */\n      iszero\n      tag_87\n      jumpi\n        /* \"csefest23/Artwork.sol\":3109:3125  Art storage item */\n      0x00\n        /* \"csefest23/Artwork.sol\":3128:3136  artworks */\n      0x02\n        /* \"csefest23/Artwork.sol\":3128:3139  artworks[i] */\n      0x00\n        /* \"csefest23/Artwork.sol\":3137:3138  i */\n      dup4\n        /* \"csefest23/Artwork.sol\":3128:3139  artworks[i] */\n      dup2\n      mstore\n      0x20\n      add\n      swap1\n      dup2\n      mstore\n      0x20\n      add\n      0x00\n      keccak256\n        /* \"csefest23/Artwork.sol\":3109:3139  Art storage item = artworks[i] */\n      swap1\n      pop\n        /* \"csefest23/Artwork.sol\":3173:3177  item */\n      dup1\n        /* \"csefest23/Artwork.sol\":3156:3177  allArtworks[i] = item */\n      mload(0x40)\n      dup1\n      0x0120\n      add\n      0x40\n      mstore\n      swap1\n      dup2\n      0x00\n      dup3\n      add\n      0x00\n      swap1\n      sload\n      swap1\n      0x0100\n      exp\n      swap1\n      div\n      0xffffffffffffffffffffffffffffffffffffffff\n      and\n      0xffffffffffffffffffffffffffffffffffffffff\n      and\n      0xffffffffffffffffffffffffffffffffffffffff\n      and\n      dup2\n      mstore\n      0x20\n      add\n      0x01\n      dup3\n      add\n      dup1\n      sload\n      tag_89\n      swap1\n      tag_90\n      jump\t// in\n    tag_89:\n      dup1\n      0x1f\n      add\n      0x20\n      dup1\n      swap2\n      div\n      mul\n      0x20\n      add\n      mload(0x40)\n      swap1\n      dup2\n      add\n      0x40\n      mstore\n      dup1\n      swap3\n      swap2\n      swap1\n      dup2\n      dup2\n      mstore\n      0x20\n      add\n      dup3\n      dup1\n      sload\n      tag_91\n      swap1\n      tag_90\n      jump\t// in\n    tag_91:\n      dup1\n      iszero\n      tag_92\n      jumpi\n      dup1\n      0x1f\n      lt\n      tag_93\n      jumpi\n      0x0100\n      dup1\n      dup4\n      sload\n      div\n      mul\n      dup4\n      mstore\n      swap2\n      0x20\n      add\n      swap2\n      jump(tag_92)\n    tag_93:\n      dup3\n      add\n      swap2\n      swap1\n      0x00\n      mstore\n      keccak256(0x00, 0x20)\n      swap1\n    tag_94:\n      dup2\n      sload\n      dup2\n      mstore\n      swap1\n      0x01\n      add\n      swap1\n      0x20\n      add\n      dup1\n      dup4\n      gt\n      tag_94\n      jumpi\n      dup3\n      swap1\n      sub\n      0x1f\n      and\n      dup3\n      add\n      swap2\n    tag_92:\n      pop\n      pop\n      pop\n      pop\n      pop\n      dup2\n      mstore\n      0x20\n      add\n      0x02\n      dup3\n      add\n      dup1\n      sload\n      tag_95\n      swap1\n      tag_90\n      jump\t// in\n    tag_95:\n      dup1\n      0x1f\n      add\n      0x20\n      dup1\n      swap2\n      div\n      mul\n      0x20\n      add\n      mload(0x40)\n      swap1\n      dup2\n      add\n      0x40\n      mstore\n      dup1\n      swap3\n      swap2\n      swap1\n      dup2\n      dup2\n      mstore\n      0x20\n      add\n      dup3\n      dup1\n      sload\n      tag_96\n      swap1\n      tag_90\n      jump\t// in\n    tag_96:\n      dup1\n      iszero\n      tag_97\n      jumpi\n      dup1\n      0x1f\n      lt\n      tag_98\n      jumpi\n      0x0100\n      dup1\n      dup4\n      sload\n      div\n      mul\n      dup4\n      mstore\n      swap2\n      0x20\n      add\n      swap2\n      jump(tag_97)\n    tag_98:\n      dup3\n      add\n      swap2\n      swap1\n      0x00\n      mstore\n      keccak256(0x00, 0x20)\n      swap1\n    tag_99:\n      dup2\n      sload\n      dup2\n      mstore\n      swap1\n      0x01\n      add\n      swap1\n      0x20\n      add\n      dup1\n      dup4\n      gt\n      tag_99\n      jumpi\n      dup3\n      swap1\n      sub\n      0x1f\n      and\n      dup3\n      add\n      swap2\n    tag_97:\n      pop\n      pop\n      pop\n      pop\n      pop\n      dup2\n      mstore\n      0x20\n      add\n      0x03\n      dup3\n      add\n      sload\n      dup2\n      mstore\n      0x20\n      add\n      0x04\n      dup3\n      add\n      dup1\n      sload\n      tag_100\n      swap1\n      tag_90\n      jump\t// in\n    tag_100:\n      dup1\n      0x1f\n      add\n      0x20\n      dup1\n      swap2\n      div\n      mul\n      0x20\n      add\n      mload(0x40)\n      swap1\n      dup2\n      add\n      0x40\n      mstore\n      dup1\n      swap3\n      swap2\n      swap1\n      dup2\n      dup2\n      mstore\n      0x20\n      add\n      dup3\n      dup1\n      sload\n      tag_101\n      swap1\n      tag_90\n      jump\t// in\n    tag_101:\n      dup1\n      iszero\n      tag_102\n      jumpi\n      dup1\n      0x1f\n      lt\n      tag_103\n      jumpi\n      0x0100\n      dup1\n      dup4\n      sload\n      div\n      mul\n      dup4\n      mstore\n      swap2\n      0x20\n      add\n      swap2\n      jump(tag_102)\n    tag_103:\n      dup3\n      add\n      swap2\n      swap1\n      0x00\n      mstore\n      keccak256(0x00, 0x20)\n      swap1\n    tag_104:\n      dup2\n      sload\n      dup2\n      mstore\n      swap1\n      0x01\n      add\n      swap1\n      0x20\n      add\n      dup1\n      dup4\n      gt\n      tag_104\n      jumpi\n      dup3\n      swap1\n      sub\n      0x1f\n      and\n      dup3\n      add\n      swap2\n    tag_102:\n      pop\n      pop\n      pop\n      pop\n      pop\n      dup2\n      mstore\n      0x20\n      add\n      0x05\n      dup3\n      add\n      sload\n      dup2\n      mstore\n      0x20\n      add\n      0x06\n      dup3\n      add\n      0x00\n      swap1\n      sload\n      swap1\n      0x0100\n      exp\n      swap1\n      div\n      0xff\n      and\n      iszero\n      iszero\n      iszero\n      iszero\n      dup2\n      mstore\n      0x20\n      add\n      0x07\n      dup3\n      add\n      dup1\n      sload\n      tag_105\n      swap1\n      tag_90\n      jump\t// in\n    tag_105:\n      dup1\n      0x1f\n      add\n      0x20\n      dup1\n      swap2\n      div\n      mul\n      0x20\n      add\n      mload(0x40)\n      swap1\n      dup2\n      add\n      0x40\n      mstore\n      dup1\n      swap3\n      swap2\n      swap1\n      dup2\n      dup2\n      mstore\n      0x20\n      add\n      dup3\n      dup1\n      sload\n      tag_106\n      swap1\n      tag_90\n      jump\t// in\n    tag_106:\n      dup1\n      iszero\n      tag_107\n      jumpi\n      dup1\n      0x1f\n      lt\n      tag_108\n      jumpi\n      0x0100\n      dup1\n      dup4\n      sload\n      div\n      mul\n      dup4\n      mstore\n      swap2\n      0x20\n      add\n      swap2\n      jump(tag_107)\n    tag_108:\n      dup3\n      add\n      swap2\n      swap1\n      0x00\n      mstore\n      keccak256(0x00, 0x20)\n      swap1\n    tag_109:\n      dup2\n      sload\n      dup2\n      mstore\n      swap1\n      0x01\n      add\n      swap1\n      0x20\n      add\n      dup1\n      dup4\n      gt\n      tag_109\n      jumpi\n      dup3\n      swap1\n      sub\n      0x1f\n      and\n      dup3\n      add\n      swap2\n    tag_107:\n      pop\n      pop\n      pop\n      pop\n      pop\n      dup2\n      mstore\n      0x20\n      add\n      0x08\n      dup3\n      add\n      0x00\n      swap1\n      sload\n      swap1\n      0x0100\n      exp\n      swap1\n      div\n      0xffffffffffffffffffffffffffffffffffffffff\n      and\n      0xffffffffffffffffffffffffffffffffffffffff\n      and\n      0xffffffffffffffffffffffffffffffffffffffff\n      and\n      dup2\n      mstore\n      pop\n      pop\n        /* \"csefest23/Artwork.sol\":3156:3167  allArtworks */\n      dup4\n        /* \"csefest23/Artwork.sol\":3168:3169  i */\n      dup4\n        /* \"csefest23/Artwork.sol\":3156:3170  allArtworks[i] */\n      dup2\n      mload\n      dup2\n      lt\n      tag_110\n      jumpi\n      tag_111\n      tag_112\n      jump\t// in\n    tag_111:\n    tag_110:\n      0x20\n      mul\n      0x20\n      add\n      add\n        /* \"csefest23/Artwork.sol\":3156:3177  allArtworks[i] = item */\n      dup2\n      swap1\n      mstore\n      pop\n        /* \"csefest23/Artwork.sol\":3094:3189  {... */\n      pop\n        /* \"csefest23/Artwork.sol\":3089:3092  i++ */\n      dup1\n      dup1\n      0x01\n      add\n      swap2\n      pop\n      pop\n        /* \"csefest23/Artwork.sol\":3057:3189  for (uint i = 0; i < art_count; i++) {... */\n      jump(tag_86)\n    tag_87:\n      pop\n        /* \"csefest23/Artwork.sol\":3208:3219  allArtworks */\n      dup1\n        /* \"csefest23/Artwork.sol\":3201:3219  return allArtworks */\n      swap2\n      pop\n      pop\n        /* \"csefest23/Artwork.sol\":2928:3227  function getArtworks() public view returns (Art[] memory) {... */\n      swap1\n      jump\t// out\n        /* \"csefest23/Artwork.sol\":1828:2062  function startDelivery(uint256 purchase_id) public returns (string memory) {... */\n    tag_24:\n        /* \"csefest23/Artwork.sol\":1888:1901  string memory */\n      0x60\n        /* \"csefest23/Artwork.sol\":1914:1939  Purchase storage purchase */\n      0x00\n        /* \"csefest23/Artwork.sol\":1942:1951  purchases */\n      0x03\n        /* \"csefest23/Artwork.sol\":1942:1964  purchases[purchase_id] */\n      0x00\n        /* \"csefest23/Artwork.sol\":1952:1963  purchase_id */\n      dup5\n        /* \"csefest23/Artwork.sol\":1942:1964  purchases[purchase_id] */\n      dup2\n      mstore\n      0x20\n      add\n      swap1\n      dup2\n      mstore\n      0x20\n      add\n      0x00\n      keccak256\n        /* \"csefest23/Artwork.sol\":1914:1964  Purchase storage purchase = purchases[purchase_id] */\n      swap1\n      pop\n        /* \"csefest23/Artwork.sol\":1975:2013  purchase.delivery_state = \"Dispatched\" */\n      mload(0x40)\n      dup1\n      0x40\n      add\n      0x40\n      mstore\n      dup1\n      0x0a\n      dup2\n      mstore\n      0x20\n      add\n      0x4469737061746368656400000000000000000000000000000000000000000000\n      dup2\n      mstore\n      pop\n        /* \"csefest23/Artwork.sol\":1975:1983  purchase */\n      dup2\n        /* \"csefest23/Artwork.sol\":1975:1998  purchase.delivery_state */\n      0x08\n      add\n        /* \"csefest23/Artwork.sol\":1975:2013  purchase.delivery_state = \"Dispatched\" */\n      swap1\n      dup2\n      tag_114\n      swap2\n      swap1\n      tag_115\n      jump\t// in\n    tag_114:\n      pop\n        /* \"csefest23/Artwork.sol\":2031:2039  purchase */\n      dup1\n        /* \"csefest23/Artwork.sol\":2031:2054  purchase.delivery_state */\n      0x08\n      add\n        /* \"csefest23/Artwork.sol\":2024:2054  return purchase.delivery_state */\n      dup1\n      sload\n      tag_116\n      swap1\n      tag_90\n      jump\t// in\n    tag_116:\n      dup1\n      0x1f\n      add\n      0x20\n      dup1\n      swap2\n      div\n      mul\n      0x20\n      add\n      mload(0x40)\n      swap1\n      dup2\n      add\n      0x40\n      mstore\n      dup1\n      swap3\n      swap2\n      swap1\n      dup2\n      dup2\n      mstore\n      0x20\n      add\n      dup3\n      dup1\n      sload\n      tag_117\n      swap1\n      tag_90\n      jump\t// in\n    tag_117:\n      dup1\n      iszero\n      tag_118\n      jumpi\n      dup1\n      0x1f\n      lt\n      tag_119\n      jumpi\n      0x0100\n      dup1\n      dup4\n      sload\n      div\n      mul\n      dup4\n      mstore\n      swap2\n      0x20\n      add\n      swap2\n      jump(tag_118)\n    tag_119:\n      dup3\n      add\n      swap2\n      swap1\n      0x00\n      mstore\n      keccak256(0x00, 0x20)\n      swap1\n    tag_120:\n      dup2\n      sload\n      dup2\n      mstore\n      swap1\n      0x01\n      add\n      swap1\n      0x20\n      add\n      dup1\n      dup4\n      gt\n      tag_120\n      jumpi\n      dup3\n      swap1\n      sub\n      0x1f\n      and\n      dup3\n      add\n      swap2\n    tag_118:\n      pop\n      pop\n      pop\n      pop\n      pop\n      swap2\n      pop\n      pop\n        /* \"csefest23/Artwork.sol\":1828:2062  function startDelivery(uint256 purchase_id) public returns (string memory) {... */\n      swap2\n      swap1\n      pop\n      jump\t// out\n        /* \"csefest23/Artwork.sol\":787:826  mapping(uint256 => Art) public artworks */\n    tag_30:\n      mstore(0x20, 0x02)\n      dup1\n      0x00\n      mstore\n      keccak256(0x00, 0x40)\n      0x00\n      swap2\n      pop\n      swap1\n      pop\n      dup1\n      0x00\n      add\n      0x00\n      swap1\n      sload\n      swap1\n      0x0100\n      exp\n      swap1\n      div\n      0xffffffffffffffffffffffffffffffffffffffff\n      and\n      swap1\n      dup1\n      0x01\n      add\n      dup1\n      sload\n      tag_121\n      swap1\n      tag_90\n      jump\t// in\n    tag_121:\n      dup1\n      0x1f\n      add\n      0x20\n      dup1\n      swap2\n      div\n      mul\n      0x20\n      add\n      mload(0x40)\n      swap1\n      dup2\n      add\n      0x40\n      mstore\n      dup1\n      swap3\n      swap2\n      swap1\n      dup2\n      dup2\n      mstore\n      0x20\n      add\n      dup3\n      dup1\n      sload\n      tag_122\n      swap1\n      tag_90\n      jump\t// in\n    tag_122:\n      dup1\n      iszero\n      tag_123\n      jumpi\n      dup1\n      0x1f\n      lt\n      tag_124\n      jumpi\n      0x0100\n      dup1\n      dup4\n      sload\n      div\n      mul\n      dup4\n      mstore\n      swap2\n      0x20\n      add\n      swap2\n      jump(tag_123)\n    tag_124:\n      dup3\n      add\n      swap2\n      swap1\n      0x00\n      mstore\n      keccak256(0x00, 0x20)\n      swap1\n    tag_125:\n      dup2\n      sload\n      dup2\n      mstore\n      swap1\n      0x01\n      add\n      swap1\n      0x20\n      add\n      dup1\n      dup4\n      gt\n      tag_125\n      jumpi\n      dup3\n      swap1\n      sub\n      0x1f\n      and\n      dup3\n      add\n      swap2\n    tag_123:\n      pop\n      pop\n      pop\n      pop\n      pop\n      swap1\n      dup1\n      0x02\n      add\n      dup1\n      sload\n      tag_126\n      swap1\n      tag_90\n      jump\t// in\n    tag_126:\n      dup1\n      0x1f\n      add\n      0x20\n      dup1\n      swap2\n      div\n      mul\n      0x20\n      add\n      mload(0x40)\n      swap1\n      dup2\n      add\n      0x40\n      mstore\n      dup1\n      swap3\n      swap2\n      swap1\n      dup2\n      dup2\n      mstore\n      0x20\n      add\n      dup3\n      dup1\n      sload\n      tag_127\n      swap1\n      tag_90\n      jump\t// in\n    tag_127:\n      dup1\n      iszero\n      tag_128\n      jumpi\n      dup1\n      0x1f\n      lt\n      tag_129\n      jumpi\n      0x0100\n      dup1\n      dup4\n      sload\n      div\n      mul\n      dup4\n      mstore\n      swap2\n      0x20\n      add\n      swap2\n      jump(tag_128)\n    tag_129:\n      dup3\n      add\n      swap2\n      swap1\n      0x00\n      mstore\n      keccak256(0x00, 0x20)\n      swap1\n    tag_130:\n      dup2\n      sload\n      dup2\n      mstore\n      swap1\n      0x01\n      add\n      swap1\n      0x20\n      add\n      dup1\n      dup4\n      gt\n      tag_130\n      jumpi\n      dup3\n      swap1\n      sub\n      0x1f\n      and\n      dup3\n      add\n      swap2\n    tag_128:\n      pop\n      pop\n      pop\n      pop\n      pop\n      swap1\n      dup1\n      0x03\n      add\n      sload\n      swap1\n      dup1\n      0x04\n      add\n      dup1\n      sload\n      tag_131\n      swap1\n      tag_90\n      jump\t// in\n    tag_131:\n      dup1\n      0x1f\n      add\n      0x20\n      dup1\n      swap2\n      div\n      mul\n      0x20\n      add\n      mload(0x40)\n      swap1\n      dup2\n      add\n      0x40\n      mstore\n      dup1\n      swap3\n      swap2\n      swap1\n      dup2\n      dup2\n      mstore\n      0x20\n      add\n      dup3\n      dup1\n      sload\n      tag_132\n      swap1\n      tag_90\n      jump\t// in\n    tag_132:\n      dup1\n      iszero\n      tag_133\n      jumpi\n      dup1\n      0x1f\n      lt\n      tag_134\n      jumpi\n      0x0100\n      dup1\n      dup4\n      sload\n      div\n      mul\n      dup4\n      mstore\n      swap2\n      0x20\n      add\n      swap2\n      jump(tag_133)\n    tag_134:\n      dup3\n      add\n      swap2\n      swap1\n      0x00\n      mstore\n      keccak256(0x00, 0x20)\n      swap1\n    tag_135:\n      dup2\n      sload\n      dup2\n      mstore\n      swap1\n      0x01\n      add\n      swap1\n      0x20\n      add\n      dup1\n      dup4\n      gt\n      tag_135\n      jumpi\n      dup3\n      swap1\n      sub\n      0x1f\n      and\n      dup3\n      add\n      swap2\n    tag_133:\n      pop\n      pop\n      pop\n      pop\n      pop\n      swap1\n      dup1\n      0x05\n      add\n      sload\n      swap1\n      dup1\n      0x06\n      add\n      0x00\n      swap1\n      sload\n      swap1\n      0x0100\n      exp\n      swap1\n      div\n      0xff\n      and\n      swap1\n      dup1\n      0x07\n      add\n      dup1\n      sload\n      tag_136\n      swap1\n      tag_90\n      jump\t// in\n    tag_136:\n      dup1\n      0x1f\n      add\n      0x20\n      dup1\n      swap2\n      div\n      mul\n      0x20\n      add\n      mload(0x40)\n      swap1\n      dup2\n      add\n      0x40\n      mstore\n      dup1\n      swap3\n      swap2\n      swap1\n      dup2\n      dup2\n      mstore\n      0x20\n      add\n      dup3\n      dup1\n      sload\n      tag_137\n      swap1\n      tag_90\n      jump\t// in\n    tag_137:\n      dup1\n      iszero\n      tag_138\n      jumpi\n      dup1\n      0x1f\n      lt\n      tag_139\n      jumpi\n      0x0100\n      dup1\n      dup4\n      sload\n      div\n      mul\n      dup4\n      mstore\n      swap2\n      0x20\n      add\n      swap2\n      jump(tag_138)\n    tag_139:\n      dup3\n      add\n      swap2\n      swap1\n      0x00\n      mstore\n      keccak256(0x00, 0x20)\n      swap1\n    tag_140:\n      dup2\n      sload\n      dup2\n      mstore\n      swap1\n      0x01\n      add\n      swap1\n      0x20\n      add\n      dup1\n      dup4\n      gt\n      tag_140\n      jumpi\n      dup3\n      swap1\n      sub\n      0x1f\n      and\n      dup3\n      add\n      swap2\n    tag_138:\n      pop\n      pop\n      pop\n      pop\n      pop\n      swap1\n      dup1\n      0x08\n      add\n      0x00\n      swap1\n      sload\n      swap1\n      0x0100\n      exp\n      swap1\n      div\n      0xffffffffffffffffffffffffffffffffffffffff\n      and\n      swap1\n      pop\n      dup10\n      jump\t// out\n        /* \"csefest23/Artwork.sol\":1562:1797  function updateQuantity(... */\n    tag_37:\n        /* \"csefest23/Artwork.sol\":1666:1673  uint256 */\n      0x00\n        /* \"csefest23/Artwork.sol\":1686:1701  Art storage art */\n      dup1\n        /* \"csefest23/Artwork.sol\":1704:1712  artworks */\n      0x02\n        /* \"csefest23/Artwork.sol\":1704:1720  artworks[art_id] */\n      0x00\n        /* \"csefest23/Artwork.sol\":1713:1719  art_id */\n      dup6\n        /* \"csefest23/Artwork.sol\":1704:1720  artworks[art_id] */\n      dup2\n      mstore\n      0x20\n      add\n      swap1\n      dup2\n      mstore\n      0x20\n      add\n      0x00\n      keccak256\n        /* \"csefest23/Artwork.sol\":1686:1720  Art storage art = artworks[art_id] */\n      swap1\n      pop\n        /* \"csefest23/Artwork.sol\":1746:1759  _new_quantity */\n      dup3\n        /* \"csefest23/Artwork.sol\":1731:1734  art */\n      dup2\n        /* \"csefest23/Artwork.sol\":1731:1743  art.quantity */\n      0x05\n      add\n        /* \"csefest23/Artwork.sol\":1731:1759  art.quantity = _new_quantity */\n      dup2\n      swap1\n      sstore\n      pop\n        /* \"csefest23/Artwork.sol\":1777:1780  art */\n      dup1\n        /* \"csefest23/Artwork.sol\":1777:1789  art.quantity */\n      0x05\n      add\n      sload\n        /* \"csefest23/Artwork.sol\":1770:1789  return art.quantity */\n      swap2\n      pop\n      pop\n        /* \"csefest23/Artwork.sol\":1562:1797  function updateQuantity(... */\n      swap3\n      swap2\n      pop\n      pop\n      jump\t// out\n        /* \"csefest23/Artwork.sol\":910:1518  function createArt(... */\n    tag_44:\n        /* \"csefest23/Artwork.sol\":1142:1157  Art storage art */\n      0x00\n        /* \"csefest23/Artwork.sol\":1160:1168  artworks */\n      0x02\n        /* \"csefest23/Artwork.sol\":1160:1179  artworks[art_count] */\n      0x00\n        /* \"csefest23/Artwork.sol\":1169:1178  art_count */\n      dup1\n      sload\n        /* \"csefest23/Artwork.sol\":1160:1179  artworks[art_count] */\n      dup2\n      mstore\n      0x20\n      add\n      swap1\n      dup2\n      mstore\n      0x20\n      add\n      0x00\n      keccak256\n        /* \"csefest23/Artwork.sol\":1142:1179  Art storage art = artworks[art_count] */\n      swap1\n      pop\n        /* \"csefest23/Artwork.sol\":1202:1208  _owner */\n      dup7\n        /* \"csefest23/Artwork.sol\":1190:1193  art */\n      dup2\n        /* \"csefest23/Artwork.sol\":1190:1199  art.owner */\n      0x00\n      add\n      0x00\n        /* \"csefest23/Artwork.sol\":1190:1208  art.owner = _owner */\n      0x0100\n      exp\n      dup2\n      sload\n      dup2\n      0xffffffffffffffffffffffffffffffffffffffff\n      mul\n      not\n      and\n      swap1\n      dup4\n      0xffffffffffffffffffffffffffffffffffffffff\n      and\n      mul\n      or\n      swap1\n      sstore\n      pop\n        /* \"csefest23/Artwork.sol\":1231:1242  _image_path */\n      dup6\n        /* \"csefest23/Artwork.sol\":1219:1222  art */\n      dup2\n        /* \"csefest23/Artwork.sol\":1219:1228  art.image */\n      0x01\n      add\n        /* \"csefest23/Artwork.sol\":1219:1242  art.image = _image_path */\n      swap1\n      dup2\n      tag_143\n      swap2\n      swap1\n      tag_115\n      jump\t// in\n    tag_143:\n      pop\n        /* \"csefest23/Artwork.sol\":1271:1283  _description */\n      dup5\n        /* \"csefest23/Artwork.sol\":1253:1256  art */\n      dup2\n        /* \"csefest23/Artwork.sol\":1253:1268  art.description */\n      0x02\n      add\n        /* \"csefest23/Artwork.sol\":1253:1283  art.description = _description */\n      swap1\n      dup2\n      tag_144\n      swap2\n      swap1\n      tag_115\n      jump\t// in\n    tag_144:\n      pop\n        /* \"csefest23/Artwork.sol\":1306:1312  _price */\n      dup4\n        /* \"csefest23/Artwork.sol\":1294:1297  art */\n      dup2\n        /* \"csefest23/Artwork.sol\":1294:1303  art.price */\n      0x03\n      add\n        /* \"csefest23/Artwork.sol\":1294:1312  art.price = _price */\n      dup2\n      swap1\n      sstore\n      pop\n        /* \"csefest23/Artwork.sol\":1341:1353  _credentials */\n      dup3\n        /* \"csefest23/Artwork.sol\":1323:1326  art */\n      dup2\n        /* \"csefest23/Artwork.sol\":1323:1338  art.credentials */\n      0x04\n      add\n        /* \"csefest23/Artwork.sol\":1323:1353  art.credentials = _credentials */\n      swap1\n      dup2\n      tag_145\n      swap2\n      swap1\n      tag_115\n      jump\t// in\n    tag_145:\n      pop\n        /* \"csefest23/Artwork.sol\":1379:1388  _quantity */\n      dup2\n        /* \"csefest23/Artwork.sol\":1364:1367  art */\n      dup2\n        /* \"csefest23/Artwork.sol\":1364:1376  art.quantity */\n      0x05\n      add\n        /* \"csefest23/Artwork.sol\":1364:1388  art.quantity = _quantity */\n      dup2\n      swap1\n      sstore\n      pop\n        /* \"csefest23/Artwork.sol\":1416:1421  false */\n      0x00\n        /* \"csefest23/Artwork.sol\":1399:1402  art */\n      dup2\n        /* \"csefest23/Artwork.sol\":1399:1413  art.isVerified */\n      0x06\n      add\n      0x00\n        /* \"csefest23/Artwork.sol\":1399:1421  art.isVerified = false */\n      0x0100\n      exp\n      dup2\n      sload\n      dup2\n      0xff\n      mul\n      not\n      and\n      swap1\n      dup4\n      iszero\n      iszero\n      mul\n      or\n      swap1\n      sstore\n      pop\n        /* \"csefest23/Artwork.sol\":1432:1449  art.tokenUri = \"\" */\n      mload(0x40)\n      dup1\n      0x20\n      add\n      0x40\n      mstore\n      dup1\n      0x00\n      dup2\n      mstore\n      pop\n        /* \"csefest23/Artwork.sol\":1432:1435  art */\n      dup2\n        /* \"csefest23/Artwork.sol\":1432:1444  art.tokenUri */\n      0x07\n      add\n        /* \"csefest23/Artwork.sol\":1432:1449  art.tokenUri = \"\" */\n      swap1\n      dup2\n      tag_146\n      swap2\n      swap1\n      tag_115\n      jump\t// in\n    tag_146:\n      pop\n        /* \"csefest23/Artwork.sol\":1482:1488  _owner */\n      dup7\n        /* \"csefest23/Artwork.sol\":1460:1463  art */\n      dup2\n        /* \"csefest23/Artwork.sol\":1460:1479  art.original_artist */\n      0x08\n      add\n      0x00\n        /* \"csefest23/Artwork.sol\":1460:1488  art.original_artist = _owner */\n      0x0100\n      exp\n      dup2\n      sload\n      dup2\n      0xffffffffffffffffffffffffffffffffffffffff\n      mul\n      not\n      and\n      swap1\n      dup4\n      0xffffffffffffffffffffffffffffffffffffffff\n      and\n      mul\n      or\n      swap1\n      sstore\n      pop\n        /* \"csefest23/Artwork.sol\":1499:1508  art_count */\n      0x00\n      dup1\n        /* \"csefest23/Artwork.sol\":1499:1510  art_count++ */\n      dup2\n      sload\n      dup1\n      swap3\n      swap2\n      swap1\n      tag_147\n      swap1\n      tag_148\n      jump\t// in\n    tag_147:\n      swap2\n      swap1\n      pop\n      sstore\n      pop\n        /* \"csefest23/Artwork.sol\":1131:1518  {... */\n      pop\n        /* \"csefest23/Artwork.sol\":910:1518  function createArt(... */\n      pop\n      pop\n      pop\n      pop\n      pop\n      pop\n      jump\t// out\n        /* \"csefest23/Artwork.sol\":2096:2348  function completeDelivery(... */\n    tag_48:\n        /* \"csefest23/Artwork.sol\":2175:2188  string memory */\n      0x60\n        /* \"csefest23/Artwork.sol\":2201:2226  Purchase storage purchase */\n      0x00\n        /* \"csefest23/Artwork.sol\":2229:2238  purchases */\n      0x03\n        /* \"csefest23/Artwork.sol\":2229:2251  purchases[purchase_id] */\n      0x00\n        /* \"csefest23/Artwork.sol\":2239:2250  purchase_id */\n      dup5\n        /* \"csefest23/Artwork.sol\":2229:2251  purchases[purchase_id] */\n      dup2\n      mstore\n      0x20\n      add\n      swap1\n      dup2\n      mstore\n      0x20\n      add\n      0x00\n      keccak256\n        /* \"csefest23/Artwork.sol\":2201:2251  Purchase storage purchase = purchases[purchase_id] */\n      swap1\n      pop\n        /* \"csefest23/Artwork.sol\":2262:2299  purchase.delivery_state = \"Delivered\" */\n      mload(0x40)\n      dup1\n      0x40\n      add\n      0x40\n      mstore\n      dup1\n      0x09\n      dup2\n      mstore\n      0x20\n      add\n      0x44656c6976657265640000000000000000000000000000000000000000000000\n      dup2\n      mstore\n      pop\n        /* \"csefest23/Artwork.sol\":2262:2270  purchase */\n      dup2\n        /* \"csefest23/Artwork.sol\":2262:2285  purchase.delivery_state */\n      0x08\n      add\n        /* \"csefest23/Artwork.sol\":2262:2299  purchase.delivery_state = \"Delivered\" */\n      swap1\n      dup2\n      tag_150\n      swap2\n      swap1\n      tag_115\n      jump\t// in\n    tag_150:\n      pop\n        /* \"csefest23/Artwork.sol\":2317:2325  purchase */\n      dup1\n        /* \"csefest23/Artwork.sol\":2317:2340  purchase.delivery_state */\n      0x08\n      add\n        /* \"csefest23/Artwork.sol\":2310:2340  return purchase.delivery_state */\n      dup1\n      sload\n      tag_151\n      swap1\n      tag_90\n      jump\t// in\n    tag_151:\n      dup1\n      0x1f\n      add\n      0x20\n      dup1\n      swap2\n      div\n      mul\n      0x20\n      add\n      mload(0x40)\n      swap1\n      dup2\n      add\n      0x40\n      mstore\n      dup1\n      swap3\n      swap2\n      swap1\n      dup2\n      dup2\n      mstore\n      0x20\n      add\n      dup3\n      dup1\n      sload\n      tag_152\n      swap1\n      tag_90\n      jump\t// in\n    tag_152:\n      dup1\n      iszero\n      tag_153\n      jumpi\n      dup1\n      0x1f\n      lt\n      tag_154\n      jumpi\n      0x0100\n      dup1\n      dup4\n      sload\n      div\n      mul\n      dup4\n      mstore\n      swap2\n      0x20\n      add\n      swap2\n      jump(tag_153)\n    tag_154:\n      dup3\n      add\n      swap2\n      swap1\n      0x00\n      mstore\n      keccak256(0x00, 0x20)\n      swap1\n    tag_155:\n      dup2\n      sload\n      dup2\n      mstore\n      swap1\n      0x01\n      add\n      swap1\n      0x20\n      add\n      dup1\n      dup4\n      gt\n      tag_155\n      jumpi\n      dup3\n      swap1\n      sub\n      0x1f\n      and\n      dup3\n      add\n      swap2\n    tag_153:\n      pop\n      pop\n      pop\n      pop\n      pop\n      swap2\n      pop\n      pop\n        /* \"csefest23/Artwork.sol\":2096:2348  function completeDelivery(... */\n      swap2\n      swap1\n      pop\n      jump\t// out\n        /* \"csefest23/Artwork.sol\":833:878  mapping(uint256 => Purchase) public purchases */\n    tag_53:\n      mstore(0x20, 0x03)\n      dup1\n      0x00\n      mstore\n      keccak256(0x00, 0x40)\n      0x00\n      swap2\n      pop\n      swap1\n      pop\n      dup1\n      0x00\n      add\n      sload\n      swap1\n      dup1\n      0x01\n      add\n      sload\n      swap1\n      dup1\n      0x02\n      add\n      0x00\n      swap1\n      sload\n      swap1\n      0x0100\n      exp\n      swap1\n      div\n      0xffffffffffffffffffffffffffffffffffffffff\n      and\n      swap1\n      dup1\n      0x03\n      add\n      0x00\n      swap1\n      sload\n      swap1\n      0x0100\n      exp\n      swap1\n      div\n      0xffffffffffffffffffffffffffffffffffffffff\n      and\n      swap1\n      dup1\n      0x04\n      add\n      sload\n      swap1\n      dup1\n      0x05\n      add\n      sload\n      swap1\n      dup1\n      0x06\n      add\n      sload\n      swap1\n      dup1\n      0x07\n      add\n      sload\n      swap1\n      dup1\n      0x08\n      add\n      dup1\n      sload\n      tag_156\n      swap1\n      tag_90\n      jump\t// in\n    tag_156:\n      dup1\n      0x1f\n      add\n      0x20\n      dup1\n      swap2\n      div\n      mul\n      0x20\n      add\n      mload(0x40)\n      swap1\n      dup2\n      add\n      0x40\n      mstore\n      dup1\n      swap3\n      swap2\n      swap1\n      dup2\n      dup2\n      mstore\n      0x20\n      add\n      dup3\n      dup1\n      sload\n      tag_157\n      swap1\n      tag_90\n      jump\t// in\n    tag_157:\n      dup1\n      iszero\n      tag_158\n      jumpi\n      dup1\n      0x1f\n      lt\n      tag_159\n      jumpi\n      0x0100\n      dup1\n      dup4\n      sload\n      div\n      mul\n      dup4\n      mstore\n      swap2\n      0x20\n      add\n      swap2\n      jump(tag_158)\n    tag_159:\n      dup3\n      add\n      swap2\n      swap1\n      0x00\n      mstore\n      keccak256(0x00, 0x20)\n      swap1\n    tag_160:\n      dup2\n      sload\n      dup2\n      mstore\n      swap1\n      0x01\n      add\n      swap1\n      0x20\n      add\n      dup1\n      dup4\n      gt\n      tag_160\n      jumpi\n      dup3\n      swap1\n      sub\n      0x1f\n      and\n      dup3\n      add\n      swap2\n    tag_158:\n      pop\n      pop\n      pop\n      pop\n      pop\n      swap1\n      dup1\n      0x09\n      add\n      0x00\n      swap1\n      sload\n      swap1\n      0x0100\n      exp\n      swap1\n      div\n      0xff\n      and\n      swap1\n      pop\n      dup11\n      jump\t// out\n        /* \"csefest23/Artwork.sol\":4468:5137  function goodsDelivered(uint256 _purchase_id) public payable{... */\n    tag_58:\n        /* \"csefest23/Artwork.sol\":4539:4564  Purchase storage purchase */\n      0x00\n        /* \"csefest23/Artwork.sol\":4567:4576  purchases */\n      0x03\n        /* \"csefest23/Artwork.sol\":4567:4590  purchases[_purchase_id] */\n      0x00\n        /* \"csefest23/Artwork.sol\":4577:4589  _purchase_id */\n      dup4\n        /* \"csefest23/Artwork.sol\":4567:4590  purchases[_purchase_id] */\n      dup2\n      mstore\n      0x20\n      add\n      swap1\n      dup2\n      mstore\n      0x20\n      add\n      0x00\n      keccak256\n        /* \"csefest23/Artwork.sol\":4539:4590  Purchase storage purchase = purchases[_purchase_id] */\n      swap1\n      pop\n        /* \"csefest23/Artwork.sol\":4629:4633  true */\n      0x01\n        /* \"csefest23/Artwork.sol\":4601:4609  purchase */\n      dup2\n        /* \"csefest23/Artwork.sol\":4601:4626  purchase.delivered_status */\n      0x09\n      add\n      0x00\n        /* \"csefest23/Artwork.sol\":4601:4633  purchase.delivered_status = true */\n      0x0100\n      exp\n      dup2\n      sload\n      dup2\n      0xff\n      mul\n      not\n      and\n      swap1\n      dup4\n      iszero\n      iszero\n      mul\n      or\n      swap1\n      sstore\n      pop\n        /* \"csefest23/Artwork.sol\":4646:4661  Art storage art */\n      0x00\n        /* \"csefest23/Artwork.sol\":4664:4672  artworks */\n      0x02\n        /* \"csefest23/Artwork.sol\":4664:4688  artworks[purchase.artId] */\n      0x00\n        /* \"csefest23/Artwork.sol\":4673:4681  purchase */\n      dup4\n        /* \"csefest23/Artwork.sol\":4673:4687  purchase.artId */\n      0x01\n      add\n      sload\n        /* \"csefest23/Artwork.sol\":4664:4688  artworks[purchase.artId] */\n      dup2\n      mstore\n      0x20\n      add\n      swap1\n      dup2\n      mstore\n      0x20\n      add\n      0x00\n      keccak256\n        /* \"csefest23/Artwork.sol\":4646:4688  Art storage art = artworks[purchase.artId] */\n      swap1\n      pop\n        /* \"csefest23/Artwork.sol\":4701:4715  uint256 amount */\n      0x00\n        /* \"csefest23/Artwork.sol\":4718:4726  purchase */\n      dup3\n        /* \"csefest23/Artwork.sol\":4718:4744  purchase.amounts_remaining */\n      0x07\n      add\n      sload\n        /* \"csefest23/Artwork.sol\":4701:4744  uint256 amount = purchase.amounts_remaining */\n      swap1\n      pop\n        /* \"csefest23/Artwork.sol\":4778:4784  amount */\n      dup1\n        /* \"csefest23/Artwork.sol\":4765:4774  msg.value */\n      callvalue\n        /* \"csefest23/Artwork.sol\":4765:4784  msg.value == amount */\n      eq\n        /* \"csefest23/Artwork.sol\":4757:4813  require(msg.value == amount, \"Incorrect payment amount\") */\n      tag_162\n      jumpi\n      mload(0x40)\n      0x08c379a000000000000000000000000000000000000000000000000000000000\n      dup2\n      mstore\n      0x04\n      add\n      tag_163\n      swap1\n      tag_164\n      jump\t// in\n    tag_163:\n      mload(0x40)\n      dup1\n      swap2\n      sub\n      swap1\n      revert\n    tag_162:\n        /* \"csefest23/Artwork.sol\":4827:4836  bool sent */\n      0x00\n        /* \"csefest23/Artwork.sol\":4850:4853  art */\n      dup3\n        /* \"csefest23/Artwork.sol\":4850:4859  art.owner */\n      0x00\n      add\n      0x00\n      swap1\n      sload\n      swap1\n      0x0100\n      exp\n      swap1\n      div\n      0xffffffffffffffffffffffffffffffffffffffff\n      and\n        /* \"csefest23/Artwork.sol\":4842:4865  payable(art.owner).call */\n      0xffffffffffffffffffffffffffffffffffffffff\n      and\n        /* \"csefest23/Artwork.sol\":4873:4879  amount */\n      dup3\n        /* \"csefest23/Artwork.sol\":4842:4884  payable(art.owner).call{value: amount}(\"\") */\n      mload(0x40)\n      tag_165\n      swap1\n      tag_166\n      jump\t// in\n    tag_165:\n      0x00\n      mload(0x40)\n      dup1\n      dup4\n      sub\n      dup2\n      dup6\n      dup8\n      gas\n      call\n      swap3\n      pop\n      pop\n      pop\n      returndatasize\n      dup1\n      0x00\n      dup2\n      eq\n      tag_169\n      jumpi\n      mload(0x40)\n      swap2\n      pop\n      and(add(returndatasize, 0x3f), not(0x1f))\n      dup3\n      add\n      0x40\n      mstore\n      returndatasize\n      dup3\n      mstore\n      returndatasize\n      0x00\n      0x20\n      dup5\n      add\n      returndatacopy\n      jump(tag_168)\n    tag_169:\n      0x60\n      swap2\n      pop\n    tag_168:\n      pop\n        /* \"csefest23/Artwork.sol\":4826:4884  (bool sent, ) = payable(art.owner).call{value: amount}(\"\") */\n      pop\n      swap1\n      pop\n        /* \"csefest23/Artwork.sol\":4903:4907  sent */\n      dup1\n        /* \"csefest23/Artwork.sol\":4895:4926  require(sent, \"Payment failed\") */\n      tag_170\n      jumpi\n      mload(0x40)\n      0x08c379a000000000000000000000000000000000000000000000000000000000\n      dup2\n      mstore\n      0x04\n      add\n      tag_171\n      swap1\n      tag_172\n      jump\t// in\n    tag_171:\n      mload(0x40)\n      dup1\n      swap2\n      sub\n      swap1\n      revert\n    tag_170:\n        /* \"csefest23/Artwork.sol\":4942:5005  ArtworkPurchased(purchase.artId, msg.sender, art.owner, amount) */\n      0xa27a7e11a23b47207454244ae3eddefdfaf476d024076f73c2d5bb9f36ebe8db\n        /* \"csefest23/Artwork.sol\":4959:4967  purchase */\n      dup5\n        /* \"csefest23/Artwork.sol\":4959:4973  purchase.artId */\n      0x01\n      add\n      sload\n        /* \"csefest23/Artwork.sol\":4975:4985  msg.sender */\n      caller\n        /* \"csefest23/Artwork.sol\":4987:4990  art */\n      dup6\n        /* \"csefest23/Artwork.sol\":4987:4996  art.owner */\n      0x00\n      add\n      0x00\n      swap1\n      sload\n      swap1\n      0x0100\n      exp\n      swap1\n      div\n      0xffffffffffffffffffffffffffffffffffffffff\n      and\n        /* \"csefest23/Artwork.sol\":4998:5004  amount */\n      dup6\n        /* \"csefest23/Artwork.sol\":4942:5005  ArtworkPurchased(purchase.artId, msg.sender, art.owner, amount) */\n      mload(0x40)\n      tag_173\n      swap5\n      swap4\n      swap3\n      swap2\n      swap1\n      tag_174\n      jump\t// in\n    tag_173:\n      mload(0x40)\n      dup1\n      swap2\n      sub\n      swap1\n      log1\n        /* \"csefest23/Artwork.sol\":5028:5038  msg.sender */\n      caller\n        /* \"csefest23/Artwork.sol\":5016:5019  art */\n      dup4\n        /* \"csefest23/Artwork.sol\":5016:5025  art.owner */\n      0x00\n      add\n      0x00\n        /* \"csefest23/Artwork.sol\":5016:5038  art.owner = msg.sender */\n      0x0100\n      exp\n      dup2\n      sload\n      dup2\n      0xffffffffffffffffffffffffffffffffffffffff\n      mul\n      not\n      and\n      swap1\n      dup4\n      0xffffffffffffffffffffffffffffffffffffffff\n      and\n      mul\n      or\n      swap1\n      sstore\n      pop\n        /* \"csefest23/Artwork.sol\":5076:5082  amount */\n      dup2\n        /* \"csefest23/Artwork.sol\":5051:5059  purchase */\n      dup5\n        /* \"csefest23/Artwork.sol\":5051:5072  purchase.amounts_paid */\n      0x06\n      add\n      0x00\n        /* \"csefest23/Artwork.sol\":5051:5082  purchase.amounts_paid += amount */\n      dup3\n      dup3\n      sload\n      tag_175\n      swap2\n      swap1\n      tag_176\n      jump\t// in\n    tag_175:\n      swap3\n      pop\n      pop\n      dup2\n      swap1\n      sstore\n      pop\n        /* \"csefest23/Artwork.sol\":5123:5129  amount */\n      dup2\n        /* \"csefest23/Artwork.sol\":5093:5101  purchase */\n      dup5\n        /* \"csefest23/Artwork.sol\":5093:5119  purchase.amounts_remaining */\n      0x07\n      add\n      0x00\n        /* \"csefest23/Artwork.sol\":5093:5129  purchase.amounts_remaining -= amount */\n      dup3\n      dup3\n      sload\n      tag_177\n      swap2\n      swap1\n      tag_178\n      jump\t// in\n    tag_177:\n      swap3\n      pop\n      pop\n      dup2\n      swap1\n      sstore\n      pop\n        /* \"csefest23/Artwork.sol\":4528:5137  {... */\n      pop\n      pop\n      pop\n      pop\n        /* \"csefest23/Artwork.sol\":4468:5137  function goodsDelivered(uint256 _purchase_id) public payable{... */\n      pop\n      jump\t// out\n        /* \"csefest23/Artwork.sol\":2383:2536  function getArtQuantity(uint256 art_id) public view returns (uint256) {... */\n    tag_62:\n        /* \"csefest23/Artwork.sol\":2444:2451  uint256 */\n      0x00\n        /* \"csefest23/Artwork.sol\":2464:2479  Art storage art */\n      dup1\n        /* \"csefest23/Artwork.sol\":2482:2490  artworks */\n      0x02\n        /* \"csefest23/Artwork.sol\":2482:2498  artworks[art_id] */\n      0x00\n        /* \"csefest23/Artwork.sol\":2491:2497  art_id */\n      dup5\n        /* \"csefest23/Artwork.sol\":2482:2498  artworks[art_id] */\n      dup2\n      mstore\n      0x20\n      add\n      swap1\n      dup2\n      mstore\n      0x20\n      add\n      0x00\n      keccak256\n        /* \"csefest23/Artwork.sol\":2464:2498  Art storage art = artworks[art_id] */\n      swap1\n      pop\n        /* \"csefest23/Artwork.sol\":2516:2519  art */\n      dup1\n        /* \"csefest23/Artwork.sol\":2516:2528  art.quantity */\n      0x05\n      add\n      sload\n        /* \"csefest23/Artwork.sol\":2509:2528  return art.quantity */\n      swap2\n      pop\n      pop\n        /* \"csefest23/Artwork.sol\":2383:2536  function getArtQuantity(uint256 art_id) public view returns (uint256) {... */\n      swap2\n      swap1\n      pop\n      jump\t// out\n        /* \"csefest23/Artwork.sol\":5172:5500  function getPurchases() public view returns (Purchase[] memory) {... */\n    tag_66:\n        /* \"csefest23/Artwork.sol\":5217:5234  Purchase[] memory */\n      0x60\n        /* \"csefest23/Artwork.sol\":5247:5277  Purchase[] memory allPurchases */\n      0x00\n        /* \"csefest23/Artwork.sol\":5295:5309  purchase_count */\n      sload(0x01)\n        /* \"csefest23/Artwork.sol\":5280:5310  new Purchase[](purchase_count) */\n      0xffffffffffffffff\n      dup2\n      gt\n      iszero\n      tag_181\n      jumpi\n      tag_182\n      tag_81\n      jump\t// in\n    tag_182:\n    tag_181:\n      mload(0x40)\n      swap1\n      dup1\n      dup3\n      mstore\n      dup1\n      0x20\n      mul\n      0x20\n      add\n      dup3\n      add\n      0x40\n      mstore\n      dup1\n      iszero\n      tag_183\n      jumpi\n      dup2\n      0x20\n      add\n    tag_184:\n      tag_185\n      tag_186\n      jump\t// in\n    tag_185:\n      dup2\n      mstore\n      0x20\n      add\n      swap1\n      0x01\n      swap1\n      sub\n      swap1\n      dup2\n      tag_184\n      jumpi\n      swap1\n      pop\n    tag_183:\n      pop\n        /* \"csefest23/Artwork.sol\":5247:5310  Purchase[] memory allPurchases = new Purchase[](purchase_count) */\n      swap1\n      pop\n        /* \"csefest23/Artwork.sol\":5326:5332  uint i */\n      0x00\n        /* \"csefest23/Artwork.sol\":5321:5463  for (uint i = 0; i < purchase_count; i++) {... */\n    tag_187:\n        /* \"csefest23/Artwork.sol\":5342:5356  purchase_count */\n      sload(0x01)\n        /* \"csefest23/Artwork.sol\":5338:5339  i */\n      dup2\n        /* \"csefest23/Artwork.sol\":5338:5356  i < purchase_count */\n      lt\n        /* \"csefest23/Artwork.sol\":5321:5463  for (uint i = 0; i < purchase_count; i++) {... */\n      iszero\n      tag_188\n      jumpi\n        /* \"csefest23/Artwork.sol\":5378:5399  Purchase storage item */\n      0x00\n        /* \"csefest23/Artwork.sol\":5402:5411  purchases */\n      0x03\n        /* \"csefest23/Artwork.sol\":5402:5414  purchases[i] */\n      0x00\n        /* \"csefest23/Artwork.sol\":5412:5413  i */\n      dup4\n        /* \"csefest23/Artwork.sol\":5402:5414  purchases[i] */\n      dup2\n      mstore\n      0x20\n      add\n      swap1\n      dup2\n      mstore\n      0x20\n      add\n      0x00\n      keccak256\n        /* \"csefest23/Artwork.sol\":5378:5414  Purchase storage item = purchases[i] */\n      swap1\n      pop\n        /* \"csefest23/Artwork.sol\":5447:5451  item */\n      dup1\n        /* \"csefest23/Artwork.sol\":5429:5451  allPurchases[i] = item */\n      mload(0x40)\n      dup1\n      0x0140\n      add\n      0x40\n      mstore\n      swap1\n      dup2\n      0x00\n      dup3\n      add\n      sload\n      dup2\n      mstore\n      0x20\n      add\n      0x01\n      dup3\n      add\n      sload\n      dup2\n      mstore\n      0x20\n      add\n      0x02\n      dup3\n      add\n      0x00\n      swap1\n      sload\n      swap1\n      0x0100\n      exp\n      swap1\n      div\n      0xffffffffffffffffffffffffffffffffffffffff\n      and\n      0xffffffffffffffffffffffffffffffffffffffff\n      and\n      0xffffffffffffffffffffffffffffffffffffffff\n      and\n      dup2\n      mstore\n      0x20\n      add\n      0x03\n      dup3\n      add\n      0x00\n      swap1\n      sload\n      swap1\n      0x0100\n      exp\n      swap1\n      div\n      0xffffffffffffffffffffffffffffffffffffffff\n      and\n      0xffffffffffffffffffffffffffffffffffffffff\n      and\n      0xffffffffffffffffffffffffffffffffffffffff\n      and\n      dup2\n      mstore\n      0x20\n      add\n      0x04\n      dup3\n      add\n      sload\n      dup2\n      mstore\n      0x20\n      add\n      0x05\n      dup3\n      add\n      sload\n      dup2\n      mstore\n      0x20\n      add\n      0x06\n      dup3\n      add\n      sload\n      dup2\n      mstore\n      0x20\n      add\n      0x07\n      dup3\n      add\n      sload\n      dup2\n      mstore\n      0x20\n      add\n      0x08\n      dup3\n      add\n      dup1\n      sload\n      tag_190\n      swap1\n      tag_90\n      jump\t// in\n    tag_190:\n      dup1\n      0x1f\n      add\n      0x20\n      dup1\n      swap2\n      div\n      mul\n      0x20\n      add\n      mload(0x40)\n      swap1\n      dup2\n      add\n      0x40\n      mstore\n      dup1\n      swap3\n      swap2\n      swap1\n      dup2\n      dup2\n      mstore\n      0x20\n      add\n      dup3\n      dup1\n      sload\n      tag_191\n      swap1\n      tag_90\n      jump\t// in\n    tag_191:\n      dup1\n      iszero\n      tag_192\n      jumpi\n      dup1\n      0x1f\n      lt\n      tag_193\n      jumpi\n      0x0100\n      dup1\n      dup4\n      sload\n      div\n      mul\n      dup4\n      mstore\n      swap2\n      0x20\n      add\n      swap2\n      jump(tag_192)\n    tag_193:\n      dup3\n      add\n      swap2\n      swap1\n      0x00\n      mstore\n      keccak256(0x00, 0x20)\n      swap1\n    tag_194:\n      dup2\n      sload\n      dup2\n      mstore\n      swap1\n      0x01\n      add\n      swap1\n      0x20\n      add\n      dup1\n      dup4\n      gt\n      tag_194\n      jumpi\n      dup3\n      swap1\n      sub\n      0x1f\n      and\n      dup3\n      add\n      swap2\n    tag_192:\n      pop\n      pop\n      pop\n      pop\n      pop\n      dup2\n      mstore\n      0x20\n      add\n      0x09\n      dup3\n      add\n      0x00\n      swap1\n      sload\n      swap1\n      0x0100\n      exp\n      swap1\n      div\n      0xff\n      and\n      iszero\n      iszero\n      iszero\n      iszero\n      dup2\n      mstore\n      pop\n      pop\n        /* \"csefest23/Artwork.sol\":5429:5441  allPurchases */\n      dup4\n        /* \"csefest23/Artwork.sol\":5442:5443  i */\n      dup4\n        /* \"csefest23/Artwork.sol\":5429:5444  allPurchases[i] */\n      dup2\n      mload\n      dup2\n      lt\n      tag_195\n      jumpi\n      tag_196\n      tag_112\n      jump\t// in\n    tag_196:\n    tag_195:\n      0x20\n      mul\n      0x20\n      add\n      add\n        /* \"csefest23/Artwork.sol\":5429:5451  allPurchases[i] = item */\n      dup2\n      swap1\n      mstore\n      pop\n        /* \"csefest23/Artwork.sol\":5363:5463  {... */\n      pop\n        /* \"csefest23/Artwork.sol\":5358:5361  i++ */\n      dup1\n      dup1\n      0x01\n      add\n      swap2\n      pop\n      pop\n        /* \"csefest23/Artwork.sol\":5321:5463  for (uint i = 0; i < purchase_count; i++) {... */\n      jump(tag_187)\n    tag_188:\n      pop\n        /* \"csefest23/Artwork.sol\":5480:5492  allPurchases */\n      dup1\n        /* \"csefest23/Artwork.sol\":5473:5492  return allPurchases */\n      swap2\n      pop\n      pop\n        /* \"csefest23/Artwork.sol\":5172:5500  function getPurchases() public view returns (Purchase[] memory) {... */\n      swap1\n      jump\t// out\n        /* \"csefest23/Artwork.sol\":2563:2891  function issueCertificate(uint256 art_id) public returns (bool) {... */\n    tag_72:\n        /* \"csefest23/Artwork.sol\":2621:2625  bool */\n      0x00\n        /* \"csefest23/Artwork.sol\":2638:2653  Art storage art */\n      dup1\n        /* \"csefest23/Artwork.sol\":2656:2664  artworks */\n      0x02\n        /* \"csefest23/Artwork.sol\":2656:2672  artworks[art_id] */\n      0x00\n        /* \"csefest23/Artwork.sol\":2665:2671  art_id */\n      dup5\n        /* \"csefest23/Artwork.sol\":2656:2672  artworks[art_id] */\n      dup2\n      mstore\n      0x20\n      add\n      swap1\n      dup2\n      mstore\n      0x20\n      add\n      0x00\n      keccak256\n        /* \"csefest23/Artwork.sol\":2638:2672  Art storage art = artworks[art_id] */\n      swap1\n      pop\n        /* \"csefest23/Artwork.sol\":2700:2704  true */\n      0x01\n        /* \"csefest23/Artwork.sol\":2683:2686  art */\n      dup2\n        /* \"csefest23/Artwork.sol\":2683:2697  art.isVerified */\n      0x06\n      add\n      0x00\n        /* \"csefest23/Artwork.sol\":2683:2704  art.isVerified = true */\n      0x0100\n      exp\n      dup2\n      sload\n      dup2\n      0xff\n      mul\n      not\n      and\n      swap1\n      dup4\n      iszero\n      iszero\n      mul\n      or\n      swap1\n      sstore\n      pop\n        /* \"csefest23/Artwork.sol\":2715:2851  art... */\n      mload(0x40)\n      dup1\n      0xa0\n      add\n      0x40\n      mstore\n      dup1\n      0x69\n      dup2\n      mstore\n      0x20\n      add\n      data_e96d3a6979e49746cdacf1c8530bbde7f04d61cdcb7dc51b2048ceaf86509dbd\n      0x69\n      swap2\n      codecopy\n        /* \"csefest23/Artwork.sol\":2715:2718  art */\n      dup2\n        /* \"csefest23/Artwork.sol\":2715:2741  art... */\n      0x07\n      add\n        /* \"csefest23/Artwork.sol\":2715:2851  art... */\n      swap1\n      dup2\n      tag_198\n      swap2\n      swap1\n      tag_115\n      jump\t// in\n    tag_198:\n      pop\n        /* \"csefest23/Artwork.sol\":2869:2872  art */\n      dup1\n        /* \"csefest23/Artwork.sol\":2869:2883  art.isVerified */\n      0x06\n      add\n      0x00\n      swap1\n      sload\n      swap1\n      0x0100\n      exp\n      swap1\n      div\n      0xff\n      and\n        /* \"csefest23/Artwork.sol\":2862:2883  return art.isVerified */\n      swap2\n      pop\n      pop\n        /* \"csefest23/Artwork.sol\":2563:2891  function issueCertificate(uint256 art_id) public returns (bool) {... */\n      swap2\n      swap1\n      pop\n      jump\t// out\n        /* \"csefest23/Artwork.sol\":3446:4460  function buyArtwork(uint256 art_id) public payable {... */\n    tag_77:\n        /* \"csefest23/Artwork.sol\":3508:3523  Art storage art */\n      0x00\n        /* \"csefest23/Artwork.sol\":3526:3534  artworks */\n      0x02\n        /* \"csefest23/Artwork.sol\":3526:3542  artworks[art_id] */\n      0x00\n        /* \"csefest23/Artwork.sol\":3535:3541  art_id */\n      dup4\n        /* \"csefest23/Artwork.sol\":3526:3542  artworks[art_id] */\n      dup2\n      mstore\n      0x20\n      add\n      swap1\n      dup2\n      mstore\n      0x20\n      add\n      0x00\n      keccak256\n        /* \"csefest23/Artwork.sol\":3508:3542  Art storage art = artworks[art_id] */\n      swap1\n      pop\n        /* \"csefest23/Artwork.sol\":3578:3579  0 */\n      0x00\n        /* \"csefest23/Artwork.sol\":3563:3566  art */\n      dup2\n        /* \"csefest23/Artwork.sol\":3563:3575  art.quantity */\n      0x05\n      add\n      sload\n        /* \"csefest23/Artwork.sol\":3563:3579  art.quantity > 0 */\n      gt\n        /* \"csefest23/Artwork.sol\":3555:3607  require(art.quantity > 0, \"Artwork is out of stock\") */\n      tag_200\n      jumpi\n      mload(0x40)\n      0x08c379a000000000000000000000000000000000000000000000000000000000\n      dup2\n      mstore\n      0x04\n      add\n      tag_201\n      swap1\n      tag_202\n      jump\t// in\n    tag_201:\n      mload(0x40)\n      dup1\n      swap2\n      sub\n      swap1\n      revert\n    tag_200:\n        /* \"csefest23/Artwork.sol\":3620:3634  uint256 amount */\n      0x00\n        /* \"csefest23/Artwork.sol\":3654:3657  100 */\n      0x64\n        /* \"csefest23/Artwork.sol\":3643:3646  art */\n      dup3\n        /* \"csefest23/Artwork.sol\":3643:3652  art.price */\n      0x03\n      add\n      sload\n        /* \"csefest23/Artwork.sol\":3638:3640  10 */\n      0x0a\n        /* \"csefest23/Artwork.sol\":3638:3652  10 * art.price */\n      tag_203\n      swap2\n      swap1\n      tag_204\n      jump\t// in\n    tag_203:\n        /* \"csefest23/Artwork.sol\":3637:3657  (10 * art.price)/100 */\n      tag_205\n      swap2\n      swap1\n      tag_206\n      jump\t// in\n    tag_205:\n        /* \"csefest23/Artwork.sol\":3620:3657  uint256 amount = (10 * art.price)/100 */\n      swap1\n      pop\n        /* \"csefest23/Artwork.sol\":3691:3697  amount */\n      dup1\n        /* \"csefest23/Artwork.sol\":3678:3687  msg.value */\n      callvalue\n        /* \"csefest23/Artwork.sol\":3678:3697  msg.value == amount */\n      eq\n        /* \"csefest23/Artwork.sol\":3670:3726  require(msg.value == amount, \"Incorrect payment amount\") */\n      tag_207\n      jumpi\n      mload(0x40)\n      0x08c379a000000000000000000000000000000000000000000000000000000000\n      dup2\n      mstore\n      0x04\n      add\n      tag_208\n      swap1\n      tag_164\n      jump\t// in\n    tag_208:\n      mload(0x40)\n      dup1\n      swap2\n      sub\n      swap1\n      revert\n    tag_207:\n        /* \"csefest23/Artwork.sol\":3740:3749  bool sent */\n      0x00\n        /* \"csefest23/Artwork.sol\":3763:3766  art */\n      dup3\n        /* \"csefest23/Artwork.sol\":3763:3772  art.owner */\n      0x00\n      add\n      0x00\n      swap1\n      sload\n      swap1\n      0x0100\n      exp\n      swap1\n      div\n      0xffffffffffffffffffffffffffffffffffffffff\n      and\n        /* \"csefest23/Artwork.sol\":3755:3778  payable(art.owner).call */\n      0xffffffffffffffffffffffffffffffffffffffff\n      and\n        /* \"csefest23/Artwork.sol\":3786:3792  amount */\n      dup3\n        /* \"csefest23/Artwork.sol\":3755:3797  payable(art.owner).call{value: amount}(\"\") */\n      mload(0x40)\n      tag_209\n      swap1\n      tag_166\n      jump\t// in\n    tag_209:\n      0x00\n      mload(0x40)\n      dup1\n      dup4\n      sub\n      dup2\n      dup6\n      dup8\n      gas\n      call\n      swap3\n      pop\n      pop\n      pop\n      returndatasize\n      dup1\n      0x00\n      dup2\n      eq\n      tag_212\n      jumpi\n      mload(0x40)\n      swap2\n      pop\n      and(add(returndatasize, 0x3f), not(0x1f))\n      dup3\n      add\n      0x40\n      mstore\n      returndatasize\n      dup3\n      mstore\n      returndatasize\n      0x00\n      0x20\n      dup5\n      add\n      returndatacopy\n      jump(tag_211)\n    tag_212:\n      0x60\n      swap2\n      pop\n    tag_211:\n      pop\n        /* \"csefest23/Artwork.sol\":3739:3797  (bool sent, ) = payable(art.owner).call{value: amount}(\"\") */\n      pop\n      swap1\n      pop\n        /* \"csefest23/Artwork.sol\":3816:3820  sent */\n      dup1\n        /* \"csefest23/Artwork.sol\":3808:3839  require(sent, \"Payment failed\") */\n      tag_213\n      jumpi\n      mload(0x40)\n      0x08c379a000000000000000000000000000000000000000000000000000000000\n      dup2\n      mstore\n      0x04\n      add\n      tag_214\n      swap1\n      tag_172\n      jump\t// in\n    tag_214:\n      mload(0x40)\n      dup1\n      swap2\n      sub\n      swap1\n      revert\n    tag_213:\n        /* \"csefest23/Artwork.sol\":3852:3855  art */\n      dup3\n        /* \"csefest23/Artwork.sol\":3852:3864  art.quantity */\n      0x05\n      add\n      0x00\n        /* \"csefest23/Artwork.sol\":3852:3866  art.quantity-- */\n      dup2\n      sload\n      dup1\n      swap3\n      swap2\n      swap1\n      tag_215\n      swap1\n      tag_216\n      jump\t// in\n    tag_215:\n      swap2\n      swap1\n      pop\n      sstore\n      pop\n        /* \"csefest23/Artwork.sol\":3879:3904  Purchase storage purchase */\n      0x00\n        /* \"csefest23/Artwork.sol\":3907:3916  purchases */\n      0x03\n        /* \"csefest23/Artwork.sol\":3907:3932  purchases[purchase_count] */\n      0x00\n        /* \"csefest23/Artwork.sol\":3917:3931  purchase_count */\n      sload(0x01)\n        /* \"csefest23/Artwork.sol\":3907:3932  purchases[purchase_count] */\n      dup2\n      mstore\n      0x20\n      add\n      swap1\n      dup2\n      mstore\n      0x20\n      add\n      0x00\n      keccak256\n        /* \"csefest23/Artwork.sol\":3879:3932  Purchase storage purchase = purchases[purchase_count] */\n      swap1\n      pop\n        /* \"csefest23/Artwork.sol\":3957:3971  purchase_count */\n      sload(0x01)\n        /* \"csefest23/Artwork.sol\":3943:3951  purchase */\n      dup2\n        /* \"csefest23/Artwork.sol\":3943:3954  purchase.id */\n      0x00\n      add\n        /* \"csefest23/Artwork.sol\":3943:3971  purchase.id = purchase_count */\n      dup2\n      swap1\n      sstore\n      pop\n        /* \"csefest23/Artwork.sol\":3999:4005  art_id */\n      dup5\n        /* \"csefest23/Artwork.sol\":3982:3990  purchase */\n      dup2\n        /* \"csefest23/Artwork.sol\":3982:3996  purchase.artId */\n      0x01\n      add\n        /* \"csefest23/Artwork.sol\":3982:4005  purchase.artId = art_id */\n      dup2\n      swap1\n      sstore\n      pop\n        /* \"csefest23/Artwork.sol\":4033:4043  msg.sender */\n      caller\n        /* \"csefest23/Artwork.sol\":4016:4024  purchase */\n      dup2\n        /* \"csefest23/Artwork.sol\":4016:4030  purchase.buyer */\n      0x02\n      add\n      0x00\n        /* \"csefest23/Artwork.sol\":4016:4043  purchase.buyer = msg.sender */\n      0x0100\n      exp\n      dup2\n      sload\n      dup2\n      0xffffffffffffffffffffffffffffffffffffffff\n      mul\n      not\n      and\n      swap1\n      dup4\n      0xffffffffffffffffffffffffffffffffffffffff\n      and\n      mul\n      or\n      swap1\n      sstore\n      pop\n        /* \"csefest23/Artwork.sol\":4072:4075  art */\n      dup4\n        /* \"csefest23/Artwork.sol\":4072:4081  art.owner */\n      0x00\n      add\n      0x00\n      swap1\n      sload\n      swap1\n      0x0100\n      exp\n      swap1\n      div\n      0xffffffffffffffffffffffffffffffffffffffff\n      and\n        /* \"csefest23/Artwork.sol\":4054:4062  purchase */\n      dup2\n        /* \"csefest23/Artwork.sol\":4054:4069  purchase.seller */\n      0x03\n      add\n      0x00\n        /* \"csefest23/Artwork.sol\":4054:4081  purchase.seller = art.owner */\n      0x0100\n      exp\n      dup2\n      sload\n      dup2\n      0xffffffffffffffffffffffffffffffffffffffff\n      mul\n      not\n      and\n      swap1\n      dup4\n      0xffffffffffffffffffffffffffffffffffffffff\n      and\n      mul\n      or\n      swap1\n      sstore\n      pop\n        /* \"csefest23/Artwork.sol\":4110:4116  amount */\n      dup3\n        /* \"csefest23/Artwork.sol\":4092:4100  purchase */\n      dup2\n        /* \"csefest23/Artwork.sol\":4092:4107  purchase.amount */\n      0x04\n      add\n        /* \"csefest23/Artwork.sol\":4092:4116  purchase.amount = amount */\n      dup2\n      swap1\n      sstore\n      pop\n        /* \"csefest23/Artwork.sol\":4151:4154  art */\n      dup4\n        /* \"csefest23/Artwork.sol\":4151:4160  art.price */\n      0x03\n      add\n      sload\n        /* \"csefest23/Artwork.sol\":4127:4135  purchase */\n      dup2\n        /* \"csefest23/Artwork.sol\":4127:4148  purchase.total_amount */\n      0x05\n      add\n        /* \"csefest23/Artwork.sol\":4127:4160  purchase.total_amount = art.price */\n      dup2\n      swap1\n      sstore\n      pop\n        /* \"csefest23/Artwork.sol\":4195:4201  amount */\n      dup3\n        /* \"csefest23/Artwork.sol\":4171:4179  purchase */\n      dup2\n        /* \"csefest23/Artwork.sol\":4171:4192  purchase.amounts_paid */\n      0x06\n      add\n        /* \"csefest23/Artwork.sol\":4171:4201  purchase.amounts_paid = amount */\n      dup2\n      swap1\n      sstore\n      pop\n        /* \"csefest23/Artwork.sol\":4253:4259  amount */\n      dup3\n        /* \"csefest23/Artwork.sol\":4241:4244  art */\n      dup5\n        /* \"csefest23/Artwork.sol\":4241:4250  art.price */\n      0x03\n      add\n      sload\n        /* \"csefest23/Artwork.sol\":4241:4259  art.price - amount */\n      tag_217\n      swap2\n      swap1\n      tag_178\n      jump\t// in\n    tag_217:\n        /* \"csefest23/Artwork.sol\":4212:4220  purchase */\n      dup2\n        /* \"csefest23/Artwork.sol\":4212:4238  purchase.amounts_remaining */\n      0x07\n      add\n        /* \"csefest23/Artwork.sol\":4212:4259  purchase.amounts_remaining = art.price - amount */\n      dup2\n      swap1\n      sstore\n      pop\n        /* \"csefest23/Artwork.sol\":4270:4310  purchase.delivery_state = \"in warehouse\" */\n      mload(0x40)\n      dup1\n      0x40\n      add\n      0x40\n      mstore\n      dup1\n      0x0c\n      dup2\n      mstore\n      0x20\n      add\n      0x696e2077617265686f7573650000000000000000000000000000000000000000\n      dup2\n      mstore\n      pop\n        /* \"csefest23/Artwork.sol\":4270:4278  purchase */\n      dup2\n        /* \"csefest23/Artwork.sol\":4270:4293  purchase.delivery_state */\n      0x08\n      add\n        /* \"csefest23/Artwork.sol\":4270:4310  purchase.delivery_state = \"in warehouse\" */\n      swap1\n      dup2\n      tag_218\n      swap2\n      swap1\n      tag_115\n      jump\t// in\n    tag_218:\n      pop\n        /* \"csefest23/Artwork.sol\":4349:4354  false */\n      0x00\n        /* \"csefest23/Artwork.sol\":4321:4329  purchase */\n      dup2\n        /* \"csefest23/Artwork.sol\":4321:4346  purchase.delivered_status */\n      0x09\n      add\n      0x00\n        /* \"csefest23/Artwork.sol\":4321:4354  purchase.delivered_status = false */\n      0x0100\n      exp\n      dup2\n      sload\n      dup2\n      0xff\n      mul\n      not\n      and\n      swap1\n      dup4\n      iszero\n      iszero\n      mul\n      or\n      swap1\n      sstore\n      pop\n        /* \"csefest23/Artwork.sol\":4365:4379  purchase_count */\n      0x01\n      0x00\n        /* \"csefest23/Artwork.sol\":4365:4381  purchase_count++ */\n      dup2\n      sload\n      dup1\n      swap3\n      swap2\n      swap1\n      tag_219\n      swap1\n      tag_148\n      jump\t// in\n    tag_219:\n      swap2\n      swap1\n      pop\n      sstore\n      pop\n        /* \"csefest23/Artwork.sol\":4397:4452  ArtworkPurchased(art_id, msg.sender, art.owner, amount) */\n      0xa27a7e11a23b47207454244ae3eddefdfaf476d024076f73c2d5bb9f36ebe8db\n        /* \"csefest23/Artwork.sol\":4414:4420  art_id */\n      dup6\n        /* \"csefest23/Artwork.sol\":4422:4432  msg.sender */\n      caller\n        /* \"csefest23/Artwork.sol\":4434:4437  art */\n      dup7\n        /* \"csefest23/Artwork.sol\":4434:4443  art.owner */\n      0x00\n      add\n      0x00\n      swap1\n      sload\n      swap1\n      0x0100\n      exp\n      swap1\n      div\n      0xffffffffffffffffffffffffffffffffffffffff\n      and\n        /* \"csefest23/Artwork.sol\":4445:4451  amount */\n      dup7\n        /* \"csefest23/Artwork.sol\":4397:4452  ArtworkPurchased(art_id, msg.sender, art.owner, amount) */\n      mload(0x40)\n      tag_220\n      swap5\n      swap4\n      swap3\n      swap2\n      swap1\n      tag_174\n      jump\t// in\n    tag_220:\n      mload(0x40)\n      dup1\n      swap2\n      sub\n      swap1\n      log1\n        /* \"csefest23/Artwork.sol\":3497:4460  {... */\n      pop\n      pop\n      pop\n      pop\n        /* \"csefest23/Artwork.sol\":3446:4460  function buyArtwork(uint256 art_id) public payable {... */\n      pop\n      jump\t// out\n    tag_85:\n      mload(0x40)\n      dup1\n      0x0120\n      add\n      0x40\n      mstore\n      dup1\n      and(0xffffffffffffffffffffffffffffffffffffffff, 0x00)\n      dup2\n      mstore\n      0x20\n      add\n      0x60\n      dup2\n      mstore\n      0x20\n      add\n      0x60\n      dup2\n      mstore\n      0x20\n      add\n      0x00\n      dup2\n      mstore\n      0x20\n      add\n      0x60\n      dup2\n      mstore\n      0x20\n      add\n      0x00\n      dup2\n      mstore\n      0x20\n      add\n      iszero(iszero(0x00))\n      dup2\n      mstore\n      0x20\n      add\n      0x60\n      dup2\n      mstore\n      0x20\n      add\n      and(0xffffffffffffffffffffffffffffffffffffffff, 0x00)\n      dup2\n      mstore\n      pop\n      swap1\n      jump\t// out\n    tag_186:\n      mload(0x40)\n      dup1\n      0x0140\n      add\n      0x40\n      mstore\n      dup1\n      0x00\n      dup2\n      mstore\n      0x20\n      add\n      0x00\n      dup2\n      mstore\n      0x20\n      add\n      and(0xffffffffffffffffffffffffffffffffffffffff, 0x00)\n      dup2\n      mstore\n      0x20\n      add\n      and(0xffffffffffffffffffffffffffffffffffffffff, 0x00)\n      dup2\n      mstore\n      0x20\n      add\n      0x00\n      dup2\n      mstore\n      0x20\n      add\n      0x00\n      dup2\n      mstore\n      0x20\n      add\n      0x00\n      dup2\n      mstore\n      0x20\n      add\n      0x00\n      dup2\n      mstore\n      0x20\n      add\n      0x60\n      dup2\n      mstore\n      0x20\n      add\n      iszero(iszero(0x00))\n      dup2\n      mstore\n      pop\n      swap1\n      jump\t// out\n        /* \"#utility.yul\":7:140   */\n    tag_221:\n        /* \"#utility.yul\":93:99   */\n      0x00\n        /* \"#utility.yul\":127:132   */\n      dup2\n        /* \"#utility.yul\":121:133   */\n      mload\n        /* \"#utility.yul\":111:133   */\n      swap1\n      pop\n        /* \"#utility.yul\":7:140   */\n      swap2\n      swap1\n      pop\n      jump\t// out\n        /* \"#utility.yul\":146:349   */\n    tag_222:\n        /* \"#utility.yul\":264:275   */\n      0x00\n        /* \"#utility.yul\":298:304   */\n      dup3\n        /* \"#utility.yul\":293:296   */\n      dup3\n        /* \"#utility.yul\":286:305   */\n      mstore\n        /* \"#utility.yul\":338:342   */\n      0x20\n        /* \"#utility.yul\":333:336   */\n      dup3\n        /* \"#utility.yul\":329:343   */\n      add\n        /* \"#utility.yul\":314:343   */\n      swap1\n      pop\n        /* \"#utility.yul\":146:349   */\n      swap3\n      swap2\n      pop\n      pop\n      jump\t// out\n        /* \"#utility.yul\":355:506   */\n    tag_223:\n        /* \"#utility.yul\":441:445   */\n      0x00\n        /* \"#utility.yul\":464:467   */\n      dup2\n        /* \"#utility.yul\":456:467   */\n      swap1\n      pop\n        /* \"#utility.yul\":494:498   */\n      0x20\n        /* \"#utility.yul\":489:492   */\n      dup3\n        /* \"#utility.yul\":485:499   */\n      add\n        /* \"#utility.yul\":477:499   */\n      swap1\n      pop\n        /* \"#utility.yul\":355:506   */\n      swap2\n      swap1\n      pop\n      jump\t// out\n        /* \"#utility.yul\":512:638   */\n    tag_224:\n        /* \"#utility.yul\":549:556   */\n      0x00\n        /* \"#utility.yul\":589:631   */\n      0xffffffffffffffffffffffffffffffffffffffff\n        /* \"#utility.yul\":582:587   */\n      dup3\n        /* \"#utility.yul\":578:632   */\n      and\n        /* \"#utility.yul\":567:632   */\n      swap1\n      pop\n        /* \"#utility.yul\":512:638   */\n      swap2\n      swap1\n      pop\n      jump\t// out\n        /* \"#utility.yul\":644:740   */\n    tag_225:\n        /* \"#utility.yul\":681:688   */\n      0x00\n        /* \"#utility.yul\":710:734   */\n      tag_300\n        /* \"#utility.yul\":728:733   */\n      dup3\n        /* \"#utility.yul\":710:734   */\n      tag_224\n      jump\t// in\n    tag_300:\n        /* \"#utility.yul\":699:734   */\n      swap1\n      pop\n        /* \"#utility.yul\":644:740   */\n      swap2\n      swap1\n      pop\n      jump\t// out\n        /* \"#utility.yul\":746:854   */\n    tag_226:\n        /* \"#utility.yul\":823:847   */\n      tag_302\n        /* \"#utility.yul\":841:846   */\n      dup2\n        /* \"#utility.yul\":823:847   */\n      tag_225\n      jump\t// in\n    tag_302:\n        /* \"#utility.yul\":818:821   */\n      dup3\n        /* \"#utility.yul\":811:848   */\n      mstore\n        /* \"#utility.yul\":746:854   */\n      pop\n      pop\n      jump\t// out\n        /* \"#utility.yul\":860:959   */\n    tag_227:\n        /* \"#utility.yul\":912:918   */\n      0x00\n        /* \"#utility.yul\":946:951   */\n      dup2\n        /* \"#utility.yul\":940:952   */\n      mload\n        /* \"#utility.yul\":930:952   */\n      swap1\n      pop\n        /* \"#utility.yul\":860:959   */\n      swap2\n      swap1\n      pop\n      jump\t// out\n        /* \"#utility.yul\":965:1124   */\n    tag_228:\n        /* \"#utility.yul\":1039:1050   */\n      0x00\n        /* \"#utility.yul\":1073:1079   */\n      dup3\n        /* \"#utility.yul\":1068:1071   */\n      dup3\n        /* \"#utility.yul\":1061:1080   */\n      mstore\n        /* \"#utility.yul\":1113:1117   */\n      0x20\n        /* \"#utility.yul\":1108:1111   */\n      dup3\n        /* \"#utility.yul\":1104:1118   */\n      add\n        /* \"#utility.yul\":1089:1118   */\n      swap1\n      pop\n        /* \"#utility.yul\":965:1124   */\n      swap3\n      swap2\n      pop\n      pop\n      jump\t// out\n        /* \"#utility.yul\":1130:1269   */\n    tag_229:\n        /* \"#utility.yul\":1219:1225   */\n      dup3\n        /* \"#utility.yul\":1214:1217   */\n      dup2\n        /* \"#utility.yul\":1209:1212   */\n      dup4\n        /* \"#utility.yul\":1203:1226   */\n      mcopy\n        /* \"#utility.yul\":1260:1261   */\n      0x00\n        /* \"#utility.yul\":1251:1257   */\n      dup4\n        /* \"#utility.yul\":1246:1249   */\n      dup4\n        /* \"#utility.yul\":1242:1258   */\n      add\n        /* \"#utility.yul\":1235:1262   */\n      mstore\n        /* \"#utility.yul\":1130:1269   */\n      pop\n      pop\n      pop\n      jump\t// out\n        /* \"#utility.yul\":1275:1377   */\n    tag_230:\n        /* \"#utility.yul\":1316:1322   */\n      0x00\n        /* \"#utility.yul\":1367:1369   */\n      0x1f\n        /* \"#utility.yul\":1363:1370   */\n      not\n        /* \"#utility.yul\":1358:1360   */\n      0x1f\n        /* \"#utility.yul\":1351:1356   */\n      dup4\n        /* \"#utility.yul\":1347:1361   */\n      add\n        /* \"#utility.yul\":1343:1371   */\n      and\n        /* \"#utility.yul\":1333:1371   */\n      swap1\n      pop\n        /* \"#utility.yul\":1275:1377   */\n      swap2\n      swap1\n      pop\n      jump\t// out\n        /* \"#utility.yul\":1383:1740   */\n    tag_231:\n        /* \"#utility.yul\":1461:1464   */\n      0x00\n        /* \"#utility.yul\":1489:1528   */\n      tag_308\n        /* \"#utility.yul\":1522:1527   */\n      dup3\n        /* \"#utility.yul\":1489:1528   */\n      tag_227\n      jump\t// in\n    tag_308:\n        /* \"#utility.yul\":1544:1605   */\n      tag_309\n        /* \"#utility.yul\":1598:1604   */\n      dup2\n        /* \"#utility.yul\":1593:1596   */\n      dup6\n        /* \"#utility.yul\":1544:1605   */\n      tag_228\n      jump\t// in\n    tag_309:\n        /* \"#utility.yul\":1537:1605   */\n      swap4\n      pop\n        /* \"#utility.yul\":1614:1679   */\n      tag_310\n        /* \"#utility.yul\":1672:1678   */\n      dup2\n        /* \"#utility.yul\":1667:1670   */\n      dup6\n        /* \"#utility.yul\":1660:1664   */\n      0x20\n        /* \"#utility.yul\":1653:1658   */\n      dup7\n        /* \"#utility.yul\":1649:1665   */\n      add\n        /* \"#utility.yul\":1614:1679   */\n      tag_229\n      jump\t// in\n    tag_310:\n        /* \"#utility.yul\":1704:1733   */\n      tag_311\n        /* \"#utility.yul\":1726:1732   */\n      dup2\n        /* \"#utility.yul\":1704:1733   */\n      tag_230\n      jump\t// in\n    tag_311:\n        /* \"#utility.yul\":1699:1702   */\n      dup5\n        /* \"#utility.yul\":1695:1734   */\n      add\n        /* \"#utility.yul\":1688:1734   */\n      swap2\n      pop\n        /* \"#utility.yul\":1465:1740   */\n      pop\n        /* \"#utility.yul\":1383:1740   */\n      swap3\n      swap2\n      pop\n      pop\n      jump\t// out\n        /* \"#utility.yul\":1746:1823   */\n    tag_232:\n        /* \"#utility.yul\":1783:1790   */\n      0x00\n        /* \"#utility.yul\":1812:1817   */\n      dup2\n        /* \"#utility.yul\":1801:1817   */\n      swap1\n      pop\n        /* \"#utility.yul\":1746:1823   */\n      swap2\n      swap1\n      pop\n      jump\t// out\n        /* \"#utility.yul\":1829:1937   */\n    tag_233:\n        /* \"#utility.yul\":1906:1930   */\n      tag_314\n        /* \"#utility.yul\":1924:1929   */\n      dup2\n        /* \"#utility.yul\":1906:1930   */\n      tag_232\n      jump\t// in\n    tag_314:\n        /* \"#utility.yul\":1901:1904   */\n      dup3\n        /* \"#utility.yul\":1894:1931   */\n      mstore\n        /* \"#utility.yul\":1829:1937   */\n      pop\n      pop\n      jump\t// out\n        /* \"#utility.yul\":1943:2033   */\n    tag_234:\n        /* \"#utility.yul\":1977:1984   */\n      0x00\n        /* \"#utility.yul\":2020:2025   */\n      dup2\n        /* \"#utility.yul\":2013:2026   */\n      iszero\n        /* \"#utility.yul\":2006:2027   */\n      iszero\n        /* \"#utility.yul\":1995:2027   */\n      swap1\n      pop\n        /* \"#utility.yul\":1943:2033   */\n      swap2\n      swap1\n      pop\n      jump\t// out\n        /* \"#utility.yul\":2039:2138   */\n    tag_235:\n        /* \"#utility.yul\":2110:2131   */\n      tag_317\n        /* \"#utility.yul\":2125:2130   */\n      dup2\n        /* \"#utility.yul\":2110:2131   */\n      tag_234\n      jump\t// in\n    tag_317:\n        /* \"#utility.yul\":2105:2108   */\n      dup3\n        /* \"#utility.yul\":2098:2132   */\n      mstore\n        /* \"#utility.yul\":2039:2138   */\n      pop\n      pop\n      jump\t// out\n        /* \"#utility.yul\":2192:4249   */\n    tag_236:\n        /* \"#utility.yul\":2289:2292   */\n      0x00\n        /* \"#utility.yul\":2325:2331   */\n      0x0120\n        /* \"#utility.yul\":2320:2323   */\n      dup4\n        /* \"#utility.yul\":2316:2332   */\n      add\n        /* \"#utility.yul\":2415:2419   */\n      0x00\n        /* \"#utility.yul\":2408:2413   */\n      dup4\n        /* \"#utility.yul\":2404:2420   */\n      add\n        /* \"#utility.yul\":2398:2421   */\n      mload\n        /* \"#utility.yul\":2434:2497   */\n      tag_319\n        /* \"#utility.yul\":2491:2495   */\n      0x00\n        /* \"#utility.yul\":2486:2489   */\n      dup7\n        /* \"#utility.yul\":2482:2496   */\n      add\n        /* \"#utility.yul\":2468:2480   */\n      dup3\n        /* \"#utility.yul\":2434:2497   */\n      tag_226\n      jump\t// in\n    tag_319:\n        /* \"#utility.yul\":2342:2507   */\n      pop\n        /* \"#utility.yul\":2590:2594   */\n      0x20\n        /* \"#utility.yul\":2583:2588   */\n      dup4\n        /* \"#utility.yul\":2579:2595   */\n      add\n        /* \"#utility.yul\":2573:2596   */\n      mload\n        /* \"#utility.yul\":2643:2646   */\n      dup5\n        /* \"#utility.yul\":2637:2641   */\n      dup3\n        /* \"#utility.yul\":2633:2647   */\n      sub\n        /* \"#utility.yul\":2626:2630   */\n      0x20\n        /* \"#utility.yul\":2621:2624   */\n      dup7\n        /* \"#utility.yul\":2617:2631   */\n      add\n        /* \"#utility.yul\":2610:2648   */\n      mstore\n        /* \"#utility.yul\":2669:2742   */\n      tag_320\n        /* \"#utility.yul\":2737:2741   */\n      dup3\n        /* \"#utility.yul\":2723:2735   */\n      dup3\n        /* \"#utility.yul\":2669:2742   */\n      tag_231\n      jump\t// in\n    tag_320:\n        /* \"#utility.yul\":2661:2742   */\n      swap2\n      pop\n        /* \"#utility.yul\":2517:2753   */\n      pop\n        /* \"#utility.yul\":2842:2846   */\n      0x40\n        /* \"#utility.yul\":2835:2840   */\n      dup4\n        /* \"#utility.yul\":2831:2847   */\n      add\n        /* \"#utility.yul\":2825:2848   */\n      mload\n        /* \"#utility.yul\":2895:2898   */\n      dup5\n        /* \"#utility.yul\":2889:2893   */\n      dup3\n        /* \"#utility.yul\":2885:2899   */\n      sub\n        /* \"#utility.yul\":2878:2882   */\n      0x40\n        /* \"#utility.yul\":2873:2876   */\n      dup7\n        /* \"#utility.yul\":2869:2883   */\n      add\n        /* \"#utility.yul\":2862:2900   */\n      mstore\n        /* \"#utility.yul\":2921:2994   */\n      tag_321\n        /* \"#utility.yul\":2989:2993   */\n      dup3\n        /* \"#utility.yul\":2975:2987   */\n      dup3\n        /* \"#utility.yul\":2921:2994   */\n      tag_231\n      jump\t// in\n    tag_321:\n        /* \"#utility.yul\":2913:2994   */\n      swap2\n      pop\n        /* \"#utility.yul\":2763:3005   */\n      pop\n        /* \"#utility.yul\":3088:3092   */\n      0x60\n        /* \"#utility.yul\":3081:3086   */\n      dup4\n        /* \"#utility.yul\":3077:3093   */\n      add\n        /* \"#utility.yul\":3071:3094   */\n      mload\n        /* \"#utility.yul\":3107:3170   */\n      tag_322\n        /* \"#utility.yul\":3164:3168   */\n      0x60\n        /* \"#utility.yul\":3159:3162   */\n      dup7\n        /* \"#utility.yul\":3155:3169   */\n      add\n        /* \"#utility.yul\":3141:3153   */\n      dup3\n        /* \"#utility.yul\":3107:3170   */\n      tag_233\n      jump\t// in\n    tag_322:\n        /* \"#utility.yul\":3015:3180   */\n      pop\n        /* \"#utility.yul\":3269:3273   */\n      0x80\n        /* \"#utility.yul\":3262:3267   */\n      dup4\n        /* \"#utility.yul\":3258:3274   */\n      add\n        /* \"#utility.yul\":3252:3275   */\n      mload\n        /* \"#utility.yul\":3322:3325   */\n      dup5\n        /* \"#utility.yul\":3316:3320   */\n      dup3\n        /* \"#utility.yul\":3312:3326   */\n      sub\n        /* \"#utility.yul\":3305:3309   */\n      0x80\n        /* \"#utility.yul\":3300:3303   */\n      dup7\n        /* \"#utility.yul\":3296:3310   */\n      add\n        /* \"#utility.yul\":3289:3327   */\n      mstore\n        /* \"#utility.yul\":3348:3421   */\n      tag_323\n        /* \"#utility.yul\":3416:3420   */\n      dup3\n        /* \"#utility.yul\":3402:3414   */\n      dup3\n        /* \"#utility.yul\":3348:3421   */\n      tag_231\n      jump\t// in\n    tag_323:\n        /* \"#utility.yul\":3340:3421   */\n      swap2\n      pop\n        /* \"#utility.yul\":3190:3432   */\n      pop\n        /* \"#utility.yul\":3518:3522   */\n      0xa0\n        /* \"#utility.yul\":3511:3516   */\n      dup4\n        /* \"#utility.yul\":3507:3523   */\n      add\n        /* \"#utility.yul\":3501:3524   */\n      mload\n        /* \"#utility.yul\":3537:3600   */\n      tag_324\n        /* \"#utility.yul\":3594:3598   */\n      0xa0\n        /* \"#utility.yul\":3589:3592   */\n      dup7\n        /* \"#utility.yul\":3585:3599   */\n      add\n        /* \"#utility.yul\":3571:3583   */\n      dup3\n        /* \"#utility.yul\":3537:3600   */\n      tag_233\n      jump\t// in\n    tag_324:\n        /* \"#utility.yul\":3442:3610   */\n      pop\n        /* \"#utility.yul\":3698:3702   */\n      0xc0\n        /* \"#utility.yul\":3691:3696   */\n      dup4\n        /* \"#utility.yul\":3687:3703   */\n      add\n        /* \"#utility.yul\":3681:3704   */\n      mload\n        /* \"#utility.yul\":3717:3774   */\n      tag_325\n        /* \"#utility.yul\":3768:3772   */\n      0xc0\n        /* \"#utility.yul\":3763:3766   */\n      dup7\n        /* \"#utility.yul\":3759:3773   */\n      add\n        /* \"#utility.yul\":3745:3757   */\n      dup3\n        /* \"#utility.yul\":3717:3774   */\n      tag_235\n      jump\t// in\n    tag_325:\n        /* \"#utility.yul\":3620:3784   */\n      pop\n        /* \"#utility.yul\":3870:3874   */\n      0xe0\n        /* \"#utility.yul\":3863:3868   */\n      dup4\n        /* \"#utility.yul\":3859:3875   */\n      add\n        /* \"#utility.yul\":3853:3876   */\n      mload\n        /* \"#utility.yul\":3923:3926   */\n      dup5\n        /* \"#utility.yul\":3917:3921   */\n      dup3\n        /* \"#utility.yul\":3913:3927   */\n      sub\n        /* \"#utility.yul\":3906:3910   */\n      0xe0\n        /* \"#utility.yul\":3901:3904   */\n      dup7\n        /* \"#utility.yul\":3897:3911   */\n      add\n        /* \"#utility.yul\":3890:3928   */\n      mstore\n        /* \"#utility.yul\":3949:4022   */\n      tag_326\n        /* \"#utility.yul\":4017:4021   */\n      dup3\n        /* \"#utility.yul\":4003:4015   */\n      dup3\n        /* \"#utility.yul\":3949:4022   */\n      tag_231\n      jump\t// in\n    tag_326:\n        /* \"#utility.yul\":3941:4022   */\n      swap2\n      pop\n        /* \"#utility.yul\":3794:4033   */\n      pop\n        /* \"#utility.yul\":4126:4132   */\n      0x0100\n        /* \"#utility.yul\":4119:4124   */\n      dup4\n        /* \"#utility.yul\":4115:4133   */\n      add\n        /* \"#utility.yul\":4109:4134   */\n      mload\n        /* \"#utility.yul\":4147:4212   */\n      tag_327\n        /* \"#utility.yul\":4204:4210   */\n      0x0100\n        /* \"#utility.yul\":4199:4202   */\n      dup7\n        /* \"#utility.yul\":4195:4211   */\n      add\n        /* \"#utility.yul\":4181:4193   */\n      dup3\n        /* \"#utility.yul\":4147:4212   */\n      tag_226\n      jump\t// in\n    tag_327:\n        /* \"#utility.yul\":4043:4222   */\n      pop\n        /* \"#utility.yul\":4239:4243   */\n      dup1\n        /* \"#utility.yul\":4232:4243   */\n      swap2\n      pop\n        /* \"#utility.yul\":2294:4249   */\n      pop\n        /* \"#utility.yul\":2192:4249   */\n      swap3\n      swap2\n      pop\n      pop\n      jump\t// out\n        /* \"#utility.yul\":4255:4487   */\n    tag_237:\n        /* \"#utility.yul\":4362:4372   */\n      0x00\n        /* \"#utility.yul\":4397:4481   */\n      tag_329\n        /* \"#utility.yul\":4477:4480   */\n      dup4\n        /* \"#utility.yul\":4469:4475   */\n      dup4\n        /* \"#utility.yul\":4397:4481   */\n      tag_236\n      jump\t// in\n    tag_329:\n        /* \"#utility.yul\":4383:4481   */\n      swap1\n      pop\n        /* \"#utility.yul\":4255:4487   */\n      swap3\n      swap2\n      pop\n      pop\n      jump\t// out\n        /* \"#utility.yul\":4493:4625   */\n    tag_238:\n        /* \"#utility.yul\":4582:4586   */\n      0x00\n        /* \"#utility.yul\":4614:4618   */\n      0x20\n        /* \"#utility.yul\":4609:4612   */\n      dup3\n        /* \"#utility.yul\":4605:4619   */\n      add\n        /* \"#utility.yul\":4597:4619   */\n      swap1\n      pop\n        /* \"#utility.yul\":4493:4625   */\n      swap2\n      swap1\n      pop\n      jump\t// out\n        /* \"#utility.yul\":4683:5746   */\n    tag_239:\n        /* \"#utility.yul\":4840:4843   */\n      0x00\n        /* \"#utility.yul\":4869:4942   */\n      tag_332\n        /* \"#utility.yul\":4936:4941   */\n      dup3\n        /* \"#utility.yul\":4869:4942   */\n      tag_221\n      jump\t// in\n    tag_332:\n        /* \"#utility.yul\":4958:5063   */\n      tag_333\n        /* \"#utility.yul\":5056:5062   */\n      dup2\n        /* \"#utility.yul\":5051:5054   */\n      dup6\n        /* \"#utility.yul\":4958:5063   */\n      tag_222\n      jump\t// in\n    tag_333:\n        /* \"#utility.yul\":4951:5063   */\n      swap4\n      pop\n        /* \"#utility.yul\":5089:5092   */\n      dup4\n        /* \"#utility.yul\":5134:5138   */\n      0x20\n        /* \"#utility.yul\":5126:5132   */\n      dup3\n        /* \"#utility.yul\":5122:5139   */\n      mul\n        /* \"#utility.yul\":5117:5120   */\n      dup6\n        /* \"#utility.yul\":5113:5140   */\n      add\n        /* \"#utility.yul\":5164:5239   */\n      tag_334\n        /* \"#utility.yul\":5233:5238   */\n      dup6\n        /* \"#utility.yul\":5164:5239   */\n      tag_223\n      jump\t// in\n    tag_334:\n        /* \"#utility.yul\":5262:5269   */\n      dup1\n        /* \"#utility.yul\":5293:5294   */\n      0x00\n        /* \"#utility.yul\":5278:5701   */\n    tag_335:\n        /* \"#utility.yul\":5303:5309   */\n      dup6\n        /* \"#utility.yul\":5300:5301   */\n      dup2\n        /* \"#utility.yul\":5297:5310   */\n      lt\n        /* \"#utility.yul\":5278:5701   */\n      iszero\n      tag_337\n      jumpi\n        /* \"#utility.yul\":5374:5383   */\n      dup5\n        /* \"#utility.yul\":5368:5372   */\n      dup5\n        /* \"#utility.yul\":5364:5384   */\n      sub\n        /* \"#utility.yul\":5359:5362   */\n      dup10\n        /* \"#utility.yul\":5352:5385   */\n      mstore\n        /* \"#utility.yul\":5425:5431   */\n      dup2\n        /* \"#utility.yul\":5419:5432   */\n      mload\n        /* \"#utility.yul\":5453:5555   */\n      tag_338\n        /* \"#utility.yul\":5550:5554   */\n      dup6\n        /* \"#utility.yul\":5535:5548   */\n      dup3\n        /* \"#utility.yul\":5453:5555   */\n      tag_237\n      jump\t// in\n    tag_338:\n        /* \"#utility.yul\":5445:5555   */\n      swap5\n      pop\n        /* \"#utility.yul\":5578:5657   */\n      tag_339\n        /* \"#utility.yul\":5650:5656   */\n      dup4\n        /* \"#utility.yul\":5578:5657   */\n      tag_238\n      jump\t// in\n    tag_339:\n        /* \"#utility.yul\":5568:5657   */\n      swap3\n      pop\n        /* \"#utility.yul\":5686:5690   */\n      0x20\n        /* \"#utility.yul\":5681:5684   */\n      dup11\n        /* \"#utility.yul\":5677:5691   */\n      add\n        /* \"#utility.yul\":5670:5691   */\n      swap10\n      pop\n        /* \"#utility.yul\":5338:5701   */\n      pop\n        /* \"#utility.yul\":5325:5326   */\n      0x01\n        /* \"#utility.yul\":5322:5323   */\n      dup2\n        /* \"#utility.yul\":5318:5327   */\n      add\n        /* \"#utility.yul\":5313:5327   */\n      swap1\n      pop\n        /* \"#utility.yul\":5278:5701   */\n      jump(tag_335)\n    tag_337:\n        /* \"#utility.yul\":5282:5296   */\n      pop\n        /* \"#utility.yul\":5717:5721   */\n      dup3\n        /* \"#utility.yul\":5710:5721   */\n      swap8\n      pop\n        /* \"#utility.yul\":5737:5740   */\n      dup8\n        /* \"#utility.yul\":5730:5740   */\n      swap6\n      pop\n        /* \"#utility.yul\":4845:5746   */\n      pop\n      pop\n      pop\n      pop\n      pop\n        /* \"#utility.yul\":4683:5746   */\n      swap3\n      swap2\n      pop\n      pop\n      jump\t// out\n        /* \"#utility.yul\":5752:6201   */\n    tag_19:\n        /* \"#utility.yul\":5933:5937   */\n      0x00\n        /* \"#utility.yul\":5971:5973   */\n      0x20\n        /* \"#utility.yul\":5960:5969   */\n      dup3\n        /* \"#utility.yul\":5956:5974   */\n      add\n        /* \"#utility.yul\":5948:5974   */\n      swap1\n      pop\n        /* \"#utility.yul\":6020:6029   */\n      dup2\n        /* \"#utility.yul\":6014:6018   */\n      dup2\n        /* \"#utility.yul\":6010:6030   */\n      sub\n        /* \"#utility.yul\":6006:6007   */\n      0x00\n        /* \"#utility.yul\":5995:6004   */\n      dup4\n        /* \"#utility.yul\":5991:6008   */\n      add\n        /* \"#utility.yul\":5984:6031   */\n      mstore\n        /* \"#utility.yul\":6048:6194   */\n      tag_341\n        /* \"#utility.yul\":6189:6193   */\n      dup2\n        /* \"#utility.yul\":6180:6186   */\n      dup5\n        /* \"#utility.yul\":6048:6194   */\n      tag_239\n      jump\t// in\n    tag_341:\n        /* \"#utility.yul\":6040:6194   */\n      swap1\n      pop\n        /* \"#utility.yul\":5752:6201   */\n      swap3\n      swap2\n      pop\n      pop\n      jump\t// out\n        /* \"#utility.yul\":6207:6282   */\n    tag_240:\n        /* \"#utility.yul\":6240:6246   */\n      0x00\n        /* \"#utility.yul\":6273:6275   */\n      0x40\n        /* \"#utility.yul\":6267:6276   */\n      mload\n        /* \"#utility.yul\":6257:6276   */\n      swap1\n      pop\n        /* \"#utility.yul\":6207:6282   */\n      swap1\n      jump\t// out\n        /* \"#utility.yul\":6288:6405   */\n    tag_241:\n        /* \"#utility.yul\":6397:6398   */\n      0x00\n        /* \"#utility.yul\":6394:6395   */\n      dup1\n        /* \"#utility.yul\":6387:6399   */\n      revert\n        /* \"#utility.yul\":6411:6528   */\n    tag_242:\n        /* \"#utility.yul\":6520:6521   */\n      0x00\n        /* \"#utility.yul\":6517:6518   */\n      dup1\n        /* \"#utility.yul\":6510:6522   */\n      revert\n        /* \"#utility.yul\":6534:6656   */\n    tag_243:\n        /* \"#utility.yul\":6607:6631   */\n      tag_346\n        /* \"#utility.yul\":6625:6630   */\n      dup2\n        /* \"#utility.yul\":6607:6631   */\n      tag_232\n      jump\t// in\n    tag_346:\n        /* \"#utility.yul\":6600:6605   */\n      dup2\n        /* \"#utility.yul\":6597:6632   */\n      eq\n        /* \"#utility.yul\":6587:6650   */\n      tag_347\n      jumpi\n        /* \"#utility.yul\":6646:6647   */\n      0x00\n        /* \"#utility.yul\":6643:6644   */\n      dup1\n        /* \"#utility.yul\":6636:6648   */\n      revert\n        /* \"#utility.yul\":6587:6650   */\n    tag_347:\n        /* \"#utility.yul\":6534:6656   */\n      pop\n      jump\t// out\n        /* \"#utility.yul\":6662:6801   */\n    tag_244:\n        /* \"#utility.yul\":6708:6713   */\n      0x00\n        /* \"#utility.yul\":6746:6752   */\n      dup2\n        /* \"#utility.yul\":6733:6753   */\n      calldataload\n        /* \"#utility.yul\":6724:6753   */\n      swap1\n      pop\n        /* \"#utility.yul\":6762:6795   */\n      tag_349\n        /* \"#utility.yul\":6789:6794   */\n      dup2\n        /* \"#utility.yul\":6762:6795   */\n      tag_243\n      jump\t// in\n    tag_349:\n        /* \"#utility.yul\":6662:6801   */\n      swap3\n      swap2\n      pop\n      pop\n      jump\t// out\n        /* \"#utility.yul\":6807:7136   */\n    tag_23:\n        /* \"#utility.yul\":6866:6872   */\n      0x00\n        /* \"#utility.yul\":6915:6917   */\n      0x20\n        /* \"#utility.yul\":6903:6912   */\n      dup3\n        /* \"#utility.yul\":6894:6901   */\n      dup5\n        /* \"#utility.yul\":6890:6913   */\n      sub\n        /* \"#utility.yul\":6886:6918   */\n      slt\n        /* \"#utility.yul\":6883:7002   */\n      iszero\n      tag_351\n      jumpi\n        /* \"#utility.yul\":6921:7000   */\n      tag_352\n      tag_241\n      jump\t// in\n    tag_352:\n        /* \"#utility.yul\":6883:7002   */\n    tag_351:\n        /* \"#utility.yul\":7041:7042   */\n      0x00\n        /* \"#utility.yul\":7066:7119   */\n      tag_353\n        /* \"#utility.yul\":7111:7118   */\n      dup5\n        /* \"#utility.yul\":7102:7108   */\n      dup3\n        /* \"#utility.yul\":7091:7100   */\n      dup6\n        /* \"#utility.yul\":7087:7109   */\n      add\n        /* \"#utility.yul\":7066:7119   */\n      tag_244\n      jump\t// in\n    tag_353:\n        /* \"#utility.yul\":7056:7119   */\n      swap2\n      pop\n        /* \"#utility.yul\":7012:7129   */\n      pop\n        /* \"#utility.yul\":6807:7136   */\n      swap3\n      swap2\n      pop\n      pop\n      jump\t// out\n        /* \"#utility.yul\":7142:7311   */\n    tag_245:\n        /* \"#utility.yul\":7226:7237   */\n      0x00\n        /* \"#utility.yul\":7260:7266   */\n      dup3\n        /* \"#utility.yul\":7255:7258   */\n      dup3\n        /* \"#utility.yul\":7248:7267   */\n      mstore\n        /* \"#utility.yul\":7300:7304   */\n      0x20\n        /* \"#utility.yul\":7295:7298   */\n      dup3\n        /* \"#utility.yul\":7291:7305   */\n      add\n        /* \"#utility.yul\":7276:7305   */\n      swap1\n      pop\n        /* \"#utility.yul\":7142:7311   */\n      swap3\n      swap2\n      pop\n      pop\n      jump\t// out\n        /* \"#utility.yul\":7317:7694   */\n    tag_246:\n        /* \"#utility.yul\":7405:7408   */\n      0x00\n        /* \"#utility.yul\":7433:7472   */\n      tag_356\n        /* \"#utility.yul\":7466:7471   */\n      dup3\n        /* \"#utility.yul\":7433:7472   */\n      tag_227\n      jump\t// in\n    tag_356:\n        /* \"#utility.yul\":7488:7559   */\n      tag_357\n        /* \"#utility.yul\":7552:7558   */\n      dup2\n        /* \"#utility.yul\":7547:7550   */\n      dup6\n        /* \"#utility.yul\":7488:7559   */\n      tag_245\n      jump\t// in\n    tag_357:\n        /* \"#utility.yul\":7481:7559   */\n      swap4\n      pop\n        /* \"#utility.yul\":7568:7633   */\n      tag_358\n        /* \"#utility.yul\":7626:7632   */\n      dup2\n        /* \"#utility.yul\":7621:7624   */\n      dup6\n        /* \"#utility.yul\":7614:7618   */\n      0x20\n        /* \"#utility.yul\":7607:7612   */\n      dup7\n        /* \"#utility.yul\":7603:7619   */\n      add\n        /* \"#utility.yul\":7568:7633   */\n      tag_229\n      jump\t// in\n    tag_358:\n        /* \"#utility.yul\":7658:7687   */\n      tag_359\n        /* \"#utility.yul\":7680:7686   */\n      dup2\n        /* \"#utility.yul\":7658:7687   */\n      tag_230\n      jump\t// in\n    tag_359:\n        /* \"#utility.yul\":7653:7656   */\n      dup5\n        /* \"#utility.yul\":7649:7688   */\n      add\n        /* \"#utility.yul\":7642:7688   */\n      swap2\n      pop\n        /* \"#utility.yul\":7409:7694   */\n      pop\n        /* \"#utility.yul\":7317:7694   */\n      swap3\n      swap2\n      pop\n      pop\n      jump\t// out\n        /* \"#utility.yul\":7700:8013   */\n    tag_26:\n        /* \"#utility.yul\":7813:7817   */\n      0x00\n        /* \"#utility.yul\":7851:7853   */\n      0x20\n        /* \"#utility.yul\":7840:7849   */\n      dup3\n        /* \"#utility.yul\":7836:7854   */\n      add\n        /* \"#utility.yul\":7828:7854   */\n      swap1\n      pop\n        /* \"#utility.yul\":7900:7909   */\n      dup2\n        /* \"#utility.yul\":7894:7898   */\n      dup2\n        /* \"#utility.yul\":7890:7910   */\n      sub\n        /* \"#utility.yul\":7886:7887   */\n      0x00\n        /* \"#utility.yul\":7875:7884   */\n      dup4\n        /* \"#utility.yul\":7871:7888   */\n      add\n        /* \"#utility.yul\":7864:7911   */\n      mstore\n        /* \"#utility.yul\":7928:8006   */\n      tag_361\n        /* \"#utility.yul\":8001:8005   */\n      dup2\n        /* \"#utility.yul\":7992:7998   */\n      dup5\n        /* \"#utility.yul\":7928:8006   */\n      tag_246\n      jump\t// in\n    tag_361:\n        /* \"#utility.yul\":7920:8006   */\n      swap1\n      pop\n        /* \"#utility.yul\":7700:8013   */\n      swap3\n      swap2\n      pop\n      pop\n      jump\t// out\n        /* \"#utility.yul\":8019:8137   */\n    tag_247:\n        /* \"#utility.yul\":8106:8130   */\n      tag_363\n        /* \"#utility.yul\":8124:8129   */\n      dup2\n        /* \"#utility.yul\":8106:8130   */\n      tag_225\n      jump\t// in\n    tag_363:\n        /* \"#utility.yul\":8101:8104   */\n      dup3\n        /* \"#utility.yul\":8094:8131   */\n      mstore\n        /* \"#utility.yul\":8019:8137   */\n      pop\n      pop\n      jump\t// out\n        /* \"#utility.yul\":8143:8261   */\n    tag_248:\n        /* \"#utility.yul\":8230:8254   */\n      tag_365\n        /* \"#utility.yul\":8248:8253   */\n      dup2\n        /* \"#utility.yul\":8230:8254   */\n      tag_232\n      jump\t// in\n    tag_365:\n        /* \"#utility.yul\":8225:8228   */\n      dup3\n        /* \"#utility.yul\":8218:8255   */\n      mstore\n        /* \"#utility.yul\":8143:8261   */\n      pop\n      pop\n      jump\t// out\n        /* \"#utility.yul\":8267:8376   */\n    tag_249:\n        /* \"#utility.yul\":8348:8369   */\n      tag_367\n        /* \"#utility.yul\":8363:8368   */\n      dup2\n        /* \"#utility.yul\":8348:8369   */\n      tag_234\n      jump\t// in\n    tag_367:\n        /* \"#utility.yul\":8343:8346   */\n      dup3\n        /* \"#utility.yul\":8336:8370   */\n      mstore\n        /* \"#utility.yul\":8267:8376   */\n      pop\n      pop\n      jump\t// out\n        /* \"#utility.yul\":8382:9842   */\n    tag_32:\n        /* \"#utility.yul\":8773:8777   */\n      0x00\n        /* \"#utility.yul\":8811:8814   */\n      0x0120\n        /* \"#utility.yul\":8800:8809   */\n      dup3\n        /* \"#utility.yul\":8796:8815   */\n      add\n        /* \"#utility.yul\":8788:8815   */\n      swap1\n      pop\n        /* \"#utility.yul\":8825:8896   */\n      tag_369\n        /* \"#utility.yul\":8893:8894   */\n      0x00\n        /* \"#utility.yul\":8882:8891   */\n      dup4\n        /* \"#utility.yul\":8878:8895   */\n      add\n        /* \"#utility.yul\":8869:8875   */\n      dup13\n        /* \"#utility.yul\":8825:8896   */\n      tag_247\n      jump\t// in\n    tag_369:\n        /* \"#utility.yul\":8943:8952   */\n      dup2\n        /* \"#utility.yul\":8937:8941   */\n      dup2\n        /* \"#utility.yul\":8933:8953   */\n      sub\n        /* \"#utility.yul\":8928:8930   */\n      0x20\n        /* \"#utility.yul\":8917:8926   */\n      dup4\n        /* \"#utility.yul\":8913:8931   */\n      add\n        /* \"#utility.yul\":8906:8954   */\n      mstore\n        /* \"#utility.yul\":8971:9049   */\n      tag_370\n        /* \"#utility.yul\":9044:9048   */\n      dup2\n        /* \"#utility.yul\":9035:9041   */\n      dup12\n        /* \"#utility.yul\":8971:9049   */\n      tag_246\n      jump\t// in\n    tag_370:\n        /* \"#utility.yul\":8963:9049   */\n      swap1\n      pop\n        /* \"#utility.yul\":9096:9105   */\n      dup2\n        /* \"#utility.yul\":9090:9094   */\n      dup2\n        /* \"#utility.yul\":9086:9106   */\n      sub\n        /* \"#utility.yul\":9081:9083   */\n      0x40\n        /* \"#utility.yul\":9070:9079   */\n      dup4\n        /* \"#utility.yul\":9066:9084   */\n      add\n        /* \"#utility.yul\":9059:9107   */\n      mstore\n        /* \"#utility.yul\":9124:9202   */\n      tag_371\n        /* \"#utility.yul\":9197:9201   */\n      dup2\n        /* \"#utility.yul\":9188:9194   */\n      dup11\n        /* \"#utility.yul\":9124:9202   */\n      tag_246\n      jump\t// in\n    tag_371:\n        /* \"#utility.yul\":9116:9202   */\n      swap1\n      pop\n        /* \"#utility.yul\":9212:9284   */\n      tag_372\n        /* \"#utility.yul\":9280:9282   */\n      0x60\n        /* \"#utility.yul\":9269:9278   */\n      dup4\n        /* \"#utility.yul\":9265:9283   */\n      add\n        /* \"#utility.yul\":9256:9262   */\n      dup10\n        /* \"#utility.yul\":9212:9284   */\n      tag_248\n      jump\t// in\n    tag_372:\n        /* \"#utility.yul\":9332:9341   */\n      dup2\n        /* \"#utility.yul\":9326:9330   */\n      dup2\n        /* \"#utility.yul\":9322:9342   */\n      sub\n        /* \"#utility.yul\":9316:9319   */\n      0x80\n        /* \"#utility.yul\":9305:9314   */\n      dup4\n        /* \"#utility.yul\":9301:9320   */\n      add\n        /* \"#utility.yul\":9294:9343   */\n      mstore\n        /* \"#utility.yul\":9360:9438   */\n      tag_373\n        /* \"#utility.yul\":9433:9437   */\n      dup2\n        /* \"#utility.yul\":9424:9430   */\n      dup9\n        /* \"#utility.yul\":9360:9438   */\n      tag_246\n      jump\t// in\n    tag_373:\n        /* \"#utility.yul\":9352:9438   */\n      swap1\n      pop\n        /* \"#utility.yul\":9448:9521   */\n      tag_374\n        /* \"#utility.yul\":9516:9519   */\n      0xa0\n        /* \"#utility.yul\":9505:9514   */\n      dup4\n        /* \"#utility.yul\":9501:9520   */\n      add\n        /* \"#utility.yul\":9492:9498   */\n      dup8\n        /* \"#utility.yul\":9448:9521   */\n      tag_248\n      jump\t// in\n    tag_374:\n        /* \"#utility.yul\":9531:9598   */\n      tag_375\n        /* \"#utility.yul\":9593:9596   */\n      0xc0\n        /* \"#utility.yul\":9582:9591   */\n      dup4\n        /* \"#utility.yul\":9578:9597   */\n      add\n        /* \"#utility.yul\":9569:9575   */\n      dup7\n        /* \"#utility.yul\":9531:9598   */\n      tag_249\n      jump\t// in\n    tag_375:\n        /* \"#utility.yul\":9646:9655   */\n      dup2\n        /* \"#utility.yul\":9640:9644   */\n      dup2\n        /* \"#utility.yul\":9636:9656   */\n      sub\n        /* \"#utility.yul\":9630:9633   */\n      0xe0\n        /* \"#utility.yul\":9619:9628   */\n      dup4\n        /* \"#utility.yul\":9615:9634   */\n      add\n        /* \"#utility.yul\":9608:9657   */\n      mstore\n        /* \"#utility.yul\":9674:9752   */\n      tag_376\n        /* \"#utility.yul\":9747:9751   */\n      dup2\n        /* \"#utility.yul\":9738:9744   */\n      dup6\n        /* \"#utility.yul\":9674:9752   */\n      tag_246\n      jump\t// in\n    tag_376:\n        /* \"#utility.yul\":9666:9752   */\n      swap1\n      pop\n        /* \"#utility.yul\":9762:9835   */\n      tag_377\n        /* \"#utility.yul\":9830:9833   */\n      0x0100\n        /* \"#utility.yul\":9819:9828   */\n      dup4\n        /* \"#utility.yul\":9815:9834   */\n      add\n        /* \"#utility.yul\":9806:9812   */\n      dup5\n        /* \"#utility.yul\":9762:9835   */\n      tag_247\n      jump\t// in\n    tag_377:\n        /* \"#utility.yul\":8382:9842   */\n      swap11\n      swap10\n      pop\n      pop\n      pop\n      pop\n      pop\n      pop\n      pop\n      pop\n      pop\n      pop\n      jump\t// out\n        /* \"#utility.yul\":9848:10322   */\n    tag_36:\n        /* \"#utility.yul\":9916:9922   */\n      0x00\n        /* \"#utility.yul\":9924:9930   */\n      dup1\n        /* \"#utility.yul\":9973:9975   */\n      0x40\n        /* \"#utility.yul\":9961:9970   */\n      dup4\n        /* \"#utility.yul\":9952:9959   */\n      dup6\n        /* \"#utility.yul\":9948:9971   */\n      sub\n        /* \"#utility.yul\":9944:9976   */\n      slt\n        /* \"#utility.yul\":9941:10060   */\n      iszero\n      tag_379\n      jumpi\n        /* \"#utility.yul\":9979:10058   */\n      tag_380\n      tag_241\n      jump\t// in\n    tag_380:\n        /* \"#utility.yul\":9941:10060   */\n    tag_379:\n        /* \"#utility.yul\":10099:10100   */\n      0x00\n        /* \"#utility.yul\":10124:10177   */\n      tag_381\n        /* \"#utility.yul\":10169:10176   */\n      dup6\n        /* \"#utility.yul\":10160:10166   */\n      dup3\n        /* \"#utility.yul\":10149:10158   */\n      dup7\n        /* \"#utility.yul\":10145:10167   */\n      add\n        /* \"#utility.yul\":10124:10177   */\n      tag_244\n      jump\t// in\n    tag_381:\n        /* \"#utility.yul\":10114:10177   */\n      swap3\n      pop\n        /* \"#utility.yul\":10070:10187   */\n      pop\n        /* \"#utility.yul\":10226:10228   */\n      0x20\n        /* \"#utility.yul\":10252:10305   */\n      tag_382\n        /* \"#utility.yul\":10297:10304   */\n      dup6\n        /* \"#utility.yul\":10288:10294   */\n      dup3\n        /* \"#utility.yul\":10277:10286   */\n      dup7\n        /* \"#utility.yul\":10273:10295   */\n      add\n        /* \"#utility.yul\":10252:10305   */\n      tag_244\n      jump\t// in\n    tag_382:\n        /* \"#utility.yul\":10242:10305   */\n      swap2\n      pop\n        /* \"#utility.yul\":10197:10315   */\n      pop\n        /* \"#utility.yul\":9848:10322   */\n      swap3\n      pop\n      swap3\n      swap1\n      pop\n      jump\t// out\n        /* \"#utility.yul\":10328:10550   */\n    tag_39:\n        /* \"#utility.yul\":10421:10425   */\n      0x00\n        /* \"#utility.yul\":10459:10461   */\n      0x20\n        /* \"#utility.yul\":10448:10457   */\n      dup3\n        /* \"#utility.yul\":10444:10462   */\n      add\n        /* \"#utility.yul\":10436:10462   */\n      swap1\n      pop\n        /* \"#utility.yul\":10472:10543   */\n      tag_384\n        /* \"#utility.yul\":10540:10541   */\n      0x00\n        /* \"#utility.yul\":10529:10538   */\n      dup4\n        /* \"#utility.yul\":10525:10542   */\n      add\n        /* \"#utility.yul\":10516:10522   */\n      dup5\n        /* \"#utility.yul\":10472:10543   */\n      tag_248\n      jump\t// in\n    tag_384:\n        /* \"#utility.yul\":10328:10550   */\n      swap3\n      swap2\n      pop\n      pop\n      jump\t// out\n        /* \"#utility.yul\":10556:10678   */\n    tag_250:\n        /* \"#utility.yul\":10629:10653   */\n      tag_386\n        /* \"#utility.yul\":10647:10652   */\n      dup2\n        /* \"#utility.yul\":10629:10653   */\n      tag_225\n      jump\t// in\n    tag_386:\n        /* \"#utility.yul\":10622:10627   */\n      dup2\n        /* \"#utility.yul\":10619:10654   */\n      eq\n        /* \"#utility.yul\":10609:10672   */\n      tag_387\n      jumpi\n        /* \"#utility.yul\":10668:10669   */\n      0x00\n        /* \"#utility.yul\":10665:10666   */\n      dup1\n        /* \"#utility.yul\":10658:10670   */\n      revert\n        /* \"#utility.yul\":10609:10672   */\n    tag_387:\n        /* \"#utility.yul\":10556:10678   */\n      pop\n      jump\t// out\n        /* \"#utility.yul\":10684:10823   */\n    tag_251:\n        /* \"#utility.yul\":10730:10735   */\n      0x00\n        /* \"#utility.yul\":10768:10774   */\n      dup2\n        /* \"#utility.yul\":10755:10775   */\n      calldataload\n        /* \"#utility.yul\":10746:10775   */\n      swap1\n      pop\n        /* \"#utility.yul\":10784:10817   */\n      tag_389\n        /* \"#utility.yul\":10811:10816   */\n      dup2\n        /* \"#utility.yul\":10784:10817   */\n      tag_250\n      jump\t// in\n    tag_389:\n        /* \"#utility.yul\":10684:10823   */\n      swap3\n      swap2\n      pop\n      pop\n      jump\t// out\n        /* \"#utility.yul\":10829:10946   */\n    tag_252:\n        /* \"#utility.yul\":10938:10939   */\n      0x00\n        /* \"#utility.yul\":10935:10936   */\n      dup1\n        /* \"#utility.yul\":10928:10940   */\n      revert\n        /* \"#utility.yul\":10952:11069   */\n    tag_253:\n        /* \"#utility.yul\":11061:11062   */\n      0x00\n        /* \"#utility.yul\":11058:11059   */\n      dup1\n        /* \"#utility.yul\":11051:11063   */\n      revert\n        /* \"#utility.yul\":11075:11255   */\n    tag_81:\n        /* \"#utility.yul\":11123:11200   */\n      0x4e487b7100000000000000000000000000000000000000000000000000000000\n        /* \"#utility.yul\":11120:11121   */\n      0x00\n        /* \"#utility.yul\":11113:11201   */\n      mstore\n        /* \"#utility.yul\":11220:11224   */\n      0x41\n        /* \"#utility.yul\":11217:11218   */\n      0x04\n        /* \"#utility.yul\":11210:11225   */\n      mstore\n        /* \"#utility.yul\":11244:11248   */\n      0x24\n        /* \"#utility.yul\":11241:11242   */\n      0x00\n        /* \"#utility.yul\":11234:11249   */\n      revert\n        /* \"#utility.yul\":11261:11542   */\n    tag_254:\n        /* \"#utility.yul\":11344:11371   */\n      tag_394\n        /* \"#utility.yul\":11366:11370   */\n      dup3\n        /* \"#utility.yul\":11344:11371   */\n      tag_230\n      jump\t// in\n    tag_394:\n        /* \"#utility.yul\":11336:11342   */\n      dup2\n        /* \"#utility.yul\":11332:11372   */\n      add\n        /* \"#utility.yul\":11474:11480   */\n      dup2\n        /* \"#utility.yul\":11462:11472   */\n      dup2\n        /* \"#utility.yul\":11459:11481   */\n      lt\n        /* \"#utility.yul\":11438:11456   */\n      0xffffffffffffffff\n        /* \"#utility.yul\":11426:11436   */\n      dup3\n        /* \"#utility.yul\":11423:11457   */\n      gt\n        /* \"#utility.yul\":11420:11482   */\n      or\n        /* \"#utility.yul\":11417:11505   */\n      iszero\n      tag_395\n      jumpi\n        /* \"#utility.yul\":11485:11503   */\n      tag_396\n      tag_81\n      jump\t// in\n    tag_396:\n        /* \"#utility.yul\":11417:11505   */\n    tag_395:\n        /* \"#utility.yul\":11525:11535   */\n      dup1\n        /* \"#utility.yul\":11521:11523   */\n      0x40\n        /* \"#utility.yul\":11514:11536   */\n      mstore\n        /* \"#utility.yul\":11304:11542   */\n      pop\n        /* \"#utility.yul\":11261:11542   */\n      pop\n      pop\n      jump\t// out\n        /* \"#utility.yul\":11548:11677   */\n    tag_255:\n        /* \"#utility.yul\":11582:11588   */\n      0x00\n        /* \"#utility.yul\":11609:11629   */\n      tag_398\n      tag_240\n      jump\t// in\n    tag_398:\n        /* \"#utility.yul\":11599:11629   */\n      swap1\n      pop\n        /* \"#utility.yul\":11638:11671   */\n      tag_399\n        /* \"#utility.yul\":11666:11670   */\n      dup3\n        /* \"#utility.yul\":11658:11664   */\n      dup3\n        /* \"#utility.yul\":11638:11671   */\n      tag_254\n      jump\t// in\n    tag_399:\n        /* \"#utility.yul\":11548:11677   */\n      swap2\n      swap1\n      pop\n      jump\t// out\n        /* \"#utility.yul\":11683:11991   */\n    tag_256:\n        /* \"#utility.yul\":11745:11749   */\n      0x00\n        /* \"#utility.yul\":11835:11853   */\n      0xffffffffffffffff\n        /* \"#utility.yul\":11827:11833   */\n      dup3\n        /* \"#utility.yul\":11824:11854   */\n      gt\n        /* \"#utility.yul\":11821:11877   */\n      iszero\n      tag_401\n      jumpi\n        /* \"#utility.yul\":11857:11875   */\n      tag_402\n      tag_81\n      jump\t// in\n    tag_402:\n        /* \"#utility.yul\":11821:11877   */\n    tag_401:\n        /* \"#utility.yul\":11895:11924   */\n      tag_403\n        /* \"#utility.yul\":11917:11923   */\n      dup3\n        /* \"#utility.yul\":11895:11924   */\n      tag_230\n      jump\t// in\n    tag_403:\n        /* \"#utility.yul\":11887:11924   */\n      swap1\n      pop\n        /* \"#utility.yul\":11979:11983   */\n      0x20\n        /* \"#utility.yul\":11973:11977   */\n      dup2\n        /* \"#utility.yul\":11969:11984   */\n      add\n        /* \"#utility.yul\":11961:11984   */\n      swap1\n      pop\n        /* \"#utility.yul\":11683:11991   */\n      swap2\n      swap1\n      pop\n      jump\t// out\n        /* \"#utility.yul\":11997:12145   */\n    tag_257:\n        /* \"#utility.yul\":12095:12101   */\n      dup3\n        /* \"#utility.yul\":12090:12093   */\n      dup2\n        /* \"#utility.yul\":12085:12088   */\n      dup4\n        /* \"#utility.yul\":12072:12102   */\n      calldatacopy\n        /* \"#utility.yul\":12136:12137   */\n      0x00\n        /* \"#utility.yul\":12127:12133   */\n      dup4\n        /* \"#utility.yul\":12122:12125   */\n      dup4\n        /* \"#utility.yul\":12118:12134   */\n      add\n        /* \"#utility.yul\":12111:12138   */\n      mstore\n        /* \"#utility.yul\":11997:12145   */\n      pop\n      pop\n      pop\n      jump\t// out\n        /* \"#utility.yul\":12151:12576   */\n    tag_258:\n        /* \"#utility.yul\":12229:12234   */\n      0x00\n        /* \"#utility.yul\":12254:12320   */\n      tag_406\n        /* \"#utility.yul\":12270:12319   */\n      tag_407\n        /* \"#utility.yul\":12312:12318   */\n      dup5\n        /* \"#utility.yul\":12270:12319   */\n      tag_256\n      jump\t// in\n    tag_407:\n        /* \"#utility.yul\":12254:12320   */\n      tag_255\n      jump\t// in\n    tag_406:\n        /* \"#utility.yul\":12245:12320   */\n      swap1\n      pop\n        /* \"#utility.yul\":12343:12349   */\n      dup3\n        /* \"#utility.yul\":12336:12341   */\n      dup2\n        /* \"#utility.yul\":12329:12350   */\n      mstore\n        /* \"#utility.yul\":12381:12385   */\n      0x20\n        /* \"#utility.yul\":12374:12379   */\n      dup2\n        /* \"#utility.yul\":12370:12386   */\n      add\n        /* \"#utility.yul\":12419:12422   */\n      dup5\n        /* \"#utility.yul\":12410:12416   */\n      dup5\n        /* \"#utility.yul\":12405:12408   */\n      dup5\n        /* \"#utility.yul\":12401:12417   */\n      add\n        /* \"#utility.yul\":12398:12423   */\n      gt\n        /* \"#utility.yul\":12395:12507   */\n      iszero\n      tag_408\n      jumpi\n        /* \"#utility.yul\":12426:12505   */\n      tag_409\n      tag_253\n      jump\t// in\n    tag_409:\n        /* \"#utility.yul\":12395:12507   */\n    tag_408:\n        /* \"#utility.yul\":12516:12570   */\n      tag_410\n        /* \"#utility.yul\":12563:12569   */\n      dup5\n        /* \"#utility.yul\":12558:12561   */\n      dup3\n        /* \"#utility.yul\":12553:12556   */\n      dup6\n        /* \"#utility.yul\":12516:12570   */\n      tag_257\n      jump\t// in\n    tag_410:\n        /* \"#utility.yul\":12235:12576   */\n      pop\n        /* \"#utility.yul\":12151:12576   */\n      swap4\n      swap3\n      pop\n      pop\n      pop\n      jump\t// out\n        /* \"#utility.yul\":12596:12936   */\n    tag_259:\n        /* \"#utility.yul\":12652:12657   */\n      0x00\n        /* \"#utility.yul\":12701:12704   */\n      dup3\n        /* \"#utility.yul\":12694:12698   */\n      0x1f\n        /* \"#utility.yul\":12686:12692   */\n      dup4\n        /* \"#utility.yul\":12682:12699   */\n      add\n        /* \"#utility.yul\":12678:12705   */\n      slt\n        /* \"#utility.yul\":12668:12790   */\n      tag_412\n      jumpi\n        /* \"#utility.yul\":12709:12788   */\n      tag_413\n      tag_252\n      jump\t// in\n    tag_413:\n        /* \"#utility.yul\":12668:12790   */\n    tag_412:\n        /* \"#utility.yul\":12826:12832   */\n      dup2\n        /* \"#utility.yul\":12813:12833   */\n      calldataload\n        /* \"#utility.yul\":12851:12930   */\n      tag_414\n        /* \"#utility.yul\":12926:12929   */\n      dup5\n        /* \"#utility.yul\":12918:12924   */\n      dup3\n        /* \"#utility.yul\":12911:12915   */\n      0x20\n        /* \"#utility.yul\":12903:12909   */\n      dup7\n        /* \"#utility.yul\":12899:12916   */\n      add\n        /* \"#utility.yul\":12851:12930   */\n      tag_258\n      jump\t// in\n    tag_414:\n        /* \"#utility.yul\":12842:12930   */\n      swap2\n      pop\n        /* \"#utility.yul\":12658:12936   */\n      pop\n        /* \"#utility.yul\":12596:12936   */\n      swap3\n      swap2\n      pop\n      pop\n      jump\t// out\n        /* \"#utility.yul\":12942:14539   */\n    tag_43:\n        /* \"#utility.yul\":13076:13082   */\n      0x00\n        /* \"#utility.yul\":13084:13090   */\n      dup1\n        /* \"#utility.yul\":13092:13098   */\n      0x00\n        /* \"#utility.yul\":13100:13106   */\n      dup1\n        /* \"#utility.yul\":13108:13114   */\n      0x00\n        /* \"#utility.yul\":13116:13122   */\n      dup1\n        /* \"#utility.yul\":13165:13168   */\n      0xc0\n        /* \"#utility.yul\":13153:13162   */\n      dup8\n        /* \"#utility.yul\":13144:13151   */\n      dup10\n        /* \"#utility.yul\":13140:13163   */\n      sub\n        /* \"#utility.yul\":13136:13169   */\n      slt\n        /* \"#utility.yul\":13133:13253   */\n      iszero\n      tag_416\n      jumpi\n        /* \"#utility.yul\":13172:13251   */\n      tag_417\n      tag_241\n      jump\t// in\n    tag_417:\n        /* \"#utility.yul\":13133:13253   */\n    tag_416:\n        /* \"#utility.yul\":13292:13293   */\n      0x00\n        /* \"#utility.yul\":13317:13370   */\n      tag_418\n        /* \"#utility.yul\":13362:13369   */\n      dup10\n        /* \"#utility.yul\":13353:13359   */\n      dup3\n        /* \"#utility.yul\":13342:13351   */\n      dup11\n        /* \"#utility.yul\":13338:13360   */\n      add\n        /* \"#utility.yul\":13317:13370   */\n      tag_251\n      jump\t// in\n    tag_418:\n        /* \"#utility.yul\":13307:13370   */\n      swap7\n      pop\n        /* \"#utility.yul\":13263:13380   */\n      pop\n        /* \"#utility.yul\":13447:13449   */\n      0x20\n        /* \"#utility.yul\":13436:13445   */\n      dup8\n        /* \"#utility.yul\":13432:13450   */\n      add\n        /* \"#utility.yul\":13419:13451   */\n      calldataload\n        /* \"#utility.yul\":13478:13496   */\n      0xffffffffffffffff\n        /* \"#utility.yul\":13470:13476   */\n      dup2\n        /* \"#utility.yul\":13467:13497   */\n      gt\n        /* \"#utility.yul\":13464:13581   */\n      iszero\n      tag_419\n      jumpi\n        /* \"#utility.yul\":13500:13579   */\n      tag_420\n      tag_242\n      jump\t// in\n    tag_420:\n        /* \"#utility.yul\":13464:13581   */\n    tag_419:\n        /* \"#utility.yul\":13605:13668   */\n      tag_421\n        /* \"#utility.yul\":13660:13667   */\n      dup10\n        /* \"#utility.yul\":13651:13657   */\n      dup3\n        /* \"#utility.yul\":13640:13649   */\n      dup11\n        /* \"#utility.yul\":13636:13658   */\n      add\n        /* \"#utility.yul\":13605:13668   */\n      tag_259\n      jump\t// in\n    tag_421:\n        /* \"#utility.yul\":13595:13668   */\n      swap6\n      pop\n        /* \"#utility.yul\":13390:13678   */\n      pop\n        /* \"#utility.yul\":13745:13747   */\n      0x40\n        /* \"#utility.yul\":13734:13743   */\n      dup8\n        /* \"#utility.yul\":13730:13748   */\n      add\n        /* \"#utility.yul\":13717:13749   */\n      calldataload\n        /* \"#utility.yul\":13776:13794   */\n      0xffffffffffffffff\n        /* \"#utility.yul\":13768:13774   */\n      dup2\n        /* \"#utility.yul\":13765:13795   */\n      gt\n        /* \"#utility.yul\":13762:13879   */\n      iszero\n      tag_422\n      jumpi\n        /* \"#utility.yul\":13798:13877   */\n      tag_423\n      tag_242\n      jump\t// in\n    tag_423:\n        /* \"#utility.yul\":13762:13879   */\n    tag_422:\n        /* \"#utility.yul\":13903:13966   */\n      tag_424\n        /* \"#utility.yul\":13958:13965   */\n      dup10\n        /* \"#utility.yul\":13949:13955   */\n      dup3\n        /* \"#utility.yul\":13938:13947   */\n      dup11\n        /* \"#utility.yul\":13934:13956   */\n      add\n        /* \"#utility.yul\":13903:13966   */\n      tag_259\n      jump\t// in\n    tag_424:\n        /* \"#utility.yul\":13893:13966   */\n      swap5\n      pop\n        /* \"#utility.yul\":13688:13976   */\n      pop\n        /* \"#utility.yul\":14015:14017   */\n      0x60\n        /* \"#utility.yul\":14041:14094   */\n      tag_425\n        /* \"#utility.yul\":14086:14093   */\n      dup10\n        /* \"#utility.yul\":14077:14083   */\n      dup3\n        /* \"#utility.yul\":14066:14075   */\n      dup11\n        /* \"#utility.yul\":14062:14084   */\n      add\n        /* \"#utility.yul\":14041:14094   */\n      tag_244\n      jump\t// in\n    tag_425:\n        /* \"#utility.yul\":14031:14094   */\n      swap4\n      pop\n        /* \"#utility.yul\":13986:14104   */\n      pop\n        /* \"#utility.yul\":14171:14174   */\n      0x80\n        /* \"#utility.yul\":14160:14169   */\n      dup8\n        /* \"#utility.yul\":14156:14175   */\n      add\n        /* \"#utility.yul\":14143:14176   */\n      calldataload\n        /* \"#utility.yul\":14203:14221   */\n      0xffffffffffffffff\n        /* \"#utility.yul\":14195:14201   */\n      dup2\n        /* \"#utility.yul\":14192:14222   */\n      gt\n        /* \"#utility.yul\":14189:14306   */\n      iszero\n      tag_426\n      jumpi\n        /* \"#utility.yul\":14225:14304   */\n      tag_427\n      tag_242\n      jump\t// in\n    tag_427:\n        /* \"#utility.yul\":14189:14306   */\n    tag_426:\n        /* \"#utility.yul\":14330:14393   */\n      tag_428\n        /* \"#utility.yul\":14385:14392   */\n      dup10\n        /* \"#utility.yul\":14376:14382   */\n      dup3\n        /* \"#utility.yul\":14365:14374   */\n      dup11\n        /* \"#utility.yul\":14361:14383   */\n      add\n        /* \"#utility.yul\":14330:14393   */\n      tag_259\n      jump\t// in\n    tag_428:\n        /* \"#utility.yul\":14320:14393   */\n      swap3\n      pop\n        /* \"#utility.yul\":14114:14403   */\n      pop\n        /* \"#utility.yul\":14442:14445   */\n      0xa0\n        /* \"#utility.yul\":14469:14522   */\n      tag_429\n        /* \"#utility.yul\":14514:14521   */\n      dup10\n        /* \"#utility.yul\":14505:14511   */\n      dup3\n        /* \"#utility.yul\":14494:14503   */\n      dup11\n        /* \"#utility.yul\":14490:14512   */\n      add\n        /* \"#utility.yul\":14469:14522   */\n      tag_244\n      jump\t// in\n    tag_429:\n        /* \"#utility.yul\":14459:14522   */\n      swap2\n      pop\n        /* \"#utility.yul\":14413:14532   */\n      pop\n        /* \"#utility.yul\":12942:14539   */\n      swap3\n      swap6\n      pop\n      swap3\n      swap6\n      pop\n      swap3\n      swap6\n      jump\t// out\n        /* \"#utility.yul\":14545:15843   */\n    tag_55:\n        /* \"#utility.yul\":14904:14908   */\n      0x00\n        /* \"#utility.yul\":14942:14945   */\n      0x0140\n        /* \"#utility.yul\":14931:14940   */\n      dup3\n        /* \"#utility.yul\":14927:14946   */\n      add\n        /* \"#utility.yul\":14919:14946   */\n      swap1\n      pop\n        /* \"#utility.yul\":14956:15027   */\n      tag_431\n        /* \"#utility.yul\":15024:15025   */\n      0x00\n        /* \"#utility.yul\":15013:15022   */\n      dup4\n        /* \"#utility.yul\":15009:15026   */\n      add\n        /* \"#utility.yul\":15000:15006   */\n      dup14\n        /* \"#utility.yul\":14956:15027   */\n      tag_248\n      jump\t// in\n    tag_431:\n        /* \"#utility.yul\":15037:15109   */\n      tag_432\n        /* \"#utility.yul\":15105:15107   */\n      0x20\n        /* \"#utility.yul\":15094:15103   */\n      dup4\n        /* \"#utility.yul\":15090:15108   */\n      add\n        /* \"#utility.yul\":15081:15087   */\n      dup13\n        /* \"#utility.yul\":15037:15109   */\n      tag_248\n      jump\t// in\n    tag_432:\n        /* \"#utility.yul\":15119:15191   */\n      tag_433\n        /* \"#utility.yul\":15187:15189   */\n      0x40\n        /* \"#utility.yul\":15176:15185   */\n      dup4\n        /* \"#utility.yul\":15172:15190   */\n      add\n        /* \"#utility.yul\":15163:15169   */\n      dup12\n        /* \"#utility.yul\":15119:15191   */\n      tag_247\n      jump\t// in\n    tag_433:\n        /* \"#utility.yul\":15201:15273   */\n      tag_434\n        /* \"#utility.yul\":15269:15271   */\n      0x60\n        /* \"#utility.yul\":15258:15267   */\n      dup4\n        /* \"#utility.yul\":15254:15272   */\n      add\n        /* \"#utility.yul\":15245:15251   */\n      dup11\n        /* \"#utility.yul\":15201:15273   */\n      tag_247\n      jump\t// in\n    tag_434:\n        /* \"#utility.yul\":15283:15356   */\n      tag_435\n        /* \"#utility.yul\":15351:15354   */\n      0x80\n        /* \"#utility.yul\":15340:15349   */\n      dup4\n        /* \"#utility.yul\":15336:15355   */\n      add\n        /* \"#utility.yul\":15327:15333   */\n      dup10\n        /* \"#utility.yul\":15283:15356   */\n      tag_248\n      jump\t// in\n    tag_435:\n        /* \"#utility.yul\":15366:15439   */\n      tag_436\n        /* \"#utility.yul\":15434:15437   */\n      0xa0\n        /* \"#utility.yul\":15423:15432   */\n      dup4\n        /* \"#utility.yul\":15419:15438   */\n      add\n        /* \"#utility.yul\":15410:15416   */\n      dup9\n        /* \"#utility.yul\":15366:15439   */\n      tag_248\n      jump\t// in\n    tag_436:\n        /* \"#utility.yul\":15449:15522   */\n      tag_437\n        /* \"#utility.yul\":15517:15520   */\n      0xc0\n        /* \"#utility.yul\":15506:15515   */\n      dup4\n        /* \"#utility.yul\":15502:15521   */\n      add\n        /* \"#utility.yul\":15493:15499   */\n      dup8\n        /* \"#utility.yul\":15449:15522   */\n      tag_248\n      jump\t// in\n    tag_437:\n        /* \"#utility.yul\":15532:15605   */\n      tag_438\n        /* \"#utility.yul\":15600:15603   */\n      0xe0\n        /* \"#utility.yul\":15589:15598   */\n      dup4\n        /* \"#utility.yul\":15585:15604   */\n      add\n        /* \"#utility.yul\":15576:15582   */\n      dup7\n        /* \"#utility.yul\":15532:15605   */\n      tag_248\n      jump\t// in\n    tag_438:\n        /* \"#utility.yul\":15653:15662   */\n      dup2\n        /* \"#utility.yul\":15647:15651   */\n      dup2\n        /* \"#utility.yul\":15643:15663   */\n      sub\n        /* \"#utility.yul\":15637:15640   */\n      0x0100\n        /* \"#utility.yul\":15626:15635   */\n      dup4\n        /* \"#utility.yul\":15622:15641   */\n      add\n        /* \"#utility.yul\":15615:15664   */\n      mstore\n        /* \"#utility.yul\":15681:15759   */\n      tag_439\n        /* \"#utility.yul\":15754:15758   */\n      dup2\n        /* \"#utility.yul\":15745:15751   */\n      dup6\n        /* \"#utility.yul\":15681:15759   */\n      tag_246\n      jump\t// in\n    tag_439:\n        /* \"#utility.yul\":15673:15759   */\n      swap1\n      pop\n        /* \"#utility.yul\":15769:15836   */\n      tag_440\n        /* \"#utility.yul\":15831:15834   */\n      0x0120\n        /* \"#utility.yul\":15820:15829   */\n      dup4\n        /* \"#utility.yul\":15816:15835   */\n      add\n        /* \"#utility.yul\":15807:15813   */\n      dup5\n        /* \"#utility.yul\":15769:15836   */\n      tag_249\n      jump\t// in\n    tag_440:\n        /* \"#utility.yul\":14545:15843   */\n      swap12\n      swap11\n      pop\n      pop\n      pop\n      pop\n      pop\n      pop\n      pop\n      pop\n      pop\n      pop\n      pop\n      jump\t// out\n        /* \"#utility.yul\":15849:15987   */\n    tag_260:\n        /* \"#utility.yul\":15940:15946   */\n      0x00\n        /* \"#utility.yul\":15974:15979   */\n      dup2\n        /* \"#utility.yul\":15968:15980   */\n      mload\n        /* \"#utility.yul\":15958:15980   */\n      swap1\n      pop\n        /* \"#utility.yul\":15849:15987   */\n      swap2\n      swap1\n      pop\n      jump\t// out\n        /* \"#utility.yul\":15993:16201   */\n    tag_261:\n        /* \"#utility.yul\":16116:16127   */\n      0x00\n        /* \"#utility.yul\":16150:16156   */\n      dup3\n        /* \"#utility.yul\":16145:16148   */\n      dup3\n        /* \"#utility.yul\":16138:16157   */\n      mstore\n        /* \"#utility.yul\":16190:16194   */\n      0x20\n        /* \"#utility.yul\":16185:16188   */\n      dup3\n        /* \"#utility.yul\":16181:16195   */\n      add\n        /* \"#utility.yul\":16166:16195   */\n      swap1\n      pop\n        /* \"#utility.yul\":15993:16201   */\n      swap3\n      swap2\n      pop\n      pop\n      jump\t// out\n        /* \"#utility.yul\":16207:16363   */\n    tag_262:\n        /* \"#utility.yul\":16298:16302   */\n      0x00\n        /* \"#utility.yul\":16321:16324   */\n      dup2\n        /* \"#utility.yul\":16313:16324   */\n      swap1\n      pop\n        /* \"#utility.yul\":16351:16355   */\n      0x20\n        /* \"#utility.yul\":16346:16349   */\n      dup3\n        /* \"#utility.yul\":16342:16356   */\n      add\n        /* \"#utility.yul\":16334:16356   */\n      swap1\n      pop\n        /* \"#utility.yul\":16207:16363   */\n      swap2\n      swap1\n      pop\n      jump\t// out\n        /* \"#utility.yul\":16427:18472   */\n    tag_263:\n        /* \"#utility.yul\":16534:16537   */\n      0x00\n        /* \"#utility.yul\":16570:16576   */\n      0x0140\n        /* \"#utility.yul\":16565:16568   */\n      dup4\n        /* \"#utility.yul\":16561:16577   */\n      add\n        /* \"#utility.yul\":16657:16661   */\n      0x00\n        /* \"#utility.yul\":16650:16655   */\n      dup4\n        /* \"#utility.yul\":16646:16662   */\n      add\n        /* \"#utility.yul\":16640:16663   */\n      mload\n        /* \"#utility.yul\":16676:16739   */\n      tag_445\n        /* \"#utility.yul\":16733:16737   */\n      0x00\n        /* \"#utility.yul\":16728:16731   */\n      dup7\n        /* \"#utility.yul\":16724:16738   */\n      add\n        /* \"#utility.yul\":16710:16722   */\n      dup3\n        /* \"#utility.yul\":16676:16739   */\n      tag_233\n      jump\t// in\n    tag_445:\n        /* \"#utility.yul\":16587:16749   */\n      pop\n        /* \"#utility.yul\":16832:16836   */\n      0x20\n        /* \"#utility.yul\":16825:16830   */\n      dup4\n        /* \"#utility.yul\":16821:16837   */\n      add\n        /* \"#utility.yul\":16815:16838   */\n      mload\n        /* \"#utility.yul\":16851:16914   */\n      tag_446\n        /* \"#utility.yul\":16908:16912   */\n      0x20\n        /* \"#utility.yul\":16903:16906   */\n      dup7\n        /* \"#utility.yul\":16899:16913   */\n      add\n        /* \"#utility.yul\":16885:16897   */\n      dup3\n        /* \"#utility.yul\":16851:16914   */\n      tag_233\n      jump\t// in\n    tag_446:\n        /* \"#utility.yul\":16759:16924   */\n      pop\n        /* \"#utility.yul\":17007:17011   */\n      0x40\n        /* \"#utility.yul\":17000:17005   */\n      dup4\n        /* \"#utility.yul\":16996:17012   */\n      add\n        /* \"#utility.yul\":16990:17013   */\n      mload\n        /* \"#utility.yul\":17026:17089   */\n      tag_447\n        /* \"#utility.yul\":17083:17087   */\n      0x40\n        /* \"#utility.yul\":17078:17081   */\n      dup7\n        /* \"#utility.yul\":17074:17088   */\n      add\n        /* \"#utility.yul\":17060:17072   */\n      dup3\n        /* \"#utility.yul\":17026:17089   */\n      tag_226\n      jump\t// in\n    tag_447:\n        /* \"#utility.yul\":16934:17099   */\n      pop\n        /* \"#utility.yul\":17183:17187   */\n      0x60\n        /* \"#utility.yul\":17176:17181   */\n      dup4\n        /* \"#utility.yul\":17172:17188   */\n      add\n        /* \"#utility.yul\":17166:17189   */\n      mload\n        /* \"#utility.yul\":17202:17265   */\n      tag_448\n        /* \"#utility.yul\":17259:17263   */\n      0x60\n        /* \"#utility.yul\":17254:17257   */\n      dup7\n        /* \"#utility.yul\":17250:17264   */\n      add\n        /* \"#utility.yul\":17236:17248   */\n      dup3\n        /* \"#utility.yul\":17202:17265   */\n      tag_226\n      jump\t// in\n    tag_448:\n        /* \"#utility.yul\":17109:17275   */\n      pop\n        /* \"#utility.yul\":17359:17363   */\n      0x80\n        /* \"#utility.yul\":17352:17357   */\n      dup4\n        /* \"#utility.yul\":17348:17364   */\n      add\n        /* \"#utility.yul\":17342:17365   */\n      mload\n        /* \"#utility.yul\":17378:17441   */\n      tag_449\n        /* \"#utility.yul\":17435:17439   */\n      0x80\n        /* \"#utility.yul\":17430:17433   */\n      dup7\n        /* \"#utility.yul\":17426:17440   */\n      add\n        /* \"#utility.yul\":17412:17424   */\n      dup3\n        /* \"#utility.yul\":17378:17441   */\n      tag_233\n      jump\t// in\n    tag_449:\n        /* \"#utility.yul\":17285:17451   */\n      pop\n        /* \"#utility.yul\":17541:17545   */\n      0xa0\n        /* \"#utility.yul\":17534:17539   */\n      dup4\n        /* \"#utility.yul\":17530:17546   */\n      add\n        /* \"#utility.yul\":17524:17547   */\n      mload\n        /* \"#utility.yul\":17560:17623   */\n      tag_450\n        /* \"#utility.yul\":17617:17621   */\n      0xa0\n        /* \"#utility.yul\":17612:17615   */\n      dup7\n        /* \"#utility.yul\":17608:17622   */\n      add\n        /* \"#utility.yul\":17594:17606   */\n      dup3\n        /* \"#utility.yul\":17560:17623   */\n      tag_233\n      jump\t// in\n    tag_450:\n        /* \"#utility.yul\":17461:17633   */\n      pop\n        /* \"#utility.yul\":17723:17727   */\n      0xc0\n        /* \"#utility.yul\":17716:17721   */\n      dup4\n        /* \"#utility.yul\":17712:17728   */\n      add\n        /* \"#utility.yul\":17706:17729   */\n      mload\n        /* \"#utility.yul\":17742:17805   */\n      tag_451\n        /* \"#utility.yul\":17799:17803   */\n      0xc0\n        /* \"#utility.yul\":17794:17797   */\n      dup7\n        /* \"#utility.yul\":17790:17804   */\n      add\n        /* \"#utility.yul\":17776:17788   */\n      dup3\n        /* \"#utility.yul\":17742:17805   */\n      tag_233\n      jump\t// in\n    tag_451:\n        /* \"#utility.yul\":17643:17815   */\n      pop\n        /* \"#utility.yul\":17910:17914   */\n      0xe0\n        /* \"#utility.yul\":17903:17908   */\n      dup4\n        /* \"#utility.yul\":17899:17915   */\n      add\n        /* \"#utility.yul\":17893:17916   */\n      mload\n        /* \"#utility.yul\":17929:17992   */\n      tag_452\n        /* \"#utility.yul\":17986:17990   */\n      0xe0\n        /* \"#utility.yul\":17981:17984   */\n      dup7\n        /* \"#utility.yul\":17977:17991   */\n      add\n        /* \"#utility.yul\":17963:17975   */\n      dup3\n        /* \"#utility.yul\":17929:17992   */\n      tag_233\n      jump\t// in\n    tag_452:\n        /* \"#utility.yul\":17825:18002   */\n      pop\n        /* \"#utility.yul\":18094:18100   */\n      0x0100\n        /* \"#utility.yul\":18087:18092   */\n      dup4\n        /* \"#utility.yul\":18083:18101   */\n      add\n        /* \"#utility.yul\":18077:18102   */\n      mload\n        /* \"#utility.yul\":18151:18154   */\n      dup5\n        /* \"#utility.yul\":18145:18149   */\n      dup3\n        /* \"#utility.yul\":18141:18155   */\n      sub\n        /* \"#utility.yul\":18132:18138   */\n      0x0100\n        /* \"#utility.yul\":18127:18130   */\n      dup7\n        /* \"#utility.yul\":18123:18139   */\n      add\n        /* \"#utility.yul\":18116:18156   */\n      mstore\n        /* \"#utility.yul\":18177:18250   */\n      tag_453\n        /* \"#utility.yul\":18245:18249   */\n      dup3\n        /* \"#utility.yul\":18231:18243   */\n      dup3\n        /* \"#utility.yul\":18177:18250   */\n      tag_231\n      jump\t// in\n    tag_453:\n        /* \"#utility.yul\":18169:18250   */\n      swap2\n      pop\n        /* \"#utility.yul\":18012:18261   */\n      pop\n        /* \"#utility.yul\":18355:18361   */\n      0x0120\n        /* \"#utility.yul\":18348:18353   */\n      dup4\n        /* \"#utility.yul\":18344:18362   */\n      add\n        /* \"#utility.yul\":18338:18363   */\n      mload\n        /* \"#utility.yul\":18376:18435   */\n      tag_454\n        /* \"#utility.yul\":18427:18433   */\n      0x0120\n        /* \"#utility.yul\":18422:18425   */\n      dup7\n        /* \"#utility.yul\":18418:18434   */\n      add\n        /* \"#utility.yul\":18404:18416   */\n      dup3\n        /* \"#utility.yul\":18376:18435   */\n      tag_235\n      jump\t// in\n    tag_454:\n        /* \"#utility.yul\":18271:18445   */\n      pop\n        /* \"#utility.yul\":18462:18466   */\n      dup1\n        /* \"#utility.yul\":18455:18466   */\n      swap2\n      pop\n        /* \"#utility.yul\":16539:18472   */\n      pop\n        /* \"#utility.yul\":16427:18472   */\n      swap3\n      swap2\n      pop\n      pop\n      jump\t// out\n        /* \"#utility.yul\":18478:18730   */\n    tag_264:\n        /* \"#utility.yul\":18595:18605   */\n      0x00\n        /* \"#utility.yul\":18630:18724   */\n      tag_456\n        /* \"#utility.yul\":18720:18723   */\n      dup4\n        /* \"#utility.yul\":18712:18718   */\n      dup4\n        /* \"#utility.yul\":18630:18724   */\n      tag_263\n      jump\t// in\n    tag_456:\n        /* \"#utility.yul\":18616:18724   */\n      swap1\n      pop\n        /* \"#utility.yul\":18478:18730   */\n      swap3\n      swap2\n      pop\n      pop\n      jump\t// out\n        /* \"#utility.yul\":18736:18873   */\n    tag_265:\n        /* \"#utility.yul\":18830:18834   */\n      0x00\n        /* \"#utility.yul\":18862:18866   */\n      0x20\n        /* \"#utility.yul\":18857:18860   */\n      dup3\n        /* \"#utility.yul\":18853:18867   */\n      add\n        /* \"#utility.yul\":18845:18867   */\n      swap1\n      pop\n        /* \"#utility.yul\":18736:18873   */\n      swap2\n      swap1\n      pop\n      jump\t// out\n        /* \"#utility.yul\":18941:20044   */\n    tag_266:\n        /* \"#utility.yul\":19108:19111   */\n      0x00\n        /* \"#utility.yul\":19137:19215   */\n      tag_459\n        /* \"#utility.yul\":19209:19214   */\n      dup3\n        /* \"#utility.yul\":19137:19215   */\n      tag_260\n      jump\t// in\n    tag_459:\n        /* \"#utility.yul\":19231:19341   */\n      tag_460\n        /* \"#utility.yul\":19334:19340   */\n      dup2\n        /* \"#utility.yul\":19329:19332   */\n      dup6\n        /* \"#utility.yul\":19231:19341   */\n      tag_261\n      jump\t// in\n    tag_460:\n        /* \"#utility.yul\":19224:19341   */\n      swap4\n      pop\n        /* \"#utility.yul\":19367:19370   */\n      dup4\n        /* \"#utility.yul\":19412:19416   */\n      0x20\n        /* \"#utility.yul\":19404:19410   */\n      dup3\n        /* \"#utility.yul\":19400:19417   */\n      mul\n        /* \"#utility.yul\":19395:19398   */\n      dup6\n        /* \"#utility.yul\":19391:19418   */\n      add\n        /* \"#utility.yul\":19442:19522   */\n      tag_461\n        /* \"#utility.yul\":19516:19521   */\n      dup6\n        /* \"#utility.yul\":19442:19522   */\n      tag_262\n      jump\t// in\n    tag_461:\n        /* \"#utility.yul\":19545:19552   */\n      dup1\n        /* \"#utility.yul\":19576:19577   */\n      0x00\n        /* \"#utility.yul\":19561:19999   */\n    tag_462:\n        /* \"#utility.yul\":19586:19592   */\n      dup6\n        /* \"#utility.yul\":19583:19584   */\n      dup2\n        /* \"#utility.yul\":19580:19593   */\n      lt\n        /* \"#utility.yul\":19561:19999   */\n      iszero\n      tag_464\n      jumpi\n        /* \"#utility.yul\":19657:19666   */\n      dup5\n        /* \"#utility.yul\":19651:19655   */\n      dup5\n        /* \"#utility.yul\":19647:19667   */\n      sub\n        /* \"#utility.yul\":19642:19645   */\n      dup10\n        /* \"#utility.yul\":19635:19668   */\n      mstore\n        /* \"#utility.yul\":19708:19714   */\n      dup2\n        /* \"#utility.yul\":19702:19715   */\n      mload\n        /* \"#utility.yul\":19736:19848   */\n      tag_465\n        /* \"#utility.yul\":19843:19847   */\n      dup6\n        /* \"#utility.yul\":19828:19841   */\n      dup3\n        /* \"#utility.yul\":19736:19848   */\n      tag_264\n      jump\t// in\n    tag_465:\n        /* \"#utility.yul\":19728:19848   */\n      swap5\n      pop\n        /* \"#utility.yul\":19871:19955   */\n      tag_466\n        /* \"#utility.yul\":19948:19954   */\n      dup4\n        /* \"#utility.yul\":19871:19955   */\n      tag_265\n      jump\t// in\n    tag_466:\n        /* \"#utility.yul\":19861:19955   */\n      swap3\n      pop\n        /* \"#utility.yul\":19984:19988   */\n      0x20\n        /* \"#utility.yul\":19979:19982   */\n      dup11\n        /* \"#utility.yul\":19975:19989   */\n      add\n        /* \"#utility.yul\":19968:19989   */\n      swap10\n      pop\n        /* \"#utility.yul\":19621:19999   */\n      pop\n        /* \"#utility.yul\":19608:19609   */\n      0x01\n        /* \"#utility.yul\":19605:19606   */\n      dup2\n        /* \"#utility.yul\":19601:19610   */\n      add\n        /* \"#utility.yul\":19596:19610   */\n      swap1\n      pop\n        /* \"#utility.yul\":19561:19999   */\n      jump(tag_462)\n    tag_464:\n        /* \"#utility.yul\":19565:19579   */\n      pop\n        /* \"#utility.yul\":20015:20019   */\n      dup3\n        /* \"#utility.yul\":20008:20019   */\n      swap8\n      pop\n        /* \"#utility.yul\":20035:20038   */\n      dup8\n        /* \"#utility.yul\":20028:20038   */\n      swap6\n      pop\n        /* \"#utility.yul\":19113:20044   */\n      pop\n      pop\n      pop\n      pop\n      pop\n        /* \"#utility.yul\":18941:20044   */\n      swap3\n      swap2\n      pop\n      pop\n      jump\t// out\n        /* \"#utility.yul\":20050:20519   */\n    tag_68:\n        /* \"#utility.yul\":20241:20245   */\n      0x00\n        /* \"#utility.yul\":20279:20281   */\n      0x20\n        /* \"#utility.yul\":20268:20277   */\n      dup3\n        /* \"#utility.yul\":20264:20282   */\n      add\n        /* \"#utility.yul\":20256:20282   */\n      swap1\n      pop\n        /* \"#utility.yul\":20328:20337   */\n      dup2\n        /* \"#utility.yul\":20322:20326   */\n      dup2\n        /* \"#utility.yul\":20318:20338   */\n      sub\n        /* \"#utility.yul\":20314:20315   */\n      0x00\n        /* \"#utility.yul\":20303:20312   */\n      dup4\n        /* \"#utility.yul\":20299:20316   */\n      add\n        /* \"#utility.yul\":20292:20339   */\n      mstore\n        /* \"#utility.yul\":20356:20512   */\n      tag_468\n        /* \"#utility.yul\":20507:20511   */\n      dup2\n        /* \"#utility.yul\":20498:20504   */\n      dup5\n        /* \"#utility.yul\":20356:20512   */\n      tag_266\n      jump\t// in\n    tag_468:\n        /* \"#utility.yul\":20348:20512   */\n      swap1\n      pop\n        /* \"#utility.yul\":20050:20519   */\n      swap3\n      swap2\n      pop\n      pop\n      jump\t// out\n        /* \"#utility.yul\":20525:20735   */\n    tag_74:\n        /* \"#utility.yul\":20612:20616   */\n      0x00\n        /* \"#utility.yul\":20650:20652   */\n      0x20\n        /* \"#utility.yul\":20639:20648   */\n      dup3\n        /* \"#utility.yul\":20635:20653   */\n      add\n        /* \"#utility.yul\":20627:20653   */\n      swap1\n      pop\n        /* \"#utility.yul\":20663:20728   */\n      tag_470\n        /* \"#utility.yul\":20725:20726   */\n      0x00\n        /* \"#utility.yul\":20714:20723   */\n      dup4\n        /* \"#utility.yul\":20710:20727   */\n      add\n        /* \"#utility.yul\":20701:20707   */\n      dup5\n        /* \"#utility.yul\":20663:20728   */\n      tag_249\n      jump\t// in\n    tag_470:\n        /* \"#utility.yul\":20525:20735   */\n      swap3\n      swap2\n      pop\n      pop\n      jump\t// out\n        /* \"#utility.yul\":20741:20921   */\n    tag_267:\n        /* \"#utility.yul\":20789:20866   */\n      0x4e487b7100000000000000000000000000000000000000000000000000000000\n        /* \"#utility.yul\":20786:20787   */\n      0x00\n        /* \"#utility.yul\":20779:20867   */\n      mstore\n        /* \"#utility.yul\":20886:20890   */\n      0x22\n        /* \"#utility.yul\":20883:20884   */\n      0x04\n        /* \"#utility.yul\":20876:20891   */\n      mstore\n        /* \"#utility.yul\":20910:20914   */\n      0x24\n        /* \"#utility.yul\":20907:20908   */\n      0x00\n        /* \"#utility.yul\":20900:20915   */\n      revert\n        /* \"#utility.yul\":20927:21247   */\n    tag_90:\n        /* \"#utility.yul\":20971:20977   */\n      0x00\n        /* \"#utility.yul\":21008:21009   */\n      0x02\n        /* \"#utility.yul\":21002:21006   */\n      dup3\n        /* \"#utility.yul\":20998:21010   */\n      div\n        /* \"#utility.yul\":20988:21010   */\n      swap1\n      pop\n        /* \"#utility.yul\":21055:21056   */\n      0x01\n        /* \"#utility.yul\":21049:21053   */\n      dup3\n        /* \"#utility.yul\":21045:21057   */\n      and\n        /* \"#utility.yul\":21076:21094   */\n      dup1\n        /* \"#utility.yul\":21066:21147   */\n      tag_473\n      jumpi\n        /* \"#utility.yul\":21132:21136   */\n      0x7f\n        /* \"#utility.yul\":21124:21130   */\n      dup3\n        /* \"#utility.yul\":21120:21137   */\n      and\n        /* \"#utility.yul\":21110:21137   */\n      swap2\n      pop\n        /* \"#utility.yul\":21066:21147   */\n    tag_473:\n        /* \"#utility.yul\":21194:21196   */\n      0x20\n        /* \"#utility.yul\":21186:21192   */\n      dup3\n        /* \"#utility.yul\":21183:21197   */\n      lt\n        /* \"#utility.yul\":21163:21181   */\n      dup2\n        /* \"#utility.yul\":21160:21198   */\n      sub\n        /* \"#utility.yul\":21157:21241   */\n      tag_474\n      jumpi\n        /* \"#utility.yul\":21213:21231   */\n      tag_475\n      tag_267\n      jump\t// in\n    tag_475:\n        /* \"#utility.yul\":21157:21241   */\n    tag_474:\n        /* \"#utility.yul\":20978:21247   */\n      pop\n        /* \"#utility.yul\":20927:21247   */\n      swap2\n      swap1\n      pop\n      jump\t// out\n        /* \"#utility.yul\":21253:21433   */\n    tag_112:\n        /* \"#utility.yul\":21301:21378   */\n      0x4e487b7100000000000000000000000000000000000000000000000000000000\n        /* \"#utility.yul\":21298:21299   */\n      0x00\n        /* \"#utility.yul\":21291:21379   */\n      mstore\n        /* \"#utility.yul\":21398:21402   */\n      0x32\n        /* \"#utility.yul\":21395:21396   */\n      0x04\n        /* \"#utility.yul\":21388:21403   */\n      mstore\n        /* \"#utility.yul\":21422:21426   */\n      0x24\n        /* \"#utility.yul\":21419:21420   */\n      0x00\n        /* \"#utility.yul\":21412:21427   */\n      revert\n        /* \"#utility.yul\":21439:21580   */\n    tag_268:\n        /* \"#utility.yul\":21488:21492   */\n      0x00\n        /* \"#utility.yul\":21511:21514   */\n      dup2\n        /* \"#utility.yul\":21503:21514   */\n      swap1\n      pop\n        /* \"#utility.yul\":21534:21537   */\n      dup2\n        /* \"#utility.yul\":21531:21532   */\n      0x00\n        /* \"#utility.yul\":21524:21538   */\n      mstore\n        /* \"#utility.yul\":21568:21572   */\n      0x20\n        /* \"#utility.yul\":21565:21566   */\n      0x00\n        /* \"#utility.yul\":21555:21573   */\n      keccak256\n        /* \"#utility.yul\":21547:21573   */\n      swap1\n      pop\n        /* \"#utility.yul\":21439:21580   */\n      swap2\n      swap1\n      pop\n      jump\t// out\n        /* \"#utility.yul\":21586:21679   */\n    tag_269:\n        /* \"#utility.yul\":21623:21629   */\n      0x00\n        /* \"#utility.yul\":21670:21672   */\n      0x20\n        /* \"#utility.yul\":21665:21667   */\n      0x1f\n        /* \"#utility.yul\":21658:21663   */\n      dup4\n        /* \"#utility.yul\":21654:21668   */\n      add\n        /* \"#utility.yul\":21650:21673   */\n      div\n        /* \"#utility.yul\":21640:21673   */\n      swap1\n      pop\n        /* \"#utility.yul\":21586:21679   */\n      swap2\n      swap1\n      pop\n      jump\t// out\n        /* \"#utility.yul\":21685:21792   */\n    tag_270:\n        /* \"#utility.yul\":21729:21737   */\n      0x00\n        /* \"#utility.yul\":21779:21784   */\n      dup3\n        /* \"#utility.yul\":21773:21777   */\n      dup3\n        /* \"#utility.yul\":21769:21785   */\n      shl\n        /* \"#utility.yul\":21748:21785   */\n      swap1\n      pop\n        /* \"#utility.yul\":21685:21792   */\n      swap3\n      swap2\n      pop\n      pop\n      jump\t// out\n        /* \"#utility.yul\":21798:22191   */\n    tag_271:\n        /* \"#utility.yul\":21867:21873   */\n      0x00\n        /* \"#utility.yul\":21917:21918   */\n      0x08\n        /* \"#utility.yul\":21905:21915   */\n      dup4\n        /* \"#utility.yul\":21901:21919   */\n      mul\n        /* \"#utility.yul\":21940:22037   */\n      tag_481\n        /* \"#utility.yul\":21970:22036   */\n      0xffffffffffffffffffffffffffffffffffffffffffffffffffffffffffffffff\n        /* \"#utility.yul\":21959:21968   */\n      dup3\n        /* \"#utility.yul\":21940:22037   */\n      tag_270\n      jump\t// in\n    tag_481:\n        /* \"#utility.yul\":22058:22097   */\n      tag_482\n        /* \"#utility.yul\":22088:22096   */\n      dup7\n        /* \"#utility.yul\":22077:22086   */\n      dup4\n        /* \"#utility.yul\":22058:22097   */\n      tag_270\n      jump\t// in\n    tag_482:\n        /* \"#utility.yul\":22046:22097   */\n      swap6\n      pop\n        /* \"#utility.yul\":22130:22134   */\n      dup1\n        /* \"#utility.yul\":22126:22135   */\n      not\n        /* \"#utility.yul\":22119:22124   */\n      dup5\n        /* \"#utility.yul\":22115:22136   */\n      and\n        /* \"#utility.yul\":22106:22136   */\n      swap4\n      pop\n        /* \"#utility.yul\":22179:22183   */\n      dup1\n        /* \"#utility.yul\":22169:22177   */\n      dup7\n        /* \"#utility.yul\":22165:22184   */\n      and\n        /* \"#utility.yul\":22158:22163   */\n      dup5\n        /* \"#utility.yul\":22155:22185   */\n      or\n        /* \"#utility.yul\":22145:22185   */\n      swap3\n      pop\n        /* \"#utility.yul\":21874:22191   */\n      pop\n      pop\n        /* \"#utility.yul\":21798:22191   */\n      swap4\n      swap3\n      pop\n      pop\n      pop\n      jump\t// out\n        /* \"#utility.yul\":22197:22257   */\n    tag_272:\n        /* \"#utility.yul\":22225:22228   */\n      0x00\n        /* \"#utility.yul\":22246:22251   */\n      dup2\n        /* \"#utility.yul\":22239:22251   */\n      swap1\n      pop\n        /* \"#utility.yul\":22197:22257   */\n      swap2\n      swap1\n      pop\n      jump\t// out\n        /* \"#utility.yul\":22263:22405   */\n    tag_273:\n        /* \"#utility.yul\":22313:22322   */\n      0x00\n        /* \"#utility.yul\":22346:22399   */\n      tag_485\n        /* \"#utility.yul\":22364:22398   */\n      tag_486\n        /* \"#utility.yul\":22373:22397   */\n      tag_487\n        /* \"#utility.yul\":22391:22396   */\n      dup5\n        /* \"#utility.yul\":22373:22397   */\n      tag_232\n      jump\t// in\n    tag_487:\n        /* \"#utility.yul\":22364:22398   */\n      tag_272\n      jump\t// in\n    tag_486:\n        /* \"#utility.yul\":22346:22399   */\n      tag_232\n      jump\t// in\n    tag_485:\n        /* \"#utility.yul\":22333:22399   */\n      swap1\n      pop\n        /* \"#utility.yul\":22263:22405   */\n      swap2\n      swap1\n      pop\n      jump\t// out\n        /* \"#utility.yul\":22411:22486   */\n    tag_274:\n        /* \"#utility.yul\":22454:22457   */\n      0x00\n        /* \"#utility.yul\":22475:22480   */\n      dup2\n        /* \"#utility.yul\":22468:22480   */\n      swap1\n      pop\n        /* \"#utility.yul\":22411:22486   */\n      swap2\n      swap1\n      pop\n      jump\t// out\n        /* \"#utility.yul\":22492:22761   */\n    tag_275:\n        /* \"#utility.yul\":22602:22641   */\n      tag_490\n        /* \"#utility.yul\":22633:22640   */\n      dup4\n        /* \"#utility.yul\":22602:22641   */\n      tag_273\n      jump\t// in\n    tag_490:\n        /* \"#utility.yul\":22663:22754   */\n      tag_491\n        /* \"#utility.yul\":22712:22753   */\n      tag_492\n        /* \"#utility.yul\":22736:22752   */\n      dup3\n        /* \"#utility.yul\":22712:22753   */\n      tag_274\n      jump\t// in\n    tag_492:\n        /* \"#utility.yul\":22704:22710   */\n      dup5\n        /* \"#utility.yul\":22697:22701   */\n      dup5\n        /* \"#utility.yul\":22691:22702   */\n      sload\n        /* \"#utility.yul\":22663:22754   */\n      tag_271\n      jump\t// in\n    tag_491:\n        /* \"#utility.yul\":22657:22661   */\n      dup3\n        /* \"#utility.yul\":22650:22755   */\n      sstore\n        /* \"#utility.yul\":22568:22761   */\n      pop\n        /* \"#utility.yul\":22492:22761   */\n      pop\n      pop\n      pop\n      jump\t// out\n        /* \"#utility.yul\":22767:22840   */\n    tag_276:\n        /* \"#utility.yul\":22812:22815   */\n      0x00\n        /* \"#utility.yul\":22767:22840   */\n      swap1\n      jump\t// out\n        /* \"#utility.yul\":22846:23035   */\n    tag_277:\n        /* \"#utility.yul\":22923:22955   */\n      tag_495\n      tag_276\n      jump\t// in\n    tag_495:\n        /* \"#utility.yul\":22964:23029   */\n      tag_496\n        /* \"#utility.yul\":23022:23028   */\n      dup2\n        /* \"#utility.yul\":23014:23020   */\n      dup5\n        /* \"#utility.yul\":23008:23012   */\n      dup5\n        /* \"#utility.yul\":22964:23029   */\n      tag_275\n      jump\t// in\n    tag_496:\n        /* \"#utility.yul\":22899:23035   */\n      pop\n        /* \"#utility.yul\":22846:23035   */\n      pop\n      pop\n      jump\t// out\n        /* \"#utility.yul\":23041:23227   */\n    tag_278:\n        /* \"#utility.yul\":23101:23221   */\n    tag_498:\n        /* \"#utility.yul\":23118:23121   */\n      dup2\n        /* \"#utility.yul\":23111:23116   */\n      dup2\n        /* \"#utility.yul\":23108:23122   */\n      lt\n        /* \"#utility.yul\":23101:23221   */\n      iszero\n      tag_500\n      jumpi\n        /* \"#utility.yul\":23172:23211   */\n      tag_501\n        /* \"#utility.yul\":23209:23210   */\n      0x00\n        /* \"#utility.yul\":23202:23207   */\n      dup3\n        /* \"#utility.yul\":23172:23211   */\n      tag_277\n      jump\t// in\n    tag_501:\n        /* \"#utility.yul\":23145:23146   */\n      0x01\n        /* \"#utility.yul\":23138:23143   */\n      dup2\n        /* \"#utility.yul\":23134:23147   */\n      add\n        /* \"#utility.yul\":23125:23147   */\n      swap1\n      pop\n        /* \"#utility.yul\":23101:23221   */\n      jump(tag_498)\n    tag_500:\n        /* \"#utility.yul\":23041:23227   */\n      pop\n      pop\n      jump\t// out\n        /* \"#utility.yul\":23233:23776   */\n    tag_279:\n        /* \"#utility.yul\":23334:23336   */\n      0x1f\n        /* \"#utility.yul\":23329:23332   */\n      dup3\n        /* \"#utility.yul\":23326:23337   */\n      gt\n        /* \"#utility.yul\":23323:23769   */\n      iszero\n      tag_503\n      jumpi\n        /* \"#utility.yul\":23368:23406   */\n      tag_504\n        /* \"#utility.yul\":23400:23405   */\n      dup2\n        /* \"#utility.yul\":23368:23406   */\n      tag_268\n      jump\t// in\n    tag_504:\n        /* \"#utility.yul\":23452:23481   */\n      tag_505\n        /* \"#utility.yul\":23470:23480   */\n      dup5\n        /* \"#utility.yul\":23452:23481   */\n      tag_269\n      jump\t// in\n    tag_505:\n        /* \"#utility.yul\":23442:23450   */\n      dup2\n        /* \"#utility.yul\":23438:23482   */\n      add\n        /* \"#utility.yul\":23635:23637   */\n      0x20\n        /* \"#utility.yul\":23623:23633   */\n      dup6\n        /* \"#utility.yul\":23620:23638   */\n      lt\n        /* \"#utility.yul\":23617:23666   */\n      iszero\n      tag_506\n      jumpi\n        /* \"#utility.yul\":23656:23664   */\n      dup2\n        /* \"#utility.yul\":23641:23664   */\n      swap1\n      pop\n        /* \"#utility.yul\":23617:23666   */\n    tag_506:\n        /* \"#utility.yul\":23679:23759   */\n      tag_507\n        /* \"#utility.yul\":23735:23757   */\n      tag_508\n        /* \"#utility.yul\":23753:23756   */\n      dup6\n        /* \"#utility.yul\":23735:23757   */\n      tag_269\n      jump\t// in\n    tag_508:\n        /* \"#utility.yul\":23725:23733   */\n      dup4\n        /* \"#utility.yul\":23721:23758   */\n      add\n        /* \"#utility.yul\":23708:23719   */\n      dup3\n        /* \"#utility.yul\":23679:23759   */\n      tag_278\n      jump\t// in\n    tag_507:\n        /* \"#utility.yul\":23338:23769   */\n      pop\n      pop\n        /* \"#utility.yul\":23323:23769   */\n    tag_503:\n        /* \"#utility.yul\":23233:23776   */\n      pop\n      pop\n      pop\n      jump\t// out\n        /* \"#utility.yul\":23782:23899   */\n    tag_280:\n        /* \"#utility.yul\":23836:23844   */\n      0x00\n        /* \"#utility.yul\":23886:23891   */\n      dup3\n        /* \"#utility.yul\":23880:23884   */\n      dup3\n        /* \"#utility.yul\":23876:23892   */\n      shr\n        /* \"#utility.yul\":23855:23892   */\n      swap1\n      pop\n        /* \"#utility.yul\":23782:23899   */\n      swap3\n      swap2\n      pop\n      pop\n      jump\t// out\n        /* \"#utility.yul\":23905:24074   */\n    tag_281:\n        /* \"#utility.yul\":23949:23955   */\n      0x00\n        /* \"#utility.yul\":23982:24033   */\n      tag_511\n        /* \"#utility.yul\":24030:24031   */\n      0x00\n        /* \"#utility.yul\":24026:24032   */\n      not\n        /* \"#utility.yul\":24018:24023   */\n      dup5\n        /* \"#utility.yul\":24015:24016   */\n      0x08\n        /* \"#utility.yul\":24011:24024   */\n      mul\n        /* \"#utility.yul\":23982:24033   */\n      tag_280\n      jump\t// in\n    tag_511:\n        /* \"#utility.yul\":23978:24034   */\n      not\n        /* \"#utility.yul\":24063:24067   */\n      dup1\n        /* \"#utility.yul\":24057:24061   */\n      dup4\n        /* \"#utility.yul\":24053:24068   */\n      and\n        /* \"#utility.yul\":24043:24068   */\n      swap2\n      pop\n        /* \"#utility.yul\":23956:24074   */\n      pop\n        /* \"#utility.yul\":23905:24074   */\n      swap3\n      swap2\n      pop\n      pop\n      jump\t// out\n        /* \"#utility.yul\":24079:24374   */\n    tag_282:\n        /* \"#utility.yul\":24155:24159   */\n      0x00\n        /* \"#utility.yul\":24301:24330   */\n      tag_513\n        /* \"#utility.yul\":24326:24329   */\n      dup4\n        /* \"#utility.yul\":24320:24324   */\n      dup4\n        /* \"#utility.yul\":24301:24330   */\n      tag_281\n      jump\t// in\n    tag_513:\n        /* \"#utility.yul\":24293:24330   */\n      swap2\n      pop\n        /* \"#utility.yul\":24363:24366   */\n      dup3\n        /* \"#utility.yul\":24360:24361   */\n      0x02\n        /* \"#utility.yul\":24356:24367   */\n      mul\n        /* \"#utility.yul\":24350:24354   */\n      dup3\n        /* \"#utility.yul\":24347:24368   */\n      or\n        /* \"#utility.yul\":24339:24368   */\n      swap1\n      pop\n        /* \"#utility.yul\":24079:24374   */\n      swap3\n      swap2\n      pop\n      pop\n      jump\t// out\n        /* \"#utility.yul\":24379:25774   */\n    tag_115:\n        /* \"#utility.yul\":24496:24533   */\n      tag_515\n        /* \"#utility.yul\":24529:24532   */\n      dup3\n        /* \"#utility.yul\":24496:24533   */\n      tag_227\n      jump\t// in\n    tag_515:\n        /* \"#utility.yul\":24598:24616   */\n      0xffffffffffffffff\n        /* \"#utility.yul\":24590:24596   */\n      dup2\n        /* \"#utility.yul\":24587:24617   */\n      gt\n        /* \"#utility.yul\":24584:24640   */\n      iszero\n      tag_516\n      jumpi\n        /* \"#utility.yul\":24620:24638   */\n      tag_517\n      tag_81\n      jump\t// in\n    tag_517:\n        /* \"#utility.yul\":24584:24640   */\n    tag_516:\n        /* \"#utility.yul\":24664:24702   */\n      tag_518\n        /* \"#utility.yul\":24696:24700   */\n      dup3\n        /* \"#utility.yul\":24690:24701   */\n      sload\n        /* \"#utility.yul\":24664:24702   */\n      tag_90\n      jump\t// in\n    tag_518:\n        /* \"#utility.yul\":24749:24816   */\n      tag_519\n        /* \"#utility.yul\":24809:24815   */\n      dup3\n        /* \"#utility.yul\":24801:24807   */\n      dup3\n        /* \"#utility.yul\":24795:24799   */\n      dup6\n        /* \"#utility.yul\":24749:24816   */\n      tag_279\n      jump\t// in\n    tag_519:\n        /* \"#utility.yul\":24843:24844   */\n      0x00\n        /* \"#utility.yul\":24867:24871   */\n      0x20\n        /* \"#utility.yul\":24854:24871   */\n      swap1\n      pop\n        /* \"#utility.yul\":24899:24901   */\n      0x1f\n        /* \"#utility.yul\":24891:24897   */\n      dup4\n        /* \"#utility.yul\":24888:24902   */\n      gt\n        /* \"#utility.yul\":24916:24917   */\n      0x01\n        /* \"#utility.yul\":24911:25529   */\n      dup2\n      eq\n      tag_521\n      jumpi\n        /* \"#utility.yul\":25573:25574   */\n      0x00\n        /* \"#utility.yul\":25590:25596   */\n      dup5\n        /* \"#utility.yul\":25587:25664   */\n      iszero\n      tag_522\n      jumpi\n        /* \"#utility.yul\":25639:25648   */\n      dup3\n        /* \"#utility.yul\":25634:25637   */\n      dup8\n        /* \"#utility.yul\":25630:25649   */\n      add\n        /* \"#utility.yul\":25624:25650   */\n      mload\n        /* \"#utility.yul\":25615:25650   */\n      swap1\n      pop\n        /* \"#utility.yul\":25587:25664   */\n    tag_522:\n        /* \"#utility.yul\":25690:25757   */\n      tag_523\n        /* \"#utility.yul\":25750:25756   */\n      dup6\n        /* \"#utility.yul\":25743:25748   */\n      dup3\n        /* \"#utility.yul\":25690:25757   */\n      tag_282\n      jump\t// in\n    tag_523:\n        /* \"#utility.yul\":25684:25688   */\n      dup7\n        /* \"#utility.yul\":25677:25758   */\n      sstore\n        /* \"#utility.yul\":25546:25768   */\n      pop\n        /* \"#utility.yul\":24881:25768   */\n      jump(tag_520)\n        /* \"#utility.yul\":24911:25529   */\n    tag_521:\n        /* \"#utility.yul\":24963:24967   */\n      0x1f\n        /* \"#utility.yul\":24959:24968   */\n      not\n        /* \"#utility.yul\":24951:24957   */\n      dup5\n        /* \"#utility.yul\":24947:24969   */\n      and\n        /* \"#utility.yul\":24997:25034   */\n      tag_524\n        /* \"#utility.yul\":25029:25033   */\n      dup7\n        /* \"#utility.yul\":24997:25034   */\n      tag_268\n      jump\t// in\n    tag_524:\n        /* \"#utility.yul\":25056:25057   */\n      0x00\n        /* \"#utility.yul\":25070:25278   */\n    tag_525:\n        /* \"#utility.yul\":25084:25091   */\n      dup3\n        /* \"#utility.yul\":25081:25082   */\n      dup2\n        /* \"#utility.yul\":25078:25092   */\n      lt\n        /* \"#utility.yul\":25070:25278   */\n      iszero\n      tag_527\n      jumpi\n        /* \"#utility.yul\":25163:25172   */\n      dup5\n        /* \"#utility.yul\":25158:25161   */\n      dup10\n        /* \"#utility.yul\":25154:25173   */\n      add\n        /* \"#utility.yul\":25148:25174   */\n      mload\n        /* \"#utility.yul\":25140:25146   */\n      dup3\n        /* \"#utility.yul\":25133:25175   */\n      sstore\n        /* \"#utility.yul\":25214:25215   */\n      0x01\n        /* \"#utility.yul\":25206:25212   */\n      dup3\n        /* \"#utility.yul\":25202:25216   */\n      add\n        /* \"#utility.yul\":25192:25216   */\n      swap2\n      pop\n        /* \"#utility.yul\":25261:25263   */\n      0x20\n        /* \"#utility.yul\":25250:25259   */\n      dup6\n        /* \"#utility.yul\":25246:25264   */\n      add\n        /* \"#utility.yul\":25233:25264   */\n      swap5\n      pop\n        /* \"#utility.yul\":25107:25111   */\n      0x20\n        /* \"#utility.yul\":25104:25105   */\n      dup2\n        /* \"#utility.yul\":25100:25112   */\n      add\n        /* \"#utility.yul\":25095:25112   */\n      swap1\n      pop\n        /* \"#utility.yul\":25070:25278   */\n      jump(tag_525)\n    tag_527:\n        /* \"#utility.yul\":25306:25312   */\n      dup7\n        /* \"#utility.yul\":25297:25304   */\n      dup4\n        /* \"#utility.yul\":25294:25313   */\n      lt\n        /* \"#utility.yul\":25291:25470   */\n      iszero\n      tag_528\n      jumpi\n        /* \"#utility.yul\":25364:25373   */\n      dup5\n        /* \"#utility.yul\":25359:25362   */\n      dup10\n        /* \"#utility.yul\":25355:25374   */\n      add\n        /* \"#utility.yul\":25349:25375   */\n      mload\n        /* \"#utility.yul\":25407:25455   */\n      tag_529\n        /* \"#utility.yul\":25449:25453   */\n      0x1f\n        /* \"#utility.yul\":25441:25447   */\n      dup10\n        /* \"#utility.yul\":25437:25454   */\n      and\n        /* \"#utility.yul\":25426:25435   */\n      dup3\n        /* \"#utility.yul\":25407:25455   */\n      tag_281\n      jump\t// in\n    tag_529:\n        /* \"#utility.yul\":25399:25405   */\n      dup4\n        /* \"#utility.yul\":25392:25456   */\n      sstore\n        /* \"#utility.yul\":25314:25470   */\n      pop\n        /* \"#utility.yul\":25291:25470   */\n    tag_528:\n        /* \"#utility.yul\":25516:25517   */\n      0x01\n        /* \"#utility.yul\":25512:25513   */\n      0x02\n        /* \"#utility.yul\":25504:25510   */\n      dup9\n        /* \"#utility.yul\":25500:25514   */\n      mul\n        /* \"#utility.yul\":25496:25518   */\n      add\n        /* \"#utility.yul\":25490:25494   */\n      dup9\n        /* \"#utility.yul\":25483:25519   */\n      sstore\n        /* \"#utility.yul\":24918:25529   */\n      pop\n      pop\n      pop\n        /* \"#utility.yul\":24881:25768   */\n    tag_520:\n      pop\n        /* \"#utility.yul\":24471:25774   */\n      pop\n      pop\n      pop\n        /* \"#utility.yul\":24379:25774   */\n      pop\n      pop\n      jump\t// out\n        /* \"#utility.yul\":25780:25960   */\n    tag_283:\n        /* \"#utility.yul\":25828:25905   */\n      0x4e487b7100000000000000000000000000000000000000000000000000000000\n        /* \"#utility.yul\":25825:25826   */\n      0x00\n        /* \"#utility.yul\":25818:25906   */\n      mstore\n        /* \"#utility.yul\":25925:25929   */\n      0x11\n        /* \"#utility.yul\":25922:25923   */\n      0x04\n        /* \"#utility.yul\":25915:25930   */\n      mstore\n        /* \"#utility.yul\":25949:25953   */\n      0x24\n        /* \"#utility.yul\":25946:25947   */\n      0x00\n        /* \"#utility.yul\":25939:25954   */\n      revert\n        /* \"#utility.yul\":25966:26199   */\n    tag_148:\n        /* \"#utility.yul\":26005:26008   */\n      0x00\n        /* \"#utility.yul\":26028:26052   */\n      tag_532\n        /* \"#utility.yul\":26046:26051   */\n      dup3\n        /* \"#utility.yul\":26028:26052   */\n      tag_232\n      jump\t// in\n    tag_532:\n        /* \"#utility.yul\":26019:26052   */\n      swap2\n      pop\n        /* \"#utility.yul\":26074:26140   */\n      0xffffffffffffffffffffffffffffffffffffffffffffffffffffffffffffffff\n        /* \"#utility.yul\":26067:26072   */\n      dup3\n        /* \"#utility.yul\":26064:26141   */\n      sub\n        /* \"#utility.yul\":26061:26164   */\n      tag_533\n      jumpi\n        /* \"#utility.yul\":26144:26162   */\n      tag_534\n      tag_283\n      jump\t// in\n    tag_534:\n        /* \"#utility.yul\":26061:26164   */\n    tag_533:\n        /* \"#utility.yul\":26191:26192   */\n      0x01\n        /* \"#utility.yul\":26184:26189   */\n      dup3\n        /* \"#utility.yul\":26180:26193   */\n      add\n        /* \"#utility.yul\":26173:26193   */\n      swap1\n      pop\n        /* \"#utility.yul\":25966:26199   */\n      swap2\n      swap1\n      pop\n      jump\t// out\n        /* \"#utility.yul\":26205:26379   */\n    tag_284:\n        /* \"#utility.yul\":26345:26371   */\n      0x496e636f7272656374207061796d656e7420616d6f756e740000000000000000\n        /* \"#utility.yul\":26341:26342   */\n      0x00\n        /* \"#utility.yul\":26333:26339   */\n      dup3\n        /* \"#utility.yul\":26329:26343   */\n      add\n        /* \"#utility.yul\":26322:26372   */\n      mstore\n        /* \"#utility.yul\":26205:26379   */\n      pop\n      jump\t// out\n        /* \"#utility.yul\":26385:26751   */\n    tag_285:\n        /* \"#utility.yul\":26527:26530   */\n      0x00\n        /* \"#utility.yul\":26548:26615   */\n      tag_537\n        /* \"#utility.yul\":26612:26614   */\n      0x18\n        /* \"#utility.yul\":26607:26610   */\n      dup4\n        /* \"#utility.yul\":26548:26615   */\n      tag_245\n      jump\t// in\n    tag_537:\n        /* \"#utility.yul\":26541:26615   */\n      swap2\n      pop\n        /* \"#utility.yul\":26624:26717   */\n      tag_538\n        /* \"#utility.yul\":26713:26716   */\n      dup3\n        /* \"#utility.yul\":26624:26717   */\n      tag_284\n      jump\t// in\n    tag_538:\n        /* \"#utility.yul\":26742:26744   */\n      0x20\n        /* \"#utility.yul\":26737:26740   */\n      dup3\n        /* \"#utility.yul\":26733:26745   */\n      add\n        /* \"#utility.yul\":26726:26745   */\n      swap1\n      pop\n        /* \"#utility.yul\":26385:26751   */\n      swap2\n      swap1\n      pop\n      jump\t// out\n        /* \"#utility.yul\":26757:27176   */\n    tag_164:\n        /* \"#utility.yul\":26923:26927   */\n      0x00\n        /* \"#utility.yul\":26961:26963   */\n      0x20\n        /* \"#utility.yul\":26950:26959   */\n      dup3\n        /* \"#utility.yul\":26946:26964   */\n      add\n        /* \"#utility.yul\":26938:26964   */\n      swap1\n      pop\n        /* \"#utility.yul\":27010:27019   */\n      dup2\n        /* \"#utility.yul\":27004:27008   */\n      dup2\n        /* \"#utility.yul\":27000:27020   */\n      sub\n        /* \"#utility.yul\":26996:26997   */\n      0x00\n        /* \"#utility.yul\":26985:26994   */\n      dup4\n        /* \"#utility.yul\":26981:26998   */\n      add\n        /* \"#utility.yul\":26974:27021   */\n      mstore\n        /* \"#utility.yul\":27038:27169   */\n      tag_540\n        /* \"#utility.yul\":27164:27168   */\n      dup2\n        /* \"#utility.yul\":27038:27169   */\n      tag_285\n      jump\t// in\n    tag_540:\n        /* \"#utility.yul\":27030:27169   */\n      swap1\n      pop\n        /* \"#utility.yul\":26757:27176   */\n      swap2\n      swap1\n      pop\n      jump\t// out\n        /* \"#utility.yul\":27182:27329   */\n    tag_286:\n        /* \"#utility.yul\":27283:27294   */\n      0x00\n        /* \"#utility.yul\":27320:27323   */\n      dup2\n        /* \"#utility.yul\":27305:27323   */\n      swap1\n      pop\n        /* \"#utility.yul\":27182:27329   */\n      swap3\n      swap2\n      pop\n      pop\n      jump\t// out\n        /* \"#utility.yul\":27335:27449   */\n    tag_287:\n      pop\n      jump\t// out\n        /* \"#utility.yul\":27455:27853   */\n    tag_288:\n        /* \"#utility.yul\":27614:27617   */\n      0x00\n        /* \"#utility.yul\":27635:27718   */\n      tag_544\n        /* \"#utility.yul\":27716:27717   */\n      0x00\n        /* \"#utility.yul\":27711:27714   */\n      dup4\n        /* \"#utility.yul\":27635:27718   */\n      tag_286\n      jump\t// in\n    tag_544:\n        /* \"#utility.yul\":27628:27718   */\n      swap2\n      pop\n        /* \"#utility.yul\":27727:27820   */\n      tag_545\n        /* \"#utility.yul\":27816:27819   */\n      dup3\n        /* \"#utility.yul\":27727:27820   */\n      tag_287\n      jump\t// in\n    tag_545:\n        /* \"#utility.yul\":27845:27846   */\n      0x00\n        /* \"#utility.yul\":27840:27843   */\n      dup3\n        /* \"#utility.yul\":27836:27847   */\n      add\n        /* \"#utility.yul\":27829:27847   */\n      swap1\n      pop\n        /* \"#utility.yul\":27455:27853   */\n      swap2\n      swap1\n      pop\n      jump\t// out\n        /* \"#utility.yul\":27859:28238   */\n    tag_166:\n        /* \"#utility.yul\":28043:28046   */\n      0x00\n        /* \"#utility.yul\":28065:28212   */\n      tag_547\n        /* \"#utility.yul\":28208:28211   */\n      dup3\n        /* \"#utility.yul\":28065:28212   */\n      tag_288\n      jump\t// in\n    tag_547:\n        /* \"#utility.yul\":28058:28212   */\n      swap2\n      pop\n        /* \"#utility.yul\":28229:28232   */\n      dup2\n        /* \"#utility.yul\":28222:28232   */\n      swap1\n      pop\n        /* \"#utility.yul\":27859:28238   */\n      swap2\n      swap1\n      pop\n      jump\t// out\n        /* \"#utility.yul\":28244:28408   */\n    tag_289:\n        /* \"#utility.yul\":28384:28400   */\n      0x5061796d656e74206661696c6564000000000000000000000000000000000000\n        /* \"#utility.yul\":28380:28381   */\n      0x00\n        /* \"#utility.yul\":28372:28378   */\n      dup3\n        /* \"#utility.yul\":28368:28382   */\n      add\n        /* \"#utility.yul\":28361:28401   */\n      mstore\n        /* \"#utility.yul\":28244:28408   */\n      pop\n      jump\t// out\n        /* \"#utility.yul\":28414:28780   */\n    tag_290:\n        /* \"#utility.yul\":28556:28559   */\n      0x00\n        /* \"#utility.yul\":28577:28644   */\n      tag_550\n        /* \"#utility.yul\":28641:28643   */\n      0x0e\n        /* \"#utility.yul\":28636:28639   */\n      dup4\n        /* \"#utility.yul\":28577:28644   */\n      tag_245\n      jump\t// in\n    tag_550:\n        /* \"#utility.yul\":28570:28644   */\n      swap2\n      pop\n        /* \"#utility.yul\":28653:28746   */\n      tag_551\n        /* \"#utility.yul\":28742:28745   */\n      dup3\n        /* \"#utility.yul\":28653:28746   */\n      tag_289\n      jump\t// in\n    tag_551:\n        /* \"#utility.yul\":28771:28773   */\n      0x20\n        /* \"#utility.yul\":28766:28769   */\n      dup3\n        /* \"#utility.yul\":28762:28774   */\n      add\n        /* \"#utility.yul\":28755:28774   */\n      swap1\n      pop\n        /* \"#utility.yul\":28414:28780   */\n      swap2\n      swap1\n      pop\n      jump\t// out\n        /* \"#utility.yul\":28786:29205   */\n    tag_172:\n        /* \"#utility.yul\":28952:28956   */\n      0x00\n        /* \"#utility.yul\":28990:28992   */\n      0x20\n        /* \"#utility.yul\":28979:28988   */\n      dup3\n        /* \"#utility.yul\":28975:28993   */\n      add\n        /* \"#utility.yul\":28967:28993   */\n      swap1\n      pop\n        /* \"#utility.yul\":29039:29048   */\n      dup2\n        /* \"#utility.yul\":29033:29037   */\n      dup2\n        /* \"#utility.yul\":29029:29049   */\n      sub\n        /* \"#utility.yul\":29025:29026   */\n      0x00\n        /* \"#utility.yul\":29014:29023   */\n      dup4\n        /* \"#utility.yul\":29010:29027   */\n      add\n        /* \"#utility.yul\":29003:29050   */\n      mstore\n        /* \"#utility.yul\":29067:29198   */\n      tag_553\n        /* \"#utility.yul\":29193:29197   */\n      dup2\n        /* \"#utility.yul\":29067:29198   */\n      tag_290\n      jump\t// in\n    tag_553:\n        /* \"#utility.yul\":29059:29198   */\n      swap1\n      pop\n        /* \"#utility.yul\":28786:29205   */\n      swap2\n      swap1\n      pop\n      jump\t// out\n        /* \"#utility.yul\":29211:29764   */\n    tag_174:\n        /* \"#utility.yul\":29388:29392   */\n      0x00\n        /* \"#utility.yul\":29426:29429   */\n      0x80\n        /* \"#utility.yul\":29415:29424   */\n      dup3\n        /* \"#utility.yul\":29411:29430   */\n      add\n        /* \"#utility.yul\":29403:29430   */\n      swap1\n      pop\n        /* \"#utility.yul\":29440:29511   */\n      tag_555\n        /* \"#utility.yul\":29508:29509   */\n      0x00\n        /* \"#utility.yul\":29497:29506   */\n      dup4\n        /* \"#utility.yul\":29493:29510   */\n      add\n        /* \"#utility.yul\":29484:29490   */\n      dup8\n        /* \"#utility.yul\":29440:29511   */\n      tag_248\n      jump\t// in\n    tag_555:\n        /* \"#utility.yul\":29521:29593   */\n      tag_556\n        /* \"#utility.yul\":29589:29591   */\n      0x20\n        /* \"#utility.yul\":29578:29587   */\n      dup4\n        /* \"#utility.yul\":29574:29592   */\n      add\n        /* \"#utility.yul\":29565:29571   */\n      dup7\n        /* \"#utility.yul\":29521:29593   */\n      tag_247\n      jump\t// in\n    tag_556:\n        /* \"#utility.yul\":29603:29675   */\n      tag_557\n        /* \"#utility.yul\":29671:29673   */\n      0x40\n        /* \"#utility.yul\":29660:29669   */\n      dup4\n        /* \"#utility.yul\":29656:29674   */\n      add\n        /* \"#utility.yul\":29647:29653   */\n      dup6\n        /* \"#utility.yul\":29603:29675   */\n      tag_247\n      jump\t// in\n    tag_557:\n        /* \"#utility.yul\":29685:29757   */\n      tag_558\n        /* \"#utility.yul\":29753:29755   */\n      0x60\n        /* \"#utility.yul\":29742:29751   */\n      dup4\n        /* \"#utility.yul\":29738:29756   */\n      add\n        /* \"#utility.yul\":29729:29735   */\n      dup5\n        /* \"#utility.yul\":29685:29757   */\n      tag_248\n      jump\t// in\n    tag_558:\n        /* \"#utility.yul\":29211:29764   */\n      swap6\n      swap5\n      pop\n      pop\n      pop\n      pop\n      pop\n      jump\t// out\n        /* \"#utility.yul\":29770:29961   */\n    tag_176:\n        /* \"#utility.yul\":29810:29813   */\n      0x00\n        /* \"#utility.yul\":29829:29849   */\n      tag_560\n        /* \"#utility.yul\":29847:29848   */\n      dup3\n        /* \"#utility.yul\":29829:29849   */\n      tag_232\n      jump\t// in\n    tag_560:\n        /* \"#utility.yul\":29824:29849   */\n      swap2\n      pop\n        /* \"#utility.yul\":29863:29883   */\n      tag_561\n        /* \"#utility.yul\":29881:29882   */\n      dup4\n        /* \"#utility.yul\":29863:29883   */\n      tag_232\n      jump\t// in\n    tag_561:\n        /* \"#utility.yul\":29858:29883   */\n      swap3\n      pop\n        /* \"#utility.yul\":29906:29907   */\n      dup3\n        /* \"#utility.yul\":29903:29904   */\n      dup3\n        /* \"#utility.yul\":29899:29908   */\n      add\n        /* \"#utility.yul\":29892:29908   */\n      swap1\n      pop\n        /* \"#utility.yul\":29927:29930   */\n      dup1\n        /* \"#utility.yul\":29924:29925   */\n      dup3\n        /* \"#utility.yul\":29921:29931   */\n      gt\n        /* \"#utility.yul\":29918:29954   */\n      iszero\n      tag_562\n      jumpi\n        /* \"#utility.yul\":29934:29952   */\n      tag_563\n      tag_283\n      jump\t// in\n    tag_563:\n        /* \"#utility.yul\":29918:29954   */\n    tag_562:\n        /* \"#utility.yul\":29770:29961   */\n      swap3\n      swap2\n      pop\n      pop\n      jump\t// out\n        /* \"#utility.yul\":29967:30161   */\n    tag_178:\n        /* \"#utility.yul\":30007:30011   */\n      0x00\n        /* \"#utility.yul\":30027:30047   */\n      tag_565\n        /* \"#utility.yul\":30045:30046   */\n      dup3\n        /* \"#utility.yul\":30027:30047   */\n      tag_232\n      jump\t// in\n    tag_565:\n        /* \"#utility.yul\":30022:30047   */\n      swap2\n      pop\n        /* \"#utility.yul\":30061:30081   */\n      tag_566\n        /* \"#utility.yul\":30079:30080   */\n      dup4\n        /* \"#utility.yul\":30061:30081   */\n      tag_232\n      jump\t// in\n    tag_566:\n        /* \"#utility.yul\":30056:30081   */\n      swap3\n      pop\n        /* \"#utility.yul\":30105:30106   */\n      dup3\n        /* \"#utility.yul\":30102:30103   */\n      dup3\n        /* \"#utility.yul\":30098:30107   */\n      sub\n        /* \"#utility.yul\":30090:30107   */\n      swap1\n      pop\n        /* \"#utility.yul\":30129:30130   */\n      dup2\n        /* \"#utility.yul\":30123:30127   */\n      dup2\n        /* \"#utility.yul\":30120:30131   */\n      gt\n        /* \"#utility.yul\":30117:30154   */\n      iszero\n      tag_567\n      jumpi\n        /* \"#utility.yul\":30134:30152   */\n      tag_568\n      tag_283\n      jump\t// in\n    tag_568:\n        /* \"#utility.yul\":30117:30154   */\n    tag_567:\n        /* \"#utility.yul\":29967:30161   */\n      swap3\n      swap2\n      pop\n      pop\n      jump\t// out\n        /* \"#utility.yul\":30167:30340   */\n    tag_291:\n        /* \"#utility.yul\":30307:30332   */\n      0x417274776f726b206973206f7574206f662073746f636b000000000000000000\n        /* \"#utility.yul\":30303:30304   */\n      0x00\n        /* \"#utility.yul\":30295:30301   */\n      dup3\n        /* \"#utility.yul\":30291:30305   */\n      add\n        /* \"#utility.yul\":30284:30333   */\n      mstore\n        /* \"#utility.yul\":30167:30340   */\n      pop\n      jump\t// out\n        /* \"#utility.yul\":30346:30712   */\n    tag_292:\n        /* \"#utility.yul\":30488:30491   */\n      0x00\n        /* \"#utility.yul\":30509:30576   */\n      tag_571\n        /* \"#utility.yul\":30573:30575   */\n      0x17\n        /* \"#utility.yul\":30568:30571   */\n      dup4\n        /* \"#utility.yul\":30509:30576   */\n      tag_245\n      jump\t// in\n    tag_571:\n        /* \"#utility.yul\":30502:30576   */\n      swap2\n      pop\n        /* \"#utility.yul\":30585:30678   */\n      tag_572\n        /* \"#utility.yul\":30674:30677   */\n      dup3\n        /* \"#utility.yul\":30585:30678   */\n      tag_291\n      jump\t// in\n    tag_572:\n        /* \"#utility.yul\":30703:30705   */\n      0x20\n        /* \"#utility.yul\":30698:30701   */\n      dup3\n        /* \"#utility.yul\":30694:30706   */\n      add\n        /* \"#utility.yul\":30687:30706   */\n      swap1\n      pop\n        /* \"#utility.yul\":30346:30712   */\n      swap2\n      swap1\n      pop\n      jump\t// out\n        /* \"#utility.yul\":30718:31137   */\n    tag_202:\n        /* \"#utility.yul\":30884:30888   */\n      0x00\n        /* \"#utility.yul\":30922:30924   */\n      0x20\n        /* \"#utility.yul\":30911:30920   */\n      dup3\n        /* \"#utility.yul\":30907:30925   */\n      add\n        /* \"#utility.yul\":30899:30925   */\n      swap1\n      pop\n        /* \"#utility.yul\":30971:30980   */\n      dup2\n        /* \"#utility.yul\":30965:30969   */\n      dup2\n        /* \"#utility.yul\":30961:30981   */\n      sub\n        /* \"#utility.yul\":30957:30958   */\n      0x00\n        /* \"#utility.yul\":30946:30955   */\n      dup4\n        /* \"#utility.yul\":30942:30959   */\n      add\n        /* \"#utility.yul\":30935:30982   */\n      mstore\n        /* \"#utility.yul\":30999:31130   */\n      tag_574\n        /* \"#utility.yul\":31125:31129   */\n      dup2\n        /* \"#utility.yul\":30999:31130   */\n      tag_292\n      jump\t// in\n    tag_574:\n        /* \"#utility.yul\":30991:31130   */\n      swap1\n      pop\n        /* \"#utility.yul\":30718:31137   */\n      swap2\n      swap1\n      pop\n      jump\t// out\n        /* \"#utility.yul\":31143:31553   */\n    tag_204:\n        /* \"#utility.yul\":31183:31190   */\n      0x00\n        /* \"#utility.yul\":31206:31226   */\n      tag_576\n        /* \"#utility.yul\":31224:31225   */\n      dup3\n        /* \"#utility.yul\":31206:31226   */\n      tag_232\n      jump\t// in\n    tag_576:\n        /* \"#utility.yul\":31201:31226   */\n      swap2\n      pop\n        /* \"#utility.yul\":31240:31260   */\n      tag_577\n        /* \"#utility.yul\":31258:31259   */\n      dup4\n        /* \"#utility.yul\":31240:31260   */\n      tag_232\n      jump\t// in\n    tag_577:\n        /* \"#utility.yul\":31235:31260   */\n      swap3\n      pop\n        /* \"#utility.yul\":31295:31296   */\n      dup3\n        /* \"#utility.yul\":31292:31293   */\n      dup3\n        /* \"#utility.yul\":31288:31297   */\n      mul\n        /* \"#utility.yul\":31317:31347   */\n      tag_578\n        /* \"#utility.yul\":31335:31346   */\n      dup2\n        /* \"#utility.yul\":31317:31347   */\n      tag_232\n      jump\t// in\n    tag_578:\n        /* \"#utility.yul\":31306:31347   */\n      swap2\n      pop\n        /* \"#utility.yul\":31496:31497   */\n      dup3\n        /* \"#utility.yul\":31487:31494   */\n      dup3\n        /* \"#utility.yul\":31483:31498   */\n      div\n        /* \"#utility.yul\":31480:31481   */\n      dup5\n        /* \"#utility.yul\":31477:31499   */\n      eq\n        /* \"#utility.yul\":31457:31458   */\n      dup4\n        /* \"#utility.yul\":31450:31459   */\n      iszero\n        /* \"#utility.yul\":31430:31513   */\n      or\n        /* \"#utility.yul\":31407:31546   */\n      tag_579\n      jumpi\n        /* \"#utility.yul\":31526:31544   */\n      tag_580\n      tag_283\n      jump\t// in\n    tag_580:\n        /* \"#utility.yul\":31407:31546   */\n    tag_579:\n        /* \"#utility.yul\":31191:31553   */\n      pop\n        /* \"#utility.yul\":31143:31553   */\n      swap3\n      swap2\n      pop\n      pop\n      jump\t// out\n        /* \"#utility.yul\":31559:31739   */\n    tag_293:\n        /* \"#utility.yul\":31607:31684   */\n      0x4e487b7100000000000000000000000000000000000000000000000000000000\n        /* \"#utility.yul\":31604:31605   */\n      0x00\n        /* \"#utility.yul\":31597:31685   */\n      mstore\n        /* \"#utility.yul\":31704:31708   */\n      0x12\n        /* \"#utility.yul\":31701:31702   */\n      0x04\n        /* \"#utility.yul\":31694:31709   */\n      mstore\n        /* \"#utility.yul\":31728:31732   */\n      0x24\n        /* \"#utility.yul\":31725:31726   */\n      0x00\n        /* \"#utility.yul\":31718:31733   */\n      revert\n        /* \"#utility.yul\":31745:31930   */\n    tag_206:\n        /* \"#utility.yul\":31785:31786   */\n      0x00\n        /* \"#utility.yul\":31802:31822   */\n      tag_583\n        /* \"#utility.yul\":31820:31821   */\n      dup3\n        /* \"#utility.yul\":31802:31822   */\n      tag_232\n      jump\t// in\n    tag_583:\n        /* \"#utility.yul\":31797:31822   */\n      swap2\n      pop\n        /* \"#utility.yul\":31836:31856   */\n      tag_584\n        /* \"#utility.yul\":31854:31855   */\n      dup4\n        /* \"#utility.yul\":31836:31856   */\n      tag_232\n      jump\t// in\n    tag_584:\n        /* \"#utility.yul\":31831:31856   */\n      swap3\n      pop\n        /* \"#utility.yul\":31875:31876   */\n      dup3\n        /* \"#utility.yul\":31865:31900   */\n      tag_585\n      jumpi\n        /* \"#utility.yul\":31880:31898   */\n      tag_586\n      tag_293\n      jump\t// in\n    tag_586:\n        /* \"#utility.yul\":31865:31900   */\n    tag_585:\n        /* \"#utility.yul\":31922:31923   */\n      dup3\n        /* \"#utility.yul\":31919:31920   */\n      dup3\n        /* \"#utility.yul\":31915:31924   */\n      div\n        /* \"#utility.yul\":31910:31924   */\n      swap1\n      pop\n        /* \"#utility.yul\":31745:31930   */\n      swap3\n      swap2\n      pop\n      pop\n      jump\t// out\n        /* \"#utility.yul\":31936:32107   */\n    tag_216:\n        /* \"#utility.yul\":31975:31978   */\n      0x00\n        /* \"#utility.yul\":31998:32022   */\n      tag_588\n        /* \"#utility.yul\":32016:32021   */\n      dup3\n        /* \"#utility.yul\":31998:32022   */\n      tag_232\n      jump\t// in\n    tag_588:\n        /* \"#utility.yul\":31989:32022   */\n      swap2\n      pop\n        /* \"#utility.yul\":32044:32048   */\n      0x00\n        /* \"#utility.yul\":32037:32042   */\n      dup3\n        /* \"#utility.yul\":32034:32049   */\n      sub\n        /* \"#utility.yul\":32031:32072   */\n      tag_589\n      jumpi\n        /* \"#utility.yul\":32052:32070   */\n      tag_590\n      tag_283\n      jump\t// in\n    tag_590:\n        /* \"#utility.yul\":32031:32072   */\n    tag_589:\n        /* \"#utility.yul\":32099:32100   */\n      0x01\n        /* \"#utility.yul\":32092:32097   */\n      dup3\n        /* \"#utility.yul\":32088:32101   */\n      sub\n        /* \"#utility.yul\":32081:32101   */\n      swap1\n      pop\n        /* \"#utility.yul\":31936:32107   */\n      swap2\n      swap1\n      pop\n      jump\t// out\n    stop\n    data_e96d3a6979e49746cdacf1c8530bbde7f04d61cdcb7dc51b2048ceaf86509dbd 68747470733a2f2f62616679626569656a3665706e36693275703562666d6a69696c376835676c706561706e636c67656573357a623668736f6b646d796a79327337792e697066732e647765622e6c696e6b2f617274776f726b253230253238312532392e6a736f6e\n\n    auxdata: 0xa26469706673582212201e9364231c6aea89cfe22dcf529e7b1e99b7a90c21f9c2a785affce47c12074464736f6c634300081a0033\n}\n",
				"bytecode": {
					"linkReferences": {},
					"object": "6080604052348015600e575f80fd5b5061279d8061001c5f395ff3fe6080604052600436106100a5575f3560e01c80638392fe31116100635780638392fe31146101f357806394ecf65d146102385780639b171c1e14610254578063c47f0f9014610290578063d80fa7cf146102ba578063e44c3c4b146102f6576100a5565b8062a71527146100a9578063385fe0a9146100d35780634b6026731461010f57806379cd49211461015357806379f9ec1c1461018f57806382c9804a146101b7575b5f80fd5b3480156100b4575f80fd5b506100bd610312565b6040516100ca91906119f5565b60405180910390f35b3480156100de575f80fd5b506100f960048036038101906100f49190611a50565b6106e3565b6040516101069190611ac3565b60405180910390f35b34801561011a575f80fd5b5061013560048036038101906101309190611a50565b6107d3565b60405161014a99989796959493929190611b10565b60405180910390f35b34801561015e575f80fd5b5061017960048036038101906101749190611bb7565b610a7f565b6040516101869190611bf5565b60405180910390f35b34801561019a575f80fd5b506101b560048036038101906101b09190611d64565b610aab565b005b3480156101c2575f80fd5b506101dd60048036038101906101d89190611a50565b610be5565b6040516101ea9190611ac3565b60405180910390f35b3480156101fe575f80fd5b5061021960048036038101906102149190611a50565b610cd5565b60405161022f9a99989796959493929190611e41565b60405180910390f35b610252600480360381019061024d9190611a50565b610df5565b005b34801561025f575f80fd5b5061027a60048036038101906102759190611a50565b611030565b6040516102879190611bf5565b60405180910390f35b34801561029b575f80fd5b506102a4611052565b6040516102b19190612074565b60405180910390f35b3480156102c5575f80fd5b506102e060048036038101906102db9190611a50565b61129d565b6040516102ed9190612094565b60405180910390f35b610310600480360381019061030b9190611a50565b611311565b005b60605f805467ffffffffffffffff8111156103305761032f611c40565b5b60405190808252806020026020018201604052801561036957816020015b610356611695565b81526020019060019003908161034e5790505b5090505f5b5f548110156106db575f60025f8381526020019081526020015f20905080604051806101200160405290815f82015f9054906101000a900473ffffffffffffffffffffffffffffffffffffffff1673ffffffffffffffffffffffffffffffffffffffff1673ffffffffffffffffffffffffffffffffffffffff1681526020016001820180546103fc906120da565b80601f0160208091040260200160405190810160405280929190818152602001828054610428906120da565b80156104735780601f1061044a57610100808354040283529160200191610473565b820191905f5260205f20905b81548152906001019060200180831161045657829003601f168201915b5050505050815260200160028201805461048c906120da565b80601f01602080910402602001604051908101604052809291908181526020018280546104b8906120da565b80156105035780601f106104da57610100808354040283529160200191610503565b820191905f5260205f20905b8154815290600101906020018083116104e657829003601f168201915b5050505050815260200160038201548152602001600482018054610526906120da565b80601f0160208091040260200160405190810160405280929190818152602001828054610552906120da565b801561059d5780601f106105745761010080835404028352916020019161059d565b820191905f5260205f20905b81548152906001019060200180831161058057829003601f168201915b5050505050815260200160058201548152602001600682015f9054906101000a900460ff161515151581526020016007820180546105da906120da565b80601f0160208091040260200160405190810160405280929190818152602001828054610606906120da565b80156106515780601f1061062857610100808354040283529160200191610651565b820191905f5260205f20905b81548152906001019060200180831161063457829003601f168201915b50505050508152602001600882015f9054906101000a900473ffffffffffffffffffffffffffffffffffffffff1673ffffffffffffffffffffffffffffffffffffffff1673ffffffffffffffffffffffffffffffffffffffff16815250508383815181106106c2576106c161210a565b5b602002602001018190525050808060010191505061036e565b508091505090565b60605f60035f8481526020019081526020015f2090506040518060400160405280600a81526020017f446973706174636865640000000000000000000000000000000000000000000081525081600801908161073f91906122d4565b5080600801805461074f906120da565b80601f016020809104026020016040519081016040528092919081815260200182805461077b906120da565b80156107c65780601f1061079d576101008083540402835291602001916107c6565b820191905f5260205f20905b8154815290600101906020018083116107a957829003601f168201915b5050505050915050919050565b6002602052805f5260405f205f91509050805f015f9054906101000a900473ffffffffffffffffffffffffffffffffffffffff1690806001018054610817906120da565b80601f0160208091040260200160405190810160405280929190818152602001828054610843906120da565b801561088e5780601f106108655761010080835404028352916020019161088e565b820191905f5260205f20905b81548152906001019060200180831161087157829003601f168201915b5050505050908060020180546108a3906120da565b80601f01602080910402602001604051908101604052809291908181526020018280546108cf906120da565b801561091a5780601f106108f15761010080835404028352916020019161091a565b820191905f5260205f20905b8154815290600101906020018083116108fd57829003601f168201915b505050505090806003015490806004018054610935906120da565b80601f0160208091040260200160405190810160405280929190818152602001828054610961906120da565b80156109ac5780601f10610983576101008083540402835291602001916109ac565b820191905f5260205f20905b81548152906001019060200180831161098f57829003601f168201915b505050505090806005015490806006015f9054906101000a900460ff16908060070180546109d9906120da565b80601f0160208091040260200160405190810160405280929190818152602001828054610a05906120da565b8015610a505780601f10610a2757610100808354040283529160200191610a50565b820191905f5260205f20905b815481529060010190602001808311610a3357829003601f168201915b505050505090806008015f9054906101000a900473ffffffffffffffffffffffffffffffffffffffff16905089565b5f8060025f8581526020019081526020015f209050828160050181905550806005015491505092915050565b5f60025f805481526020019081526020015f20905086815f015f6101000a81548173ffffffffffffffffffffffffffffffffffffffff021916908373ffffffffffffffffffffffffffffffffffffffff16021790555085816001019081610b1291906122d4565b5084816002019081610b2491906122d4565b5083816003018190555082816004019081610b3f91906122d4565b508181600501819055505f816006015f6101000a81548160ff02191690831515021790555060405180602001604052805f815250816007019081610b8391906122d4565b5086816008015f6101000a81548173ffffffffffffffffffffffffffffffffffffffff021916908373ffffffffffffffffffffffffffffffffffffffff1602179055505f80815480929190610bd7906123d0565b919050555050505050505050565b60605f60035f8481526020019081526020015f2090506040518060400160405280600981526020017f44656c6976657265640000000000000000000000000000000000000000000000815250816008019081610c4191906122d4565b50806008018054610c51906120da565b80601f0160208091040260200160405190810160405280929190818152602001828054610c7d906120da565b8015610cc85780601f10610c9f57610100808354040283529160200191610cc8565b820191905f5260205f20905b815481529060010190602001808311610cab57829003601f168201915b5050505050915050919050565b6003602052805f5260405f205f91509050805f015490806001015490806002015f9054906101000a900473ffffffffffffffffffffffffffffffffffffffff1690806003015f9054906101000a900473ffffffffffffffffffffffffffffffffffffffff1690806004015490806005015490806006015490806007015490806008018054610d62906120da565b80601f0160208091040260200160405190810160405280929190818152602001828054610d8e906120da565b8015610dd95780601f10610db057610100808354040283529160200191610dd9565b820191905f5260205f20905b815481529060010190602001808311610dbc57829003601f168201915b505050505090806009015f9054906101000a900460ff1690508a565b5f60035f8381526020019081526020015f2090506001816009015f6101000a81548160ff0219169083151502179055505f60025f836001015481526020019081526020015f2090505f82600701549050803414610e87576040517f08c379a0000000000000000000000000000000000000000000000000000000008152600401610e7e90612461565b60405180910390fd5b5f825f015f9054906101000a900473ffffffffffffffffffffffffffffffffffffffff1673ffffffffffffffffffffffffffffffffffffffff1682604051610ece906124ac565b5f6040518083038185875af1925050503d805f8114610f08576040519150601f19603f3d011682016040523d82523d5f602084013e610f0d565b606091505b5050905080610f51576040517f08c379a0000000000000000000000000000000000000000000000000000000008152600401610f489061250a565b60405180910390fd5b7fa27a7e11a23b47207454244ae3eddefdfaf476d024076f73c2d5bb9f36ebe8db846001015433855f015f9054906101000a900473ffffffffffffffffffffffffffffffffffffffff1685604051610fac9493929190612528565b60405180910390a133835f015f6101000a81548173ffffffffffffffffffffffffffffffffffffffff021916908373ffffffffffffffffffffffffffffffffffffffff16021790555081846006015f828254611008919061256b565b9250508190555081846007015f828254611022919061259e565b925050819055505050505050565b5f8060025f8481526020019081526020015f2090508060050154915050919050565b60605f60015467ffffffffffffffff81111561107157611070611c40565b5b6040519080825280602002602001820160405280156110aa57816020015b61109761170a565b81526020019060019003908161108f5790505b5090505f5b600154811015611295575f60035f8381526020019081526020015f20905080604051806101400160405290815f820154815260200160018201548152602001600282015f9054906101000a900473ffffffffffffffffffffffffffffffffffffffff1673ffffffffffffffffffffffffffffffffffffffff1673ffffffffffffffffffffffffffffffffffffffff168152602001600382015f9054906101000a900473ffffffffffffffffffffffffffffffffffffffff1673ffffffffffffffffffffffffffffffffffffffff1673ffffffffffffffffffffffffffffffffffffffff168152602001600482015481526020016005820154815260200160068201548152602001600782015481526020016008820180546111cf906120da565b80601f01602080910402602001604051908101604052809291908181526020018280546111fb906120da565b80156112465780601f1061121d57610100808354040283529160200191611246565b820191905f5260205f20905b81548152906001019060200180831161122957829003601f168201915b50505050508152602001600982015f9054906101000a900460ff16151515158152505083838151811061127c5761127b61210a565b5b60200260200101819052505080806001019150506110af565b508091505090565b5f8060025f8481526020019081526020015f2090506001816006015f6101000a81548160ff0219169083151502179055506040518060a00160405280606981526020016126ff606991398160070190816112f791906122d4565b50806006015f9054906101000a900460ff16915050919050565b5f60025f8381526020019081526020015f2090505f81600501541161136b576040517f08c379a00000000000000000000000000000000000000000000000000000000081526004016113629061261b565b60405180910390fd5b5f60648260030154600a61137f9190612639565b61138991906126a7565b90508034146113cd576040517f08c379a00000000000000000000000000000000000000000000000000000000081526004016113c490612461565b60405180910390fd5b5f825f015f9054906101000a900473ffffffffffffffffffffffffffffffffffffffff1673ffffffffffffffffffffffffffffffffffffffff1682604051611414906124ac565b5f6040518083038185875af1925050503d805f811461144e576040519150601f19603f3d011682016040523d82523d5f602084013e611453565b606091505b5050905080611497576040517f08c379a000000000000000000000000000000000000000000000000000000000815260040161148e9061250a565b60405180910390fd5b826005015f8154809291906114ab906126d7565b91905055505f60035f60015481526020019081526020015f209050600154815f018190555084816001018190555033816002015f6101000a81548173ffffffffffffffffffffffffffffffffffffffff021916908373ffffffffffffffffffffffffffffffffffffffff160217905550835f015f9054906101000a900473ffffffffffffffffffffffffffffffffffffffff16816003015f6101000a81548173ffffffffffffffffffffffffffffffffffffffff021916908373ffffffffffffffffffffffffffffffffffffffff160217905550828160040181905550836003015481600501819055508281600601819055508284600301546115ae919061259e565b81600701819055506040518060400160405280600c81526020017f696e2077617265686f75736500000000000000000000000000000000000000008152508160080190816115fc91906122d4565b505f816009015f6101000a81548160ff02191690831515021790555060015f81548092919061162a906123d0565b91905055507fa27a7e11a23b47207454244ae3eddefdfaf476d024076f73c2d5bb9f36ebe8db8533865f015f9054906101000a900473ffffffffffffffffffffffffffffffffffffffff16866040516116869493929190612528565b60405180910390a15050505050565b6040518061012001604052805f73ffffffffffffffffffffffffffffffffffffffff16815260200160608152602001606081526020015f8152602001606081526020015f81526020015f15158152602001606081526020015f73ffffffffffffffffffffffffffffffffffffffff1681525090565b6040518061014001604052805f81526020015f81526020015f73ffffffffffffffffffffffffffffffffffffffff1681526020015f73ffffffffffffffffffffffffffffffffffffffff1681526020015f81526020015f81526020015f81526020015f8152602001606081526020015f151581525090565b5f81519050919050565b5f82825260208201905092915050565b5f819050602082019050919050565b5f73ffffffffffffffffffffffffffffffffffffffff82169050919050565b5f6117d4826117ab565b9050919050565b6117e4816117ca565b82525050565b5f81519050919050565b5f82825260208201905092915050565b8281835e5f83830152505050565b5f601f19601f8301169050919050565b5f61182c826117ea565b61183681856117f4565b9350611846818560208601611804565b61184f81611812565b840191505092915050565b5f819050919050565b61186c8161185a565b82525050565b5f8115159050919050565b61188681611872565b82525050565b5f61012083015f8301516118a25f8601826117db565b50602083015184820360208601526118ba8282611822565b915050604083015184820360408601526118d48282611822565b91505060608301516118e96060860182611863565b50608083015184820360808601526119018282611822565b91505060a083015161191660a0860182611863565b5060c083015161192960c086018261187d565b5060e083015184820360e08601526119418282611822565b9150506101008301516119586101008601826117db565b508091505092915050565b5f61196e838361188c565b905092915050565b5f602082019050919050565b5f61198c82611782565b611996818561178c565b9350836020820285016119a88561179c565b805f5b858110156119e357848403895281516119c48582611963565b94506119cf83611976565b925060208a019950506001810190506119ab565b50829750879550505050505092915050565b5f6020820190508181035f830152611a0d8184611982565b905092915050565b5f604051905090565b5f80fd5b5f80fd5b611a2f8161185a565b8114611a39575f80fd5b50565b5f81359050611a4a81611a26565b92915050565b5f60208284031215611a6557611a64611a1e565b5b5f611a7284828501611a3c565b91505092915050565b5f82825260208201905092915050565b5f611a95826117ea565b611a9f8185611a7b565b9350611aaf818560208601611804565b611ab881611812565b840191505092915050565b5f6020820190508181035f830152611adb8184611a8b565b905092915050565b611aec816117ca565b82525050565b611afb8161185a565b82525050565b611b0a81611872565b82525050565b5f61012082019050611b245f83018c611ae3565b8181036020830152611b36818b611a8b565b90508181036040830152611b4a818a611a8b565b9050611b596060830189611af2565b8181036080830152611b6b8188611a8b565b9050611b7a60a0830187611af2565b611b8760c0830186611b01565b81810360e0830152611b998185611a8b565b9050611ba9610100830184611ae3565b9a9950505050505050505050565b5f8060408385031215611bcd57611bcc611a1e565b5b5f611bda85828601611a3c565b9250506020611beb85828601611a3c565b9150509250929050565b5f602082019050611c085f830184611af2565b92915050565b611c17816117ca565b8114611c21575f80fd5b50565b5f81359050611c3281611c0e565b92915050565b5f80fd5b5f80fd5b7f4e487b71000000000000000000000000000000000000000000000000000000005f52604160045260245ffd5b611c7682611812565b810181811067ffffffffffffffff82111715611c9557611c94611c40565b5b80604052505050565b5f611ca7611a15565b9050611cb38282611c6d565b919050565b5f67ffffffffffffffff821115611cd257611cd1611c40565b5b611cdb82611812565b9050602081019050919050565b828183375f83830152505050565b5f611d08611d0384611cb8565b611c9e565b905082815260208101848484011115611d2457611d23611c3c565b5b611d2f848285611ce8565b509392505050565b5f82601f830112611d4b57611d4a611c38565b5b8135611d5b848260208601611cf6565b91505092915050565b5f805f805f8060c08789031215611d7e57611d7d611a1e565b5b5f611d8b89828a01611c24565b965050602087013567ffffffffffffffff811115611dac57611dab611a22565b5b611db889828a01611d37565b955050604087013567ffffffffffffffff811115611dd957611dd8611a22565b5b611de589828a01611d37565b9450506060611df689828a01611a3c565b935050608087013567ffffffffffffffff811115611e1757611e16611a22565b5b611e2389828a01611d37565b92505060a0611e3489828a01611a3c565b9150509295509295509295565b5f61014082019050611e555f83018d611af2565b611e62602083018c611af2565b611e6f604083018b611ae3565b611e7c606083018a611ae3565b611e896080830189611af2565b611e9660a0830188611af2565b611ea360c0830187611af2565b611eb060e0830186611af2565b818103610100830152611ec38185611a8b565b9050611ed3610120830184611b01565b9b9a5050505050505050505050565b5f81519050919050565b5f82825260208201905092915050565b5f819050602082019050919050565b5f61014083015f830151611f215f860182611863565b506020830151611f346020860182611863565b506040830151611f4760408601826117db565b506060830151611f5a60608601826117db565b506080830151611f6d6080860182611863565b5060a0830151611f8060a0860182611863565b5060c0830151611f9360c0860182611863565b5060e0830151611fa660e0860182611863565b50610100830151848203610100860152611fc08282611822565b915050610120830151611fd761012086018261187d565b508091505092915050565b5f611fed8383611f0b565b905092915050565b5f602082019050919050565b5f61200b82611ee2565b6120158185611eec565b93508360208202850161202785611efc565b805f5b8581101561206257848403895281516120438582611fe2565b945061204e83611ff5565b925060208a0199505060018101905061202a565b50829750879550505050505092915050565b5f6020820190508181035f83015261208c8184612001565b905092915050565b5f6020820190506120a75f830184611b01565b92915050565b7f4e487b71000000000000000000000000000000000000000000000000000000005f52602260045260245ffd5b5f60028204905060018216806120f157607f821691505b602082108103612104576121036120ad565b5b50919050565b7f4e487b71000000000000000000000000000000000000000000000000000000005f52603260045260245ffd5b5f819050815f5260205f209050919050565b5f6020601f8301049050919050565b5f82821b905092915050565b5f600883026121937fffffffffffffffffffffffffffffffffffffffffffffffffffffffffffffffff82612158565b61219d8683612158565b95508019841693508086168417925050509392505050565b5f819050919050565b5f6121d86121d36121ce8461185a565b6121b5565b61185a565b9050919050565b5f819050919050565b6121f1836121be565b6122056121fd826121df565b848454612164565b825550505050565b5f90565b61221961220d565b6122248184846121e8565b505050565b5b818110156122475761223c5f82612211565b60018101905061222a565b5050565b601f82111561228c5761225d81612137565b61226684612149565b81016020851015612275578190505b61228961228185612149565b830182612229565b50505b505050565b5f82821c905092915050565b5f6122ac5f1984600802612291565b1980831691505092915050565b5f6122c4838361229d565b9150826002028217905092915050565b6122dd826117ea565b67ffffffffffffffff8111156122f6576122f5611c40565b5b61230082546120da565b61230b82828561224b565b5f60209050601f83116001811461233c575f841561232a578287015190505b61233485826122b9565b86555061239b565b601f19841661234a86612137565b5f5b828110156123715784890151825560018201915060208501945060208101905061234c565b8683101561238e578489015161238a601f89168261229d565b8355505b6001600288020188555050505b505050505050565b7f4e487b71000000000000000000000000000000000000000000000000000000005f52601160045260245ffd5b5f6123da8261185a565b91507fffffffffffffffffffffffffffffffffffffffffffffffffffffffffffffffff820361240c5761240b6123a3565b5b600182019050919050565b7f496e636f7272656374207061796d656e7420616d6f756e7400000000000000005f82015250565b5f61244b601883611a7b565b915061245682612417565b602082019050919050565b5f6020820190508181035f8301526124788161243f565b9050919050565b5f81905092915050565b50565b5f6124975f8361247f565b91506124a282612489565b5f82019050919050565b5f6124b68261248c565b9150819050919050565b7f5061796d656e74206661696c65640000000000000000000000000000000000005f82015250565b5f6124f4600e83611a7b565b91506124ff826124c0565b602082019050919050565b5f6020820190508181035f830152612521816124e8565b9050919050565b5f60808201905061253b5f830187611af2565b6125486020830186611ae3565b6125556040830185611ae3565b6125626060830184611af2565b95945050505050565b5f6125758261185a565b91506125808361185a565b9250828201905080821115612598576125976123a3565b5b92915050565b5f6125a88261185a565b91506125b38361185a565b92508282039050818111156125cb576125ca6123a3565b5b92915050565b7f417274776f726b206973206f7574206f662073746f636b0000000000000000005f82015250565b5f612605601783611a7b565b9150612610826125d1565b602082019050919050565b5f6020820190508181035f830152612632816125f9565b9050919050565b5f6126438261185a565b915061264e8361185a565b925082820261265c8161185a565b91508282048414831517612673576126726123a3565b5b5092915050565b7f4e487b71000000000000000000000000000000000000000000000000000000005f52601260045260245ffd5b5f6126b18261185a565b91506126bc8361185a565b9250826126cc576126cb61267a565b5b828204905092915050565b5f6126e18261185a565b91505f82036126f3576126f26123a3565b5b60018203905091905056fe68747470733a2f2f62616679626569656a3665706e36693275703562666d6a69696c376835676c706561706e636c67656573357a623668736f6b646d796a79327337792e697066732e647765622e6c696e6b2f617274776f726b253230253238312532392e6a736f6ea26469706673582212201e9364231c6aea89cfe22dcf529e7b1e99b7a90c21f9c2a785affce47c12074464736f6c634300081a0033",
					"opcodes": "PUSH1 0x80 PUSH1 0x40 MSTORE CALLVALUE DUP1 ISZERO PUSH1 0xE JUMPI PUSH0 DUP1 REVERT JUMPDEST POP PUSH2 0x279D DUP1 PUSH2 0x1C PUSH0 CODECOPY PUSH0 RETURN INVALID PUSH1 0x80 PUSH1 0x40 MSTORE PUSH1 0x4 CALLDATASIZE LT PUSH2 0xA5 JUMPI PUSH0 CALLDATALOAD PUSH1 0xE0 SHR DUP1 PUSH4 0x8392FE31 GT PUSH2 0x63 JUMPI DUP1 PUSH4 0x8392FE31 EQ PUSH2 0x1F3 JUMPI DUP1 PUSH4 0x94ECF65D EQ PUSH2 0x238 JUMPI DUP1 PUSH4 0x9B171C1E EQ PUSH2 0x254 JUMPI DUP1 PUSH4 0xC47F0F90 EQ PUSH2 0x290 JUMPI DUP1 PUSH4 0xD80FA7CF EQ PUSH2 0x2BA JUMPI DUP1 PUSH4 0xE44C3C4B EQ PUSH2 0x2F6 JUMPI PUSH2 0xA5 JUMP JUMPDEST DUP1 PUSH3 0xA71527 EQ PUSH2 0xA9 JUMPI DUP1 PUSH4 0x385FE0A9 EQ PUSH2 0xD3 JUMPI DUP1 PUSH4 0x4B602673 EQ PUSH2 0x10F JUMPI DUP1 PUSH4 0x79CD4921 EQ PUSH2 0x153 JUMPI DUP1 PUSH4 0x79F9EC1C EQ PUSH2 0x18F JUMPI DUP1 PUSH4 0x82C9804A EQ PUSH2 0x1B7 JUMPI JUMPDEST PUSH0 DUP1 REVERT JUMPDEST CALLVALUE DUP1 ISZERO PUSH2 0xB4 JUMPI PUSH0 DUP1 REVERT JUMPDEST POP PUSH2 0xBD PUSH2 0x312 JUMP JUMPDEST PUSH1 0x40 MLOAD PUSH2 0xCA SWAP2 SWAP1 PUSH2 0x19F5 JUMP JUMPDEST PUSH1 0x40 MLOAD DUP1 SWAP2 SUB SWAP1 RETURN JUMPDEST CALLVALUE DUP1 ISZERO PUSH2 0xDE JUMPI PUSH0 DUP1 REVERT JUMPDEST POP PUSH2 0xF9 PUSH1 0x4 DUP1 CALLDATASIZE SUB DUP2 ADD SWAP1 PUSH2 0xF4 SWAP2 SWAP1 PUSH2 0x1A50 JUMP JUMPDEST PUSH2 0x6E3 JUMP JUMPDEST PUSH1 0x40 MLOAD PUSH2 0x106 SWAP2 SWAP1 PUSH2 0x1AC3 JUMP JUMPDEST PUSH1 0x40 MLOAD DUP1 SWAP2 SUB SWAP1 RETURN JUMPDEST CALLVALUE DUP1 ISZERO PUSH2 0x11A JUMPI PUSH0 DUP1 REVERT JUMPDEST POP PUSH2 0x135 PUSH1 0x4 DUP1 CALLDATASIZE SUB DUP2 ADD SWAP1 PUSH2 0x130 SWAP2 SWAP1 PUSH2 0x1A50 JUMP JUMPDEST PUSH2 0x7D3 JUMP JUMPDEST PUSH1 0x40 MLOAD PUSH2 0x14A SWAP10 SWAP9 SWAP8 SWAP7 SWAP6 SWAP5 SWAP4 SWAP3 SWAP2 SWAP1 PUSH2 0x1B10 JUMP JUMPDEST PUSH1 0x40 MLOAD DUP1 SWAP2 SUB SWAP1 RETURN JUMPDEST CALLVALUE DUP1 ISZERO PUSH2 0x15E JUMPI PUSH0 DUP1 REVERT JUMPDEST POP PUSH2 0x179 PUSH1 0x4 DUP1 CALLDATASIZE SUB DUP2 ADD SWAP1 PUSH2 0x174 SWAP2 SWAP1 PUSH2 0x1BB7 JUMP JUMPDEST PUSH2 0xA7F JUMP JUMPDEST PUSH1 0x40 MLOAD PUSH2 0x186 SWAP2 SWAP1 PUSH2 0x1BF5 JUMP JUMPDEST PUSH1 0x40 MLOAD DUP1 SWAP2 SUB SWAP1 RETURN JUMPDEST CALLVALUE DUP1 ISZERO PUSH2 0x19A JUMPI PUSH0 DUP1 REVERT JUMPDEST POP PUSH2 0x1B5 PUSH1 0x4 DUP1 CALLDATASIZE SUB DUP2 ADD SWAP1 PUSH2 0x1B0 SWAP2 SWAP1 PUSH2 0x1D64 JUMP JUMPDEST PUSH2 0xAAB JUMP JUMPDEST STOP JUMPDEST CALLVALUE DUP1 ISZERO PUSH2 0x1C2 JUMPI PUSH0 DUP1 REVERT JUMPDEST POP PUSH2 0x1DD PUSH1 0x4 DUP1 CALLDATASIZE SUB DUP2 ADD SWAP1 PUSH2 0x1D8 SWAP2 SWAP1 PUSH2 0x1A50 JUMP JUMPDEST PUSH2 0xBE5 JUMP JUMPDEST PUSH1 0x40 MLOAD PUSH2 0x1EA SWAP2 SWAP1 PUSH2 0x1AC3 JUMP JUMPDEST PUSH1 0x40 MLOAD DUP1 SWAP2 SUB SWAP1 RETURN JUMPDEST CALLVALUE DUP1 ISZERO PUSH2 0x1FE JUMPI PUSH0 DUP1 REVERT JUMPDEST POP PUSH2 0x219 PUSH1 0x4 DUP1 CALLDATASIZE SUB DUP2 ADD SWAP1 PUSH2 0x214 SWAP2 SWAP1 PUSH2 0x1A50 JUMP JUMPDEST PUSH2 0xCD5 JUMP JUMPDEST PUSH1 0x40 MLOAD PUSH2 0x22F SWAP11 SWAP10 SWAP9 SWAP8 SWAP7 SWAP6 SWAP5 SWAP4 SWAP3 SWAP2 SWAP1 PUSH2 0x1E41 JUMP JUMPDEST PUSH1 0x40 MLOAD DUP1 SWAP2 SUB SWAP1 RETURN JUMPDEST PUSH2 0x252 PUSH1 0x4 DUP1 CALLDATASIZE SUB DUP2 ADD SWAP1 PUSH2 0x24D SWAP2 SWAP1 PUSH2 0x1A50 JUMP JUMPDEST PUSH2 0xDF5 JUMP JUMPDEST STOP JUMPDEST CALLVALUE DUP1 ISZERO PUSH2 0x25F JUMPI PUSH0 DUP1 REVERT JUMPDEST POP PUSH2 0x27A PUSH1 0x4 DUP1 CALLDATASIZE SUB DUP2 ADD SWAP1 PUSH2 0x275 SWAP2 SWAP1 PUSH2 0x1A50 JUMP JUMPDEST PUSH2 0x1030 JUMP JUMPDEST PUSH1 0x40 MLOAD PUSH2 0x287 SWAP2 SWAP1 PUSH2 0x1BF5 JUMP JUMPDEST PUSH1 0x40 MLOAD DUP1 SWAP2 SUB SWAP1 RETURN JUMPDEST CALLVALUE DUP1 ISZERO PUSH2 0x29B JUMPI PUSH0 DUP1 REVERT JUMPDEST POP PUSH2 0x2A4 PUSH2 0x1052 JUMP JUMPDEST PUSH1 0x40 MLOAD PUSH2 0x2B1 SWAP2 SWAP1 PUSH2 0x2074 JUMP JUMPDEST PUSH1 0x40 MLOAD DUP1 SWAP2 SUB SWAP1 RETURN JUMPDEST CALLVALUE DUP1 ISZERO PUSH2 0x2C5 JUMPI PUSH0 DUP1 REVERT JUMPDEST POP PUSH2 0x2E0 PUSH1 0x4 DUP1 CALLDATASIZE SUB DUP2 ADD SWAP1 PUSH2 0x2DB SWAP2 SWAP1 PUSH2 0x1A50 JUMP JUMPDEST PUSH2 0x129D JUMP JUMPDEST PUSH1 0x40 MLOAD PUSH2 0x2ED SWAP2 SWAP1 PUSH2 0x2094 JUMP JUMPDEST PUSH1 0x40 MLOAD DUP1 SWAP2 SUB SWAP1 RETURN JUMPDEST PUSH2 0x310 PUSH1 0x4 DUP1 CALLDATASIZE SUB DUP2 ADD SWAP1 PUSH2 0x30B SWAP2 SWAP1 PUSH2 0x1A50 JUMP JUMPDEST PUSH2 0x1311 JUMP JUMPDEST STOP JUMPDEST PUSH1 0x60 PUSH0 DUP1 SLOAD PUSH8 0xFFFFFFFFFFFFFFFF DUP2 GT ISZERO PUSH2 0x330 JUMPI PUSH2 0x32F PUSH2 0x1C40 JUMP JUMPDEST JUMPDEST PUSH1 0x40 MLOAD SWAP1 DUP1 DUP3 MSTORE DUP1 PUSH1 0x20 MUL PUSH1 0x20 ADD DUP3 ADD PUSH1 0x40 MSTORE DUP1 ISZERO PUSH2 0x369 JUMPI DUP2 PUSH1 0x20 ADD JUMPDEST PUSH2 0x356 PUSH2 0x1695 JUMP JUMPDEST DUP2 MSTORE PUSH1 0x20 ADD SWAP1 PUSH1 0x1 SWAP1 SUB SWAP1 DUP2 PUSH2 0x34E JUMPI SWAP1 POP JUMPDEST POP SWAP1 POP PUSH0 JUMPDEST PUSH0 SLOAD DUP2 LT ISZERO PUSH2 0x6DB JUMPI PUSH0 PUSH1 0x2 PUSH0 DUP4 DUP2 MSTORE PUSH1 0x20 ADD SWAP1 DUP2 MSTORE PUSH1 0x20 ADD PUSH0 KECCAK256 SWAP1 POP DUP1 PUSH1 0x40 MLOAD DUP1 PUSH2 0x120 ADD PUSH1 0x40 MSTORE SWAP1 DUP2 PUSH0 DUP3 ADD PUSH0 SWAP1 SLOAD SWAP1 PUSH2 0x100 EXP SWAP1 DIV PUSH20 0xFFFFFFFFFFFFFFFFFFFFFFFFFFFFFFFFFFFFFFFF AND PUSH20 0xFFFFFFFFFFFFFFFFFFFFFFFFFFFFFFFFFFFFFFFF AND PUSH20 0xFFFFFFFFFFFFFFFFFFFFFFFFFFFFFFFFFFFFFFFF AND DUP2 MSTORE PUSH1 0x20 ADD PUSH1 0x1 DUP3 ADD DUP1 SLOAD PUSH2 0x3FC SWAP1 PUSH2 0x20DA JUMP JUMPDEST DUP1 PUSH1 0x1F ADD PUSH1 0x20 DUP1 SWAP2 DIV MUL PUSH1 0x20 ADD PUSH1 0x40 MLOAD SWAP1 DUP2 ADD PUSH1 0x40 MSTORE DUP1 SWAP3 SWAP2 SWAP1 DUP2 DUP2 MSTORE PUSH1 0x20 ADD DUP3 DUP1 SLOAD PUSH2 0x428 SWAP1 PUSH2 0x20DA JUMP JUMPDEST DUP1 ISZERO PUSH2 0x473 JUMPI DUP1 PUSH1 0x1F LT PUSH2 0x44A JUMPI PUSH2 0x100 DUP1 DUP4 SLOAD DIV MUL DUP4 MSTORE SWAP2 PUSH1 0x20 ADD SWAP2 PUSH2 0x473 JUMP JUMPDEST DUP3 ADD SWAP2 SWAP1 PUSH0 MSTORE PUSH1 0x20 PUSH0 KECCAK256 SWAP1 JUMPDEST DUP2 SLOAD DUP2 MSTORE SWAP1 PUSH1 0x1 ADD SWAP1 PUSH1 0x20 ADD DUP1 DUP4 GT PUSH2 0x456 JUMPI DUP3 SWAP1 SUB PUSH1 0x1F AND DUP3 ADD SWAP2 JUMPDEST POP POP POP POP POP DUP2 MSTORE PUSH1 0x20 ADD PUSH1 0x2 DUP3 ADD DUP1 SLOAD PUSH2 0x48C SWAP1 PUSH2 0x20DA JUMP JUMPDEST DUP1 PUSH1 0x1F ADD PUSH1 0x20 DUP1 SWAP2 DIV MUL PUSH1 0x20 ADD PUSH1 0x40 MLOAD SWAP1 DUP2 ADD PUSH1 0x40 MSTORE DUP1 SWAP3 SWAP2 SWAP1 DUP2 DUP2 MSTORE PUSH1 0x20 ADD DUP3 DUP1 SLOAD PUSH2 0x4B8 SWAP1 PUSH2 0x20DA JUMP JUMPDEST DUP1 ISZERO PUSH2 0x503 JUMPI DUP1 PUSH1 0x1F LT PUSH2 0x4DA JUMPI PUSH2 0x100 DUP1 DUP4 SLOAD DIV MUL DUP4 MSTORE SWAP2 PUSH1 0x20 ADD SWAP2 PUSH2 0x503 JUMP JUMPDEST DUP3 ADD SWAP2 SWAP1 PUSH0 MSTORE PUSH1 0x20 PUSH0 KECCAK256 SWAP1 JUMPDEST DUP2 SLOAD DUP2 MSTORE SWAP1 PUSH1 0x1 ADD SWAP1 PUSH1 0x20 ADD DUP1 DUP4 GT PUSH2 0x4E6 JUMPI DUP3 SWAP1 SUB PUSH1 0x1F AND DUP3 ADD SWAP2 JUMPDEST POP POP POP POP POP DUP2 MSTORE PUSH1 0x20 ADD PUSH1 0x3 DUP3 ADD SLOAD DUP2 MSTORE PUSH1 0x20 ADD PUSH1 0x4 DUP3 ADD DUP1 SLOAD PUSH2 0x526 SWAP1 PUSH2 0x20DA JUMP JUMPDEST DUP1 PUSH1 0x1F ADD PUSH1 0x20 DUP1 SWAP2 DIV MUL PUSH1 0x20 ADD PUSH1 0x40 MLOAD SWAP1 DUP2 ADD PUSH1 0x40 MSTORE DUP1 SWAP3 SWAP2 SWAP1 DUP2 DUP2 MSTORE PUSH1 0x20 ADD DUP3 DUP1 SLOAD PUSH2 0x552 SWAP1 PUSH2 0x20DA JUMP JUMPDEST DUP1 ISZERO PUSH2 0x59D JUMPI DUP1 PUSH1 0x1F LT PUSH2 0x574 JUMPI PUSH2 0x100 DUP1 DUP4 SLOAD DIV MUL DUP4 MSTORE SWAP2 PUSH1 0x20 ADD SWAP2 PUSH2 0x59D JUMP JUMPDEST DUP3 ADD SWAP2 SWAP1 PUSH0 MSTORE PUSH1 0x20 PUSH0 KECCAK256 SWAP1 JUMPDEST DUP2 SLOAD DUP2 MSTORE SWAP1 PUSH1 0x1 ADD SWAP1 PUSH1 0x20 ADD DUP1 DUP4 GT PUSH2 0x580 JUMPI DUP3 SWAP1 SUB PUSH1 0x1F AND DUP3 ADD SWAP2 JUMPDEST POP POP POP POP POP DUP2 MSTORE PUSH1 0x20 ADD PUSH1 0x5 DUP3 ADD SLOAD DUP2 MSTORE PUSH1 0x20 ADD PUSH1 0x6 DUP3 ADD PUSH0 SWAP1 SLOAD SWAP1 PUSH2 0x100 EXP SWAP1 DIV PUSH1 0xFF AND ISZERO ISZERO ISZERO ISZERO DUP2 MSTORE PUSH1 0x20 ADD PUSH1 0x7 DUP3 ADD DUP1 SLOAD PUSH2 0x5DA SWAP1 PUSH2 0x20DA JUMP JUMPDEST DUP1 PUSH1 0x1F ADD PUSH1 0x20 DUP1 SWAP2 DIV MUL PUSH1 0x20 ADD PUSH1 0x40 MLOAD SWAP1 DUP2 ADD PUSH1 0x40 MSTORE DUP1 SWAP3 SWAP2 SWAP1 DUP2 DUP2 MSTORE PUSH1 0x20 ADD DUP3 DUP1 SLOAD PUSH2 0x606 SWAP1 PUSH2 0x20DA JUMP JUMPDEST DUP1 ISZERO PUSH2 0x651 JUMPI DUP1 PUSH1 0x1F LT PUSH2 0x628 JUMPI PUSH2 0x100 DUP1 DUP4 SLOAD DIV MUL DUP4 MSTORE SWAP2 PUSH1 0x20 ADD SWAP2 PUSH2 0x651 JUMP JUMPDEST DUP3 ADD SWAP2 SWAP1 PUSH0 MSTORE PUSH1 0x20 PUSH0 KECCAK256 SWAP1 JUMPDEST DUP2 SLOAD DUP2 MSTORE SWAP1 PUSH1 0x1 ADD SWAP1 PUSH1 0x20 ADD DUP1 DUP4 GT PUSH2 0x634 JUMPI DUP3 SWAP1 SUB PUSH1 0x1F AND DUP3 ADD SWAP2 JUMPDEST POP POP POP POP POP DUP2 MSTORE PUSH1 0x20 ADD PUSH1 0x8 DUP3 ADD PUSH0 SWAP1 SLOAD SWAP1 PUSH2 0x100 EXP SWAP1 DIV PUSH20 0xFFFFFFFFFFFFFFFFFFFFFFFFFFFFFFFFFFFFFFFF AND PUSH20 0xFFFFFFFFFFFFFFFFFFFFFFFFFFFFFFFFFFFFFFFF AND PUSH20 0xFFFFFFFFFFFFFFFFFFFFFFFFFFFFFFFFFFFFFFFF AND DUP2 MSTORE POP POP DUP4 DUP4 DUP2 MLOAD DUP2 LT PUSH2 0x6C2 JUMPI PUSH2 0x6C1 PUSH2 0x210A JUMP JUMPDEST JUMPDEST PUSH1 0x20 MUL PUSH1 0x20 ADD ADD DUP2 SWAP1 MSTORE POP POP DUP1 DUP1 PUSH1 0x1 ADD SWAP2 POP POP PUSH2 0x36E JUMP JUMPDEST POP DUP1 SWAP2 POP POP SWAP1 JUMP JUMPDEST PUSH1 0x60 PUSH0 PUSH1 0x3 PUSH0 DUP5 DUP2 MSTORE PUSH1 0x20 ADD SWAP1 DUP2 MSTORE PUSH1 0x20 ADD PUSH0 KECCAK256 SWAP1 POP PUSH1 0x40 MLOAD DUP1 PUSH1 0x40 ADD PUSH1 0x40 MSTORE DUP1 PUSH1 0xA DUP2 MSTORE PUSH1 0x20 ADD PUSH32 0x4469737061746368656400000000000000000000000000000000000000000000 DUP2 MSTORE POP DUP2 PUSH1 0x8 ADD SWAP1 DUP2 PUSH2 0x73F SWAP2 SWAP1 PUSH2 0x22D4 JUMP JUMPDEST POP DUP1 PUSH1 0x8 ADD DUP1 SLOAD PUSH2 0x74F SWAP1 PUSH2 0x20DA JUMP JUMPDEST DUP1 PUSH1 0x1F ADD PUSH1 0x20 DUP1 SWAP2 DIV MUL PUSH1 0x20 ADD PUSH1 0x40 MLOAD SWAP1 DUP2 ADD PUSH1 0x40 MSTORE DUP1 SWAP3 SWAP2 SWAP1 DUP2 DUP2 MSTORE PUSH1 0x20 ADD DUP3 DUP1 SLOAD PUSH2 0x77B SWAP1 PUSH2 0x20DA JUMP JUMPDEST DUP1 ISZERO PUSH2 0x7C6 JUMPI DUP1 PUSH1 0x1F LT PUSH2 0x79D JUMPI PUSH2 0x100 DUP1 DUP4 SLOAD DIV MUL DUP4 MSTORE SWAP2 PUSH1 0x20 ADD SWAP2 PUSH2 0x7C6 JUMP JUMPDEST DUP3 ADD SWAP2 SWAP1 PUSH0 MSTORE PUSH1 0x20 PUSH0 KECCAK256 SWAP1 JUMPDEST DUP2 SLOAD DUP2 MSTORE SWAP1 PUSH1 0x1 ADD SWAP1 PUSH1 0x20 ADD DUP1 DUP4 GT PUSH2 0x7A9 JUMPI DUP3 SWAP1 SUB PUSH1 0x1F AND DUP3 ADD SWAP2 JUMPDEST POP POP POP POP POP SWAP2 POP POP SWAP2 SWAP1 POP JUMP JUMPDEST PUSH1 0x2 PUSH1 0x20 MSTORE DUP1 PUSH0 MSTORE PUSH1 0x40 PUSH0 KECCAK256 PUSH0 SWAP2 POP SWAP1 POP DUP1 PUSH0 ADD PUSH0 SWAP1 SLOAD SWAP1 PUSH2 0x100 EXP SWAP1 DIV PUSH20 0xFFFFFFFFFFFFFFFFFFFFFFFFFFFFFFFFFFFFFFFF AND SWAP1 DUP1 PUSH1 0x1 ADD DUP1 SLOAD PUSH2 0x817 SWAP1 PUSH2 0x20DA JUMP JUMPDEST DUP1 PUSH1 0x1F ADD PUSH1 0x20 DUP1 SWAP2 DIV MUL PUSH1 0x20 ADD PUSH1 0x40 MLOAD SWAP1 DUP2 ADD PUSH1 0x40 MSTORE DUP1 SWAP3 SWAP2 SWAP1 DUP2 DUP2 MSTORE PUSH1 0x20 ADD DUP3 DUP1 SLOAD PUSH2 0x843 SWAP1 PUSH2 0x20DA JUMP JUMPDEST DUP1 ISZERO PUSH2 0x88E JUMPI DUP1 PUSH1 0x1F LT PUSH2 0x865 JUMPI PUSH2 0x100 DUP1 DUP4 SLOAD DIV MUL DUP4 MSTORE SWAP2 PUSH1 0x20 ADD SWAP2 PUSH2 0x88E JUMP JUMPDEST DUP3 ADD SWAP2 SWAP1 PUSH0 MSTORE PUSH1 0x20 PUSH0 KECCAK256 SWAP1 JUMPDEST DUP2 SLOAD DUP2 MSTORE SWAP1 PUSH1 0x1 ADD SWAP1 PUSH1 0x20 ADD DUP1 DUP4 GT PUSH2 0x871 JUMPI DUP3 SWAP1 SUB PUSH1 0x1F AND DUP3 ADD SWAP2 JUMPDEST POP POP POP POP POP SWAP1 DUP1 PUSH1 0x2 ADD DUP1 SLOAD PUSH2 0x8A3 SWAP1 PUSH2 0x20DA JUMP JUMPDEST DUP1 PUSH1 0x1F ADD PUSH1 0x20 DUP1 SWAP2 DIV MUL PUSH1 0x20 ADD PUSH1 0x40 MLOAD SWAP1 DUP2 ADD PUSH1 0x40 MSTORE DUP1 SWAP3 SWAP2 SWAP1 DUP2 DUP2 MSTORE PUSH1 0x20 ADD DUP3 DUP1 SLOAD PUSH2 0x8CF SWAP1 PUSH2 0x20DA JUMP JUMPDEST DUP1 ISZERO PUSH2 0x91A JUMPI DUP1 PUSH1 0x1F LT PUSH2 0x8F1 JUMPI PUSH2 0x100 DUP1 DUP4 SLOAD DIV MUL DUP4 MSTORE SWAP2 PUSH1 0x20 ADD SWAP2 PUSH2 0x91A JUMP JUMPDEST DUP3 ADD SWAP2 SWAP1 PUSH0 MSTORE PUSH1 0x20 PUSH0 KECCAK256 SWAP1 JUMPDEST DUP2 SLOAD DUP2 MSTORE SWAP1 PUSH1 0x1 ADD SWAP1 PUSH1 0x20 ADD DUP1 DUP4 GT PUSH2 0x8FD JUMPI DUP3 SWAP1 SUB PUSH1 0x1F AND DUP3 ADD SWAP2 JUMPDEST POP POP POP POP POP SWAP1 DUP1 PUSH1 0x3 ADD SLOAD SWAP1 DUP1 PUSH1 0x4 ADD DUP1 SLOAD PUSH2 0x935 SWAP1 PUSH2 0x20DA JUMP JUMPDEST DUP1 PUSH1 0x1F ADD PUSH1 0x20 DUP1 SWAP2 DIV MUL PUSH1 0x20 ADD PUSH1 0x40 MLOAD SWAP1 DUP2 ADD PUSH1 0x40 MSTORE DUP1 SWAP3 SWAP2 SWAP1 DUP2 DUP2 MSTORE PUSH1 0x20 ADD DUP3 DUP1 SLOAD PUSH2 0x961 SWAP1 PUSH2 0x20DA JUMP JUMPDEST DUP1 ISZERO PUSH2 0x9AC JUMPI DUP1 PUSH1 0x1F LT PUSH2 0x983 JUMPI PUSH2 0x100 DUP1 DUP4 SLOAD DIV MUL DUP4 MSTORE SWAP2 PUSH1 0x20 ADD SWAP2 PUSH2 0x9AC JUMP JUMPDEST DUP3 ADD SWAP2 SWAP1 PUSH0 MSTORE PUSH1 0x20 PUSH0 KECCAK256 SWAP1 JUMPDEST DUP2 SLOAD DUP2 MSTORE SWAP1 PUSH1 0x1 ADD SWAP1 PUSH1 0x20 ADD DUP1 DUP4 GT PUSH2 0x98F JUMPI DUP3 SWAP1 SUB PUSH1 0x1F AND DUP3 ADD SWAP2 JUMPDEST POP POP POP POP POP SWAP1 DUP1 PUSH1 0x5 ADD SLOAD SWAP1 DUP1 PUSH1 0x6 ADD PUSH0 SWAP1 SLOAD SWAP1 PUSH2 0x100 EXP SWAP1 DIV PUSH1 0xFF AND SWAP1 DUP1 PUSH1 0x7 ADD DUP1 SLOAD PUSH2 0x9D9 SWAP1 PUSH2 0x20DA JUMP JUMPDEST DUP1 PUSH1 0x1F ADD PUSH1 0x20 DUP1 SWAP2 DIV MUL PUSH1 0x20 ADD PUSH1 0x40 MLOAD SWAP1 DUP2 ADD PUSH1 0x40 MSTORE DUP1 SWAP3 SWAP2 SWAP1 DUP2 DUP2 MSTORE PUSH1 0x20 ADD DUP3 DUP1 SLOAD PUSH2 0xA05 SWAP1 PUSH2 0x20DA JUMP JUMPDEST DUP1 ISZERO PUSH2 0xA50 JUMPI DUP1 PUSH1 0x1F LT PUSH2 0xA27 JUMPI PUSH2 0x100 DUP1 DUP4 SLOAD DIV MUL DUP4 MSTORE SWAP2 PUSH1 0x20 ADD SWAP2 PUSH2 0xA50 JUMP JUMPDEST DUP3 ADD SWAP2 SWAP1 PUSH0 MSTORE PUSH1 0x20 PUSH0 KECCAK256 SWAP1 JUMPDEST DUP2 SLOAD DUP2 MSTORE SWAP1 PUSH1 0x1 ADD SWAP1 PUSH1 0x20 ADD DUP1 DUP4 GT PUSH2 0xA33 JUMPI DUP3 SWAP1 SUB PUSH1 0x1F AND DUP3 ADD SWAP2 JUMPDEST POP POP POP POP POP SWAP1 DUP1 PUSH1 0x8 ADD PUSH0 SWAP1 SLOAD SWAP1 PUSH2 0x100 EXP SWAP1 DIV PUSH20 0xFFFFFFFFFFFFFFFFFFFFFFFFFFFFFFFFFFFFFFFF AND SWAP1 POP DUP10 JUMP JUMPDEST PUSH0 DUP1 PUSH1 0x2 PUSH0 DUP6 DUP2 MSTORE PUSH1 0x20 ADD SWAP1 DUP2 MSTORE PUSH1 0x20 ADD PUSH0 KECCAK256 SWAP1 POP DUP3 DUP2 PUSH1 0x5 ADD DUP2 SWAP1 SSTORE POP DUP1 PUSH1 0x5 ADD SLOAD SWAP2 POP POP SWAP3 SWAP2 POP POP JUMP JUMPDEST PUSH0 PUSH1 0x2 PUSH0 DUP1 SLOAD DUP2 MSTORE PUSH1 0x20 ADD SWAP1 DUP2 MSTORE PUSH1 0x20 ADD PUSH0 KECCAK256 SWAP1 POP DUP7 DUP2 PUSH0 ADD PUSH0 PUSH2 0x100 EXP DUP2 SLOAD DUP2 PUSH20 0xFFFFFFFFFFFFFFFFFFFFFFFFFFFFFFFFFFFFFFFF MUL NOT AND SWAP1 DUP4 PUSH20 0xFFFFFFFFFFFFFFFFFFFFFFFFFFFFFFFFFFFFFFFF AND MUL OR SWAP1 SSTORE POP DUP6 DUP2 PUSH1 0x1 ADD SWAP1 DUP2 PUSH2 0xB12 SWAP2 SWAP1 PUSH2 0x22D4 JUMP JUMPDEST POP DUP5 DUP2 PUSH1 0x2 ADD SWAP1 DUP2 PUSH2 0xB24 SWAP2 SWAP1 PUSH2 0x22D4 JUMP JUMPDEST POP DUP4 DUP2 PUSH1 0x3 ADD DUP2 SWAP1 SSTORE POP DUP3 DUP2 PUSH1 0x4 ADD SWAP1 DUP2 PUSH2 0xB3F SWAP2 SWAP1 PUSH2 0x22D4 JUMP JUMPDEST POP DUP2 DUP2 PUSH1 0x5 ADD DUP2 SWAP1 SSTORE POP PUSH0 DUP2 PUSH1 0x6 ADD PUSH0 PUSH2 0x100 EXP DUP2 SLOAD DUP2 PUSH1 0xFF MUL NOT AND SWAP1 DUP4 ISZERO ISZERO MUL OR SWAP1 SSTORE POP PUSH1 0x40 MLOAD DUP1 PUSH1 0x20 ADD PUSH1 0x40 MSTORE DUP1 PUSH0 DUP2 MSTORE POP DUP2 PUSH1 0x7 ADD SWAP1 DUP2 PUSH2 0xB83 SWAP2 SWAP1 PUSH2 0x22D4 JUMP JUMPDEST POP DUP7 DUP2 PUSH1 0x8 ADD PUSH0 PUSH2 0x100 EXP DUP2 SLOAD DUP2 PUSH20 0xFFFFFFFFFFFFFFFFFFFFFFFFFFFFFFFFFFFFFFFF MUL NOT AND SWAP1 DUP4 PUSH20 0xFFFFFFFFFFFFFFFFFFFFFFFFFFFFFFFFFFFFFFFF AND MUL OR SWAP1 SSTORE POP PUSH0 DUP1 DUP2 SLOAD DUP1 SWAP3 SWAP2 SWAP1 PUSH2 0xBD7 SWAP1 PUSH2 0x23D0 JUMP JUMPDEST SWAP2 SWAP1 POP SSTORE POP POP POP POP POP POP POP POP JUMP JUMPDEST PUSH1 0x60 PUSH0 PUSH1 0x3 PUSH0 DUP5 DUP2 MSTORE PUSH1 0x20 ADD SWAP1 DUP2 MSTORE PUSH1 0x20 ADD PUSH0 KECCAK256 SWAP1 POP PUSH1 0x40 MLOAD DUP1 PUSH1 0x40 ADD PUSH1 0x40 MSTORE DUP1 PUSH1 0x9 DUP2 MSTORE PUSH1 0x20 ADD PUSH32 0x44656C6976657265640000000000000000000000000000000000000000000000 DUP2 MSTORE POP DUP2 PUSH1 0x8 ADD SWAP1 DUP2 PUSH2 0xC41 SWAP2 SWAP1 PUSH2 0x22D4 JUMP JUMPDEST POP DUP1 PUSH1 0x8 ADD DUP1 SLOAD PUSH2 0xC51 SWAP1 PUSH2 0x20DA JUMP JUMPDEST DUP1 PUSH1 0x1F ADD PUSH1 0x20 DUP1 SWAP2 DIV MUL PUSH1 0x20 ADD PUSH1 0x40 MLOAD SWAP1 DUP2 ADD PUSH1 0x40 MSTORE DUP1 SWAP3 SWAP2 SWAP1 DUP2 DUP2 MSTORE PUSH1 0x20 ADD DUP3 DUP1 SLOAD PUSH2 0xC7D SWAP1 PUSH2 0x20DA JUMP JUMPDEST DUP1 ISZERO PUSH2 0xCC8 JUMPI DUP1 PUSH1 0x1F LT PUSH2 0xC9F JUMPI PUSH2 0x100 DUP1 DUP4 SLOAD DIV MUL DUP4 MSTORE SWAP2 PUSH1 0x20 ADD SWAP2 PUSH2 0xCC8 JUMP JUMPDEST DUP3 ADD SWAP2 SWAP1 PUSH0 MSTORE PUSH1 0x20 PUSH0 KECCAK256 SWAP1 JUMPDEST DUP2 SLOAD DUP2 MSTORE SWAP1 PUSH1 0x1 ADD SWAP1 PUSH1 0x20 ADD DUP1 DUP4 GT PUSH2 0xCAB JUMPI DUP3 SWAP1 SUB PUSH1 0x1F AND DUP3 ADD SWAP2 JUMPDEST POP POP POP POP POP SWAP2 POP POP SWAP2 SWAP1 POP JUMP JUMPDEST PUSH1 0x3 PUSH1 0x20 MSTORE DUP1 PUSH0 MSTORE PUSH1 0x40 PUSH0 KECCAK256 PUSH0 SWAP2 POP SWAP1 POP DUP1 PUSH0 ADD SLOAD SWAP1 DUP1 PUSH1 0x1 ADD SLOAD SWAP1 DUP1 PUSH1 0x2 ADD PUSH0 SWAP1 SLOAD SWAP1 PUSH2 0x100 EXP SWAP1 DIV PUSH20 0xFFFFFFFFFFFFFFFFFFFFFFFFFFFFFFFFFFFFFFFF AND SWAP1 DUP1 PUSH1 0x3 ADD PUSH0 SWAP1 SLOAD SWAP1 PUSH2 0x100 EXP SWAP1 DIV PUSH20 0xFFFFFFFFFFFFFFFFFFFFFFFFFFFFFFFFFFFFFFFF AND SWAP1 DUP1 PUSH1 0x4 ADD SLOAD SWAP1 DUP1 PUSH1 0x5 ADD SLOAD SWAP1 DUP1 PUSH1 0x6 ADD SLOAD SWAP1 DUP1 PUSH1 0x7 ADD SLOAD SWAP1 DUP1 PUSH1 0x8 ADD DUP1 SLOAD PUSH2 0xD62 SWAP1 PUSH2 0x20DA JUMP JUMPDEST DUP1 PUSH1 0x1F ADD PUSH1 0x20 DUP1 SWAP2 DIV MUL PUSH1 0x20 ADD PUSH1 0x40 MLOAD SWAP1 DUP2 ADD PUSH1 0x40 MSTORE DUP1 SWAP3 SWAP2 SWAP1 DUP2 DUP2 MSTORE PUSH1 0x20 ADD DUP3 DUP1 SLOAD PUSH2 0xD8E SWAP1 PUSH2 0x20DA JUMP JUMPDEST DUP1 ISZERO PUSH2 0xDD9 JUMPI DUP1 PUSH1 0x1F LT PUSH2 0xDB0 JUMPI PUSH2 0x100 DUP1 DUP4 SLOAD DIV MUL DUP4 MSTORE SWAP2 PUSH1 0x20 ADD SWAP2 PUSH2 0xDD9 JUMP JUMPDEST DUP3 ADD SWAP2 SWAP1 PUSH0 MSTORE PUSH1 0x20 PUSH0 KECCAK256 SWAP1 JUMPDEST DUP2 SLOAD DUP2 MSTORE SWAP1 PUSH1 0x1 ADD SWAP1 PUSH1 0x20 ADD DUP1 DUP4 GT PUSH2 0xDBC JUMPI DUP3 SWAP1 SUB PUSH1 0x1F AND DUP3 ADD SWAP2 JUMPDEST POP POP POP POP POP SWAP1 DUP1 PUSH1 0x9 ADD PUSH0 SWAP1 SLOAD SWAP1 PUSH2 0x100 EXP SWAP1 DIV PUSH1 0xFF AND SWAP1 POP DUP11 JUMP JUMPDEST PUSH0 PUSH1 0x3 PUSH0 DUP4 DUP2 MSTORE PUSH1 0x20 ADD SWAP1 DUP2 MSTORE PUSH1 0x20 ADD PUSH0 KECCAK256 SWAP1 POP PUSH1 0x1 DUP2 PUSH1 0x9 ADD PUSH0 PUSH2 0x100 EXP DUP2 SLOAD DUP2 PUSH1 0xFF MUL NOT AND SWAP1 DUP4 ISZERO ISZERO MUL OR SWAP1 SSTORE POP PUSH0 PUSH1 0x2 PUSH0 DUP4 PUSH1 0x1 ADD SLOAD DUP2 MSTORE PUSH1 0x20 ADD SWAP1 DUP2 MSTORE PUSH1 0x20 ADD PUSH0 KECCAK256 SWAP1 POP PUSH0 DUP3 PUSH1 0x7 ADD SLOAD SWAP1 POP DUP1 CALLVALUE EQ PUSH2 0xE87 JUMPI PUSH1 0x40 MLOAD PUSH32 0x8C379A000000000000000000000000000000000000000000000000000000000 DUP2 MSTORE PUSH1 0x4 ADD PUSH2 0xE7E SWAP1 PUSH2 0x2461 JUMP JUMPDEST PUSH1 0x40 MLOAD DUP1 SWAP2 SUB SWAP1 REVERT JUMPDEST PUSH0 DUP3 PUSH0 ADD PUSH0 SWAP1 SLOAD SWAP1 PUSH2 0x100 EXP SWAP1 DIV PUSH20 0xFFFFFFFFFFFFFFFFFFFFFFFFFFFFFFFFFFFFFFFF AND PUSH20 0xFFFFFFFFFFFFFFFFFFFFFFFFFFFFFFFFFFFFFFFF AND DUP3 PUSH1 0x40 MLOAD PUSH2 0xECE SWAP1 PUSH2 0x24AC JUMP JUMPDEST PUSH0 PUSH1 0x40 MLOAD DUP1 DUP4 SUB DUP2 DUP6 DUP8 GAS CALL SWAP3 POP POP POP RETURNDATASIZE DUP1 PUSH0 DUP2 EQ PUSH2 0xF08 JUMPI PUSH1 0x40 MLOAD SWAP2 POP PUSH1 0x1F NOT PUSH1 0x3F RETURNDATASIZE ADD AND DUP3 ADD PUSH1 0x40 MSTORE RETURNDATASIZE DUP3 MSTORE RETURNDATASIZE PUSH0 PUSH1 0x20 DUP5 ADD RETURNDATACOPY PUSH2 0xF0D JUMP JUMPDEST PUSH1 0x60 SWAP2 POP JUMPDEST POP POP SWAP1 POP DUP1 PUSH2 0xF51 JUMPI PUSH1 0x40 MLOAD PUSH32 0x8C379A000000000000000000000000000000000000000000000000000000000 DUP2 MSTORE PUSH1 0x4 ADD PUSH2 0xF48 SWAP1 PUSH2 0x250A JUMP JUMPDEST PUSH1 0x40 MLOAD DUP1 SWAP2 SUB SWAP1 REVERT JUMPDEST PUSH32 0xA27A7E11A23B47207454244AE3EDDEFDFAF476D024076F73C2D5BB9F36EBE8DB DUP5 PUSH1 0x1 ADD SLOAD CALLER DUP6 PUSH0 ADD PUSH0 SWAP1 SLOAD SWAP1 PUSH2 0x100 EXP SWAP1 DIV PUSH20 0xFFFFFFFFFFFFFFFFFFFFFFFFFFFFFFFFFFFFFFFF AND DUP6 PUSH1 0x40 MLOAD PUSH2 0xFAC SWAP5 SWAP4 SWAP3 SWAP2 SWAP1 PUSH2 0x2528 JUMP JUMPDEST PUSH1 0x40 MLOAD DUP1 SWAP2 SUB SWAP1 LOG1 CALLER DUP4 PUSH0 ADD PUSH0 PUSH2 0x100 EXP DUP2 SLOAD DUP2 PUSH20 0xFFFFFFFFFFFFFFFFFFFFFFFFFFFFFFFFFFFFFFFF MUL NOT AND SWAP1 DUP4 PUSH20 0xFFFFFFFFFFFFFFFFFFFFFFFFFFFFFFFFFFFFFFFF AND MUL OR SWAP1 SSTORE POP DUP2 DUP5 PUSH1 0x6 ADD PUSH0 DUP3 DUP3 SLOAD PUSH2 0x1008 SWAP2 SWAP1 PUSH2 0x256B JUMP JUMPDEST SWAP3 POP POP DUP2 SWAP1 SSTORE POP DUP2 DUP5 PUSH1 0x7 ADD PUSH0 DUP3 DUP3 SLOAD PUSH2 0x1022 SWAP2 SWAP1 PUSH2 0x259E JUMP JUMPDEST SWAP3 POP POP DUP2 SWAP1 SSTORE POP POP POP POP POP POP JUMP JUMPDEST PUSH0 DUP1 PUSH1 0x2 PUSH0 DUP5 DUP2 MSTORE PUSH1 0x20 ADD SWAP1 DUP2 MSTORE PUSH1 0x20 ADD PUSH0 KECCAK256 SWAP1 POP DUP1 PUSH1 0x5 ADD SLOAD SWAP2 POP POP SWAP2 SWAP1 POP JUMP JUMPDEST PUSH1 0x60 PUSH0 PUSH1 0x1 SLOAD PUSH8 0xFFFFFFFFFFFFFFFF DUP2 GT ISZERO PUSH2 0x1071 JUMPI PUSH2 0x1070 PUSH2 0x1C40 JUMP JUMPDEST JUMPDEST PUSH1 0x40 MLOAD SWAP1 DUP1 DUP3 MSTORE DUP1 PUSH1 0x20 MUL PUSH1 0x20 ADD DUP3 ADD PUSH1 0x40 MSTORE DUP1 ISZERO PUSH2 0x10AA JUMPI DUP2 PUSH1 0x20 ADD JUMPDEST PUSH2 0x1097 PUSH2 0x170A JUMP JUMPDEST DUP2 MSTORE PUSH1 0x20 ADD SWAP1 PUSH1 0x1 SWAP1 SUB SWAP1 DUP2 PUSH2 0x108F JUMPI SWAP1 POP JUMPDEST POP SWAP1 POP PUSH0 JUMPDEST PUSH1 0x1 SLOAD DUP2 LT ISZERO PUSH2 0x1295 JUMPI PUSH0 PUSH1 0x3 PUSH0 DUP4 DUP2 MSTORE PUSH1 0x20 ADD SWAP1 DUP2 MSTORE PUSH1 0x20 ADD PUSH0 KECCAK256 SWAP1 POP DUP1 PUSH1 0x40 MLOAD DUP1 PUSH2 0x140 ADD PUSH1 0x40 MSTORE SWAP1 DUP2 PUSH0 DUP3 ADD SLOAD DUP2 MSTORE PUSH1 0x20 ADD PUSH1 0x1 DUP3 ADD SLOAD DUP2 MSTORE PUSH1 0x20 ADD PUSH1 0x2 DUP3 ADD PUSH0 SWAP1 SLOAD SWAP1 PUSH2 0x100 EXP SWAP1 DIV PUSH20 0xFFFFFFFFFFFFFFFFFFFFFFFFFFFFFFFFFFFFFFFF AND PUSH20 0xFFFFFFFFFFFFFFFFFFFFFFFFFFFFFFFFFFFFFFFF AND PUSH20 0xFFFFFFFFFFFFFFFFFFFFFFFFFFFFFFFFFFFFFFFF AND DUP2 MSTORE PUSH1 0x20 ADD PUSH1 0x3 DUP3 ADD PUSH0 SWAP1 SLOAD SWAP1 PUSH2 0x100 EXP SWAP1 DIV PUSH20 0xFFFFFFFFFFFFFFFFFFFFFFFFFFFFFFFFFFFFFFFF AND PUSH20 0xFFFFFFFFFFFFFFFFFFFFFFFFFFFFFFFFFFFFFFFF AND PUSH20 0xFFFFFFFFFFFFFFFFFFFFFFFFFFFFFFFFFFFFFFFF AND DUP2 MSTORE PUSH1 0x20 ADD PUSH1 0x4 DUP3 ADD SLOAD DUP2 MSTORE PUSH1 0x20 ADD PUSH1 0x5 DUP3 ADD SLOAD DUP2 MSTORE PUSH1 0x20 ADD PUSH1 0x6 DUP3 ADD SLOAD DUP2 MSTORE PUSH1 0x20 ADD PUSH1 0x7 DUP3 ADD SLOAD DUP2 MSTORE PUSH1 0x20 ADD PUSH1 0x8 DUP3 ADD DUP1 SLOAD PUSH2 0x11CF SWAP1 PUSH2 0x20DA JUMP JUMPDEST DUP1 PUSH1 0x1F ADD PUSH1 0x20 DUP1 SWAP2 DIV MUL PUSH1 0x20 ADD PUSH1 0x40 MLOAD SWAP1 DUP2 ADD PUSH1 0x40 MSTORE DUP1 SWAP3 SWAP2 SWAP1 DUP2 DUP2 MSTORE PUSH1 0x20 ADD DUP3 DUP1 SLOAD PUSH2 0x11FB SWAP1 PUSH2 0x20DA JUMP JUMPDEST DUP1 ISZERO PUSH2 0x1246 JUMPI DUP1 PUSH1 0x1F LT PUSH2 0x121D JUMPI PUSH2 0x100 DUP1 DUP4 SLOAD DIV MUL DUP4 MSTORE SWAP2 PUSH1 0x20 ADD SWAP2 PUSH2 0x1246 JUMP JUMPDEST DUP3 ADD SWAP2 SWAP1 PUSH0 MSTORE PUSH1 0x20 PUSH0 KECCAK256 SWAP1 JUMPDEST DUP2 SLOAD DUP2 MSTORE SWAP1 PUSH1 0x1 ADD SWAP1 PUSH1 0x20 ADD DUP1 DUP4 GT PUSH2 0x1229 JUMPI DUP3 SWAP1 SUB PUSH1 0x1F AND DUP3 ADD SWAP2 JUMPDEST POP POP POP POP POP DUP2 MSTORE PUSH1 0x20 ADD PUSH1 0x9 DUP3 ADD PUSH0 SWAP1 SLOAD SWAP1 PUSH2 0x100 EXP SWAP1 DIV PUSH1 0xFF AND ISZERO ISZERO ISZERO ISZERO DUP2 MSTORE POP POP DUP4 DUP4 DUP2 MLOAD DUP2 LT PUSH2 0x127C JUMPI PUSH2 0x127B PUSH2 0x210A JUMP JUMPDEST JUMPDEST PUSH1 0x20 MUL PUSH1 0x20 ADD ADD DUP2 SWAP1 MSTORE POP POP DUP1 DUP1 PUSH1 0x1 ADD SWAP2 POP POP PUSH2 0x10AF JUMP JUMPDEST POP DUP1 SWAP2 POP POP SWAP1 JUMP JUMPDEST PUSH0 DUP1 PUSH1 0x2 PUSH0 DUP5 DUP2 MSTORE PUSH1 0x20 ADD SWAP1 DUP2 MSTORE PUSH1 0x20 ADD PUSH0 KECCAK256 SWAP1 POP PUSH1 0x1 DUP2 PUSH1 0x6 ADD PUSH0 PUSH2 0x100 EXP DUP2 SLOAD DUP2 PUSH1 0xFF MUL NOT AND SWAP1 DUP4 ISZERO ISZERO MUL OR SWAP1 SSTORE POP PUSH1 0x40 MLOAD DUP1 PUSH1 0xA0 ADD PUSH1 0x40 MSTORE DUP1 PUSH1 0x69 DUP2 MSTORE PUSH1 0x20 ADD PUSH2 0x26FF PUSH1 0x69 SWAP2 CODECOPY DUP2 PUSH1 0x7 ADD SWAP1 DUP2 PUSH2 0x12F7 SWAP2 SWAP1 PUSH2 0x22D4 JUMP JUMPDEST POP DUP1 PUSH1 0x6 ADD PUSH0 SWAP1 SLOAD SWAP1 PUSH2 0x100 EXP SWAP1 DIV PUSH1 0xFF AND SWAP2 POP POP SWAP2 SWAP1 POP JUMP JUMPDEST PUSH0 PUSH1 0x2 PUSH0 DUP4 DUP2 MSTORE PUSH1 0x20 ADD SWAP1 DUP2 MSTORE PUSH1 0x20 ADD PUSH0 KECCAK256 SWAP1 POP PUSH0 DUP2 PUSH1 0x5 ADD SLOAD GT PUSH2 0x136B JUMPI PUSH1 0x40 MLOAD PUSH32 0x8C379A000000000000000000000000000000000000000000000000000000000 DUP2 MSTORE PUSH1 0x4 ADD PUSH2 0x1362 SWAP1 PUSH2 0x261B JUMP JUMPDEST PUSH1 0x40 MLOAD DUP1 SWAP2 SUB SWAP1 REVERT JUMPDEST PUSH0 PUSH1 0x64 DUP3 PUSH1 0x3 ADD SLOAD PUSH1 0xA PUSH2 0x137F SWAP2 SWAP1 PUSH2 0x2639 JUMP JUMPDEST PUSH2 0x1389 SWAP2 SWAP1 PUSH2 0x26A7 JUMP JUMPDEST SWAP1 POP DUP1 CALLVALUE EQ PUSH2 0x13CD JUMPI PUSH1 0x40 MLOAD PUSH32 0x8C379A000000000000000000000000000000000000000000000000000000000 DUP2 MSTORE PUSH1 0x4 ADD PUSH2 0x13C4 SWAP1 PUSH2 0x2461 JUMP JUMPDEST PUSH1 0x40 MLOAD DUP1 SWAP2 SUB SWAP1 REVERT JUMPDEST PUSH0 DUP3 PUSH0 ADD PUSH0 SWAP1 SLOAD SWAP1 PUSH2 0x100 EXP SWAP1 DIV PUSH20 0xFFFFFFFFFFFFFFFFFFFFFFFFFFFFFFFFFFFFFFFF AND PUSH20 0xFFFFFFFFFFFFFFFFFFFFFFFFFFFFFFFFFFFFFFFF AND DUP3 PUSH1 0x40 MLOAD PUSH2 0x1414 SWAP1 PUSH2 0x24AC JUMP JUMPDEST PUSH0 PUSH1 0x40 MLOAD DUP1 DUP4 SUB DUP2 DUP6 DUP8 GAS CALL SWAP3 POP POP POP RETURNDATASIZE DUP1 PUSH0 DUP2 EQ PUSH2 0x144E JUMPI PUSH1 0x40 MLOAD SWAP2 POP PUSH1 0x1F NOT PUSH1 0x3F RETURNDATASIZE ADD AND DUP3 ADD PUSH1 0x40 MSTORE RETURNDATASIZE DUP3 MSTORE RETURNDATASIZE PUSH0 PUSH1 0x20 DUP5 ADD RETURNDATACOPY PUSH2 0x1453 JUMP JUMPDEST PUSH1 0x60 SWAP2 POP JUMPDEST POP POP SWAP1 POP DUP1 PUSH2 0x1497 JUMPI PUSH1 0x40 MLOAD PUSH32 0x8C379A000000000000000000000000000000000000000000000000000000000 DUP2 MSTORE PUSH1 0x4 ADD PUSH2 0x148E SWAP1 PUSH2 0x250A JUMP JUMPDEST PUSH1 0x40 MLOAD DUP1 SWAP2 SUB SWAP1 REVERT JUMPDEST DUP3 PUSH1 0x5 ADD PUSH0 DUP2 SLOAD DUP1 SWAP3 SWAP2 SWAP1 PUSH2 0x14AB SWAP1 PUSH2 0x26D7 JUMP JUMPDEST SWAP2 SWAP1 POP SSTORE POP PUSH0 PUSH1 0x3 PUSH0 PUSH1 0x1 SLOAD DUP2 MSTORE PUSH1 0x20 ADD SWAP1 DUP2 MSTORE PUSH1 0x20 ADD PUSH0 KECCAK256 SWAP1 POP PUSH1 0x1 SLOAD DUP2 PUSH0 ADD DUP2 SWAP1 SSTORE POP DUP5 DUP2 PUSH1 0x1 ADD DUP2 SWAP1 SSTORE POP CALLER DUP2 PUSH1 0x2 ADD PUSH0 PUSH2 0x100 EXP DUP2 SLOAD DUP2 PUSH20 0xFFFFFFFFFFFFFFFFFFFFFFFFFFFFFFFFFFFFFFFF MUL NOT AND SWAP1 DUP4 PUSH20 0xFFFFFFFFFFFFFFFFFFFFFFFFFFFFFFFFFFFFFFFF AND MUL OR SWAP1 SSTORE POP DUP4 PUSH0 ADD PUSH0 SWAP1 SLOAD SWAP1 PUSH2 0x100 EXP SWAP1 DIV PUSH20 0xFFFFFFFFFFFFFFFFFFFFFFFFFFFFFFFFFFFFFFFF AND DUP2 PUSH1 0x3 ADD PUSH0 PUSH2 0x100 EXP DUP2 SLOAD DUP2 PUSH20 0xFFFFFFFFFFFFFFFFFFFFFFFFFFFFFFFFFFFFFFFF MUL NOT AND SWAP1 DUP4 PUSH20 0xFFFFFFFFFFFFFFFFFFFFFFFFFFFFFFFFFFFFFFFF AND MUL OR SWAP1 SSTORE POP DUP3 DUP2 PUSH1 0x4 ADD DUP2 SWAP1 SSTORE POP DUP4 PUSH1 0x3 ADD SLOAD DUP2 PUSH1 0x5 ADD DUP2 SWAP1 SSTORE POP DUP3 DUP2 PUSH1 0x6 ADD DUP2 SWAP1 SSTORE POP DUP3 DUP5 PUSH1 0x3 ADD SLOAD PUSH2 0x15AE SWAP2 SWAP1 PUSH2 0x259E JUMP JUMPDEST DUP2 PUSH1 0x7 ADD DUP2 SWAP1 SSTORE POP PUSH1 0x40 MLOAD DUP1 PUSH1 0x40 ADD PUSH1 0x40 MSTORE DUP1 PUSH1 0xC DUP2 MSTORE PUSH1 0x20 ADD PUSH32 0x696E2077617265686F7573650000000000000000000000000000000000000000 DUP2 MSTORE POP DUP2 PUSH1 0x8 ADD SWAP1 DUP2 PUSH2 0x15FC SWAP2 SWAP1 PUSH2 0x22D4 JUMP JUMPDEST POP PUSH0 DUP2 PUSH1 0x9 ADD PUSH0 PUSH2 0x100 EXP DUP2 SLOAD DUP2 PUSH1 0xFF MUL NOT AND SWAP1 DUP4 ISZERO ISZERO MUL OR SWAP1 SSTORE POP PUSH1 0x1 PUSH0 DUP2 SLOAD DUP1 SWAP3 SWAP2 SWAP1 PUSH2 0x162A SWAP1 PUSH2 0x23D0 JUMP JUMPDEST SWAP2 SWAP1 POP SSTORE POP PUSH32 0xA27A7E11A23B47207454244AE3EDDEFDFAF476D024076F73C2D5BB9F36EBE8DB DUP6 CALLER DUP7 PUSH0 ADD PUSH0 SWAP1 SLOAD SWAP1 PUSH2 0x100 EXP SWAP1 DIV PUSH20 0xFFFFFFFFFFFFFFFFFFFFFFFFFFFFFFFFFFFFFFFF AND DUP7 PUSH1 0x40 MLOAD PUSH2 0x1686 SWAP5 SWAP4 SWAP3 SWAP2 SWAP1 PUSH2 0x2528 JUMP JUMPDEST PUSH1 0x40 MLOAD DUP1 SWAP2 SUB SWAP1 LOG1 POP POP POP POP POP JUMP JUMPDEST PUSH1 0x40 MLOAD DUP1 PUSH2 0x120 ADD PUSH1 0x40 MSTORE DUP1 PUSH0 PUSH20 0xFFFFFFFFFFFFFFFFFFFFFFFFFFFFFFFFFFFFFFFF AND DUP2 MSTORE PUSH1 0x20 ADD PUSH1 0x60 DUP2 MSTORE PUSH1 0x20 ADD PUSH1 0x60 DUP2 MSTORE PUSH1 0x20 ADD PUSH0 DUP2 MSTORE PUSH1 0x20 ADD PUSH1 0x60 DUP2 MSTORE PUSH1 0x20 ADD PUSH0 DUP2 MSTORE PUSH1 0x20 ADD PUSH0 ISZERO ISZERO DUP2 MSTORE PUSH1 0x20 ADD PUSH1 0x60 DUP2 MSTORE PUSH1 0x20 ADD PUSH0 PUSH20 0xFFFFFFFFFFFFFFFFFFFFFFFFFFFFFFFFFFFFFFFF AND DUP2 MSTORE POP SWAP1 JUMP JUMPDEST PUSH1 0x40 MLOAD DUP1 PUSH2 0x140 ADD PUSH1 0x40 MSTORE DUP1 PUSH0 DUP2 MSTORE PUSH1 0x20 ADD PUSH0 DUP2 MSTORE PUSH1 0x20 ADD PUSH0 PUSH20 0xFFFFFFFFFFFFFFFFFFFFFFFFFFFFFFFFFFFFFFFF AND DUP2 MSTORE PUSH1 0x20 ADD PUSH0 PUSH20 0xFFFFFFFFFFFFFFFFFFFFFFFFFFFFFFFFFFFFFFFF AND DUP2 MSTORE PUSH1 0x20 ADD PUSH0 DUP2 MSTORE PUSH1 0x20 ADD PUSH0 DUP2 MSTORE PUSH1 0x20 ADD PUSH0 DUP2 MSTORE PUSH1 0x20 ADD PUSH0 DUP2 MSTORE PUSH1 0x20 ADD PUSH1 0x60 DUP2 MSTORE PUSH1 0x20 ADD PUSH0 ISZERO ISZERO DUP2 MSTORE POP SWAP1 JUMP JUMPDEST PUSH0 DUP2 MLOAD SWAP1 POP SWAP2 SWAP1 POP JUMP JUMPDEST PUSH0 DUP3 DUP3 MSTORE PUSH1 0x20 DUP3 ADD SWAP1 POP SWAP3 SWAP2 POP POP JUMP JUMPDEST PUSH0 DUP2 SWAP1 POP PUSH1 0x20 DUP3 ADD SWAP1 POP SWAP2 SWAP1 POP JUMP JUMPDEST PUSH0 PUSH20 0xFFFFFFFFFFFFFFFFFFFFFFFFFFFFFFFFFFFFFFFF DUP3 AND SWAP1 POP SWAP2 SWAP1 POP JUMP JUMPDEST PUSH0 PUSH2 0x17D4 DUP3 PUSH2 0x17AB JUMP JUMPDEST SWAP1 POP SWAP2 SWAP1 POP JUMP JUMPDEST PUSH2 0x17E4 DUP2 PUSH2 0x17CA JUMP JUMPDEST DUP3 MSTORE POP POP JUMP JUMPDEST PUSH0 DUP2 MLOAD SWAP1 POP SWAP2 SWAP1 POP JUMP JUMPDEST PUSH0 DUP3 DUP3 MSTORE PUSH1 0x20 DUP3 ADD SWAP1 POP SWAP3 SWAP2 POP POP JUMP JUMPDEST DUP3 DUP2 DUP4 MCOPY PUSH0 DUP4 DUP4 ADD MSTORE POP POP POP JUMP JUMPDEST PUSH0 PUSH1 0x1F NOT PUSH1 0x1F DUP4 ADD AND SWAP1 POP SWAP2 SWAP1 POP JUMP JUMPDEST PUSH0 PUSH2 0x182C DUP3 PUSH2 0x17EA JUMP JUMPDEST PUSH2 0x1836 DUP2 DUP6 PUSH2 0x17F4 JUMP JUMPDEST SWAP4 POP PUSH2 0x1846 DUP2 DUP6 PUSH1 0x20 DUP7 ADD PUSH2 0x1804 JUMP JUMPDEST PUSH2 0x184F DUP2 PUSH2 0x1812 JUMP JUMPDEST DUP5 ADD SWAP2 POP POP SWAP3 SWAP2 POP POP JUMP JUMPDEST PUSH0 DUP2 SWAP1 POP SWAP2 SWAP1 POP JUMP JUMPDEST PUSH2 0x186C DUP2 PUSH2 0x185A JUMP JUMPDEST DUP3 MSTORE POP POP JUMP JUMPDEST PUSH0 DUP2 ISZERO ISZERO SWAP1 POP SWAP2 SWAP1 POP JUMP JUMPDEST PUSH2 0x1886 DUP2 PUSH2 0x1872 JUMP JUMPDEST DUP3 MSTORE POP POP JUMP JUMPDEST PUSH0 PUSH2 0x120 DUP4 ADD PUSH0 DUP4 ADD MLOAD PUSH2 0x18A2 PUSH0 DUP7 ADD DUP3 PUSH2 0x17DB JUMP JUMPDEST POP PUSH1 0x20 DUP4 ADD MLOAD DUP5 DUP3 SUB PUSH1 0x20 DUP7 ADD MSTORE PUSH2 0x18BA DUP3 DUP3 PUSH2 0x1822 JUMP JUMPDEST SWAP2 POP POP PUSH1 0x40 DUP4 ADD MLOAD DUP5 DUP3 SUB PUSH1 0x40 DUP7 ADD MSTORE PUSH2 0x18D4 DUP3 DUP3 PUSH2 0x1822 JUMP JUMPDEST SWAP2 POP POP PUSH1 0x60 DUP4 ADD MLOAD PUSH2 0x18E9 PUSH1 0x60 DUP7 ADD DUP3 PUSH2 0x1863 JUMP JUMPDEST POP PUSH1 0x80 DUP4 ADD MLOAD DUP5 DUP3 SUB PUSH1 0x80 DUP7 ADD MSTORE PUSH2 0x1901 DUP3 DUP3 PUSH2 0x1822 JUMP JUMPDEST SWAP2 POP POP PUSH1 0xA0 DUP4 ADD MLOAD PUSH2 0x1916 PUSH1 0xA0 DUP7 ADD DUP3 PUSH2 0x1863 JUMP JUMPDEST POP PUSH1 0xC0 DUP4 ADD MLOAD PUSH2 0x1929 PUSH1 0xC0 DUP7 ADD DUP3 PUSH2 0x187D JUMP JUMPDEST POP PUSH1 0xE0 DUP4 ADD MLOAD DUP5 DUP3 SUB PUSH1 0xE0 DUP7 ADD MSTORE PUSH2 0x1941 DUP3 DUP3 PUSH2 0x1822 JUMP JUMPDEST SWAP2 POP POP PUSH2 0x100 DUP4 ADD MLOAD PUSH2 0x1958 PUSH2 0x100 DUP7 ADD DUP3 PUSH2 0x17DB JUMP JUMPDEST POP DUP1 SWAP2 POP POP SWAP3 SWAP2 POP POP JUMP JUMPDEST PUSH0 PUSH2 0x196E DUP4 DUP4 PUSH2 0x188C JUMP JUMPDEST SWAP1 POP SWAP3 SWAP2 POP POP JUMP JUMPDEST PUSH0 PUSH1 0x20 DUP3 ADD SWAP1 POP SWAP2 SWAP1 POP JUMP JUMPDEST PUSH0 PUSH2 0x198C DUP3 PUSH2 0x1782 JUMP JUMPDEST PUSH2 0x1996 DUP2 DUP6 PUSH2 0x178C JUMP JUMPDEST SWAP4 POP DUP4 PUSH1 0x20 DUP3 MUL DUP6 ADD PUSH2 0x19A8 DUP6 PUSH2 0x179C JUMP JUMPDEST DUP1 PUSH0 JUMPDEST DUP6 DUP2 LT ISZERO PUSH2 0x19E3 JUMPI DUP5 DUP5 SUB DUP10 MSTORE DUP2 MLOAD PUSH2 0x19C4 DUP6 DUP3 PUSH2 0x1963 JUMP JUMPDEST SWAP5 POP PUSH2 0x19CF DUP4 PUSH2 0x1976 JUMP JUMPDEST SWAP3 POP PUSH1 0x20 DUP11 ADD SWAP10 POP POP PUSH1 0x1 DUP2 ADD SWAP1 POP PUSH2 0x19AB JUMP JUMPDEST POP DUP3 SWAP8 POP DUP8 SWAP6 POP POP POP POP POP POP SWAP3 SWAP2 POP POP JUMP JUMPDEST PUSH0 PUSH1 0x20 DUP3 ADD SWAP1 POP DUP2 DUP2 SUB PUSH0 DUP4 ADD MSTORE PUSH2 0x1A0D DUP2 DUP5 PUSH2 0x1982 JUMP JUMPDEST SWAP1 POP SWAP3 SWAP2 POP POP JUMP JUMPDEST PUSH0 PUSH1 0x40 MLOAD SWAP1 POP SWAP1 JUMP JUMPDEST PUSH0 DUP1 REVERT JUMPDEST PUSH0 DUP1 REVERT JUMPDEST PUSH2 0x1A2F DUP2 PUSH2 0x185A JUMP JUMPDEST DUP2 EQ PUSH2 0x1A39 JUMPI PUSH0 DUP1 REVERT JUMPDEST POP JUMP JUMPDEST PUSH0 DUP2 CALLDATALOAD SWAP1 POP PUSH2 0x1A4A DUP2 PUSH2 0x1A26 JUMP JUMPDEST SWAP3 SWAP2 POP POP JUMP JUMPDEST PUSH0 PUSH1 0x20 DUP3 DUP5 SUB SLT ISZERO PUSH2 0x1A65 JUMPI PUSH2 0x1A64 PUSH2 0x1A1E JUMP JUMPDEST JUMPDEST PUSH0 PUSH2 0x1A72 DUP5 DUP3 DUP6 ADD PUSH2 0x1A3C JUMP JUMPDEST SWAP2 POP POP SWAP3 SWAP2 POP POP JUMP JUMPDEST PUSH0 DUP3 DUP3 MSTORE PUSH1 0x20 DUP3 ADD SWAP1 POP SWAP3 SWAP2 POP POP JUMP JUMPDEST PUSH0 PUSH2 0x1A95 DUP3 PUSH2 0x17EA JUMP JUMPDEST PUSH2 0x1A9F DUP2 DUP6 PUSH2 0x1A7B JUMP JUMPDEST SWAP4 POP PUSH2 0x1AAF DUP2 DUP6 PUSH1 0x20 DUP7 ADD PUSH2 0x1804 JUMP JUMPDEST PUSH2 0x1AB8 DUP2 PUSH2 0x1812 JUMP JUMPDEST DUP5 ADD SWAP2 POP POP SWAP3 SWAP2 POP POP JUMP JUMPDEST PUSH0 PUSH1 0x20 DUP3 ADD SWAP1 POP DUP2 DUP2 SUB PUSH0 DUP4 ADD MSTORE PUSH2 0x1ADB DUP2 DUP5 PUSH2 0x1A8B JUMP JUMPDEST SWAP1 POP SWAP3 SWAP2 POP POP JUMP JUMPDEST PUSH2 0x1AEC DUP2 PUSH2 0x17CA JUMP JUMPDEST DUP3 MSTORE POP POP JUMP JUMPDEST PUSH2 0x1AFB DUP2 PUSH2 0x185A JUMP JUMPDEST DUP3 MSTORE POP POP JUMP JUMPDEST PUSH2 0x1B0A DUP2 PUSH2 0x1872 JUMP JUMPDEST DUP3 MSTORE POP POP JUMP JUMPDEST PUSH0 PUSH2 0x120 DUP3 ADD SWAP1 POP PUSH2 0x1B24 PUSH0 DUP4 ADD DUP13 PUSH2 0x1AE3 JUMP JUMPDEST DUP2 DUP2 SUB PUSH1 0x20 DUP4 ADD MSTORE PUSH2 0x1B36 DUP2 DUP12 PUSH2 0x1A8B JUMP JUMPDEST SWAP1 POP DUP2 DUP2 SUB PUSH1 0x40 DUP4 ADD MSTORE PUSH2 0x1B4A DUP2 DUP11 PUSH2 0x1A8B JUMP JUMPDEST SWAP1 POP PUSH2 0x1B59 PUSH1 0x60 DUP4 ADD DUP10 PUSH2 0x1AF2 JUMP JUMPDEST DUP2 DUP2 SUB PUSH1 0x80 DUP4 ADD MSTORE PUSH2 0x1B6B DUP2 DUP9 PUSH2 0x1A8B JUMP JUMPDEST SWAP1 POP PUSH2 0x1B7A PUSH1 0xA0 DUP4 ADD DUP8 PUSH2 0x1AF2 JUMP JUMPDEST PUSH2 0x1B87 PUSH1 0xC0 DUP4 ADD DUP7 PUSH2 0x1B01 JUMP JUMPDEST DUP2 DUP2 SUB PUSH1 0xE0 DUP4 ADD MSTORE PUSH2 0x1B99 DUP2 DUP6 PUSH2 0x1A8B JUMP JUMPDEST SWAP1 POP PUSH2 0x1BA9 PUSH2 0x100 DUP4 ADD DUP5 PUSH2 0x1AE3 JUMP JUMPDEST SWAP11 SWAP10 POP POP POP POP POP POP POP POP POP POP JUMP JUMPDEST PUSH0 DUP1 PUSH1 0x40 DUP4 DUP6 SUB SLT ISZERO PUSH2 0x1BCD JUMPI PUSH2 0x1BCC PUSH2 0x1A1E JUMP JUMPDEST JUMPDEST PUSH0 PUSH2 0x1BDA DUP6 DUP3 DUP7 ADD PUSH2 0x1A3C JUMP JUMPDEST SWAP3 POP POP PUSH1 0x20 PUSH2 0x1BEB DUP6 DUP3 DUP7 ADD PUSH2 0x1A3C JUMP JUMPDEST SWAP2 POP POP SWAP3 POP SWAP3 SWAP1 POP JUMP JUMPDEST PUSH0 PUSH1 0x20 DUP3 ADD SWAP1 POP PUSH2 0x1C08 PUSH0 DUP4 ADD DUP5 PUSH2 0x1AF2 JUMP JUMPDEST SWAP3 SWAP2 POP POP JUMP JUMPDEST PUSH2 0x1C17 DUP2 PUSH2 0x17CA JUMP JUMPDEST DUP2 EQ PUSH2 0x1C21 JUMPI PUSH0 DUP1 REVERT JUMPDEST POP JUMP JUMPDEST PUSH0 DUP2 CALLDATALOAD SWAP1 POP PUSH2 0x1C32 DUP2 PUSH2 0x1C0E JUMP JUMPDEST SWAP3 SWAP2 POP POP JUMP JUMPDEST PUSH0 DUP1 REVERT JUMPDEST PUSH0 DUP1 REVERT JUMPDEST PUSH32 0x4E487B7100000000000000000000000000000000000000000000000000000000 PUSH0 MSTORE PUSH1 0x41 PUSH1 0x4 MSTORE PUSH1 0x24 PUSH0 REVERT JUMPDEST PUSH2 0x1C76 DUP3 PUSH2 0x1812 JUMP JUMPDEST DUP2 ADD DUP2 DUP2 LT PUSH8 0xFFFFFFFFFFFFFFFF DUP3 GT OR ISZERO PUSH2 0x1C95 JUMPI PUSH2 0x1C94 PUSH2 0x1C40 JUMP JUMPDEST JUMPDEST DUP1 PUSH1 0x40 MSTORE POP POP POP JUMP JUMPDEST PUSH0 PUSH2 0x1CA7 PUSH2 0x1A15 JUMP JUMPDEST SWAP1 POP PUSH2 0x1CB3 DUP3 DUP3 PUSH2 0x1C6D JUMP JUMPDEST SWAP2 SWAP1 POP JUMP JUMPDEST PUSH0 PUSH8 0xFFFFFFFFFFFFFFFF DUP3 GT ISZERO PUSH2 0x1CD2 JUMPI PUSH2 0x1CD1 PUSH2 0x1C40 JUMP JUMPDEST JUMPDEST PUSH2 0x1CDB DUP3 PUSH2 0x1812 JUMP JUMPDEST SWAP1 POP PUSH1 0x20 DUP2 ADD SWAP1 POP SWAP2 SWAP1 POP JUMP JUMPDEST DUP3 DUP2 DUP4 CALLDATACOPY PUSH0 DUP4 DUP4 ADD MSTORE POP POP POP JUMP JUMPDEST PUSH0 PUSH2 0x1D08 PUSH2 0x1D03 DUP5 PUSH2 0x1CB8 JUMP JUMPDEST PUSH2 0x1C9E JUMP JUMPDEST SWAP1 POP DUP3 DUP2 MSTORE PUSH1 0x20 DUP2 ADD DUP5 DUP5 DUP5 ADD GT ISZERO PUSH2 0x1D24 JUMPI PUSH2 0x1D23 PUSH2 0x1C3C JUMP JUMPDEST JUMPDEST PUSH2 0x1D2F DUP5 DUP3 DUP6 PUSH2 0x1CE8 JUMP JUMPDEST POP SWAP4 SWAP3 POP POP POP JUMP JUMPDEST PUSH0 DUP3 PUSH1 0x1F DUP4 ADD SLT PUSH2 0x1D4B JUMPI PUSH2 0x1D4A PUSH2 0x1C38 JUMP JUMPDEST JUMPDEST DUP2 CALLDATALOAD PUSH2 0x1D5B DUP5 DUP3 PUSH1 0x20 DUP7 ADD PUSH2 0x1CF6 JUMP JUMPDEST SWAP2 POP POP SWAP3 SWAP2 POP POP JUMP JUMPDEST PUSH0 DUP1 PUSH0 DUP1 PUSH0 DUP1 PUSH1 0xC0 DUP8 DUP10 SUB SLT ISZERO PUSH2 0x1D7E JUMPI PUSH2 0x1D7D PUSH2 0x1A1E JUMP JUMPDEST JUMPDEST PUSH0 PUSH2 0x1D8B DUP10 DUP3 DUP11 ADD PUSH2 0x1C24 JUMP JUMPDEST SWAP7 POP POP PUSH1 0x20 DUP8 ADD CALLDATALOAD PUSH8 0xFFFFFFFFFFFFFFFF DUP2 GT ISZERO PUSH2 0x1DAC JUMPI PUSH2 0x1DAB PUSH2 0x1A22 JUMP JUMPDEST JUMPDEST PUSH2 0x1DB8 DUP10 DUP3 DUP11 ADD PUSH2 0x1D37 JUMP JUMPDEST SWAP6 POP POP PUSH1 0x40 DUP8 ADD CALLDATALOAD PUSH8 0xFFFFFFFFFFFFFFFF DUP2 GT ISZERO PUSH2 0x1DD9 JUMPI PUSH2 0x1DD8 PUSH2 0x1A22 JUMP JUMPDEST JUMPDEST PUSH2 0x1DE5 DUP10 DUP3 DUP11 ADD PUSH2 0x1D37 JUMP JUMPDEST SWAP5 POP POP PUSH1 0x60 PUSH2 0x1DF6 DUP10 DUP3 DUP11 ADD PUSH2 0x1A3C JUMP JUMPDEST SWAP4 POP POP PUSH1 0x80 DUP8 ADD CALLDATALOAD PUSH8 0xFFFFFFFFFFFFFFFF DUP2 GT ISZERO PUSH2 0x1E17 JUMPI PUSH2 0x1E16 PUSH2 0x1A22 JUMP JUMPDEST JUMPDEST PUSH2 0x1E23 DUP10 DUP3 DUP11 ADD PUSH2 0x1D37 JUMP JUMPDEST SWAP3 POP POP PUSH1 0xA0 PUSH2 0x1E34 DUP10 DUP3 DUP11 ADD PUSH2 0x1A3C JUMP JUMPDEST SWAP2 POP POP SWAP3 SWAP6 POP SWAP3 SWAP6 POP SWAP3 SWAP6 JUMP JUMPDEST PUSH0 PUSH2 0x140 DUP3 ADD SWAP1 POP PUSH2 0x1E55 PUSH0 DUP4 ADD DUP14 PUSH2 0x1AF2 JUMP JUMPDEST PUSH2 0x1E62 PUSH1 0x20 DUP4 ADD DUP13 PUSH2 0x1AF2 JUMP JUMPDEST PUSH2 0x1E6F PUSH1 0x40 DUP4 ADD DUP12 PUSH2 0x1AE3 JUMP JUMPDEST PUSH2 0x1E7C PUSH1 0x60 DUP4 ADD DUP11 PUSH2 0x1AE3 JUMP JUMPDEST PUSH2 0x1E89 PUSH1 0x80 DUP4 ADD DUP10 PUSH2 0x1AF2 JUMP JUMPDEST PUSH2 0x1E96 PUSH1 0xA0 DUP4 ADD DUP9 PUSH2 0x1AF2 JUMP JUMPDEST PUSH2 0x1EA3 PUSH1 0xC0 DUP4 ADD DUP8 PUSH2 0x1AF2 JUMP JUMPDEST PUSH2 0x1EB0 PUSH1 0xE0 DUP4 ADD DUP7 PUSH2 0x1AF2 JUMP JUMPDEST DUP2 DUP2 SUB PUSH2 0x100 DUP4 ADD MSTORE PUSH2 0x1EC3 DUP2 DUP6 PUSH2 0x1A8B JUMP JUMPDEST SWAP1 POP PUSH2 0x1ED3 PUSH2 0x120 DUP4 ADD DUP5 PUSH2 0x1B01 JUMP JUMPDEST SWAP12 SWAP11 POP POP POP POP POP POP POP POP POP POP POP JUMP JUMPDEST PUSH0 DUP2 MLOAD SWAP1 POP SWAP2 SWAP1 POP JUMP JUMPDEST PUSH0 DUP3 DUP3 MSTORE PUSH1 0x20 DUP3 ADD SWAP1 POP SWAP3 SWAP2 POP POP JUMP JUMPDEST PUSH0 DUP2 SWAP1 POP PUSH1 0x20 DUP3 ADD SWAP1 POP SWAP2 SWAP1 POP JUMP JUMPDEST PUSH0 PUSH2 0x140 DUP4 ADD PUSH0 DUP4 ADD MLOAD PUSH2 0x1F21 PUSH0 DUP7 ADD DUP3 PUSH2 0x1863 JUMP JUMPDEST POP PUSH1 0x20 DUP4 ADD MLOAD PUSH2 0x1F34 PUSH1 0x20 DUP7 ADD DUP3 PUSH2 0x1863 JUMP JUMPDEST POP PUSH1 0x40 DUP4 ADD MLOAD PUSH2 0x1F47 PUSH1 0x40 DUP7 ADD DUP3 PUSH2 0x17DB JUMP JUMPDEST POP PUSH1 0x60 DUP4 ADD MLOAD PUSH2 0x1F5A PUSH1 0x60 DUP7 ADD DUP3 PUSH2 0x17DB JUMP JUMPDEST POP PUSH1 0x80 DUP4 ADD MLOAD PUSH2 0x1F6D PUSH1 0x80 DUP7 ADD DUP3 PUSH2 0x1863 JUMP JUMPDEST POP PUSH1 0xA0 DUP4 ADD MLOAD PUSH2 0x1F80 PUSH1 0xA0 DUP7 ADD DUP3 PUSH2 0x1863 JUMP JUMPDEST POP PUSH1 0xC0 DUP4 ADD MLOAD PUSH2 0x1F93 PUSH1 0xC0 DUP7 ADD DUP3 PUSH2 0x1863 JUMP JUMPDEST POP PUSH1 0xE0 DUP4 ADD MLOAD PUSH2 0x1FA6 PUSH1 0xE0 DUP7 ADD DUP3 PUSH2 0x1863 JUMP JUMPDEST POP PUSH2 0x100 DUP4 ADD MLOAD DUP5 DUP3 SUB PUSH2 0x100 DUP7 ADD MSTORE PUSH2 0x1FC0 DUP3 DUP3 PUSH2 0x1822 JUMP JUMPDEST SWAP2 POP POP PUSH2 0x120 DUP4 ADD MLOAD PUSH2 0x1FD7 PUSH2 0x120 DUP7 ADD DUP3 PUSH2 0x187D JUMP JUMPDEST POP DUP1 SWAP2 POP POP SWAP3 SWAP2 POP POP JUMP JUMPDEST PUSH0 PUSH2 0x1FED DUP4 DUP4 PUSH2 0x1F0B JUMP JUMPDEST SWAP1 POP SWAP3 SWAP2 POP POP JUMP JUMPDEST PUSH0 PUSH1 0x20 DUP3 ADD SWAP1 POP SWAP2 SWAP1 POP JUMP JUMPDEST PUSH0 PUSH2 0x200B DUP3 PUSH2 0x1EE2 JUMP JUMPDEST PUSH2 0x2015 DUP2 DUP6 PUSH2 0x1EEC JUMP JUMPDEST SWAP4 POP DUP4 PUSH1 0x20 DUP3 MUL DUP6 ADD PUSH2 0x2027 DUP6 PUSH2 0x1EFC JUMP JUMPDEST DUP1 PUSH0 JUMPDEST DUP6 DUP2 LT ISZERO PUSH2 0x2062 JUMPI DUP5 DUP5 SUB DUP10 MSTORE DUP2 MLOAD PUSH2 0x2043 DUP6 DUP3 PUSH2 0x1FE2 JUMP JUMPDEST SWAP5 POP PUSH2 0x204E DUP4 PUSH2 0x1FF5 JUMP JUMPDEST SWAP3 POP PUSH1 0x20 DUP11 ADD SWAP10 POP POP PUSH1 0x1 DUP2 ADD SWAP1 POP PUSH2 0x202A JUMP JUMPDEST POP DUP3 SWAP8 POP DUP8 SWAP6 POP POP POP POP POP POP SWAP3 SWAP2 POP POP JUMP JUMPDEST PUSH0 PUSH1 0x20 DUP3 ADD SWAP1 POP DUP2 DUP2 SUB PUSH0 DUP4 ADD MSTORE PUSH2 0x208C DUP2 DUP5 PUSH2 0x2001 JUMP JUMPDEST SWAP1 POP SWAP3 SWAP2 POP POP JUMP JUMPDEST PUSH0 PUSH1 0x20 DUP3 ADD SWAP1 POP PUSH2 0x20A7 PUSH0 DUP4 ADD DUP5 PUSH2 0x1B01 JUMP JUMPDEST SWAP3 SWAP2 POP POP JUMP JUMPDEST PUSH32 0x4E487B7100000000000000000000000000000000000000000000000000000000 PUSH0 MSTORE PUSH1 0x22 PUSH1 0x4 MSTORE PUSH1 0x24 PUSH0 REVERT JUMPDEST PUSH0 PUSH1 0x2 DUP3 DIV SWAP1 POP PUSH1 0x1 DUP3 AND DUP1 PUSH2 0x20F1 JUMPI PUSH1 0x7F DUP3 AND SWAP2 POP JUMPDEST PUSH1 0x20 DUP3 LT DUP2 SUB PUSH2 0x2104 JUMPI PUSH2 0x2103 PUSH2 0x20AD JUMP JUMPDEST JUMPDEST POP SWAP2 SWAP1 POP JUMP JUMPDEST PUSH32 0x4E487B7100000000000000000000000000000000000000000000000000000000 PUSH0 MSTORE PUSH1 0x32 PUSH1 0x4 MSTORE PUSH1 0x24 PUSH0 REVERT JUMPDEST PUSH0 DUP2 SWAP1 POP DUP2 PUSH0 MSTORE PUSH1 0x20 PUSH0 KECCAK256 SWAP1 POP SWAP2 SWAP1 POP JUMP JUMPDEST PUSH0 PUSH1 0x20 PUSH1 0x1F DUP4 ADD DIV SWAP1 POP SWAP2 SWAP1 POP JUMP JUMPDEST PUSH0 DUP3 DUP3 SHL SWAP1 POP SWAP3 SWAP2 POP POP JUMP JUMPDEST PUSH0 PUSH1 0x8 DUP4 MUL PUSH2 0x2193 PUSH32 0xFFFFFFFFFFFFFFFFFFFFFFFFFFFFFFFFFFFFFFFFFFFFFFFFFFFFFFFFFFFFFFFF DUP3 PUSH2 0x2158 JUMP JUMPDEST PUSH2 0x219D DUP7 DUP4 PUSH2 0x2158 JUMP JUMPDEST SWAP6 POP DUP1 NOT DUP5 AND SWAP4 POP DUP1 DUP7 AND DUP5 OR SWAP3 POP POP POP SWAP4 SWAP3 POP POP POP JUMP JUMPDEST PUSH0 DUP2 SWAP1 POP SWAP2 SWAP1 POP JUMP JUMPDEST PUSH0 PUSH2 0x21D8 PUSH2 0x21D3 PUSH2 0x21CE DUP5 PUSH2 0x185A JUMP JUMPDEST PUSH2 0x21B5 JUMP JUMPDEST PUSH2 0x185A JUMP JUMPDEST SWAP1 POP SWAP2 SWAP1 POP JUMP JUMPDEST PUSH0 DUP2 SWAP1 POP SWAP2 SWAP1 POP JUMP JUMPDEST PUSH2 0x21F1 DUP4 PUSH2 0x21BE JUMP JUMPDEST PUSH2 0x2205 PUSH2 0x21FD DUP3 PUSH2 0x21DF JUMP JUMPDEST DUP5 DUP5 SLOAD PUSH2 0x2164 JUMP JUMPDEST DUP3 SSTORE POP POP POP POP JUMP JUMPDEST PUSH0 SWAP1 JUMP JUMPDEST PUSH2 0x2219 PUSH2 0x220D JUMP JUMPDEST PUSH2 0x2224 DUP2 DUP5 DUP5 PUSH2 0x21E8 JUMP JUMPDEST POP POP POP JUMP JUMPDEST JUMPDEST DUP2 DUP2 LT ISZERO PUSH2 0x2247 JUMPI PUSH2 0x223C PUSH0 DUP3 PUSH2 0x2211 JUMP JUMPDEST PUSH1 0x1 DUP2 ADD SWAP1 POP PUSH2 0x222A JUMP JUMPDEST POP POP JUMP JUMPDEST PUSH1 0x1F DUP3 GT ISZERO PUSH2 0x228C JUMPI PUSH2 0x225D DUP2 PUSH2 0x2137 JUMP JUMPDEST PUSH2 0x2266 DUP5 PUSH2 0x2149 JUMP JUMPDEST DUP2 ADD PUSH1 0x20 DUP6 LT ISZERO PUSH2 0x2275 JUMPI DUP2 SWAP1 POP JUMPDEST PUSH2 0x2289 PUSH2 0x2281 DUP6 PUSH2 0x2149 JUMP JUMPDEST DUP4 ADD DUP3 PUSH2 0x2229 JUMP JUMPDEST POP POP JUMPDEST POP POP POP JUMP JUMPDEST PUSH0 DUP3 DUP3 SHR SWAP1 POP SWAP3 SWAP2 POP POP JUMP JUMPDEST PUSH0 PUSH2 0x22AC PUSH0 NOT DUP5 PUSH1 0x8 MUL PUSH2 0x2291 JUMP JUMPDEST NOT DUP1 DUP4 AND SWAP2 POP POP SWAP3 SWAP2 POP POP JUMP JUMPDEST PUSH0 PUSH2 0x22C4 DUP4 DUP4 PUSH2 0x229D JUMP JUMPDEST SWAP2 POP DUP3 PUSH1 0x2 MUL DUP3 OR SWAP1 POP SWAP3 SWAP2 POP POP JUMP JUMPDEST PUSH2 0x22DD DUP3 PUSH2 0x17EA JUMP JUMPDEST PUSH8 0xFFFFFFFFFFFFFFFF DUP2 GT ISZERO PUSH2 0x22F6 JUMPI PUSH2 0x22F5 PUSH2 0x1C40 JUMP JUMPDEST JUMPDEST PUSH2 0x2300 DUP3 SLOAD PUSH2 0x20DA JUMP JUMPDEST PUSH2 0x230B DUP3 DUP3 DUP6 PUSH2 0x224B JUMP JUMPDEST PUSH0 PUSH1 0x20 SWAP1 POP PUSH1 0x1F DUP4 GT PUSH1 0x1 DUP2 EQ PUSH2 0x233C JUMPI PUSH0 DUP5 ISZERO PUSH2 0x232A JUMPI DUP3 DUP8 ADD MLOAD SWAP1 POP JUMPDEST PUSH2 0x2334 DUP6 DUP3 PUSH2 0x22B9 JUMP JUMPDEST DUP7 SSTORE POP PUSH2 0x239B JUMP JUMPDEST PUSH1 0x1F NOT DUP5 AND PUSH2 0x234A DUP7 PUSH2 0x2137 JUMP JUMPDEST PUSH0 JUMPDEST DUP3 DUP2 LT ISZERO PUSH2 0x2371 JUMPI DUP5 DUP10 ADD MLOAD DUP3 SSTORE PUSH1 0x1 DUP3 ADD SWAP2 POP PUSH1 0x20 DUP6 ADD SWAP5 POP PUSH1 0x20 DUP2 ADD SWAP1 POP PUSH2 0x234C JUMP JUMPDEST DUP7 DUP4 LT ISZERO PUSH2 0x238E JUMPI DUP5 DUP10 ADD MLOAD PUSH2 0x238A PUSH1 0x1F DUP10 AND DUP3 PUSH2 0x229D JUMP JUMPDEST DUP4 SSTORE POP JUMPDEST PUSH1 0x1 PUSH1 0x2 DUP9 MUL ADD DUP9 SSTORE POP POP POP JUMPDEST POP POP POP POP POP POP JUMP JUMPDEST PUSH32 0x4E487B7100000000000000000000000000000000000000000000000000000000 PUSH0 MSTORE PUSH1 0x11 PUSH1 0x4 MSTORE PUSH1 0x24 PUSH0 REVERT JUMPDEST PUSH0 PUSH2 0x23DA DUP3 PUSH2 0x185A JUMP JUMPDEST SWAP2 POP PUSH32 0xFFFFFFFFFFFFFFFFFFFFFFFFFFFFFFFFFFFFFFFFFFFFFFFFFFFFFFFFFFFFFFFF DUP3 SUB PUSH2 0x240C JUMPI PUSH2 0x240B PUSH2 0x23A3 JUMP JUMPDEST JUMPDEST PUSH1 0x1 DUP3 ADD SWAP1 POP SWAP2 SWAP1 POP JUMP JUMPDEST PUSH32 0x496E636F7272656374207061796D656E7420616D6F756E740000000000000000 PUSH0 DUP3 ADD MSTORE POP JUMP JUMPDEST PUSH0 PUSH2 0x244B PUSH1 0x18 DUP4 PUSH2 0x1A7B JUMP JUMPDEST SWAP2 POP PUSH2 0x2456 DUP3 PUSH2 0x2417 JUMP JUMPDEST PUSH1 0x20 DUP3 ADD SWAP1 POP SWAP2 SWAP1 POP JUMP JUMPDEST PUSH0 PUSH1 0x20 DUP3 ADD SWAP1 POP DUP2 DUP2 SUB PUSH0 DUP4 ADD MSTORE PUSH2 0x2478 DUP2 PUSH2 0x243F JUMP JUMPDEST SWAP1 POP SWAP2 SWAP1 POP JUMP JUMPDEST PUSH0 DUP2 SWAP1 POP SWAP3 SWAP2 POP POP JUMP JUMPDEST POP JUMP JUMPDEST PUSH0 PUSH2 0x2497 PUSH0 DUP4 PUSH2 0x247F JUMP JUMPDEST SWAP2 POP PUSH2 0x24A2 DUP3 PUSH2 0x2489 JUMP JUMPDEST PUSH0 DUP3 ADD SWAP1 POP SWAP2 SWAP1 POP JUMP JUMPDEST PUSH0 PUSH2 0x24B6 DUP3 PUSH2 0x248C JUMP JUMPDEST SWAP2 POP DUP2 SWAP1 POP SWAP2 SWAP1 POP JUMP JUMPDEST PUSH32 0x5061796D656E74206661696C6564000000000000000000000000000000000000 PUSH0 DUP3 ADD MSTORE POP JUMP JUMPDEST PUSH0 PUSH2 0x24F4 PUSH1 0xE DUP4 PUSH2 0x1A7B JUMP JUMPDEST SWAP2 POP PUSH2 0x24FF DUP3 PUSH2 0x24C0 JUMP JUMPDEST PUSH1 0x20 DUP3 ADD SWAP1 POP SWAP2 SWAP1 POP JUMP JUMPDEST PUSH0 PUSH1 0x20 DUP3 ADD SWAP1 POP DUP2 DUP2 SUB PUSH0 DUP4 ADD MSTORE PUSH2 0x2521 DUP2 PUSH2 0x24E8 JUMP JUMPDEST SWAP1 POP SWAP2 SWAP1 POP JUMP JUMPDEST PUSH0 PUSH1 0x80 DUP3 ADD SWAP1 POP PUSH2 0x253B PUSH0 DUP4 ADD DUP8 PUSH2 0x1AF2 JUMP JUMPDEST PUSH2 0x2548 PUSH1 0x20 DUP4 ADD DUP7 PUSH2 0x1AE3 JUMP JUMPDEST PUSH2 0x2555 PUSH1 0x40 DUP4 ADD DUP6 PUSH2 0x1AE3 JUMP JUMPDEST PUSH2 0x2562 PUSH1 0x60 DUP4 ADD DUP5 PUSH2 0x1AF2 JUMP JUMPDEST SWAP6 SWAP5 POP POP POP POP POP JUMP JUMPDEST PUSH0 PUSH2 0x2575 DUP3 PUSH2 0x185A JUMP JUMPDEST SWAP2 POP PUSH2 0x2580 DUP4 PUSH2 0x185A JUMP JUMPDEST SWAP3 POP DUP3 DUP3 ADD SWAP1 POP DUP1 DUP3 GT ISZERO PUSH2 0x2598 JUMPI PUSH2 0x2597 PUSH2 0x23A3 JUMP JUMPDEST JUMPDEST SWAP3 SWAP2 POP POP JUMP JUMPDEST PUSH0 PUSH2 0x25A8 DUP3 PUSH2 0x185A JUMP JUMPDEST SWAP2 POP PUSH2 0x25B3 DUP4 PUSH2 0x185A JUMP JUMPDEST SWAP3 POP DUP3 DUP3 SUB SWAP1 POP DUP2 DUP2 GT ISZERO PUSH2 0x25CB JUMPI PUSH2 0x25CA PUSH2 0x23A3 JUMP JUMPDEST JUMPDEST SWAP3 SWAP2 POP POP JUMP JUMPDEST PUSH32 0x417274776F726B206973206F7574206F662073746F636B000000000000000000 PUSH0 DUP3 ADD MSTORE POP JUMP JUMPDEST PUSH0 PUSH2 0x2605 PUSH1 0x17 DUP4 PUSH2 0x1A7B JUMP JUMPDEST SWAP2 POP PUSH2 0x2610 DUP3 PUSH2 0x25D1 JUMP JUMPDEST PUSH1 0x20 DUP3 ADD SWAP1 POP SWAP2 SWAP1 POP JUMP JUMPDEST PUSH0 PUSH1 0x20 DUP3 ADD SWAP1 POP DUP2 DUP2 SUB PUSH0 DUP4 ADD MSTORE PUSH2 0x2632 DUP2 PUSH2 0x25F9 JUMP JUMPDEST SWAP1 POP SWAP2 SWAP1 POP JUMP JUMPDEST PUSH0 PUSH2 0x2643 DUP3 PUSH2 0x185A JUMP JUMPDEST SWAP2 POP PUSH2 0x264E DUP4 PUSH2 0x185A JUMP JUMPDEST SWAP3 POP DUP3 DUP3 MUL PUSH2 0x265C DUP2 PUSH2 0x185A JUMP JUMPDEST SWAP2 POP DUP3 DUP3 DIV DUP5 EQ DUP4 ISZERO OR PUSH2 0x2673 JUMPI PUSH2 0x2672 PUSH2 0x23A3 JUMP JUMPDEST JUMPDEST POP SWAP3 SWAP2 POP POP JUMP JUMPDEST PUSH32 0x4E487B7100000000000000000000000000000000000000000000000000000000 PUSH0 MSTORE PUSH1 0x12 PUSH1 0x4 MSTORE PUSH1 0x24 PUSH0 REVERT JUMPDEST PUSH0 PUSH2 0x26B1 DUP3 PUSH2 0x185A JUMP JUMPDEST SWAP2 POP PUSH2 0x26BC DUP4 PUSH2 0x185A JUMP JUMPDEST SWAP3 POP DUP3 PUSH2 0x26CC JUMPI PUSH2 0x26CB PUSH2 0x267A JUMP JUMPDEST JUMPDEST DUP3 DUP3 DIV SWAP1 POP SWAP3 SWAP2 POP POP JUMP JUMPDEST PUSH0 PUSH2 0x26E1 DUP3 PUSH2 0x185A JUMP JUMPDEST SWAP2 POP PUSH0 DUP3 SUB PUSH2 0x26F3 JUMPI PUSH2 0x26F2 PUSH2 0x23A3 JUMP JUMPDEST JUMPDEST PUSH1 0x1 DUP3 SUB SWAP1 POP SWAP2 SWAP1 POP JUMP INVALID PUSH9 0x747470733A2F2F6261 PUSH7 0x79626569656A36 PUSH6 0x706E36693275 PUSH17 0x3562666D6A69696C376835676C70656170 PUSH15 0x636C67656573357A623668736F6B64 PUSH14 0x796A79327337792E697066732E64 PUSH24 0x65622E6C696E6B2F617274776F726B253230253238312532 CODECOPY 0x2E PUSH11 0x736F6EA264697066735822 SLT KECCAK256 0x1E SWAP4 PUSH5 0x231C6AEA89 0xCF 0xE2 0x2D 0xCF MSTORE SWAP15 PUSH28 0x1E99B7A90C21F9C2A785AFFCE47C12074464736F6C634300081A0033 "
				},
				"gasEstimates": {
					"creation": {
						"codeDepositCost": "2028200",
						"executionCost": "2147",
						"totalCost": "2030347"
					},
					"external": {
						"artworks(uint256)": "infinite",
						"buyArtwork(uint256)": "infinite",
						"completeDelivery(uint256)": "infinite",
						"createArt(address,string,string,uint256,string,uint256)": "infinite",
						"getArtQuantity(uint256)": "infinite",
						"getArtworks()": "infinite",
						"getPurchases()": "infinite",
						"goodsDelivered(uint256)": "infinite",
						"issueCertificate(uint256)": "infinite",
						"purchases(uint256)": "infinite",
						"startDelivery(uint256)": "infinite",
						"updateQuantity(uint256,uint256)": "infinite"
					}
				},
				"methodIdentifiers": {
					"artworks(uint256)": "4b602673",
					"buyArtwork(uint256)": "e44c3c4b",
					"completeDelivery(uint256)": "82c9804a",
					"createArt(address,string,string,uint256,string,uint256)": "79f9ec1c",
					"getArtQuantity(uint256)": "9b171c1e",
					"getArtworks()": "00a71527",
					"getPurchases()": "c47f0f90",
					"goodsDelivered(uint256)": "94ecf65d",
					"issueCertificate(uint256)": "d80fa7cf",
					"purchases(uint256)": "8392fe31",
					"startDelivery(uint256)": "385fe0a9",
					"updateQuantity(uint256,uint256)": "79cd4921"
				}
			},
			"storageLayout": {
				"storage": [
					{
						"astId": 43,
						"contract": "csefest23/Artwork.sol:Artwork",
						"label": "art_count",
						"offset": 0,
						"slot": "0",
						"type": "t_uint256"
					},
					{
						"astId": 45,
						"contract": "csefest23/Artwork.sol:Artwork",
						"label": "purchase_count",
						"offset": 0,
						"slot": "1",
						"type": "t_uint256"
					},
					{
						"astId": 50,
						"contract": "csefest23/Artwork.sol:Artwork",
						"label": "artworks",
						"offset": 0,
						"slot": "2",
						"type": "t_mapping(t_uint256,t_struct(Art)20_storage)"
					},
					{
						"astId": 55,
						"contract": "csefest23/Artwork.sol:Artwork",
						"label": "purchases",
						"offset": 0,
						"slot": "3",
						"type": "t_mapping(t_uint256,t_struct(Purchase)41_storage)"
					}
				],
				"types": {
					"t_address": {
						"encoding": "inplace",
						"label": "address",
						"numberOfBytes": "20"
					},
					"t_bool": {
						"encoding": "inplace",
						"label": "bool",
						"numberOfBytes": "1"
					},
					"t_mapping(t_uint256,t_struct(Art)20_storage)": {
						"encoding": "mapping",
						"key": "t_uint256",
						"label": "mapping(uint256 => struct Artwork.Art)",
						"numberOfBytes": "32",
						"value": "t_struct(Art)20_storage"
					},
					"t_mapping(t_uint256,t_struct(Purchase)41_storage)": {
						"encoding": "mapping",
						"key": "t_uint256",
						"label": "mapping(uint256 => struct Artwork.Purchase)",
						"numberOfBytes": "32",
						"value": "t_struct(Purchase)41_storage"
					},
					"t_string_storage": {
						"encoding": "bytes",
						"label": "string",
						"numberOfBytes": "32"
					},
					"t_struct(Art)20_storage": {
						"encoding": "inplace",
						"label": "struct Artwork.Art",
						"members": [
							{
								"astId": 3,
								"contract": "csefest23/Artwork.sol:Artwork",
								"label": "owner",
								"offset": 0,
								"slot": "0",
								"type": "t_address"
							},
							{
								"astId": 5,
								"contract": "csefest23/Artwork.sol:Artwork",
								"label": "image",
								"offset": 0,
								"slot": "1",
								"type": "t_string_storage"
							},
							{
								"astId": 7,
								"contract": "csefest23/Artwork.sol:Artwork",
								"label": "description",
								"offset": 0,
								"slot": "2",
								"type": "t_string_storage"
							},
							{
								"astId": 9,
								"contract": "csefest23/Artwork.sol:Artwork",
								"label": "price",
								"offset": 0,
								"slot": "3",
								"type": "t_uint256"
							},
							{
								"astId": 11,
								"contract": "csefest23/Artwork.sol:Artwork",
								"label": "credentials",
								"offset": 0,
								"slot": "4",
								"type": "t_string_storage"
							},
							{
								"astId": 13,
								"contract": "csefest23/Artwork.sol:Artwork",
								"label": "quantity",
								"offset": 0,
								"slot": "5",
								"type": "t_uint256"
							},
							{
								"astId": 15,
								"contract": "csefest23/Artwork.sol:Artwork",
								"label": "isVerified",
								"offset": 0,
								"slot": "6",
								"type": "t_bool"
							},
							{
								"astId": 17,
								"contract": "csefest23/Artwork.sol:Artwork",
								"label": "tokenUri",
								"offset": 0,
								"slot": "7",
								"type": "t_string_storage"
							},
							{
								"astId": 19,
								"contract": "csefest23/Artwork.sol:Artwork",
								"label": "original_artist",
								"offset": 0,
								"slot": "8",
								"type": "t_address"
							}
						],
						"numberOfBytes": "288"
					},
					"t_struct(Purchase)41_storage": {
						"encoding": "inplace",
						"label": "struct Artwork.Purchase",
						"members": [
							{
								"astId": 22,
								"contract": "csefest23/Artwork.sol:Artwork",
								"label": "id",
								"offset": 0,
								"slot": "0",
								"type": "t_uint256"
							},
							{
								"astId": 24,
								"contract": "csefest23/Artwork.sol:Artwork",
								"label": "artId",
								"offset": 0,
								"slot": "1",
								"type": "t_uint256"
							},
							{
								"astId": 26,
								"contract": "csefest23/Artwork.sol:Artwork",
								"label": "buyer",
								"offset": 0,
								"slot": "2",
								"type": "t_address"
							},
							{
								"astId": 28,
								"contract": "csefest23/Artwork.sol:Artwork",
								"label": "seller",
								"offset": 0,
								"slot": "3",
								"type": "t_address"
							},
							{
								"astId": 30,
								"contract": "csefest23/Artwork.sol:Artwork",
								"label": "amount",
								"offset": 0,
								"slot": "4",
								"type": "t_uint256"
							},
							{
								"astId": 32,
								"contract": "csefest23/Artwork.sol:Artwork",
								"label": "total_amount",
								"offset": 0,
								"slot": "5",
								"type": "t_uint256"
							},
							{
								"astId": 34,
								"contract": "csefest23/Artwork.sol:Artwork",
								"label": "amounts_paid",
								"offset": 0,
								"slot": "6",
								"type": "t_uint256"
							},
							{
								"astId": 36,
								"contract": "csefest23/Artwork.sol:Artwork",
								"label": "amounts_remaining",
								"offset": 0,
								"slot": "7",
								"type": "t_uint256"
							},
							{
								"astId": 38,
								"contract": "csefest23/Artwork.sol:Artwork",
								"label": "delivery_state",
								"offset": 0,
								"slot": "8",
								"type": "t_string_storage"
							},
							{
								"astId": 40,
								"contract": "csefest23/Artwork.sol:Artwork",
								"label": "delivered_status",
								"offset": 0,
								"slot": "9",
								"type": "t_bool"
							}
						],
						"numberOfBytes": "320"
					},
					"t_uint256": {
						"encoding": "inplace",
						"label": "uint256",
						"numberOfBytes": "32"
					}
				}
			},
			"userdoc": {
				"kind": "user",
				"methods": {},
				"version": 1
			}
		}
	}
}