{
	"csefest23/Registration.sol": {
		"UserRegistration": {
			"abi": [
				{
					"anonymous": false,
					"inputs": [
						{
							"indexed": true,
							"internalType": "address",
							"name": "userAddress",
							"type": "address"
						},
						{
							"indexed": false,
							"internalType": "address",
							"name": "wallet",
							"type": "address"
						},
						{
							"indexed": false,
							"internalType": "string",
							"name": "type1",
							"type": "string"
						}
					],
					"name": "UserRegistered",
					"type": "event"
				},
				{
					"inputs": [
						{
							"internalType": "address",
							"name": "_userAddress",
							"type": "address"
						}
					],
					"name": "getUser",
					"outputs": [
						{
							"internalType": "address",
							"name": "",
							"type": "address"
						},
						{
							"internalType": "string",
							"name": "",
							"type": "string"
						}
					],
					"stateMutability": "view",
					"type": "function"
				},
				{
					"inputs": [
						{
							"internalType": "address",
							"name": "_wallet",
							"type": "address"
						},
						{
							"internalType": "string",
							"name": "_type1",
							"type": "string"
						}
					],
					"name": "registerUser",
					"outputs": [],
					"stateMutability": "nonpayable",
					"type": "function"
				},
				{
					"inputs": [
						{
							"internalType": "address",
							"name": "",
							"type": "address"
						}
					],
					"name": "users",
					"outputs": [
						{
							"internalType": "address",
							"name": "wallet",
							"type": "address"
						},
						{
							"internalType": "string",
							"name": "type1",
							"type": "string"
						}
					],
					"stateMutability": "view",
					"type": "function"
				}
			],
			"devdoc": {
				"kind": "dev",
				"methods": {},
				"version": 1
			},
			"evm": {
				"assembly": "    /* \"csefest23/Registration.sol\":61:1296  contract UserRegistration {... */\n  mstore(0x40, 0x80)\n  callvalue\n  dup1\n  iszero\n  tag_1\n  jumpi\n  0x00\n  dup1\n  revert\ntag_1:\n  pop\n  dataSize(sub_0)\n  dup1\n  dataOffset(sub_0)\n  0x00\n  codecopy\n  0x00\n  return\nstop\n\nsub_0: assembly {\n        /* \"csefest23/Registration.sol\":61:1296  contract UserRegistration {... */\n      mstore(0x40, 0x80)\n      callvalue\n      dup1\n      iszero\n      tag_1\n      jumpi\n      0x00\n      dup1\n      revert\n    tag_1:\n      pop\n      jumpi(tag_2, lt(calldatasize, 0x04))\n      shr(0xe0, calldataload(0x00))\n      dup1\n      0x0ea126f9\n      eq\n      tag_3\n      jumpi\n      dup1\n      0x6f77926b\n      eq\n      tag_4\n      jumpi\n      dup1\n      0xa87430ba\n      eq\n      tag_5\n      jumpi\n    tag_2:\n      0x00\n      dup1\n      revert\n        /* \"csefest23/Registration.sol\":470:1104  function registerUser(address _wallet, string memory _type1) public {... */\n    tag_3:\n      tag_6\n      0x04\n      dup1\n      calldatasize\n      sub\n      dup2\n      add\n      swap1\n      tag_7\n      swap2\n      swap1\n      tag_8\n      jump\t// in\n    tag_7:\n      tag_9\n      jump\t// in\n    tag_6:\n      stop\n        /* \"csefest23/Registration.sol\":1112:1293  function getUser(... */\n    tag_4:\n      tag_10\n      0x04\n      dup1\n      calldatasize\n      sub\n      dup2\n      add\n      swap1\n      tag_11\n      swap2\n      swap1\n      tag_12\n      jump\t// in\n    tag_11:\n      tag_13\n      jump\t// in\n    tag_10:\n      mload(0x40)\n      tag_14\n      swap3\n      swap2\n      swap1\n      tag_15\n      jump\t// in\n    tag_14:\n      mload(0x40)\n      dup1\n      swap2\n      sub\n      swap1\n      return\n        /* \"csefest23/Registration.sol\":170:208  mapping(address => User) public  users */\n    tag_5:\n      tag_16\n      0x04\n      dup1\n      calldatasize\n      sub\n      dup2\n      add\n      swap1\n      tag_17\n      swap2\n      swap1\n      tag_12\n      jump\t// in\n    tag_17:\n      tag_18\n      jump\t// in\n    tag_16:\n      mload(0x40)\n      tag_19\n      swap3\n      swap2\n      swap1\n      tag_15\n      jump\t// in\n    tag_19:\n      mload(0x40)\n      dup1\n      swap2\n      sub\n      swap1\n      return\n        /* \"csefest23/Registration.sol\":470:1104  function registerUser(address _wallet, string memory _type1) public {... */\n    tag_9:\n        /* \"csefest23/Registration.sol\":576:577  0 */\n      0x00\n        /* \"csefest23/Registration.sol\":557:578  _wallet != address(0) */\n      0xffffffffffffffffffffffffffffffffffffffff\n      and\n        /* \"csefest23/Registration.sol\":557:564  _wallet */\n      dup3\n        /* \"csefest23/Registration.sol\":557:578  _wallet != address(0) */\n      0xffffffffffffffffffffffffffffffffffffffff\n      and\n      sub\n        /* \"csefest23/Registration.sol\":549:601  require(_wallet != address(0), \"Wallet is required\") */\n      tag_21\n      jumpi\n      mload(0x40)\n      0x08c379a000000000000000000000000000000000000000000000000000000000\n      dup2\n      mstore\n      0x04\n      add\n      tag_22\n      swap1\n      tag_23\n      jump\t// in\n    tag_22:\n      mload(0x40)\n      dup1\n      swap2\n      sub\n      swap1\n      revert\n    tag_21:\n        /* \"csefest23/Registration.sol\":737:738  0 */\n      0x00\n        /* \"csefest23/Registration.sol\":720:726  _type1 */\n      dup2\n        /* \"csefest23/Registration.sol\":714:734  bytes(_type1).length */\n      mload\n        /* \"csefest23/Registration.sol\":714:738  bytes(_type1).length > 0 */\n      gt\n        /* \"csefest23/Registration.sol\":706:759  require(bytes(_type1).length > 0, \"Type is required\") */\n      tag_24\n      jumpi\n      mload(0x40)\n      0x08c379a000000000000000000000000000000000000000000000000000000000\n      dup2\n      mstore\n      0x04\n      add\n      tag_25\n      swap1\n      tag_26\n      jump\t// in\n    tag_25:\n      mload(0x40)\n      dup1\n      swap2\n      sub\n      swap1\n      revert\n    tag_24:\n        /* \"csefest23/Registration.sol\":828:829  0 */\n      0x00\n        /* \"csefest23/Registration.sol\":792:830  users[msg.sender].wallet == address(0) */\n      0xffffffffffffffffffffffffffffffffffffffff\n      and\n        /* \"csefest23/Registration.sol\":792:797  users */\n      0x00\n        /* \"csefest23/Registration.sol\":792:809  users[msg.sender] */\n      dup1\n        /* \"csefest23/Registration.sol\":798:808  msg.sender */\n      caller\n        /* \"csefest23/Registration.sol\":792:809  users[msg.sender] */\n      0xffffffffffffffffffffffffffffffffffffffff\n      and\n      0xffffffffffffffffffffffffffffffffffffffff\n      and\n      dup2\n      mstore\n      0x20\n      add\n      swap1\n      dup2\n      mstore\n      0x20\n      add\n      0x00\n      keccak256\n        /* \"csefest23/Registration.sol\":792:816  users[msg.sender].wallet */\n      0x00\n      add\n      0x00\n      swap1\n      sload\n      swap1\n      0x0100\n      exp\n      swap1\n      div\n      0xffffffffffffffffffffffffffffffffffffffff\n      and\n        /* \"csefest23/Registration.sol\":792:830  users[msg.sender].wallet == address(0) */\n      0xffffffffffffffffffffffffffffffffffffffff\n      and\n      eq\n        /* \"csefest23/Registration.sol\":770:884  require(... */\n      tag_27\n      jumpi\n      mload(0x40)\n      0x08c379a000000000000000000000000000000000000000000000000000000000\n      dup2\n      mstore\n      0x04\n      add\n      tag_28\n      swap1\n      tag_29\n      jump\t// in\n    tag_28:\n      mload(0x40)\n      dup1\n      swap2\n      sub\n      swap1\n      revert\n    tag_27:\n        /* \"csefest23/Registration.sol\":897:916  User memory newUser */\n      0x00\n        /* \"csefest23/Registration.sol\":919:995  User({wallet: _wallet, ... */\n      mload(0x40)\n      dup1\n      0x40\n      add\n      0x40\n      mstore\n      dup1\n        /* \"csefest23/Registration.sol\":933:940  _wallet */\n      dup5\n        /* \"csefest23/Registration.sol\":919:995  User({wallet: _wallet, ... */\n      0xffffffffffffffffffffffffffffffffffffffff\n      and\n      dup2\n      mstore\n      0x20\n      add\n        /* \"csefest23/Registration.sol\":987:993  _type1 */\n      dup4\n        /* \"csefest23/Registration.sol\":919:995  User({wallet: _wallet, ... */\n      dup2\n      mstore\n      pop\n        /* \"csefest23/Registration.sol\":897:995  User memory newUser = User({wallet: _wallet, ... */\n      swap1\n      pop\n        /* \"csefest23/Registration.sol\":1028:1035  newUser */\n      dup1\n        /* \"csefest23/Registration.sol\":1008:1013  users */\n      0x00\n        /* \"csefest23/Registration.sol\":1008:1025  users[msg.sender] */\n      dup1\n        /* \"csefest23/Registration.sol\":1014:1024  msg.sender */\n      caller\n        /* \"csefest23/Registration.sol\":1008:1025  users[msg.sender] */\n      0xffffffffffffffffffffffffffffffffffffffff\n      and\n      0xffffffffffffffffffffffffffffffffffffffff\n      and\n      dup2\n      mstore\n      0x20\n      add\n      swap1\n      dup2\n      mstore\n      0x20\n      add\n      0x00\n      keccak256\n        /* \"csefest23/Registration.sol\":1008:1035  users[msg.sender] = newUser */\n      0x00\n      dup3\n      add\n      mload\n      dup2\n      0x00\n      add\n      exp(0x0100, 0x00)\n      dup2\n      sload\n      dup2\n      0xffffffffffffffffffffffffffffffffffffffff\n      mul\n      not\n      and\n      swap1\n      dup4\n      0xffffffffffffffffffffffffffffffffffffffff\n      and\n      mul\n      or\n      swap1\n      sstore\n      pop\n      0x20\n      dup3\n      add\n      mload\n      dup2\n      0x01\n      add\n      swap1\n      dup2\n      tag_30\n      swap2\n      swap1\n      tag_31\n      jump\t// in\n    tag_30:\n      pop\n      swap1\n      pop\n      pop\n        /* \"csefest23/Registration.sol\":1068:1078  msg.sender */\n      caller\n        /* \"csefest23/Registration.sol\":1053:1096  UserRegistered(msg.sender, _wallet, _type1) */\n      0xffffffffffffffffffffffffffffffffffffffff\n      and\n      0x01be19eddd591828517da57e6c20f06c0259b80c6df19796958b0b8b50604aa1\n        /* \"csefest23/Registration.sol\":1080:1087  _wallet */\n      dup5\n        /* \"csefest23/Registration.sol\":1089:1095  _type1 */\n      dup5\n        /* \"csefest23/Registration.sol\":1053:1096  UserRegistered(msg.sender, _wallet, _type1) */\n      mload(0x40)\n      tag_32\n      swap3\n      swap2\n      swap1\n      tag_15\n      jump\t// in\n    tag_32:\n      mload(0x40)\n      dup1\n      swap2\n      sub\n      swap1\n      log2\n        /* \"csefest23/Registration.sol\":538:1104  {... */\n      pop\n        /* \"csefest23/Registration.sol\":470:1104  function registerUser(address _wallet, string memory _type1) public {... */\n      pop\n      pop\n      jump\t// out\n        /* \"csefest23/Registration.sol\":1112:1293  function getUser(... */\n    tag_13:\n        /* \"csefest23/Registration.sol\":1188:1195  address */\n      0x00\n        /* \"csefest23/Registration.sol\":1197:1210  string memory */\n      0x60\n        /* \"csefest23/Registration.sol\":1231:1236  users */\n      0x00\n        /* \"csefest23/Registration.sol\":1231:1250  users[_userAddress] */\n      dup1\n        /* \"csefest23/Registration.sol\":1237:1249  _userAddress */\n      dup5\n        /* \"csefest23/Registration.sol\":1231:1250  users[_userAddress] */\n      0xffffffffffffffffffffffffffffffffffffffff\n      and\n      0xffffffffffffffffffffffffffffffffffffffff\n      and\n      dup2\n      mstore\n      0x20\n      add\n      swap1\n      dup2\n      mstore\n      0x20\n      add\n      0x00\n      keccak256\n        /* \"csefest23/Registration.sol\":1231:1257  users[_userAddress].wallet */\n      0x00\n      add\n      0x00\n      swap1\n      sload\n      swap1\n      0x0100\n      exp\n      swap1\n      div\n      0xffffffffffffffffffffffffffffffffffffffff\n      and\n        /* \"csefest23/Registration.sol\":1259:1264  users */\n      0x00\n        /* \"csefest23/Registration.sol\":1259:1278  users[_userAddress] */\n      dup1\n        /* \"csefest23/Registration.sol\":1265:1277  _userAddress */\n      dup6\n        /* \"csefest23/Registration.sol\":1259:1278  users[_userAddress] */\n      0xffffffffffffffffffffffffffffffffffffffff\n      and\n      0xffffffffffffffffffffffffffffffffffffffff\n      and\n      dup2\n      mstore\n      0x20\n      add\n      swap1\n      dup2\n      mstore\n      0x20\n      add\n      0x00\n      keccak256\n        /* \"csefest23/Registration.sol\":1259:1284  users[_userAddress].type1 */\n      0x01\n      add\n        /* \"csefest23/Registration.sol\":1223:1285  return (users[_userAddress].wallet, users[_userAddress].type1) */\n      dup1\n      dup1\n      sload\n      tag_34\n      swap1\n      tag_35\n      jump\t// in\n    tag_34:\n      dup1\n      0x1f\n      add\n      0x20\n      dup1\n      swap2\n      div\n      mul\n      0x20\n      add\n      mload(0x40)\n      swap1\n      dup2\n      add\n      0x40\n      mstore\n      dup1\n      swap3\n      swap2\n      swap1\n      dup2\n      dup2\n      mstore\n      0x20\n      add\n      dup3\n      dup1\n      sload\n      tag_36\n      swap1\n      tag_35\n      jump\t// in\n    tag_36:\n      dup1\n      iszero\n      tag_37\n      jumpi\n      dup1\n      0x1f\n      lt\n      tag_38\n      jumpi\n      0x0100\n      dup1\n      dup4\n      sload\n      div\n      mul\n      dup4\n      mstore\n      swap2\n      0x20\n      add\n      swap2\n      jump(tag_37)\n    tag_38:\n      dup3\n      add\n      swap2\n      swap1\n      0x00\n      mstore\n      keccak256(0x00, 0x20)\n      swap1\n    tag_39:\n      dup2\n      sload\n      dup2\n      mstore\n      swap1\n      0x01\n      add\n      swap1\n      0x20\n      add\n      dup1\n      dup4\n      gt\n      tag_39\n      jumpi\n      dup3\n      swap1\n      sub\n      0x1f\n      and\n      dup3\n      add\n      swap2\n    tag_37:\n      pop\n      pop\n      pop\n      pop\n      pop\n      swap1\n      pop\n      swap2\n      pop\n      swap2\n      pop\n        /* \"csefest23/Registration.sol\":1112:1293  function getUser(... */\n      swap2\n      pop\n      swap2\n      jump\t// out\n        /* \"csefest23/Registration.sol\":170:208  mapping(address => User) public  users */\n    tag_18:\n      mstore(0x20, 0x00)\n      dup1\n      0x00\n      mstore\n      keccak256(0x00, 0x40)\n      0x00\n      swap2\n      pop\n      swap1\n      pop\n      dup1\n      0x00\n      add\n      0x00\n      swap1\n      sload\n      swap1\n      0x0100\n      exp\n      swap1\n      div\n      0xffffffffffffffffffffffffffffffffffffffff\n      and\n      swap1\n      dup1\n      0x01\n      add\n      dup1\n      sload\n      tag_40\n      swap1\n      tag_35\n      jump\t// in\n    tag_40:\n      dup1\n      0x1f\n      add\n      0x20\n      dup1\n      swap2\n      div\n      mul\n      0x20\n      add\n      mload(0x40)\n      swap1\n      dup2\n      add\n      0x40\n      mstore\n      dup1\n      swap3\n      swap2\n      swap1\n      dup2\n      dup2\n      mstore\n      0x20\n      add\n      dup3\n      dup1\n      sload\n      tag_41\n      swap1\n      tag_35\n      jump\t// in\n    tag_41:\n      dup1\n      iszero\n      tag_42\n      jumpi\n      dup1\n      0x1f\n      lt\n      tag_43\n      jumpi\n      0x0100\n      dup1\n      dup4\n      sload\n      div\n      mul\n      dup4\n      mstore\n      swap2\n      0x20\n      add\n      swap2\n      jump(tag_42)\n    tag_43:\n      dup3\n      add\n      swap2\n      swap1\n      0x00\n      mstore\n      keccak256(0x00, 0x20)\n      swap1\n    tag_44:\n      dup2\n      sload\n      dup2\n      mstore\n      swap1\n      0x01\n      add\n      swap1\n      0x20\n      add\n      dup1\n      dup4\n      gt\n      tag_44\n      jumpi\n      dup3\n      swap1\n      sub\n      0x1f\n      and\n      dup3\n      add\n      swap2\n    tag_42:\n      pop\n      pop\n      pop\n      pop\n      pop\n      swap1\n      pop\n      dup3\n      jump\t// out\n        /* \"#utility.yul\":7:82   */\n    tag_45:\n        /* \"#utility.yul\":40:46   */\n      0x00\n        /* \"#utility.yul\":73:75   */\n      0x40\n        /* \"#utility.yul\":67:76   */\n      mload\n        /* \"#utility.yul\":57:76   */\n      swap1\n      pop\n        /* \"#utility.yul\":7:82   */\n      swap1\n      jump\t// out\n        /* \"#utility.yul\":88:205   */\n    tag_46:\n        /* \"#utility.yul\":197:198   */\n      0x00\n        /* \"#utility.yul\":194:195   */\n      dup1\n        /* \"#utility.yul\":187:199   */\n      revert\n        /* \"#utility.yul\":211:328   */\n    tag_47:\n        /* \"#utility.yul\":320:321   */\n      0x00\n        /* \"#utility.yul\":317:318   */\n      dup1\n        /* \"#utility.yul\":310:322   */\n      revert\n        /* \"#utility.yul\":334:460   */\n    tag_48:\n        /* \"#utility.yul\":371:378   */\n      0x00\n        /* \"#utility.yul\":411:453   */\n      0xffffffffffffffffffffffffffffffffffffffff\n        /* \"#utility.yul\":404:409   */\n      dup3\n        /* \"#utility.yul\":400:454   */\n      and\n        /* \"#utility.yul\":389:454   */\n      swap1\n      pop\n        /* \"#utility.yul\":334:460   */\n      swap2\n      swap1\n      pop\n      jump\t// out\n        /* \"#utility.yul\":466:562   */\n    tag_49:\n        /* \"#utility.yul\":503:510   */\n      0x00\n        /* \"#utility.yul\":532:556   */\n      tag_96\n        /* \"#utility.yul\":550:555   */\n      dup3\n        /* \"#utility.yul\":532:556   */\n      tag_48\n      jump\t// in\n    tag_96:\n        /* \"#utility.yul\":521:556   */\n      swap1\n      pop\n        /* \"#utility.yul\":466:562   */\n      swap2\n      swap1\n      pop\n      jump\t// out\n        /* \"#utility.yul\":568:690   */\n    tag_50:\n        /* \"#utility.yul\":641:665   */\n      tag_98\n        /* \"#utility.yul\":659:664   */\n      dup2\n        /* \"#utility.yul\":641:665   */\n      tag_49\n      jump\t// in\n    tag_98:\n        /* \"#utility.yul\":634:639   */\n      dup2\n        /* \"#utility.yul\":631:666   */\n      eq\n        /* \"#utility.yul\":621:684   */\n      tag_99\n      jumpi\n        /* \"#utility.yul\":680:681   */\n      0x00\n        /* \"#utility.yul\":677:678   */\n      dup1\n        /* \"#utility.yul\":670:682   */\n      revert\n        /* \"#utility.yul\":621:684   */\n    tag_99:\n        /* \"#utility.yul\":568:690   */\n      pop\n      jump\t// out\n        /* \"#utility.yul\":696:835   */\n    tag_51:\n        /* \"#utility.yul\":742:747   */\n      0x00\n        /* \"#utility.yul\":780:786   */\n      dup2\n        /* \"#utility.yul\":767:787   */\n      calldataload\n        /* \"#utility.yul\":758:787   */\n      swap1\n      pop\n        /* \"#utility.yul\":796:829   */\n      tag_101\n        /* \"#utility.yul\":823:828   */\n      dup2\n        /* \"#utility.yul\":796:829   */\n      tag_50\n      jump\t// in\n    tag_101:\n        /* \"#utility.yul\":696:835   */\n      swap3\n      swap2\n      pop\n      pop\n      jump\t// out\n        /* \"#utility.yul\":841:958   */\n    tag_52:\n        /* \"#utility.yul\":950:951   */\n      0x00\n        /* \"#utility.yul\":947:948   */\n      dup1\n        /* \"#utility.yul\":940:952   */\n      revert\n        /* \"#utility.yul\":964:1081   */\n    tag_53:\n        /* \"#utility.yul\":1073:1074   */\n      0x00\n        /* \"#utility.yul\":1070:1071   */\n      dup1\n        /* \"#utility.yul\":1063:1075   */\n      revert\n        /* \"#utility.yul\":1087:1189   */\n    tag_54:\n        /* \"#utility.yul\":1128:1134   */\n      0x00\n        /* \"#utility.yul\":1179:1181   */\n      0x1f\n        /* \"#utility.yul\":1175:1182   */\n      not\n        /* \"#utility.yul\":1170:1172   */\n      0x1f\n        /* \"#utility.yul\":1163:1168   */\n      dup4\n        /* \"#utility.yul\":1159:1173   */\n      add\n        /* \"#utility.yul\":1155:1183   */\n      and\n        /* \"#utility.yul\":1145:1183   */\n      swap1\n      pop\n        /* \"#utility.yul\":1087:1189   */\n      swap2\n      swap1\n      pop\n      jump\t// out\n        /* \"#utility.yul\":1195:1375   */\n    tag_55:\n        /* \"#utility.yul\":1243:1320   */\n      0x4e487b7100000000000000000000000000000000000000000000000000000000\n        /* \"#utility.yul\":1240:1241   */\n      0x00\n        /* \"#utility.yul\":1233:1321   */\n      mstore\n        /* \"#utility.yul\":1340:1344   */\n      0x41\n        /* \"#utility.yul\":1337:1338   */\n      0x04\n        /* \"#utility.yul\":1330:1345   */\n      mstore\n        /* \"#utility.yul\":1364:1368   */\n      0x24\n        /* \"#utility.yul\":1361:1362   */\n      0x00\n        /* \"#utility.yul\":1354:1369   */\n      revert\n        /* \"#utility.yul\":1381:1662   */\n    tag_56:\n        /* \"#utility.yul\":1464:1491   */\n      tag_107\n        /* \"#utility.yul\":1486:1490   */\n      dup3\n        /* \"#utility.yul\":1464:1491   */\n      tag_54\n      jump\t// in\n    tag_107:\n        /* \"#utility.yul\":1456:1462   */\n      dup2\n        /* \"#utility.yul\":1452:1492   */\n      add\n        /* \"#utility.yul\":1594:1600   */\n      dup2\n        /* \"#utility.yul\":1582:1592   */\n      dup2\n        /* \"#utility.yul\":1579:1601   */\n      lt\n        /* \"#utility.yul\":1558:1576   */\n      0xffffffffffffffff\n        /* \"#utility.yul\":1546:1556   */\n      dup3\n        /* \"#utility.yul\":1543:1577   */\n      gt\n        /* \"#utility.yul\":1540:1602   */\n      or\n        /* \"#utility.yul\":1537:1625   */\n      iszero\n      tag_108\n      jumpi\n        /* \"#utility.yul\":1605:1623   */\n      tag_109\n      tag_55\n      jump\t// in\n    tag_109:\n        /* \"#utility.yul\":1537:1625   */\n    tag_108:\n        /* \"#utility.yul\":1645:1655   */\n      dup1\n        /* \"#utility.yul\":1641:1643   */\n      0x40\n        /* \"#utility.yul\":1634:1656   */\n      mstore\n        /* \"#utility.yul\":1424:1662   */\n      pop\n        /* \"#utility.yul\":1381:1662   */\n      pop\n      pop\n      jump\t// out\n        /* \"#utility.yul\":1668:1797   */\n    tag_57:\n        /* \"#utility.yul\":1702:1708   */\n      0x00\n        /* \"#utility.yul\":1729:1749   */\n      tag_111\n      tag_45\n      jump\t// in\n    tag_111:\n        /* \"#utility.yul\":1719:1749   */\n      swap1\n      pop\n        /* \"#utility.yul\":1758:1791   */\n      tag_112\n        /* \"#utility.yul\":1786:1790   */\n      dup3\n        /* \"#utility.yul\":1778:1784   */\n      dup3\n        /* \"#utility.yul\":1758:1791   */\n      tag_56\n      jump\t// in\n    tag_112:\n        /* \"#utility.yul\":1668:1797   */\n      swap2\n      swap1\n      pop\n      jump\t// out\n        /* \"#utility.yul\":1803:2111   */\n    tag_58:\n        /* \"#utility.yul\":1865:1869   */\n      0x00\n        /* \"#utility.yul\":1955:1973   */\n      0xffffffffffffffff\n        /* \"#utility.yul\":1947:1953   */\n      dup3\n        /* \"#utility.yul\":1944:1974   */\n      gt\n        /* \"#utility.yul\":1941:1997   */\n      iszero\n      tag_114\n      jumpi\n        /* \"#utility.yul\":1977:1995   */\n      tag_115\n      tag_55\n      jump\t// in\n    tag_115:\n        /* \"#utility.yul\":1941:1997   */\n    tag_114:\n        /* \"#utility.yul\":2015:2044   */\n      tag_116\n        /* \"#utility.yul\":2037:2043   */\n      dup3\n        /* \"#utility.yul\":2015:2044   */\n      tag_54\n      jump\t// in\n    tag_116:\n        /* \"#utility.yul\":2007:2044   */\n      swap1\n      pop\n        /* \"#utility.yul\":2099:2103   */\n      0x20\n        /* \"#utility.yul\":2093:2097   */\n      dup2\n        /* \"#utility.yul\":2089:2104   */\n      add\n        /* \"#utility.yul\":2081:2104   */\n      swap1\n      pop\n        /* \"#utility.yul\":1803:2111   */\n      swap2\n      swap1\n      pop\n      jump\t// out\n        /* \"#utility.yul\":2117:2263   */\n    tag_59:\n        /* \"#utility.yul\":2214:2220   */\n      dup3\n        /* \"#utility.yul\":2209:2212   */\n      dup2\n        /* \"#utility.yul\":2204:2207   */\n      dup4\n        /* \"#utility.yul\":2191:2221   */\n      calldatacopy\n        /* \"#utility.yul\":2255:2256   */\n      0x00\n        /* \"#utility.yul\":2246:2252   */\n      dup4\n        /* \"#utility.yul\":2241:2244   */\n      dup4\n        /* \"#utility.yul\":2237:2253   */\n      add\n        /* \"#utility.yul\":2230:2257   */\n      mstore\n        /* \"#utility.yul\":2117:2263   */\n      pop\n      pop\n      pop\n      jump\t// out\n        /* \"#utility.yul\":2269:2694   */\n    tag_60:\n        /* \"#utility.yul\":2347:2352   */\n      0x00\n        /* \"#utility.yul\":2372:2438   */\n      tag_119\n        /* \"#utility.yul\":2388:2437   */\n      tag_120\n        /* \"#utility.yul\":2430:2436   */\n      dup5\n        /* \"#utility.yul\":2388:2437   */\n      tag_58\n      jump\t// in\n    tag_120:\n        /* \"#utility.yul\":2372:2438   */\n      tag_57\n      jump\t// in\n    tag_119:\n        /* \"#utility.yul\":2363:2438   */\n      swap1\n      pop\n        /* \"#utility.yul\":2461:2467   */\n      dup3\n        /* \"#utility.yul\":2454:2459   */\n      dup2\n        /* \"#utility.yul\":2447:2468   */\n      mstore\n        /* \"#utility.yul\":2499:2503   */\n      0x20\n        /* \"#utility.yul\":2492:2497   */\n      dup2\n        /* \"#utility.yul\":2488:2504   */\n      add\n        /* \"#utility.yul\":2537:2540   */\n      dup5\n        /* \"#utility.yul\":2528:2534   */\n      dup5\n        /* \"#utility.yul\":2523:2526   */\n      dup5\n        /* \"#utility.yul\":2519:2535   */\n      add\n        /* \"#utility.yul\":2516:2541   */\n      gt\n        /* \"#utility.yul\":2513:2625   */\n      iszero\n      tag_121\n      jumpi\n        /* \"#utility.yul\":2544:2623   */\n      tag_122\n      tag_53\n      jump\t// in\n    tag_122:\n        /* \"#utility.yul\":2513:2625   */\n    tag_121:\n        /* \"#utility.yul\":2634:2688   */\n      tag_123\n        /* \"#utility.yul\":2681:2687   */\n      dup5\n        /* \"#utility.yul\":2676:2679   */\n      dup3\n        /* \"#utility.yul\":2671:2674   */\n      dup6\n        /* \"#utility.yul\":2634:2688   */\n      tag_59\n      jump\t// in\n    tag_123:\n        /* \"#utility.yul\":2353:2694   */\n      pop\n        /* \"#utility.yul\":2269:2694   */\n      swap4\n      swap3\n      pop\n      pop\n      pop\n      jump\t// out\n        /* \"#utility.yul\":2714:3054   */\n    tag_61:\n        /* \"#utility.yul\":2770:2775   */\n      0x00\n        /* \"#utility.yul\":2819:2822   */\n      dup3\n        /* \"#utility.yul\":2812:2816   */\n      0x1f\n        /* \"#utility.yul\":2804:2810   */\n      dup4\n        /* \"#utility.yul\":2800:2817   */\n      add\n        /* \"#utility.yul\":2796:2823   */\n      slt\n        /* \"#utility.yul\":2786:2908   */\n      tag_125\n      jumpi\n        /* \"#utility.yul\":2827:2906   */\n      tag_126\n      tag_52\n      jump\t// in\n    tag_126:\n        /* \"#utility.yul\":2786:2908   */\n    tag_125:\n        /* \"#utility.yul\":2944:2950   */\n      dup2\n        /* \"#utility.yul\":2931:2951   */\n      calldataload\n        /* \"#utility.yul\":2969:3048   */\n      tag_127\n        /* \"#utility.yul\":3044:3047   */\n      dup5\n        /* \"#utility.yul\":3036:3042   */\n      dup3\n        /* \"#utility.yul\":3029:3033   */\n      0x20\n        /* \"#utility.yul\":3021:3027   */\n      dup7\n        /* \"#utility.yul\":3017:3034   */\n      add\n        /* \"#utility.yul\":2969:3048   */\n      tag_60\n      jump\t// in\n    tag_127:\n        /* \"#utility.yul\":2960:3048   */\n      swap2\n      pop\n        /* \"#utility.yul\":2776:3054   */\n      pop\n        /* \"#utility.yul\":2714:3054   */\n      swap3\n      swap2\n      pop\n      pop\n      jump\t// out\n        /* \"#utility.yul\":3060:3714   */\n    tag_8:\n        /* \"#utility.yul\":3138:3144   */\n      0x00\n        /* \"#utility.yul\":3146:3152   */\n      dup1\n        /* \"#utility.yul\":3195:3197   */\n      0x40\n        /* \"#utility.yul\":3183:3192   */\n      dup4\n        /* \"#utility.yul\":3174:3181   */\n      dup6\n        /* \"#utility.yul\":3170:3193   */\n      sub\n        /* \"#utility.yul\":3166:3198   */\n      slt\n        /* \"#utility.yul\":3163:3282   */\n      iszero\n      tag_129\n      jumpi\n        /* \"#utility.yul\":3201:3280   */\n      tag_130\n      tag_46\n      jump\t// in\n    tag_130:\n        /* \"#utility.yul\":3163:3282   */\n    tag_129:\n        /* \"#utility.yul\":3321:3322   */\n      0x00\n        /* \"#utility.yul\":3346:3399   */\n      tag_131\n        /* \"#utility.yul\":3391:3398   */\n      dup6\n        /* \"#utility.yul\":3382:3388   */\n      dup3\n        /* \"#utility.yul\":3371:3380   */\n      dup7\n        /* \"#utility.yul\":3367:3389   */\n      add\n        /* \"#utility.yul\":3346:3399   */\n      tag_51\n      jump\t// in\n    tag_131:\n        /* \"#utility.yul\":3336:3399   */\n      swap3\n      pop\n        /* \"#utility.yul\":3292:3409   */\n      pop\n        /* \"#utility.yul\":3476:3478   */\n      0x20\n        /* \"#utility.yul\":3465:3474   */\n      dup4\n        /* \"#utility.yul\":3461:3479   */\n      add\n        /* \"#utility.yul\":3448:3480   */\n      calldataload\n        /* \"#utility.yul\":3507:3525   */\n      0xffffffffffffffff\n        /* \"#utility.yul\":3499:3505   */\n      dup2\n        /* \"#utility.yul\":3496:3526   */\n      gt\n        /* \"#utility.yul\":3493:3610   */\n      iszero\n      tag_132\n      jumpi\n        /* \"#utility.yul\":3529:3608   */\n      tag_133\n      tag_47\n      jump\t// in\n    tag_133:\n        /* \"#utility.yul\":3493:3610   */\n    tag_132:\n        /* \"#utility.yul\":3634:3697   */\n      tag_134\n        /* \"#utility.yul\":3689:3696   */\n      dup6\n        /* \"#utility.yul\":3680:3686   */\n      dup3\n        /* \"#utility.yul\":3669:3678   */\n      dup7\n        /* \"#utility.yul\":3665:3687   */\n      add\n        /* \"#utility.yul\":3634:3697   */\n      tag_61\n      jump\t// in\n    tag_134:\n        /* \"#utility.yul\":3624:3697   */\n      swap2\n      pop\n        /* \"#utility.yul\":3419:3707   */\n      pop\n        /* \"#utility.yul\":3060:3714   */\n      swap3\n      pop\n      swap3\n      swap1\n      pop\n      jump\t// out\n        /* \"#utility.yul\":3720:4049   */\n    tag_12:\n        /* \"#utility.yul\":3779:3785   */\n      0x00\n        /* \"#utility.yul\":3828:3830   */\n      0x20\n        /* \"#utility.yul\":3816:3825   */\n      dup3\n        /* \"#utility.yul\":3807:3814   */\n      dup5\n        /* \"#utility.yul\":3803:3826   */\n      sub\n        /* \"#utility.yul\":3799:3831   */\n      slt\n        /* \"#utility.yul\":3796:3915   */\n      iszero\n      tag_136\n      jumpi\n        /* \"#utility.yul\":3834:3913   */\n      tag_137\n      tag_46\n      jump\t// in\n    tag_137:\n        /* \"#utility.yul\":3796:3915   */\n    tag_136:\n        /* \"#utility.yul\":3954:3955   */\n      0x00\n        /* \"#utility.yul\":3979:4032   */\n      tag_138\n        /* \"#utility.yul\":4024:4031   */\n      dup5\n        /* \"#utility.yul\":4015:4021   */\n      dup3\n        /* \"#utility.yul\":4004:4013   */\n      dup6\n        /* \"#utility.yul\":4000:4022   */\n      add\n        /* \"#utility.yul\":3979:4032   */\n      tag_51\n      jump\t// in\n    tag_138:\n        /* \"#utility.yul\":3969:4032   */\n      swap2\n      pop\n        /* \"#utility.yul\":3925:4042   */\n      pop\n        /* \"#utility.yul\":3720:4049   */\n      swap3\n      swap2\n      pop\n      pop\n      jump\t// out\n        /* \"#utility.yul\":4055:4173   */\n    tag_62:\n        /* \"#utility.yul\":4142:4166   */\n      tag_140\n        /* \"#utility.yul\":4160:4165   */\n      dup2\n        /* \"#utility.yul\":4142:4166   */\n      tag_49\n      jump\t// in\n    tag_140:\n        /* \"#utility.yul\":4137:4140   */\n      dup3\n        /* \"#utility.yul\":4130:4167   */\n      mstore\n        /* \"#utility.yul\":4055:4173   */\n      pop\n      pop\n      jump\t// out\n        /* \"#utility.yul\":4179:4278   */\n    tag_63:\n        /* \"#utility.yul\":4231:4237   */\n      0x00\n        /* \"#utility.yul\":4265:4270   */\n      dup2\n        /* \"#utility.yul\":4259:4271   */\n      mload\n        /* \"#utility.yul\":4249:4271   */\n      swap1\n      pop\n        /* \"#utility.yul\":4179:4278   */\n      swap2\n      swap1\n      pop\n      jump\t// out\n        /* \"#utility.yul\":4284:4453   */\n    tag_64:\n        /* \"#utility.yul\":4368:4379   */\n      0x00\n        /* \"#utility.yul\":4402:4408   */\n      dup3\n        /* \"#utility.yul\":4397:4400   */\n      dup3\n        /* \"#utility.yul\":4390:4409   */\n      mstore\n        /* \"#utility.yul\":4442:4446   */\n      0x20\n        /* \"#utility.yul\":4437:4440   */\n      dup3\n        /* \"#utility.yul\":4433:4447   */\n      add\n        /* \"#utility.yul\":4418:4447   */\n      swap1\n      pop\n        /* \"#utility.yul\":4284:4453   */\n      swap3\n      swap2\n      pop\n      pop\n      jump\t// out\n        /* \"#utility.yul\":4459:4705   */\n    tag_65:\n        /* \"#utility.yul\":4540:4541   */\n      0x00\n        /* \"#utility.yul\":4550:4663   */\n    tag_144:\n        /* \"#utility.yul\":4564:4570   */\n      dup4\n        /* \"#utility.yul\":4561:4562   */\n      dup2\n        /* \"#utility.yul\":4558:4571   */\n      lt\n        /* \"#utility.yul\":4550:4663   */\n      iszero\n      tag_146\n      jumpi\n        /* \"#utility.yul\":4649:4650   */\n      dup1\n        /* \"#utility.yul\":4644:4647   */\n      dup3\n        /* \"#utility.yul\":4640:4651   */\n      add\n        /* \"#utility.yul\":4634:4652   */\n      mload\n        /* \"#utility.yul\":4630:4631   */\n      dup2\n        /* \"#utility.yul\":4625:4628   */\n      dup5\n        /* \"#utility.yul\":4621:4632   */\n      add\n        /* \"#utility.yul\":4614:4653   */\n      mstore\n        /* \"#utility.yul\":4586:4588   */\n      0x20\n        /* \"#utility.yul\":4583:4584   */\n      dup2\n        /* \"#utility.yul\":4579:4589   */\n      add\n        /* \"#utility.yul\":4574:4589   */\n      swap1\n      pop\n        /* \"#utility.yul\":4550:4663   */\n      jump(tag_144)\n    tag_146:\n        /* \"#utility.yul\":4697:4698   */\n      0x00\n        /* \"#utility.yul\":4688:4694   */\n      dup5\n        /* \"#utility.yul\":4683:4686   */\n      dup5\n        /* \"#utility.yul\":4679:4695   */\n      add\n        /* \"#utility.yul\":4672:4699   */\n      mstore\n        /* \"#utility.yul\":4521:4705   */\n      pop\n        /* \"#utility.yul\":4459:4705   */\n      pop\n      pop\n      pop\n      jump\t// out\n        /* \"#utility.yul\":4711:5088   */\n    tag_66:\n        /* \"#utility.yul\":4799:4802   */\n      0x00\n        /* \"#utility.yul\":4827:4866   */\n      tag_148\n        /* \"#utility.yul\":4860:4865   */\n      dup3\n        /* \"#utility.yul\":4827:4866   */\n      tag_63\n      jump\t// in\n    tag_148:\n        /* \"#utility.yul\":4882:4953   */\n      tag_149\n        /* \"#utility.yul\":4946:4952   */\n      dup2\n        /* \"#utility.yul\":4941:4944   */\n      dup6\n        /* \"#utility.yul\":4882:4953   */\n      tag_64\n      jump\t// in\n    tag_149:\n        /* \"#utility.yul\":4875:4953   */\n      swap4\n      pop\n        /* \"#utility.yul\":4962:5027   */\n      tag_150\n        /* \"#utility.yul\":5020:5026   */\n      dup2\n        /* \"#utility.yul\":5015:5018   */\n      dup6\n        /* \"#utility.yul\":5008:5012   */\n      0x20\n        /* \"#utility.yul\":5001:5006   */\n      dup7\n        /* \"#utility.yul\":4997:5013   */\n      add\n        /* \"#utility.yul\":4962:5027   */\n      tag_65\n      jump\t// in\n    tag_150:\n        /* \"#utility.yul\":5052:5081   */\n      tag_151\n        /* \"#utility.yul\":5074:5080   */\n      dup2\n        /* \"#utility.yul\":5052:5081   */\n      tag_54\n      jump\t// in\n    tag_151:\n        /* \"#utility.yul\":5047:5050   */\n      dup5\n        /* \"#utility.yul\":5043:5082   */\n      add\n        /* \"#utility.yul\":5036:5082   */\n      swap2\n      pop\n        /* \"#utility.yul\":4803:5088   */\n      pop\n        /* \"#utility.yul\":4711:5088   */\n      swap3\n      swap2\n      pop\n      pop\n      jump\t// out\n        /* \"#utility.yul\":5094:5517   */\n    tag_15:\n        /* \"#utility.yul\":5235:5239   */\n      0x00\n        /* \"#utility.yul\":5273:5275   */\n      0x40\n        /* \"#utility.yul\":5262:5271   */\n      dup3\n        /* \"#utility.yul\":5258:5276   */\n      add\n        /* \"#utility.yul\":5250:5276   */\n      swap1\n      pop\n        /* \"#utility.yul\":5286:5357   */\n      tag_153\n        /* \"#utility.yul\":5354:5355   */\n      0x00\n        /* \"#utility.yul\":5343:5352   */\n      dup4\n        /* \"#utility.yul\":5339:5356   */\n      add\n        /* \"#utility.yul\":5330:5336   */\n      dup6\n        /* \"#utility.yul\":5286:5357   */\n      tag_62\n      jump\t// in\n    tag_153:\n        /* \"#utility.yul\":5404:5413   */\n      dup2\n        /* \"#utility.yul\":5398:5402   */\n      dup2\n        /* \"#utility.yul\":5394:5414   */\n      sub\n        /* \"#utility.yul\":5389:5391   */\n      0x20\n        /* \"#utility.yul\":5378:5387   */\n      dup4\n        /* \"#utility.yul\":5374:5392   */\n      add\n        /* \"#utility.yul\":5367:5415   */\n      mstore\n        /* \"#utility.yul\":5432:5510   */\n      tag_154\n        /* \"#utility.yul\":5505:5509   */\n      dup2\n        /* \"#utility.yul\":5496:5502   */\n      dup5\n        /* \"#utility.yul\":5432:5510   */\n      tag_66\n      jump\t// in\n    tag_154:\n        /* \"#utility.yul\":5424:5510   */\n      swap1\n      pop\n        /* \"#utility.yul\":5094:5517   */\n      swap4\n      swap3\n      pop\n      pop\n      pop\n      jump\t// out\n        /* \"#utility.yul\":5523:5691   */\n    tag_67:\n        /* \"#utility.yul\":5663:5683   */\n      0x57616c6c65742069732072657175697265640000000000000000000000000000\n        /* \"#utility.yul\":5659:5660   */\n      0x00\n        /* \"#utility.yul\":5651:5657   */\n      dup3\n        /* \"#utility.yul\":5647:5661   */\n      add\n        /* \"#utility.yul\":5640:5684   */\n      mstore\n        /* \"#utility.yul\":5523:5691   */\n      pop\n      jump\t// out\n        /* \"#utility.yul\":5697:6063   */\n    tag_68:\n        /* \"#utility.yul\":5839:5842   */\n      0x00\n        /* \"#utility.yul\":5860:5927   */\n      tag_157\n        /* \"#utility.yul\":5924:5926   */\n      0x12\n        /* \"#utility.yul\":5919:5922   */\n      dup4\n        /* \"#utility.yul\":5860:5927   */\n      tag_64\n      jump\t// in\n    tag_157:\n        /* \"#utility.yul\":5853:5927   */\n      swap2\n      pop\n        /* \"#utility.yul\":5936:6029   */\n      tag_158\n        /* \"#utility.yul\":6025:6028   */\n      dup3\n        /* \"#utility.yul\":5936:6029   */\n      tag_67\n      jump\t// in\n    tag_158:\n        /* \"#utility.yul\":6054:6056   */\n      0x20\n        /* \"#utility.yul\":6049:6052   */\n      dup3\n        /* \"#utility.yul\":6045:6057   */\n      add\n        /* \"#utility.yul\":6038:6057   */\n      swap1\n      pop\n        /* \"#utility.yul\":5697:6063   */\n      swap2\n      swap1\n      pop\n      jump\t// out\n        /* \"#utility.yul\":6069:6488   */\n    tag_23:\n        /* \"#utility.yul\":6235:6239   */\n      0x00\n        /* \"#utility.yul\":6273:6275   */\n      0x20\n        /* \"#utility.yul\":6262:6271   */\n      dup3\n        /* \"#utility.yul\":6258:6276   */\n      add\n        /* \"#utility.yul\":6250:6276   */\n      swap1\n      pop\n        /* \"#utility.yul\":6322:6331   */\n      dup2\n        /* \"#utility.yul\":6316:6320   */\n      dup2\n        /* \"#utility.yul\":6312:6332   */\n      sub\n        /* \"#utility.yul\":6308:6309   */\n      0x00\n        /* \"#utility.yul\":6297:6306   */\n      dup4\n        /* \"#utility.yul\":6293:6310   */\n      add\n        /* \"#utility.yul\":6286:6333   */\n      mstore\n        /* \"#utility.yul\":6350:6481   */\n      tag_160\n        /* \"#utility.yul\":6476:6480   */\n      dup2\n        /* \"#utility.yul\":6350:6481   */\n      tag_68\n      jump\t// in\n    tag_160:\n        /* \"#utility.yul\":6342:6481   */\n      swap1\n      pop\n        /* \"#utility.yul\":6069:6488   */\n      swap2\n      swap1\n      pop\n      jump\t// out\n        /* \"#utility.yul\":6494:6660   */\n    tag_69:\n        /* \"#utility.yul\":6634:6652   */\n      0x5479706520697320726571756972656400000000000000000000000000000000\n        /* \"#utility.yul\":6630:6631   */\n      0x00\n        /* \"#utility.yul\":6622:6628   */\n      dup3\n        /* \"#utility.yul\":6618:6632   */\n      add\n        /* \"#utility.yul\":6611:6653   */\n      mstore\n        /* \"#utility.yul\":6494:6660   */\n      pop\n      jump\t// out\n        /* \"#utility.yul\":6666:7032   */\n    tag_70:\n        /* \"#utility.yul\":6808:6811   */\n      0x00\n        /* \"#utility.yul\":6829:6896   */\n      tag_163\n        /* \"#utility.yul\":6893:6895   */\n      0x10\n        /* \"#utility.yul\":6888:6891   */\n      dup4\n        /* \"#utility.yul\":6829:6896   */\n      tag_64\n      jump\t// in\n    tag_163:\n        /* \"#utility.yul\":6822:6896   */\n      swap2\n      pop\n        /* \"#utility.yul\":6905:6998   */\n      tag_164\n        /* \"#utility.yul\":6994:6997   */\n      dup3\n        /* \"#utility.yul\":6905:6998   */\n      tag_69\n      jump\t// in\n    tag_164:\n        /* \"#utility.yul\":7023:7025   */\n      0x20\n        /* \"#utility.yul\":7018:7021   */\n      dup3\n        /* \"#utility.yul\":7014:7026   */\n      add\n        /* \"#utility.yul\":7007:7026   */\n      swap1\n      pop\n        /* \"#utility.yul\":6666:7032   */\n      swap2\n      swap1\n      pop\n      jump\t// out\n        /* \"#utility.yul\":7038:7457   */\n    tag_26:\n        /* \"#utility.yul\":7204:7208   */\n      0x00\n        /* \"#utility.yul\":7242:7244   */\n      0x20\n        /* \"#utility.yul\":7231:7240   */\n      dup3\n        /* \"#utility.yul\":7227:7245   */\n      add\n        /* \"#utility.yul\":7219:7245   */\n      swap1\n      pop\n        /* \"#utility.yul\":7291:7300   */\n      dup2\n        /* \"#utility.yul\":7285:7289   */\n      dup2\n        /* \"#utility.yul\":7281:7301   */\n      sub\n        /* \"#utility.yul\":7277:7278   */\n      0x00\n        /* \"#utility.yul\":7266:7275   */\n      dup4\n        /* \"#utility.yul\":7262:7279   */\n      add\n        /* \"#utility.yul\":7255:7302   */\n      mstore\n        /* \"#utility.yul\":7319:7450   */\n      tag_166\n        /* \"#utility.yul\":7445:7449   */\n      dup2\n        /* \"#utility.yul\":7319:7450   */\n      tag_70\n      jump\t// in\n    tag_166:\n        /* \"#utility.yul\":7311:7450   */\n      swap1\n      pop\n        /* \"#utility.yul\":7038:7457   */\n      swap2\n      swap1\n      pop\n      jump\t// out\n        /* \"#utility.yul\":7463:7639   */\n    tag_71:\n        /* \"#utility.yul\":7603:7631   */\n      0x5573657220697320616c72656164792072656769737465726564000000000000\n        /* \"#utility.yul\":7599:7600   */\n      0x00\n        /* \"#utility.yul\":7591:7597   */\n      dup3\n        /* \"#utility.yul\":7587:7601   */\n      add\n        /* \"#utility.yul\":7580:7632   */\n      mstore\n        /* \"#utility.yul\":7463:7639   */\n      pop\n      jump\t// out\n        /* \"#utility.yul\":7645:8011   */\n    tag_72:\n        /* \"#utility.yul\":7787:7790   */\n      0x00\n        /* \"#utility.yul\":7808:7875   */\n      tag_169\n        /* \"#utility.yul\":7872:7874   */\n      0x1a\n        /* \"#utility.yul\":7867:7870   */\n      dup4\n        /* \"#utility.yul\":7808:7875   */\n      tag_64\n      jump\t// in\n    tag_169:\n        /* \"#utility.yul\":7801:7875   */\n      swap2\n      pop\n        /* \"#utility.yul\":7884:7977   */\n      tag_170\n        /* \"#utility.yul\":7973:7976   */\n      dup3\n        /* \"#utility.yul\":7884:7977   */\n      tag_71\n      jump\t// in\n    tag_170:\n        /* \"#utility.yul\":8002:8004   */\n      0x20\n        /* \"#utility.yul\":7997:8000   */\n      dup3\n        /* \"#utility.yul\":7993:8005   */\n      add\n        /* \"#utility.yul\":7986:8005   */\n      swap1\n      pop\n        /* \"#utility.yul\":7645:8011   */\n      swap2\n      swap1\n      pop\n      jump\t// out\n        /* \"#utility.yul\":8017:8436   */\n    tag_29:\n        /* \"#utility.yul\":8183:8187   */\n      0x00\n        /* \"#utility.yul\":8221:8223   */\n      0x20\n        /* \"#utility.yul\":8210:8219   */\n      dup3\n        /* \"#utility.yul\":8206:8224   */\n      add\n        /* \"#utility.yul\":8198:8224   */\n      swap1\n      pop\n        /* \"#utility.yul\":8270:8279   */\n      dup2\n        /* \"#utility.yul\":8264:8268   */\n      dup2\n        /* \"#utility.yul\":8260:8280   */\n      sub\n        /* \"#utility.yul\":8256:8257   */\n      0x00\n        /* \"#utility.yul\":8245:8254   */\n      dup4\n        /* \"#utility.yul\":8241:8258   */\n      add\n        /* \"#utility.yul\":8234:8281   */\n      mstore\n        /* \"#utility.yul\":8298:8429   */\n      tag_172\n        /* \"#utility.yul\":8424:8428   */\n      dup2\n        /* \"#utility.yul\":8298:8429   */\n      tag_72\n      jump\t// in\n    tag_172:\n        /* \"#utility.yul\":8290:8429   */\n      swap1\n      pop\n        /* \"#utility.yul\":8017:8436   */\n      swap2\n      swap1\n      pop\n      jump\t// out\n        /* \"#utility.yul\":8442:8622   */\n    tag_73:\n        /* \"#utility.yul\":8490:8567   */\n      0x4e487b7100000000000000000000000000000000000000000000000000000000\n        /* \"#utility.yul\":8487:8488   */\n      0x00\n        /* \"#utility.yul\":8480:8568   */\n      mstore\n        /* \"#utility.yul\":8587:8591   */\n      0x22\n        /* \"#utility.yul\":8584:8585   */\n      0x04\n        /* \"#utility.yul\":8577:8592   */\n      mstore\n        /* \"#utility.yul\":8611:8615   */\n      0x24\n        /* \"#utility.yul\":8608:8609   */\n      0x00\n        /* \"#utility.yul\":8601:8616   */\n      revert\n        /* \"#utility.yul\":8628:8948   */\n    tag_35:\n        /* \"#utility.yul\":8672:8678   */\n      0x00\n        /* \"#utility.yul\":8709:8710   */\n      0x02\n        /* \"#utility.yul\":8703:8707   */\n      dup3\n        /* \"#utility.yul\":8699:8711   */\n      div\n        /* \"#utility.yul\":8689:8711   */\n      swap1\n      pop\n        /* \"#utility.yul\":8756:8757   */\n      0x01\n        /* \"#utility.yul\":8750:8754   */\n      dup3\n        /* \"#utility.yul\":8746:8758   */\n      and\n        /* \"#utility.yul\":8777:8795   */\n      dup1\n        /* \"#utility.yul\":8767:8848   */\n      tag_175\n      jumpi\n        /* \"#utility.yul\":8833:8837   */\n      0x7f\n        /* \"#utility.yul\":8825:8831   */\n      dup3\n        /* \"#utility.yul\":8821:8838   */\n      and\n        /* \"#utility.yul\":8811:8838   */\n      swap2\n      pop\n        /* \"#utility.yul\":8767:8848   */\n    tag_175:\n        /* \"#utility.yul\":8895:8897   */\n      0x20\n        /* \"#utility.yul\":8887:8893   */\n      dup3\n        /* \"#utility.yul\":8884:8898   */\n      lt\n        /* \"#utility.yul\":8864:8882   */\n      dup2\n        /* \"#utility.yul\":8861:8899   */\n      sub\n        /* \"#utility.yul\":8858:8942   */\n      tag_176\n      jumpi\n        /* \"#utility.yul\":8914:8932   */\n      tag_177\n      tag_73\n      jump\t// in\n    tag_177:\n        /* \"#utility.yul\":8858:8942   */\n    tag_176:\n        /* \"#utility.yul\":8679:8948   */\n      pop\n        /* \"#utility.yul\":8628:8948   */\n      swap2\n      swap1\n      pop\n      jump\t// out\n        /* \"#utility.yul\":8954:9095   */\n    tag_74:\n        /* \"#utility.yul\":9003:9007   */\n      0x00\n        /* \"#utility.yul\":9026:9029   */\n      dup2\n        /* \"#utility.yul\":9018:9029   */\n      swap1\n      pop\n        /* \"#utility.yul\":9049:9052   */\n      dup2\n        /* \"#utility.yul\":9046:9047   */\n      0x00\n        /* \"#utility.yul\":9039:9053   */\n      mstore\n        /* \"#utility.yul\":9083:9087   */\n      0x20\n        /* \"#utility.yul\":9080:9081   */\n      0x00\n        /* \"#utility.yul\":9070:9088   */\n      keccak256\n        /* \"#utility.yul\":9062:9088   */\n      swap1\n      pop\n        /* \"#utility.yul\":8954:9095   */\n      swap2\n      swap1\n      pop\n      jump\t// out\n        /* \"#utility.yul\":9101:9194   */\n    tag_75:\n        /* \"#utility.yul\":9138:9144   */\n      0x00\n        /* \"#utility.yul\":9185:9187   */\n      0x20\n        /* \"#utility.yul\":9180:9182   */\n      0x1f\n        /* \"#utility.yul\":9173:9178   */\n      dup4\n        /* \"#utility.yul\":9169:9183   */\n      add\n        /* \"#utility.yul\":9165:9188   */\n      div\n        /* \"#utility.yul\":9155:9188   */\n      swap1\n      pop\n        /* \"#utility.yul\":9101:9194   */\n      swap2\n      swap1\n      pop\n      jump\t// out\n        /* \"#utility.yul\":9200:9307   */\n    tag_76:\n        /* \"#utility.yul\":9244:9252   */\n      0x00\n        /* \"#utility.yul\":9294:9299   */\n      dup3\n        /* \"#utility.yul\":9288:9292   */\n      dup3\n        /* \"#utility.yul\":9284:9300   */\n      shl\n        /* \"#utility.yul\":9263:9300   */\n      swap1\n      pop\n        /* \"#utility.yul\":9200:9307   */\n      swap3\n      swap2\n      pop\n      pop\n      jump\t// out\n        /* \"#utility.yul\":9313:9706   */\n    tag_77:\n        /* \"#utility.yul\":9382:9388   */\n      0x00\n        /* \"#utility.yul\":9432:9433   */\n      0x08\n        /* \"#utility.yul\":9420:9430   */\n      dup4\n        /* \"#utility.yul\":9416:9434   */\n      mul\n        /* \"#utility.yul\":9455:9552   */\n      tag_182\n        /* \"#utility.yul\":9485:9551   */\n      0xffffffffffffffffffffffffffffffffffffffffffffffffffffffffffffffff\n        /* \"#utility.yul\":9474:9483   */\n      dup3\n        /* \"#utility.yul\":9455:9552   */\n      tag_76\n      jump\t// in\n    tag_182:\n        /* \"#utility.yul\":9573:9612   */\n      tag_183\n        /* \"#utility.yul\":9603:9611   */\n      dup7\n        /* \"#utility.yul\":9592:9601   */\n      dup4\n        /* \"#utility.yul\":9573:9612   */\n      tag_76\n      jump\t// in\n    tag_183:\n        /* \"#utility.yul\":9561:9612   */\n      swap6\n      pop\n        /* \"#utility.yul\":9645:9649   */\n      dup1\n        /* \"#utility.yul\":9641:9650   */\n      not\n        /* \"#utility.yul\":9634:9639   */\n      dup5\n        /* \"#utility.yul\":9630:9651   */\n      and\n        /* \"#utility.yul\":9621:9651   */\n      swap4\n      pop\n        /* \"#utility.yul\":9694:9698   */\n      dup1\n        /* \"#utility.yul\":9684:9692   */\n      dup7\n        /* \"#utility.yul\":9680:9699   */\n      and\n        /* \"#utility.yul\":9673:9678   */\n      dup5\n        /* \"#utility.yul\":9670:9700   */\n      or\n        /* \"#utility.yul\":9660:9700   */\n      swap3\n      pop\n        /* \"#utility.yul\":9389:9706   */\n      pop\n      pop\n        /* \"#utility.yul\":9313:9706   */\n      swap4\n      swap3\n      pop\n      pop\n      pop\n      jump\t// out\n        /* \"#utility.yul\":9712:9789   */\n    tag_78:\n        /* \"#utility.yul\":9749:9756   */\n      0x00\n        /* \"#utility.yul\":9778:9783   */\n      dup2\n        /* \"#utility.yul\":9767:9783   */\n      swap1\n      pop\n        /* \"#utility.yul\":9712:9789   */\n      swap2\n      swap1\n      pop\n      jump\t// out\n        /* \"#utility.yul\":9795:9855   */\n    tag_79:\n        /* \"#utility.yul\":9823:9826   */\n      0x00\n        /* \"#utility.yul\":9844:9849   */\n      dup2\n        /* \"#utility.yul\":9837:9849   */\n      swap1\n      pop\n        /* \"#utility.yul\":9795:9855   */\n      swap2\n      swap1\n      pop\n      jump\t// out\n        /* \"#utility.yul\":9861:10003   */\n    tag_80:\n        /* \"#utility.yul\":9911:9920   */\n      0x00\n        /* \"#utility.yul\":9944:9997   */\n      tag_187\n        /* \"#utility.yul\":9962:9996   */\n      tag_188\n        /* \"#utility.yul\":9971:9995   */\n      tag_189\n        /* \"#utility.yul\":9989:9994   */\n      dup5\n        /* \"#utility.yul\":9971:9995   */\n      tag_78\n      jump\t// in\n    tag_189:\n        /* \"#utility.yul\":9962:9996   */\n      tag_79\n      jump\t// in\n    tag_188:\n        /* \"#utility.yul\":9944:9997   */\n      tag_78\n      jump\t// in\n    tag_187:\n        /* \"#utility.yul\":9931:9997   */\n      swap1\n      pop\n        /* \"#utility.yul\":9861:10003   */\n      swap2\n      swap1\n      pop\n      jump\t// out\n        /* \"#utility.yul\":10009:10084   */\n    tag_81:\n        /* \"#utility.yul\":10052:10055   */\n      0x00\n        /* \"#utility.yul\":10073:10078   */\n      dup2\n        /* \"#utility.yul\":10066:10078   */\n      swap1\n      pop\n        /* \"#utility.yul\":10009:10084   */\n      swap2\n      swap1\n      pop\n      jump\t// out\n        /* \"#utility.yul\":10090:10359   */\n    tag_82:\n        /* \"#utility.yul\":10200:10239   */\n      tag_192\n        /* \"#utility.yul\":10231:10238   */\n      dup4\n        /* \"#utility.yul\":10200:10239   */\n      tag_80\n      jump\t// in\n    tag_192:\n        /* \"#utility.yul\":10261:10352   */\n      tag_193\n        /* \"#utility.yul\":10310:10351   */\n      tag_194\n        /* \"#utility.yul\":10334:10350   */\n      dup3\n        /* \"#utility.yul\":10310:10351   */\n      tag_81\n      jump\t// in\n    tag_194:\n        /* \"#utility.yul\":10302:10308   */\n      dup5\n        /* \"#utility.yul\":10295:10299   */\n      dup5\n        /* \"#utility.yul\":10289:10300   */\n      sload\n        /* \"#utility.yul\":10261:10352   */\n      tag_77\n      jump\t// in\n    tag_193:\n        /* \"#utility.yul\":10255:10259   */\n      dup3\n        /* \"#utility.yul\":10248:10353   */\n      sstore\n        /* \"#utility.yul\":10166:10359   */\n      pop\n        /* \"#utility.yul\":10090:10359   */\n      pop\n      pop\n      pop\n      jump\t// out\n        /* \"#utility.yul\":10365:10438   */\n    tag_83:\n        /* \"#utility.yul\":10410:10413   */\n      0x00\n        /* \"#utility.yul\":10365:10438   */\n      swap1\n      jump\t// out\n        /* \"#utility.yul\":10444:10633   */\n    tag_84:\n        /* \"#utility.yul\":10521:10553   */\n      tag_197\n      tag_83\n      jump\t// in\n    tag_197:\n        /* \"#utility.yul\":10562:10627   */\n      tag_198\n        /* \"#utility.yul\":10620:10626   */\n      dup2\n        /* \"#utility.yul\":10612:10618   */\n      dup5\n        /* \"#utility.yul\":10606:10610   */\n      dup5\n        /* \"#utility.yul\":10562:10627   */\n      tag_82\n      jump\t// in\n    tag_198:\n        /* \"#utility.yul\":10497:10633   */\n      pop\n        /* \"#utility.yul\":10444:10633   */\n      pop\n      pop\n      jump\t// out\n        /* \"#utility.yul\":10639:10825   */\n    tag_85:\n        /* \"#utility.yul\":10699:10819   */\n    tag_200:\n        /* \"#utility.yul\":10716:10719   */\n      dup2\n        /* \"#utility.yul\":10709:10714   */\n      dup2\n        /* \"#utility.yul\":10706:10720   */\n      lt\n        /* \"#utility.yul\":10699:10819   */\n      iszero\n      tag_202\n      jumpi\n        /* \"#utility.yul\":10770:10809   */\n      tag_203\n        /* \"#utility.yul\":10807:10808   */\n      0x00\n        /* \"#utility.yul\":10800:10805   */\n      dup3\n        /* \"#utility.yul\":10770:10809   */\n      tag_84\n      jump\t// in\n    tag_203:\n        /* \"#utility.yul\":10743:10744   */\n      0x01\n        /* \"#utility.yul\":10736:10741   */\n      dup2\n        /* \"#utility.yul\":10732:10745   */\n      add\n        /* \"#utility.yul\":10723:10745   */\n      swap1\n      pop\n        /* \"#utility.yul\":10699:10819   */\n      jump(tag_200)\n    tag_202:\n        /* \"#utility.yul\":10639:10825   */\n      pop\n      pop\n      jump\t// out\n        /* \"#utility.yul\":10831:11374   */\n    tag_86:\n        /* \"#utility.yul\":10932:10934   */\n      0x1f\n        /* \"#utility.yul\":10927:10930   */\n      dup3\n        /* \"#utility.yul\":10924:10935   */\n      gt\n        /* \"#utility.yul\":10921:11367   */\n      iszero\n      tag_205\n      jumpi\n        /* \"#utility.yul\":10966:11004   */\n      tag_206\n        /* \"#utility.yul\":10998:11003   */\n      dup2\n        /* \"#utility.yul\":10966:11004   */\n      tag_74\n      jump\t// in\n    tag_206:\n        /* \"#utility.yul\":11050:11079   */\n      tag_207\n        /* \"#utility.yul\":11068:11078   */\n      dup5\n        /* \"#utility.yul\":11050:11079   */\n      tag_75\n      jump\t// in\n    tag_207:\n        /* \"#utility.yul\":11040:11048   */\n      dup2\n        /* \"#utility.yul\":11036:11080   */\n      add\n        /* \"#utility.yul\":11233:11235   */\n      0x20\n        /* \"#utility.yul\":11221:11231   */\n      dup6\n        /* \"#utility.yul\":11218:11236   */\n      lt\n        /* \"#utility.yul\":11215:11264   */\n      iszero\n      tag_208\n      jumpi\n        /* \"#utility.yul\":11254:11262   */\n      dup2\n        /* \"#utility.yul\":11239:11262   */\n      swap1\n      pop\n        /* \"#utility.yul\":11215:11264   */\n    tag_208:\n        /* \"#utility.yul\":11277:11357   */\n      tag_209\n        /* \"#utility.yul\":11333:11355   */\n      tag_210\n        /* \"#utility.yul\":11351:11354   */\n      dup6\n        /* \"#utility.yul\":11333:11355   */\n      tag_75\n      jump\t// in\n    tag_210:\n        /* \"#utility.yul\":11323:11331   */\n      dup4\n        /* \"#utility.yul\":11319:11356   */\n      add\n        /* \"#utility.yul\":11306:11317   */\n      dup3\n        /* \"#utility.yul\":11277:11357   */\n      tag_85\n      jump\t// in\n    tag_209:\n        /* \"#utility.yul\":10936:11367   */\n      pop\n      pop\n        /* \"#utility.yul\":10921:11367   */\n    tag_205:\n        /* \"#utility.yul\":10831:11374   */\n      pop\n      pop\n      pop\n      jump\t// out\n        /* \"#utility.yul\":11380:11497   */\n    tag_87:\n        /* \"#utility.yul\":11434:11442   */\n      0x00\n        /* \"#utility.yul\":11484:11489   */\n      dup3\n        /* \"#utility.yul\":11478:11482   */\n      dup3\n        /* \"#utility.yul\":11474:11490   */\n      shr\n        /* \"#utility.yul\":11453:11490   */\n      swap1\n      pop\n        /* \"#utility.yul\":11380:11497   */\n      swap3\n      swap2\n      pop\n      pop\n      jump\t// out\n        /* \"#utility.yul\":11503:11672   */\n    tag_88:\n        /* \"#utility.yul\":11547:11553   */\n      0x00\n        /* \"#utility.yul\":11580:11631   */\n      tag_213\n        /* \"#utility.yul\":11628:11629   */\n      0x00\n        /* \"#utility.yul\":11624:11630   */\n      not\n        /* \"#utility.yul\":11616:11621   */\n      dup5\n        /* \"#utility.yul\":11613:11614   */\n      0x08\n        /* \"#utility.yul\":11609:11622   */\n      mul\n        /* \"#utility.yul\":11580:11631   */\n      tag_87\n      jump\t// in\n    tag_213:\n        /* \"#utility.yul\":11576:11632   */\n      not\n        /* \"#utility.yul\":11661:11665   */\n      dup1\n        /* \"#utility.yul\":11655:11659   */\n      dup4\n        /* \"#utility.yul\":11651:11666   */\n      and\n        /* \"#utility.yul\":11641:11666   */\n      swap2\n      pop\n        /* \"#utility.yul\":11554:11672   */\n      pop\n        /* \"#utility.yul\":11503:11672   */\n      swap3\n      swap2\n      pop\n      pop\n      jump\t// out\n        /* \"#utility.yul\":11677:11972   */\n    tag_89:\n        /* \"#utility.yul\":11753:11757   */\n      0x00\n        /* \"#utility.yul\":11899:11928   */\n      tag_215\n        /* \"#utility.yul\":11924:11927   */\n      dup4\n        /* \"#utility.yul\":11918:11922   */\n      dup4\n        /* \"#utility.yul\":11899:11928   */\n      tag_88\n      jump\t// in\n    tag_215:\n        /* \"#utility.yul\":11891:11928   */\n      swap2\n      pop\n        /* \"#utility.yul\":11961:11964   */\n      dup3\n        /* \"#utility.yul\":11958:11959   */\n      0x02\n        /* \"#utility.yul\":11954:11965   */\n      mul\n        /* \"#utility.yul\":11948:11952   */\n      dup3\n        /* \"#utility.yul\":11945:11966   */\n      or\n        /* \"#utility.yul\":11937:11966   */\n      swap1\n      pop\n        /* \"#utility.yul\":11677:11972   */\n      swap3\n      swap2\n      pop\n      pop\n      jump\t// out\n        /* \"#utility.yul\":11977:13372   */\n    tag_31:\n        /* \"#utility.yul\":12094:12131   */\n      tag_217\n        /* \"#utility.yul\":12127:12130   */\n      dup3\n        /* \"#utility.yul\":12094:12131   */\n      tag_63\n      jump\t// in\n    tag_217:\n        /* \"#utility.yul\":12196:12214   */\n      0xffffffffffffffff\n        /* \"#utility.yul\":12188:12194   */\n      dup2\n        /* \"#utility.yul\":12185:12215   */\n      gt\n        /* \"#utility.yul\":12182:12238   */\n      iszero\n      tag_218\n      jumpi\n        /* \"#utility.yul\":12218:12236   */\n      tag_219\n      tag_55\n      jump\t// in\n    tag_219:\n        /* \"#utility.yul\":12182:12238   */\n    tag_218:\n        /* \"#utility.yul\":12262:12300   */\n      tag_220\n        /* \"#utility.yul\":12294:12298   */\n      dup3\n        /* \"#utility.yul\":12288:12299   */\n      sload\n        /* \"#utility.yul\":12262:12300   */\n      tag_35\n      jump\t// in\n    tag_220:\n        /* \"#utility.yul\":12347:12414   */\n      tag_221\n        /* \"#utility.yul\":12407:12413   */\n      dup3\n        /* \"#utility.yul\":12399:12405   */\n      dup3\n        /* \"#utility.yul\":12393:12397   */\n      dup6\n        /* \"#utility.yul\":12347:12414   */\n      tag_86\n      jump\t// in\n    tag_221:\n        /* \"#utility.yul\":12441:12442   */\n      0x00\n        /* \"#utility.yul\":12465:12469   */\n      0x20\n        /* \"#utility.yul\":12452:12469   */\n      swap1\n      pop\n        /* \"#utility.yul\":12497:12499   */\n      0x1f\n        /* \"#utility.yul\":12489:12495   */\n      dup4\n        /* \"#utility.yul\":12486:12500   */\n      gt\n        /* \"#utility.yul\":12514:12515   */\n      0x01\n        /* \"#utility.yul\":12509:13127   */\n      dup2\n      eq\n      tag_223\n      jumpi\n        /* \"#utility.yul\":13171:13172   */\n      0x00\n        /* \"#utility.yul\":13188:13194   */\n      dup5\n        /* \"#utility.yul\":13185:13262   */\n      iszero\n      tag_224\n      jumpi\n        /* \"#utility.yul\":13237:13246   */\n      dup3\n        /* \"#utility.yul\":13232:13235   */\n      dup8\n        /* \"#utility.yul\":13228:13247   */\n      add\n        /* \"#utility.yul\":13222:13248   */\n      mload\n        /* \"#utility.yul\":13213:13248   */\n      swap1\n      pop\n        /* \"#utility.yul\":13185:13262   */\n    tag_224:\n        /* \"#utility.yul\":13288:13355   */\n      tag_225\n        /* \"#utility.yul\":13348:13354   */\n      dup6\n        /* \"#utility.yul\":13341:13346   */\n      dup3\n        /* \"#utility.yul\":13288:13355   */\n      tag_89\n      jump\t// in\n    tag_225:\n        /* \"#utility.yul\":13282:13286   */\n      dup7\n        /* \"#utility.yul\":13275:13356   */\n      sstore\n        /* \"#utility.yul\":13144:13366   */\n      pop\n        /* \"#utility.yul\":12479:13366   */\n      jump(tag_222)\n        /* \"#utility.yul\":12509:13127   */\n    tag_223:\n        /* \"#utility.yul\":12561:12565   */\n      0x1f\n        /* \"#utility.yul\":12557:12566   */\n      not\n        /* \"#utility.yul\":12549:12555   */\n      dup5\n        /* \"#utility.yul\":12545:12567   */\n      and\n        /* \"#utility.yul\":12595:12632   */\n      tag_226\n        /* \"#utility.yul\":12627:12631   */\n      dup7\n        /* \"#utility.yul\":12595:12632   */\n      tag_74\n      jump\t// in\n    tag_226:\n        /* \"#utility.yul\":12654:12655   */\n      0x00\n        /* \"#utility.yul\":12668:12876   */\n    tag_227:\n        /* \"#utility.yul\":12682:12689   */\n      dup3\n        /* \"#utility.yul\":12679:12680   */\n      dup2\n        /* \"#utility.yul\":12676:12690   */\n      lt\n        /* \"#utility.yul\":12668:12876   */\n      iszero\n      tag_229\n      jumpi\n        /* \"#utility.yul\":12761:12770   */\n      dup5\n        /* \"#utility.yul\":12756:12759   */\n      dup10\n        /* \"#utility.yul\":12752:12771   */\n      add\n        /* \"#utility.yul\":12746:12772   */\n      mload\n        /* \"#utility.yul\":12738:12744   */\n      dup3\n        /* \"#utility.yul\":12731:12773   */\n      sstore\n        /* \"#utility.yul\":12812:12813   */\n      0x01\n        /* \"#utility.yul\":12804:12810   */\n      dup3\n        /* \"#utility.yul\":12800:12814   */\n      add\n        /* \"#utility.yul\":12790:12814   */\n      swap2\n      pop\n        /* \"#utility.yul\":12859:12861   */\n      0x20\n        /* \"#utility.yul\":12848:12857   */\n      dup6\n        /* \"#utility.yul\":12844:12862   */\n      add\n        /* \"#utility.yul\":12831:12862   */\n      swap5\n      pop\n        /* \"#utility.yul\":12705:12709   */\n      0x20\n        /* \"#utility.yul\":12702:12703   */\n      dup2\n        /* \"#utility.yul\":12698:12710   */\n      add\n        /* \"#utility.yul\":12693:12710   */\n      swap1\n      pop\n        /* \"#utility.yul\":12668:12876   */\n      jump(tag_227)\n    tag_229:\n        /* \"#utility.yul\":12904:12910   */\n      dup7\n        /* \"#utility.yul\":12895:12902   */\n      dup4\n        /* \"#utility.yul\":12892:12911   */\n      lt\n        /* \"#utility.yul\":12889:13068   */\n      iszero\n      tag_230\n      jumpi\n        /* \"#utility.yul\":12962:12971   */\n      dup5\n        /* \"#utility.yul\":12957:12960   */\n      dup10\n        /* \"#utility.yul\":12953:12972   */\n      add\n        /* \"#utility.yul\":12947:12973   */\n      mload\n        /* \"#utility.yul\":13005:13053   */\n      tag_231\n        /* \"#utility.yul\":13047:13051   */\n      0x1f\n        /* \"#utility.yul\":13039:13045   */\n      dup10\n        /* \"#utility.yul\":13035:13052   */\n      and\n        /* \"#utility.yul\":13024:13033   */\n      dup3\n        /* \"#utility.yul\":13005:13053   */\n      tag_88\n      jump\t// in\n    tag_231:\n        /* \"#utility.yul\":12997:13003   */\n      dup4\n        /* \"#utility.yul\":12990:13054   */\n      sstore\n        /* \"#utility.yul\":12912:13068   */\n      pop\n        /* \"#utility.yul\":12889:13068   */\n    tag_230:\n        /* \"#utility.yul\":13114:13115   */\n      0x01\n        /* \"#utility.yul\":13110:13111   */\n      0x02\n        /* \"#utility.yul\":13102:13108   */\n      dup9\n        /* \"#utility.yul\":13098:13112   */\n      mul\n        /* \"#utility.yul\":13094:13116   */\n      add\n        /* \"#utility.yul\":13088:13092   */\n      dup9\n        /* \"#utility.yul\":13081:13117   */\n      sstore\n        /* \"#utility.yul\":12516:13127   */\n      pop\n      pop\n      pop\n        /* \"#utility.yul\":12479:13366   */\n    tag_222:\n      pop\n        /* \"#utility.yul\":12069:13372   */\n      pop\n      pop\n      pop\n        /* \"#utility.yul\":11977:13372   */\n      pop\n      pop\n      jump\t// out\n\n    auxdata: 0xa26469706673582212201cbbc3e41ad85b576c0a3a4a7f314ee6da48d23d3b09ff0d6651b92f81ba811664736f6c63430008180033\n}\n",
				"bytecode": {
					"linkReferences": {},
					"object": "608060405234801561000f575f80fd5b50610c748061001d5f395ff3fe608060405234801561000f575f80fd5b506004361061003f575f3560e01c80630ea126f9146100435780636f77926b1461005f578063a87430ba14610090575b5f80fd5b61005d600480360381019061005891906106f8565b6100c1565b005b61007960048036038101906100749190610752565b61035a565b604051610087929190610806565b60405180910390f35b6100aa60048036038101906100a59190610752565b61048d565b6040516100b8929190610806565b60405180910390f35b5f73ffffffffffffffffffffffffffffffffffffffff168273ffffffffffffffffffffffffffffffffffffffff160361012f576040517f08c379a00000000000000000000000000000000000000000000000000000000081526004016101269061087e565b60405180910390fd5b5f815111610172576040517f08c379a0000000000000000000000000000000000000000000000000000000008152600401610169906108e6565b60405180910390fd5b5f73ffffffffffffffffffffffffffffffffffffffff165f803373ffffffffffffffffffffffffffffffffffffffff1673ffffffffffffffffffffffffffffffffffffffff1681526020019081526020015f205f015f9054906101000a900473ffffffffffffffffffffffffffffffffffffffff1673ffffffffffffffffffffffffffffffffffffffff161461023d576040517f08c379a00000000000000000000000000000000000000000000000000000000081526004016102349061094e565b60405180910390fd5b5f60405180604001604052808473ffffffffffffffffffffffffffffffffffffffff168152602001838152509050805f803373ffffffffffffffffffffffffffffffffffffffff1673ffffffffffffffffffffffffffffffffffffffff1681526020019081526020015f205f820151815f015f6101000a81548173ffffffffffffffffffffffffffffffffffffffff021916908373ffffffffffffffffffffffffffffffffffffffff16021790555060208201518160010190816103019190610b6f565b509050503373ffffffffffffffffffffffffffffffffffffffff167f01be19eddd591828517da57e6c20f06c0259b80c6df19796958b0b8b50604aa1848460405161034d929190610806565b60405180910390a2505050565b5f60605f808473ffffffffffffffffffffffffffffffffffffffff1673ffffffffffffffffffffffffffffffffffffffff1681526020019081526020015f205f015f9054906101000a900473ffffffffffffffffffffffffffffffffffffffff165f808573ffffffffffffffffffffffffffffffffffffffff1673ffffffffffffffffffffffffffffffffffffffff1681526020019081526020015f2060010180805461040690610999565b80601f016020809104026020016040519081016040528092919081815260200182805461043290610999565b801561047d5780601f106104545761010080835404028352916020019161047d565b820191905f5260205f20905b81548152906001019060200180831161046057829003601f168201915b5050505050905091509150915091565b5f602052805f5260405f205f91509050805f015f9054906101000a900473ffffffffffffffffffffffffffffffffffffffff16908060010180546104d090610999565b80601f01602080910402602001604051908101604052809291908181526020018280546104fc90610999565b80156105475780601f1061051e57610100808354040283529160200191610547565b820191905f5260205f20905b81548152906001019060200180831161052a57829003601f168201915b5050505050905082565b5f604051905090565b5f80fd5b5f80fd5b5f73ffffffffffffffffffffffffffffffffffffffff82169050919050565b5f61058b82610562565b9050919050565b61059b81610581565b81146105a5575f80fd5b50565b5f813590506105b681610592565b92915050565b5f80fd5b5f80fd5b5f601f19601f8301169050919050565b7f4e487b71000000000000000000000000000000000000000000000000000000005f52604160045260245ffd5b61060a826105c4565b810181811067ffffffffffffffff82111715610629576106286105d4565b5b80604052505050565b5f61063b610551565b90506106478282610601565b919050565b5f67ffffffffffffffff821115610666576106656105d4565b5b61066f826105c4565b9050602081019050919050565b828183375f83830152505050565b5f61069c6106978461064c565b610632565b9050828152602081018484840111156106b8576106b76105c0565b5b6106c384828561067c565b509392505050565b5f82601f8301126106df576106de6105bc565b5b81356106ef84826020860161068a565b91505092915050565b5f806040838503121561070e5761070d61055a565b5b5f61071b858286016105a8565b925050602083013567ffffffffffffffff81111561073c5761073b61055e565b5b610748858286016106cb565b9150509250929050565b5f602082840312156107675761076661055a565b5b5f610774848285016105a8565b91505092915050565b61078681610581565b82525050565b5f81519050919050565b5f82825260208201905092915050565b5f5b838110156107c35780820151818401526020810190506107a8565b5f8484015250505050565b5f6107d88261078c565b6107e28185610796565b93506107f28185602086016107a6565b6107fb816105c4565b840191505092915050565b5f6040820190506108195f83018561077d565b818103602083015261082b81846107ce565b90509392505050565b7f57616c6c657420697320726571756972656400000000000000000000000000005f82015250565b5f610868601283610796565b915061087382610834565b602082019050919050565b5f6020820190508181035f8301526108958161085c565b9050919050565b7f54797065206973207265717569726564000000000000000000000000000000005f82015250565b5f6108d0601083610796565b91506108db8261089c565b602082019050919050565b5f6020820190508181035f8301526108fd816108c4565b9050919050565b7f5573657220697320616c726561647920726567697374657265640000000000005f82015250565b5f610938601a83610796565b915061094382610904565b602082019050919050565b5f6020820190508181035f8301526109658161092c565b9050919050565b7f4e487b71000000000000000000000000000000000000000000000000000000005f52602260045260245ffd5b5f60028204905060018216806109b057607f821691505b6020821081036109c3576109c261096c565b5b50919050565b5f819050815f5260205f209050919050565b5f6020601f8301049050919050565b5f82821b905092915050565b5f60088302610a257fffffffffffffffffffffffffffffffffffffffffffffffffffffffffffffffff826109ea565b610a2f86836109ea565b95508019841693508086168417925050509392505050565b5f819050919050565b5f819050919050565b5f610a73610a6e610a6984610a47565b610a50565b610a47565b9050919050565b5f819050919050565b610a8c83610a59565b610aa0610a9882610a7a565b8484546109f6565b825550505050565b5f90565b610ab4610aa8565b610abf818484610a83565b505050565b5b81811015610ae257610ad75f82610aac565b600181019050610ac5565b5050565b601f821115610b2757610af8816109c9565b610b01846109db565b81016020851015610b10578190505b610b24610b1c856109db565b830182610ac4565b50505b505050565b5f82821c905092915050565b5f610b475f1984600802610b2c565b1980831691505092915050565b5f610b5f8383610b38565b9150826002028217905092915050565b610b788261078c565b67ffffffffffffffff811115610b9157610b906105d4565b5b610b9b8254610999565b610ba6828285610ae6565b5f60209050601f831160018114610bd7575f8415610bc5578287015190505b610bcf8582610b54565b865550610c36565b601f198416610be5866109c9565b5f5b82811015610c0c57848901518255600182019150602085019450602081019050610be7565b86831015610c295784890151610c25601f891682610b38565b8355505b6001600288020188555050505b50505050505056fea26469706673582212201cbbc3e41ad85b576c0a3a4a7f314ee6da48d23d3b09ff0d6651b92f81ba811664736f6c63430008180033",
					"opcodes": "PUSH1 0x80 PUSH1 0x40 MSTORE CALLVALUE DUP1 ISZERO PUSH2 0xF JUMPI PUSH0 DUP1 REVERT JUMPDEST POP PUSH2 0xC74 DUP1 PUSH2 0x1D PUSH0 CODECOPY PUSH0 RETURN INVALID PUSH1 0x80 PUSH1 0x40 MSTORE CALLVALUE DUP1 ISZERO PUSH2 0xF JUMPI PUSH0 DUP1 REVERT JUMPDEST POP PUSH1 0x4 CALLDATASIZE LT PUSH2 0x3F JUMPI PUSH0 CALLDATALOAD PUSH1 0xE0 SHR DUP1 PUSH4 0xEA126F9 EQ PUSH2 0x43 JUMPI DUP1 PUSH4 0x6F77926B EQ PUSH2 0x5F JUMPI DUP1 PUSH4 0xA87430BA EQ PUSH2 0x90 JUMPI JUMPDEST PUSH0 DUP1 REVERT JUMPDEST PUSH2 0x5D PUSH1 0x4 DUP1 CALLDATASIZE SUB DUP2 ADD SWAP1 PUSH2 0x58 SWAP2 SWAP1 PUSH2 0x6F8 JUMP JUMPDEST PUSH2 0xC1 JUMP JUMPDEST STOP JUMPDEST PUSH2 0x79 PUSH1 0x4 DUP1 CALLDATASIZE SUB DUP2 ADD SWAP1 PUSH2 0x74 SWAP2 SWAP1 PUSH2 0x752 JUMP JUMPDEST PUSH2 0x35A JUMP JUMPDEST PUSH1 0x40 MLOAD PUSH2 0x87 SWAP3 SWAP2 SWAP1 PUSH2 0x806 JUMP JUMPDEST PUSH1 0x40 MLOAD DUP1 SWAP2 SUB SWAP1 RETURN JUMPDEST PUSH2 0xAA PUSH1 0x4 DUP1 CALLDATASIZE SUB DUP2 ADD SWAP1 PUSH2 0xA5 SWAP2 SWAP1 PUSH2 0x752 JUMP JUMPDEST PUSH2 0x48D JUMP JUMPDEST PUSH1 0x40 MLOAD PUSH2 0xB8 SWAP3 SWAP2 SWAP1 PUSH2 0x806 JUMP JUMPDEST PUSH1 0x40 MLOAD DUP1 SWAP2 SUB SWAP1 RETURN JUMPDEST PUSH0 PUSH20 0xFFFFFFFFFFFFFFFFFFFFFFFFFFFFFFFFFFFFFFFF AND DUP3 PUSH20 0xFFFFFFFFFFFFFFFFFFFFFFFFFFFFFFFFFFFFFFFF AND SUB PUSH2 0x12F JUMPI PUSH1 0x40 MLOAD PUSH32 0x8C379A000000000000000000000000000000000000000000000000000000000 DUP2 MSTORE PUSH1 0x4 ADD PUSH2 0x126 SWAP1 PUSH2 0x87E JUMP JUMPDEST PUSH1 0x40 MLOAD DUP1 SWAP2 SUB SWAP1 REVERT JUMPDEST PUSH0 DUP2 MLOAD GT PUSH2 0x172 JUMPI PUSH1 0x40 MLOAD PUSH32 0x8C379A000000000000000000000000000000000000000000000000000000000 DUP2 MSTORE PUSH1 0x4 ADD PUSH2 0x169 SWAP1 PUSH2 0x8E6 JUMP JUMPDEST PUSH1 0x40 MLOAD DUP1 SWAP2 SUB SWAP1 REVERT JUMPDEST PUSH0 PUSH20 0xFFFFFFFFFFFFFFFFFFFFFFFFFFFFFFFFFFFFFFFF AND PUSH0 DUP1 CALLER PUSH20 0xFFFFFFFFFFFFFFFFFFFFFFFFFFFFFFFFFFFFFFFF AND PUSH20 0xFFFFFFFFFFFFFFFFFFFFFFFFFFFFFFFFFFFFFFFF AND DUP2 MSTORE PUSH1 0x20 ADD SWAP1 DUP2 MSTORE PUSH1 0x20 ADD PUSH0 KECCAK256 PUSH0 ADD PUSH0 SWAP1 SLOAD SWAP1 PUSH2 0x100 EXP SWAP1 DIV PUSH20 0xFFFFFFFFFFFFFFFFFFFFFFFFFFFFFFFFFFFFFFFF AND PUSH20 0xFFFFFFFFFFFFFFFFFFFFFFFFFFFFFFFFFFFFFFFF AND EQ PUSH2 0x23D JUMPI PUSH1 0x40 MLOAD PUSH32 0x8C379A000000000000000000000000000000000000000000000000000000000 DUP2 MSTORE PUSH1 0x4 ADD PUSH2 0x234 SWAP1 PUSH2 0x94E JUMP JUMPDEST PUSH1 0x40 MLOAD DUP1 SWAP2 SUB SWAP1 REVERT JUMPDEST PUSH0 PUSH1 0x40 MLOAD DUP1 PUSH1 0x40 ADD PUSH1 0x40 MSTORE DUP1 DUP5 PUSH20 0xFFFFFFFFFFFFFFFFFFFFFFFFFFFFFFFFFFFFFFFF AND DUP2 MSTORE PUSH1 0x20 ADD DUP4 DUP2 MSTORE POP SWAP1 POP DUP1 PUSH0 DUP1 CALLER PUSH20 0xFFFFFFFFFFFFFFFFFFFFFFFFFFFFFFFFFFFFFFFF AND PUSH20 0xFFFFFFFFFFFFFFFFFFFFFFFFFFFFFFFFFFFFFFFF AND DUP2 MSTORE PUSH1 0x20 ADD SWAP1 DUP2 MSTORE PUSH1 0x20 ADD PUSH0 KECCAK256 PUSH0 DUP3 ADD MLOAD DUP2 PUSH0 ADD PUSH0 PUSH2 0x100 EXP DUP2 SLOAD DUP2 PUSH20 0xFFFFFFFFFFFFFFFFFFFFFFFFFFFFFFFFFFFFFFFF MUL NOT AND SWAP1 DUP4 PUSH20 0xFFFFFFFFFFFFFFFFFFFFFFFFFFFFFFFFFFFFFFFF AND MUL OR SWAP1 SSTORE POP PUSH1 0x20 DUP3 ADD MLOAD DUP2 PUSH1 0x1 ADD SWAP1 DUP2 PUSH2 0x301 SWAP2 SWAP1 PUSH2 0xB6F JUMP JUMPDEST POP SWAP1 POP POP CALLER PUSH20 0xFFFFFFFFFFFFFFFFFFFFFFFFFFFFFFFFFFFFFFFF AND PUSH32 0x1BE19EDDD591828517DA57E6C20F06C0259B80C6DF19796958B0B8B50604AA1 DUP5 DUP5 PUSH1 0x40 MLOAD PUSH2 0x34D SWAP3 SWAP2 SWAP1 PUSH2 0x806 JUMP JUMPDEST PUSH1 0x40 MLOAD DUP1 SWAP2 SUB SWAP1 LOG2 POP POP POP JUMP JUMPDEST PUSH0 PUSH1 0x60 PUSH0 DUP1 DUP5 PUSH20 0xFFFFFFFFFFFFFFFFFFFFFFFFFFFFFFFFFFFFFFFF AND PUSH20 0xFFFFFFFFFFFFFFFFFFFFFFFFFFFFFFFFFFFFFFFF AND DUP2 MSTORE PUSH1 0x20 ADD SWAP1 DUP2 MSTORE PUSH1 0x20 ADD PUSH0 KECCAK256 PUSH0 ADD PUSH0 SWAP1 SLOAD SWAP1 PUSH2 0x100 EXP SWAP1 DIV PUSH20 0xFFFFFFFFFFFFFFFFFFFFFFFFFFFFFFFFFFFFFFFF AND PUSH0 DUP1 DUP6 PUSH20 0xFFFFFFFFFFFFFFFFFFFFFFFFFFFFFFFFFFFFFFFF AND PUSH20 0xFFFFFFFFFFFFFFFFFFFFFFFFFFFFFFFFFFFFFFFF AND DUP2 MSTORE PUSH1 0x20 ADD SWAP1 DUP2 MSTORE PUSH1 0x20 ADD PUSH0 KECCAK256 PUSH1 0x1 ADD DUP1 DUP1 SLOAD PUSH2 0x406 SWAP1 PUSH2 0x999 JUMP JUMPDEST DUP1 PUSH1 0x1F ADD PUSH1 0x20 DUP1 SWAP2 DIV MUL PUSH1 0x20 ADD PUSH1 0x40 MLOAD SWAP1 DUP2 ADD PUSH1 0x40 MSTORE DUP1 SWAP3 SWAP2 SWAP1 DUP2 DUP2 MSTORE PUSH1 0x20 ADD DUP3 DUP1 SLOAD PUSH2 0x432 SWAP1 PUSH2 0x999 JUMP JUMPDEST DUP1 ISZERO PUSH2 0x47D JUMPI DUP1 PUSH1 0x1F LT PUSH2 0x454 JUMPI PUSH2 0x100 DUP1 DUP4 SLOAD DIV MUL DUP4 MSTORE SWAP2 PUSH1 0x20 ADD SWAP2 PUSH2 0x47D JUMP JUMPDEST DUP3 ADD SWAP2 SWAP1 PUSH0 MSTORE PUSH1 0x20 PUSH0 KECCAK256 SWAP1 JUMPDEST DUP2 SLOAD DUP2 MSTORE SWAP1 PUSH1 0x1 ADD SWAP1 PUSH1 0x20 ADD DUP1 DUP4 GT PUSH2 0x460 JUMPI DUP3 SWAP1 SUB PUSH1 0x1F AND DUP3 ADD SWAP2 JUMPDEST POP POP POP POP POP SWAP1 POP SWAP2 POP SWAP2 POP SWAP2 POP SWAP2 JUMP JUMPDEST PUSH0 PUSH1 0x20 MSTORE DUP1 PUSH0 MSTORE PUSH1 0x40 PUSH0 KECCAK256 PUSH0 SWAP2 POP SWAP1 POP DUP1 PUSH0 ADD PUSH0 SWAP1 SLOAD SWAP1 PUSH2 0x100 EXP SWAP1 DIV PUSH20 0xFFFFFFFFFFFFFFFFFFFFFFFFFFFFFFFFFFFFFFFF AND SWAP1 DUP1 PUSH1 0x1 ADD DUP1 SLOAD PUSH2 0x4D0 SWAP1 PUSH2 0x999 JUMP JUMPDEST DUP1 PUSH1 0x1F ADD PUSH1 0x20 DUP1 SWAP2 DIV MUL PUSH1 0x20 ADD PUSH1 0x40 MLOAD SWAP1 DUP2 ADD PUSH1 0x40 MSTORE DUP1 SWAP3 SWAP2 SWAP1 DUP2 DUP2 MSTORE PUSH1 0x20 ADD DUP3 DUP1 SLOAD PUSH2 0x4FC SWAP1 PUSH2 0x999 JUMP JUMPDEST DUP1 ISZERO PUSH2 0x547 JUMPI DUP1 PUSH1 0x1F LT PUSH2 0x51E JUMPI PUSH2 0x100 DUP1 DUP4 SLOAD DIV MUL DUP4 MSTORE SWAP2 PUSH1 0x20 ADD SWAP2 PUSH2 0x547 JUMP JUMPDEST DUP3 ADD SWAP2 SWAP1 PUSH0 MSTORE PUSH1 0x20 PUSH0 KECCAK256 SWAP1 JUMPDEST DUP2 SLOAD DUP2 MSTORE SWAP1 PUSH1 0x1 ADD SWAP1 PUSH1 0x20 ADD DUP1 DUP4 GT PUSH2 0x52A JUMPI DUP3 SWAP1 SUB PUSH1 0x1F AND DUP3 ADD SWAP2 JUMPDEST POP POP POP POP POP SWAP1 POP DUP3 JUMP JUMPDEST PUSH0 PUSH1 0x40 MLOAD SWAP1 POP SWAP1 JUMP JUMPDEST PUSH0 DUP1 REVERT JUMPDEST PUSH0 DUP1 REVERT JUMPDEST PUSH0 PUSH20 0xFFFFFFFFFFFFFFFFFFFFFFFFFFFFFFFFFFFFFFFF DUP3 AND SWAP1 POP SWAP2 SWAP1 POP JUMP JUMPDEST PUSH0 PUSH2 0x58B DUP3 PUSH2 0x562 JUMP JUMPDEST SWAP1 POP SWAP2 SWAP1 POP JUMP JUMPDEST PUSH2 0x59B DUP2 PUSH2 0x581 JUMP JUMPDEST DUP2 EQ PUSH2 0x5A5 JUMPI PUSH0 DUP1 REVERT JUMPDEST POP JUMP JUMPDEST PUSH0 DUP2 CALLDATALOAD SWAP1 POP PUSH2 0x5B6 DUP2 PUSH2 0x592 JUMP JUMPDEST SWAP3 SWAP2 POP POP JUMP JUMPDEST PUSH0 DUP1 REVERT JUMPDEST PUSH0 DUP1 REVERT JUMPDEST PUSH0 PUSH1 0x1F NOT PUSH1 0x1F DUP4 ADD AND SWAP1 POP SWAP2 SWAP1 POP JUMP JUMPDEST PUSH32 0x4E487B7100000000000000000000000000000000000000000000000000000000 PUSH0 MSTORE PUSH1 0x41 PUSH1 0x4 MSTORE PUSH1 0x24 PUSH0 REVERT JUMPDEST PUSH2 0x60A DUP3 PUSH2 0x5C4 JUMP JUMPDEST DUP2 ADD DUP2 DUP2 LT PUSH8 0xFFFFFFFFFFFFFFFF DUP3 GT OR ISZERO PUSH2 0x629 JUMPI PUSH2 0x628 PUSH2 0x5D4 JUMP JUMPDEST JUMPDEST DUP1 PUSH1 0x40 MSTORE POP POP POP JUMP JUMPDEST PUSH0 PUSH2 0x63B PUSH2 0x551 JUMP JUMPDEST SWAP1 POP PUSH2 0x647 DUP3 DUP3 PUSH2 0x601 JUMP JUMPDEST SWAP2 SWAP1 POP JUMP JUMPDEST PUSH0 PUSH8 0xFFFFFFFFFFFFFFFF DUP3 GT ISZERO PUSH2 0x666 JUMPI PUSH2 0x665 PUSH2 0x5D4 JUMP JUMPDEST JUMPDEST PUSH2 0x66F DUP3 PUSH2 0x5C4 JUMP JUMPDEST SWAP1 POP PUSH1 0x20 DUP2 ADD SWAP1 POP SWAP2 SWAP1 POP JUMP JUMPDEST DUP3 DUP2 DUP4 CALLDATACOPY PUSH0 DUP4 DUP4 ADD MSTORE POP POP POP JUMP JUMPDEST PUSH0 PUSH2 0x69C PUSH2 0x697 DUP5 PUSH2 0x64C JUMP JUMPDEST PUSH2 0x632 JUMP JUMPDEST SWAP1 POP DUP3 DUP2 MSTORE PUSH1 0x20 DUP2 ADD DUP5 DUP5 DUP5 ADD GT ISZERO PUSH2 0x6B8 JUMPI PUSH2 0x6B7 PUSH2 0x5C0 JUMP JUMPDEST JUMPDEST PUSH2 0x6C3 DUP5 DUP3 DUP6 PUSH2 0x67C JUMP JUMPDEST POP SWAP4 SWAP3 POP POP POP JUMP JUMPDEST PUSH0 DUP3 PUSH1 0x1F DUP4 ADD SLT PUSH2 0x6DF JUMPI PUSH2 0x6DE PUSH2 0x5BC JUMP JUMPDEST JUMPDEST DUP2 CALLDATALOAD PUSH2 0x6EF DUP5 DUP3 PUSH1 0x20 DUP7 ADD PUSH2 0x68A JUMP JUMPDEST SWAP2 POP POP SWAP3 SWAP2 POP POP JUMP JUMPDEST PUSH0 DUP1 PUSH1 0x40 DUP4 DUP6 SUB SLT ISZERO PUSH2 0x70E JUMPI PUSH2 0x70D PUSH2 0x55A JUMP JUMPDEST JUMPDEST PUSH0 PUSH2 0x71B DUP6 DUP3 DUP7 ADD PUSH2 0x5A8 JUMP JUMPDEST SWAP3 POP POP PUSH1 0x20 DUP4 ADD CALLDATALOAD PUSH8 0xFFFFFFFFFFFFFFFF DUP2 GT ISZERO PUSH2 0x73C JUMPI PUSH2 0x73B PUSH2 0x55E JUMP JUMPDEST JUMPDEST PUSH2 0x748 DUP6 DUP3 DUP7 ADD PUSH2 0x6CB JUMP JUMPDEST SWAP2 POP POP SWAP3 POP SWAP3 SWAP1 POP JUMP JUMPDEST PUSH0 PUSH1 0x20 DUP3 DUP5 SUB SLT ISZERO PUSH2 0x767 JUMPI PUSH2 0x766 PUSH2 0x55A JUMP JUMPDEST JUMPDEST PUSH0 PUSH2 0x774 DUP5 DUP3 DUP6 ADD PUSH2 0x5A8 JUMP JUMPDEST SWAP2 POP POP SWAP3 SWAP2 POP POP JUMP JUMPDEST PUSH2 0x786 DUP2 PUSH2 0x581 JUMP JUMPDEST DUP3 MSTORE POP POP JUMP JUMPDEST PUSH0 DUP2 MLOAD SWAP1 POP SWAP2 SWAP1 POP JUMP JUMPDEST PUSH0 DUP3 DUP3 MSTORE PUSH1 0x20 DUP3 ADD SWAP1 POP SWAP3 SWAP2 POP POP JUMP JUMPDEST PUSH0 JUMPDEST DUP4 DUP2 LT ISZERO PUSH2 0x7C3 JUMPI DUP1 DUP3 ADD MLOAD DUP2 DUP5 ADD MSTORE PUSH1 0x20 DUP2 ADD SWAP1 POP PUSH2 0x7A8 JUMP JUMPDEST PUSH0 DUP5 DUP5 ADD MSTORE POP POP POP POP JUMP JUMPDEST PUSH0 PUSH2 0x7D8 DUP3 PUSH2 0x78C JUMP JUMPDEST PUSH2 0x7E2 DUP2 DUP6 PUSH2 0x796 JUMP JUMPDEST SWAP4 POP PUSH2 0x7F2 DUP2 DUP6 PUSH1 0x20 DUP7 ADD PUSH2 0x7A6 JUMP JUMPDEST PUSH2 0x7FB DUP2 PUSH2 0x5C4 JUMP JUMPDEST DUP5 ADD SWAP2 POP POP SWAP3 SWAP2 POP POP JUMP JUMPDEST PUSH0 PUSH1 0x40 DUP3 ADD SWAP1 POP PUSH2 0x819 PUSH0 DUP4 ADD DUP6 PUSH2 0x77D JUMP JUMPDEST DUP2 DUP2 SUB PUSH1 0x20 DUP4 ADD MSTORE PUSH2 0x82B DUP2 DUP5 PUSH2 0x7CE JUMP JUMPDEST SWAP1 POP SWAP4 SWAP3 POP POP POP JUMP JUMPDEST PUSH32 0x57616C6C65742069732072657175697265640000000000000000000000000000 PUSH0 DUP3 ADD MSTORE POP JUMP JUMPDEST PUSH0 PUSH2 0x868 PUSH1 0x12 DUP4 PUSH2 0x796 JUMP JUMPDEST SWAP2 POP PUSH2 0x873 DUP3 PUSH2 0x834 JUMP JUMPDEST PUSH1 0x20 DUP3 ADD SWAP1 POP SWAP2 SWAP1 POP JUMP JUMPDEST PUSH0 PUSH1 0x20 DUP3 ADD SWAP1 POP DUP2 DUP2 SUB PUSH0 DUP4 ADD MSTORE PUSH2 0x895 DUP2 PUSH2 0x85C JUMP JUMPDEST SWAP1 POP SWAP2 SWAP1 POP JUMP JUMPDEST PUSH32 0x5479706520697320726571756972656400000000000000000000000000000000 PUSH0 DUP3 ADD MSTORE POP JUMP JUMPDEST PUSH0 PUSH2 0x8D0 PUSH1 0x10 DUP4 PUSH2 0x796 JUMP JUMPDEST SWAP2 POP PUSH2 0x8DB DUP3 PUSH2 0x89C JUMP JUMPDEST PUSH1 0x20 DUP3 ADD SWAP1 POP SWAP2 SWAP1 POP JUMP JUMPDEST PUSH0 PUSH1 0x20 DUP3 ADD SWAP1 POP DUP2 DUP2 SUB PUSH0 DUP4 ADD MSTORE PUSH2 0x8FD DUP2 PUSH2 0x8C4 JUMP JUMPDEST SWAP1 POP SWAP2 SWAP1 POP JUMP JUMPDEST PUSH32 0x5573657220697320616C72656164792072656769737465726564000000000000 PUSH0 DUP3 ADD MSTORE POP JUMP JUMPDEST PUSH0 PUSH2 0x938 PUSH1 0x1A DUP4 PUSH2 0x796 JUMP JUMPDEST SWAP2 POP PUSH2 0x943 DUP3 PUSH2 0x904 JUMP JUMPDEST PUSH1 0x20 DUP3 ADD SWAP1 POP SWAP2 SWAP1 POP JUMP JUMPDEST PUSH0 PUSH1 0x20 DUP3 ADD SWAP1 POP DUP2 DUP2 SUB PUSH0 DUP4 ADD MSTORE PUSH2 0x965 DUP2 PUSH2 0x92C JUMP JUMPDEST SWAP1 POP SWAP2 SWAP1 POP JUMP JUMPDEST PUSH32 0x4E487B7100000000000000000000000000000000000000000000000000000000 PUSH0 MSTORE PUSH1 0x22 PUSH1 0x4 MSTORE PUSH1 0x24 PUSH0 REVERT JUMPDEST PUSH0 PUSH1 0x2 DUP3 DIV SWAP1 POP PUSH1 0x1 DUP3 AND DUP1 PUSH2 0x9B0 JUMPI PUSH1 0x7F DUP3 AND SWAP2 POP JUMPDEST PUSH1 0x20 DUP3 LT DUP2 SUB PUSH2 0x9C3 JUMPI PUSH2 0x9C2 PUSH2 0x96C JUMP JUMPDEST JUMPDEST POP SWAP2 SWAP1 POP JUMP JUMPDEST PUSH0 DUP2 SWAP1 POP DUP2 PUSH0 MSTORE PUSH1 0x20 PUSH0 KECCAK256 SWAP1 POP SWAP2 SWAP1 POP JUMP JUMPDEST PUSH0 PUSH1 0x20 PUSH1 0x1F DUP4 ADD DIV SWAP1 POP SWAP2 SWAP1 POP JUMP JUMPDEST PUSH0 DUP3 DUP3 SHL SWAP1 POP SWAP3 SWAP2 POP POP JUMP JUMPDEST PUSH0 PUSH1 0x8 DUP4 MUL PUSH2 0xA25 PUSH32 0xFFFFFFFFFFFFFFFFFFFFFFFFFFFFFFFFFFFFFFFFFFFFFFFFFFFFFFFFFFFFFFFF DUP3 PUSH2 0x9EA JUMP JUMPDEST PUSH2 0xA2F DUP7 DUP4 PUSH2 0x9EA JUMP JUMPDEST SWAP6 POP DUP1 NOT DUP5 AND SWAP4 POP DUP1 DUP7 AND DUP5 OR SWAP3 POP POP POP SWAP4 SWAP3 POP POP POP JUMP JUMPDEST PUSH0 DUP2 SWAP1 POP SWAP2 SWAP1 POP JUMP JUMPDEST PUSH0 DUP2 SWAP1 POP SWAP2 SWAP1 POP JUMP JUMPDEST PUSH0 PUSH2 0xA73 PUSH2 0xA6E PUSH2 0xA69 DUP5 PUSH2 0xA47 JUMP JUMPDEST PUSH2 0xA50 JUMP JUMPDEST PUSH2 0xA47 JUMP JUMPDEST SWAP1 POP SWAP2 SWAP1 POP JUMP JUMPDEST PUSH0 DUP2 SWAP1 POP SWAP2 SWAP1 POP JUMP JUMPDEST PUSH2 0xA8C DUP4 PUSH2 0xA59 JUMP JUMPDEST PUSH2 0xAA0 PUSH2 0xA98 DUP3 PUSH2 0xA7A JUMP JUMPDEST DUP5 DUP5 SLOAD PUSH2 0x9F6 JUMP JUMPDEST DUP3 SSTORE POP POP POP POP JUMP JUMPDEST PUSH0 SWAP1 JUMP JUMPDEST PUSH2 0xAB4 PUSH2 0xAA8 JUMP JUMPDEST PUSH2 0xABF DUP2 DUP5 DUP5 PUSH2 0xA83 JUMP JUMPDEST POP POP POP JUMP JUMPDEST JUMPDEST DUP2 DUP2 LT ISZERO PUSH2 0xAE2 JUMPI PUSH2 0xAD7 PUSH0 DUP3 PUSH2 0xAAC JUMP JUMPDEST PUSH1 0x1 DUP2 ADD SWAP1 POP PUSH2 0xAC5 JUMP JUMPDEST POP POP JUMP JUMPDEST PUSH1 0x1F DUP3 GT ISZERO PUSH2 0xB27 JUMPI PUSH2 0xAF8 DUP2 PUSH2 0x9C9 JUMP JUMPDEST PUSH2 0xB01 DUP5 PUSH2 0x9DB JUMP JUMPDEST DUP2 ADD PUSH1 0x20 DUP6 LT ISZERO PUSH2 0xB10 JUMPI DUP2 SWAP1 POP JUMPDEST PUSH2 0xB24 PUSH2 0xB1C DUP6 PUSH2 0x9DB JUMP JUMPDEST DUP4 ADD DUP3 PUSH2 0xAC4 JUMP JUMPDEST POP POP JUMPDEST POP POP POP JUMP JUMPDEST PUSH0 DUP3 DUP3 SHR SWAP1 POP SWAP3 SWAP2 POP POP JUMP JUMPDEST PUSH0 PUSH2 0xB47 PUSH0 NOT DUP5 PUSH1 0x8 MUL PUSH2 0xB2C JUMP JUMPDEST NOT DUP1 DUP4 AND SWAP2 POP POP SWAP3 SWAP2 POP POP JUMP JUMPDEST PUSH0 PUSH2 0xB5F DUP4 DUP4 PUSH2 0xB38 JUMP JUMPDEST SWAP2 POP DUP3 PUSH1 0x2 MUL DUP3 OR SWAP1 POP SWAP3 SWAP2 POP POP JUMP JUMPDEST PUSH2 0xB78 DUP3 PUSH2 0x78C JUMP JUMPDEST PUSH8 0xFFFFFFFFFFFFFFFF DUP2 GT ISZERO PUSH2 0xB91 JUMPI PUSH2 0xB90 PUSH2 0x5D4 JUMP JUMPDEST JUMPDEST PUSH2 0xB9B DUP3 SLOAD PUSH2 0x999 JUMP JUMPDEST PUSH2 0xBA6 DUP3 DUP3 DUP6 PUSH2 0xAE6 JUMP JUMPDEST PUSH0 PUSH1 0x20 SWAP1 POP PUSH1 0x1F DUP4 GT PUSH1 0x1 DUP2 EQ PUSH2 0xBD7 JUMPI PUSH0 DUP5 ISZERO PUSH2 0xBC5 JUMPI DUP3 DUP8 ADD MLOAD SWAP1 POP JUMPDEST PUSH2 0xBCF DUP6 DUP3 PUSH2 0xB54 JUMP JUMPDEST DUP7 SSTORE POP PUSH2 0xC36 JUMP JUMPDEST PUSH1 0x1F NOT DUP5 AND PUSH2 0xBE5 DUP7 PUSH2 0x9C9 JUMP JUMPDEST PUSH0 JUMPDEST DUP3 DUP2 LT ISZERO PUSH2 0xC0C JUMPI DUP5 DUP10 ADD MLOAD DUP3 SSTORE PUSH1 0x1 DUP3 ADD SWAP2 POP PUSH1 0x20 DUP6 ADD SWAP5 POP PUSH1 0x20 DUP2 ADD SWAP1 POP PUSH2 0xBE7 JUMP JUMPDEST DUP7 DUP4 LT ISZERO PUSH2 0xC29 JUMPI DUP5 DUP10 ADD MLOAD PUSH2 0xC25 PUSH1 0x1F DUP10 AND DUP3 PUSH2 0xB38 JUMP JUMPDEST DUP4 SSTORE POP JUMPDEST PUSH1 0x1 PUSH1 0x2 DUP9 MUL ADD DUP9 SSTORE POP POP POP JUMPDEST POP POP POP POP POP POP JUMP INVALID LOG2 PUSH5 0x6970667358 0x22 SLT KECCAK256 SHR 0xBB 0xC3 0xE4 BYTE 0xD8 JUMPDEST JUMPI PUSH13 0xA3A4A7F314EE6DA48D23D3B09 SELFDESTRUCT 0xD PUSH7 0x51B92F81BA8116 PUSH5 0x736F6C6343 STOP ADDMOD XOR STOP CALLER "
				},
				"gasEstimates": {
					"creation": {
						"codeDepositCost": "637600",
						"executionCost": "668",
						"totalCost": "638268"
					},
					"external": {
						"getUser(address)": "infinite",
						"registerUser(address,string)": "infinite",
						"users(address)": "infinite"
					}
				},
				"methodIdentifiers": {
					"getUser(address)": "6f77926b",
					"registerUser(address,string)": "0ea126f9",
					"users(address)": "a87430ba"
				}
			},
			"storageLayout": {
				"storage": [
					{
						"astId": 11,
						"contract": "csefest23/Registration.sol:UserRegistration",
						"label": "users",
						"offset": 0,
						"slot": "0",
						"type": "t_mapping(t_address,t_struct(User)6_storage)"
					}
				],
				"types": {
					"t_address": {
						"encoding": "inplace",
						"label": "address",
						"numberOfBytes": "20"
					},
					"t_mapping(t_address,t_struct(User)6_storage)": {
						"encoding": "mapping",
						"key": "t_address",
						"label": "mapping(address => struct UserRegistration.User)",
						"numberOfBytes": "32",
						"value": "t_struct(User)6_storage"
					},
					"t_string_storage": {
						"encoding": "bytes",
						"label": "string",
						"numberOfBytes": "32"
					},
					"t_struct(User)6_storage": {
						"encoding": "inplace",
						"label": "struct UserRegistration.User",
						"members": [
							{
								"astId": 3,
								"contract": "csefest23/Registration.sol:UserRegistration",
								"label": "wallet",
								"offset": 0,
								"slot": "0",
								"type": "t_address"
							},
							{
								"astId": 5,
								"contract": "csefest23/Registration.sol:UserRegistration",
								"label": "type1",
								"offset": 0,
								"slot": "1",
								"type": "t_string_storage"
							}
						],
						"numberOfBytes": "64"
					}
				}
			},
			"userdoc": {
				"kind": "user",
				"methods": {},
				"version": 1
			}
		}
	}
}