{
	"contracts/TaskContract.sol": {
		"TaskContract": {
			"abi": [
				{
					"anonymous": false,
					"inputs": [
						{
							"indexed": false,
							"internalType": "address",
							"name": "recipient",
							"type": "address"
						},
						{
							"indexed": false,
							"internalType": "uint256",
							"name": "taskId",
							"type": "uint256"
						}
					],
					"name": "AddTask",
					"type": "event"
				},
				{
					"anonymous": false,
					"inputs": [
						{
							"indexed": false,
							"internalType": "uint256",
							"name": "taskId",
							"type": "uint256"
						},
						{
							"indexed": false,
							"internalType": "bool",
							"name": "isDeleted",
							"type": "bool"
						}
					],
					"name": "DeleteTask",
					"type": "event"
				},
				{
					"inputs": [
						{
							"internalType": "string",
							"name": "taskText",
							"type": "string"
						},
						{
							"internalType": "bool",
							"name": "isDeleted",
							"type": "bool"
						}
					],
					"name": "addTask",
					"outputs": [],
					"stateMutability": "nonpayable",
					"type": "function"
				},
				{
					"inputs": [
						{
							"internalType": "uint256",
							"name": "taskId",
							"type": "uint256"
						},
						{
							"internalType": "bool",
							"name": "isDeleted",
							"type": "bool"
						}
					],
					"name": "deleteTask",
					"outputs": [],
					"stateMutability": "nonpayable",
					"type": "function"
				},
				{
					"inputs": [],
					"name": "getMyTasks",
					"outputs": [
						{
							"components": [
								{
									"internalType": "uint256",
									"name": "id",
									"type": "uint256"
								},
								{
									"internalType": "address",
									"name": "username",
									"type": "address"
								},
								{
									"internalType": "string",
									"name": "taskText",
									"type": "string"
								},
								{
									"internalType": "bool",
									"name": "isDeleted",
									"type": "bool"
								}
							],
							"internalType": "struct TaskContract.Task[]",
							"name": "",
							"type": "tuple[]"
						}
					],
					"stateMutability": "view",
					"type": "function"
				}
			],
			"devdoc": {
				"kind": "dev",
				"methods": {},
				"version": 1
			},
			"evm": {
				"assembly": "    /* \"contracts/TaskContract.sol\":68:1701  contract TaskContract {... */\n  mstore(0x40, 0x80)\n  callvalue\n  dup1\n  iszero\n  tag_1\n  jumpi\n  0x00\n  dup1\n  revert\ntag_1:\n  pop\n  dataSize(sub_0)\n  dup1\n  dataOffset(sub_0)\n  0x00\n  codecopy\n  0x00\n  return\nstop\n\nsub_0: assembly {\n        /* \"contracts/TaskContract.sol\":68:1701  contract TaskContract {... */\n      mstore(0x40, 0x80)\n      callvalue\n      dup1\n      iszero\n      tag_1\n      jumpi\n      0x00\n      dup1\n      revert\n    tag_1:\n      pop\n      jumpi(tag_2, lt(calldatasize, 0x04))\n      shr(0xe0, calldataload(0x00))\n      dup1\n      0x20df4581\n      eq\n      tag_3\n      jumpi\n      dup1\n      0x6e13f818\n      eq\n      tag_4\n      jumpi\n      dup1\n      0xaaba2907\n      eq\n      tag_5\n      jumpi\n    tag_2:\n      0x00\n      dup1\n      revert\n        /* \"contracts/TaskContract.sol\":555:820  function addTask(string memory taskText, bool isDeleted) external {... */\n    tag_3:\n      tag_6\n      0x04\n      dup1\n      calldatasize\n      sub\n      dup2\n      add\n      swap1\n      tag_7\n      swap2\n      swap1\n      tag_8\n      jump\t// in\n    tag_7:\n      tag_9\n      jump\t// in\n    tag_6:\n      stop\n        /* \"contracts/TaskContract.sol\":867:1430  function getMyTasks() external view returns (Task[] memory) {... */\n    tag_4:\n      tag_10\n      tag_11\n      jump\t// in\n    tag_10:\n      mload(0x40)\n      tag_12\n      swap2\n      swap1\n      tag_13\n      jump\t// in\n    tag_12:\n      mload(0x40)\n      dup1\n      swap2\n      sub\n      swap1\n      return\n        /* \"contracts/TaskContract.sol\":1471:1696  function deleteTask(uint taskId, bool isDeleted) external {... */\n    tag_5:\n      tag_14\n      0x04\n      dup1\n      calldatasize\n      sub\n      dup2\n      add\n      swap1\n      tag_15\n      swap2\n      swap1\n      tag_16\n      jump\t// in\n    tag_15:\n      tag_17\n      jump\t// in\n    tag_14:\n      stop\n        /* \"contracts/TaskContract.sol\":555:820  function addTask(string memory taskText, bool isDeleted) external {... */\n    tag_9:\n        /* \"contracts/TaskContract.sol\":632:643  uint taskId */\n      0x00\n        /* \"contracts/TaskContract.sol\":646:651  tasks */\n      dup1\n        /* \"contracts/TaskContract.sol\":646:658  tasks.length */\n      dup1\n      sload\n      swap1\n      pop\n        /* \"contracts/TaskContract.sol\":632:658  uint taskId = tasks.length */\n      swap1\n      pop\n        /* \"contracts/TaskContract.sol\":669:674  tasks */\n      0x00\n        /* \"contracts/TaskContract.sol\":680:725  Task(taskId, msg.sender, taskText, isDeleted) */\n      mload(0x40)\n      dup1\n      0x80\n      add\n      0x40\n      mstore\n      dup1\n        /* \"contracts/TaskContract.sol\":685:691  taskId */\n      dup4\n        /* \"contracts/TaskContract.sol\":680:725  Task(taskId, msg.sender, taskText, isDeleted) */\n      dup2\n      mstore\n      0x20\n      add\n        /* \"contracts/TaskContract.sol\":693:703  msg.sender */\n      caller\n        /* \"contracts/TaskContract.sol\":680:725  Task(taskId, msg.sender, taskText, isDeleted) */\n      0xffffffffffffffffffffffffffffffffffffffff\n      and\n      dup2\n      mstore\n      0x20\n      add\n        /* \"contracts/TaskContract.sol\":705:713  taskText */\n      dup6\n        /* \"contracts/TaskContract.sol\":680:725  Task(taskId, msg.sender, taskText, isDeleted) */\n      dup2\n      mstore\n      0x20\n      add\n        /* \"contracts/TaskContract.sol\":715:724  isDeleted */\n      dup5\n        /* \"contracts/TaskContract.sol\":680:725  Task(taskId, msg.sender, taskText, isDeleted) */\n      iszero\n      iszero\n      dup2\n      mstore\n      pop\n        /* \"contracts/TaskContract.sol\":669:726  tasks.push(Task(taskId, msg.sender, taskText, isDeleted)) */\n      swap1\n      dup1\n      0x01\n      dup2\n      sload\n      add\n      dup1\n      dup3\n      sstore\n      dup1\n      swap2\n      pop\n      pop\n      0x01\n      swap1\n      sub\n      swap1\n      0x00\n      mstore\n      keccak256(0x00, 0x20)\n      swap1\n      0x04\n      mul\n      add\n      0x00\n      swap1\n      swap2\n      swap1\n      swap2\n      swap1\n      swap2\n      pop\n      0x00\n      dup3\n      add\n      mload\n      dup2\n      0x00\n      add\n      sstore\n      0x20\n      dup3\n      add\n      mload\n      dup2\n      0x01\n      add\n      exp(0x0100, 0x00)\n      dup2\n      sload\n      dup2\n      0xffffffffffffffffffffffffffffffffffffffff\n      mul\n      not\n      and\n      swap1\n      dup4\n      0xffffffffffffffffffffffffffffffffffffffff\n      and\n      mul\n      or\n      swap1\n      sstore\n      pop\n      0x40\n      dup3\n      add\n      mload\n      dup2\n      0x02\n      add\n      swap1\n      dup2\n      tag_20\n      swap2\n      swap1\n      tag_21\n      jump\t// in\n    tag_20:\n      pop\n      0x60\n      dup3\n      add\n      mload\n      dup2\n      0x03\n      add\n      exp(0x0100, 0x00)\n      dup2\n      sload\n      dup2\n      0xff\n      mul\n      not\n      and\n      swap1\n      dup4\n      iszero\n      iszero\n      mul\n      or\n      swap1\n      sstore\n      pop\n      pop\n      pop\n        /* \"contracts/TaskContract.sol\":759:769  msg.sender */\n      caller\n        /* \"contracts/TaskContract.sol\":737:748  taskToOwner */\n      0x01\n        /* \"contracts/TaskContract.sol\":737:756  taskToOwner[taskId] */\n      0x00\n        /* \"contracts/TaskContract.sol\":749:755  taskId */\n      dup4\n        /* \"contracts/TaskContract.sol\":737:756  taskToOwner[taskId] */\n      dup2\n      mstore\n      0x20\n      add\n      swap1\n      dup2\n      mstore\n      0x20\n      add\n      0x00\n      keccak256\n      0x00\n        /* \"contracts/TaskContract.sol\":737:769  taskToOwner[taskId] = msg.sender */\n      0x0100\n      exp\n      dup2\n      sload\n      dup2\n      0xffffffffffffffffffffffffffffffffffffffff\n      mul\n      not\n      and\n      swap1\n      dup4\n      0xffffffffffffffffffffffffffffffffffffffff\n      and\n      mul\n      or\n      swap1\n      sstore\n      pop\n        /* \"contracts/TaskContract.sol\":785:812  AddTask(msg.sender, taskId) */\n      0x1f54e1ba1832d428fbd7e7792beaf62b1fc5a382c207ffd614209c1413e94fda\n        /* \"contracts/TaskContract.sol\":793:803  msg.sender */\n      caller\n        /* \"contracts/TaskContract.sol\":805:811  taskId */\n      dup3\n        /* \"contracts/TaskContract.sol\":785:812  AddTask(msg.sender, taskId) */\n      mload(0x40)\n      tag_22\n      swap3\n      swap2\n      swap1\n      tag_23\n      jump\t// in\n    tag_22:\n      mload(0x40)\n      dup1\n      swap2\n      sub\n      swap1\n      log1\n        /* \"contracts/TaskContract.sol\":621:820  {... */\n      pop\n        /* \"contracts/TaskContract.sol\":555:820  function addTask(string memory taskText, bool isDeleted) external {... */\n      pop\n      pop\n      jump\t// out\n        /* \"contracts/TaskContract.sol\":867:1430  function getMyTasks() external view returns (Task[] memory) {... */\n    tag_11:\n        /* \"contracts/TaskContract.sol\":912:925  Task[] memory */\n      0x60\n        /* \"contracts/TaskContract.sol\":938:961  Task[] memory temporary */\n      0x00\n        /* \"contracts/TaskContract.sol\":975:980  tasks */\n      dup1\n        /* \"contracts/TaskContract.sol\":975:987  tasks.length */\n      dup1\n      sload\n      swap1\n      pop\n        /* \"contracts/TaskContract.sol\":964:988  new Task[](tasks.length) */\n      0xffffffffffffffff\n      dup2\n      gt\n      iszero\n      tag_25\n      jumpi\n      tag_26\n      tag_27\n      jump\t// in\n    tag_26:\n    tag_25:\n      mload(0x40)\n      swap1\n      dup1\n      dup3\n      mstore\n      dup1\n      0x20\n      mul\n      0x20\n      add\n      dup3\n      add\n      0x40\n      mstore\n      dup1\n      iszero\n      tag_28\n      jumpi\n      dup2\n      0x20\n      add\n    tag_29:\n      tag_30\n      tag_31\n      jump\t// in\n    tag_30:\n      dup2\n      mstore\n      0x20\n      add\n      swap1\n      0x01\n      swap1\n      sub\n      swap1\n      dup2\n      tag_29\n      jumpi\n      swap1\n      pop\n    tag_28:\n      pop\n        /* \"contracts/TaskContract.sol\":938:988  Task[] memory temporary = new Task[](tasks.length) */\n      swap1\n      pop\n        /* \"contracts/TaskContract.sol\":999:1011  uint counter */\n      0x00\n        /* \"contracts/TaskContract.sol\":1030:1036  uint i */\n      dup1\n        /* \"contracts/TaskContract.sol\":1026:1243  for(uint i=0; i<tasks.length; i++) {... */\n    tag_32:\n        /* \"contracts/TaskContract.sol\":1042:1047  tasks */\n      0x00\n        /* \"contracts/TaskContract.sol\":1042:1054  tasks.length */\n      dup1\n      sload\n      swap1\n      pop\n        /* \"contracts/TaskContract.sol\":1040:1041  i */\n      dup2\n        /* \"contracts/TaskContract.sol\":1040:1054  i<tasks.length */\n      lt\n        /* \"contracts/TaskContract.sol\":1026:1243  for(uint i=0; i<tasks.length; i++) {... */\n      iszero\n      tag_33\n      jumpi\n        /* \"contracts/TaskContract.sol\":1097:1107  msg.sender */\n      caller\n        /* \"contracts/TaskContract.sol\":1079:1107  taskToOwner[i] == msg.sender */\n      0xffffffffffffffffffffffffffffffffffffffff\n      and\n        /* \"contracts/TaskContract.sol\":1079:1090  taskToOwner */\n      0x01\n        /* \"contracts/TaskContract.sol\":1079:1093  taskToOwner[i] */\n      0x00\n        /* \"contracts/TaskContract.sol\":1091:1092  i */\n      dup4\n        /* \"contracts/TaskContract.sol\":1079:1093  taskToOwner[i] */\n      dup2\n      mstore\n      0x20\n      add\n      swap1\n      dup2\n      mstore\n      0x20\n      add\n      0x00\n      keccak256\n      0x00\n      swap1\n      sload\n      swap1\n      0x0100\n      exp\n      swap1\n      div\n      0xffffffffffffffffffffffffffffffffffffffff\n      and\n        /* \"contracts/TaskContract.sol\":1079:1107  taskToOwner[i] == msg.sender */\n      0xffffffffffffffffffffffffffffffffffffffff\n      and\n      eq\n        /* \"contracts/TaskContract.sol\":1079:1138  taskToOwner[i] == msg.sender && tasks[i].isDeleted == false */\n      dup1\n      iszero\n      tag_35\n      jumpi\n      pop\n        /* \"contracts/TaskContract.sol\":1133:1138  false */\n      0x00\n        /* \"contracts/TaskContract.sol\":1111:1138  tasks[i].isDeleted == false */\n      iszero\n      iszero\n        /* \"contracts/TaskContract.sol\":1111:1116  tasks */\n      0x00\n        /* \"contracts/TaskContract.sol\":1117:1118  i */\n      dup3\n        /* \"contracts/TaskContract.sol\":1111:1119  tasks[i] */\n      dup2\n      sload\n      dup2\n      lt\n      tag_36\n      jumpi\n      tag_37\n      tag_38\n      jump\t// in\n    tag_37:\n    tag_36:\n      swap1\n      0x00\n      mstore\n      keccak256(0x00, 0x20)\n      swap1\n      0x04\n      mul\n      add\n        /* \"contracts/TaskContract.sol\":1111:1129  tasks[i].isDeleted */\n      0x03\n      add\n      0x00\n      swap1\n      sload\n      swap1\n      0x0100\n      exp\n      swap1\n      div\n      0xff\n      and\n        /* \"contracts/TaskContract.sol\":1111:1138  tasks[i].isDeleted == false */\n      iszero\n      iszero\n      eq\n        /* \"contracts/TaskContract.sol\":1079:1138  taskToOwner[i] == msg.sender && tasks[i].isDeleted == false */\n    tag_35:\n        /* \"contracts/TaskContract.sol\":1076:1232  if(taskToOwner[i] == msg.sender && tasks[i].isDeleted == false) {... */\n      iszero\n      tag_40\n      jumpi\n        /* \"contracts/TaskContract.sol\":1180:1185  tasks */\n      0x00\n        /* \"contracts/TaskContract.sol\":1186:1187  i */\n      dup2\n        /* \"contracts/TaskContract.sol\":1180:1188  tasks[i] */\n      dup2\n      sload\n      dup2\n      lt\n      tag_41\n      jumpi\n      tag_42\n      tag_38\n      jump\t// in\n    tag_42:\n    tag_41:\n      swap1\n      0x00\n      mstore\n      keccak256(0x00, 0x20)\n      swap1\n      0x04\n      mul\n      add\n        /* \"contracts/TaskContract.sol\":1159:1188  temporary[counter] = tasks[i] */\n      mload(0x40)\n      dup1\n      0x80\n      add\n      0x40\n      mstore\n      swap1\n      dup2\n      0x00\n      dup3\n      add\n      sload\n      dup2\n      mstore\n      0x20\n      add\n      0x01\n      dup3\n      add\n      0x00\n      swap1\n      sload\n      swap1\n      0x0100\n      exp\n      swap1\n      div\n      0xffffffffffffffffffffffffffffffffffffffff\n      and\n      0xffffffffffffffffffffffffffffffffffffffff\n      and\n      0xffffffffffffffffffffffffffffffffffffffff\n      and\n      dup2\n      mstore\n      0x20\n      add\n      0x02\n      dup3\n      add\n      dup1\n      sload\n      tag_44\n      swap1\n      tag_45\n      jump\t// in\n    tag_44:\n      dup1\n      0x1f\n      add\n      0x20\n      dup1\n      swap2\n      div\n      mul\n      0x20\n      add\n      mload(0x40)\n      swap1\n      dup2\n      add\n      0x40\n      mstore\n      dup1\n      swap3\n      swap2\n      swap1\n      dup2\n      dup2\n      mstore\n      0x20\n      add\n      dup3\n      dup1\n      sload\n      tag_46\n      swap1\n      tag_45\n      jump\t// in\n    tag_46:\n      dup1\n      iszero\n      tag_47\n      jumpi\n      dup1\n      0x1f\n      lt\n      tag_48\n      jumpi\n      0x0100\n      dup1\n      dup4\n      sload\n      div\n      mul\n      dup4\n      mstore\n      swap2\n      0x20\n      add\n      swap2\n      jump(tag_47)\n    tag_48:\n      dup3\n      add\n      swap2\n      swap1\n      0x00\n      mstore\n      keccak256(0x00, 0x20)\n      swap1\n    tag_49:\n      dup2\n      sload\n      dup2\n      mstore\n      swap1\n      0x01\n      add\n      swap1\n      0x20\n      add\n      dup1\n      dup4\n      gt\n      tag_49\n      jumpi\n      dup3\n      swap1\n      sub\n      0x1f\n      and\n      dup3\n      add\n      swap2\n    tag_47:\n      pop\n      pop\n      pop\n      pop\n      pop\n      dup2\n      mstore\n      0x20\n      add\n      0x03\n      dup3\n      add\n      0x00\n      swap1\n      sload\n      swap1\n      0x0100\n      exp\n      swap1\n      div\n      0xff\n      and\n      iszero\n      iszero\n      iszero\n      iszero\n      dup2\n      mstore\n      pop\n      pop\n        /* \"contracts/TaskContract.sol\":1159:1168  temporary */\n      dup4\n        /* \"contracts/TaskContract.sol\":1169:1176  counter */\n      dup4\n        /* \"contracts/TaskContract.sol\":1159:1177  temporary[counter] */\n      dup2\n      mload\n      dup2\n      lt\n      tag_50\n      jumpi\n      tag_51\n      tag_38\n      jump\t// in\n    tag_51:\n    tag_50:\n      0x20\n      mul\n      0x20\n      add\n      add\n        /* \"contracts/TaskContract.sol\":1159:1188  temporary[counter] = tasks[i] */\n      dup2\n      swap1\n      mstore\n      pop\n        /* \"contracts/TaskContract.sol\":1207:1216  counter++ */\n      dup2\n      dup1\n      tag_52\n      swap1\n      tag_53\n      jump\t// in\n    tag_52:\n      swap3\n      pop\n      pop\n        /* \"contracts/TaskContract.sol\":1076:1232  if(taskToOwner[i] == msg.sender && tasks[i].isDeleted == false) {... */\n    tag_40:\n        /* \"contracts/TaskContract.sol\":1056:1059  i++ */\n      dup1\n      dup1\n      0x01\n      add\n      swap2\n      pop\n      pop\n        /* \"contracts/TaskContract.sol\":1026:1243  for(uint i=0; i<tasks.length; i++) {... */\n      jump(tag_32)\n    tag_33:\n      pop\n        /* \"contracts/TaskContract.sol\":1255:1275  Task[] memory result */\n      0x00\n        /* \"contracts/TaskContract.sol\":1289:1296  counter */\n      dup2\n        /* \"contracts/TaskContract.sol\":1278:1297  new Task[](counter) */\n      0xffffffffffffffff\n      dup2\n      gt\n      iszero\n      tag_54\n      jumpi\n      tag_55\n      tag_27\n      jump\t// in\n    tag_55:\n    tag_54:\n      mload(0x40)\n      swap1\n      dup1\n      dup3\n      mstore\n      dup1\n      0x20\n      mul\n      0x20\n      add\n      dup3\n      add\n      0x40\n      mstore\n      dup1\n      iszero\n      tag_56\n      jumpi\n      dup2\n      0x20\n      add\n    tag_57:\n      tag_58\n      tag_31\n      jump\t// in\n    tag_58:\n      dup2\n      mstore\n      0x20\n      add\n      swap1\n      0x01\n      swap1\n      sub\n      swap1\n      dup2\n      tag_57\n      jumpi\n      swap1\n      pop\n    tag_56:\n      pop\n        /* \"contracts/TaskContract.sol\":1255:1297  Task[] memory result = new Task[](counter) */\n      swap1\n      pop\n        /* \"contracts/TaskContract.sol\":1312:1318  uint i */\n      0x00\n        /* \"contracts/TaskContract.sol\":1308:1389  for(uint i=0; i<counter; i++) {... */\n    tag_59:\n        /* \"contracts/TaskContract.sol\":1324:1331  counter */\n      dup3\n        /* \"contracts/TaskContract.sol\":1322:1323  i */\n      dup2\n        /* \"contracts/TaskContract.sol\":1322:1331  i<counter */\n      lt\n        /* \"contracts/TaskContract.sol\":1308:1389  for(uint i=0; i<counter; i++) {... */\n      iszero\n      tag_60\n      jumpi\n        /* \"contracts/TaskContract.sol\":1365:1374  temporary */\n      dup4\n        /* \"contracts/TaskContract.sol\":1375:1376  i */\n      dup2\n        /* \"contracts/TaskContract.sol\":1365:1377  temporary[i] */\n      dup2\n      mload\n      dup2\n      lt\n      tag_62\n      jumpi\n      tag_63\n      tag_38\n      jump\t// in\n    tag_63:\n    tag_62:\n      0x20\n      mul\n      0x20\n      add\n      add\n      mload\n        /* \"contracts/TaskContract.sol\":1353:1359  result */\n      dup3\n        /* \"contracts/TaskContract.sol\":1360:1361  i */\n      dup3\n        /* \"contracts/TaskContract.sol\":1353:1362  result[i] */\n      dup2\n      mload\n      dup2\n      lt\n      tag_64\n      jumpi\n      tag_65\n      tag_38\n      jump\t// in\n    tag_65:\n    tag_64:\n      0x20\n      mul\n      0x20\n      add\n      add\n        /* \"contracts/TaskContract.sol\":1353:1377  result[i] = temporary[i] */\n      dup2\n      swap1\n      mstore\n      pop\n        /* \"contracts/TaskContract.sol\":1333:1336  i++ */\n      dup1\n      dup1\n      0x01\n      add\n      swap2\n      pop\n      pop\n        /* \"contracts/TaskContract.sol\":1308:1389  for(uint i=0; i<counter; i++) {... */\n      jump(tag_59)\n    tag_60:\n      pop\n        /* \"contracts/TaskContract.sol\":1416:1422  result */\n      dup1\n        /* \"contracts/TaskContract.sol\":1409:1422  return result */\n      swap4\n      pop\n      pop\n      pop\n      pop\n        /* \"contracts/TaskContract.sol\":867:1430  function getMyTasks() external view returns (Task[] memory) {... */\n      swap1\n      jump\t// out\n        /* \"contracts/TaskContract.sol\":1471:1696  function deleteTask(uint taskId, bool isDeleted) external {... */\n    tag_17:\n        /* \"contracts/TaskContract.sol\":1566:1576  msg.sender */\n      caller\n        /* \"contracts/TaskContract.sol\":1543:1576  taskToOwner[taskId] == msg.sender */\n      0xffffffffffffffffffffffffffffffffffffffff\n      and\n        /* \"contracts/TaskContract.sol\":1543:1554  taskToOwner */\n      0x01\n        /* \"contracts/TaskContract.sol\":1543:1562  taskToOwner[taskId] */\n      0x00\n        /* \"contracts/TaskContract.sol\":1555:1561  taskId */\n      dup5\n        /* \"contracts/TaskContract.sol\":1543:1562  taskToOwner[taskId] */\n      dup2\n      mstore\n      0x20\n      add\n      swap1\n      dup2\n      mstore\n      0x20\n      add\n      0x00\n      keccak256\n      0x00\n      swap1\n      sload\n      swap1\n      0x0100\n      exp\n      swap1\n      div\n      0xffffffffffffffffffffffffffffffffffffffff\n      and\n        /* \"contracts/TaskContract.sol\":1543:1576  taskToOwner[taskId] == msg.sender */\n      0xffffffffffffffffffffffffffffffffffffffff\n      and\n      sub\n        /* \"contracts/TaskContract.sol\":1540:1689  if(taskToOwner[taskId] == msg.sender) {... */\n      tag_67\n      jumpi\n        /* \"contracts/TaskContract.sol\":1619:1628  isDeleted */\n      dup1\n        /* \"contracts/TaskContract.sol\":1593:1598  tasks */\n      0x00\n        /* \"contracts/TaskContract.sol\":1599:1605  taskId */\n      dup4\n        /* \"contracts/TaskContract.sol\":1593:1606  tasks[taskId] */\n      dup2\n      sload\n      dup2\n      lt\n      tag_68\n      jumpi\n      tag_69\n      tag_38\n      jump\t// in\n    tag_69:\n    tag_68:\n      swap1\n      0x00\n      mstore\n      keccak256(0x00, 0x20)\n      swap1\n      0x04\n      mul\n      add\n        /* \"contracts/TaskContract.sol\":1593:1616  tasks[taskId].isDeleted */\n      0x03\n      add\n      0x00\n        /* \"contracts/TaskContract.sol\":1593:1628  tasks[taskId].isDeleted = isDeleted */\n      0x0100\n      exp\n      dup2\n      sload\n      dup2\n      0xff\n      mul\n      not\n      and\n      swap1\n      dup4\n      iszero\n      iszero\n      mul\n      or\n      swap1\n      sstore\n      pop\n        /* \"contracts/TaskContract.sol\":1648:1677  DeleteTask(taskId, isDeleted) */\n      0xf88a35c3d2016c409a46570b994a17b408dbc83c14a03f521512d50b85386d06\n        /* \"contracts/TaskContract.sol\":1659:1665  taskId */\n      dup3\n        /* \"contracts/TaskContract.sol\":1667:1676  isDeleted */\n      dup3\n        /* \"contracts/TaskContract.sol\":1648:1677  DeleteTask(taskId, isDeleted) */\n      mload(0x40)\n      tag_71\n      swap3\n      swap2\n      swap1\n      tag_72\n      jump\t// in\n    tag_71:\n      mload(0x40)\n      dup1\n      swap2\n      sub\n      swap1\n      log1\n        /* \"contracts/TaskContract.sol\":1540:1689  if(taskToOwner[taskId] == msg.sender) {... */\n    tag_67:\n        /* \"contracts/TaskContract.sol\":1471:1696  function deleteTask(uint taskId, bool isDeleted) external {... */\n      pop\n      pop\n      jump\t// out\n    tag_31:\n      mload(0x40)\n      dup1\n      0x80\n      add\n      0x40\n      mstore\n      dup1\n      0x00\n      dup2\n      mstore\n      0x20\n      add\n      and(0xffffffffffffffffffffffffffffffffffffffff, 0x00)\n      dup2\n      mstore\n      0x20\n      add\n      0x60\n      dup2\n      mstore\n      0x20\n      add\n      iszero(iszero(0x00))\n      dup2\n      mstore\n      pop\n      swap1\n      jump\t// out\n        /* \"#utility.yul\":7:82   */\n    tag_73:\n        /* \"#utility.yul\":40:46   */\n      0x00\n        /* \"#utility.yul\":73:75   */\n      0x40\n        /* \"#utility.yul\":67:76   */\n      mload\n        /* \"#utility.yul\":57:76   */\n      swap1\n      pop\n        /* \"#utility.yul\":7:82   */\n      swap1\n      jump\t// out\n        /* \"#utility.yul\":88:205   */\n    tag_74:\n        /* \"#utility.yul\":197:198   */\n      0x00\n        /* \"#utility.yul\":194:195   */\n      dup1\n        /* \"#utility.yul\":187:199   */\n      revert\n        /* \"#utility.yul\":211:328   */\n    tag_75:\n        /* \"#utility.yul\":320:321   */\n      0x00\n        /* \"#utility.yul\":317:318   */\n      dup1\n        /* \"#utility.yul\":310:322   */\n      revert\n        /* \"#utility.yul\":334:451   */\n    tag_76:\n        /* \"#utility.yul\":443:444   */\n      0x00\n        /* \"#utility.yul\":440:441   */\n      dup1\n        /* \"#utility.yul\":433:445   */\n      revert\n        /* \"#utility.yul\":457:574   */\n    tag_77:\n        /* \"#utility.yul\":566:567   */\n      0x00\n        /* \"#utility.yul\":563:564   */\n      dup1\n        /* \"#utility.yul\":556:568   */\n      revert\n        /* \"#utility.yul\":580:682   */\n    tag_78:\n        /* \"#utility.yul\":621:627   */\n      0x00\n        /* \"#utility.yul\":672:674   */\n      0x1f\n        /* \"#utility.yul\":668:675   */\n      not\n        /* \"#utility.yul\":663:665   */\n      0x1f\n        /* \"#utility.yul\":656:661   */\n      dup4\n        /* \"#utility.yul\":652:666   */\n      add\n        /* \"#utility.yul\":648:676   */\n      and\n        /* \"#utility.yul\":638:676   */\n      swap1\n      pop\n        /* \"#utility.yul\":580:682   */\n      swap2\n      swap1\n      pop\n      jump\t// out\n        /* \"#utility.yul\":688:868   */\n    tag_27:\n        /* \"#utility.yul\":736:813   */\n      0x4e487b7100000000000000000000000000000000000000000000000000000000\n        /* \"#utility.yul\":733:734   */\n      0x00\n        /* \"#utility.yul\":726:814   */\n      mstore\n        /* \"#utility.yul\":833:837   */\n      0x41\n        /* \"#utility.yul\":830:831   */\n      0x04\n        /* \"#utility.yul\":823:838   */\n      mstore\n        /* \"#utility.yul\":857:861   */\n      0x24\n        /* \"#utility.yul\":854:855   */\n      0x00\n        /* \"#utility.yul\":847:862   */\n      revert\n        /* \"#utility.yul\":874:1155   */\n    tag_79:\n        /* \"#utility.yul\":957:984   */\n      tag_136\n        /* \"#utility.yul\":979:983   */\n      dup3\n        /* \"#utility.yul\":957:984   */\n      tag_78\n      jump\t// in\n    tag_136:\n        /* \"#utility.yul\":949:955   */\n      dup2\n        /* \"#utility.yul\":945:985   */\n      add\n        /* \"#utility.yul\":1087:1093   */\n      dup2\n        /* \"#utility.yul\":1075:1085   */\n      dup2\n        /* \"#utility.yul\":1072:1094   */\n      lt\n        /* \"#utility.yul\":1051:1069   */\n      0xffffffffffffffff\n        /* \"#utility.yul\":1039:1049   */\n      dup3\n        /* \"#utility.yul\":1036:1070   */\n      gt\n        /* \"#utility.yul\":1033:1095   */\n      or\n        /* \"#utility.yul\":1030:1118   */\n      iszero\n      tag_137\n      jumpi\n        /* \"#utility.yul\":1098:1116   */\n      tag_138\n      tag_27\n      jump\t// in\n    tag_138:\n        /* \"#utility.yul\":1030:1118   */\n    tag_137:\n        /* \"#utility.yul\":1138:1148   */\n      dup1\n        /* \"#utility.yul\":1134:1136   */\n      0x40\n        /* \"#utility.yul\":1127:1149   */\n      mstore\n        /* \"#utility.yul\":917:1155   */\n      pop\n        /* \"#utility.yul\":874:1155   */\n      pop\n      pop\n      jump\t// out\n        /* \"#utility.yul\":1161:1290   */\n    tag_80:\n        /* \"#utility.yul\":1195:1201   */\n      0x00\n        /* \"#utility.yul\":1222:1242   */\n      tag_140\n      tag_73\n      jump\t// in\n    tag_140:\n        /* \"#utility.yul\":1212:1242   */\n      swap1\n      pop\n        /* \"#utility.yul\":1251:1284   */\n      tag_141\n        /* \"#utility.yul\":1279:1283   */\n      dup3\n        /* \"#utility.yul\":1271:1277   */\n      dup3\n        /* \"#utility.yul\":1251:1284   */\n      tag_79\n      jump\t// in\n    tag_141:\n        /* \"#utility.yul\":1161:1290   */\n      swap2\n      swap1\n      pop\n      jump\t// out\n        /* \"#utility.yul\":1296:1604   */\n    tag_81:\n        /* \"#utility.yul\":1358:1362   */\n      0x00\n        /* \"#utility.yul\":1448:1466   */\n      0xffffffffffffffff\n        /* \"#utility.yul\":1440:1446   */\n      dup3\n        /* \"#utility.yul\":1437:1467   */\n      gt\n        /* \"#utility.yul\":1434:1490   */\n      iszero\n      tag_143\n      jumpi\n        /* \"#utility.yul\":1470:1488   */\n      tag_144\n      tag_27\n      jump\t// in\n    tag_144:\n        /* \"#utility.yul\":1434:1490   */\n    tag_143:\n        /* \"#utility.yul\":1508:1537   */\n      tag_145\n        /* \"#utility.yul\":1530:1536   */\n      dup3\n        /* \"#utility.yul\":1508:1537   */\n      tag_78\n      jump\t// in\n    tag_145:\n        /* \"#utility.yul\":1500:1537   */\n      swap1\n      pop\n        /* \"#utility.yul\":1592:1596   */\n      0x20\n        /* \"#utility.yul\":1586:1590   */\n      dup2\n        /* \"#utility.yul\":1582:1597   */\n      add\n        /* \"#utility.yul\":1574:1597   */\n      swap1\n      pop\n        /* \"#utility.yul\":1296:1604   */\n      swap2\n      swap1\n      pop\n      jump\t// out\n        /* \"#utility.yul\":1610:1756   */\n    tag_82:\n        /* \"#utility.yul\":1707:1713   */\n      dup3\n        /* \"#utility.yul\":1702:1705   */\n      dup2\n        /* \"#utility.yul\":1697:1700   */\n      dup4\n        /* \"#utility.yul\":1684:1714   */\n      calldatacopy\n        /* \"#utility.yul\":1748:1749   */\n      0x00\n        /* \"#utility.yul\":1739:1745   */\n      dup4\n        /* \"#utility.yul\":1734:1737   */\n      dup4\n        /* \"#utility.yul\":1730:1746   */\n      add\n        /* \"#utility.yul\":1723:1750   */\n      mstore\n        /* \"#utility.yul\":1610:1756   */\n      pop\n      pop\n      pop\n      jump\t// out\n        /* \"#utility.yul\":1762:2187   */\n    tag_83:\n        /* \"#utility.yul\":1840:1845   */\n      0x00\n        /* \"#utility.yul\":1865:1931   */\n      tag_148\n        /* \"#utility.yul\":1881:1930   */\n      tag_149\n        /* \"#utility.yul\":1923:1929   */\n      dup5\n        /* \"#utility.yul\":1881:1930   */\n      tag_81\n      jump\t// in\n    tag_149:\n        /* \"#utility.yul\":1865:1931   */\n      tag_80\n      jump\t// in\n    tag_148:\n        /* \"#utility.yul\":1856:1931   */\n      swap1\n      pop\n        /* \"#utility.yul\":1954:1960   */\n      dup3\n        /* \"#utility.yul\":1947:1952   */\n      dup2\n        /* \"#utility.yul\":1940:1961   */\n      mstore\n        /* \"#utility.yul\":1992:1996   */\n      0x20\n        /* \"#utility.yul\":1985:1990   */\n      dup2\n        /* \"#utility.yul\":1981:1997   */\n      add\n        /* \"#utility.yul\":2030:2033   */\n      dup5\n        /* \"#utility.yul\":2021:2027   */\n      dup5\n        /* \"#utility.yul\":2016:2019   */\n      dup5\n        /* \"#utility.yul\":2012:2028   */\n      add\n        /* \"#utility.yul\":2009:2034   */\n      gt\n        /* \"#utility.yul\":2006:2118   */\n      iszero\n      tag_150\n      jumpi\n        /* \"#utility.yul\":2037:2116   */\n      tag_151\n      tag_77\n      jump\t// in\n    tag_151:\n        /* \"#utility.yul\":2006:2118   */\n    tag_150:\n        /* \"#utility.yul\":2127:2181   */\n      tag_152\n        /* \"#utility.yul\":2174:2180   */\n      dup5\n        /* \"#utility.yul\":2169:2172   */\n      dup3\n        /* \"#utility.yul\":2164:2167   */\n      dup6\n        /* \"#utility.yul\":2127:2181   */\n      tag_82\n      jump\t// in\n    tag_152:\n        /* \"#utility.yul\":1846:2187   */\n      pop\n        /* \"#utility.yul\":1762:2187   */\n      swap4\n      swap3\n      pop\n      pop\n      pop\n      jump\t// out\n        /* \"#utility.yul\":2207:2547   */\n    tag_84:\n        /* \"#utility.yul\":2263:2268   */\n      0x00\n        /* \"#utility.yul\":2312:2315   */\n      dup3\n        /* \"#utility.yul\":2305:2309   */\n      0x1f\n        /* \"#utility.yul\":2297:2303   */\n      dup4\n        /* \"#utility.yul\":2293:2310   */\n      add\n        /* \"#utility.yul\":2289:2316   */\n      slt\n        /* \"#utility.yul\":2279:2401   */\n      tag_154\n      jumpi\n        /* \"#utility.yul\":2320:2399   */\n      tag_155\n      tag_76\n      jump\t// in\n    tag_155:\n        /* \"#utility.yul\":2279:2401   */\n    tag_154:\n        /* \"#utility.yul\":2437:2443   */\n      dup2\n        /* \"#utility.yul\":2424:2444   */\n      calldataload\n        /* \"#utility.yul\":2462:2541   */\n      tag_156\n        /* \"#utility.yul\":2537:2540   */\n      dup5\n        /* \"#utility.yul\":2529:2535   */\n      dup3\n        /* \"#utility.yul\":2522:2526   */\n      0x20\n        /* \"#utility.yul\":2514:2520   */\n      dup7\n        /* \"#utility.yul\":2510:2527   */\n      add\n        /* \"#utility.yul\":2462:2541   */\n      tag_83\n      jump\t// in\n    tag_156:\n        /* \"#utility.yul\":2453:2541   */\n      swap2\n      pop\n        /* \"#utility.yul\":2269:2547   */\n      pop\n        /* \"#utility.yul\":2207:2547   */\n      swap3\n      swap2\n      pop\n      pop\n      jump\t// out\n        /* \"#utility.yul\":2553:2643   */\n    tag_85:\n        /* \"#utility.yul\":2587:2594   */\n      0x00\n        /* \"#utility.yul\":2630:2635   */\n      dup2\n        /* \"#utility.yul\":2623:2636   */\n      iszero\n        /* \"#utility.yul\":2616:2637   */\n      iszero\n        /* \"#utility.yul\":2605:2637   */\n      swap1\n      pop\n        /* \"#utility.yul\":2553:2643   */\n      swap2\n      swap1\n      pop\n      jump\t// out\n        /* \"#utility.yul\":2649:2765   */\n    tag_86:\n        /* \"#utility.yul\":2719:2740   */\n      tag_159\n        /* \"#utility.yul\":2734:2739   */\n      dup2\n        /* \"#utility.yul\":2719:2740   */\n      tag_85\n      jump\t// in\n    tag_159:\n        /* \"#utility.yul\":2712:2717   */\n      dup2\n        /* \"#utility.yul\":2709:2741   */\n      eq\n        /* \"#utility.yul\":2699:2759   */\n      tag_160\n      jumpi\n        /* \"#utility.yul\":2755:2756   */\n      0x00\n        /* \"#utility.yul\":2752:2753   */\n      dup1\n        /* \"#utility.yul\":2745:2757   */\n      revert\n        /* \"#utility.yul\":2699:2759   */\n    tag_160:\n        /* \"#utility.yul\":2649:2765   */\n      pop\n      jump\t// out\n        /* \"#utility.yul\":2771:2904   */\n    tag_87:\n        /* \"#utility.yul\":2814:2819   */\n      0x00\n        /* \"#utility.yul\":2852:2858   */\n      dup2\n        /* \"#utility.yul\":2839:2859   */\n      calldataload\n        /* \"#utility.yul\":2830:2859   */\n      swap1\n      pop\n        /* \"#utility.yul\":2868:2898   */\n      tag_162\n        /* \"#utility.yul\":2892:2897   */\n      dup2\n        /* \"#utility.yul\":2868:2898   */\n      tag_86\n      jump\t// in\n    tag_162:\n        /* \"#utility.yul\":2771:2904   */\n      swap3\n      swap2\n      pop\n      pop\n      jump\t// out\n        /* \"#utility.yul\":2910:3558   */\n    tag_8:\n        /* \"#utility.yul\":2985:2991   */\n      0x00\n        /* \"#utility.yul\":2993:2999   */\n      dup1\n        /* \"#utility.yul\":3042:3044   */\n      0x40\n        /* \"#utility.yul\":3030:3039   */\n      dup4\n        /* \"#utility.yul\":3021:3028   */\n      dup6\n        /* \"#utility.yul\":3017:3040   */\n      sub\n        /* \"#utility.yul\":3013:3045   */\n      slt\n        /* \"#utility.yul\":3010:3129   */\n      iszero\n      tag_164\n      jumpi\n        /* \"#utility.yul\":3048:3127   */\n      tag_165\n      tag_74\n      jump\t// in\n    tag_165:\n        /* \"#utility.yul\":3010:3129   */\n    tag_164:\n        /* \"#utility.yul\":3196:3197   */\n      0x00\n        /* \"#utility.yul\":3185:3194   */\n      dup4\n        /* \"#utility.yul\":3181:3198   */\n      add\n        /* \"#utility.yul\":3168:3199   */\n      calldataload\n        /* \"#utility.yul\":3226:3244   */\n      0xffffffffffffffff\n        /* \"#utility.yul\":3218:3224   */\n      dup2\n        /* \"#utility.yul\":3215:3245   */\n      gt\n        /* \"#utility.yul\":3212:3329   */\n      iszero\n      tag_166\n      jumpi\n        /* \"#utility.yul\":3248:3327   */\n      tag_167\n      tag_75\n      jump\t// in\n    tag_167:\n        /* \"#utility.yul\":3212:3329   */\n    tag_166:\n        /* \"#utility.yul\":3353:3416   */\n      tag_168\n        /* \"#utility.yul\":3408:3415   */\n      dup6\n        /* \"#utility.yul\":3399:3405   */\n      dup3\n        /* \"#utility.yul\":3388:3397   */\n      dup7\n        /* \"#utility.yul\":3384:3406   */\n      add\n        /* \"#utility.yul\":3353:3416   */\n      tag_84\n      jump\t// in\n    tag_168:\n        /* \"#utility.yul\":3343:3416   */\n      swap3\n      pop\n        /* \"#utility.yul\":3139:3426   */\n      pop\n        /* \"#utility.yul\":3465:3467   */\n      0x20\n        /* \"#utility.yul\":3491:3541   */\n      tag_169\n        /* \"#utility.yul\":3533:3540   */\n      dup6\n        /* \"#utility.yul\":3524:3530   */\n      dup3\n        /* \"#utility.yul\":3513:3522   */\n      dup7\n        /* \"#utility.yul\":3509:3531   */\n      add\n        /* \"#utility.yul\":3491:3541   */\n      tag_87\n      jump\t// in\n    tag_169:\n        /* \"#utility.yul\":3481:3541   */\n      swap2\n      pop\n        /* \"#utility.yul\":3436:3551   */\n      pop\n        /* \"#utility.yul\":2910:3558   */\n      swap3\n      pop\n      swap3\n      swap1\n      pop\n      jump\t// out\n        /* \"#utility.yul\":3564:3698   */\n    tag_88:\n        /* \"#utility.yul\":3651:3657   */\n      0x00\n        /* \"#utility.yul\":3685:3690   */\n      dup2\n        /* \"#utility.yul\":3679:3691   */\n      mload\n        /* \"#utility.yul\":3669:3691   */\n      swap1\n      pop\n        /* \"#utility.yul\":3564:3698   */\n      swap2\n      swap1\n      pop\n      jump\t// out\n        /* \"#utility.yul\":3704:3908   */\n    tag_89:\n        /* \"#utility.yul\":3823:3834   */\n      0x00\n        /* \"#utility.yul\":3857:3863   */\n      dup3\n        /* \"#utility.yul\":3852:3855   */\n      dup3\n        /* \"#utility.yul\":3845:3864   */\n      mstore\n        /* \"#utility.yul\":3897:3901   */\n      0x20\n        /* \"#utility.yul\":3892:3895   */\n      dup3\n        /* \"#utility.yul\":3888:3902   */\n      add\n        /* \"#utility.yul\":3873:3902   */\n      swap1\n      pop\n        /* \"#utility.yul\":3704:3908   */\n      swap3\n      swap2\n      pop\n      pop\n      jump\t// out\n        /* \"#utility.yul\":3914:4066   */\n    tag_90:\n        /* \"#utility.yul\":4001:4005   */\n      0x00\n        /* \"#utility.yul\":4024:4027   */\n      dup2\n        /* \"#utility.yul\":4016:4027   */\n      swap1\n      pop\n        /* \"#utility.yul\":4054:4058   */\n      0x20\n        /* \"#utility.yul\":4049:4052   */\n      dup3\n        /* \"#utility.yul\":4045:4059   */\n      add\n        /* \"#utility.yul\":4037:4059   */\n      swap1\n      pop\n        /* \"#utility.yul\":3914:4066   */\n      swap2\n      swap1\n      pop\n      jump\t// out\n        /* \"#utility.yul\":4072:4149   */\n    tag_91:\n        /* \"#utility.yul\":4109:4116   */\n      0x00\n        /* \"#utility.yul\":4138:4143   */\n      dup2\n        /* \"#utility.yul\":4127:4143   */\n      swap1\n      pop\n        /* \"#utility.yul\":4072:4149   */\n      swap2\n      swap1\n      pop\n      jump\t// out\n        /* \"#utility.yul\":4155:4263   */\n    tag_92:\n        /* \"#utility.yul\":4232:4256   */\n      tag_175\n        /* \"#utility.yul\":4250:4255   */\n      dup2\n        /* \"#utility.yul\":4232:4256   */\n      tag_91\n      jump\t// in\n    tag_175:\n        /* \"#utility.yul\":4227:4230   */\n      dup3\n        /* \"#utility.yul\":4220:4257   */\n      mstore\n        /* \"#utility.yul\":4155:4263   */\n      pop\n      pop\n      jump\t// out\n        /* \"#utility.yul\":4269:4395   */\n    tag_93:\n        /* \"#utility.yul\":4306:4313   */\n      0x00\n        /* \"#utility.yul\":4346:4388   */\n      0xffffffffffffffffffffffffffffffffffffffff\n        /* \"#utility.yul\":4339:4344   */\n      dup3\n        /* \"#utility.yul\":4335:4389   */\n      and\n        /* \"#utility.yul\":4324:4389   */\n      swap1\n      pop\n        /* \"#utility.yul\":4269:4395   */\n      swap2\n      swap1\n      pop\n      jump\t// out\n        /* \"#utility.yul\":4401:4497   */\n    tag_94:\n        /* \"#utility.yul\":4438:4445   */\n      0x00\n        /* \"#utility.yul\":4467:4491   */\n      tag_178\n        /* \"#utility.yul\":4485:4490   */\n      dup3\n        /* \"#utility.yul\":4467:4491   */\n      tag_93\n      jump\t// in\n    tag_178:\n        /* \"#utility.yul\":4456:4491   */\n      swap1\n      pop\n        /* \"#utility.yul\":4401:4497   */\n      swap2\n      swap1\n      pop\n      jump\t// out\n        /* \"#utility.yul\":4503:4611   */\n    tag_95:\n        /* \"#utility.yul\":4580:4604   */\n      tag_180\n        /* \"#utility.yul\":4598:4603   */\n      dup2\n        /* \"#utility.yul\":4580:4604   */\n      tag_94\n      jump\t// in\n    tag_180:\n        /* \"#utility.yul\":4575:4578   */\n      dup3\n        /* \"#utility.yul\":4568:4605   */\n      mstore\n        /* \"#utility.yul\":4503:4611   */\n      pop\n      pop\n      jump\t// out\n        /* \"#utility.yul\":4617:4716   */\n    tag_96:\n        /* \"#utility.yul\":4669:4675   */\n      0x00\n        /* \"#utility.yul\":4703:4708   */\n      dup2\n        /* \"#utility.yul\":4697:4709   */\n      mload\n        /* \"#utility.yul\":4687:4709   */\n      swap1\n      pop\n        /* \"#utility.yul\":4617:4716   */\n      swap2\n      swap1\n      pop\n      jump\t// out\n        /* \"#utility.yul\":4722:4881   */\n    tag_97:\n        /* \"#utility.yul\":4796:4807   */\n      0x00\n        /* \"#utility.yul\":4830:4836   */\n      dup3\n        /* \"#utility.yul\":4825:4828   */\n      dup3\n        /* \"#utility.yul\":4818:4837   */\n      mstore\n        /* \"#utility.yul\":4870:4874   */\n      0x20\n        /* \"#utility.yul\":4865:4868   */\n      dup3\n        /* \"#utility.yul\":4861:4875   */\n      add\n        /* \"#utility.yul\":4846:4875   */\n      swap1\n      pop\n        /* \"#utility.yul\":4722:4881   */\n      swap3\n      swap2\n      pop\n      pop\n      jump\t// out\n        /* \"#utility.yul\":4887:5133   */\n    tag_98:\n        /* \"#utility.yul\":4968:4969   */\n      0x00\n        /* \"#utility.yul\":4978:5091   */\n    tag_184:\n        /* \"#utility.yul\":4992:4998   */\n      dup4\n        /* \"#utility.yul\":4989:4990   */\n      dup2\n        /* \"#utility.yul\":4986:4999   */\n      lt\n        /* \"#utility.yul\":4978:5091   */\n      iszero\n      tag_186\n      jumpi\n        /* \"#utility.yul\":5077:5078   */\n      dup1\n        /* \"#utility.yul\":5072:5075   */\n      dup3\n        /* \"#utility.yul\":5068:5079   */\n      add\n        /* \"#utility.yul\":5062:5080   */\n      mload\n        /* \"#utility.yul\":5058:5059   */\n      dup2\n        /* \"#utility.yul\":5053:5056   */\n      dup5\n        /* \"#utility.yul\":5049:5060   */\n      add\n        /* \"#utility.yul\":5042:5081   */\n      mstore\n        /* \"#utility.yul\":5014:5016   */\n      0x20\n        /* \"#utility.yul\":5011:5012   */\n      dup2\n        /* \"#utility.yul\":5007:5017   */\n      add\n        /* \"#utility.yul\":5002:5017   */\n      swap1\n      pop\n        /* \"#utility.yul\":4978:5091   */\n      jump(tag_184)\n    tag_186:\n        /* \"#utility.yul\":5125:5126   */\n      0x00\n        /* \"#utility.yul\":5116:5122   */\n      dup5\n        /* \"#utility.yul\":5111:5114   */\n      dup5\n        /* \"#utility.yul\":5107:5123   */\n      add\n        /* \"#utility.yul\":5100:5127   */\n      mstore\n        /* \"#utility.yul\":4949:5133   */\n      pop\n        /* \"#utility.yul\":4887:5133   */\n      pop\n      pop\n      pop\n      jump\t// out\n        /* \"#utility.yul\":5139:5496   */\n    tag_99:\n        /* \"#utility.yul\":5217:5220   */\n      0x00\n        /* \"#utility.yul\":5245:5284   */\n      tag_188\n        /* \"#utility.yul\":5278:5283   */\n      dup3\n        /* \"#utility.yul\":5245:5284   */\n      tag_96\n      jump\t// in\n    tag_188:\n        /* \"#utility.yul\":5300:5361   */\n      tag_189\n        /* \"#utility.yul\":5354:5360   */\n      dup2\n        /* \"#utility.yul\":5349:5352   */\n      dup6\n        /* \"#utility.yul\":5300:5361   */\n      tag_97\n      jump\t// in\n    tag_189:\n        /* \"#utility.yul\":5293:5361   */\n      swap4\n      pop\n        /* \"#utility.yul\":5370:5435   */\n      tag_190\n        /* \"#utility.yul\":5428:5434   */\n      dup2\n        /* \"#utility.yul\":5423:5426   */\n      dup6\n        /* \"#utility.yul\":5416:5420   */\n      0x20\n        /* \"#utility.yul\":5409:5414   */\n      dup7\n        /* \"#utility.yul\":5405:5421   */\n      add\n        /* \"#utility.yul\":5370:5435   */\n      tag_98\n      jump\t// in\n    tag_190:\n        /* \"#utility.yul\":5460:5489   */\n      tag_191\n        /* \"#utility.yul\":5482:5488   */\n      dup2\n        /* \"#utility.yul\":5460:5489   */\n      tag_78\n      jump\t// in\n    tag_191:\n        /* \"#utility.yul\":5455:5458   */\n      dup5\n        /* \"#utility.yul\":5451:5490   */\n      add\n        /* \"#utility.yul\":5444:5490   */\n      swap2\n      pop\n        /* \"#utility.yul\":5221:5496   */\n      pop\n        /* \"#utility.yul\":5139:5496   */\n      swap3\n      swap2\n      pop\n      pop\n      jump\t// out\n        /* \"#utility.yul\":5502:5601   */\n    tag_100:\n        /* \"#utility.yul\":5573:5594   */\n      tag_193\n        /* \"#utility.yul\":5588:5593   */\n      dup2\n        /* \"#utility.yul\":5573:5594   */\n      tag_85\n      jump\t// in\n    tag_193:\n        /* \"#utility.yul\":5568:5571   */\n      dup3\n        /* \"#utility.yul\":5561:5595   */\n      mstore\n        /* \"#utility.yul\":5502:5601   */\n      pop\n      pop\n      jump\t// out\n        /* \"#utility.yul\":5667:6606   */\n    tag_101:\n        /* \"#utility.yul\":5766:5769   */\n      0x00\n        /* \"#utility.yul\":5802:5806   */\n      0x80\n        /* \"#utility.yul\":5797:5800   */\n      dup4\n        /* \"#utility.yul\":5793:5807   */\n      add\n        /* \"#utility.yul\":5887:5891   */\n      0x00\n        /* \"#utility.yul\":5880:5885   */\n      dup4\n        /* \"#utility.yul\":5876:5892   */\n      add\n        /* \"#utility.yul\":5870:5893   */\n      mload\n        /* \"#utility.yul\":5906:5969   */\n      tag_195\n        /* \"#utility.yul\":5963:5967   */\n      0x00\n        /* \"#utility.yul\":5958:5961   */\n      dup7\n        /* \"#utility.yul\":5954:5968   */\n      add\n        /* \"#utility.yul\":5940:5952   */\n      dup3\n        /* \"#utility.yul\":5906:5969   */\n      tag_92\n      jump\t// in\n    tag_195:\n        /* \"#utility.yul\":5817:5979   */\n      pop\n        /* \"#utility.yul\":6065:6069   */\n      0x20\n        /* \"#utility.yul\":6058:6063   */\n      dup4\n        /* \"#utility.yul\":6054:6070   */\n      add\n        /* \"#utility.yul\":6048:6071   */\n      mload\n        /* \"#utility.yul\":6084:6147   */\n      tag_196\n        /* \"#utility.yul\":6141:6145   */\n      0x20\n        /* \"#utility.yul\":6136:6139   */\n      dup7\n        /* \"#utility.yul\":6132:6146   */\n      add\n        /* \"#utility.yul\":6118:6130   */\n      dup3\n        /* \"#utility.yul\":6084:6147   */\n      tag_95\n      jump\t// in\n    tag_196:\n        /* \"#utility.yul\":5989:6157   */\n      pop\n        /* \"#utility.yul\":6243:6247   */\n      0x40\n        /* \"#utility.yul\":6236:6241   */\n      dup4\n        /* \"#utility.yul\":6232:6248   */\n      add\n        /* \"#utility.yul\":6226:6249   */\n      mload\n        /* \"#utility.yul\":6296:6299   */\n      dup5\n        /* \"#utility.yul\":6290:6294   */\n      dup3\n        /* \"#utility.yul\":6286:6300   */\n      sub\n        /* \"#utility.yul\":6279:6283   */\n      0x40\n        /* \"#utility.yul\":6274:6277   */\n      dup7\n        /* \"#utility.yul\":6270:6284   */\n      add\n        /* \"#utility.yul\":6263:6301   */\n      mstore\n        /* \"#utility.yul\":6322:6395   */\n      tag_197\n        /* \"#utility.yul\":6390:6394   */\n      dup3\n        /* \"#utility.yul\":6376:6388   */\n      dup3\n        /* \"#utility.yul\":6322:6395   */\n      tag_99\n      jump\t// in\n    tag_197:\n        /* \"#utility.yul\":6314:6395   */\n      swap2\n      pop\n        /* \"#utility.yul\":6167:6406   */\n      pop\n        /* \"#utility.yul\":6493:6497   */\n      0x60\n        /* \"#utility.yul\":6486:6491   */\n      dup4\n        /* \"#utility.yul\":6482:6498   */\n      add\n        /* \"#utility.yul\":6476:6499   */\n      mload\n        /* \"#utility.yul\":6512:6569   */\n      tag_198\n        /* \"#utility.yul\":6563:6567   */\n      0x60\n        /* \"#utility.yul\":6558:6561   */\n      dup7\n        /* \"#utility.yul\":6554:6568   */\n      add\n        /* \"#utility.yul\":6540:6552   */\n      dup3\n        /* \"#utility.yul\":6512:6569   */\n      tag_100\n      jump\t// in\n    tag_198:\n        /* \"#utility.yul\":6416:6579   */\n      pop\n        /* \"#utility.yul\":6596:6600   */\n      dup1\n        /* \"#utility.yul\":6589:6600   */\n      swap2\n      pop\n        /* \"#utility.yul\":5771:6606   */\n      pop\n        /* \"#utility.yul\":5667:6606   */\n      swap3\n      swap2\n      pop\n      pop\n      jump\t// out\n        /* \"#utility.yul\":6612:6848   */\n    tag_102:\n        /* \"#utility.yul\":6721:6731   */\n      0x00\n        /* \"#utility.yul\":6756:6842   */\n      tag_200\n        /* \"#utility.yul\":6838:6841   */\n      dup4\n        /* \"#utility.yul\":6830:6836   */\n      dup4\n        /* \"#utility.yul\":6756:6842   */\n      tag_101\n      jump\t// in\n    tag_200:\n        /* \"#utility.yul\":6742:6842   */\n      swap1\n      pop\n        /* \"#utility.yul\":6612:6848   */\n      swap3\n      swap2\n      pop\n      pop\n      jump\t// out\n        /* \"#utility.yul\":6854:6987   */\n    tag_103:\n        /* \"#utility.yul\":6944:6948   */\n      0x00\n        /* \"#utility.yul\":6976:6980   */\n      0x20\n        /* \"#utility.yul\":6971:6974   */\n      dup3\n        /* \"#utility.yul\":6967:6981   */\n      add\n        /* \"#utility.yul\":6959:6981   */\n      swap1\n      pop\n        /* \"#utility.yul\":6854:6987   */\n      swap2\n      swap1\n      pop\n      jump\t// out\n        /* \"#utility.yul\":7057:8128   */\n    tag_104:\n        /* \"#utility.yul\":7216:7219   */\n      0x00\n        /* \"#utility.yul\":7245:7319   */\n      tag_203\n        /* \"#utility.yul\":7313:7318   */\n      dup3\n        /* \"#utility.yul\":7245:7319   */\n      tag_88\n      jump\t// in\n    tag_203:\n        /* \"#utility.yul\":7335:7441   */\n      tag_204\n        /* \"#utility.yul\":7434:7440   */\n      dup2\n        /* \"#utility.yul\":7429:7432   */\n      dup6\n        /* \"#utility.yul\":7335:7441   */\n      tag_89\n      jump\t// in\n    tag_204:\n        /* \"#utility.yul\":7328:7441   */\n      swap4\n      pop\n        /* \"#utility.yul\":7467:7470   */\n      dup4\n        /* \"#utility.yul\":7512:7516   */\n      0x20\n        /* \"#utility.yul\":7504:7510   */\n      dup3\n        /* \"#utility.yul\":7500:7517   */\n      mul\n        /* \"#utility.yul\":7495:7498   */\n      dup6\n        /* \"#utility.yul\":7491:7518   */\n      add\n        /* \"#utility.yul\":7542:7618   */\n      tag_205\n        /* \"#utility.yul\":7612:7617   */\n      dup6\n        /* \"#utility.yul\":7542:7618   */\n      tag_90\n      jump\t// in\n    tag_205:\n        /* \"#utility.yul\":7641:7648   */\n      dup1\n        /* \"#utility.yul\":7672:7673   */\n      0x00\n        /* \"#utility.yul\":7657:8083   */\n    tag_206:\n        /* \"#utility.yul\":7682:7688   */\n      dup6\n        /* \"#utility.yul\":7679:7680   */\n      dup2\n        /* \"#utility.yul\":7676:7689   */\n      lt\n        /* \"#utility.yul\":7657:8083   */\n      iszero\n      tag_208\n      jumpi\n        /* \"#utility.yul\":7753:7762   */\n      dup5\n        /* \"#utility.yul\":7747:7751   */\n      dup5\n        /* \"#utility.yul\":7743:7763   */\n      sub\n        /* \"#utility.yul\":7738:7741   */\n      dup10\n        /* \"#utility.yul\":7731:7764   */\n      mstore\n        /* \"#utility.yul\":7804:7810   */\n      dup2\n        /* \"#utility.yul\":7798:7811   */\n      mload\n        /* \"#utility.yul\":7832:7936   */\n      tag_209\n        /* \"#utility.yul\":7931:7935   */\n      dup6\n        /* \"#utility.yul\":7916:7929   */\n      dup3\n        /* \"#utility.yul\":7832:7936   */\n      tag_102\n      jump\t// in\n    tag_209:\n        /* \"#utility.yul\":7824:7936   */\n      swap5\n      pop\n        /* \"#utility.yul\":7959:8039   */\n      tag_210\n        /* \"#utility.yul\":8032:8038   */\n      dup4\n        /* \"#utility.yul\":7959:8039   */\n      tag_103\n      jump\t// in\n    tag_210:\n        /* \"#utility.yul\":7949:8039   */\n      swap3\n      pop\n        /* \"#utility.yul\":8068:8072   */\n      0x20\n        /* \"#utility.yul\":8063:8066   */\n      dup11\n        /* \"#utility.yul\":8059:8073   */\n      add\n        /* \"#utility.yul\":8052:8073   */\n      swap10\n      pop\n        /* \"#utility.yul\":7717:8083   */\n      pop\n        /* \"#utility.yul\":7704:7705   */\n      0x01\n        /* \"#utility.yul\":7701:7702   */\n      dup2\n        /* \"#utility.yul\":7697:7706   */\n      add\n        /* \"#utility.yul\":7692:7706   */\n      swap1\n      pop\n        /* \"#utility.yul\":7657:8083   */\n      jump(tag_206)\n    tag_208:\n        /* \"#utility.yul\":7661:7675   */\n      pop\n        /* \"#utility.yul\":8099:8103   */\n      dup3\n        /* \"#utility.yul\":8092:8103   */\n      swap8\n      pop\n        /* \"#utility.yul\":8119:8122   */\n      dup8\n        /* \"#utility.yul\":8112:8122   */\n      swap6\n      pop\n        /* \"#utility.yul\":7221:8128   */\n      pop\n      pop\n      pop\n      pop\n      pop\n        /* \"#utility.yul\":7057:8128   */\n      swap3\n      swap2\n      pop\n      pop\n      jump\t// out\n        /* \"#utility.yul\":8134:8587   */\n    tag_13:\n        /* \"#utility.yul\":8317:8321   */\n      0x00\n        /* \"#utility.yul\":8355:8357   */\n      0x20\n        /* \"#utility.yul\":8344:8353   */\n      dup3\n        /* \"#utility.yul\":8340:8358   */\n      add\n        /* \"#utility.yul\":8332:8358   */\n      swap1\n      pop\n        /* \"#utility.yul\":8404:8413   */\n      dup2\n        /* \"#utility.yul\":8398:8402   */\n      dup2\n        /* \"#utility.yul\":8394:8414   */\n      sub\n        /* \"#utility.yul\":8390:8391   */\n      0x00\n        /* \"#utility.yul\":8379:8388   */\n      dup4\n        /* \"#utility.yul\":8375:8392   */\n      add\n        /* \"#utility.yul\":8368:8415   */\n      mstore\n        /* \"#utility.yul\":8432:8580   */\n      tag_212\n        /* \"#utility.yul\":8575:8579   */\n      dup2\n        /* \"#utility.yul\":8566:8572   */\n      dup5\n        /* \"#utility.yul\":8432:8580   */\n      tag_104\n      jump\t// in\n    tag_212:\n        /* \"#utility.yul\":8424:8580   */\n      swap1\n      pop\n        /* \"#utility.yul\":8134:8587   */\n      swap3\n      swap2\n      pop\n      pop\n      jump\t// out\n        /* \"#utility.yul\":8593:8715   */\n    tag_105:\n        /* \"#utility.yul\":8666:8690   */\n      tag_214\n        /* \"#utility.yul\":8684:8689   */\n      dup2\n        /* \"#utility.yul\":8666:8690   */\n      tag_91\n      jump\t// in\n    tag_214:\n        /* \"#utility.yul\":8659:8664   */\n      dup2\n        /* \"#utility.yul\":8656:8691   */\n      eq\n        /* \"#utility.yul\":8646:8709   */\n      tag_215\n      jumpi\n        /* \"#utility.yul\":8705:8706   */\n      0x00\n        /* \"#utility.yul\":8702:8703   */\n      dup1\n        /* \"#utility.yul\":8695:8707   */\n      revert\n        /* \"#utility.yul\":8646:8709   */\n    tag_215:\n        /* \"#utility.yul\":8593:8715   */\n      pop\n      jump\t// out\n        /* \"#utility.yul\":8721:8860   */\n    tag_106:\n        /* \"#utility.yul\":8767:8772   */\n      0x00\n        /* \"#utility.yul\":8805:8811   */\n      dup2\n        /* \"#utility.yul\":8792:8812   */\n      calldataload\n        /* \"#utility.yul\":8783:8812   */\n      swap1\n      pop\n        /* \"#utility.yul\":8821:8854   */\n      tag_217\n        /* \"#utility.yul\":8848:8853   */\n      dup2\n        /* \"#utility.yul\":8821:8854   */\n      tag_105\n      jump\t// in\n    tag_217:\n        /* \"#utility.yul\":8721:8860   */\n      swap3\n      swap2\n      pop\n      pop\n      jump\t// out\n        /* \"#utility.yul\":8866:9334   */\n    tag_16:\n        /* \"#utility.yul\":8931:8937   */\n      0x00\n        /* \"#utility.yul\":8939:8945   */\n      dup1\n        /* \"#utility.yul\":8988:8990   */\n      0x40\n        /* \"#utility.yul\":8976:8985   */\n      dup4\n        /* \"#utility.yul\":8967:8974   */\n      dup6\n        /* \"#utility.yul\":8963:8986   */\n      sub\n        /* \"#utility.yul\":8959:8991   */\n      slt\n        /* \"#utility.yul\":8956:9075   */\n      iszero\n      tag_219\n      jumpi\n        /* \"#utility.yul\":8994:9073   */\n      tag_220\n      tag_74\n      jump\t// in\n    tag_220:\n        /* \"#utility.yul\":8956:9075   */\n    tag_219:\n        /* \"#utility.yul\":9114:9115   */\n      0x00\n        /* \"#utility.yul\":9139:9192   */\n      tag_221\n        /* \"#utility.yul\":9184:9191   */\n      dup6\n        /* \"#utility.yul\":9175:9181   */\n      dup3\n        /* \"#utility.yul\":9164:9173   */\n      dup7\n        /* \"#utility.yul\":9160:9182   */\n      add\n        /* \"#utility.yul\":9139:9192   */\n      tag_106\n      jump\t// in\n    tag_221:\n        /* \"#utility.yul\":9129:9192   */\n      swap3\n      pop\n        /* \"#utility.yul\":9085:9202   */\n      pop\n        /* \"#utility.yul\":9241:9243   */\n      0x20\n        /* \"#utility.yul\":9267:9317   */\n      tag_222\n        /* \"#utility.yul\":9309:9316   */\n      dup6\n        /* \"#utility.yul\":9300:9306   */\n      dup3\n        /* \"#utility.yul\":9289:9298   */\n      dup7\n        /* \"#utility.yul\":9285:9307   */\n      add\n        /* \"#utility.yul\":9267:9317   */\n      tag_87\n      jump\t// in\n    tag_222:\n        /* \"#utility.yul\":9257:9317   */\n      swap2\n      pop\n        /* \"#utility.yul\":9212:9327   */\n      pop\n        /* \"#utility.yul\":8866:9334   */\n      swap3\n      pop\n      swap3\n      swap1\n      pop\n      jump\t// out\n        /* \"#utility.yul\":9340:9520   */\n    tag_107:\n        /* \"#utility.yul\":9388:9465   */\n      0x4e487b7100000000000000000000000000000000000000000000000000000000\n        /* \"#utility.yul\":9385:9386   */\n      0x00\n        /* \"#utility.yul\":9378:9466   */\n      mstore\n        /* \"#utility.yul\":9485:9489   */\n      0x22\n        /* \"#utility.yul\":9482:9483   */\n      0x04\n        /* \"#utility.yul\":9475:9490   */\n      mstore\n        /* \"#utility.yul\":9509:9513   */\n      0x24\n        /* \"#utility.yul\":9506:9507   */\n      0x00\n        /* \"#utility.yul\":9499:9514   */\n      revert\n        /* \"#utility.yul\":9526:9846   */\n    tag_45:\n        /* \"#utility.yul\":9570:9576   */\n      0x00\n        /* \"#utility.yul\":9607:9608   */\n      0x02\n        /* \"#utility.yul\":9601:9605   */\n      dup3\n        /* \"#utility.yul\":9597:9609   */\n      div\n        /* \"#utility.yul\":9587:9609   */\n      swap1\n      pop\n        /* \"#utility.yul\":9654:9655   */\n      0x01\n        /* \"#utility.yul\":9648:9652   */\n      dup3\n        /* \"#utility.yul\":9644:9656   */\n      and\n        /* \"#utility.yul\":9675:9693   */\n      dup1\n        /* \"#utility.yul\":9665:9746   */\n      tag_225\n      jumpi\n        /* \"#utility.yul\":9731:9735   */\n      0x7f\n        /* \"#utility.yul\":9723:9729   */\n      dup3\n        /* \"#utility.yul\":9719:9736   */\n      and\n        /* \"#utility.yul\":9709:9736   */\n      swap2\n      pop\n        /* \"#utility.yul\":9665:9746   */\n    tag_225:\n        /* \"#utility.yul\":9793:9795   */\n      0x20\n        /* \"#utility.yul\":9785:9791   */\n      dup3\n        /* \"#utility.yul\":9782:9796   */\n      lt\n        /* \"#utility.yul\":9762:9780   */\n      dup2\n        /* \"#utility.yul\":9759:9797   */\n      sub\n        /* \"#utility.yul\":9756:9840   */\n      tag_226\n      jumpi\n        /* \"#utility.yul\":9812:9830   */\n      tag_227\n      tag_107\n      jump\t// in\n    tag_227:\n        /* \"#utility.yul\":9756:9840   */\n    tag_226:\n        /* \"#utility.yul\":9577:9846   */\n      pop\n        /* \"#utility.yul\":9526:9846   */\n      swap2\n      swap1\n      pop\n      jump\t// out\n        /* \"#utility.yul\":9852:9993   */\n    tag_108:\n        /* \"#utility.yul\":9901:9905   */\n      0x00\n        /* \"#utility.yul\":9924:9927   */\n      dup2\n        /* \"#utility.yul\":9916:9927   */\n      swap1\n      pop\n        /* \"#utility.yul\":9947:9950   */\n      dup2\n        /* \"#utility.yul\":9944:9945   */\n      0x00\n        /* \"#utility.yul\":9937:9951   */\n      mstore\n        /* \"#utility.yul\":9981:9985   */\n      0x20\n        /* \"#utility.yul\":9978:9979   */\n      0x00\n        /* \"#utility.yul\":9968:9986   */\n      keccak256\n        /* \"#utility.yul\":9960:9986   */\n      swap1\n      pop\n        /* \"#utility.yul\":9852:9993   */\n      swap2\n      swap1\n      pop\n      jump\t// out\n        /* \"#utility.yul\":9999:10092   */\n    tag_109:\n        /* \"#utility.yul\":10036:10042   */\n      0x00\n        /* \"#utility.yul\":10083:10085   */\n      0x20\n        /* \"#utility.yul\":10078:10080   */\n      0x1f\n        /* \"#utility.yul\":10071:10076   */\n      dup4\n        /* \"#utility.yul\":10067:10081   */\n      add\n        /* \"#utility.yul\":10063:10086   */\n      div\n        /* \"#utility.yul\":10053:10086   */\n      swap1\n      pop\n        /* \"#utility.yul\":9999:10092   */\n      swap2\n      swap1\n      pop\n      jump\t// out\n        /* \"#utility.yul\":10098:10205   */\n    tag_110:\n        /* \"#utility.yul\":10142:10150   */\n      0x00\n        /* \"#utility.yul\":10192:10197   */\n      dup3\n        /* \"#utility.yul\":10186:10190   */\n      dup3\n        /* \"#utility.yul\":10182:10198   */\n      shl\n        /* \"#utility.yul\":10161:10198   */\n      swap1\n      pop\n        /* \"#utility.yul\":10098:10205   */\n      swap3\n      swap2\n      pop\n      pop\n      jump\t// out\n        /* \"#utility.yul\":10211:10604   */\n    tag_111:\n        /* \"#utility.yul\":10280:10286   */\n      0x00\n        /* \"#utility.yul\":10330:10331   */\n      0x08\n        /* \"#utility.yul\":10318:10328   */\n      dup4\n        /* \"#utility.yul\":10314:10332   */\n      mul\n        /* \"#utility.yul\":10353:10450   */\n      tag_232\n        /* \"#utility.yul\":10383:10449   */\n      0xffffffffffffffffffffffffffffffffffffffffffffffffffffffffffffffff\n        /* \"#utility.yul\":10372:10381   */\n      dup3\n        /* \"#utility.yul\":10353:10450   */\n      tag_110\n      jump\t// in\n    tag_232:\n        /* \"#utility.yul\":10471:10510   */\n      tag_233\n        /* \"#utility.yul\":10501:10509   */\n      dup7\n        /* \"#utility.yul\":10490:10499   */\n      dup4\n        /* \"#utility.yul\":10471:10510   */\n      tag_110\n      jump\t// in\n    tag_233:\n        /* \"#utility.yul\":10459:10510   */\n      swap6\n      pop\n        /* \"#utility.yul\":10543:10547   */\n      dup1\n        /* \"#utility.yul\":10539:10548   */\n      not\n        /* \"#utility.yul\":10532:10537   */\n      dup5\n        /* \"#utility.yul\":10528:10549   */\n      and\n        /* \"#utility.yul\":10519:10549   */\n      swap4\n      pop\n        /* \"#utility.yul\":10592:10596   */\n      dup1\n        /* \"#utility.yul\":10582:10590   */\n      dup7\n        /* \"#utility.yul\":10578:10597   */\n      and\n        /* \"#utility.yul\":10571:10576   */\n      dup5\n        /* \"#utility.yul\":10568:10598   */\n      or\n        /* \"#utility.yul\":10558:10598   */\n      swap3\n      pop\n        /* \"#utility.yul\":10287:10604   */\n      pop\n      pop\n        /* \"#utility.yul\":10211:10604   */\n      swap4\n      swap3\n      pop\n      pop\n      pop\n      jump\t// out\n        /* \"#utility.yul\":10610:10670   */\n    tag_112:\n        /* \"#utility.yul\":10638:10641   */\n      0x00\n        /* \"#utility.yul\":10659:10664   */\n      dup2\n        /* \"#utility.yul\":10652:10664   */\n      swap1\n      pop\n        /* \"#utility.yul\":10610:10670   */\n      swap2\n      swap1\n      pop\n      jump\t// out\n        /* \"#utility.yul\":10676:10818   */\n    tag_113:\n        /* \"#utility.yul\":10726:10735   */\n      0x00\n        /* \"#utility.yul\":10759:10812   */\n      tag_236\n        /* \"#utility.yul\":10777:10811   */\n      tag_237\n        /* \"#utility.yul\":10786:10810   */\n      tag_238\n        /* \"#utility.yul\":10804:10809   */\n      dup5\n        /* \"#utility.yul\":10786:10810   */\n      tag_91\n      jump\t// in\n    tag_238:\n        /* \"#utility.yul\":10777:10811   */\n      tag_112\n      jump\t// in\n    tag_237:\n        /* \"#utility.yul\":10759:10812   */\n      tag_91\n      jump\t// in\n    tag_236:\n        /* \"#utility.yul\":10746:10812   */\n      swap1\n      pop\n        /* \"#utility.yul\":10676:10818   */\n      swap2\n      swap1\n      pop\n      jump\t// out\n        /* \"#utility.yul\":10824:10899   */\n    tag_114:\n        /* \"#utility.yul\":10867:10870   */\n      0x00\n        /* \"#utility.yul\":10888:10893   */\n      dup2\n        /* \"#utility.yul\":10881:10893   */\n      swap1\n      pop\n        /* \"#utility.yul\":10824:10899   */\n      swap2\n      swap1\n      pop\n      jump\t// out\n        /* \"#utility.yul\":10905:11174   */\n    tag_115:\n        /* \"#utility.yul\":11015:11054   */\n      tag_241\n        /* \"#utility.yul\":11046:11053   */\n      dup4\n        /* \"#utility.yul\":11015:11054   */\n      tag_113\n      jump\t// in\n    tag_241:\n        /* \"#utility.yul\":11076:11167   */\n      tag_242\n        /* \"#utility.yul\":11125:11166   */\n      tag_243\n        /* \"#utility.yul\":11149:11165   */\n      dup3\n        /* \"#utility.yul\":11125:11166   */\n      tag_114\n      jump\t// in\n    tag_243:\n        /* \"#utility.yul\":11117:11123   */\n      dup5\n        /* \"#utility.yul\":11110:11114   */\n      dup5\n        /* \"#utility.yul\":11104:11115   */\n      sload\n        /* \"#utility.yul\":11076:11167   */\n      tag_111\n      jump\t// in\n    tag_242:\n        /* \"#utility.yul\":11070:11074   */\n      dup3\n        /* \"#utility.yul\":11063:11168   */\n      sstore\n        /* \"#utility.yul\":10981:11174   */\n      pop\n        /* \"#utility.yul\":10905:11174   */\n      pop\n      pop\n      pop\n      jump\t// out\n        /* \"#utility.yul\":11180:11253   */\n    tag_116:\n        /* \"#utility.yul\":11225:11228   */\n      0x00\n        /* \"#utility.yul\":11180:11253   */\n      swap1\n      jump\t// out\n        /* \"#utility.yul\":11259:11448   */\n    tag_117:\n        /* \"#utility.yul\":11336:11368   */\n      tag_246\n      tag_116\n      jump\t// in\n    tag_246:\n        /* \"#utility.yul\":11377:11442   */\n      tag_247\n        /* \"#utility.yul\":11435:11441   */\n      dup2\n        /* \"#utility.yul\":11427:11433   */\n      dup5\n        /* \"#utility.yul\":11421:11425   */\n      dup5\n        /* \"#utility.yul\":11377:11442   */\n      tag_115\n      jump\t// in\n    tag_247:\n        /* \"#utility.yul\":11312:11448   */\n      pop\n        /* \"#utility.yul\":11259:11448   */\n      pop\n      pop\n      jump\t// out\n        /* \"#utility.yul\":11454:11640   */\n    tag_118:\n        /* \"#utility.yul\":11514:11634   */\n    tag_249:\n        /* \"#utility.yul\":11531:11534   */\n      dup2\n        /* \"#utility.yul\":11524:11529   */\n      dup2\n        /* \"#utility.yul\":11521:11535   */\n      lt\n        /* \"#utility.yul\":11514:11634   */\n      iszero\n      tag_251\n      jumpi\n        /* \"#utility.yul\":11585:11624   */\n      tag_252\n        /* \"#utility.yul\":11622:11623   */\n      0x00\n        /* \"#utility.yul\":11615:11620   */\n      dup3\n        /* \"#utility.yul\":11585:11624   */\n      tag_117\n      jump\t// in\n    tag_252:\n        /* \"#utility.yul\":11558:11559   */\n      0x01\n        /* \"#utility.yul\":11551:11556   */\n      dup2\n        /* \"#utility.yul\":11547:11560   */\n      add\n        /* \"#utility.yul\":11538:11560   */\n      swap1\n      pop\n        /* \"#utility.yul\":11514:11634   */\n      jump(tag_249)\n    tag_251:\n        /* \"#utility.yul\":11454:11640   */\n      pop\n      pop\n      jump\t// out\n        /* \"#utility.yul\":11646:12189   */\n    tag_119:\n        /* \"#utility.yul\":11747:11749   */\n      0x1f\n        /* \"#utility.yul\":11742:11745   */\n      dup3\n        /* \"#utility.yul\":11739:11750   */\n      gt\n        /* \"#utility.yul\":11736:12182   */\n      iszero\n      tag_254\n      jumpi\n        /* \"#utility.yul\":11781:11819   */\n      tag_255\n        /* \"#utility.yul\":11813:11818   */\n      dup2\n        /* \"#utility.yul\":11781:11819   */\n      tag_108\n      jump\t// in\n    tag_255:\n        /* \"#utility.yul\":11865:11894   */\n      tag_256\n        /* \"#utility.yul\":11883:11893   */\n      dup5\n        /* \"#utility.yul\":11865:11894   */\n      tag_109\n      jump\t// in\n    tag_256:\n        /* \"#utility.yul\":11855:11863   */\n      dup2\n        /* \"#utility.yul\":11851:11895   */\n      add\n        /* \"#utility.yul\":12048:12050   */\n      0x20\n        /* \"#utility.yul\":12036:12046   */\n      dup6\n        /* \"#utility.yul\":12033:12051   */\n      lt\n        /* \"#utility.yul\":12030:12079   */\n      iszero\n      tag_257\n      jumpi\n        /* \"#utility.yul\":12069:12077   */\n      dup2\n        /* \"#utility.yul\":12054:12077   */\n      swap1\n      pop\n        /* \"#utility.yul\":12030:12079   */\n    tag_257:\n        /* \"#utility.yul\":12092:12172   */\n      tag_258\n        /* \"#utility.yul\":12148:12170   */\n      tag_259\n        /* \"#utility.yul\":12166:12169   */\n      dup6\n        /* \"#utility.yul\":12148:12170   */\n      tag_109\n      jump\t// in\n    tag_259:\n        /* \"#utility.yul\":12138:12146   */\n      dup4\n        /* \"#utility.yul\":12134:12171   */\n      add\n        /* \"#utility.yul\":12121:12132   */\n      dup3\n        /* \"#utility.yul\":12092:12172   */\n      tag_118\n      jump\t// in\n    tag_258:\n        /* \"#utility.yul\":11751:12182   */\n      pop\n      pop\n        /* \"#utility.yul\":11736:12182   */\n    tag_254:\n        /* \"#utility.yul\":11646:12189   */\n      pop\n      pop\n      pop\n      jump\t// out\n        /* \"#utility.yul\":12195:12312   */\n    tag_120:\n        /* \"#utility.yul\":12249:12257   */\n      0x00\n        /* \"#utility.yul\":12299:12304   */\n      dup3\n        /* \"#utility.yul\":12293:12297   */\n      dup3\n        /* \"#utility.yul\":12289:12305   */\n      shr\n        /* \"#utility.yul\":12268:12305   */\n      swap1\n      pop\n        /* \"#utility.yul\":12195:12312   */\n      swap3\n      swap2\n      pop\n      pop\n      jump\t// out\n        /* \"#utility.yul\":12318:12487   */\n    tag_121:\n        /* \"#utility.yul\":12362:12368   */\n      0x00\n        /* \"#utility.yul\":12395:12446   */\n      tag_262\n        /* \"#utility.yul\":12443:12444   */\n      0x00\n        /* \"#utility.yul\":12439:12445   */\n      not\n        /* \"#utility.yul\":12431:12436   */\n      dup5\n        /* \"#utility.yul\":12428:12429   */\n      0x08\n        /* \"#utility.yul\":12424:12437   */\n      mul\n        /* \"#utility.yul\":12395:12446   */\n      tag_120\n      jump\t// in\n    tag_262:\n        /* \"#utility.yul\":12391:12447   */\n      not\n        /* \"#utility.yul\":12476:12480   */\n      dup1\n        /* \"#utility.yul\":12470:12474   */\n      dup4\n        /* \"#utility.yul\":12466:12481   */\n      and\n        /* \"#utility.yul\":12456:12481   */\n      swap2\n      pop\n        /* \"#utility.yul\":12369:12487   */\n      pop\n        /* \"#utility.yul\":12318:12487   */\n      swap3\n      swap2\n      pop\n      pop\n      jump\t// out\n        /* \"#utility.yul\":12492:12787   */\n    tag_122:\n        /* \"#utility.yul\":12568:12572   */\n      0x00\n        /* \"#utility.yul\":12714:12743   */\n      tag_264\n        /* \"#utility.yul\":12739:12742   */\n      dup4\n        /* \"#utility.yul\":12733:12737   */\n      dup4\n        /* \"#utility.yul\":12714:12743   */\n      tag_121\n      jump\t// in\n    tag_264:\n        /* \"#utility.yul\":12706:12743   */\n      swap2\n      pop\n        /* \"#utility.yul\":12776:12779   */\n      dup3\n        /* \"#utility.yul\":12773:12774   */\n      0x02\n        /* \"#utility.yul\":12769:12780   */\n      mul\n        /* \"#utility.yul\":12763:12767   */\n      dup3\n        /* \"#utility.yul\":12760:12781   */\n      or\n        /* \"#utility.yul\":12752:12781   */\n      swap1\n      pop\n        /* \"#utility.yul\":12492:12787   */\n      swap3\n      swap2\n      pop\n      pop\n      jump\t// out\n        /* \"#utility.yul\":12792:14187   */\n    tag_21:\n        /* \"#utility.yul\":12909:12946   */\n      tag_266\n        /* \"#utility.yul\":12942:12945   */\n      dup3\n        /* \"#utility.yul\":12909:12946   */\n      tag_96\n      jump\t// in\n    tag_266:\n        /* \"#utility.yul\":13011:13029   */\n      0xffffffffffffffff\n        /* \"#utility.yul\":13003:13009   */\n      dup2\n        /* \"#utility.yul\":13000:13030   */\n      gt\n        /* \"#utility.yul\":12997:13053   */\n      iszero\n      tag_267\n      jumpi\n        /* \"#utility.yul\":13033:13051   */\n      tag_268\n      tag_27\n      jump\t// in\n    tag_268:\n        /* \"#utility.yul\":12997:13053   */\n    tag_267:\n        /* \"#utility.yul\":13077:13115   */\n      tag_269\n        /* \"#utility.yul\":13109:13113   */\n      dup3\n        /* \"#utility.yul\":13103:13114   */\n      sload\n        /* \"#utility.yul\":13077:13115   */\n      tag_45\n      jump\t// in\n    tag_269:\n        /* \"#utility.yul\":13162:13229   */\n      tag_270\n        /* \"#utility.yul\":13222:13228   */\n      dup3\n        /* \"#utility.yul\":13214:13220   */\n      dup3\n        /* \"#utility.yul\":13208:13212   */\n      dup6\n        /* \"#utility.yul\":13162:13229   */\n      tag_119\n      jump\t// in\n    tag_270:\n        /* \"#utility.yul\":13256:13257   */\n      0x00\n        /* \"#utility.yul\":13280:13284   */\n      0x20\n        /* \"#utility.yul\":13267:13284   */\n      swap1\n      pop\n        /* \"#utility.yul\":13312:13314   */\n      0x1f\n        /* \"#utility.yul\":13304:13310   */\n      dup4\n        /* \"#utility.yul\":13301:13315   */\n      gt\n        /* \"#utility.yul\":13329:13330   */\n      0x01\n        /* \"#utility.yul\":13324:13942   */\n      dup2\n      eq\n      tag_272\n      jumpi\n        /* \"#utility.yul\":13986:13987   */\n      0x00\n        /* \"#utility.yul\":14003:14009   */\n      dup5\n        /* \"#utility.yul\":14000:14077   */\n      iszero\n      tag_273\n      jumpi\n        /* \"#utility.yul\":14052:14061   */\n      dup3\n        /* \"#utility.yul\":14047:14050   */\n      dup8\n        /* \"#utility.yul\":14043:14062   */\n      add\n        /* \"#utility.yul\":14037:14063   */\n      mload\n        /* \"#utility.yul\":14028:14063   */\n      swap1\n      pop\n        /* \"#utility.yul\":14000:14077   */\n    tag_273:\n        /* \"#utility.yul\":14103:14170   */\n      tag_274\n        /* \"#utility.yul\":14163:14169   */\n      dup6\n        /* \"#utility.yul\":14156:14161   */\n      dup3\n        /* \"#utility.yul\":14103:14170   */\n      tag_122\n      jump\t// in\n    tag_274:\n        /* \"#utility.yul\":14097:14101   */\n      dup7\n        /* \"#utility.yul\":14090:14171   */\n      sstore\n        /* \"#utility.yul\":13959:14181   */\n      pop\n        /* \"#utility.yul\":13294:14181   */\n      jump(tag_271)\n        /* \"#utility.yul\":13324:13942   */\n    tag_272:\n        /* \"#utility.yul\":13376:13380   */\n      0x1f\n        /* \"#utility.yul\":13372:13381   */\n      not\n        /* \"#utility.yul\":13364:13370   */\n      dup5\n        /* \"#utility.yul\":13360:13382   */\n      and\n        /* \"#utility.yul\":13410:13447   */\n      tag_275\n        /* \"#utility.yul\":13442:13446   */\n      dup7\n        /* \"#utility.yul\":13410:13447   */\n      tag_108\n      jump\t// in\n    tag_275:\n        /* \"#utility.yul\":13469:13470   */\n      0x00\n        /* \"#utility.yul\":13483:13691   */\n    tag_276:\n        /* \"#utility.yul\":13497:13504   */\n      dup3\n        /* \"#utility.yul\":13494:13495   */\n      dup2\n        /* \"#utility.yul\":13491:13505   */\n      lt\n        /* \"#utility.yul\":13483:13691   */\n      iszero\n      tag_278\n      jumpi\n        /* \"#utility.yul\":13576:13585   */\n      dup5\n        /* \"#utility.yul\":13571:13574   */\n      dup10\n        /* \"#utility.yul\":13567:13586   */\n      add\n        /* \"#utility.yul\":13561:13587   */\n      mload\n        /* \"#utility.yul\":13553:13559   */\n      dup3\n        /* \"#utility.yul\":13546:13588   */\n      sstore\n        /* \"#utility.yul\":13627:13628   */\n      0x01\n        /* \"#utility.yul\":13619:13625   */\n      dup3\n        /* \"#utility.yul\":13615:13629   */\n      add\n        /* \"#utility.yul\":13605:13629   */\n      swap2\n      pop\n        /* \"#utility.yul\":13674:13676   */\n      0x20\n        /* \"#utility.yul\":13663:13672   */\n      dup6\n        /* \"#utility.yul\":13659:13677   */\n      add\n        /* \"#utility.yul\":13646:13677   */\n      swap5\n      pop\n        /* \"#utility.yul\":13520:13524   */\n      0x20\n        /* \"#utility.yul\":13517:13518   */\n      dup2\n        /* \"#utility.yul\":13513:13525   */\n      add\n        /* \"#utility.yul\":13508:13525   */\n      swap1\n      pop\n        /* \"#utility.yul\":13483:13691   */\n      jump(tag_276)\n    tag_278:\n        /* \"#utility.yul\":13719:13725   */\n      dup7\n        /* \"#utility.yul\":13710:13717   */\n      dup4\n        /* \"#utility.yul\":13707:13726   */\n      lt\n        /* \"#utility.yul\":13704:13883   */\n      iszero\n      tag_279\n      jumpi\n        /* \"#utility.yul\":13777:13786   */\n      dup5\n        /* \"#utility.yul\":13772:13775   */\n      dup10\n        /* \"#utility.yul\":13768:13787   */\n      add\n        /* \"#utility.yul\":13762:13788   */\n      mload\n        /* \"#utility.yul\":13820:13868   */\n      tag_280\n        /* \"#utility.yul\":13862:13866   */\n      0x1f\n        /* \"#utility.yul\":13854:13860   */\n      dup10\n        /* \"#utility.yul\":13850:13867   */\n      and\n        /* \"#utility.yul\":13839:13848   */\n      dup3\n        /* \"#utility.yul\":13820:13868   */\n      tag_121\n      jump\t// in\n    tag_280:\n        /* \"#utility.yul\":13812:13818   */\n      dup4\n        /* \"#utility.yul\":13805:13869   */\n      sstore\n        /* \"#utility.yul\":13727:13883   */\n      pop\n        /* \"#utility.yul\":13704:13883   */\n    tag_279:\n        /* \"#utility.yul\":13929:13930   */\n      0x01\n        /* \"#utility.yul\":13925:13926   */\n      0x02\n        /* \"#utility.yul\":13917:13923   */\n      dup9\n        /* \"#utility.yul\":13913:13927   */\n      mul\n        /* \"#utility.yul\":13909:13931   */\n      add\n        /* \"#utility.yul\":13903:13907   */\n      dup9\n        /* \"#utility.yul\":13896:13932   */\n      sstore\n        /* \"#utility.yul\":13331:13942   */\n      pop\n      pop\n      pop\n        /* \"#utility.yul\":13294:14181   */\n    tag_271:\n      pop\n        /* \"#utility.yul\":12884:14187   */\n      pop\n      pop\n      pop\n        /* \"#utility.yul\":12792:14187   */\n      pop\n      pop\n      jump\t// out\n        /* \"#utility.yul\":14193:14311   */\n    tag_123:\n        /* \"#utility.yul\":14280:14304   */\n      tag_282\n        /* \"#utility.yul\":14298:14303   */\n      dup2\n        /* \"#utility.yul\":14280:14304   */\n      tag_94\n      jump\t// in\n    tag_282:\n        /* \"#utility.yul\":14275:14278   */\n      dup3\n        /* \"#utility.yul\":14268:14305   */\n      mstore\n        /* \"#utility.yul\":14193:14311   */\n      pop\n      pop\n      jump\t// out\n        /* \"#utility.yul\":14317:14435   */\n    tag_124:\n        /* \"#utility.yul\":14404:14428   */\n      tag_284\n        /* \"#utility.yul\":14422:14427   */\n      dup2\n        /* \"#utility.yul\":14404:14428   */\n      tag_91\n      jump\t// in\n    tag_284:\n        /* \"#utility.yul\":14399:14402   */\n      dup3\n        /* \"#utility.yul\":14392:14429   */\n      mstore\n        /* \"#utility.yul\":14317:14435   */\n      pop\n      pop\n      jump\t// out\n        /* \"#utility.yul\":14441:14773   */\n    tag_23:\n        /* \"#utility.yul\":14562:14566   */\n      0x00\n        /* \"#utility.yul\":14600:14602   */\n      0x40\n        /* \"#utility.yul\":14589:14598   */\n      dup3\n        /* \"#utility.yul\":14585:14603   */\n      add\n        /* \"#utility.yul\":14577:14603   */\n      swap1\n      pop\n        /* \"#utility.yul\":14613:14684   */\n      tag_286\n        /* \"#utility.yul\":14681:14682   */\n      0x00\n        /* \"#utility.yul\":14670:14679   */\n      dup4\n        /* \"#utility.yul\":14666:14683   */\n      add\n        /* \"#utility.yul\":14657:14663   */\n      dup6\n        /* \"#utility.yul\":14613:14684   */\n      tag_123\n      jump\t// in\n    tag_286:\n        /* \"#utility.yul\":14694:14766   */\n      tag_287\n        /* \"#utility.yul\":14762:14764   */\n      0x20\n        /* \"#utility.yul\":14751:14760   */\n      dup4\n        /* \"#utility.yul\":14747:14765   */\n      add\n        /* \"#utility.yul\":14738:14744   */\n      dup5\n        /* \"#utility.yul\":14694:14766   */\n      tag_124\n      jump\t// in\n    tag_287:\n        /* \"#utility.yul\":14441:14773   */\n      swap4\n      swap3\n      pop\n      pop\n      pop\n      jump\t// out\n        /* \"#utility.yul\":14779:14959   */\n    tag_38:\n        /* \"#utility.yul\":14827:14904   */\n      0x4e487b7100000000000000000000000000000000000000000000000000000000\n        /* \"#utility.yul\":14824:14825   */\n      0x00\n        /* \"#utility.yul\":14817:14905   */\n      mstore\n        /* \"#utility.yul\":14924:14928   */\n      0x32\n        /* \"#utility.yul\":14921:14922   */\n      0x04\n        /* \"#utility.yul\":14914:14929   */\n      mstore\n        /* \"#utility.yul\":14948:14952   */\n      0x24\n        /* \"#utility.yul\":14945:14946   */\n      0x00\n        /* \"#utility.yul\":14938:14953   */\n      revert\n        /* \"#utility.yul\":14965:15145   */\n    tag_125:\n        /* \"#utility.yul\":15013:15090   */\n      0x4e487b7100000000000000000000000000000000000000000000000000000000\n        /* \"#utility.yul\":15010:15011   */\n      0x00\n        /* \"#utility.yul\":15003:15091   */\n      mstore\n        /* \"#utility.yul\":15110:15114   */\n      0x11\n        /* \"#utility.yul\":15107:15108   */\n      0x04\n        /* \"#utility.yul\":15100:15115   */\n      mstore\n        /* \"#utility.yul\":15134:15138   */\n      0x24\n        /* \"#utility.yul\":15131:15132   */\n      0x00\n        /* \"#utility.yul\":15124:15139   */\n      revert\n        /* \"#utility.yul\":15151:15384   */\n    tag_53:\n        /* \"#utility.yul\":15190:15193   */\n      0x00\n        /* \"#utility.yul\":15213:15237   */\n      tag_291\n        /* \"#utility.yul\":15231:15236   */\n      dup3\n        /* \"#utility.yul\":15213:15237   */\n      tag_91\n      jump\t// in\n    tag_291:\n        /* \"#utility.yul\":15204:15237   */\n      swap2\n      pop\n        /* \"#utility.yul\":15259:15325   */\n      0xffffffffffffffffffffffffffffffffffffffffffffffffffffffffffffffff\n        /* \"#utility.yul\":15252:15257   */\n      dup3\n        /* \"#utility.yul\":15249:15326   */\n      sub\n        /* \"#utility.yul\":15246:15349   */\n      tag_292\n      jumpi\n        /* \"#utility.yul\":15329:15347   */\n      tag_293\n      tag_125\n      jump\t// in\n    tag_293:\n        /* \"#utility.yul\":15246:15349   */\n    tag_292:\n        /* \"#utility.yul\":15376:15377   */\n      0x01\n        /* \"#utility.yul\":15369:15374   */\n      dup3\n        /* \"#utility.yul\":15365:15378   */\n      add\n        /* \"#utility.yul\":15358:15378   */\n      swap1\n      pop\n        /* \"#utility.yul\":15151:15384   */\n      swap2\n      swap1\n      pop\n      jump\t// out\n        /* \"#utility.yul\":15390:15499   */\n    tag_126:\n        /* \"#utility.yul\":15471:15492   */\n      tag_295\n        /* \"#utility.yul\":15486:15491   */\n      dup2\n        /* \"#utility.yul\":15471:15492   */\n      tag_85\n      jump\t// in\n    tag_295:\n        /* \"#utility.yul\":15466:15469   */\n      dup3\n        /* \"#utility.yul\":15459:15493   */\n      mstore\n        /* \"#utility.yul\":15390:15499   */\n      pop\n      pop\n      jump\t// out\n        /* \"#utility.yul\":15505:15825   */\n    tag_72:\n        /* \"#utility.yul\":15620:15624   */\n      0x00\n        /* \"#utility.yul\":15658:15660   */\n      0x40\n        /* \"#utility.yul\":15647:15656   */\n      dup3\n        /* \"#utility.yul\":15643:15661   */\n      add\n        /* \"#utility.yul\":15635:15661   */\n      swap1\n      pop\n        /* \"#utility.yul\":15671:15742   */\n      tag_297\n        /* \"#utility.yul\":15739:15740   */\n      0x00\n        /* \"#utility.yul\":15728:15737   */\n      dup4\n        /* \"#utility.yul\":15724:15741   */\n      add\n        /* \"#utility.yul\":15715:15721   */\n      dup6\n        /* \"#utility.yul\":15671:15742   */\n      tag_124\n      jump\t// in\n    tag_297:\n        /* \"#utility.yul\":15752:15818   */\n      tag_298\n        /* \"#utility.yul\":15814:15816   */\n      0x20\n        /* \"#utility.yul\":15803:15812   */\n      dup4\n        /* \"#utility.yul\":15799:15817   */\n      add\n        /* \"#utility.yul\":15790:15796   */\n      dup5\n        /* \"#utility.yul\":15752:15818   */\n      tag_126\n      jump\t// in\n    tag_298:\n        /* \"#utility.yul\":15505:15825   */\n      swap4\n      swap3\n      pop\n      pop\n      pop\n      jump\t// out\n\n    auxdata: 0xa26469706673582212204975251b4bd63c2289d97961a0ed6146510c0ca777555a4885339627ec678db664736f6c63430008180033\n}\n",
				"bytecode": {
					"linkReferences": {},
					"object": "608060405234801561000f575f80fd5b50610ecf8061001d5f395ff3fe608060405234801561000f575f80fd5b506004361061003f575f3560e01c806320df4581146100435780636e13f8181461005f578063aaba29071461007d575b5f80fd5b61005d600480360381019061005891906107d7565b610099565b005b610067610213565b6040516100749190610a2c565b60405180910390f35b61009760048036038101906100929190610a76565b61053e565b005b5f808054905090505f60405180608001604052808381526020013373ffffffffffffffffffffffffffffffffffffffff168152602001858152602001841515815250908060018154018082558091505060019003905f5260205f2090600402015f909190919091505f820151815f01556020820151816001015f6101000a81548173ffffffffffffffffffffffffffffffffffffffff021916908373ffffffffffffffffffffffffffffffffffffffff16021790555060408201518160020190816101649190610cae565b506060820151816003015f6101000a81548160ff02191690831515021790555050503360015f8381526020019081526020015f205f6101000a81548173ffffffffffffffffffffffffffffffffffffffff021916908373ffffffffffffffffffffffffffffffffffffffff1602179055507f1f54e1ba1832d428fbd7e7792beaf62b1fc5a382c207ffd614209c1413e94fda3382604051610206929190610d9b565b60405180910390a1505050565b60605f808054905067ffffffffffffffff8111156102345761023361067e565b5b60405190808252806020026020018201604052801561026d57816020015b61025a610618565b8152602001906001900390816102525790505b5090505f805b5f8054905081101561048c573373ffffffffffffffffffffffffffffffffffffffff1660015f8381526020019081526020015f205f9054906101000a900473ffffffffffffffffffffffffffffffffffffffff1673ffffffffffffffffffffffffffffffffffffffff1614801561031b57505f15155f82815481106102fb576102fa610dc2565b5b905f5260205f2090600402016003015f9054906101000a900460ff161515145b1561047f575f818154811061033357610332610dc2565b5b905f5260205f2090600402016040518060800160405290815f8201548152602001600182015f9054906101000a900473ffffffffffffffffffffffffffffffffffffffff1673ffffffffffffffffffffffffffffffffffffffff1673ffffffffffffffffffffffffffffffffffffffff1681526020016002820180546103b890610ae1565b80601f01602080910402602001604051908101604052809291908181526020018280546103e490610ae1565b801561042f5780601f106104065761010080835404028352916020019161042f565b820191905f5260205f20905b81548152906001019060200180831161041257829003601f168201915b50505050508152602001600382015f9054906101000a900460ff16151515158152505083838151811061046557610464610dc2565b5b6020026020010181905250818061047b90610e1c565b9250505b8080600101915050610273565b505f8167ffffffffffffffff8111156104a8576104a761067e565b5b6040519080825280602002602001820160405280156104e157816020015b6104ce610618565b8152602001906001900390816104c65790505b5090505f5b828110156105345783818151811061050157610500610dc2565b5b602002602001015182828151811061051c5761051b610dc2565b5b602002602001018190525080806001019150506104e6565b5080935050505090565b3373ffffffffffffffffffffffffffffffffffffffff1660015f8481526020019081526020015f205f9054906101000a900473ffffffffffffffffffffffffffffffffffffffff1673ffffffffffffffffffffffffffffffffffffffff160361061457805f83815481106105b5576105b4610dc2565b5b905f5260205f2090600402016003015f6101000a81548160ff0219169083151502179055507ff88a35c3d2016c409a46570b994a17b408dbc83c14a03f521512d50b85386d06828260405161060b929190610e72565b60405180910390a15b5050565b60405180608001604052805f81526020015f73ffffffffffffffffffffffffffffffffffffffff168152602001606081526020015f151581525090565b5f604051905090565b5f80fd5b5f80fd5b5f80fd5b5f80fd5b5f601f19601f8301169050919050565b7f4e487b71000000000000000000000000000000000000000000000000000000005f52604160045260245ffd5b6106b48261066e565b810181811067ffffffffffffffff821117156106d3576106d261067e565b5b80604052505050565b5f6106e5610655565b90506106f182826106ab565b919050565b5f67ffffffffffffffff8211156107105761070f61067e565b5b6107198261066e565b9050602081019050919050565b828183375f83830152505050565b5f610746610741846106f6565b6106dc565b9050828152602081018484840111156107625761076161066a565b5b61076d848285610726565b509392505050565b5f82601f83011261078957610788610666565b5b8135610799848260208601610734565b91505092915050565b5f8115159050919050565b6107b6816107a2565b81146107c0575f80fd5b50565b5f813590506107d1816107ad565b92915050565b5f80604083850312156107ed576107ec61065e565b5b5f83013567ffffffffffffffff81111561080a57610809610662565b5b61081685828601610775565b9250506020610827858286016107c3565b9150509250929050565b5f81519050919050565b5f82825260208201905092915050565b5f819050602082019050919050565b5f819050919050565b61086c8161085a565b82525050565b5f73ffffffffffffffffffffffffffffffffffffffff82169050919050565b5f61089b82610872565b9050919050565b6108ab81610891565b82525050565b5f81519050919050565b5f82825260208201905092915050565b5f5b838110156108e85780820151818401526020810190506108cd565b5f8484015250505050565b5f6108fd826108b1565b61090781856108bb565b93506109178185602086016108cb565b6109208161066e565b840191505092915050565b610934816107a2565b82525050565b5f608083015f83015161094f5f860182610863565b50602083015161096260208601826108a2565b506040830151848203604086015261097a82826108f3565b915050606083015161098f606086018261092b565b508091505092915050565b5f6109a5838361093a565b905092915050565b5f602082019050919050565b5f6109c382610831565b6109cd818561083b565b9350836020820285016109df8561084b565b805f5b85811015610a1a57848403895281516109fb858261099a565b9450610a06836109ad565b925060208a019950506001810190506109e2565b50829750879550505050505092915050565b5f6020820190508181035f830152610a4481846109b9565b905092915050565b610a558161085a565b8114610a5f575f80fd5b50565b5f81359050610a7081610a4c565b92915050565b5f8060408385031215610a8c57610a8b61065e565b5b5f610a9985828601610a62565b9250506020610aaa858286016107c3565b9150509250929050565b7f4e487b71000000000000000000000000000000000000000000000000000000005f52602260045260245ffd5b5f6002820490506001821680610af857607f821691505b602082108103610b0b57610b0a610ab4565b5b50919050565b5f819050815f5260205f209050919050565b5f6020601f8301049050919050565b5f82821b905092915050565b5f60088302610b6d7fffffffffffffffffffffffffffffffffffffffffffffffffffffffffffffffff82610b32565b610b778683610b32565b95508019841693508086168417925050509392505050565b5f819050919050565b5f610bb2610bad610ba88461085a565b610b8f565b61085a565b9050919050565b5f819050919050565b610bcb83610b98565b610bdf610bd782610bb9565b848454610b3e565b825550505050565b5f90565b610bf3610be7565b610bfe818484610bc2565b505050565b5b81811015610c2157610c165f82610beb565b600181019050610c04565b5050565b601f821115610c6657610c3781610b11565b610c4084610b23565b81016020851015610c4f578190505b610c63610c5b85610b23565b830182610c03565b50505b505050565b5f82821c905092915050565b5f610c865f1984600802610c6b565b1980831691505092915050565b5f610c9e8383610c77565b9150826002028217905092915050565b610cb7826108b1565b67ffffffffffffffff811115610cd057610ccf61067e565b5b610cda8254610ae1565b610ce5828285610c25565b5f60209050601f831160018114610d16575f8415610d04578287015190505b610d0e8582610c93565b865550610d75565b601f198416610d2486610b11565b5f5b82811015610d4b57848901518255600182019150602085019450602081019050610d26565b86831015610d685784890151610d64601f891682610c77565b8355505b6001600288020188555050505b505050505050565b610d8681610891565b82525050565b610d958161085a565b82525050565b5f604082019050610dae5f830185610d7d565b610dbb6020830184610d8c565b9392505050565b7f4e487b71000000000000000000000000000000000000000000000000000000005f52603260045260245ffd5b7f4e487b71000000000000000000000000000000000000000000000000000000005f52601160045260245ffd5b5f610e268261085a565b91507fffffffffffffffffffffffffffffffffffffffffffffffffffffffffffffffff8203610e5857610e57610def565b5b600182019050919050565b610e6c816107a2565b82525050565b5f604082019050610e855f830185610d8c565b610e926020830184610e63565b939250505056fea26469706673582212204975251b4bd63c2289d97961a0ed6146510c0ca777555a4885339627ec678db664736f6c63430008180033",
					"opcodes": "PUSH1 0x80 PUSH1 0x40 MSTORE CALLVALUE DUP1 ISZERO PUSH2 0xF JUMPI PUSH0 DUP1 REVERT JUMPDEST POP PUSH2 0xECF DUP1 PUSH2 0x1D PUSH0 CODECOPY PUSH0 RETURN INVALID PUSH1 0x80 PUSH1 0x40 MSTORE CALLVALUE DUP1 ISZERO PUSH2 0xF JUMPI PUSH0 DUP1 REVERT JUMPDEST POP PUSH1 0x4 CALLDATASIZE LT PUSH2 0x3F JUMPI PUSH0 CALLDATALOAD PUSH1 0xE0 SHR DUP1 PUSH4 0x20DF4581 EQ PUSH2 0x43 JUMPI DUP1 PUSH4 0x6E13F818 EQ PUSH2 0x5F JUMPI DUP1 PUSH4 0xAABA2907 EQ PUSH2 0x7D JUMPI JUMPDEST PUSH0 DUP1 REVERT JUMPDEST PUSH2 0x5D PUSH1 0x4 DUP1 CALLDATASIZE SUB DUP2 ADD SWAP1 PUSH2 0x58 SWAP2 SWAP1 PUSH2 0x7D7 JUMP JUMPDEST PUSH2 0x99 JUMP JUMPDEST STOP JUMPDEST PUSH2 0x67 PUSH2 0x213 JUMP JUMPDEST PUSH1 0x40 MLOAD PUSH2 0x74 SWAP2 SWAP1 PUSH2 0xA2C JUMP JUMPDEST PUSH1 0x40 MLOAD DUP1 SWAP2 SUB SWAP1 RETURN JUMPDEST PUSH2 0x97 PUSH1 0x4 DUP1 CALLDATASIZE SUB DUP2 ADD SWAP1 PUSH2 0x92 SWAP2 SWAP1 PUSH2 0xA76 JUMP JUMPDEST PUSH2 0x53E JUMP JUMPDEST STOP JUMPDEST PUSH0 DUP1 DUP1 SLOAD SWAP1 POP SWAP1 POP PUSH0 PUSH1 0x40 MLOAD DUP1 PUSH1 0x80 ADD PUSH1 0x40 MSTORE DUP1 DUP4 DUP2 MSTORE PUSH1 0x20 ADD CALLER PUSH20 0xFFFFFFFFFFFFFFFFFFFFFFFFFFFFFFFFFFFFFFFF AND DUP2 MSTORE PUSH1 0x20 ADD DUP6 DUP2 MSTORE PUSH1 0x20 ADD DUP5 ISZERO ISZERO DUP2 MSTORE POP SWAP1 DUP1 PUSH1 0x1 DUP2 SLOAD ADD DUP1 DUP3 SSTORE DUP1 SWAP2 POP POP PUSH1 0x1 SWAP1 SUB SWAP1 PUSH0 MSTORE PUSH1 0x20 PUSH0 KECCAK256 SWAP1 PUSH1 0x4 MUL ADD PUSH0 SWAP1 SWAP2 SWAP1 SWAP2 SWAP1 SWAP2 POP PUSH0 DUP3 ADD MLOAD DUP2 PUSH0 ADD SSTORE PUSH1 0x20 DUP3 ADD MLOAD DUP2 PUSH1 0x1 ADD PUSH0 PUSH2 0x100 EXP DUP2 SLOAD DUP2 PUSH20 0xFFFFFFFFFFFFFFFFFFFFFFFFFFFFFFFFFFFFFFFF MUL NOT AND SWAP1 DUP4 PUSH20 0xFFFFFFFFFFFFFFFFFFFFFFFFFFFFFFFFFFFFFFFF AND MUL OR SWAP1 SSTORE POP PUSH1 0x40 DUP3 ADD MLOAD DUP2 PUSH1 0x2 ADD SWAP1 DUP2 PUSH2 0x164 SWAP2 SWAP1 PUSH2 0xCAE JUMP JUMPDEST POP PUSH1 0x60 DUP3 ADD MLOAD DUP2 PUSH1 0x3 ADD PUSH0 PUSH2 0x100 EXP DUP2 SLOAD DUP2 PUSH1 0xFF MUL NOT AND SWAP1 DUP4 ISZERO ISZERO MUL OR SWAP1 SSTORE POP POP POP CALLER PUSH1 0x1 PUSH0 DUP4 DUP2 MSTORE PUSH1 0x20 ADD SWAP1 DUP2 MSTORE PUSH1 0x20 ADD PUSH0 KECCAK256 PUSH0 PUSH2 0x100 EXP DUP2 SLOAD DUP2 PUSH20 0xFFFFFFFFFFFFFFFFFFFFFFFFFFFFFFFFFFFFFFFF MUL NOT AND SWAP1 DUP4 PUSH20 0xFFFFFFFFFFFFFFFFFFFFFFFFFFFFFFFFFFFFFFFF AND MUL OR SWAP1 SSTORE POP PUSH32 0x1F54E1BA1832D428FBD7E7792BEAF62B1FC5A382C207FFD614209C1413E94FDA CALLER DUP3 PUSH1 0x40 MLOAD PUSH2 0x206 SWAP3 SWAP2 SWAP1 PUSH2 0xD9B JUMP JUMPDEST PUSH1 0x40 MLOAD DUP1 SWAP2 SUB SWAP1 LOG1 POP POP POP JUMP JUMPDEST PUSH1 0x60 PUSH0 DUP1 DUP1 SLOAD SWAP1 POP PUSH8 0xFFFFFFFFFFFFFFFF DUP2 GT ISZERO PUSH2 0x234 JUMPI PUSH2 0x233 PUSH2 0x67E JUMP JUMPDEST JUMPDEST PUSH1 0x40 MLOAD SWAP1 DUP1 DUP3 MSTORE DUP1 PUSH1 0x20 MUL PUSH1 0x20 ADD DUP3 ADD PUSH1 0x40 MSTORE DUP1 ISZERO PUSH2 0x26D JUMPI DUP2 PUSH1 0x20 ADD JUMPDEST PUSH2 0x25A PUSH2 0x618 JUMP JUMPDEST DUP2 MSTORE PUSH1 0x20 ADD SWAP1 PUSH1 0x1 SWAP1 SUB SWAP1 DUP2 PUSH2 0x252 JUMPI SWAP1 POP JUMPDEST POP SWAP1 POP PUSH0 DUP1 JUMPDEST PUSH0 DUP1 SLOAD SWAP1 POP DUP2 LT ISZERO PUSH2 0x48C JUMPI CALLER PUSH20 0xFFFFFFFFFFFFFFFFFFFFFFFFFFFFFFFFFFFFFFFF AND PUSH1 0x1 PUSH0 DUP4 DUP2 MSTORE PUSH1 0x20 ADD SWAP1 DUP2 MSTORE PUSH1 0x20 ADD PUSH0 KECCAK256 PUSH0 SWAP1 SLOAD SWAP1 PUSH2 0x100 EXP SWAP1 DIV PUSH20 0xFFFFFFFFFFFFFFFFFFFFFFFFFFFFFFFFFFFFFFFF AND PUSH20 0xFFFFFFFFFFFFFFFFFFFFFFFFFFFFFFFFFFFFFFFF AND EQ DUP1 ISZERO PUSH2 0x31B JUMPI POP PUSH0 ISZERO ISZERO PUSH0 DUP3 DUP2 SLOAD DUP2 LT PUSH2 0x2FB JUMPI PUSH2 0x2FA PUSH2 0xDC2 JUMP JUMPDEST JUMPDEST SWAP1 PUSH0 MSTORE PUSH1 0x20 PUSH0 KECCAK256 SWAP1 PUSH1 0x4 MUL ADD PUSH1 0x3 ADD PUSH0 SWAP1 SLOAD SWAP1 PUSH2 0x100 EXP SWAP1 DIV PUSH1 0xFF AND ISZERO ISZERO EQ JUMPDEST ISZERO PUSH2 0x47F JUMPI PUSH0 DUP2 DUP2 SLOAD DUP2 LT PUSH2 0x333 JUMPI PUSH2 0x332 PUSH2 0xDC2 JUMP JUMPDEST JUMPDEST SWAP1 PUSH0 MSTORE PUSH1 0x20 PUSH0 KECCAK256 SWAP1 PUSH1 0x4 MUL ADD PUSH1 0x40 MLOAD DUP1 PUSH1 0x80 ADD PUSH1 0x40 MSTORE SWAP1 DUP2 PUSH0 DUP3 ADD SLOAD DUP2 MSTORE PUSH1 0x20 ADD PUSH1 0x1 DUP3 ADD PUSH0 SWAP1 SLOAD SWAP1 PUSH2 0x100 EXP SWAP1 DIV PUSH20 0xFFFFFFFFFFFFFFFFFFFFFFFFFFFFFFFFFFFFFFFF AND PUSH20 0xFFFFFFFFFFFFFFFFFFFFFFFFFFFFFFFFFFFFFFFF AND PUSH20 0xFFFFFFFFFFFFFFFFFFFFFFFFFFFFFFFFFFFFFFFF AND DUP2 MSTORE PUSH1 0x20 ADD PUSH1 0x2 DUP3 ADD DUP1 SLOAD PUSH2 0x3B8 SWAP1 PUSH2 0xAE1 JUMP JUMPDEST DUP1 PUSH1 0x1F ADD PUSH1 0x20 DUP1 SWAP2 DIV MUL PUSH1 0x20 ADD PUSH1 0x40 MLOAD SWAP1 DUP2 ADD PUSH1 0x40 MSTORE DUP1 SWAP3 SWAP2 SWAP1 DUP2 DUP2 MSTORE PUSH1 0x20 ADD DUP3 DUP1 SLOAD PUSH2 0x3E4 SWAP1 PUSH2 0xAE1 JUMP JUMPDEST DUP1 ISZERO PUSH2 0x42F JUMPI DUP1 PUSH1 0x1F LT PUSH2 0x406 JUMPI PUSH2 0x100 DUP1 DUP4 SLOAD DIV MUL DUP4 MSTORE SWAP2 PUSH1 0x20 ADD SWAP2 PUSH2 0x42F JUMP JUMPDEST DUP3 ADD SWAP2 SWAP1 PUSH0 MSTORE PUSH1 0x20 PUSH0 KECCAK256 SWAP1 JUMPDEST DUP2 SLOAD DUP2 MSTORE SWAP1 PUSH1 0x1 ADD SWAP1 PUSH1 0x20 ADD DUP1 DUP4 GT PUSH2 0x412 JUMPI DUP3 SWAP1 SUB PUSH1 0x1F AND DUP3 ADD SWAP2 JUMPDEST POP POP POP POP POP DUP2 MSTORE PUSH1 0x20 ADD PUSH1 0x3 DUP3 ADD PUSH0 SWAP1 SLOAD SWAP1 PUSH2 0x100 EXP SWAP1 DIV PUSH1 0xFF AND ISZERO ISZERO ISZERO ISZERO DUP2 MSTORE POP POP DUP4 DUP4 DUP2 MLOAD DUP2 LT PUSH2 0x465 JUMPI PUSH2 0x464 PUSH2 0xDC2 JUMP JUMPDEST JUMPDEST PUSH1 0x20 MUL PUSH1 0x20 ADD ADD DUP2 SWAP1 MSTORE POP DUP2 DUP1 PUSH2 0x47B SWAP1 PUSH2 0xE1C JUMP JUMPDEST SWAP3 POP POP JUMPDEST DUP1 DUP1 PUSH1 0x1 ADD SWAP2 POP POP PUSH2 0x273 JUMP JUMPDEST POP PUSH0 DUP2 PUSH8 0xFFFFFFFFFFFFFFFF DUP2 GT ISZERO PUSH2 0x4A8 JUMPI PUSH2 0x4A7 PUSH2 0x67E JUMP JUMPDEST JUMPDEST PUSH1 0x40 MLOAD SWAP1 DUP1 DUP3 MSTORE DUP1 PUSH1 0x20 MUL PUSH1 0x20 ADD DUP3 ADD PUSH1 0x40 MSTORE DUP1 ISZERO PUSH2 0x4E1 JUMPI DUP2 PUSH1 0x20 ADD JUMPDEST PUSH2 0x4CE PUSH2 0x618 JUMP JUMPDEST DUP2 MSTORE PUSH1 0x20 ADD SWAP1 PUSH1 0x1 SWAP1 SUB SWAP1 DUP2 PUSH2 0x4C6 JUMPI SWAP1 POP JUMPDEST POP SWAP1 POP PUSH0 JUMPDEST DUP3 DUP2 LT ISZERO PUSH2 0x534 JUMPI DUP4 DUP2 DUP2 MLOAD DUP2 LT PUSH2 0x501 JUMPI PUSH2 0x500 PUSH2 0xDC2 JUMP JUMPDEST JUMPDEST PUSH1 0x20 MUL PUSH1 0x20 ADD ADD MLOAD DUP3 DUP3 DUP2 MLOAD DUP2 LT PUSH2 0x51C JUMPI PUSH2 0x51B PUSH2 0xDC2 JUMP JUMPDEST JUMPDEST PUSH1 0x20 MUL PUSH1 0x20 ADD ADD DUP2 SWAP1 MSTORE POP DUP1 DUP1 PUSH1 0x1 ADD SWAP2 POP POP PUSH2 0x4E6 JUMP JUMPDEST POP DUP1 SWAP4 POP POP POP POP SWAP1 JUMP JUMPDEST CALLER PUSH20 0xFFFFFFFFFFFFFFFFFFFFFFFFFFFFFFFFFFFFFFFF AND PUSH1 0x1 PUSH0 DUP5 DUP2 MSTORE PUSH1 0x20 ADD SWAP1 DUP2 MSTORE PUSH1 0x20 ADD PUSH0 KECCAK256 PUSH0 SWAP1 SLOAD SWAP1 PUSH2 0x100 EXP SWAP1 DIV PUSH20 0xFFFFFFFFFFFFFFFFFFFFFFFFFFFFFFFFFFFFFFFF AND PUSH20 0xFFFFFFFFFFFFFFFFFFFFFFFFFFFFFFFFFFFFFFFF AND SUB PUSH2 0x614 JUMPI DUP1 PUSH0 DUP4 DUP2 SLOAD DUP2 LT PUSH2 0x5B5 JUMPI PUSH2 0x5B4 PUSH2 0xDC2 JUMP JUMPDEST JUMPDEST SWAP1 PUSH0 MSTORE PUSH1 0x20 PUSH0 KECCAK256 SWAP1 PUSH1 0x4 MUL ADD PUSH1 0x3 ADD PUSH0 PUSH2 0x100 EXP DUP2 SLOAD DUP2 PUSH1 0xFF MUL NOT AND SWAP1 DUP4 ISZERO ISZERO MUL OR SWAP1 SSTORE POP PUSH32 0xF88A35C3D2016C409A46570B994A17B408DBC83C14A03F521512D50B85386D06 DUP3 DUP3 PUSH1 0x40 MLOAD PUSH2 0x60B SWAP3 SWAP2 SWAP1 PUSH2 0xE72 JUMP JUMPDEST PUSH1 0x40 MLOAD DUP1 SWAP2 SUB SWAP1 LOG1 JUMPDEST POP POP JUMP JUMPDEST PUSH1 0x40 MLOAD DUP1 PUSH1 0x80 ADD PUSH1 0x40 MSTORE DUP1 PUSH0 DUP2 MSTORE PUSH1 0x20 ADD PUSH0 PUSH20 0xFFFFFFFFFFFFFFFFFFFFFFFFFFFFFFFFFFFFFFFF AND DUP2 MSTORE PUSH1 0x20 ADD PUSH1 0x60 DUP2 MSTORE PUSH1 0x20 ADD PUSH0 ISZERO ISZERO DUP2 MSTORE POP SWAP1 JUMP JUMPDEST PUSH0 PUSH1 0x40 MLOAD SWAP1 POP SWAP1 JUMP JUMPDEST PUSH0 DUP1 REVERT JUMPDEST PUSH0 DUP1 REVERT JUMPDEST PUSH0 DUP1 REVERT JUMPDEST PUSH0 DUP1 REVERT JUMPDEST PUSH0 PUSH1 0x1F NOT PUSH1 0x1F DUP4 ADD AND SWAP1 POP SWAP2 SWAP1 POP JUMP JUMPDEST PUSH32 0x4E487B7100000000000000000000000000000000000000000000000000000000 PUSH0 MSTORE PUSH1 0x41 PUSH1 0x4 MSTORE PUSH1 0x24 PUSH0 REVERT JUMPDEST PUSH2 0x6B4 DUP3 PUSH2 0x66E JUMP JUMPDEST DUP2 ADD DUP2 DUP2 LT PUSH8 0xFFFFFFFFFFFFFFFF DUP3 GT OR ISZERO PUSH2 0x6D3 JUMPI PUSH2 0x6D2 PUSH2 0x67E JUMP JUMPDEST JUMPDEST DUP1 PUSH1 0x40 MSTORE POP POP POP JUMP JUMPDEST PUSH0 PUSH2 0x6E5 PUSH2 0x655 JUMP JUMPDEST SWAP1 POP PUSH2 0x6F1 DUP3 DUP3 PUSH2 0x6AB JUMP JUMPDEST SWAP2 SWAP1 POP JUMP JUMPDEST PUSH0 PUSH8 0xFFFFFFFFFFFFFFFF DUP3 GT ISZERO PUSH2 0x710 JUMPI PUSH2 0x70F PUSH2 0x67E JUMP JUMPDEST JUMPDEST PUSH2 0x719 DUP3 PUSH2 0x66E JUMP JUMPDEST SWAP1 POP PUSH1 0x20 DUP2 ADD SWAP1 POP SWAP2 SWAP1 POP JUMP JUMPDEST DUP3 DUP2 DUP4 CALLDATACOPY PUSH0 DUP4 DUP4 ADD MSTORE POP POP POP JUMP JUMPDEST PUSH0 PUSH2 0x746 PUSH2 0x741 DUP5 PUSH2 0x6F6 JUMP JUMPDEST PUSH2 0x6DC JUMP JUMPDEST SWAP1 POP DUP3 DUP2 MSTORE PUSH1 0x20 DUP2 ADD DUP5 DUP5 DUP5 ADD GT ISZERO PUSH2 0x762 JUMPI PUSH2 0x761 PUSH2 0x66A JUMP JUMPDEST JUMPDEST PUSH2 0x76D DUP5 DUP3 DUP6 PUSH2 0x726 JUMP JUMPDEST POP SWAP4 SWAP3 POP POP POP JUMP JUMPDEST PUSH0 DUP3 PUSH1 0x1F DUP4 ADD SLT PUSH2 0x789 JUMPI PUSH2 0x788 PUSH2 0x666 JUMP JUMPDEST JUMPDEST DUP2 CALLDATALOAD PUSH2 0x799 DUP5 DUP3 PUSH1 0x20 DUP7 ADD PUSH2 0x734 JUMP JUMPDEST SWAP2 POP POP SWAP3 SWAP2 POP POP JUMP JUMPDEST PUSH0 DUP2 ISZERO ISZERO SWAP1 POP SWAP2 SWAP1 POP JUMP JUMPDEST PUSH2 0x7B6 DUP2 PUSH2 0x7A2 JUMP JUMPDEST DUP2 EQ PUSH2 0x7C0 JUMPI PUSH0 DUP1 REVERT JUMPDEST POP JUMP JUMPDEST PUSH0 DUP2 CALLDATALOAD SWAP1 POP PUSH2 0x7D1 DUP2 PUSH2 0x7AD JUMP JUMPDEST SWAP3 SWAP2 POP POP JUMP JUMPDEST PUSH0 DUP1 PUSH1 0x40 DUP4 DUP6 SUB SLT ISZERO PUSH2 0x7ED JUMPI PUSH2 0x7EC PUSH2 0x65E JUMP JUMPDEST JUMPDEST PUSH0 DUP4 ADD CALLDATALOAD PUSH8 0xFFFFFFFFFFFFFFFF DUP2 GT ISZERO PUSH2 0x80A JUMPI PUSH2 0x809 PUSH2 0x662 JUMP JUMPDEST JUMPDEST PUSH2 0x816 DUP6 DUP3 DUP7 ADD PUSH2 0x775 JUMP JUMPDEST SWAP3 POP POP PUSH1 0x20 PUSH2 0x827 DUP6 DUP3 DUP7 ADD PUSH2 0x7C3 JUMP JUMPDEST SWAP2 POP POP SWAP3 POP SWAP3 SWAP1 POP JUMP JUMPDEST PUSH0 DUP2 MLOAD SWAP1 POP SWAP2 SWAP1 POP JUMP JUMPDEST PUSH0 DUP3 DUP3 MSTORE PUSH1 0x20 DUP3 ADD SWAP1 POP SWAP3 SWAP2 POP POP JUMP JUMPDEST PUSH0 DUP2 SWAP1 POP PUSH1 0x20 DUP3 ADD SWAP1 POP SWAP2 SWAP1 POP JUMP JUMPDEST PUSH0 DUP2 SWAP1 POP SWAP2 SWAP1 POP JUMP JUMPDEST PUSH2 0x86C DUP2 PUSH2 0x85A JUMP JUMPDEST DUP3 MSTORE POP POP JUMP JUMPDEST PUSH0 PUSH20 0xFFFFFFFFFFFFFFFFFFFFFFFFFFFFFFFFFFFFFFFF DUP3 AND SWAP1 POP SWAP2 SWAP1 POP JUMP JUMPDEST PUSH0 PUSH2 0x89B DUP3 PUSH2 0x872 JUMP JUMPDEST SWAP1 POP SWAP2 SWAP1 POP JUMP JUMPDEST PUSH2 0x8AB DUP2 PUSH2 0x891 JUMP JUMPDEST DUP3 MSTORE POP POP JUMP JUMPDEST PUSH0 DUP2 MLOAD SWAP1 POP SWAP2 SWAP1 POP JUMP JUMPDEST PUSH0 DUP3 DUP3 MSTORE PUSH1 0x20 DUP3 ADD SWAP1 POP SWAP3 SWAP2 POP POP JUMP JUMPDEST PUSH0 JUMPDEST DUP4 DUP2 LT ISZERO PUSH2 0x8E8 JUMPI DUP1 DUP3 ADD MLOAD DUP2 DUP5 ADD MSTORE PUSH1 0x20 DUP2 ADD SWAP1 POP PUSH2 0x8CD JUMP JUMPDEST PUSH0 DUP5 DUP5 ADD MSTORE POP POP POP POP JUMP JUMPDEST PUSH0 PUSH2 0x8FD DUP3 PUSH2 0x8B1 JUMP JUMPDEST PUSH2 0x907 DUP2 DUP6 PUSH2 0x8BB JUMP JUMPDEST SWAP4 POP PUSH2 0x917 DUP2 DUP6 PUSH1 0x20 DUP7 ADD PUSH2 0x8CB JUMP JUMPDEST PUSH2 0x920 DUP2 PUSH2 0x66E JUMP JUMPDEST DUP5 ADD SWAP2 POP POP SWAP3 SWAP2 POP POP JUMP JUMPDEST PUSH2 0x934 DUP2 PUSH2 0x7A2 JUMP JUMPDEST DUP3 MSTORE POP POP JUMP JUMPDEST PUSH0 PUSH1 0x80 DUP4 ADD PUSH0 DUP4 ADD MLOAD PUSH2 0x94F PUSH0 DUP7 ADD DUP3 PUSH2 0x863 JUMP JUMPDEST POP PUSH1 0x20 DUP4 ADD MLOAD PUSH2 0x962 PUSH1 0x20 DUP7 ADD DUP3 PUSH2 0x8A2 JUMP JUMPDEST POP PUSH1 0x40 DUP4 ADD MLOAD DUP5 DUP3 SUB PUSH1 0x40 DUP7 ADD MSTORE PUSH2 0x97A DUP3 DUP3 PUSH2 0x8F3 JUMP JUMPDEST SWAP2 POP POP PUSH1 0x60 DUP4 ADD MLOAD PUSH2 0x98F PUSH1 0x60 DUP7 ADD DUP3 PUSH2 0x92B JUMP JUMPDEST POP DUP1 SWAP2 POP POP SWAP3 SWAP2 POP POP JUMP JUMPDEST PUSH0 PUSH2 0x9A5 DUP4 DUP4 PUSH2 0x93A JUMP JUMPDEST SWAP1 POP SWAP3 SWAP2 POP POP JUMP JUMPDEST PUSH0 PUSH1 0x20 DUP3 ADD SWAP1 POP SWAP2 SWAP1 POP JUMP JUMPDEST PUSH0 PUSH2 0x9C3 DUP3 PUSH2 0x831 JUMP JUMPDEST PUSH2 0x9CD DUP2 DUP6 PUSH2 0x83B JUMP JUMPDEST SWAP4 POP DUP4 PUSH1 0x20 DUP3 MUL DUP6 ADD PUSH2 0x9DF DUP6 PUSH2 0x84B JUMP JUMPDEST DUP1 PUSH0 JUMPDEST DUP6 DUP2 LT ISZERO PUSH2 0xA1A JUMPI DUP5 DUP5 SUB DUP10 MSTORE DUP2 MLOAD PUSH2 0x9FB DUP6 DUP3 PUSH2 0x99A JUMP JUMPDEST SWAP5 POP PUSH2 0xA06 DUP4 PUSH2 0x9AD JUMP JUMPDEST SWAP3 POP PUSH1 0x20 DUP11 ADD SWAP10 POP POP PUSH1 0x1 DUP2 ADD SWAP1 POP PUSH2 0x9E2 JUMP JUMPDEST POP DUP3 SWAP8 POP DUP8 SWAP6 POP POP POP POP POP POP SWAP3 SWAP2 POP POP JUMP JUMPDEST PUSH0 PUSH1 0x20 DUP3 ADD SWAP1 POP DUP2 DUP2 SUB PUSH0 DUP4 ADD MSTORE PUSH2 0xA44 DUP2 DUP5 PUSH2 0x9B9 JUMP JUMPDEST SWAP1 POP SWAP3 SWAP2 POP POP JUMP JUMPDEST PUSH2 0xA55 DUP2 PUSH2 0x85A JUMP JUMPDEST DUP2 EQ PUSH2 0xA5F JUMPI PUSH0 DUP1 REVERT JUMPDEST POP JUMP JUMPDEST PUSH0 DUP2 CALLDATALOAD SWAP1 POP PUSH2 0xA70 DUP2 PUSH2 0xA4C JUMP JUMPDEST SWAP3 SWAP2 POP POP JUMP JUMPDEST PUSH0 DUP1 PUSH1 0x40 DUP4 DUP6 SUB SLT ISZERO PUSH2 0xA8C JUMPI PUSH2 0xA8B PUSH2 0x65E JUMP JUMPDEST JUMPDEST PUSH0 PUSH2 0xA99 DUP6 DUP3 DUP7 ADD PUSH2 0xA62 JUMP JUMPDEST SWAP3 POP POP PUSH1 0x20 PUSH2 0xAAA DUP6 DUP3 DUP7 ADD PUSH2 0x7C3 JUMP JUMPDEST SWAP2 POP POP SWAP3 POP SWAP3 SWAP1 POP JUMP JUMPDEST PUSH32 0x4E487B7100000000000000000000000000000000000000000000000000000000 PUSH0 MSTORE PUSH1 0x22 PUSH1 0x4 MSTORE PUSH1 0x24 PUSH0 REVERT JUMPDEST PUSH0 PUSH1 0x2 DUP3 DIV SWAP1 POP PUSH1 0x1 DUP3 AND DUP1 PUSH2 0xAF8 JUMPI PUSH1 0x7F DUP3 AND SWAP2 POP JUMPDEST PUSH1 0x20 DUP3 LT DUP2 SUB PUSH2 0xB0B JUMPI PUSH2 0xB0A PUSH2 0xAB4 JUMP JUMPDEST JUMPDEST POP SWAP2 SWAP1 POP JUMP JUMPDEST PUSH0 DUP2 SWAP1 POP DUP2 PUSH0 MSTORE PUSH1 0x20 PUSH0 KECCAK256 SWAP1 POP SWAP2 SWAP1 POP JUMP JUMPDEST PUSH0 PUSH1 0x20 PUSH1 0x1F DUP4 ADD DIV SWAP1 POP SWAP2 SWAP1 POP JUMP JUMPDEST PUSH0 DUP3 DUP3 SHL SWAP1 POP SWAP3 SWAP2 POP POP JUMP JUMPDEST PUSH0 PUSH1 0x8 DUP4 MUL PUSH2 0xB6D PUSH32 0xFFFFFFFFFFFFFFFFFFFFFFFFFFFFFFFFFFFFFFFFFFFFFFFFFFFFFFFFFFFFFFFF DUP3 PUSH2 0xB32 JUMP JUMPDEST PUSH2 0xB77 DUP7 DUP4 PUSH2 0xB32 JUMP JUMPDEST SWAP6 POP DUP1 NOT DUP5 AND SWAP4 POP DUP1 DUP7 AND DUP5 OR SWAP3 POP POP POP SWAP4 SWAP3 POP POP POP JUMP JUMPDEST PUSH0 DUP2 SWAP1 POP SWAP2 SWAP1 POP JUMP JUMPDEST PUSH0 PUSH2 0xBB2 PUSH2 0xBAD PUSH2 0xBA8 DUP5 PUSH2 0x85A JUMP JUMPDEST PUSH2 0xB8F JUMP JUMPDEST PUSH2 0x85A JUMP JUMPDEST SWAP1 POP SWAP2 SWAP1 POP JUMP JUMPDEST PUSH0 DUP2 SWAP1 POP SWAP2 SWAP1 POP JUMP JUMPDEST PUSH2 0xBCB DUP4 PUSH2 0xB98 JUMP JUMPDEST PUSH2 0xBDF PUSH2 0xBD7 DUP3 PUSH2 0xBB9 JUMP JUMPDEST DUP5 DUP5 SLOAD PUSH2 0xB3E JUMP JUMPDEST DUP3 SSTORE POP POP POP POP JUMP JUMPDEST PUSH0 SWAP1 JUMP JUMPDEST PUSH2 0xBF3 PUSH2 0xBE7 JUMP JUMPDEST PUSH2 0xBFE DUP2 DUP5 DUP5 PUSH2 0xBC2 JUMP JUMPDEST POP POP POP JUMP JUMPDEST JUMPDEST DUP2 DUP2 LT ISZERO PUSH2 0xC21 JUMPI PUSH2 0xC16 PUSH0 DUP3 PUSH2 0xBEB JUMP JUMPDEST PUSH1 0x1 DUP2 ADD SWAP1 POP PUSH2 0xC04 JUMP JUMPDEST POP POP JUMP JUMPDEST PUSH1 0x1F DUP3 GT ISZERO PUSH2 0xC66 JUMPI PUSH2 0xC37 DUP2 PUSH2 0xB11 JUMP JUMPDEST PUSH2 0xC40 DUP5 PUSH2 0xB23 JUMP JUMPDEST DUP2 ADD PUSH1 0x20 DUP6 LT ISZERO PUSH2 0xC4F JUMPI DUP2 SWAP1 POP JUMPDEST PUSH2 0xC63 PUSH2 0xC5B DUP6 PUSH2 0xB23 JUMP JUMPDEST DUP4 ADD DUP3 PUSH2 0xC03 JUMP JUMPDEST POP POP JUMPDEST POP POP POP JUMP JUMPDEST PUSH0 DUP3 DUP3 SHR SWAP1 POP SWAP3 SWAP2 POP POP JUMP JUMPDEST PUSH0 PUSH2 0xC86 PUSH0 NOT DUP5 PUSH1 0x8 MUL PUSH2 0xC6B JUMP JUMPDEST NOT DUP1 DUP4 AND SWAP2 POP POP SWAP3 SWAP2 POP POP JUMP JUMPDEST PUSH0 PUSH2 0xC9E DUP4 DUP4 PUSH2 0xC77 JUMP JUMPDEST SWAP2 POP DUP3 PUSH1 0x2 MUL DUP3 OR SWAP1 POP SWAP3 SWAP2 POP POP JUMP JUMPDEST PUSH2 0xCB7 DUP3 PUSH2 0x8B1 JUMP JUMPDEST PUSH8 0xFFFFFFFFFFFFFFFF DUP2 GT ISZERO PUSH2 0xCD0 JUMPI PUSH2 0xCCF PUSH2 0x67E JUMP JUMPDEST JUMPDEST PUSH2 0xCDA DUP3 SLOAD PUSH2 0xAE1 JUMP JUMPDEST PUSH2 0xCE5 DUP3 DUP3 DUP6 PUSH2 0xC25 JUMP JUMPDEST PUSH0 PUSH1 0x20 SWAP1 POP PUSH1 0x1F DUP4 GT PUSH1 0x1 DUP2 EQ PUSH2 0xD16 JUMPI PUSH0 DUP5 ISZERO PUSH2 0xD04 JUMPI DUP3 DUP8 ADD MLOAD SWAP1 POP JUMPDEST PUSH2 0xD0E DUP6 DUP3 PUSH2 0xC93 JUMP JUMPDEST DUP7 SSTORE POP PUSH2 0xD75 JUMP JUMPDEST PUSH1 0x1F NOT DUP5 AND PUSH2 0xD24 DUP7 PUSH2 0xB11 JUMP JUMPDEST PUSH0 JUMPDEST DUP3 DUP2 LT ISZERO PUSH2 0xD4B JUMPI DUP5 DUP10 ADD MLOAD DUP3 SSTORE PUSH1 0x1 DUP3 ADD SWAP2 POP PUSH1 0x20 DUP6 ADD SWAP5 POP PUSH1 0x20 DUP2 ADD SWAP1 POP PUSH2 0xD26 JUMP JUMPDEST DUP7 DUP4 LT ISZERO PUSH2 0xD68 JUMPI DUP5 DUP10 ADD MLOAD PUSH2 0xD64 PUSH1 0x1F DUP10 AND DUP3 PUSH2 0xC77 JUMP JUMPDEST DUP4 SSTORE POP JUMPDEST PUSH1 0x1 PUSH1 0x2 DUP9 MUL ADD DUP9 SSTORE POP POP POP JUMPDEST POP POP POP POP POP POP JUMP JUMPDEST PUSH2 0xD86 DUP2 PUSH2 0x891 JUMP JUMPDEST DUP3 MSTORE POP POP JUMP JUMPDEST PUSH2 0xD95 DUP2 PUSH2 0x85A JUMP JUMPDEST DUP3 MSTORE POP POP JUMP JUMPDEST PUSH0 PUSH1 0x40 DUP3 ADD SWAP1 POP PUSH2 0xDAE PUSH0 DUP4 ADD DUP6 PUSH2 0xD7D JUMP JUMPDEST PUSH2 0xDBB PUSH1 0x20 DUP4 ADD DUP5 PUSH2 0xD8C JUMP JUMPDEST SWAP4 SWAP3 POP POP POP JUMP JUMPDEST PUSH32 0x4E487B7100000000000000000000000000000000000000000000000000000000 PUSH0 MSTORE PUSH1 0x32 PUSH1 0x4 MSTORE PUSH1 0x24 PUSH0 REVERT JUMPDEST PUSH32 0x4E487B7100000000000000000000000000000000000000000000000000000000 PUSH0 MSTORE PUSH1 0x11 PUSH1 0x4 MSTORE PUSH1 0x24 PUSH0 REVERT JUMPDEST PUSH0 PUSH2 0xE26 DUP3 PUSH2 0x85A JUMP JUMPDEST SWAP2 POP PUSH32 0xFFFFFFFFFFFFFFFFFFFFFFFFFFFFFFFFFFFFFFFFFFFFFFFFFFFFFFFFFFFFFFFF DUP3 SUB PUSH2 0xE58 JUMPI PUSH2 0xE57 PUSH2 0xDEF JUMP JUMPDEST JUMPDEST PUSH1 0x1 DUP3 ADD SWAP1 POP SWAP2 SWAP1 POP JUMP JUMPDEST PUSH2 0xE6C DUP2 PUSH2 0x7A2 JUMP JUMPDEST DUP3 MSTORE POP POP JUMP JUMPDEST PUSH0 PUSH1 0x40 DUP3 ADD SWAP1 POP PUSH2 0xE85 PUSH0 DUP4 ADD DUP6 PUSH2 0xD8C JUMP JUMPDEST PUSH2 0xE92 PUSH1 0x20 DUP4 ADD DUP5 PUSH2 0xE63 JUMP JUMPDEST SWAP4 SWAP3 POP POP POP JUMP INVALID LOG2 PUSH5 0x6970667358 0x22 SLT KECCAK256 BLOBHASH PUSH22 0x251B4BD63C2289D97961A0ED6146510C0CA777555A48 DUP6 CALLER SWAP7 0x27 0xEC PUSH8 0x8DB664736F6C6343 STOP ADDMOD XOR STOP CALLER "
				},
				"gasEstimates": {
					"creation": {
						"codeDepositCost": "758200",
						"executionCost": "790",
						"totalCost": "758990"
					},
					"external": {
						"addTask(string,bool)": "infinite",
						"deleteTask(uint256,bool)": "infinite",
						"getMyTasks()": "infinite"
					}
				},
				"methodIdentifiers": {
					"addTask(string,bool)": "20df4581",
					"deleteTask(uint256,bool)": "aaba2907",
					"getMyTasks()": "6e13f818"
				}
			},
			"storageLayout": {
				"storage": [
					{
						"astId": 26,
						"contract": "contracts/TaskContract.sol:TaskContract",
						"label": "tasks",
						"offset": 0,
						"slot": "0",
						"type": "t_array(t_struct(Task)22_storage)dyn_storage"
					},
					{
						"astId": 30,
						"contract": "contracts/TaskContract.sol:TaskContract",
						"label": "taskToOwner",
						"offset": 0,
						"slot": "1",
						"type": "t_mapping(t_uint256,t_address)"
					}
				],
				"types": {
					"t_address": {
						"encoding": "inplace",
						"label": "address",
						"numberOfBytes": "20"
					},
					"t_array(t_struct(Task)22_storage)dyn_storage": {
						"base": "t_struct(Task)22_storage",
						"encoding": "dynamic_array",
						"label": "struct TaskContract.Task[]",
						"numberOfBytes": "32"
					},
					"t_bool": {
						"encoding": "inplace",
						"label": "bool",
						"numberOfBytes": "1"
					},
					"t_mapping(t_uint256,t_address)": {
						"encoding": "mapping",
						"key": "t_uint256",
						"label": "mapping(uint256 => address)",
						"numberOfBytes": "32",
						"value": "t_address"
					},
					"t_string_storage": {
						"encoding": "bytes",
						"label": "string",
						"numberOfBytes": "32"
					},
					"t_struct(Task)22_storage": {
						"encoding": "inplace",
						"label": "struct TaskContract.Task",
						"members": [
							{
								"astId": 15,
								"contract": "contracts/TaskContract.sol:TaskContract",
								"label": "id",
								"offset": 0,
								"slot": "0",
								"type": "t_uint256"
							},
							{
								"astId": 17,
								"contract": "contracts/TaskContract.sol:TaskContract",
								"label": "username",
								"offset": 0,
								"slot": "1",
								"type": "t_address"
							},
							{
								"astId": 19,
								"contract": "contracts/TaskContract.sol:TaskContract",
								"label": "taskText",
								"offset": 0,
								"slot": "2",
								"type": "t_string_storage"
							},
							{
								"astId": 21,
								"contract": "contracts/TaskContract.sol:TaskContract",
								"label": "isDeleted",
								"offset": 0,
								"slot": "3",
								"type": "t_bool"
							}
						],
						"numberOfBytes": "128"
					},
					"t_uint256": {
						"encoding": "inplace",
						"label": "uint256",
						"numberOfBytes": "32"
					}
				}
			},
			"userdoc": {
				"kind": "user",
				"methods": {},
				"version": 1
			}
		}
	}
}