{
	"contracts/Marketplace.sol": {
		"Marketplace": {
			"abi": [
				{
					"anonymous": false,
					"inputs": [
						{
							"indexed": false,
							"internalType": "uint256",
							"name": "id",
							"type": "uint256"
						},
						{
							"indexed": false,
							"internalType": "address",
							"name": "seller",
							"type": "address"
						},
						{
							"indexed": false,
							"internalType": "string",
							"name": "name",
							"type": "string"
						},
						{
							"indexed": false,
							"internalType": "uint256",
							"name": "price",
							"type": "uint256"
						}
					],
					"name": "ItemListed",
					"type": "event"
				},
				{
					"anonymous": false,
					"inputs": [
						{
							"indexed": false,
							"internalType": "uint256",
							"name": "id",
							"type": "uint256"
						},
						{
							"indexed": false,
							"internalType": "address",
							"name": "buyer",
							"type": "address"
						},
						{
							"indexed": false,
							"internalType": "address",
							"name": "seller",
							"type": "address"
						},
						{
							"indexed": false,
							"internalType": "uint256",
							"name": "price",
							"type": "uint256"
						}
					],
					"name": "ItemPurchased",
					"type": "event"
				},
				{
					"inputs": [],
					"name": "itemCount",
					"outputs": [
						{
							"internalType": "uint256",
							"name": "",
							"type": "uint256"
						}
					],
					"stateMutability": "view",
					"type": "function"
				},
				{
					"inputs": [
						{
							"internalType": "uint256",
							"name": "",
							"type": "uint256"
						}
					],
					"name": "items",
					"outputs": [
						{
							"internalType": "uint256",
							"name": "id",
							"type": "uint256"
						},
						{
							"internalType": "address payable",
							"name": "seller",
							"type": "address"
						},
						{
							"internalType": "string",
							"name": "name",
							"type": "string"
						},
						{
							"internalType": "uint256",
							"name": "price",
							"type": "uint256"
						},
						{
							"internalType": "bool",
							"name": "sold",
							"type": "bool"
						}
					],
					"stateMutability": "view",
					"type": "function"
				},
				{
					"inputs": [
						{
							"internalType": "string",
							"name": "_name",
							"type": "string"
						},
						{
							"internalType": "uint256",
							"name": "_price",
							"type": "uint256"
						}
					],
					"name": "listItem",
					"outputs": [],
					"stateMutability": "nonpayable",
					"type": "function"
				},
				{
					"inputs": [
						{
							"internalType": "uint256",
							"name": "_id",
							"type": "uint256"
						}
					],
					"name": "purchaseItem",
					"outputs": [],
					"stateMutability": "payable",
					"type": "function"
				}
			],
			"devdoc": {
				"kind": "dev",
				"methods": {},
				"version": 1
			},
			"evm": {
				"assembly": "    /* \"contracts/Marketplace.sol\":61:1289  contract Marketplace {... */\n  mstore(0x40, 0x80)\n    /* \"contracts/Marketplace.sol\":255:256  0 */\n  0x00\n    /* \"contracts/Marketplace.sol\":231:256  uint public itemCount = 0 */\n  dup1\n  sstore\n    /* \"contracts/Marketplace.sol\":61:1289  contract Marketplace {... */\n  callvalue\n  dup1\n  iszero\n  tag_1\n  jumpi\n  0x00\n  dup1\n  revert\ntag_1:\n  pop\n  dataSize(sub_0)\n  dup1\n  dataOffset(sub_0)\n  0x00\n  codecopy\n  0x00\n  return\nstop\n\nsub_0: assembly {\n        /* \"contracts/Marketplace.sol\":61:1289  contract Marketplace {... */\n      mstore(0x40, 0x80)\n      jumpi(tag_1, lt(calldatasize, 0x04))\n      shr(0xe0, calldataload(0x00))\n      dup1\n      0x6bfb0d01\n      eq\n      tag_2\n      jumpi\n      dup1\n      0x8511c937\n      eq\n      tag_3\n      jumpi\n      dup1\n      0xbfb231d2\n      eq\n      tag_4\n      jumpi\n      dup1\n      0xd38ea5bf\n      eq\n      tag_5\n      jumpi\n    tag_1:\n      0x00\n      dup1\n      revert\n        /* \"contracts/Marketplace.sol\":231:256  uint public itemCount = 0 */\n    tag_2:\n      callvalue\n      dup1\n      iszero\n      tag_6\n      jumpi\n      0x00\n      dup1\n      revert\n    tag_6:\n      pop\n      tag_7\n      tag_8\n      jump\t// in\n    tag_7:\n      mload(0x40)\n      tag_9\n      swap2\n      swap1\n      tag_10\n      jump\t// in\n    tag_9:\n      mload(0x40)\n      dup1\n      swap2\n      sub\n      swap1\n      return\n        /* \"contracts/Marketplace.sol\":459:769  function listItem(string memory _name, uint _price) public {... */\n    tag_3:\n      callvalue\n      dup1\n      iszero\n      tag_11\n      jumpi\n      0x00\n      dup1\n      revert\n    tag_11:\n      pop\n      tag_12\n      0x04\n      dup1\n      calldatasize\n      sub\n      dup2\n      add\n      swap1\n      tag_13\n      swap2\n      swap1\n      tag_14\n      jump\t// in\n    tag_13:\n      tag_15\n      jump\t// in\n    tag_12:\n      stop\n        /* \"contracts/Marketplace.sol\":263:297  mapping(uint => Item) public items */\n    tag_4:\n      callvalue\n      dup1\n      iszero\n      tag_16\n      jumpi\n      0x00\n      dup1\n      revert\n    tag_16:\n      pop\n      tag_17\n      0x04\n      dup1\n      calldatasize\n      sub\n      dup2\n      add\n      swap1\n      tag_18\n      swap2\n      swap1\n      tag_19\n      jump\t// in\n    tag_18:\n      tag_20\n      jump\t// in\n    tag_17:\n      mload(0x40)\n      tag_21\n      swap6\n      swap5\n      swap4\n      swap3\n      swap2\n      swap1\n      tag_22\n      jump\t// in\n    tag_21:\n      mload(0x40)\n      dup1\n      swap2\n      sub\n      swap1\n      return\n        /* \"contracts/Marketplace.sol\":777:1286  function purchaseItem(uint _id) public payable {... */\n    tag_5:\n      tag_23\n      0x04\n      dup1\n      calldatasize\n      sub\n      dup2\n      add\n      swap1\n      tag_24\n      swap2\n      swap1\n      tag_19\n      jump\t// in\n    tag_24:\n      tag_25\n      jump\t// in\n    tag_23:\n      stop\n        /* \"contracts/Marketplace.sol\":231:256  uint public itemCount = 0 */\n    tag_8:\n      sload(0x00)\n      dup2\n      jump\t// out\n        /* \"contracts/Marketplace.sol\":459:769  function listItem(string memory _name, uint _price) public {... */\n    tag_15:\n        /* \"contracts/Marketplace.sol\":546:547  0 */\n      0x00\n        /* \"contracts/Marketplace.sol\":537:543  _price */\n      dup2\n        /* \"contracts/Marketplace.sol\":537:547  _price > 0 */\n      gt\n        /* \"contracts/Marketplace.sol\":529:583  require(_price > 0, \"Price must be greater than zero\") */\n      tag_27\n      jumpi\n      mload(0x40)\n      0x08c379a000000000000000000000000000000000000000000000000000000000\n      dup2\n      mstore\n      0x04\n      add\n      tag_28\n      swap1\n      tag_29\n      jump\t// in\n    tag_28:\n      mload(0x40)\n      dup1\n      swap2\n      sub\n      swap1\n      revert\n    tag_27:\n        /* \"contracts/Marketplace.sol\":596:605  itemCount */\n      0x00\n      dup1\n        /* \"contracts/Marketplace.sol\":596:607  itemCount++ */\n      dup2\n      sload\n      dup1\n      swap3\n      swap2\n      swap1\n      tag_30\n      swap1\n      tag_31\n      jump\t// in\n    tag_30:\n      swap2\n      swap1\n      pop\n      sstore\n      pop\n        /* \"contracts/Marketplace.sol\":637:695  Item(itemCount, payable(msg.sender), _name, _price, false) */\n      mload(0x40)\n      dup1\n      0xa0\n      add\n      0x40\n      mstore\n      dup1\n        /* \"contracts/Marketplace.sol\":642:651  itemCount */\n      sload(0x00)\n        /* \"contracts/Marketplace.sol\":637:695  Item(itemCount, payable(msg.sender), _name, _price, false) */\n      dup2\n      mstore\n      0x20\n      add\n        /* \"contracts/Marketplace.sol\":661:671  msg.sender */\n      caller\n        /* \"contracts/Marketplace.sol\":637:695  Item(itemCount, payable(msg.sender), _name, _price, false) */\n      0xffffffffffffffffffffffffffffffffffffffff\n      and\n      dup2\n      mstore\n      0x20\n      add\n        /* \"contracts/Marketplace.sol\":674:679  _name */\n      dup4\n        /* \"contracts/Marketplace.sol\":637:695  Item(itemCount, payable(msg.sender), _name, _price, false) */\n      dup2\n      mstore\n      0x20\n      add\n        /* \"contracts/Marketplace.sol\":681:687  _price */\n      dup3\n        /* \"contracts/Marketplace.sol\":637:695  Item(itemCount, payable(msg.sender), _name, _price, false) */\n      dup2\n      mstore\n      0x20\n      add\n        /* \"contracts/Marketplace.sol\":689:694  false */\n      0x00\n        /* \"contracts/Marketplace.sol\":637:695  Item(itemCount, payable(msg.sender), _name, _price, false) */\n      iszero\n      iszero\n      dup2\n      mstore\n      pop\n        /* \"contracts/Marketplace.sol\":618:623  items */\n      0x01\n        /* \"contracts/Marketplace.sol\":618:634  items[itemCount] */\n      0x00\n        /* \"contracts/Marketplace.sol\":624:633  itemCount */\n      dup1\n      sload\n        /* \"contracts/Marketplace.sol\":618:634  items[itemCount] */\n      dup2\n      mstore\n      0x20\n      add\n      swap1\n      dup2\n      mstore\n      0x20\n      add\n      0x00\n      keccak256\n        /* \"contracts/Marketplace.sol\":618:695  items[itemCount] = Item(itemCount, payable(msg.sender), _name, _price, false) */\n      0x00\n      dup3\n      add\n      mload\n      dup2\n      0x00\n      add\n      sstore\n      0x20\n      dup3\n      add\n      mload\n      dup2\n      0x01\n      add\n      exp(0x0100, 0x00)\n      dup2\n      sload\n      dup2\n      0xffffffffffffffffffffffffffffffffffffffff\n      mul\n      not\n      and\n      swap1\n      dup4\n      0xffffffffffffffffffffffffffffffffffffffff\n      and\n      mul\n      or\n      swap1\n      sstore\n      pop\n      0x40\n      dup3\n      add\n      mload\n      dup2\n      0x02\n      add\n      swap1\n      dup2\n      tag_32\n      swap2\n      swap1\n      tag_33\n      jump\t// in\n    tag_32:\n      pop\n      0x60\n      dup3\n      add\n      mload\n      dup2\n      0x03\n      add\n      sstore\n      0x80\n      dup3\n      add\n      mload\n      dup2\n      0x04\n      add\n      exp(0x0100, 0x00)\n      dup2\n      sload\n      dup2\n      0xff\n      mul\n      not\n      and\n      swap1\n      dup4\n      iszero\n      iszero\n      mul\n      or\n      swap1\n      sstore\n      pop\n      swap1\n      pop\n      pop\n        /* \"contracts/Marketplace.sol\":713:761  ItemListed(itemCount, msg.sender, _name, _price) */\n      0x4e3807e76e8c2a7b6547b6189eba5d3dc4fe2bc48c057e8ec545ec13be8063c5\n        /* \"contracts/Marketplace.sol\":724:733  itemCount */\n      sload(0x00)\n        /* \"contracts/Marketplace.sol\":735:745  msg.sender */\n      caller\n        /* \"contracts/Marketplace.sol\":747:752  _name */\n      dup5\n        /* \"contracts/Marketplace.sol\":754:760  _price */\n      dup5\n        /* \"contracts/Marketplace.sol\":713:761  ItemListed(itemCount, msg.sender, _name, _price) */\n      mload(0x40)\n      tag_34\n      swap5\n      swap4\n      swap3\n      swap2\n      swap1\n      tag_35\n      jump\t// in\n    tag_34:\n      mload(0x40)\n      dup1\n      swap2\n      sub\n      swap1\n      log1\n        /* \"contracts/Marketplace.sol\":459:769  function listItem(string memory _name, uint _price) public {... */\n      pop\n      pop\n      jump\t// out\n        /* \"contracts/Marketplace.sol\":263:297  mapping(uint => Item) public items */\n    tag_20:\n      mstore(0x20, 0x01)\n      dup1\n      0x00\n      mstore\n      keccak256(0x00, 0x40)\n      0x00\n      swap2\n      pop\n      swap1\n      pop\n      dup1\n      0x00\n      add\n      sload\n      swap1\n      dup1\n      0x01\n      add\n      0x00\n      swap1\n      sload\n      swap1\n      0x0100\n      exp\n      swap1\n      div\n      0xffffffffffffffffffffffffffffffffffffffff\n      and\n      swap1\n      dup1\n      0x02\n      add\n      dup1\n      sload\n      tag_36\n      swap1\n      tag_37\n      jump\t// in\n    tag_36:\n      dup1\n      0x1f\n      add\n      0x20\n      dup1\n      swap2\n      div\n      mul\n      0x20\n      add\n      mload(0x40)\n      swap1\n      dup2\n      add\n      0x40\n      mstore\n      dup1\n      swap3\n      swap2\n      swap1\n      dup2\n      dup2\n      mstore\n      0x20\n      add\n      dup3\n      dup1\n      sload\n      tag_38\n      swap1\n      tag_37\n      jump\t// in\n    tag_38:\n      dup1\n      iszero\n      tag_39\n      jumpi\n      dup1\n      0x1f\n      lt\n      tag_40\n      jumpi\n      0x0100\n      dup1\n      dup4\n      sload\n      div\n      mul\n      dup4\n      mstore\n      swap2\n      0x20\n      add\n      swap2\n      jump(tag_39)\n    tag_40:\n      dup3\n      add\n      swap2\n      swap1\n      0x00\n      mstore\n      keccak256(0x00, 0x20)\n      swap1\n    tag_41:\n      dup2\n      sload\n      dup2\n      mstore\n      swap1\n      0x01\n      add\n      swap1\n      0x20\n      add\n      dup1\n      dup4\n      gt\n      tag_41\n      jumpi\n      dup3\n      swap1\n      sub\n      0x1f\n      and\n      dup3\n      add\n      swap2\n    tag_39:\n      pop\n      pop\n      pop\n      pop\n      pop\n      swap1\n      dup1\n      0x03\n      add\n      sload\n      swap1\n      dup1\n      0x04\n      add\n      0x00\n      swap1\n      sload\n      swap1\n      0x0100\n      exp\n      swap1\n      div\n      0xff\n      and\n      swap1\n      pop\n      dup6\n      jump\t// out\n        /* \"contracts/Marketplace.sol\":777:1286  function purchaseItem(uint _id) public payable {... */\n    tag_25:\n        /* \"contracts/Marketplace.sol\":835:852  Item storage item */\n      0x00\n        /* \"contracts/Marketplace.sol\":855:860  items */\n      0x01\n        /* \"contracts/Marketplace.sol\":855:865  items[_id] */\n      0x00\n        /* \"contracts/Marketplace.sol\":861:864  _id */\n      dup4\n        /* \"contracts/Marketplace.sol\":855:865  items[_id] */\n      dup2\n      mstore\n      0x20\n      add\n      swap1\n      dup2\n      mstore\n      0x20\n      add\n      0x00\n      keccak256\n        /* \"contracts/Marketplace.sol\":835:865  Item storage item = items[_id] */\n      swap1\n      pop\n        /* \"contracts/Marketplace.sol\":890:891  0 */\n      0x00\n        /* \"contracts/Marketplace.sol\":884:887  _id */\n      dup3\n        /* \"contracts/Marketplace.sol\":884:891  _id > 0 */\n      gt\n        /* \"contracts/Marketplace.sol\":884:911  _id > 0 && _id <= itemCount */\n      dup1\n      iszero\n      tag_43\n      jumpi\n      pop\n        /* \"contracts/Marketplace.sol\":902:911  itemCount */\n      sload(0x00)\n        /* \"contracts/Marketplace.sol\":895:898  _id */\n      dup3\n        /* \"contracts/Marketplace.sol\":895:911  _id <= itemCount */\n      gt\n      iszero\n        /* \"contracts/Marketplace.sol\":884:911  _id > 0 && _id <= itemCount */\n    tag_43:\n        /* \"contracts/Marketplace.sol\":876:935  require(_id > 0 && _id <= itemCount, \"Item does not exist\") */\n      tag_44\n      jumpi\n      mload(0x40)\n      0x08c379a000000000000000000000000000000000000000000000000000000000\n      dup2\n      mstore\n      0x04\n      add\n      tag_45\n      swap1\n      tag_46\n      jump\t// in\n    tag_45:\n      mload(0x40)\n      dup1\n      swap2\n      sub\n      swap1\n      revert\n    tag_44:\n        /* \"contracts/Marketplace.sol\":967:971  item */\n      dup1\n        /* \"contracts/Marketplace.sol\":967:977  item.price */\n      0x03\n      add\n      sload\n        /* \"contracts/Marketplace.sol\":954:963  msg.value */\n      callvalue\n        /* \"contracts/Marketplace.sol\":954:977  msg.value == item.price */\n      eq\n        /* \"contracts/Marketplace.sol\":946:1002  require(msg.value == item.price, \"Incorrect value sent\") */\n      tag_47\n      jumpi\n      mload(0x40)\n      0x08c379a000000000000000000000000000000000000000000000000000000000\n      dup2\n      mstore\n      0x04\n      add\n      tag_48\n      swap1\n      tag_49\n      jump\t// in\n    tag_48:\n      mload(0x40)\n      dup1\n      swap2\n      sub\n      swap1\n      revert\n    tag_47:\n        /* \"contracts/Marketplace.sol\":1022:1026  item */\n      dup1\n        /* \"contracts/Marketplace.sol\":1022:1031  item.sold */\n      0x04\n      add\n      0x00\n      swap1\n      sload\n      swap1\n      0x0100\n      exp\n      swap1\n      div\n      0xff\n      and\n        /* \"contracts/Marketplace.sol\":1021:1031  !item.sold */\n      iszero\n        /* \"contracts/Marketplace.sol\":1013:1053  require(!item.sold, \"Item already sold\") */\n      tag_50\n      jumpi\n      mload(0x40)\n      0x08c379a000000000000000000000000000000000000000000000000000000000\n      dup2\n      mstore\n      0x04\n      add\n      tag_51\n      swap1\n      tag_52\n      jump\t// in\n    tag_51:\n      mload(0x40)\n      dup1\n      swap2\n      sub\n      swap1\n      revert\n    tag_50:\n        /* \"contracts/Marketplace.sol\":1087:1097  msg.sender */\n      caller\n        /* \"contracts/Marketplace.sol\":1072:1097  item.seller != msg.sender */\n      0xffffffffffffffffffffffffffffffffffffffff\n      and\n        /* \"contracts/Marketplace.sol\":1072:1076  item */\n      dup2\n        /* \"contracts/Marketplace.sol\":1072:1083  item.seller */\n      0x01\n      add\n      0x00\n      swap1\n      sload\n      swap1\n      0x0100\n      exp\n      swap1\n      div\n      0xffffffffffffffffffffffffffffffffffffffff\n      and\n        /* \"contracts/Marketplace.sol\":1072:1097  item.seller != msg.sender */\n      0xffffffffffffffffffffffffffffffffffffffff\n      and\n      sub\n        /* \"contracts/Marketplace.sol\":1064:1134  require(item.seller != msg.sender, \"Seller cannot buy their own item\") */\n      tag_53\n      jumpi\n      mload(0x40)\n      0x08c379a000000000000000000000000000000000000000000000000000000000\n      dup2\n      mstore\n      0x04\n      add\n      tag_54\n      swap1\n      tag_55\n      jump\t// in\n    tag_54:\n      mload(0x40)\n      dup1\n      swap2\n      sub\n      swap1\n      revert\n    tag_53:\n        /* \"contracts/Marketplace.sol\":1147:1151  item */\n      dup1\n        /* \"contracts/Marketplace.sol\":1147:1158  item.seller */\n      0x01\n      add\n      0x00\n      swap1\n      sload\n      swap1\n      0x0100\n      exp\n      swap1\n      div\n      0xffffffffffffffffffffffffffffffffffffffff\n      and\n        /* \"contracts/Marketplace.sol\":1147:1167  item.seller.transfer */\n      0xffffffffffffffffffffffffffffffffffffffff\n      and\n        /* \"contracts/Marketplace.sol\":1147:1178  item.seller.transfer(msg.value) */\n      0x08fc\n        /* \"contracts/Marketplace.sol\":1168:1177  msg.value */\n      callvalue\n        /* \"contracts/Marketplace.sol\":1147:1178  item.seller.transfer(msg.value) */\n      swap1\n      dup2\n      iszero\n      mul\n      swap1\n      mload(0x40)\n      0x00\n      mload(0x40)\n      dup1\n      dup4\n      sub\n      dup2\n      dup6\n      dup9\n      dup9\n      call\n      swap4\n      pop\n      pop\n      pop\n      pop\n      iszero\n      dup1\n      iszero\n      tag_57\n      jumpi\n      returndatasize\n      0x00\n      dup1\n      returndatacopy\n      revert(0x00, returndatasize)\n    tag_57:\n      pop\n        /* \"contracts/Marketplace.sol\":1201:1205  true */\n      0x01\n        /* \"contracts/Marketplace.sol\":1189:1193  item */\n      dup2\n        /* \"contracts/Marketplace.sol\":1189:1198  item.sold */\n      0x04\n      add\n      0x00\n        /* \"contracts/Marketplace.sol\":1189:1205  item.sold = true */\n      0x0100\n      exp\n      dup2\n      sload\n      dup2\n      0xff\n      mul\n      not\n      and\n      swap1\n      dup4\n      iszero\n      iszero\n      mul\n      or\n      swap1\n      sstore\n      pop\n        /* \"contracts/Marketplace.sol\":1223:1278  ItemPurchased(_id, msg.sender, item.seller, item.price) */\n      0x3e2a5a5ee3a24b1b9d330b0bc0946a7d0eb9c99f453f93a45348a9a8e29a94fb\n        /* \"contracts/Marketplace.sol\":1237:1240  _id */\n      dup3\n        /* \"contracts/Marketplace.sol\":1242:1252  msg.sender */\n      caller\n        /* \"contracts/Marketplace.sol\":1254:1258  item */\n      dup4\n        /* \"contracts/Marketplace.sol\":1254:1265  item.seller */\n      0x01\n      add\n      0x00\n      swap1\n      sload\n      swap1\n      0x0100\n      exp\n      swap1\n      div\n      0xffffffffffffffffffffffffffffffffffffffff\n      and\n        /* \"contracts/Marketplace.sol\":1267:1271  item */\n      dup5\n        /* \"contracts/Marketplace.sol\":1267:1277  item.price */\n      0x03\n      add\n      sload\n        /* \"contracts/Marketplace.sol\":1223:1278  ItemPurchased(_id, msg.sender, item.seller, item.price) */\n      mload(0x40)\n      tag_58\n      swap5\n      swap4\n      swap3\n      swap2\n      swap1\n      tag_59\n      jump\t// in\n    tag_58:\n      mload(0x40)\n      dup1\n      swap2\n      sub\n      swap1\n      log1\n        /* \"contracts/Marketplace.sol\":824:1286  {... */\n      pop\n        /* \"contracts/Marketplace.sol\":777:1286  function purchaseItem(uint _id) public payable {... */\n      pop\n      jump\t// out\n        /* \"#utility.yul\":7:84   */\n    tag_60:\n        /* \"#utility.yul\":44:51   */\n      0x00\n        /* \"#utility.yul\":73:78   */\n      dup2\n        /* \"#utility.yul\":62:78   */\n      swap1\n      pop\n        /* \"#utility.yul\":7:84   */\n      swap2\n      swap1\n      pop\n      jump\t// out\n        /* \"#utility.yul\":90:208   */\n    tag_61:\n        /* \"#utility.yul\":177:201   */\n      tag_122\n        /* \"#utility.yul\":195:200   */\n      dup2\n        /* \"#utility.yul\":177:201   */\n      tag_60\n      jump\t// in\n    tag_122:\n        /* \"#utility.yul\":172:175   */\n      dup3\n        /* \"#utility.yul\":165:202   */\n      mstore\n        /* \"#utility.yul\":90:208   */\n      pop\n      pop\n      jump\t// out\n        /* \"#utility.yul\":214:436   */\n    tag_10:\n        /* \"#utility.yul\":307:311   */\n      0x00\n        /* \"#utility.yul\":345:347   */\n      0x20\n        /* \"#utility.yul\":334:343   */\n      dup3\n        /* \"#utility.yul\":330:348   */\n      add\n        /* \"#utility.yul\":322:348   */\n      swap1\n      pop\n        /* \"#utility.yul\":358:429   */\n      tag_124\n        /* \"#utility.yul\":426:427   */\n      0x00\n        /* \"#utility.yul\":415:424   */\n      dup4\n        /* \"#utility.yul\":411:428   */\n      add\n        /* \"#utility.yul\":402:408   */\n      dup5\n        /* \"#utility.yul\":358:429   */\n      tag_61\n      jump\t// in\n    tag_124:\n        /* \"#utility.yul\":214:436   */\n      swap3\n      swap2\n      pop\n      pop\n      jump\t// out\n        /* \"#utility.yul\":442:517   */\n    tag_62:\n        /* \"#utility.yul\":475:481   */\n      0x00\n        /* \"#utility.yul\":508:510   */\n      0x40\n        /* \"#utility.yul\":502:511   */\n      mload\n        /* \"#utility.yul\":492:511   */\n      swap1\n      pop\n        /* \"#utility.yul\":442:517   */\n      swap1\n      jump\t// out\n        /* \"#utility.yul\":523:640   */\n    tag_63:\n        /* \"#utility.yul\":632:633   */\n      0x00\n        /* \"#utility.yul\":629:630   */\n      dup1\n        /* \"#utility.yul\":622:634   */\n      revert\n        /* \"#utility.yul\":646:763   */\n    tag_64:\n        /* \"#utility.yul\":755:756   */\n      0x00\n        /* \"#utility.yul\":752:753   */\n      dup1\n        /* \"#utility.yul\":745:757   */\n      revert\n        /* \"#utility.yul\":769:886   */\n    tag_65:\n        /* \"#utility.yul\":878:879   */\n      0x00\n        /* \"#utility.yul\":875:876   */\n      dup1\n        /* \"#utility.yul\":868:880   */\n      revert\n        /* \"#utility.yul\":892:1009   */\n    tag_66:\n        /* \"#utility.yul\":1001:1002   */\n      0x00\n        /* \"#utility.yul\":998:999   */\n      dup1\n        /* \"#utility.yul\":991:1003   */\n      revert\n        /* \"#utility.yul\":1015:1117   */\n    tag_67:\n        /* \"#utility.yul\":1056:1062   */\n      0x00\n        /* \"#utility.yul\":1107:1109   */\n      0x1f\n        /* \"#utility.yul\":1103:1110   */\n      not\n        /* \"#utility.yul\":1098:1100   */\n      0x1f\n        /* \"#utility.yul\":1091:1096   */\n      dup4\n        /* \"#utility.yul\":1087:1101   */\n      add\n        /* \"#utility.yul\":1083:1111   */\n      and\n        /* \"#utility.yul\":1073:1111   */\n      swap1\n      pop\n        /* \"#utility.yul\":1015:1117   */\n      swap2\n      swap1\n      pop\n      jump\t// out\n        /* \"#utility.yul\":1123:1303   */\n    tag_68:\n        /* \"#utility.yul\":1171:1248   */\n      0x4e487b7100000000000000000000000000000000000000000000000000000000\n        /* \"#utility.yul\":1168:1169   */\n      0x00\n        /* \"#utility.yul\":1161:1249   */\n      mstore\n        /* \"#utility.yul\":1268:1272   */\n      0x41\n        /* \"#utility.yul\":1265:1266   */\n      0x04\n        /* \"#utility.yul\":1258:1273   */\n      mstore\n        /* \"#utility.yul\":1292:1296   */\n      0x24\n        /* \"#utility.yul\":1289:1290   */\n      0x00\n        /* \"#utility.yul\":1282:1297   */\n      revert\n        /* \"#utility.yul\":1309:1590   */\n    tag_69:\n        /* \"#utility.yul\":1392:1419   */\n      tag_133\n        /* \"#utility.yul\":1414:1418   */\n      dup3\n        /* \"#utility.yul\":1392:1419   */\n      tag_67\n      jump\t// in\n    tag_133:\n        /* \"#utility.yul\":1384:1390   */\n      dup2\n        /* \"#utility.yul\":1380:1420   */\n      add\n        /* \"#utility.yul\":1522:1528   */\n      dup2\n        /* \"#utility.yul\":1510:1520   */\n      dup2\n        /* \"#utility.yul\":1507:1529   */\n      lt\n        /* \"#utility.yul\":1486:1504   */\n      0xffffffffffffffff\n        /* \"#utility.yul\":1474:1484   */\n      dup3\n        /* \"#utility.yul\":1471:1505   */\n      gt\n        /* \"#utility.yul\":1468:1530   */\n      or\n        /* \"#utility.yul\":1465:1553   */\n      iszero\n      tag_134\n      jumpi\n        /* \"#utility.yul\":1533:1551   */\n      tag_135\n      tag_68\n      jump\t// in\n    tag_135:\n        /* \"#utility.yul\":1465:1553   */\n    tag_134:\n        /* \"#utility.yul\":1573:1583   */\n      dup1\n        /* \"#utility.yul\":1569:1571   */\n      0x40\n        /* \"#utility.yul\":1562:1584   */\n      mstore\n        /* \"#utility.yul\":1352:1590   */\n      pop\n        /* \"#utility.yul\":1309:1590   */\n      pop\n      pop\n      jump\t// out\n        /* \"#utility.yul\":1596:1725   */\n    tag_70:\n        /* \"#utility.yul\":1630:1636   */\n      0x00\n        /* \"#utility.yul\":1657:1677   */\n      tag_137\n      tag_62\n      jump\t// in\n    tag_137:\n        /* \"#utility.yul\":1647:1677   */\n      swap1\n      pop\n        /* \"#utility.yul\":1686:1719   */\n      tag_138\n        /* \"#utility.yul\":1714:1718   */\n      dup3\n        /* \"#utility.yul\":1706:1712   */\n      dup3\n        /* \"#utility.yul\":1686:1719   */\n      tag_69\n      jump\t// in\n    tag_138:\n        /* \"#utility.yul\":1596:1725   */\n      swap2\n      swap1\n      pop\n      jump\t// out\n        /* \"#utility.yul\":1731:2039   */\n    tag_71:\n        /* \"#utility.yul\":1793:1797   */\n      0x00\n        /* \"#utility.yul\":1883:1901   */\n      0xffffffffffffffff\n        /* \"#utility.yul\":1875:1881   */\n      dup3\n        /* \"#utility.yul\":1872:1902   */\n      gt\n        /* \"#utility.yul\":1869:1925   */\n      iszero\n      tag_140\n      jumpi\n        /* \"#utility.yul\":1905:1923   */\n      tag_141\n      tag_68\n      jump\t// in\n    tag_141:\n        /* \"#utility.yul\":1869:1925   */\n    tag_140:\n        /* \"#utility.yul\":1943:1972   */\n      tag_142\n        /* \"#utility.yul\":1965:1971   */\n      dup3\n        /* \"#utility.yul\":1943:1972   */\n      tag_67\n      jump\t// in\n    tag_142:\n        /* \"#utility.yul\":1935:1972   */\n      swap1\n      pop\n        /* \"#utility.yul\":2027:2031   */\n      0x20\n        /* \"#utility.yul\":2021:2025   */\n      dup2\n        /* \"#utility.yul\":2017:2032   */\n      add\n        /* \"#utility.yul\":2009:2032   */\n      swap1\n      pop\n        /* \"#utility.yul\":1731:2039   */\n      swap2\n      swap1\n      pop\n      jump\t// out\n        /* \"#utility.yul\":2045:2191   */\n    tag_72:\n        /* \"#utility.yul\":2142:2148   */\n      dup3\n        /* \"#utility.yul\":2137:2140   */\n      dup2\n        /* \"#utility.yul\":2132:2135   */\n      dup4\n        /* \"#utility.yul\":2119:2149   */\n      calldatacopy\n        /* \"#utility.yul\":2183:2184   */\n      0x00\n        /* \"#utility.yul\":2174:2180   */\n      dup4\n        /* \"#utility.yul\":2169:2172   */\n      dup4\n        /* \"#utility.yul\":2165:2181   */\n      add\n        /* \"#utility.yul\":2158:2185   */\n      mstore\n        /* \"#utility.yul\":2045:2191   */\n      pop\n      pop\n      pop\n      jump\t// out\n        /* \"#utility.yul\":2197:2622   */\n    tag_73:\n        /* \"#utility.yul\":2275:2280   */\n      0x00\n        /* \"#utility.yul\":2300:2366   */\n      tag_145\n        /* \"#utility.yul\":2316:2365   */\n      tag_146\n        /* \"#utility.yul\":2358:2364   */\n      dup5\n        /* \"#utility.yul\":2316:2365   */\n      tag_71\n      jump\t// in\n    tag_146:\n        /* \"#utility.yul\":2300:2366   */\n      tag_70\n      jump\t// in\n    tag_145:\n        /* \"#utility.yul\":2291:2366   */\n      swap1\n      pop\n        /* \"#utility.yul\":2389:2395   */\n      dup3\n        /* \"#utility.yul\":2382:2387   */\n      dup2\n        /* \"#utility.yul\":2375:2396   */\n      mstore\n        /* \"#utility.yul\":2427:2431   */\n      0x20\n        /* \"#utility.yul\":2420:2425   */\n      dup2\n        /* \"#utility.yul\":2416:2432   */\n      add\n        /* \"#utility.yul\":2465:2468   */\n      dup5\n        /* \"#utility.yul\":2456:2462   */\n      dup5\n        /* \"#utility.yul\":2451:2454   */\n      dup5\n        /* \"#utility.yul\":2447:2463   */\n      add\n        /* \"#utility.yul\":2444:2469   */\n      gt\n        /* \"#utility.yul\":2441:2553   */\n      iszero\n      tag_147\n      jumpi\n        /* \"#utility.yul\":2472:2551   */\n      tag_148\n      tag_66\n      jump\t// in\n    tag_148:\n        /* \"#utility.yul\":2441:2553   */\n    tag_147:\n        /* \"#utility.yul\":2562:2616   */\n      tag_149\n        /* \"#utility.yul\":2609:2615   */\n      dup5\n        /* \"#utility.yul\":2604:2607   */\n      dup3\n        /* \"#utility.yul\":2599:2602   */\n      dup6\n        /* \"#utility.yul\":2562:2616   */\n      tag_72\n      jump\t// in\n    tag_149:\n        /* \"#utility.yul\":2281:2622   */\n      pop\n        /* \"#utility.yul\":2197:2622   */\n      swap4\n      swap3\n      pop\n      pop\n      pop\n      jump\t// out\n        /* \"#utility.yul\":2642:2982   */\n    tag_74:\n        /* \"#utility.yul\":2698:2703   */\n      0x00\n        /* \"#utility.yul\":2747:2750   */\n      dup3\n        /* \"#utility.yul\":2740:2744   */\n      0x1f\n        /* \"#utility.yul\":2732:2738   */\n      dup4\n        /* \"#utility.yul\":2728:2745   */\n      add\n        /* \"#utility.yul\":2724:2751   */\n      slt\n        /* \"#utility.yul\":2714:2836   */\n      tag_151\n      jumpi\n        /* \"#utility.yul\":2755:2834   */\n      tag_152\n      tag_65\n      jump\t// in\n    tag_152:\n        /* \"#utility.yul\":2714:2836   */\n    tag_151:\n        /* \"#utility.yul\":2872:2878   */\n      dup2\n        /* \"#utility.yul\":2859:2879   */\n      calldataload\n        /* \"#utility.yul\":2897:2976   */\n      tag_153\n        /* \"#utility.yul\":2972:2975   */\n      dup5\n        /* \"#utility.yul\":2964:2970   */\n      dup3\n        /* \"#utility.yul\":2957:2961   */\n      0x20\n        /* \"#utility.yul\":2949:2955   */\n      dup7\n        /* \"#utility.yul\":2945:2962   */\n      add\n        /* \"#utility.yul\":2897:2976   */\n      tag_73\n      jump\t// in\n    tag_153:\n        /* \"#utility.yul\":2888:2976   */\n      swap2\n      pop\n        /* \"#utility.yul\":2704:2982   */\n      pop\n        /* \"#utility.yul\":2642:2982   */\n      swap3\n      swap2\n      pop\n      pop\n      jump\t// out\n        /* \"#utility.yul\":2988:3110   */\n    tag_75:\n        /* \"#utility.yul\":3061:3085   */\n      tag_155\n        /* \"#utility.yul\":3079:3084   */\n      dup2\n        /* \"#utility.yul\":3061:3085   */\n      tag_60\n      jump\t// in\n    tag_155:\n        /* \"#utility.yul\":3054:3059   */\n      dup2\n        /* \"#utility.yul\":3051:3086   */\n      eq\n        /* \"#utility.yul\":3041:3104   */\n      tag_156\n      jumpi\n        /* \"#utility.yul\":3100:3101   */\n      0x00\n        /* \"#utility.yul\":3097:3098   */\n      dup1\n        /* \"#utility.yul\":3090:3102   */\n      revert\n        /* \"#utility.yul\":3041:3104   */\n    tag_156:\n        /* \"#utility.yul\":2988:3110   */\n      pop\n      jump\t// out\n        /* \"#utility.yul\":3116:3255   */\n    tag_76:\n        /* \"#utility.yul\":3162:3167   */\n      0x00\n        /* \"#utility.yul\":3200:3206   */\n      dup2\n        /* \"#utility.yul\":3187:3207   */\n      calldataload\n        /* \"#utility.yul\":3178:3207   */\n      swap1\n      pop\n        /* \"#utility.yul\":3216:3249   */\n      tag_158\n        /* \"#utility.yul\":3243:3248   */\n      dup2\n        /* \"#utility.yul\":3216:3249   */\n      tag_75\n      jump\t// in\n    tag_158:\n        /* \"#utility.yul\":3116:3255   */\n      swap3\n      swap2\n      pop\n      pop\n      jump\t// out\n        /* \"#utility.yul\":3261:3915   */\n    tag_14:\n        /* \"#utility.yul\":3339:3345   */\n      0x00\n        /* \"#utility.yul\":3347:3353   */\n      dup1\n        /* \"#utility.yul\":3396:3398   */\n      0x40\n        /* \"#utility.yul\":3384:3393   */\n      dup4\n        /* \"#utility.yul\":3375:3382   */\n      dup6\n        /* \"#utility.yul\":3371:3394   */\n      sub\n        /* \"#utility.yul\":3367:3399   */\n      slt\n        /* \"#utility.yul\":3364:3483   */\n      iszero\n      tag_160\n      jumpi\n        /* \"#utility.yul\":3402:3481   */\n      tag_161\n      tag_63\n      jump\t// in\n    tag_161:\n        /* \"#utility.yul\":3364:3483   */\n    tag_160:\n        /* \"#utility.yul\":3550:3551   */\n      0x00\n        /* \"#utility.yul\":3539:3548   */\n      dup4\n        /* \"#utility.yul\":3535:3552   */\n      add\n        /* \"#utility.yul\":3522:3553   */\n      calldataload\n        /* \"#utility.yul\":3580:3598   */\n      0xffffffffffffffff\n        /* \"#utility.yul\":3572:3578   */\n      dup2\n        /* \"#utility.yul\":3569:3599   */\n      gt\n        /* \"#utility.yul\":3566:3683   */\n      iszero\n      tag_162\n      jumpi\n        /* \"#utility.yul\":3602:3681   */\n      tag_163\n      tag_64\n      jump\t// in\n    tag_163:\n        /* \"#utility.yul\":3566:3683   */\n    tag_162:\n        /* \"#utility.yul\":3707:3770   */\n      tag_164\n        /* \"#utility.yul\":3762:3769   */\n      dup6\n        /* \"#utility.yul\":3753:3759   */\n      dup3\n        /* \"#utility.yul\":3742:3751   */\n      dup7\n        /* \"#utility.yul\":3738:3760   */\n      add\n        /* \"#utility.yul\":3707:3770   */\n      tag_74\n      jump\t// in\n    tag_164:\n        /* \"#utility.yul\":3697:3770   */\n      swap3\n      pop\n        /* \"#utility.yul\":3493:3780   */\n      pop\n        /* \"#utility.yul\":3819:3821   */\n      0x20\n        /* \"#utility.yul\":3845:3898   */\n      tag_165\n        /* \"#utility.yul\":3890:3897   */\n      dup6\n        /* \"#utility.yul\":3881:3887   */\n      dup3\n        /* \"#utility.yul\":3870:3879   */\n      dup7\n        /* \"#utility.yul\":3866:3888   */\n      add\n        /* \"#utility.yul\":3845:3898   */\n      tag_76\n      jump\t// in\n    tag_165:\n        /* \"#utility.yul\":3835:3898   */\n      swap2\n      pop\n        /* \"#utility.yul\":3790:3908   */\n      pop\n        /* \"#utility.yul\":3261:3915   */\n      swap3\n      pop\n      swap3\n      swap1\n      pop\n      jump\t// out\n        /* \"#utility.yul\":3921:4250   */\n    tag_19:\n        /* \"#utility.yul\":3980:3986   */\n      0x00\n        /* \"#utility.yul\":4029:4031   */\n      0x20\n        /* \"#utility.yul\":4017:4026   */\n      dup3\n        /* \"#utility.yul\":4008:4015   */\n      dup5\n        /* \"#utility.yul\":4004:4027   */\n      sub\n        /* \"#utility.yul\":4000:4032   */\n      slt\n        /* \"#utility.yul\":3997:4116   */\n      iszero\n      tag_167\n      jumpi\n        /* \"#utility.yul\":4035:4114   */\n      tag_168\n      tag_63\n      jump\t// in\n    tag_168:\n        /* \"#utility.yul\":3997:4116   */\n    tag_167:\n        /* \"#utility.yul\":4155:4156   */\n      0x00\n        /* \"#utility.yul\":4180:4233   */\n      tag_169\n        /* \"#utility.yul\":4225:4232   */\n      dup5\n        /* \"#utility.yul\":4216:4222   */\n      dup3\n        /* \"#utility.yul\":4205:4214   */\n      dup6\n        /* \"#utility.yul\":4201:4223   */\n      add\n        /* \"#utility.yul\":4180:4233   */\n      tag_76\n      jump\t// in\n    tag_169:\n        /* \"#utility.yul\":4170:4233   */\n      swap2\n      pop\n        /* \"#utility.yul\":4126:4243   */\n      pop\n        /* \"#utility.yul\":3921:4250   */\n      swap3\n      swap2\n      pop\n      pop\n      jump\t// out\n        /* \"#utility.yul\":4256:4382   */\n    tag_77:\n        /* \"#utility.yul\":4293:4300   */\n      0x00\n        /* \"#utility.yul\":4333:4375   */\n      0xffffffffffffffffffffffffffffffffffffffff\n        /* \"#utility.yul\":4326:4331   */\n      dup3\n        /* \"#utility.yul\":4322:4376   */\n      and\n        /* \"#utility.yul\":4311:4376   */\n      swap1\n      pop\n        /* \"#utility.yul\":4256:4382   */\n      swap2\n      swap1\n      pop\n      jump\t// out\n        /* \"#utility.yul\":4388:4492   */\n    tag_78:\n        /* \"#utility.yul\":4433:4440   */\n      0x00\n        /* \"#utility.yul\":4462:4486   */\n      tag_172\n        /* \"#utility.yul\":4480:4485   */\n      dup3\n        /* \"#utility.yul\":4462:4486   */\n      tag_77\n      jump\t// in\n    tag_172:\n        /* \"#utility.yul\":4451:4486   */\n      swap1\n      pop\n        /* \"#utility.yul\":4388:4492   */\n      swap2\n      swap1\n      pop\n      jump\t// out\n        /* \"#utility.yul\":4498:4640   */\n    tag_79:\n        /* \"#utility.yul\":4601:4633   */\n      tag_174\n        /* \"#utility.yul\":4627:4632   */\n      dup2\n        /* \"#utility.yul\":4601:4633   */\n      tag_78\n      jump\t// in\n    tag_174:\n        /* \"#utility.yul\":4596:4599   */\n      dup3\n        /* \"#utility.yul\":4589:4634   */\n      mstore\n        /* \"#utility.yul\":4498:4640   */\n      pop\n      pop\n      jump\t// out\n        /* \"#utility.yul\":4646:4745   */\n    tag_80:\n        /* \"#utility.yul\":4698:4704   */\n      0x00\n        /* \"#utility.yul\":4732:4737   */\n      dup2\n        /* \"#utility.yul\":4726:4738   */\n      mload\n        /* \"#utility.yul\":4716:4738   */\n      swap1\n      pop\n        /* \"#utility.yul\":4646:4745   */\n      swap2\n      swap1\n      pop\n      jump\t// out\n        /* \"#utility.yul\":4751:4920   */\n    tag_81:\n        /* \"#utility.yul\":4835:4846   */\n      0x00\n        /* \"#utility.yul\":4869:4875   */\n      dup3\n        /* \"#utility.yul\":4864:4867   */\n      dup3\n        /* \"#utility.yul\":4857:4876   */\n      mstore\n        /* \"#utility.yul\":4909:4913   */\n      0x20\n        /* \"#utility.yul\":4904:4907   */\n      dup3\n        /* \"#utility.yul\":4900:4914   */\n      add\n        /* \"#utility.yul\":4885:4914   */\n      swap1\n      pop\n        /* \"#utility.yul\":4751:4920   */\n      swap3\n      swap2\n      pop\n      pop\n      jump\t// out\n        /* \"#utility.yul\":4926:5172   */\n    tag_82:\n        /* \"#utility.yul\":5007:5008   */\n      0x00\n        /* \"#utility.yul\":5017:5130   */\n    tag_178:\n        /* \"#utility.yul\":5031:5037   */\n      dup4\n        /* \"#utility.yul\":5028:5029   */\n      dup2\n        /* \"#utility.yul\":5025:5038   */\n      lt\n        /* \"#utility.yul\":5017:5130   */\n      iszero\n      tag_180\n      jumpi\n        /* \"#utility.yul\":5116:5117   */\n      dup1\n        /* \"#utility.yul\":5111:5114   */\n      dup3\n        /* \"#utility.yul\":5107:5118   */\n      add\n        /* \"#utility.yul\":5101:5119   */\n      mload\n        /* \"#utility.yul\":5097:5098   */\n      dup2\n        /* \"#utility.yul\":5092:5095   */\n      dup5\n        /* \"#utility.yul\":5088:5099   */\n      add\n        /* \"#utility.yul\":5081:5120   */\n      mstore\n        /* \"#utility.yul\":5053:5055   */\n      0x20\n        /* \"#utility.yul\":5050:5051   */\n      dup2\n        /* \"#utility.yul\":5046:5056   */\n      add\n        /* \"#utility.yul\":5041:5056   */\n      swap1\n      pop\n        /* \"#utility.yul\":5017:5130   */\n      jump(tag_178)\n    tag_180:\n        /* \"#utility.yul\":5164:5165   */\n      0x00\n        /* \"#utility.yul\":5155:5161   */\n      dup5\n        /* \"#utility.yul\":5150:5153   */\n      dup5\n        /* \"#utility.yul\":5146:5162   */\n      add\n        /* \"#utility.yul\":5139:5166   */\n      mstore\n        /* \"#utility.yul\":4988:5172   */\n      pop\n        /* \"#utility.yul\":4926:5172   */\n      pop\n      pop\n      pop\n      jump\t// out\n        /* \"#utility.yul\":5178:5555   */\n    tag_83:\n        /* \"#utility.yul\":5266:5269   */\n      0x00\n        /* \"#utility.yul\":5294:5333   */\n      tag_182\n        /* \"#utility.yul\":5327:5332   */\n      dup3\n        /* \"#utility.yul\":5294:5333   */\n      tag_80\n      jump\t// in\n    tag_182:\n        /* \"#utility.yul\":5349:5420   */\n      tag_183\n        /* \"#utility.yul\":5413:5419   */\n      dup2\n        /* \"#utility.yul\":5408:5411   */\n      dup6\n        /* \"#utility.yul\":5349:5420   */\n      tag_81\n      jump\t// in\n    tag_183:\n        /* \"#utility.yul\":5342:5420   */\n      swap4\n      pop\n        /* \"#utility.yul\":5429:5494   */\n      tag_184\n        /* \"#utility.yul\":5487:5493   */\n      dup2\n        /* \"#utility.yul\":5482:5485   */\n      dup6\n        /* \"#utility.yul\":5475:5479   */\n      0x20\n        /* \"#utility.yul\":5468:5473   */\n      dup7\n        /* \"#utility.yul\":5464:5480   */\n      add\n        /* \"#utility.yul\":5429:5494   */\n      tag_82\n      jump\t// in\n    tag_184:\n        /* \"#utility.yul\":5519:5548   */\n      tag_185\n        /* \"#utility.yul\":5541:5547   */\n      dup2\n        /* \"#utility.yul\":5519:5548   */\n      tag_67\n      jump\t// in\n    tag_185:\n        /* \"#utility.yul\":5514:5517   */\n      dup5\n        /* \"#utility.yul\":5510:5549   */\n      add\n        /* \"#utility.yul\":5503:5549   */\n      swap2\n      pop\n        /* \"#utility.yul\":5270:5555   */\n      pop\n        /* \"#utility.yul\":5178:5555   */\n      swap3\n      swap2\n      pop\n      pop\n      jump\t// out\n        /* \"#utility.yul\":5561:5651   */\n    tag_84:\n        /* \"#utility.yul\":5595:5602   */\n      0x00\n        /* \"#utility.yul\":5638:5643   */\n      dup2\n        /* \"#utility.yul\":5631:5644   */\n      iszero\n        /* \"#utility.yul\":5624:5645   */\n      iszero\n        /* \"#utility.yul\":5613:5645   */\n      swap1\n      pop\n        /* \"#utility.yul\":5561:5651   */\n      swap2\n      swap1\n      pop\n      jump\t// out\n        /* \"#utility.yul\":5657:5766   */\n    tag_85:\n        /* \"#utility.yul\":5738:5759   */\n      tag_188\n        /* \"#utility.yul\":5753:5758   */\n      dup2\n        /* \"#utility.yul\":5738:5759   */\n      tag_84\n      jump\t// in\n    tag_188:\n        /* \"#utility.yul\":5733:5736   */\n      dup3\n        /* \"#utility.yul\":5726:5760   */\n      mstore\n        /* \"#utility.yul\":5657:5766   */\n      pop\n      pop\n      jump\t// out\n        /* \"#utility.yul\":5772:6547   */\n    tag_22:\n        /* \"#utility.yul\":6007:6011   */\n      0x00\n        /* \"#utility.yul\":6045:6048   */\n      0xa0\n        /* \"#utility.yul\":6034:6043   */\n      dup3\n        /* \"#utility.yul\":6030:6049   */\n      add\n        /* \"#utility.yul\":6022:6049   */\n      swap1\n      pop\n        /* \"#utility.yul\":6059:6130   */\n      tag_190\n        /* \"#utility.yul\":6127:6128   */\n      0x00\n        /* \"#utility.yul\":6116:6125   */\n      dup4\n        /* \"#utility.yul\":6112:6129   */\n      add\n        /* \"#utility.yul\":6103:6109   */\n      dup9\n        /* \"#utility.yul\":6059:6130   */\n      tag_61\n      jump\t// in\n    tag_190:\n        /* \"#utility.yul\":6140:6228   */\n      tag_191\n        /* \"#utility.yul\":6224:6226   */\n      0x20\n        /* \"#utility.yul\":6213:6222   */\n      dup4\n        /* \"#utility.yul\":6209:6227   */\n      add\n        /* \"#utility.yul\":6200:6206   */\n      dup8\n        /* \"#utility.yul\":6140:6228   */\n      tag_79\n      jump\t// in\n    tag_191:\n        /* \"#utility.yul\":6275:6284   */\n      dup2\n        /* \"#utility.yul\":6269:6273   */\n      dup2\n        /* \"#utility.yul\":6265:6285   */\n      sub\n        /* \"#utility.yul\":6260:6262   */\n      0x40\n        /* \"#utility.yul\":6249:6258   */\n      dup4\n        /* \"#utility.yul\":6245:6263   */\n      add\n        /* \"#utility.yul\":6238:6286   */\n      mstore\n        /* \"#utility.yul\":6303:6381   */\n      tag_192\n        /* \"#utility.yul\":6376:6380   */\n      dup2\n        /* \"#utility.yul\":6367:6373   */\n      dup7\n        /* \"#utility.yul\":6303:6381   */\n      tag_83\n      jump\t// in\n    tag_192:\n        /* \"#utility.yul\":6295:6381   */\n      swap1\n      pop\n        /* \"#utility.yul\":6391:6463   */\n      tag_193\n        /* \"#utility.yul\":6459:6461   */\n      0x60\n        /* \"#utility.yul\":6448:6457   */\n      dup4\n        /* \"#utility.yul\":6444:6462   */\n      add\n        /* \"#utility.yul\":6435:6441   */\n      dup6\n        /* \"#utility.yul\":6391:6463   */\n      tag_61\n      jump\t// in\n    tag_193:\n        /* \"#utility.yul\":6473:6540   */\n      tag_194\n        /* \"#utility.yul\":6535:6538   */\n      0x80\n        /* \"#utility.yul\":6524:6533   */\n      dup4\n        /* \"#utility.yul\":6520:6539   */\n      add\n        /* \"#utility.yul\":6511:6517   */\n      dup5\n        /* \"#utility.yul\":6473:6540   */\n      tag_85\n      jump\t// in\n    tag_194:\n        /* \"#utility.yul\":5772:6547   */\n      swap7\n      swap6\n      pop\n      pop\n      pop\n      pop\n      pop\n      pop\n      jump\t// out\n        /* \"#utility.yul\":6553:6734   */\n    tag_86:\n        /* \"#utility.yul\":6693:6726   */\n      0x5072696365206d7573742062652067726561746572207468616e207a65726f00\n        /* \"#utility.yul\":6689:6690   */\n      0x00\n        /* \"#utility.yul\":6681:6687   */\n      dup3\n        /* \"#utility.yul\":6677:6691   */\n      add\n        /* \"#utility.yul\":6670:6727   */\n      mstore\n        /* \"#utility.yul\":6553:6734   */\n      pop\n      jump\t// out\n        /* \"#utility.yul\":6740:7106   */\n    tag_87:\n        /* \"#utility.yul\":6882:6885   */\n      0x00\n        /* \"#utility.yul\":6903:6970   */\n      tag_197\n        /* \"#utility.yul\":6967:6969   */\n      0x1f\n        /* \"#utility.yul\":6962:6965   */\n      dup4\n        /* \"#utility.yul\":6903:6970   */\n      tag_81\n      jump\t// in\n    tag_197:\n        /* \"#utility.yul\":6896:6970   */\n      swap2\n      pop\n        /* \"#utility.yul\":6979:7072   */\n      tag_198\n        /* \"#utility.yul\":7068:7071   */\n      dup3\n        /* \"#utility.yul\":6979:7072   */\n      tag_86\n      jump\t// in\n    tag_198:\n        /* \"#utility.yul\":7097:7099   */\n      0x20\n        /* \"#utility.yul\":7092:7095   */\n      dup3\n        /* \"#utility.yul\":7088:7100   */\n      add\n        /* \"#utility.yul\":7081:7100   */\n      swap1\n      pop\n        /* \"#utility.yul\":6740:7106   */\n      swap2\n      swap1\n      pop\n      jump\t// out\n        /* \"#utility.yul\":7112:7531   */\n    tag_29:\n        /* \"#utility.yul\":7278:7282   */\n      0x00\n        /* \"#utility.yul\":7316:7318   */\n      0x20\n        /* \"#utility.yul\":7305:7314   */\n      dup3\n        /* \"#utility.yul\":7301:7319   */\n      add\n        /* \"#utility.yul\":7293:7319   */\n      swap1\n      pop\n        /* \"#utility.yul\":7365:7374   */\n      dup2\n        /* \"#utility.yul\":7359:7363   */\n      dup2\n        /* \"#utility.yul\":7355:7375   */\n      sub\n        /* \"#utility.yul\":7351:7352   */\n      0x00\n        /* \"#utility.yul\":7340:7349   */\n      dup4\n        /* \"#utility.yul\":7336:7353   */\n      add\n        /* \"#utility.yul\":7329:7376   */\n      mstore\n        /* \"#utility.yul\":7393:7524   */\n      tag_200\n        /* \"#utility.yul\":7519:7523   */\n      dup2\n        /* \"#utility.yul\":7393:7524   */\n      tag_87\n      jump\t// in\n    tag_200:\n        /* \"#utility.yul\":7385:7524   */\n      swap1\n      pop\n        /* \"#utility.yul\":7112:7531   */\n      swap2\n      swap1\n      pop\n      jump\t// out\n        /* \"#utility.yul\":7537:7717   */\n    tag_88:\n        /* \"#utility.yul\":7585:7662   */\n      0x4e487b7100000000000000000000000000000000000000000000000000000000\n        /* \"#utility.yul\":7582:7583   */\n      0x00\n        /* \"#utility.yul\":7575:7663   */\n      mstore\n        /* \"#utility.yul\":7682:7686   */\n      0x11\n        /* \"#utility.yul\":7679:7680   */\n      0x04\n        /* \"#utility.yul\":7672:7687   */\n      mstore\n        /* \"#utility.yul\":7706:7710   */\n      0x24\n        /* \"#utility.yul\":7703:7704   */\n      0x00\n        /* \"#utility.yul\":7696:7711   */\n      revert\n        /* \"#utility.yul\":7723:7956   */\n    tag_31:\n        /* \"#utility.yul\":7762:7765   */\n      0x00\n        /* \"#utility.yul\":7785:7809   */\n      tag_203\n        /* \"#utility.yul\":7803:7808   */\n      dup3\n        /* \"#utility.yul\":7785:7809   */\n      tag_60\n      jump\t// in\n    tag_203:\n        /* \"#utility.yul\":7776:7809   */\n      swap2\n      pop\n        /* \"#utility.yul\":7831:7897   */\n      0xffffffffffffffffffffffffffffffffffffffffffffffffffffffffffffffff\n        /* \"#utility.yul\":7824:7829   */\n      dup3\n        /* \"#utility.yul\":7821:7898   */\n      sub\n        /* \"#utility.yul\":7818:7921   */\n      tag_204\n      jumpi\n        /* \"#utility.yul\":7901:7919   */\n      tag_205\n      tag_88\n      jump\t// in\n    tag_205:\n        /* \"#utility.yul\":7818:7921   */\n    tag_204:\n        /* \"#utility.yul\":7948:7949   */\n      0x01\n        /* \"#utility.yul\":7941:7946   */\n      dup3\n        /* \"#utility.yul\":7937:7950   */\n      add\n        /* \"#utility.yul\":7930:7950   */\n      swap1\n      pop\n        /* \"#utility.yul\":7723:7956   */\n      swap2\n      swap1\n      pop\n      jump\t// out\n        /* \"#utility.yul\":7962:8142   */\n    tag_89:\n        /* \"#utility.yul\":8010:8087   */\n      0x4e487b7100000000000000000000000000000000000000000000000000000000\n        /* \"#utility.yul\":8007:8008   */\n      0x00\n        /* \"#utility.yul\":8000:8088   */\n      mstore\n        /* \"#utility.yul\":8107:8111   */\n      0x22\n        /* \"#utility.yul\":8104:8105   */\n      0x04\n        /* \"#utility.yul\":8097:8112   */\n      mstore\n        /* \"#utility.yul\":8131:8135   */\n      0x24\n        /* \"#utility.yul\":8128:8129   */\n      0x00\n        /* \"#utility.yul\":8121:8136   */\n      revert\n        /* \"#utility.yul\":8148:8468   */\n    tag_37:\n        /* \"#utility.yul\":8192:8198   */\n      0x00\n        /* \"#utility.yul\":8229:8230   */\n      0x02\n        /* \"#utility.yul\":8223:8227   */\n      dup3\n        /* \"#utility.yul\":8219:8231   */\n      div\n        /* \"#utility.yul\":8209:8231   */\n      swap1\n      pop\n        /* \"#utility.yul\":8276:8277   */\n      0x01\n        /* \"#utility.yul\":8270:8274   */\n      dup3\n        /* \"#utility.yul\":8266:8278   */\n      and\n        /* \"#utility.yul\":8297:8315   */\n      dup1\n        /* \"#utility.yul\":8287:8368   */\n      tag_208\n      jumpi\n        /* \"#utility.yul\":8353:8357   */\n      0x7f\n        /* \"#utility.yul\":8345:8351   */\n      dup3\n        /* \"#utility.yul\":8341:8358   */\n      and\n        /* \"#utility.yul\":8331:8358   */\n      swap2\n      pop\n        /* \"#utility.yul\":8287:8368   */\n    tag_208:\n        /* \"#utility.yul\":8415:8417   */\n      0x20\n        /* \"#utility.yul\":8407:8413   */\n      dup3\n        /* \"#utility.yul\":8404:8418   */\n      lt\n        /* \"#utility.yul\":8384:8402   */\n      dup2\n        /* \"#utility.yul\":8381:8419   */\n      sub\n        /* \"#utility.yul\":8378:8462   */\n      tag_209\n      jumpi\n        /* \"#utility.yul\":8434:8452   */\n      tag_210\n      tag_89\n      jump\t// in\n    tag_210:\n        /* \"#utility.yul\":8378:8462   */\n    tag_209:\n        /* \"#utility.yul\":8199:8468   */\n      pop\n        /* \"#utility.yul\":8148:8468   */\n      swap2\n      swap1\n      pop\n      jump\t// out\n        /* \"#utility.yul\":8474:8615   */\n    tag_90:\n        /* \"#utility.yul\":8523:8527   */\n      0x00\n        /* \"#utility.yul\":8546:8549   */\n      dup2\n        /* \"#utility.yul\":8538:8549   */\n      swap1\n      pop\n        /* \"#utility.yul\":8569:8572   */\n      dup2\n        /* \"#utility.yul\":8566:8567   */\n      0x00\n        /* \"#utility.yul\":8559:8573   */\n      mstore\n        /* \"#utility.yul\":8603:8607   */\n      0x20\n        /* \"#utility.yul\":8600:8601   */\n      0x00\n        /* \"#utility.yul\":8590:8608   */\n      keccak256\n        /* \"#utility.yul\":8582:8608   */\n      swap1\n      pop\n        /* \"#utility.yul\":8474:8615   */\n      swap2\n      swap1\n      pop\n      jump\t// out\n        /* \"#utility.yul\":8621:8714   */\n    tag_91:\n        /* \"#utility.yul\":8658:8664   */\n      0x00\n        /* \"#utility.yul\":8705:8707   */\n      0x20\n        /* \"#utility.yul\":8700:8702   */\n      0x1f\n        /* \"#utility.yul\":8693:8698   */\n      dup4\n        /* \"#utility.yul\":8689:8703   */\n      add\n        /* \"#utility.yul\":8685:8708   */\n      div\n        /* \"#utility.yul\":8675:8708   */\n      swap1\n      pop\n        /* \"#utility.yul\":8621:8714   */\n      swap2\n      swap1\n      pop\n      jump\t// out\n        /* \"#utility.yul\":8720:8827   */\n    tag_92:\n        /* \"#utility.yul\":8764:8772   */\n      0x00\n        /* \"#utility.yul\":8814:8819   */\n      dup3\n        /* \"#utility.yul\":8808:8812   */\n      dup3\n        /* \"#utility.yul\":8804:8820   */\n      shl\n        /* \"#utility.yul\":8783:8820   */\n      swap1\n      pop\n        /* \"#utility.yul\":8720:8827   */\n      swap3\n      swap2\n      pop\n      pop\n      jump\t// out\n        /* \"#utility.yul\":8833:9226   */\n    tag_93:\n        /* \"#utility.yul\":8902:8908   */\n      0x00\n        /* \"#utility.yul\":8952:8953   */\n      0x08\n        /* \"#utility.yul\":8940:8950   */\n      dup4\n        /* \"#utility.yul\":8936:8954   */\n      mul\n        /* \"#utility.yul\":8975:9072   */\n      tag_215\n        /* \"#utility.yul\":9005:9071   */\n      0xffffffffffffffffffffffffffffffffffffffffffffffffffffffffffffffff\n        /* \"#utility.yul\":8994:9003   */\n      dup3\n        /* \"#utility.yul\":8975:9072   */\n      tag_92\n      jump\t// in\n    tag_215:\n        /* \"#utility.yul\":9093:9132   */\n      tag_216\n        /* \"#utility.yul\":9123:9131   */\n      dup7\n        /* \"#utility.yul\":9112:9121   */\n      dup4\n        /* \"#utility.yul\":9093:9132   */\n      tag_92\n      jump\t// in\n    tag_216:\n        /* \"#utility.yul\":9081:9132   */\n      swap6\n      pop\n        /* \"#utility.yul\":9165:9169   */\n      dup1\n        /* \"#utility.yul\":9161:9170   */\n      not\n        /* \"#utility.yul\":9154:9159   */\n      dup5\n        /* \"#utility.yul\":9150:9171   */\n      and\n        /* \"#utility.yul\":9141:9171   */\n      swap4\n      pop\n        /* \"#utility.yul\":9214:9218   */\n      dup1\n        /* \"#utility.yul\":9204:9212   */\n      dup7\n        /* \"#utility.yul\":9200:9219   */\n      and\n        /* \"#utility.yul\":9193:9198   */\n      dup5\n        /* \"#utility.yul\":9190:9220   */\n      or\n        /* \"#utility.yul\":9180:9220   */\n      swap3\n      pop\n        /* \"#utility.yul\":8909:9226   */\n      pop\n      pop\n        /* \"#utility.yul\":8833:9226   */\n      swap4\n      swap3\n      pop\n      pop\n      pop\n      jump\t// out\n        /* \"#utility.yul\":9232:9292   */\n    tag_94:\n        /* \"#utility.yul\":9260:9263   */\n      0x00\n        /* \"#utility.yul\":9281:9286   */\n      dup2\n        /* \"#utility.yul\":9274:9286   */\n      swap1\n      pop\n        /* \"#utility.yul\":9232:9292   */\n      swap2\n      swap1\n      pop\n      jump\t// out\n        /* \"#utility.yul\":9298:9440   */\n    tag_95:\n        /* \"#utility.yul\":9348:9357   */\n      0x00\n        /* \"#utility.yul\":9381:9434   */\n      tag_219\n        /* \"#utility.yul\":9399:9433   */\n      tag_220\n        /* \"#utility.yul\":9408:9432   */\n      tag_221\n        /* \"#utility.yul\":9426:9431   */\n      dup5\n        /* \"#utility.yul\":9408:9432   */\n      tag_60\n      jump\t// in\n    tag_221:\n        /* \"#utility.yul\":9399:9433   */\n      tag_94\n      jump\t// in\n    tag_220:\n        /* \"#utility.yul\":9381:9434   */\n      tag_60\n      jump\t// in\n    tag_219:\n        /* \"#utility.yul\":9368:9434   */\n      swap1\n      pop\n        /* \"#utility.yul\":9298:9440   */\n      swap2\n      swap1\n      pop\n      jump\t// out\n        /* \"#utility.yul\":9446:9521   */\n    tag_96:\n        /* \"#utility.yul\":9489:9492   */\n      0x00\n        /* \"#utility.yul\":9510:9515   */\n      dup2\n        /* \"#utility.yul\":9503:9515   */\n      swap1\n      pop\n        /* \"#utility.yul\":9446:9521   */\n      swap2\n      swap1\n      pop\n      jump\t// out\n        /* \"#utility.yul\":9527:9796   */\n    tag_97:\n        /* \"#utility.yul\":9637:9676   */\n      tag_224\n        /* \"#utility.yul\":9668:9675   */\n      dup4\n        /* \"#utility.yul\":9637:9676   */\n      tag_95\n      jump\t// in\n    tag_224:\n        /* \"#utility.yul\":9698:9789   */\n      tag_225\n        /* \"#utility.yul\":9747:9788   */\n      tag_226\n        /* \"#utility.yul\":9771:9787   */\n      dup3\n        /* \"#utility.yul\":9747:9788   */\n      tag_96\n      jump\t// in\n    tag_226:\n        /* \"#utility.yul\":9739:9745   */\n      dup5\n        /* \"#utility.yul\":9732:9736   */\n      dup5\n        /* \"#utility.yul\":9726:9737   */\n      sload\n        /* \"#utility.yul\":9698:9789   */\n      tag_93\n      jump\t// in\n    tag_225:\n        /* \"#utility.yul\":9692:9696   */\n      dup3\n        /* \"#utility.yul\":9685:9790   */\n      sstore\n        /* \"#utility.yul\":9603:9796   */\n      pop\n        /* \"#utility.yul\":9527:9796   */\n      pop\n      pop\n      pop\n      jump\t// out\n        /* \"#utility.yul\":9802:9875   */\n    tag_98:\n        /* \"#utility.yul\":9847:9850   */\n      0x00\n        /* \"#utility.yul\":9802:9875   */\n      swap1\n      jump\t// out\n        /* \"#utility.yul\":9881:10070   */\n    tag_99:\n        /* \"#utility.yul\":9958:9990   */\n      tag_229\n      tag_98\n      jump\t// in\n    tag_229:\n        /* \"#utility.yul\":9999:10064   */\n      tag_230\n        /* \"#utility.yul\":10057:10063   */\n      dup2\n        /* \"#utility.yul\":10049:10055   */\n      dup5\n        /* \"#utility.yul\":10043:10047   */\n      dup5\n        /* \"#utility.yul\":9999:10064   */\n      tag_97\n      jump\t// in\n    tag_230:\n        /* \"#utility.yul\":9934:10070   */\n      pop\n        /* \"#utility.yul\":9881:10070   */\n      pop\n      pop\n      jump\t// out\n        /* \"#utility.yul\":10076:10262   */\n    tag_100:\n        /* \"#utility.yul\":10136:10256   */\n    tag_232:\n        /* \"#utility.yul\":10153:10156   */\n      dup2\n        /* \"#utility.yul\":10146:10151   */\n      dup2\n        /* \"#utility.yul\":10143:10157   */\n      lt\n        /* \"#utility.yul\":10136:10256   */\n      iszero\n      tag_234\n      jumpi\n        /* \"#utility.yul\":10207:10246   */\n      tag_235\n        /* \"#utility.yul\":10244:10245   */\n      0x00\n        /* \"#utility.yul\":10237:10242   */\n      dup3\n        /* \"#utility.yul\":10207:10246   */\n      tag_99\n      jump\t// in\n    tag_235:\n        /* \"#utility.yul\":10180:10181   */\n      0x01\n        /* \"#utility.yul\":10173:10178   */\n      dup2\n        /* \"#utility.yul\":10169:10182   */\n      add\n        /* \"#utility.yul\":10160:10182   */\n      swap1\n      pop\n        /* \"#utility.yul\":10136:10256   */\n      jump(tag_232)\n    tag_234:\n        /* \"#utility.yul\":10076:10262   */\n      pop\n      pop\n      jump\t// out\n        /* \"#utility.yul\":10268:10811   */\n    tag_101:\n        /* \"#utility.yul\":10369:10371   */\n      0x1f\n        /* \"#utility.yul\":10364:10367   */\n      dup3\n        /* \"#utility.yul\":10361:10372   */\n      gt\n        /* \"#utility.yul\":10358:10804   */\n      iszero\n      tag_237\n      jumpi\n        /* \"#utility.yul\":10403:10441   */\n      tag_238\n        /* \"#utility.yul\":10435:10440   */\n      dup2\n        /* \"#utility.yul\":10403:10441   */\n      tag_90\n      jump\t// in\n    tag_238:\n        /* \"#utility.yul\":10487:10516   */\n      tag_239\n        /* \"#utility.yul\":10505:10515   */\n      dup5\n        /* \"#utility.yul\":10487:10516   */\n      tag_91\n      jump\t// in\n    tag_239:\n        /* \"#utility.yul\":10477:10485   */\n      dup2\n        /* \"#utility.yul\":10473:10517   */\n      add\n        /* \"#utility.yul\":10670:10672   */\n      0x20\n        /* \"#utility.yul\":10658:10668   */\n      dup6\n        /* \"#utility.yul\":10655:10673   */\n      lt\n        /* \"#utility.yul\":10652:10701   */\n      iszero\n      tag_240\n      jumpi\n        /* \"#utility.yul\":10691:10699   */\n      dup2\n        /* \"#utility.yul\":10676:10699   */\n      swap1\n      pop\n        /* \"#utility.yul\":10652:10701   */\n    tag_240:\n        /* \"#utility.yul\":10714:10794   */\n      tag_241\n        /* \"#utility.yul\":10770:10792   */\n      tag_242\n        /* \"#utility.yul\":10788:10791   */\n      dup6\n        /* \"#utility.yul\":10770:10792   */\n      tag_91\n      jump\t// in\n    tag_242:\n        /* \"#utility.yul\":10760:10768   */\n      dup4\n        /* \"#utility.yul\":10756:10793   */\n      add\n        /* \"#utility.yul\":10743:10754   */\n      dup3\n        /* \"#utility.yul\":10714:10794   */\n      tag_100\n      jump\t// in\n    tag_241:\n        /* \"#utility.yul\":10373:10804   */\n      pop\n      pop\n        /* \"#utility.yul\":10358:10804   */\n    tag_237:\n        /* \"#utility.yul\":10268:10811   */\n      pop\n      pop\n      pop\n      jump\t// out\n        /* \"#utility.yul\":10817:10934   */\n    tag_102:\n        /* \"#utility.yul\":10871:10879   */\n      0x00\n        /* \"#utility.yul\":10921:10926   */\n      dup3\n        /* \"#utility.yul\":10915:10919   */\n      dup3\n        /* \"#utility.yul\":10911:10927   */\n      shr\n        /* \"#utility.yul\":10890:10927   */\n      swap1\n      pop\n        /* \"#utility.yul\":10817:10934   */\n      swap3\n      swap2\n      pop\n      pop\n      jump\t// out\n        /* \"#utility.yul\":10940:11109   */\n    tag_103:\n        /* \"#utility.yul\":10984:10990   */\n      0x00\n        /* \"#utility.yul\":11017:11068   */\n      tag_245\n        /* \"#utility.yul\":11065:11066   */\n      0x00\n        /* \"#utility.yul\":11061:11067   */\n      not\n        /* \"#utility.yul\":11053:11058   */\n      dup5\n        /* \"#utility.yul\":11050:11051   */\n      0x08\n        /* \"#utility.yul\":11046:11059   */\n      mul\n        /* \"#utility.yul\":11017:11068   */\n      tag_102\n      jump\t// in\n    tag_245:\n        /* \"#utility.yul\":11013:11069   */\n      not\n        /* \"#utility.yul\":11098:11102   */\n      dup1\n        /* \"#utility.yul\":11092:11096   */\n      dup4\n        /* \"#utility.yul\":11088:11103   */\n      and\n        /* \"#utility.yul\":11078:11103   */\n      swap2\n      pop\n        /* \"#utility.yul\":10991:11109   */\n      pop\n        /* \"#utility.yul\":10940:11109   */\n      swap3\n      swap2\n      pop\n      pop\n      jump\t// out\n        /* \"#utility.yul\":11114:11409   */\n    tag_104:\n        /* \"#utility.yul\":11190:11194   */\n      0x00\n        /* \"#utility.yul\":11336:11365   */\n      tag_247\n        /* \"#utility.yul\":11361:11364   */\n      dup4\n        /* \"#utility.yul\":11355:11359   */\n      dup4\n        /* \"#utility.yul\":11336:11365   */\n      tag_103\n      jump\t// in\n    tag_247:\n        /* \"#utility.yul\":11328:11365   */\n      swap2\n      pop\n        /* \"#utility.yul\":11398:11401   */\n      dup3\n        /* \"#utility.yul\":11395:11396   */\n      0x02\n        /* \"#utility.yul\":11391:11402   */\n      mul\n        /* \"#utility.yul\":11385:11389   */\n      dup3\n        /* \"#utility.yul\":11382:11403   */\n      or\n        /* \"#utility.yul\":11374:11403   */\n      swap1\n      pop\n        /* \"#utility.yul\":11114:11409   */\n      swap3\n      swap2\n      pop\n      pop\n      jump\t// out\n        /* \"#utility.yul\":11414:12809   */\n    tag_33:\n        /* \"#utility.yul\":11531:11568   */\n      tag_249\n        /* \"#utility.yul\":11564:11567   */\n      dup3\n        /* \"#utility.yul\":11531:11568   */\n      tag_80\n      jump\t// in\n    tag_249:\n        /* \"#utility.yul\":11633:11651   */\n      0xffffffffffffffff\n        /* \"#utility.yul\":11625:11631   */\n      dup2\n        /* \"#utility.yul\":11622:11652   */\n      gt\n        /* \"#utility.yul\":11619:11675   */\n      iszero\n      tag_250\n      jumpi\n        /* \"#utility.yul\":11655:11673   */\n      tag_251\n      tag_68\n      jump\t// in\n    tag_251:\n        /* \"#utility.yul\":11619:11675   */\n    tag_250:\n        /* \"#utility.yul\":11699:11737   */\n      tag_252\n        /* \"#utility.yul\":11731:11735   */\n      dup3\n        /* \"#utility.yul\":11725:11736   */\n      sload\n        /* \"#utility.yul\":11699:11737   */\n      tag_37\n      jump\t// in\n    tag_252:\n        /* \"#utility.yul\":11784:11851   */\n      tag_253\n        /* \"#utility.yul\":11844:11850   */\n      dup3\n        /* \"#utility.yul\":11836:11842   */\n      dup3\n        /* \"#utility.yul\":11830:11834   */\n      dup6\n        /* \"#utility.yul\":11784:11851   */\n      tag_101\n      jump\t// in\n    tag_253:\n        /* \"#utility.yul\":11878:11879   */\n      0x00\n        /* \"#utility.yul\":11902:11906   */\n      0x20\n        /* \"#utility.yul\":11889:11906   */\n      swap1\n      pop\n        /* \"#utility.yul\":11934:11936   */\n      0x1f\n        /* \"#utility.yul\":11926:11932   */\n      dup4\n        /* \"#utility.yul\":11923:11937   */\n      gt\n        /* \"#utility.yul\":11951:11952   */\n      0x01\n        /* \"#utility.yul\":11946:12564   */\n      dup2\n      eq\n      tag_255\n      jumpi\n        /* \"#utility.yul\":12608:12609   */\n      0x00\n        /* \"#utility.yul\":12625:12631   */\n      dup5\n        /* \"#utility.yul\":12622:12699   */\n      iszero\n      tag_256\n      jumpi\n        /* \"#utility.yul\":12674:12683   */\n      dup3\n        /* \"#utility.yul\":12669:12672   */\n      dup8\n        /* \"#utility.yul\":12665:12684   */\n      add\n        /* \"#utility.yul\":12659:12685   */\n      mload\n        /* \"#utility.yul\":12650:12685   */\n      swap1\n      pop\n        /* \"#utility.yul\":12622:12699   */\n    tag_256:\n        /* \"#utility.yul\":12725:12792   */\n      tag_257\n        /* \"#utility.yul\":12785:12791   */\n      dup6\n        /* \"#utility.yul\":12778:12783   */\n      dup3\n        /* \"#utility.yul\":12725:12792   */\n      tag_104\n      jump\t// in\n    tag_257:\n        /* \"#utility.yul\":12719:12723   */\n      dup7\n        /* \"#utility.yul\":12712:12793   */\n      sstore\n        /* \"#utility.yul\":12581:12803   */\n      pop\n        /* \"#utility.yul\":11916:12803   */\n      jump(tag_254)\n        /* \"#utility.yul\":11946:12564   */\n    tag_255:\n        /* \"#utility.yul\":11998:12002   */\n      0x1f\n        /* \"#utility.yul\":11994:12003   */\n      not\n        /* \"#utility.yul\":11986:11992   */\n      dup5\n        /* \"#utility.yul\":11982:12004   */\n      and\n        /* \"#utility.yul\":12032:12069   */\n      tag_258\n        /* \"#utility.yul\":12064:12068   */\n      dup7\n        /* \"#utility.yul\":12032:12069   */\n      tag_90\n      jump\t// in\n    tag_258:\n        /* \"#utility.yul\":12091:12092   */\n      0x00\n        /* \"#utility.yul\":12105:12313   */\n    tag_259:\n        /* \"#utility.yul\":12119:12126   */\n      dup3\n        /* \"#utility.yul\":12116:12117   */\n      dup2\n        /* \"#utility.yul\":12113:12127   */\n      lt\n        /* \"#utility.yul\":12105:12313   */\n      iszero\n      tag_261\n      jumpi\n        /* \"#utility.yul\":12198:12207   */\n      dup5\n        /* \"#utility.yul\":12193:12196   */\n      dup10\n        /* \"#utility.yul\":12189:12208   */\n      add\n        /* \"#utility.yul\":12183:12209   */\n      mload\n        /* \"#utility.yul\":12175:12181   */\n      dup3\n        /* \"#utility.yul\":12168:12210   */\n      sstore\n        /* \"#utility.yul\":12249:12250   */\n      0x01\n        /* \"#utility.yul\":12241:12247   */\n      dup3\n        /* \"#utility.yul\":12237:12251   */\n      add\n        /* \"#utility.yul\":12227:12251   */\n      swap2\n      pop\n        /* \"#utility.yul\":12296:12298   */\n      0x20\n        /* \"#utility.yul\":12285:12294   */\n      dup6\n        /* \"#utility.yul\":12281:12299   */\n      add\n        /* \"#utility.yul\":12268:12299   */\n      swap5\n      pop\n        /* \"#utility.yul\":12142:12146   */\n      0x20\n        /* \"#utility.yul\":12139:12140   */\n      dup2\n        /* \"#utility.yul\":12135:12147   */\n      add\n        /* \"#utility.yul\":12130:12147   */\n      swap1\n      pop\n        /* \"#utility.yul\":12105:12313   */\n      jump(tag_259)\n    tag_261:\n        /* \"#utility.yul\":12341:12347   */\n      dup7\n        /* \"#utility.yul\":12332:12339   */\n      dup4\n        /* \"#utility.yul\":12329:12348   */\n      lt\n        /* \"#utility.yul\":12326:12505   */\n      iszero\n      tag_262\n      jumpi\n        /* \"#utility.yul\":12399:12408   */\n      dup5\n        /* \"#utility.yul\":12394:12397   */\n      dup10\n        /* \"#utility.yul\":12390:12409   */\n      add\n        /* \"#utility.yul\":12384:12410   */\n      mload\n        /* \"#utility.yul\":12442:12490   */\n      tag_263\n        /* \"#utility.yul\":12484:12488   */\n      0x1f\n        /* \"#utility.yul\":12476:12482   */\n      dup10\n        /* \"#utility.yul\":12472:12489   */\n      and\n        /* \"#utility.yul\":12461:12470   */\n      dup3\n        /* \"#utility.yul\":12442:12490   */\n      tag_103\n      jump\t// in\n    tag_263:\n        /* \"#utility.yul\":12434:12440   */\n      dup4\n        /* \"#utility.yul\":12427:12491   */\n      sstore\n        /* \"#utility.yul\":12349:12505   */\n      pop\n        /* \"#utility.yul\":12326:12505   */\n    tag_262:\n        /* \"#utility.yul\":12551:12552   */\n      0x01\n        /* \"#utility.yul\":12547:12548   */\n      0x02\n        /* \"#utility.yul\":12539:12545   */\n      dup9\n        /* \"#utility.yul\":12535:12549   */\n      mul\n        /* \"#utility.yul\":12531:12553   */\n      add\n        /* \"#utility.yul\":12525:12529   */\n      dup9\n        /* \"#utility.yul\":12518:12554   */\n      sstore\n        /* \"#utility.yul\":11953:12564   */\n      pop\n      pop\n      pop\n        /* \"#utility.yul\":11916:12803   */\n    tag_254:\n      pop\n        /* \"#utility.yul\":11506:12809   */\n      pop\n      pop\n      pop\n        /* \"#utility.yul\":11414:12809   */\n      pop\n      pop\n      jump\t// out\n        /* \"#utility.yul\":12815:12911   */\n    tag_105:\n        /* \"#utility.yul\":12852:12859   */\n      0x00\n        /* \"#utility.yul\":12881:12905   */\n      tag_265\n        /* \"#utility.yul\":12899:12904   */\n      dup3\n        /* \"#utility.yul\":12881:12905   */\n      tag_77\n      jump\t// in\n    tag_265:\n        /* \"#utility.yul\":12870:12905   */\n      swap1\n      pop\n        /* \"#utility.yul\":12815:12911   */\n      swap2\n      swap1\n      pop\n      jump\t// out\n        /* \"#utility.yul\":12917:13035   */\n    tag_106:\n        /* \"#utility.yul\":13004:13028   */\n      tag_267\n        /* \"#utility.yul\":13022:13027   */\n      dup2\n        /* \"#utility.yul\":13004:13028   */\n      tag_105\n      jump\t// in\n    tag_267:\n        /* \"#utility.yul\":12999:13002   */\n      dup3\n        /* \"#utility.yul\":12992:13029   */\n      mstore\n        /* \"#utility.yul\":12917:13035   */\n      pop\n      pop\n      jump\t// out\n        /* \"#utility.yul\":13041:13685   */\n    tag_35:\n        /* \"#utility.yul\":13238:13242   */\n      0x00\n        /* \"#utility.yul\":13276:13279   */\n      0x80\n        /* \"#utility.yul\":13265:13274   */\n      dup3\n        /* \"#utility.yul\":13261:13280   */\n      add\n        /* \"#utility.yul\":13253:13280   */\n      swap1\n      pop\n        /* \"#utility.yul\":13290:13361   */\n      tag_269\n        /* \"#utility.yul\":13358:13359   */\n      0x00\n        /* \"#utility.yul\":13347:13356   */\n      dup4\n        /* \"#utility.yul\":13343:13360   */\n      add\n        /* \"#utility.yul\":13334:13340   */\n      dup8\n        /* \"#utility.yul\":13290:13361   */\n      tag_61\n      jump\t// in\n    tag_269:\n        /* \"#utility.yul\":13371:13443   */\n      tag_270\n        /* \"#utility.yul\":13439:13441   */\n      0x20\n        /* \"#utility.yul\":13428:13437   */\n      dup4\n        /* \"#utility.yul\":13424:13442   */\n      add\n        /* \"#utility.yul\":13415:13421   */\n      dup7\n        /* \"#utility.yul\":13371:13443   */\n      tag_106\n      jump\t// in\n    tag_270:\n        /* \"#utility.yul\":13490:13499   */\n      dup2\n        /* \"#utility.yul\":13484:13488   */\n      dup2\n        /* \"#utility.yul\":13480:13500   */\n      sub\n        /* \"#utility.yul\":13475:13477   */\n      0x40\n        /* \"#utility.yul\":13464:13473   */\n      dup4\n        /* \"#utility.yul\":13460:13478   */\n      add\n        /* \"#utility.yul\":13453:13501   */\n      mstore\n        /* \"#utility.yul\":13518:13596   */\n      tag_271\n        /* \"#utility.yul\":13591:13595   */\n      dup2\n        /* \"#utility.yul\":13582:13588   */\n      dup6\n        /* \"#utility.yul\":13518:13596   */\n      tag_83\n      jump\t// in\n    tag_271:\n        /* \"#utility.yul\":13510:13596   */\n      swap1\n      pop\n        /* \"#utility.yul\":13606:13678   */\n      tag_272\n        /* \"#utility.yul\":13674:13676   */\n      0x60\n        /* \"#utility.yul\":13663:13672   */\n      dup4\n        /* \"#utility.yul\":13659:13677   */\n      add\n        /* \"#utility.yul\":13650:13656   */\n      dup5\n        /* \"#utility.yul\":13606:13678   */\n      tag_61\n      jump\t// in\n    tag_272:\n        /* \"#utility.yul\":13041:13685   */\n      swap6\n      swap5\n      pop\n      pop\n      pop\n      pop\n      pop\n      jump\t// out\n        /* \"#utility.yul\":13691:13860   */\n    tag_107:\n        /* \"#utility.yul\":13831:13852   */\n      0x4974656d20646f6573206e6f7420657869737400000000000000000000000000\n        /* \"#utility.yul\":13827:13828   */\n      0x00\n        /* \"#utility.yul\":13819:13825   */\n      dup3\n        /* \"#utility.yul\":13815:13829   */\n      add\n        /* \"#utility.yul\":13808:13853   */\n      mstore\n        /* \"#utility.yul\":13691:13860   */\n      pop\n      jump\t// out\n        /* \"#utility.yul\":13866:14232   */\n    tag_108:\n        /* \"#utility.yul\":14008:14011   */\n      0x00\n        /* \"#utility.yul\":14029:14096   */\n      tag_275\n        /* \"#utility.yul\":14093:14095   */\n      0x13\n        /* \"#utility.yul\":14088:14091   */\n      dup4\n        /* \"#utility.yul\":14029:14096   */\n      tag_81\n      jump\t// in\n    tag_275:\n        /* \"#utility.yul\":14022:14096   */\n      swap2\n      pop\n        /* \"#utility.yul\":14105:14198   */\n      tag_276\n        /* \"#utility.yul\":14194:14197   */\n      dup3\n        /* \"#utility.yul\":14105:14198   */\n      tag_107\n      jump\t// in\n    tag_276:\n        /* \"#utility.yul\":14223:14225   */\n      0x20\n        /* \"#utility.yul\":14218:14221   */\n      dup3\n        /* \"#utility.yul\":14214:14226   */\n      add\n        /* \"#utility.yul\":14207:14226   */\n      swap1\n      pop\n        /* \"#utility.yul\":13866:14232   */\n      swap2\n      swap1\n      pop\n      jump\t// out\n        /* \"#utility.yul\":14238:14657   */\n    tag_46:\n        /* \"#utility.yul\":14404:14408   */\n      0x00\n        /* \"#utility.yul\":14442:14444   */\n      0x20\n        /* \"#utility.yul\":14431:14440   */\n      dup3\n        /* \"#utility.yul\":14427:14445   */\n      add\n        /* \"#utility.yul\":14419:14445   */\n      swap1\n      pop\n        /* \"#utility.yul\":14491:14500   */\n      dup2\n        /* \"#utility.yul\":14485:14489   */\n      dup2\n        /* \"#utility.yul\":14481:14501   */\n      sub\n        /* \"#utility.yul\":14477:14478   */\n      0x00\n        /* \"#utility.yul\":14466:14475   */\n      dup4\n        /* \"#utility.yul\":14462:14479   */\n      add\n        /* \"#utility.yul\":14455:14502   */\n      mstore\n        /* \"#utility.yul\":14519:14650   */\n      tag_278\n        /* \"#utility.yul\":14645:14649   */\n      dup2\n        /* \"#utility.yul\":14519:14650   */\n      tag_108\n      jump\t// in\n    tag_278:\n        /* \"#utility.yul\":14511:14650   */\n      swap1\n      pop\n        /* \"#utility.yul\":14238:14657   */\n      swap2\n      swap1\n      pop\n      jump\t// out\n        /* \"#utility.yul\":14663:14833   */\n    tag_109:\n        /* \"#utility.yul\":14803:14825   */\n      0x496e636f72726563742076616c75652073656e74000000000000000000000000\n        /* \"#utility.yul\":14799:14800   */\n      0x00\n        /* \"#utility.yul\":14791:14797   */\n      dup3\n        /* \"#utility.yul\":14787:14801   */\n      add\n        /* \"#utility.yul\":14780:14826   */\n      mstore\n        /* \"#utility.yul\":14663:14833   */\n      pop\n      jump\t// out\n        /* \"#utility.yul\":14839:15205   */\n    tag_110:\n        /* \"#utility.yul\":14981:14984   */\n      0x00\n        /* \"#utility.yul\":15002:15069   */\n      tag_281\n        /* \"#utility.yul\":15066:15068   */\n      0x14\n        /* \"#utility.yul\":15061:15064   */\n      dup4\n        /* \"#utility.yul\":15002:15069   */\n      tag_81\n      jump\t// in\n    tag_281:\n        /* \"#utility.yul\":14995:15069   */\n      swap2\n      pop\n        /* \"#utility.yul\":15078:15171   */\n      tag_282\n        /* \"#utility.yul\":15167:15170   */\n      dup3\n        /* \"#utility.yul\":15078:15171   */\n      tag_109\n      jump\t// in\n    tag_282:\n        /* \"#utility.yul\":15196:15198   */\n      0x20\n        /* \"#utility.yul\":15191:15194   */\n      dup3\n        /* \"#utility.yul\":15187:15199   */\n      add\n        /* \"#utility.yul\":15180:15199   */\n      swap1\n      pop\n        /* \"#utility.yul\":14839:15205   */\n      swap2\n      swap1\n      pop\n      jump\t// out\n        /* \"#utility.yul\":15211:15630   */\n    tag_49:\n        /* \"#utility.yul\":15377:15381   */\n      0x00\n        /* \"#utility.yul\":15415:15417   */\n      0x20\n        /* \"#utility.yul\":15404:15413   */\n      dup3\n        /* \"#utility.yul\":15400:15418   */\n      add\n        /* \"#utility.yul\":15392:15418   */\n      swap1\n      pop\n        /* \"#utility.yul\":15464:15473   */\n      dup2\n        /* \"#utility.yul\":15458:15462   */\n      dup2\n        /* \"#utility.yul\":15454:15474   */\n      sub\n        /* \"#utility.yul\":15450:15451   */\n      0x00\n        /* \"#utility.yul\":15439:15448   */\n      dup4\n        /* \"#utility.yul\":15435:15452   */\n      add\n        /* \"#utility.yul\":15428:15475   */\n      mstore\n        /* \"#utility.yul\":15492:15623   */\n      tag_284\n        /* \"#utility.yul\":15618:15622   */\n      dup2\n        /* \"#utility.yul\":15492:15623   */\n      tag_110\n      jump\t// in\n    tag_284:\n        /* \"#utility.yul\":15484:15623   */\n      swap1\n      pop\n        /* \"#utility.yul\":15211:15630   */\n      swap2\n      swap1\n      pop\n      jump\t// out\n        /* \"#utility.yul\":15636:15803   */\n    tag_111:\n        /* \"#utility.yul\":15776:15795   */\n      0x4974656d20616c726561647920736f6c64000000000000000000000000000000\n        /* \"#utility.yul\":15772:15773   */\n      0x00\n        /* \"#utility.yul\":15764:15770   */\n      dup3\n        /* \"#utility.yul\":15760:15774   */\n      add\n        /* \"#utility.yul\":15753:15796   */\n      mstore\n        /* \"#utility.yul\":15636:15803   */\n      pop\n      jump\t// out\n        /* \"#utility.yul\":15809:16175   */\n    tag_112:\n        /* \"#utility.yul\":15951:15954   */\n      0x00\n        /* \"#utility.yul\":15972:16039   */\n      tag_287\n        /* \"#utility.yul\":16036:16038   */\n      0x11\n        /* \"#utility.yul\":16031:16034   */\n      dup4\n        /* \"#utility.yul\":15972:16039   */\n      tag_81\n      jump\t// in\n    tag_287:\n        /* \"#utility.yul\":15965:16039   */\n      swap2\n      pop\n        /* \"#utility.yul\":16048:16141   */\n      tag_288\n        /* \"#utility.yul\":16137:16140   */\n      dup3\n        /* \"#utility.yul\":16048:16141   */\n      tag_111\n      jump\t// in\n    tag_288:\n        /* \"#utility.yul\":16166:16168   */\n      0x20\n        /* \"#utility.yul\":16161:16164   */\n      dup3\n        /* \"#utility.yul\":16157:16169   */\n      add\n        /* \"#utility.yul\":16150:16169   */\n      swap1\n      pop\n        /* \"#utility.yul\":15809:16175   */\n      swap2\n      swap1\n      pop\n      jump\t// out\n        /* \"#utility.yul\":16181:16600   */\n    tag_52:\n        /* \"#utility.yul\":16347:16351   */\n      0x00\n        /* \"#utility.yul\":16385:16387   */\n      0x20\n        /* \"#utility.yul\":16374:16383   */\n      dup3\n        /* \"#utility.yul\":16370:16388   */\n      add\n        /* \"#utility.yul\":16362:16388   */\n      swap1\n      pop\n        /* \"#utility.yul\":16434:16443   */\n      dup2\n        /* \"#utility.yul\":16428:16432   */\n      dup2\n        /* \"#utility.yul\":16424:16444   */\n      sub\n        /* \"#utility.yul\":16420:16421   */\n      0x00\n        /* \"#utility.yul\":16409:16418   */\n      dup4\n        /* \"#utility.yul\":16405:16422   */\n      add\n        /* \"#utility.yul\":16398:16445   */\n      mstore\n        /* \"#utility.yul\":16462:16593   */\n      tag_290\n        /* \"#utility.yul\":16588:16592   */\n      dup2\n        /* \"#utility.yul\":16462:16593   */\n      tag_112\n      jump\t// in\n    tag_290:\n        /* \"#utility.yul\":16454:16593   */\n      swap1\n      pop\n        /* \"#utility.yul\":16181:16600   */\n      swap2\n      swap1\n      pop\n      jump\t// out\n        /* \"#utility.yul\":16606:16788   */\n    tag_113:\n        /* \"#utility.yul\":16746:16780   */\n      0x53656c6c65722063616e6e6f7420627579207468656972206f776e206974656d\n        /* \"#utility.yul\":16742:16743   */\n      0x00\n        /* \"#utility.yul\":16734:16740   */\n      dup3\n        /* \"#utility.yul\":16730:16744   */\n      add\n        /* \"#utility.yul\":16723:16781   */\n      mstore\n        /* \"#utility.yul\":16606:16788   */\n      pop\n      jump\t// out\n        /* \"#utility.yul\":16794:17160   */\n    tag_114:\n        /* \"#utility.yul\":16936:16939   */\n      0x00\n        /* \"#utility.yul\":16957:17024   */\n      tag_293\n        /* \"#utility.yul\":17021:17023   */\n      0x20\n        /* \"#utility.yul\":17016:17019   */\n      dup4\n        /* \"#utility.yul\":16957:17024   */\n      tag_81\n      jump\t// in\n    tag_293:\n        /* \"#utility.yul\":16950:17024   */\n      swap2\n      pop\n        /* \"#utility.yul\":17033:17126   */\n      tag_294\n        /* \"#utility.yul\":17122:17125   */\n      dup3\n        /* \"#utility.yul\":17033:17126   */\n      tag_113\n      jump\t// in\n    tag_294:\n        /* \"#utility.yul\":17151:17153   */\n      0x20\n        /* \"#utility.yul\":17146:17149   */\n      dup3\n        /* \"#utility.yul\":17142:17154   */\n      add\n        /* \"#utility.yul\":17135:17154   */\n      swap1\n      pop\n        /* \"#utility.yul\":16794:17160   */\n      swap2\n      swap1\n      pop\n      jump\t// out\n        /* \"#utility.yul\":17166:17585   */\n    tag_55:\n        /* \"#utility.yul\":17332:17336   */\n      0x00\n        /* \"#utility.yul\":17370:17372   */\n      0x20\n        /* \"#utility.yul\":17359:17368   */\n      dup3\n        /* \"#utility.yul\":17355:17373   */\n      add\n        /* \"#utility.yul\":17347:17373   */\n      swap1\n      pop\n        /* \"#utility.yul\":17419:17428   */\n      dup2\n        /* \"#utility.yul\":17413:17417   */\n      dup2\n        /* \"#utility.yul\":17409:17429   */\n      sub\n        /* \"#utility.yul\":17405:17406   */\n      0x00\n        /* \"#utility.yul\":17394:17403   */\n      dup4\n        /* \"#utility.yul\":17390:17407   */\n      add\n        /* \"#utility.yul\":17383:17430   */\n      mstore\n        /* \"#utility.yul\":17447:17578   */\n      tag_296\n        /* \"#utility.yul\":17573:17577   */\n      dup2\n        /* \"#utility.yul\":17447:17578   */\n      tag_114\n      jump\t// in\n    tag_296:\n        /* \"#utility.yul\":17439:17578   */\n      swap1\n      pop\n        /* \"#utility.yul\":17166:17585   */\n      swap2\n      swap1\n      pop\n      jump\t// out\n        /* \"#utility.yul\":17591:17733   */\n    tag_115:\n        /* \"#utility.yul\":17641:17650   */\n      0x00\n        /* \"#utility.yul\":17674:17727   */\n      tag_298\n        /* \"#utility.yul\":17692:17726   */\n      tag_299\n        /* \"#utility.yul\":17701:17725   */\n      tag_300\n        /* \"#utility.yul\":17719:17724   */\n      dup5\n        /* \"#utility.yul\":17701:17725   */\n      tag_77\n      jump\t// in\n    tag_300:\n        /* \"#utility.yul\":17692:17726   */\n      tag_94\n      jump\t// in\n    tag_299:\n        /* \"#utility.yul\":17674:17727   */\n      tag_77\n      jump\t// in\n    tag_298:\n        /* \"#utility.yul\":17661:17727   */\n      swap1\n      pop\n        /* \"#utility.yul\":17591:17733   */\n      swap2\n      swap1\n      pop\n      jump\t// out\n        /* \"#utility.yul\":17739:17865   */\n    tag_116:\n        /* \"#utility.yul\":17789:17798   */\n      0x00\n        /* \"#utility.yul\":17822:17859   */\n      tag_302\n        /* \"#utility.yul\":17853:17858   */\n      dup3\n        /* \"#utility.yul\":17822:17859   */\n      tag_115\n      jump\t// in\n    tag_302:\n        /* \"#utility.yul\":17809:17859   */\n      swap1\n      pop\n        /* \"#utility.yul\":17739:17865   */\n      swap2\n      swap1\n      pop\n      jump\t// out\n        /* \"#utility.yul\":17871:18005   */\n    tag_117:\n        /* \"#utility.yul\":17929:17938   */\n      0x00\n        /* \"#utility.yul\":17962:17999   */\n      tag_304\n        /* \"#utility.yul\":17993:17998   */\n      dup3\n        /* \"#utility.yul\":17962:17999   */\n      tag_116\n      jump\t// in\n    tag_304:\n        /* \"#utility.yul\":17949:17999   */\n      swap1\n      pop\n        /* \"#utility.yul\":17871:18005   */\n      swap2\n      swap1\n      pop\n      jump\t// out\n        /* \"#utility.yul\":18011:18158   */\n    tag_118:\n        /* \"#utility.yul\":18106:18151   */\n      tag_306\n        /* \"#utility.yul\":18145:18150   */\n      dup2\n        /* \"#utility.yul\":18106:18151   */\n      tag_117\n      jump\t// in\n    tag_306:\n        /* \"#utility.yul\":18101:18104   */\n      dup3\n        /* \"#utility.yul\":18094:18152   */\n      mstore\n        /* \"#utility.yul\":18011:18158   */\n      pop\n      pop\n      jump\t// out\n        /* \"#utility.yul\":18164:18733   */\n    tag_59:\n        /* \"#utility.yul\":18349:18353   */\n      0x00\n        /* \"#utility.yul\":18387:18390   */\n      0x80\n        /* \"#utility.yul\":18376:18385   */\n      dup3\n        /* \"#utility.yul\":18372:18391   */\n      add\n        /* \"#utility.yul\":18364:18391   */\n      swap1\n      pop\n        /* \"#utility.yul\":18401:18472   */\n      tag_308\n        /* \"#utility.yul\":18469:18470   */\n      0x00\n        /* \"#utility.yul\":18458:18467   */\n      dup4\n        /* \"#utility.yul\":18454:18471   */\n      add\n        /* \"#utility.yul\":18445:18451   */\n      dup8\n        /* \"#utility.yul\":18401:18472   */\n      tag_61\n      jump\t// in\n    tag_308:\n        /* \"#utility.yul\":18482:18554   */\n      tag_309\n        /* \"#utility.yul\":18550:18552   */\n      0x20\n        /* \"#utility.yul\":18539:18548   */\n      dup4\n        /* \"#utility.yul\":18535:18553   */\n      add\n        /* \"#utility.yul\":18526:18532   */\n      dup7\n        /* \"#utility.yul\":18482:18554   */\n      tag_106\n      jump\t// in\n    tag_309:\n        /* \"#utility.yul\":18564:18644   */\n      tag_310\n        /* \"#utility.yul\":18640:18642   */\n      0x40\n        /* \"#utility.yul\":18629:18638   */\n      dup4\n        /* \"#utility.yul\":18625:18643   */\n      add\n        /* \"#utility.yul\":18616:18622   */\n      dup6\n        /* \"#utility.yul\":18564:18644   */\n      tag_118\n      jump\t// in\n    tag_310:\n        /* \"#utility.yul\":18654:18726   */\n      tag_311\n        /* \"#utility.yul\":18722:18724   */\n      0x60\n        /* \"#utility.yul\":18711:18720   */\n      dup4\n        /* \"#utility.yul\":18707:18725   */\n      add\n        /* \"#utility.yul\":18698:18704   */\n      dup5\n        /* \"#utility.yul\":18654:18726   */\n      tag_61\n      jump\t// in\n    tag_311:\n        /* \"#utility.yul\":18164:18733   */\n      swap6\n      swap5\n      pop\n      pop\n      pop\n      pop\n      pop\n      jump\t// out\n\n    auxdata: 0xa2646970667358221220deda9440e0ad333ba63a88f9e7537db3bf93633c50d4d0262a2bee1625beadc764736f6c63430008180033\n}\n",
				"bytecode": {
					"linkReferences": {},
					"object": "60806040525f8055348015610012575f80fd5b50610f9c806100205f395ff3fe60806040526004361061003e575f3560e01c80636bfb0d01146100425780638511c9371461006c578063bfb231d214610094578063d38ea5bf146100d4575b5f80fd5b34801561004d575f80fd5b506100566100f0565b60405161006391906105e2565b60405180910390f35b348015610077575f80fd5b50610092600480360381019061008d9190610772565b6100f5565b005b34801561009f575f80fd5b506100ba60048036038101906100b591906107cc565b610271565b6040516100cb9594939291906108ca565b60405180910390f35b6100ee60048036038101906100e991906107cc565b610354565b005b5f5481565b5f8111610137576040517f08c379a000000000000000000000000000000000000000000000000000000000815260040161012e9061096c565b60405180910390fd5b5f80815480929190610148906109b7565b91905055506040518060a001604052805f5481526020013373ffffffffffffffffffffffffffffffffffffffff1681526020018381526020018281526020015f151581525060015f805481526020019081526020015f205f820151815f01556020820151816001015f6101000a81548173ffffffffffffffffffffffffffffffffffffffff021916908373ffffffffffffffffffffffffffffffffffffffff16021790555060408201518160020190816102029190610bf8565b50606082015181600301556080820151816004015f6101000a81548160ff0219169083151502179055509050507f4e3807e76e8c2a7b6547b6189eba5d3dc4fe2bc48c057e8ec545ec13be8063c55f543384846040516102659493929190610ce7565b60405180910390a15050565b6001602052805f5260405f205f91509050805f015490806001015f9054906101000a900473ffffffffffffffffffffffffffffffffffffffff16908060020180546102bb90610a2b565b80601f01602080910402602001604051908101604052809291908181526020018280546102e790610a2b565b80156103325780601f1061030957610100808354040283529160200191610332565b820191905f5260205f20905b81548152906001019060200180831161031557829003601f168201915b505050505090806003015490806004015f9054906101000a900460ff16905085565b5f60015f8381526020019081526020015f2090505f8211801561037857505f548211155b6103b7576040517f08c379a00000000000000000000000000000000000000000000000000000000081526004016103ae90610d7b565b60405180910390fd5b806003015434146103fd576040517f08c379a00000000000000000000000000000000000000000000000000000000081526004016103f490610de3565b60405180910390fd5b806004015f9054906101000a900460ff161561044e576040517f08c379a000000000000000000000000000000000000000000000000000000000815260040161044590610e4b565b60405180910390fd5b3373ffffffffffffffffffffffffffffffffffffffff16816001015f9054906101000a900473ffffffffffffffffffffffffffffffffffffffff1673ffffffffffffffffffffffffffffffffffffffff16036104df576040517f08c379a00000000000000000000000000000000000000000000000000000000081526004016104d690610eb3565b60405180910390fd5b806001015f9054906101000a900473ffffffffffffffffffffffffffffffffffffffff1673ffffffffffffffffffffffffffffffffffffffff166108fc3490811502906040515f60405180830381858888f19350505050158015610545573d5f803e3d5ffd5b506001816004015f6101000a81548160ff0219169083151502179055507f3e2a5a5ee3a24b1b9d330b0bc0946a7d0eb9c99f453f93a45348a9a8e29a94fb8233836001015f9054906101000a900473ffffffffffffffffffffffffffffffffffffffff1684600301546040516105be9493929190610f23565b60405180910390a15050565b5f819050919050565b6105dc816105ca565b82525050565b5f6020820190506105f55f8301846105d3565b92915050565b5f604051905090565b5f80fd5b5f80fd5b5f80fd5b5f80fd5b5f601f19601f8301169050919050565b7f4e487b71000000000000000000000000000000000000000000000000000000005f52604160045260245ffd5b61065a82610614565b810181811067ffffffffffffffff8211171561067957610678610624565b5b80604052505050565b5f61068b6105fb565b90506106978282610651565b919050565b5f67ffffffffffffffff8211156106b6576106b5610624565b5b6106bf82610614565b9050602081019050919050565b828183375f83830152505050565b5f6106ec6106e78461069c565b610682565b90508281526020810184848401111561070857610707610610565b5b6107138482856106cc565b509392505050565b5f82601f83011261072f5761072e61060c565b5b813561073f8482602086016106da565b91505092915050565b610751816105ca565b811461075b575f80fd5b50565b5f8135905061076c81610748565b92915050565b5f806040838503121561078857610787610604565b5b5f83013567ffffffffffffffff8111156107a5576107a4610608565b5b6107b18582860161071b565b92505060206107c28582860161075e565b9150509250929050565b5f602082840312156107e1576107e0610604565b5b5f6107ee8482850161075e565b91505092915050565b5f73ffffffffffffffffffffffffffffffffffffffff82169050919050565b5f610820826107f7565b9050919050565b61083081610816565b82525050565b5f81519050919050565b5f82825260208201905092915050565b5f5b8381101561086d578082015181840152602081019050610852565b5f8484015250505050565b5f61088282610836565b61088c8185610840565b935061089c818560208601610850565b6108a581610614565b840191505092915050565b5f8115159050919050565b6108c4816108b0565b82525050565b5f60a0820190506108dd5f8301886105d3565b6108ea6020830187610827565b81810360408301526108fc8186610878565b905061090b60608301856105d3565b61091860808301846108bb565b9695505050505050565b7f5072696365206d7573742062652067726561746572207468616e207a65726f005f82015250565b5f610956601f83610840565b915061096182610922565b602082019050919050565b5f6020820190508181035f8301526109838161094a565b9050919050565b7f4e487b71000000000000000000000000000000000000000000000000000000005f52601160045260245ffd5b5f6109c1826105ca565b91507fffffffffffffffffffffffffffffffffffffffffffffffffffffffffffffffff82036109f3576109f261098a565b5b600182019050919050565b7f4e487b71000000000000000000000000000000000000000000000000000000005f52602260045260245ffd5b5f6002820490506001821680610a4257607f821691505b602082108103610a5557610a546109fe565b5b50919050565b5f819050815f5260205f209050919050565b5f6020601f8301049050919050565b5f82821b905092915050565b5f60088302610ab77fffffffffffffffffffffffffffffffffffffffffffffffffffffffffffffffff82610a7c565b610ac18683610a7c565b95508019841693508086168417925050509392505050565b5f819050919050565b5f610afc610af7610af2846105ca565b610ad9565b6105ca565b9050919050565b5f819050919050565b610b1583610ae2565b610b29610b2182610b03565b848454610a88565b825550505050565b5f90565b610b3d610b31565b610b48818484610b0c565b505050565b5b81811015610b6b57610b605f82610b35565b600181019050610b4e565b5050565b601f821115610bb057610b8181610a5b565b610b8a84610a6d565b81016020851015610b99578190505b610bad610ba585610a6d565b830182610b4d565b50505b505050565b5f82821c905092915050565b5f610bd05f1984600802610bb5565b1980831691505092915050565b5f610be88383610bc1565b9150826002028217905092915050565b610c0182610836565b67ffffffffffffffff811115610c1a57610c19610624565b5b610c248254610a2b565b610c2f828285610b6f565b5f60209050601f831160018114610c60575f8415610c4e578287015190505b610c588582610bdd565b865550610cbf565b601f198416610c6e86610a5b565b5f5b82811015610c9557848901518255600182019150602085019450602081019050610c70565b86831015610cb25784890151610cae601f891682610bc1565b8355505b6001600288020188555050505b505050505050565b5f610cd1826107f7565b9050919050565b610ce181610cc7565b82525050565b5f608082019050610cfa5f8301876105d3565b610d076020830186610cd8565b8181036040830152610d198185610878565b9050610d2860608301846105d3565b95945050505050565b7f4974656d20646f6573206e6f74206578697374000000000000000000000000005f82015250565b5f610d65601383610840565b9150610d7082610d31565b602082019050919050565b5f6020820190508181035f830152610d9281610d59565b9050919050565b7f496e636f72726563742076616c75652073656e740000000000000000000000005f82015250565b5f610dcd601483610840565b9150610dd882610d99565b602082019050919050565b5f6020820190508181035f830152610dfa81610dc1565b9050919050565b7f4974656d20616c726561647920736f6c640000000000000000000000000000005f82015250565b5f610e35601183610840565b9150610e4082610e01565b602082019050919050565b5f6020820190508181035f830152610e6281610e29565b9050919050565b7f53656c6c65722063616e6e6f7420627579207468656972206f776e206974656d5f82015250565b5f610e9d602083610840565b9150610ea882610e69565b602082019050919050565b5f6020820190508181035f830152610eca81610e91565b9050919050565b5f610eeb610ee6610ee1846107f7565b610ad9565b6107f7565b9050919050565b5f610efc82610ed1565b9050919050565b5f610f0d82610ef2565b9050919050565b610f1d81610f03565b82525050565b5f608082019050610f365f8301876105d3565b610f436020830186610cd8565b610f506040830185610f14565b610f5d60608301846105d3565b9594505050505056fea2646970667358221220deda9440e0ad333ba63a88f9e7537db3bf93633c50d4d0262a2bee1625beadc764736f6c63430008180033",
					"opcodes": "PUSH1 0x80 PUSH1 0x40 MSTORE PUSH0 DUP1 SSTORE CALLVALUE DUP1 ISZERO PUSH2 0x12 JUMPI PUSH0 DUP1 REVERT JUMPDEST POP PUSH2 0xF9C DUP1 PUSH2 0x20 PUSH0 CODECOPY PUSH0 RETURN INVALID PUSH1 0x80 PUSH1 0x40 MSTORE PUSH1 0x4 CALLDATASIZE LT PUSH2 0x3E JUMPI PUSH0 CALLDATALOAD PUSH1 0xE0 SHR DUP1 PUSH4 0x6BFB0D01 EQ PUSH2 0x42 JUMPI DUP1 PUSH4 0x8511C937 EQ PUSH2 0x6C JUMPI DUP1 PUSH4 0xBFB231D2 EQ PUSH2 0x94 JUMPI DUP1 PUSH4 0xD38EA5BF EQ PUSH2 0xD4 JUMPI JUMPDEST PUSH0 DUP1 REVERT JUMPDEST CALLVALUE DUP1 ISZERO PUSH2 0x4D JUMPI PUSH0 DUP1 REVERT JUMPDEST POP PUSH2 0x56 PUSH2 0xF0 JUMP JUMPDEST PUSH1 0x40 MLOAD PUSH2 0x63 SWAP2 SWAP1 PUSH2 0x5E2 JUMP JUMPDEST PUSH1 0x40 MLOAD DUP1 SWAP2 SUB SWAP1 RETURN JUMPDEST CALLVALUE DUP1 ISZERO PUSH2 0x77 JUMPI PUSH0 DUP1 REVERT JUMPDEST POP PUSH2 0x92 PUSH1 0x4 DUP1 CALLDATASIZE SUB DUP2 ADD SWAP1 PUSH2 0x8D SWAP2 SWAP1 PUSH2 0x772 JUMP JUMPDEST PUSH2 0xF5 JUMP JUMPDEST STOP JUMPDEST CALLVALUE DUP1 ISZERO PUSH2 0x9F JUMPI PUSH0 DUP1 REVERT JUMPDEST POP PUSH2 0xBA PUSH1 0x4 DUP1 CALLDATASIZE SUB DUP2 ADD SWAP1 PUSH2 0xB5 SWAP2 SWAP1 PUSH2 0x7CC JUMP JUMPDEST PUSH2 0x271 JUMP JUMPDEST PUSH1 0x40 MLOAD PUSH2 0xCB SWAP6 SWAP5 SWAP4 SWAP3 SWAP2 SWAP1 PUSH2 0x8CA JUMP JUMPDEST PUSH1 0x40 MLOAD DUP1 SWAP2 SUB SWAP1 RETURN JUMPDEST PUSH2 0xEE PUSH1 0x4 DUP1 CALLDATASIZE SUB DUP2 ADD SWAP1 PUSH2 0xE9 SWAP2 SWAP1 PUSH2 0x7CC JUMP JUMPDEST PUSH2 0x354 JUMP JUMPDEST STOP JUMPDEST PUSH0 SLOAD DUP2 JUMP JUMPDEST PUSH0 DUP2 GT PUSH2 0x137 JUMPI PUSH1 0x40 MLOAD PUSH32 0x8C379A000000000000000000000000000000000000000000000000000000000 DUP2 MSTORE PUSH1 0x4 ADD PUSH2 0x12E SWAP1 PUSH2 0x96C JUMP JUMPDEST PUSH1 0x40 MLOAD DUP1 SWAP2 SUB SWAP1 REVERT JUMPDEST PUSH0 DUP1 DUP2 SLOAD DUP1 SWAP3 SWAP2 SWAP1 PUSH2 0x148 SWAP1 PUSH2 0x9B7 JUMP JUMPDEST SWAP2 SWAP1 POP SSTORE POP PUSH1 0x40 MLOAD DUP1 PUSH1 0xA0 ADD PUSH1 0x40 MSTORE DUP1 PUSH0 SLOAD DUP2 MSTORE PUSH1 0x20 ADD CALLER PUSH20 0xFFFFFFFFFFFFFFFFFFFFFFFFFFFFFFFFFFFFFFFF AND DUP2 MSTORE PUSH1 0x20 ADD DUP4 DUP2 MSTORE PUSH1 0x20 ADD DUP3 DUP2 MSTORE PUSH1 0x20 ADD PUSH0 ISZERO ISZERO DUP2 MSTORE POP PUSH1 0x1 PUSH0 DUP1 SLOAD DUP2 MSTORE PUSH1 0x20 ADD SWAP1 DUP2 MSTORE PUSH1 0x20 ADD PUSH0 KECCAK256 PUSH0 DUP3 ADD MLOAD DUP2 PUSH0 ADD SSTORE PUSH1 0x20 DUP3 ADD MLOAD DUP2 PUSH1 0x1 ADD PUSH0 PUSH2 0x100 EXP DUP2 SLOAD DUP2 PUSH20 0xFFFFFFFFFFFFFFFFFFFFFFFFFFFFFFFFFFFFFFFF MUL NOT AND SWAP1 DUP4 PUSH20 0xFFFFFFFFFFFFFFFFFFFFFFFFFFFFFFFFFFFFFFFF AND MUL OR SWAP1 SSTORE POP PUSH1 0x40 DUP3 ADD MLOAD DUP2 PUSH1 0x2 ADD SWAP1 DUP2 PUSH2 0x202 SWAP2 SWAP1 PUSH2 0xBF8 JUMP JUMPDEST POP PUSH1 0x60 DUP3 ADD MLOAD DUP2 PUSH1 0x3 ADD SSTORE PUSH1 0x80 DUP3 ADD MLOAD DUP2 PUSH1 0x4 ADD PUSH0 PUSH2 0x100 EXP DUP2 SLOAD DUP2 PUSH1 0xFF MUL NOT AND SWAP1 DUP4 ISZERO ISZERO MUL OR SWAP1 SSTORE POP SWAP1 POP POP PUSH32 0x4E3807E76E8C2A7B6547B6189EBA5D3DC4FE2BC48C057E8EC545EC13BE8063C5 PUSH0 SLOAD CALLER DUP5 DUP5 PUSH1 0x40 MLOAD PUSH2 0x265 SWAP5 SWAP4 SWAP3 SWAP2 SWAP1 PUSH2 0xCE7 JUMP JUMPDEST PUSH1 0x40 MLOAD DUP1 SWAP2 SUB SWAP1 LOG1 POP POP JUMP JUMPDEST PUSH1 0x1 PUSH1 0x20 MSTORE DUP1 PUSH0 MSTORE PUSH1 0x40 PUSH0 KECCAK256 PUSH0 SWAP2 POP SWAP1 POP DUP1 PUSH0 ADD SLOAD SWAP1 DUP1 PUSH1 0x1 ADD PUSH0 SWAP1 SLOAD SWAP1 PUSH2 0x100 EXP SWAP1 DIV PUSH20 0xFFFFFFFFFFFFFFFFFFFFFFFFFFFFFFFFFFFFFFFF AND SWAP1 DUP1 PUSH1 0x2 ADD DUP1 SLOAD PUSH2 0x2BB SWAP1 PUSH2 0xA2B JUMP JUMPDEST DUP1 PUSH1 0x1F ADD PUSH1 0x20 DUP1 SWAP2 DIV MUL PUSH1 0x20 ADD PUSH1 0x40 MLOAD SWAP1 DUP2 ADD PUSH1 0x40 MSTORE DUP1 SWAP3 SWAP2 SWAP1 DUP2 DUP2 MSTORE PUSH1 0x20 ADD DUP3 DUP1 SLOAD PUSH2 0x2E7 SWAP1 PUSH2 0xA2B JUMP JUMPDEST DUP1 ISZERO PUSH2 0x332 JUMPI DUP1 PUSH1 0x1F LT PUSH2 0x309 JUMPI PUSH2 0x100 DUP1 DUP4 SLOAD DIV MUL DUP4 MSTORE SWAP2 PUSH1 0x20 ADD SWAP2 PUSH2 0x332 JUMP JUMPDEST DUP3 ADD SWAP2 SWAP1 PUSH0 MSTORE PUSH1 0x20 PUSH0 KECCAK256 SWAP1 JUMPDEST DUP2 SLOAD DUP2 MSTORE SWAP1 PUSH1 0x1 ADD SWAP1 PUSH1 0x20 ADD DUP1 DUP4 GT PUSH2 0x315 JUMPI DUP3 SWAP1 SUB PUSH1 0x1F AND DUP3 ADD SWAP2 JUMPDEST POP POP POP POP POP SWAP1 DUP1 PUSH1 0x3 ADD SLOAD SWAP1 DUP1 PUSH1 0x4 ADD PUSH0 SWAP1 SLOAD SWAP1 PUSH2 0x100 EXP SWAP1 DIV PUSH1 0xFF AND SWAP1 POP DUP6 JUMP JUMPDEST PUSH0 PUSH1 0x1 PUSH0 DUP4 DUP2 MSTORE PUSH1 0x20 ADD SWAP1 DUP2 MSTORE PUSH1 0x20 ADD PUSH0 KECCAK256 SWAP1 POP PUSH0 DUP3 GT DUP1 ISZERO PUSH2 0x378 JUMPI POP PUSH0 SLOAD DUP3 GT ISZERO JUMPDEST PUSH2 0x3B7 JUMPI PUSH1 0x40 MLOAD PUSH32 0x8C379A000000000000000000000000000000000000000000000000000000000 DUP2 MSTORE PUSH1 0x4 ADD PUSH2 0x3AE SWAP1 PUSH2 0xD7B JUMP JUMPDEST PUSH1 0x40 MLOAD DUP1 SWAP2 SUB SWAP1 REVERT JUMPDEST DUP1 PUSH1 0x3 ADD SLOAD CALLVALUE EQ PUSH2 0x3FD JUMPI PUSH1 0x40 MLOAD PUSH32 0x8C379A000000000000000000000000000000000000000000000000000000000 DUP2 MSTORE PUSH1 0x4 ADD PUSH2 0x3F4 SWAP1 PUSH2 0xDE3 JUMP JUMPDEST PUSH1 0x40 MLOAD DUP1 SWAP2 SUB SWAP1 REVERT JUMPDEST DUP1 PUSH1 0x4 ADD PUSH0 SWAP1 SLOAD SWAP1 PUSH2 0x100 EXP SWAP1 DIV PUSH1 0xFF AND ISZERO PUSH2 0x44E JUMPI PUSH1 0x40 MLOAD PUSH32 0x8C379A000000000000000000000000000000000000000000000000000000000 DUP2 MSTORE PUSH1 0x4 ADD PUSH2 0x445 SWAP1 PUSH2 0xE4B JUMP JUMPDEST PUSH1 0x40 MLOAD DUP1 SWAP2 SUB SWAP1 REVERT JUMPDEST CALLER PUSH20 0xFFFFFFFFFFFFFFFFFFFFFFFFFFFFFFFFFFFFFFFF AND DUP2 PUSH1 0x1 ADD PUSH0 SWAP1 SLOAD SWAP1 PUSH2 0x100 EXP SWAP1 DIV PUSH20 0xFFFFFFFFFFFFFFFFFFFFFFFFFFFFFFFFFFFFFFFF AND PUSH20 0xFFFFFFFFFFFFFFFFFFFFFFFFFFFFFFFFFFFFFFFF AND SUB PUSH2 0x4DF JUMPI PUSH1 0x40 MLOAD PUSH32 0x8C379A000000000000000000000000000000000000000000000000000000000 DUP2 MSTORE PUSH1 0x4 ADD PUSH2 0x4D6 SWAP1 PUSH2 0xEB3 JUMP JUMPDEST PUSH1 0x40 MLOAD DUP1 SWAP2 SUB SWAP1 REVERT JUMPDEST DUP1 PUSH1 0x1 ADD PUSH0 SWAP1 SLOAD SWAP1 PUSH2 0x100 EXP SWAP1 DIV PUSH20 0xFFFFFFFFFFFFFFFFFFFFFFFFFFFFFFFFFFFFFFFF AND PUSH20 0xFFFFFFFFFFFFFFFFFFFFFFFFFFFFFFFFFFFFFFFF AND PUSH2 0x8FC CALLVALUE SWAP1 DUP2 ISZERO MUL SWAP1 PUSH1 0x40 MLOAD PUSH0 PUSH1 0x40 MLOAD DUP1 DUP4 SUB DUP2 DUP6 DUP9 DUP9 CALL SWAP4 POP POP POP POP ISZERO DUP1 ISZERO PUSH2 0x545 JUMPI RETURNDATASIZE PUSH0 DUP1 RETURNDATACOPY RETURNDATASIZE PUSH0 REVERT JUMPDEST POP PUSH1 0x1 DUP2 PUSH1 0x4 ADD PUSH0 PUSH2 0x100 EXP DUP2 SLOAD DUP2 PUSH1 0xFF MUL NOT AND SWAP1 DUP4 ISZERO ISZERO MUL OR SWAP1 SSTORE POP PUSH32 0x3E2A5A5EE3A24B1B9D330B0BC0946A7D0EB9C99F453F93A45348A9A8E29A94FB DUP3 CALLER DUP4 PUSH1 0x1 ADD PUSH0 SWAP1 SLOAD SWAP1 PUSH2 0x100 EXP SWAP1 DIV PUSH20 0xFFFFFFFFFFFFFFFFFFFFFFFFFFFFFFFFFFFFFFFF AND DUP5 PUSH1 0x3 ADD SLOAD PUSH1 0x40 MLOAD PUSH2 0x5BE SWAP5 SWAP4 SWAP3 SWAP2 SWAP1 PUSH2 0xF23 JUMP JUMPDEST PUSH1 0x40 MLOAD DUP1 SWAP2 SUB SWAP1 LOG1 POP POP JUMP JUMPDEST PUSH0 DUP2 SWAP1 POP SWAP2 SWAP1 POP JUMP JUMPDEST PUSH2 0x5DC DUP2 PUSH2 0x5CA JUMP JUMPDEST DUP3 MSTORE POP POP JUMP JUMPDEST PUSH0 PUSH1 0x20 DUP3 ADD SWAP1 POP PUSH2 0x5F5 PUSH0 DUP4 ADD DUP5 PUSH2 0x5D3 JUMP JUMPDEST SWAP3 SWAP2 POP POP JUMP JUMPDEST PUSH0 PUSH1 0x40 MLOAD SWAP1 POP SWAP1 JUMP JUMPDEST PUSH0 DUP1 REVERT JUMPDEST PUSH0 DUP1 REVERT JUMPDEST PUSH0 DUP1 REVERT JUMPDEST PUSH0 DUP1 REVERT JUMPDEST PUSH0 PUSH1 0x1F NOT PUSH1 0x1F DUP4 ADD AND SWAP1 POP SWAP2 SWAP1 POP JUMP JUMPDEST PUSH32 0x4E487B7100000000000000000000000000000000000000000000000000000000 PUSH0 MSTORE PUSH1 0x41 PUSH1 0x4 MSTORE PUSH1 0x24 PUSH0 REVERT JUMPDEST PUSH2 0x65A DUP3 PUSH2 0x614 JUMP JUMPDEST DUP2 ADD DUP2 DUP2 LT PUSH8 0xFFFFFFFFFFFFFFFF DUP3 GT OR ISZERO PUSH2 0x679 JUMPI PUSH2 0x678 PUSH2 0x624 JUMP JUMPDEST JUMPDEST DUP1 PUSH1 0x40 MSTORE POP POP POP JUMP JUMPDEST PUSH0 PUSH2 0x68B PUSH2 0x5FB JUMP JUMPDEST SWAP1 POP PUSH2 0x697 DUP3 DUP3 PUSH2 0x651 JUMP JUMPDEST SWAP2 SWAP1 POP JUMP JUMPDEST PUSH0 PUSH8 0xFFFFFFFFFFFFFFFF DUP3 GT ISZERO PUSH2 0x6B6 JUMPI PUSH2 0x6B5 PUSH2 0x624 JUMP JUMPDEST JUMPDEST PUSH2 0x6BF DUP3 PUSH2 0x614 JUMP JUMPDEST SWAP1 POP PUSH1 0x20 DUP2 ADD SWAP1 POP SWAP2 SWAP1 POP JUMP JUMPDEST DUP3 DUP2 DUP4 CALLDATACOPY PUSH0 DUP4 DUP4 ADD MSTORE POP POP POP JUMP JUMPDEST PUSH0 PUSH2 0x6EC PUSH2 0x6E7 DUP5 PUSH2 0x69C JUMP JUMPDEST PUSH2 0x682 JUMP JUMPDEST SWAP1 POP DUP3 DUP2 MSTORE PUSH1 0x20 DUP2 ADD DUP5 DUP5 DUP5 ADD GT ISZERO PUSH2 0x708 JUMPI PUSH2 0x707 PUSH2 0x610 JUMP JUMPDEST JUMPDEST PUSH2 0x713 DUP5 DUP3 DUP6 PUSH2 0x6CC JUMP JUMPDEST POP SWAP4 SWAP3 POP POP POP JUMP JUMPDEST PUSH0 DUP3 PUSH1 0x1F DUP4 ADD SLT PUSH2 0x72F JUMPI PUSH2 0x72E PUSH2 0x60C JUMP JUMPDEST JUMPDEST DUP2 CALLDATALOAD PUSH2 0x73F DUP5 DUP3 PUSH1 0x20 DUP7 ADD PUSH2 0x6DA JUMP JUMPDEST SWAP2 POP POP SWAP3 SWAP2 POP POP JUMP JUMPDEST PUSH2 0x751 DUP2 PUSH2 0x5CA JUMP JUMPDEST DUP2 EQ PUSH2 0x75B JUMPI PUSH0 DUP1 REVERT JUMPDEST POP JUMP JUMPDEST PUSH0 DUP2 CALLDATALOAD SWAP1 POP PUSH2 0x76C DUP2 PUSH2 0x748 JUMP JUMPDEST SWAP3 SWAP2 POP POP JUMP JUMPDEST PUSH0 DUP1 PUSH1 0x40 DUP4 DUP6 SUB SLT ISZERO PUSH2 0x788 JUMPI PUSH2 0x787 PUSH2 0x604 JUMP JUMPDEST JUMPDEST PUSH0 DUP4 ADD CALLDATALOAD PUSH8 0xFFFFFFFFFFFFFFFF DUP2 GT ISZERO PUSH2 0x7A5 JUMPI PUSH2 0x7A4 PUSH2 0x608 JUMP JUMPDEST JUMPDEST PUSH2 0x7B1 DUP6 DUP3 DUP7 ADD PUSH2 0x71B JUMP JUMPDEST SWAP3 POP POP PUSH1 0x20 PUSH2 0x7C2 DUP6 DUP3 DUP7 ADD PUSH2 0x75E JUMP JUMPDEST SWAP2 POP POP SWAP3 POP SWAP3 SWAP1 POP JUMP JUMPDEST PUSH0 PUSH1 0x20 DUP3 DUP5 SUB SLT ISZERO PUSH2 0x7E1 JUMPI PUSH2 0x7E0 PUSH2 0x604 JUMP JUMPDEST JUMPDEST PUSH0 PUSH2 0x7EE DUP5 DUP3 DUP6 ADD PUSH2 0x75E JUMP JUMPDEST SWAP2 POP POP SWAP3 SWAP2 POP POP JUMP JUMPDEST PUSH0 PUSH20 0xFFFFFFFFFFFFFFFFFFFFFFFFFFFFFFFFFFFFFFFF DUP3 AND SWAP1 POP SWAP2 SWAP1 POP JUMP JUMPDEST PUSH0 PUSH2 0x820 DUP3 PUSH2 0x7F7 JUMP JUMPDEST SWAP1 POP SWAP2 SWAP1 POP JUMP JUMPDEST PUSH2 0x830 DUP2 PUSH2 0x816 JUMP JUMPDEST DUP3 MSTORE POP POP JUMP JUMPDEST PUSH0 DUP2 MLOAD SWAP1 POP SWAP2 SWAP1 POP JUMP JUMPDEST PUSH0 DUP3 DUP3 MSTORE PUSH1 0x20 DUP3 ADD SWAP1 POP SWAP3 SWAP2 POP POP JUMP JUMPDEST PUSH0 JUMPDEST DUP4 DUP2 LT ISZERO PUSH2 0x86D JUMPI DUP1 DUP3 ADD MLOAD DUP2 DUP5 ADD MSTORE PUSH1 0x20 DUP2 ADD SWAP1 POP PUSH2 0x852 JUMP JUMPDEST PUSH0 DUP5 DUP5 ADD MSTORE POP POP POP POP JUMP JUMPDEST PUSH0 PUSH2 0x882 DUP3 PUSH2 0x836 JUMP JUMPDEST PUSH2 0x88C DUP2 DUP6 PUSH2 0x840 JUMP JUMPDEST SWAP4 POP PUSH2 0x89C DUP2 DUP6 PUSH1 0x20 DUP7 ADD PUSH2 0x850 JUMP JUMPDEST PUSH2 0x8A5 DUP2 PUSH2 0x614 JUMP JUMPDEST DUP5 ADD SWAP2 POP POP SWAP3 SWAP2 POP POP JUMP JUMPDEST PUSH0 DUP2 ISZERO ISZERO SWAP1 POP SWAP2 SWAP1 POP JUMP JUMPDEST PUSH2 0x8C4 DUP2 PUSH2 0x8B0 JUMP JUMPDEST DUP3 MSTORE POP POP JUMP JUMPDEST PUSH0 PUSH1 0xA0 DUP3 ADD SWAP1 POP PUSH2 0x8DD PUSH0 DUP4 ADD DUP9 PUSH2 0x5D3 JUMP JUMPDEST PUSH2 0x8EA PUSH1 0x20 DUP4 ADD DUP8 PUSH2 0x827 JUMP JUMPDEST DUP2 DUP2 SUB PUSH1 0x40 DUP4 ADD MSTORE PUSH2 0x8FC DUP2 DUP7 PUSH2 0x878 JUMP JUMPDEST SWAP1 POP PUSH2 0x90B PUSH1 0x60 DUP4 ADD DUP6 PUSH2 0x5D3 JUMP JUMPDEST PUSH2 0x918 PUSH1 0x80 DUP4 ADD DUP5 PUSH2 0x8BB JUMP JUMPDEST SWAP7 SWAP6 POP POP POP POP POP POP JUMP JUMPDEST PUSH32 0x5072696365206D7573742062652067726561746572207468616E207A65726F00 PUSH0 DUP3 ADD MSTORE POP JUMP JUMPDEST PUSH0 PUSH2 0x956 PUSH1 0x1F DUP4 PUSH2 0x840 JUMP JUMPDEST SWAP2 POP PUSH2 0x961 DUP3 PUSH2 0x922 JUMP JUMPDEST PUSH1 0x20 DUP3 ADD SWAP1 POP SWAP2 SWAP1 POP JUMP JUMPDEST PUSH0 PUSH1 0x20 DUP3 ADD SWAP1 POP DUP2 DUP2 SUB PUSH0 DUP4 ADD MSTORE PUSH2 0x983 DUP2 PUSH2 0x94A JUMP JUMPDEST SWAP1 POP SWAP2 SWAP1 POP JUMP JUMPDEST PUSH32 0x4E487B7100000000000000000000000000000000000000000000000000000000 PUSH0 MSTORE PUSH1 0x11 PUSH1 0x4 MSTORE PUSH1 0x24 PUSH0 REVERT JUMPDEST PUSH0 PUSH2 0x9C1 DUP3 PUSH2 0x5CA JUMP JUMPDEST SWAP2 POP PUSH32 0xFFFFFFFFFFFFFFFFFFFFFFFFFFFFFFFFFFFFFFFFFFFFFFFFFFFFFFFFFFFFFFFF DUP3 SUB PUSH2 0x9F3 JUMPI PUSH2 0x9F2 PUSH2 0x98A JUMP JUMPDEST JUMPDEST PUSH1 0x1 DUP3 ADD SWAP1 POP SWAP2 SWAP1 POP JUMP JUMPDEST PUSH32 0x4E487B7100000000000000000000000000000000000000000000000000000000 PUSH0 MSTORE PUSH1 0x22 PUSH1 0x4 MSTORE PUSH1 0x24 PUSH0 REVERT JUMPDEST PUSH0 PUSH1 0x2 DUP3 DIV SWAP1 POP PUSH1 0x1 DUP3 AND DUP1 PUSH2 0xA42 JUMPI PUSH1 0x7F DUP3 AND SWAP2 POP JUMPDEST PUSH1 0x20 DUP3 LT DUP2 SUB PUSH2 0xA55 JUMPI PUSH2 0xA54 PUSH2 0x9FE JUMP JUMPDEST JUMPDEST POP SWAP2 SWAP1 POP JUMP JUMPDEST PUSH0 DUP2 SWAP1 POP DUP2 PUSH0 MSTORE PUSH1 0x20 PUSH0 KECCAK256 SWAP1 POP SWAP2 SWAP1 POP JUMP JUMPDEST PUSH0 PUSH1 0x20 PUSH1 0x1F DUP4 ADD DIV SWAP1 POP SWAP2 SWAP1 POP JUMP JUMPDEST PUSH0 DUP3 DUP3 SHL SWAP1 POP SWAP3 SWAP2 POP POP JUMP JUMPDEST PUSH0 PUSH1 0x8 DUP4 MUL PUSH2 0xAB7 PUSH32 0xFFFFFFFFFFFFFFFFFFFFFFFFFFFFFFFFFFFFFFFFFFFFFFFFFFFFFFFFFFFFFFFF DUP3 PUSH2 0xA7C JUMP JUMPDEST PUSH2 0xAC1 DUP7 DUP4 PUSH2 0xA7C JUMP JUMPDEST SWAP6 POP DUP1 NOT DUP5 AND SWAP4 POP DUP1 DUP7 AND DUP5 OR SWAP3 POP POP POP SWAP4 SWAP3 POP POP POP JUMP JUMPDEST PUSH0 DUP2 SWAP1 POP SWAP2 SWAP1 POP JUMP JUMPDEST PUSH0 PUSH2 0xAFC PUSH2 0xAF7 PUSH2 0xAF2 DUP5 PUSH2 0x5CA JUMP JUMPDEST PUSH2 0xAD9 JUMP JUMPDEST PUSH2 0x5CA JUMP JUMPDEST SWAP1 POP SWAP2 SWAP1 POP JUMP JUMPDEST PUSH0 DUP2 SWAP1 POP SWAP2 SWAP1 POP JUMP JUMPDEST PUSH2 0xB15 DUP4 PUSH2 0xAE2 JUMP JUMPDEST PUSH2 0xB29 PUSH2 0xB21 DUP3 PUSH2 0xB03 JUMP JUMPDEST DUP5 DUP5 SLOAD PUSH2 0xA88 JUMP JUMPDEST DUP3 SSTORE POP POP POP POP JUMP JUMPDEST PUSH0 SWAP1 JUMP JUMPDEST PUSH2 0xB3D PUSH2 0xB31 JUMP JUMPDEST PUSH2 0xB48 DUP2 DUP5 DUP5 PUSH2 0xB0C JUMP JUMPDEST POP POP POP JUMP JUMPDEST JUMPDEST DUP2 DUP2 LT ISZERO PUSH2 0xB6B JUMPI PUSH2 0xB60 PUSH0 DUP3 PUSH2 0xB35 JUMP JUMPDEST PUSH1 0x1 DUP2 ADD SWAP1 POP PUSH2 0xB4E JUMP JUMPDEST POP POP JUMP JUMPDEST PUSH1 0x1F DUP3 GT ISZERO PUSH2 0xBB0 JUMPI PUSH2 0xB81 DUP2 PUSH2 0xA5B JUMP JUMPDEST PUSH2 0xB8A DUP5 PUSH2 0xA6D JUMP JUMPDEST DUP2 ADD PUSH1 0x20 DUP6 LT ISZERO PUSH2 0xB99 JUMPI DUP2 SWAP1 POP JUMPDEST PUSH2 0xBAD PUSH2 0xBA5 DUP6 PUSH2 0xA6D JUMP JUMPDEST DUP4 ADD DUP3 PUSH2 0xB4D JUMP JUMPDEST POP POP JUMPDEST POP POP POP JUMP JUMPDEST PUSH0 DUP3 DUP3 SHR SWAP1 POP SWAP3 SWAP2 POP POP JUMP JUMPDEST PUSH0 PUSH2 0xBD0 PUSH0 NOT DUP5 PUSH1 0x8 MUL PUSH2 0xBB5 JUMP JUMPDEST NOT DUP1 DUP4 AND SWAP2 POP POP SWAP3 SWAP2 POP POP JUMP JUMPDEST PUSH0 PUSH2 0xBE8 DUP4 DUP4 PUSH2 0xBC1 JUMP JUMPDEST SWAP2 POP DUP3 PUSH1 0x2 MUL DUP3 OR SWAP1 POP SWAP3 SWAP2 POP POP JUMP JUMPDEST PUSH2 0xC01 DUP3 PUSH2 0x836 JUMP JUMPDEST PUSH8 0xFFFFFFFFFFFFFFFF DUP2 GT ISZERO PUSH2 0xC1A JUMPI PUSH2 0xC19 PUSH2 0x624 JUMP JUMPDEST JUMPDEST PUSH2 0xC24 DUP3 SLOAD PUSH2 0xA2B JUMP JUMPDEST PUSH2 0xC2F DUP3 DUP3 DUP6 PUSH2 0xB6F JUMP JUMPDEST PUSH0 PUSH1 0x20 SWAP1 POP PUSH1 0x1F DUP4 GT PUSH1 0x1 DUP2 EQ PUSH2 0xC60 JUMPI PUSH0 DUP5 ISZERO PUSH2 0xC4E JUMPI DUP3 DUP8 ADD MLOAD SWAP1 POP JUMPDEST PUSH2 0xC58 DUP6 DUP3 PUSH2 0xBDD JUMP JUMPDEST DUP7 SSTORE POP PUSH2 0xCBF JUMP JUMPDEST PUSH1 0x1F NOT DUP5 AND PUSH2 0xC6E DUP7 PUSH2 0xA5B JUMP JUMPDEST PUSH0 JUMPDEST DUP3 DUP2 LT ISZERO PUSH2 0xC95 JUMPI DUP5 DUP10 ADD MLOAD DUP3 SSTORE PUSH1 0x1 DUP3 ADD SWAP2 POP PUSH1 0x20 DUP6 ADD SWAP5 POP PUSH1 0x20 DUP2 ADD SWAP1 POP PUSH2 0xC70 JUMP JUMPDEST DUP7 DUP4 LT ISZERO PUSH2 0xCB2 JUMPI DUP5 DUP10 ADD MLOAD PUSH2 0xCAE PUSH1 0x1F DUP10 AND DUP3 PUSH2 0xBC1 JUMP JUMPDEST DUP4 SSTORE POP JUMPDEST PUSH1 0x1 PUSH1 0x2 DUP9 MUL ADD DUP9 SSTORE POP POP POP JUMPDEST POP POP POP POP POP POP JUMP JUMPDEST PUSH0 PUSH2 0xCD1 DUP3 PUSH2 0x7F7 JUMP JUMPDEST SWAP1 POP SWAP2 SWAP1 POP JUMP JUMPDEST PUSH2 0xCE1 DUP2 PUSH2 0xCC7 JUMP JUMPDEST DUP3 MSTORE POP POP JUMP JUMPDEST PUSH0 PUSH1 0x80 DUP3 ADD SWAP1 POP PUSH2 0xCFA PUSH0 DUP4 ADD DUP8 PUSH2 0x5D3 JUMP JUMPDEST PUSH2 0xD07 PUSH1 0x20 DUP4 ADD DUP7 PUSH2 0xCD8 JUMP JUMPDEST DUP2 DUP2 SUB PUSH1 0x40 DUP4 ADD MSTORE PUSH2 0xD19 DUP2 DUP6 PUSH2 0x878 JUMP JUMPDEST SWAP1 POP PUSH2 0xD28 PUSH1 0x60 DUP4 ADD DUP5 PUSH2 0x5D3 JUMP JUMPDEST SWAP6 SWAP5 POP POP POP POP POP JUMP JUMPDEST PUSH32 0x4974656D20646F6573206E6F7420657869737400000000000000000000000000 PUSH0 DUP3 ADD MSTORE POP JUMP JUMPDEST PUSH0 PUSH2 0xD65 PUSH1 0x13 DUP4 PUSH2 0x840 JUMP JUMPDEST SWAP2 POP PUSH2 0xD70 DUP3 PUSH2 0xD31 JUMP JUMPDEST PUSH1 0x20 DUP3 ADD SWAP1 POP SWAP2 SWAP1 POP JUMP JUMPDEST PUSH0 PUSH1 0x20 DUP3 ADD SWAP1 POP DUP2 DUP2 SUB PUSH0 DUP4 ADD MSTORE PUSH2 0xD92 DUP2 PUSH2 0xD59 JUMP JUMPDEST SWAP1 POP SWAP2 SWAP1 POP JUMP JUMPDEST PUSH32 0x496E636F72726563742076616C75652073656E74000000000000000000000000 PUSH0 DUP3 ADD MSTORE POP JUMP JUMPDEST PUSH0 PUSH2 0xDCD PUSH1 0x14 DUP4 PUSH2 0x840 JUMP JUMPDEST SWAP2 POP PUSH2 0xDD8 DUP3 PUSH2 0xD99 JUMP JUMPDEST PUSH1 0x20 DUP3 ADD SWAP1 POP SWAP2 SWAP1 POP JUMP JUMPDEST PUSH0 PUSH1 0x20 DUP3 ADD SWAP1 POP DUP2 DUP2 SUB PUSH0 DUP4 ADD MSTORE PUSH2 0xDFA DUP2 PUSH2 0xDC1 JUMP JUMPDEST SWAP1 POP SWAP2 SWAP1 POP JUMP JUMPDEST PUSH32 0x4974656D20616C726561647920736F6C64000000000000000000000000000000 PUSH0 DUP3 ADD MSTORE POP JUMP JUMPDEST PUSH0 PUSH2 0xE35 PUSH1 0x11 DUP4 PUSH2 0x840 JUMP JUMPDEST SWAP2 POP PUSH2 0xE40 DUP3 PUSH2 0xE01 JUMP JUMPDEST PUSH1 0x20 DUP3 ADD SWAP1 POP SWAP2 SWAP1 POP JUMP JUMPDEST PUSH0 PUSH1 0x20 DUP3 ADD SWAP1 POP DUP2 DUP2 SUB PUSH0 DUP4 ADD MSTORE PUSH2 0xE62 DUP2 PUSH2 0xE29 JUMP JUMPDEST SWAP1 POP SWAP2 SWAP1 POP JUMP JUMPDEST PUSH32 0x53656C6C65722063616E6E6F7420627579207468656972206F776E206974656D PUSH0 DUP3 ADD MSTORE POP JUMP JUMPDEST PUSH0 PUSH2 0xE9D PUSH1 0x20 DUP4 PUSH2 0x840 JUMP JUMPDEST SWAP2 POP PUSH2 0xEA8 DUP3 PUSH2 0xE69 JUMP JUMPDEST PUSH1 0x20 DUP3 ADD SWAP1 POP SWAP2 SWAP1 POP JUMP JUMPDEST PUSH0 PUSH1 0x20 DUP3 ADD SWAP1 POP DUP2 DUP2 SUB PUSH0 DUP4 ADD MSTORE PUSH2 0xECA DUP2 PUSH2 0xE91 JUMP JUMPDEST SWAP1 POP SWAP2 SWAP1 POP JUMP JUMPDEST PUSH0 PUSH2 0xEEB PUSH2 0xEE6 PUSH2 0xEE1 DUP5 PUSH2 0x7F7 JUMP JUMPDEST PUSH2 0xAD9 JUMP JUMPDEST PUSH2 0x7F7 JUMP JUMPDEST SWAP1 POP SWAP2 SWAP1 POP JUMP JUMPDEST PUSH0 PUSH2 0xEFC DUP3 PUSH2 0xED1 JUMP JUMPDEST SWAP1 POP SWAP2 SWAP1 POP JUMP JUMPDEST PUSH0 PUSH2 0xF0D DUP3 PUSH2 0xEF2 JUMP JUMPDEST SWAP1 POP SWAP2 SWAP1 POP JUMP JUMPDEST PUSH2 0xF1D DUP2 PUSH2 0xF03 JUMP JUMPDEST DUP3 MSTORE POP POP JUMP JUMPDEST PUSH0 PUSH1 0x80 DUP3 ADD SWAP1 POP PUSH2 0xF36 PUSH0 DUP4 ADD DUP8 PUSH2 0x5D3 JUMP JUMPDEST PUSH2 0xF43 PUSH1 0x20 DUP4 ADD DUP7 PUSH2 0xCD8 JUMP JUMPDEST PUSH2 0xF50 PUSH1 0x40 DUP4 ADD DUP6 PUSH2 0xF14 JUMP JUMPDEST PUSH2 0xF5D PUSH1 0x60 DUP4 ADD DUP5 PUSH2 0x5D3 JUMP JUMPDEST SWAP6 SWAP5 POP POP POP POP POP JUMP INVALID LOG2 PUSH5 0x6970667358 0x22 SLT KECCAK256 0xDE 0xDA SWAP5 BLOCKHASH 0xE0 0xAD CALLER EXTCODESIZE 0xA6 GASPRICE DUP9 0xF9 0xE7 MSTORE8 PUSH30 0xB3BF93633C50D4D0262A2BEE1625BEADC764736F6C634300081800330000 "
				},
				"gasEstimates": {
					"creation": {
						"codeDepositCost": "799200",
						"executionCost": "5834",
						"totalCost": "805034"
					},
					"external": {
						"itemCount()": "2402",
						"items(uint256)": "infinite",
						"listItem(string,uint256)": "infinite",
						"purchaseItem(uint256)": "infinite"
					}
				},
				"methodIdentifiers": {
					"itemCount()": "6bfb0d01",
					"items(uint256)": "bfb231d2",
					"listItem(string,uint256)": "8511c937",
					"purchaseItem(uint256)": "d38ea5bf"
				}
			},
			"storageLayout": {
				"storage": [
					{
						"astId": 15,
						"contract": "contracts/Marketplace.sol:Marketplace",
						"label": "itemCount",
						"offset": 0,
						"slot": "0",
						"type": "t_uint256"
					},
					{
						"astId": 20,
						"contract": "contracts/Marketplace.sol:Marketplace",
						"label": "items",
						"offset": 0,
						"slot": "1",
						"type": "t_mapping(t_uint256,t_struct(Item)12_storage)"
					}
				],
				"types": {
					"t_address_payable": {
						"encoding": "inplace",
						"label": "address payable",
						"numberOfBytes": "20"
					},
					"t_bool": {
						"encoding": "inplace",
						"label": "bool",
						"numberOfBytes": "1"
					},
					"t_mapping(t_uint256,t_struct(Item)12_storage)": {
						"encoding": "mapping",
						"key": "t_uint256",
						"label": "mapping(uint256 => struct Marketplace.Item)",
						"numberOfBytes": "32",
						"value": "t_struct(Item)12_storage"
					},
					"t_string_storage": {
						"encoding": "bytes",
						"label": "string",
						"numberOfBytes": "32"
					},
					"t_struct(Item)12_storage": {
						"encoding": "inplace",
						"label": "struct Marketplace.Item",
						"members": [
							{
								"astId": 3,
								"contract": "contracts/Marketplace.sol:Marketplace",
								"label": "id",
								"offset": 0,
								"slot": "0",
								"type": "t_uint256"
							},
							{
								"astId": 5,
								"contract": "contracts/Marketplace.sol:Marketplace",
								"label": "seller",
								"offset": 0,
								"slot": "1",
								"type": "t_address_payable"
							},
							{
								"astId": 7,
								"contract": "contracts/Marketplace.sol:Marketplace",
								"label": "name",
								"offset": 0,
								"slot": "2",
								"type": "t_string_storage"
							},
							{
								"astId": 9,
								"contract": "contracts/Marketplace.sol:Marketplace",
								"label": "price",
								"offset": 0,
								"slot": "3",
								"type": "t_uint256"
							},
							{
								"astId": 11,
								"contract": "contracts/Marketplace.sol:Marketplace",
								"label": "sold",
								"offset": 0,
								"slot": "4",
								"type": "t_bool"
							}
						],
						"numberOfBytes": "160"
					},
					"t_uint256": {
						"encoding": "inplace",
						"label": "uint256",
						"numberOfBytes": "32"
					}
				}
			},
			"userdoc": {
				"kind": "user",
				"methods": {},
				"version": 1
			}
		}
	}
}