{
	"contracts/TaskContract.sol": {
		"TaskContract": {
			"abi": [
				{
					"anonymous": false,
					"inputs": [
						{
							"indexed": false,
							"internalType": "address",
							"name": "recipient",
							"type": "address"
						},
						{
							"indexed": false,
							"internalType": "uint256",
							"name": "taskId",
							"type": "uint256"
						}
					],
					"name": "AddTask",
					"type": "event"
				},
				{
					"anonymous": false,
					"inputs": [
						{
							"indexed": false,
							"internalType": "uint256",
							"name": "taskId",
							"type": "uint256"
						},
						{
							"indexed": false,
							"internalType": "bool",
							"name": "isDeleted",
							"type": "bool"
						}
					],
					"name": "DeleteTask",
					"type": "event"
				},
				{
					"inputs": [
						{
							"internalType": "string",
							"name": "taskText",
							"type": "string"
						},
						{
							"internalType": "bool",
							"name": "isDeleted",
							"type": "bool"
						}
					],
					"name": "addTask",
					"outputs": [],
					"stateMutability": "nonpayable",
					"type": "function"
				},
				{
					"inputs": [
						{
							"internalType": "uint256",
							"name": "taskId",
							"type": "uint256"
						},
						{
							"internalType": "bool",
							"name": "isDeleted",
							"type": "bool"
						}
					],
					"name": "deleteTask",
					"outputs": [],
					"stateMutability": "nonpayable",
					"type": "function"
				},
				{
					"inputs": [],
					"name": "getMyTasks",
					"outputs": [
						{
							"components": [
								{
									"internalType": "uint256",
									"name": "id",
									"type": "uint256"
								},
								{
									"internalType": "address",
									"name": "username",
									"type": "address"
								},
								{
									"internalType": "string",
									"name": "taskText",
									"type": "string"
								},
								{
									"internalType": "bool",
									"name": "isDeleted",
									"type": "bool"
								}
							],
							"internalType": "struct TaskContract.Task[]",
							"name": "",
							"type": "tuple[]"
						}
					],
					"stateMutability": "view",
					"type": "function"
				}
			],
			"devdoc": {
				"kind": "dev",
				"methods": {},
				"version": 1
			},
			"evm": {
				"assembly": "    /* \"contracts/TaskContract.sol\":68:1689  contract TaskContract {... */\n  mstore(0x40, 0x80)\n  callvalue\n  dup1\n  iszero\n  tag_1\n  jumpi\n  0x00\n  dup1\n  revert\ntag_1:\n  pop\n  dataSize(sub_0)\n  dup1\n  dataOffset(sub_0)\n  0x00\n  codecopy\n  0x00\n  return\nstop\n\nsub_0: assembly {\n        /* \"contracts/TaskContract.sol\":68:1689  contract TaskContract {... */\n      mstore(0x40, 0x80)\n      callvalue\n      dup1\n      iszero\n      tag_1\n      jumpi\n      0x00\n      dup1\n      revert\n    tag_1:\n      pop\n      jumpi(tag_2, lt(calldatasize, 0x04))\n      shr(0xe0, calldataload(0x00))\n      dup1\n      0x20df4581\n      eq\n      tag_3\n      jumpi\n      dup1\n      0x6e13f818\n      eq\n      tag_4\n      jumpi\n      dup1\n      0xaaba2907\n      eq\n      tag_5\n      jumpi\n    tag_2:\n      0x00\n      dup1\n      revert\n        /* \"contracts/TaskContract.sol\":543:808  function addTask(string memory taskText, bool isDeleted) external {... */\n    tag_3:\n      tag_6\n      0x04\n      dup1\n      calldatasize\n      sub\n      dup2\n      add\n      swap1\n      tag_7\n      swap2\n      swap1\n      tag_8\n      jump\t// in\n    tag_7:\n      tag_9\n      jump\t// in\n    tag_6:\n      stop\n        /* \"contracts/TaskContract.sol\":855:1418  function getMyTasks() external view returns (Task[] memory) {... */\n    tag_4:\n      tag_10\n      tag_11\n      jump\t// in\n    tag_10:\n      mload(0x40)\n      tag_12\n      swap2\n      swap1\n      tag_13\n      jump\t// in\n    tag_12:\n      mload(0x40)\n      dup1\n      swap2\n      sub\n      swap1\n      return\n        /* \"contracts/TaskContract.sol\":1459:1684  function deleteTask(uint taskId, bool isDeleted) external {... */\n    tag_5:\n      tag_14\n      0x04\n      dup1\n      calldatasize\n      sub\n      dup2\n      add\n      swap1\n      tag_15\n      swap2\n      swap1\n      tag_16\n      jump\t// in\n    tag_15:\n      tag_17\n      jump\t// in\n    tag_14:\n      stop\n        /* \"contracts/TaskContract.sol\":543:808  function addTask(string memory taskText, bool isDeleted) external {... */\n    tag_9:\n        /* \"contracts/TaskContract.sol\":620:631  uint taskId */\n      0x00\n        /* \"contracts/TaskContract.sol\":634:639  tasks */\n      dup1\n        /* \"contracts/TaskContract.sol\":634:646  tasks.length */\n      dup1\n      sload\n      swap1\n      pop\n        /* \"contracts/TaskContract.sol\":620:646  uint taskId = tasks.length */\n      swap1\n      pop\n        /* \"contracts/TaskContract.sol\":657:662  tasks */\n      0x00\n        /* \"contracts/TaskContract.sol\":668:713  Task(taskId, msg.sender, taskText, isDeleted) */\n      mload(0x40)\n      dup1\n      0x80\n      add\n      0x40\n      mstore\n      dup1\n        /* \"contracts/TaskContract.sol\":673:679  taskId */\n      dup4\n        /* \"contracts/TaskContract.sol\":668:713  Task(taskId, msg.sender, taskText, isDeleted) */\n      dup2\n      mstore\n      0x20\n      add\n        /* \"contracts/TaskContract.sol\":681:691  msg.sender */\n      caller\n        /* \"contracts/TaskContract.sol\":668:713  Task(taskId, msg.sender, taskText, isDeleted) */\n      0xffffffffffffffffffffffffffffffffffffffff\n      and\n      dup2\n      mstore\n      0x20\n      add\n        /* \"contracts/TaskContract.sol\":693:701  taskText */\n      dup6\n        /* \"contracts/TaskContract.sol\":668:713  Task(taskId, msg.sender, taskText, isDeleted) */\n      dup2\n      mstore\n      0x20\n      add\n        /* \"contracts/TaskContract.sol\":703:712  isDeleted */\n      dup5\n        /* \"contracts/TaskContract.sol\":668:713  Task(taskId, msg.sender, taskText, isDeleted) */\n      iszero\n      iszero\n      dup2\n      mstore\n      pop\n        /* \"contracts/TaskContract.sol\":657:714  tasks.push(Task(taskId, msg.sender, taskText, isDeleted)) */\n      swap1\n      dup1\n      0x01\n      dup2\n      sload\n      add\n      dup1\n      dup3\n      sstore\n      dup1\n      swap2\n      pop\n      pop\n      0x01\n      swap1\n      sub\n      swap1\n      0x00\n      mstore\n      keccak256(0x00, 0x20)\n      swap1\n      0x04\n      mul\n      add\n      0x00\n      swap1\n      swap2\n      swap1\n      swap2\n      swap1\n      swap2\n      pop\n      0x00\n      dup3\n      add\n      mload\n      dup2\n      0x00\n      add\n      sstore\n      0x20\n      dup3\n      add\n      mload\n      dup2\n      0x01\n      add\n      exp(0x0100, 0x00)\n      dup2\n      sload\n      dup2\n      0xffffffffffffffffffffffffffffffffffffffff\n      mul\n      not\n      and\n      swap1\n      dup4\n      0xffffffffffffffffffffffffffffffffffffffff\n      and\n      mul\n      or\n      swap1\n      sstore\n      pop\n      0x40\n      dup3\n      add\n      mload\n      dup2\n      0x02\n      add\n      swap1\n      dup2\n      tag_20\n      swap2\n      swap1\n      tag_21\n      jump\t// in\n    tag_20:\n      pop\n      0x60\n      dup3\n      add\n      mload\n      dup2\n      0x03\n      add\n      exp(0x0100, 0x00)\n      dup2\n      sload\n      dup2\n      0xff\n      mul\n      not\n      and\n      swap1\n      dup4\n      iszero\n      iszero\n      mul\n      or\n      swap1\n      sstore\n      pop\n      pop\n      pop\n        /* \"contracts/TaskContract.sol\":747:757  msg.sender */\n      caller\n        /* \"contracts/TaskContract.sol\":725:736  taskToOwner */\n      0x01\n        /* \"contracts/TaskContract.sol\":725:744  taskToOwner[taskId] */\n      0x00\n        /* \"contracts/TaskContract.sol\":737:743  taskId */\n      dup4\n        /* \"contracts/TaskContract.sol\":725:744  taskToOwner[taskId] */\n      dup2\n      mstore\n      0x20\n      add\n      swap1\n      dup2\n      mstore\n      0x20\n      add\n      0x00\n      keccak256\n      0x00\n        /* \"contracts/TaskContract.sol\":725:757  taskToOwner[taskId] = msg.sender */\n      0x0100\n      exp\n      dup2\n      sload\n      dup2\n      0xffffffffffffffffffffffffffffffffffffffff\n      mul\n      not\n      and\n      swap1\n      dup4\n      0xffffffffffffffffffffffffffffffffffffffff\n      and\n      mul\n      or\n      swap1\n      sstore\n      pop\n        /* \"contracts/TaskContract.sol\":773:800  AddTask(msg.sender, taskId) */\n      0x1f54e1ba1832d428fbd7e7792beaf62b1fc5a382c207ffd614209c1413e94fda\n        /* \"contracts/TaskContract.sol\":781:791  msg.sender */\n      caller\n        /* \"contracts/TaskContract.sol\":793:799  taskId */\n      dup3\n        /* \"contracts/TaskContract.sol\":773:800  AddTask(msg.sender, taskId) */\n      mload(0x40)\n      tag_22\n      swap3\n      swap2\n      swap1\n      tag_23\n      jump\t// in\n    tag_22:\n      mload(0x40)\n      dup1\n      swap2\n      sub\n      swap1\n      log1\n        /* \"contracts/TaskContract.sol\":609:808  {... */\n      pop\n        /* \"contracts/TaskContract.sol\":543:808  function addTask(string memory taskText, bool isDeleted) external {... */\n      pop\n      pop\n      jump\t// out\n        /* \"contracts/TaskContract.sol\":855:1418  function getMyTasks() external view returns (Task[] memory) {... */\n    tag_11:\n        /* \"contracts/TaskContract.sol\":900:913  Task[] memory */\n      0x60\n        /* \"contracts/TaskContract.sol\":926:949  Task[] memory temporary */\n      0x00\n        /* \"contracts/TaskContract.sol\":963:968  tasks */\n      dup1\n        /* \"contracts/TaskContract.sol\":963:975  tasks.length */\n      dup1\n      sload\n      swap1\n      pop\n        /* \"contracts/TaskContract.sol\":952:976  new Task[](tasks.length) */\n      0xffffffffffffffff\n      dup2\n      gt\n      iszero\n      tag_25\n      jumpi\n      tag_26\n      tag_27\n      jump\t// in\n    tag_26:\n    tag_25:\n      mload(0x40)\n      swap1\n      dup1\n      dup3\n      mstore\n      dup1\n      0x20\n      mul\n      0x20\n      add\n      dup3\n      add\n      0x40\n      mstore\n      dup1\n      iszero\n      tag_28\n      jumpi\n      dup2\n      0x20\n      add\n    tag_29:\n      tag_30\n      tag_31\n      jump\t// in\n    tag_30:\n      dup2\n      mstore\n      0x20\n      add\n      swap1\n      0x01\n      swap1\n      sub\n      swap1\n      dup2\n      tag_29\n      jumpi\n      swap1\n      pop\n    tag_28:\n      pop\n        /* \"contracts/TaskContract.sol\":926:976  Task[] memory temporary = new Task[](tasks.length) */\n      swap1\n      pop\n        /* \"contracts/TaskContract.sol\":987:999  uint counter */\n      0x00\n        /* \"contracts/TaskContract.sol\":1018:1024  uint i */\n      dup1\n        /* \"contracts/TaskContract.sol\":1014:1231  for(uint i=0; i<tasks.length; i++) {... */\n    tag_32:\n        /* \"contracts/TaskContract.sol\":1030:1035  tasks */\n      0x00\n        /* \"contracts/TaskContract.sol\":1030:1042  tasks.length */\n      dup1\n      sload\n      swap1\n      pop\n        /* \"contracts/TaskContract.sol\":1028:1029  i */\n      dup2\n        /* \"contracts/TaskContract.sol\":1028:1042  i<tasks.length */\n      lt\n        /* \"contracts/TaskContract.sol\":1014:1231  for(uint i=0; i<tasks.length; i++) {... */\n      iszero\n      tag_33\n      jumpi\n        /* \"contracts/TaskContract.sol\":1085:1095  msg.sender */\n      caller\n        /* \"contracts/TaskContract.sol\":1067:1095  taskToOwner[i] == msg.sender */\n      0xffffffffffffffffffffffffffffffffffffffff\n      and\n        /* \"contracts/TaskContract.sol\":1067:1078  taskToOwner */\n      0x01\n        /* \"contracts/TaskContract.sol\":1067:1081  taskToOwner[i] */\n      0x00\n        /* \"contracts/TaskContract.sol\":1079:1080  i */\n      dup4\n        /* \"contracts/TaskContract.sol\":1067:1081  taskToOwner[i] */\n      dup2\n      mstore\n      0x20\n      add\n      swap1\n      dup2\n      mstore\n      0x20\n      add\n      0x00\n      keccak256\n      0x00\n      swap1\n      sload\n      swap1\n      0x0100\n      exp\n      swap1\n      div\n      0xffffffffffffffffffffffffffffffffffffffff\n      and\n        /* \"contracts/TaskContract.sol\":1067:1095  taskToOwner[i] == msg.sender */\n      0xffffffffffffffffffffffffffffffffffffffff\n      and\n      eq\n        /* \"contracts/TaskContract.sol\":1067:1126  taskToOwner[i] == msg.sender && tasks[i].isDeleted == false */\n      dup1\n      iszero\n      tag_35\n      jumpi\n      pop\n        /* \"contracts/TaskContract.sol\":1121:1126  false */\n      0x00\n        /* \"contracts/TaskContract.sol\":1099:1126  tasks[i].isDeleted == false */\n      iszero\n      iszero\n        /* \"contracts/TaskContract.sol\":1099:1104  tasks */\n      0x00\n        /* \"contracts/TaskContract.sol\":1105:1106  i */\n      dup3\n        /* \"contracts/TaskContract.sol\":1099:1107  tasks[i] */\n      dup2\n      sload\n      dup2\n      lt\n      tag_36\n      jumpi\n      tag_37\n      tag_38\n      jump\t// in\n    tag_37:\n    tag_36:\n      swap1\n      0x00\n      mstore\n      keccak256(0x00, 0x20)\n      swap1\n      0x04\n      mul\n      add\n        /* \"contracts/TaskContract.sol\":1099:1117  tasks[i].isDeleted */\n      0x03\n      add\n      0x00\n      swap1\n      sload\n      swap1\n      0x0100\n      exp\n      swap1\n      div\n      0xff\n      and\n        /* \"contracts/TaskContract.sol\":1099:1126  tasks[i].isDeleted == false */\n      iszero\n      iszero\n      eq\n        /* \"contracts/TaskContract.sol\":1067:1126  taskToOwner[i] == msg.sender && tasks[i].isDeleted == false */\n    tag_35:\n        /* \"contracts/TaskContract.sol\":1064:1220  if(taskToOwner[i] == msg.sender && tasks[i].isDeleted == false) {... */\n      iszero\n      tag_40\n      jumpi\n        /* \"contracts/TaskContract.sol\":1168:1173  tasks */\n      0x00\n        /* \"contracts/TaskContract.sol\":1174:1175  i */\n      dup2\n        /* \"contracts/TaskContract.sol\":1168:1176  tasks[i] */\n      dup2\n      sload\n      dup2\n      lt\n      tag_41\n      jumpi\n      tag_42\n      tag_38\n      jump\t// in\n    tag_42:\n    tag_41:\n      swap1\n      0x00\n      mstore\n      keccak256(0x00, 0x20)\n      swap1\n      0x04\n      mul\n      add\n        /* \"contracts/TaskContract.sol\":1147:1176  temporary[counter] = tasks[i] */\n      mload(0x40)\n      dup1\n      0x80\n      add\n      0x40\n      mstore\n      swap1\n      dup2\n      0x00\n      dup3\n      add\n      sload\n      dup2\n      mstore\n      0x20\n      add\n      0x01\n      dup3\n      add\n      0x00\n      swap1\n      sload\n      swap1\n      0x0100\n      exp\n      swap1\n      div\n      0xffffffffffffffffffffffffffffffffffffffff\n      and\n      0xffffffffffffffffffffffffffffffffffffffff\n      and\n      0xffffffffffffffffffffffffffffffffffffffff\n      and\n      dup2\n      mstore\n      0x20\n      add\n      0x02\n      dup3\n      add\n      dup1\n      sload\n      tag_44\n      swap1\n      tag_45\n      jump\t// in\n    tag_44:\n      dup1\n      0x1f\n      add\n      0x20\n      dup1\n      swap2\n      div\n      mul\n      0x20\n      add\n      mload(0x40)\n      swap1\n      dup2\n      add\n      0x40\n      mstore\n      dup1\n      swap3\n      swap2\n      swap1\n      dup2\n      dup2\n      mstore\n      0x20\n      add\n      dup3\n      dup1\n      sload\n      tag_46\n      swap1\n      tag_45\n      jump\t// in\n    tag_46:\n      dup1\n      iszero\n      tag_47\n      jumpi\n      dup1\n      0x1f\n      lt\n      tag_48\n      jumpi\n      0x0100\n      dup1\n      dup4\n      sload\n      div\n      mul\n      dup4\n      mstore\n      swap2\n      0x20\n      add\n      swap2\n      jump(tag_47)\n    tag_48:\n      dup3\n      add\n      swap2\n      swap1\n      0x00\n      mstore\n      keccak256(0x00, 0x20)\n      swap1\n    tag_49:\n      dup2\n      sload\n      dup2\n      mstore\n      swap1\n      0x01\n      add\n      swap1\n      0x20\n      add\n      dup1\n      dup4\n      gt\n      tag_49\n      jumpi\n      dup3\n      swap1\n      sub\n      0x1f\n      and\n      dup3\n      add\n      swap2\n    tag_47:\n      pop\n      pop\n      pop\n      pop\n      pop\n      dup2\n      mstore\n      0x20\n      add\n      0x03\n      dup3\n      add\n      0x00\n      swap1\n      sload\n      swap1\n      0x0100\n      exp\n      swap1\n      div\n      0xff\n      and\n      iszero\n      iszero\n      iszero\n      iszero\n      dup2\n      mstore\n      pop\n      pop\n        /* \"contracts/TaskContract.sol\":1147:1156  temporary */\n      dup4\n        /* \"contracts/TaskContract.sol\":1157:1164  counter */\n      dup4\n        /* \"contracts/TaskContract.sol\":1147:1165  temporary[counter] */\n      dup2\n      mload\n      dup2\n      lt\n      tag_50\n      jumpi\n      tag_51\n      tag_38\n      jump\t// in\n    tag_51:\n    tag_50:\n      0x20\n      mul\n      0x20\n      add\n      add\n        /* \"contracts/TaskContract.sol\":1147:1176  temporary[counter] = tasks[i] */\n      dup2\n      swap1\n      mstore\n      pop\n        /* \"contracts/TaskContract.sol\":1195:1204  counter++ */\n      dup2\n      dup1\n      tag_52\n      swap1\n      tag_53\n      jump\t// in\n    tag_52:\n      swap3\n      pop\n      pop\n        /* \"contracts/TaskContract.sol\":1064:1220  if(taskToOwner[i] == msg.sender && tasks[i].isDeleted == false) {... */\n    tag_40:\n        /* \"contracts/TaskContract.sol\":1044:1047  i++ */\n      dup1\n      dup1\n      0x01\n      add\n      swap2\n      pop\n      pop\n        /* \"contracts/TaskContract.sol\":1014:1231  for(uint i=0; i<tasks.length; i++) {... */\n      jump(tag_32)\n    tag_33:\n      pop\n        /* \"contracts/TaskContract.sol\":1243:1263  Task[] memory result */\n      0x00\n        /* \"contracts/TaskContract.sol\":1277:1284  counter */\n      dup2\n        /* \"contracts/TaskContract.sol\":1266:1285  new Task[](counter) */\n      0xffffffffffffffff\n      dup2\n      gt\n      iszero\n      tag_54\n      jumpi\n      tag_55\n      tag_27\n      jump\t// in\n    tag_55:\n    tag_54:\n      mload(0x40)\n      swap1\n      dup1\n      dup3\n      mstore\n      dup1\n      0x20\n      mul\n      0x20\n      add\n      dup3\n      add\n      0x40\n      mstore\n      dup1\n      iszero\n      tag_56\n      jumpi\n      dup2\n      0x20\n      add\n    tag_57:\n      tag_58\n      tag_31\n      jump\t// in\n    tag_58:\n      dup2\n      mstore\n      0x20\n      add\n      swap1\n      0x01\n      swap1\n      sub\n      swap1\n      dup2\n      tag_57\n      jumpi\n      swap1\n      pop\n    tag_56:\n      pop\n        /* \"contracts/TaskContract.sol\":1243:1285  Task[] memory result = new Task[](counter) */\n      swap1\n      pop\n        /* \"contracts/TaskContract.sol\":1300:1306  uint i */\n      0x00\n        /* \"contracts/TaskContract.sol\":1296:1377  for(uint i=0; i<counter; i++) {... */\n    tag_59:\n        /* \"contracts/TaskContract.sol\":1312:1319  counter */\n      dup3\n        /* \"contracts/TaskContract.sol\":1310:1311  i */\n      dup2\n        /* \"contracts/TaskContract.sol\":1310:1319  i<counter */\n      lt\n        /* \"contracts/TaskContract.sol\":1296:1377  for(uint i=0; i<counter; i++) {... */\n      iszero\n      tag_60\n      jumpi\n        /* \"contracts/TaskContract.sol\":1353:1362  temporary */\n      dup4\n        /* \"contracts/TaskContract.sol\":1363:1364  i */\n      dup2\n        /* \"contracts/TaskContract.sol\":1353:1365  temporary[i] */\n      dup2\n      mload\n      dup2\n      lt\n      tag_62\n      jumpi\n      tag_63\n      tag_38\n      jump\t// in\n    tag_63:\n    tag_62:\n      0x20\n      mul\n      0x20\n      add\n      add\n      mload\n        /* \"contracts/TaskContract.sol\":1341:1347  result */\n      dup3\n        /* \"contracts/TaskContract.sol\":1348:1349  i */\n      dup3\n        /* \"contracts/TaskContract.sol\":1341:1350  result[i] */\n      dup2\n      mload\n      dup2\n      lt\n      tag_64\n      jumpi\n      tag_65\n      tag_38\n      jump\t// in\n    tag_65:\n    tag_64:\n      0x20\n      mul\n      0x20\n      add\n      add\n        /* \"contracts/TaskContract.sol\":1341:1365  result[i] = temporary[i] */\n      dup2\n      swap1\n      mstore\n      pop\n        /* \"contracts/TaskContract.sol\":1321:1324  i++ */\n      dup1\n      dup1\n      0x01\n      add\n      swap2\n      pop\n      pop\n        /* \"contracts/TaskContract.sol\":1296:1377  for(uint i=0; i<counter; i++) {... */\n      jump(tag_59)\n    tag_60:\n      pop\n        /* \"contracts/TaskContract.sol\":1404:1410  result */\n      dup1\n        /* \"contracts/TaskContract.sol\":1397:1410  return result */\n      swap4\n      pop\n      pop\n      pop\n      pop\n        /* \"contracts/TaskContract.sol\":855:1418  function getMyTasks() external view returns (Task[] memory) {... */\n      swap1\n      jump\t// out\n        /* \"contracts/TaskContract.sol\":1459:1684  function deleteTask(uint taskId, bool isDeleted) external {... */\n    tag_17:\n        /* \"contracts/TaskContract.sol\":1554:1564  msg.sender */\n      caller\n        /* \"contracts/TaskContract.sol\":1531:1564  taskToOwner[taskId] == msg.sender */\n      0xffffffffffffffffffffffffffffffffffffffff\n      and\n        /* \"contracts/TaskContract.sol\":1531:1542  taskToOwner */\n      0x01\n        /* \"contracts/TaskContract.sol\":1531:1550  taskToOwner[taskId] */\n      0x00\n        /* \"contracts/TaskContract.sol\":1543:1549  taskId */\n      dup5\n        /* \"contracts/TaskContract.sol\":1531:1550  taskToOwner[taskId] */\n      dup2\n      mstore\n      0x20\n      add\n      swap1\n      dup2\n      mstore\n      0x20\n      add\n      0x00\n      keccak256\n      0x00\n      swap1\n      sload\n      swap1\n      0x0100\n      exp\n      swap1\n      div\n      0xffffffffffffffffffffffffffffffffffffffff\n      and\n        /* \"contracts/TaskContract.sol\":1531:1564  taskToOwner[taskId] == msg.sender */\n      0xffffffffffffffffffffffffffffffffffffffff\n      and\n      sub\n        /* \"contracts/TaskContract.sol\":1528:1677  if(taskToOwner[taskId] == msg.sender) {... */\n      tag_67\n      jumpi\n        /* \"contracts/TaskContract.sol\":1607:1616  isDeleted */\n      dup1\n        /* \"contracts/TaskContract.sol\":1581:1586  tasks */\n      0x00\n        /* \"contracts/TaskContract.sol\":1587:1593  taskId */\n      dup4\n        /* \"contracts/TaskContract.sol\":1581:1594  tasks[taskId] */\n      dup2\n      sload\n      dup2\n      lt\n      tag_68\n      jumpi\n      tag_69\n      tag_38\n      jump\t// in\n    tag_69:\n    tag_68:\n      swap1\n      0x00\n      mstore\n      keccak256(0x00, 0x20)\n      swap1\n      0x04\n      mul\n      add\n        /* \"contracts/TaskContract.sol\":1581:1604  tasks[taskId].isDeleted */\n      0x03\n      add\n      0x00\n        /* \"contracts/TaskContract.sol\":1581:1616  tasks[taskId].isDeleted = isDeleted */\n      0x0100\n      exp\n      dup2\n      sload\n      dup2\n      0xff\n      mul\n      not\n      and\n      swap1\n      dup4\n      iszero\n      iszero\n      mul\n      or\n      swap1\n      sstore\n      pop\n        /* \"contracts/TaskContract.sol\":1636:1665  DeleteTask(taskId, isDeleted) */\n      0xf88a35c3d2016c409a46570b994a17b408dbc83c14a03f521512d50b85386d06\n        /* \"contracts/TaskContract.sol\":1647:1653  taskId */\n      dup3\n        /* \"contracts/TaskContract.sol\":1655:1664  isDeleted */\n      dup3\n        /* \"contracts/TaskContract.sol\":1636:1665  DeleteTask(taskId, isDeleted) */\n      mload(0x40)\n      tag_71\n      swap3\n      swap2\n      swap1\n      tag_72\n      jump\t// in\n    tag_71:\n      mload(0x40)\n      dup1\n      swap2\n      sub\n      swap1\n      log1\n        /* \"contracts/TaskContract.sol\":1528:1677  if(taskToOwner[taskId] == msg.sender) {... */\n    tag_67:\n        /* \"contracts/TaskContract.sol\":1459:1684  function deleteTask(uint taskId, bool isDeleted) external {... */\n      pop\n      pop\n      jump\t// out\n    tag_31:\n      mload(0x40)\n      dup1\n      0x80\n      add\n      0x40\n      mstore\n      dup1\n      0x00\n      dup2\n      mstore\n      0x20\n      add\n      and(0xffffffffffffffffffffffffffffffffffffffff, 0x00)\n      dup2\n      mstore\n      0x20\n      add\n      0x60\n      dup2\n      mstore\n      0x20\n      add\n      iszero(iszero(0x00))\n      dup2\n      mstore\n      pop\n      swap1\n      jump\t// out\n        /* \"#utility.yul\":7:82   */\n    tag_73:\n        /* \"#utility.yul\":40:46   */\n      0x00\n        /* \"#utility.yul\":73:75   */\n      0x40\n        /* \"#utility.yul\":67:76   */\n      mload\n        /* \"#utility.yul\":57:76   */\n      swap1\n      pop\n        /* \"#utility.yul\":7:82   */\n      swap1\n      jump\t// out\n        /* \"#utility.yul\":88:205   */\n    tag_74:\n        /* \"#utility.yul\":197:198   */\n      0x00\n        /* \"#utility.yul\":194:195   */\n      dup1\n        /* \"#utility.yul\":187:199   */\n      revert\n        /* \"#utility.yul\":211:328   */\n    tag_75:\n        /* \"#utility.yul\":320:321   */\n      0x00\n        /* \"#utility.yul\":317:318   */\n      dup1\n        /* \"#utility.yul\":310:322   */\n      revert\n        /* \"#utility.yul\":334:451   */\n    tag_76:\n        /* \"#utility.yul\":443:444   */\n      0x00\n        /* \"#utility.yul\":440:441   */\n      dup1\n        /* \"#utility.yul\":433:445   */\n      revert\n        /* \"#utility.yul\":457:574   */\n    tag_77:\n        /* \"#utility.yul\":566:567   */\n      0x00\n        /* \"#utility.yul\":563:564   */\n      dup1\n        /* \"#utility.yul\":556:568   */\n      revert\n        /* \"#utility.yul\":580:682   */\n    tag_78:\n        /* \"#utility.yul\":621:627   */\n      0x00\n        /* \"#utility.yul\":672:674   */\n      0x1f\n        /* \"#utility.yul\":668:675   */\n      not\n        /* \"#utility.yul\":663:665   */\n      0x1f\n        /* \"#utility.yul\":656:661   */\n      dup4\n        /* \"#utility.yul\":652:666   */\n      add\n        /* \"#utility.yul\":648:676   */\n      and\n        /* \"#utility.yul\":638:676   */\n      swap1\n      pop\n        /* \"#utility.yul\":580:682   */\n      swap2\n      swap1\n      pop\n      jump\t// out\n        /* \"#utility.yul\":688:868   */\n    tag_27:\n        /* \"#utility.yul\":736:813   */\n      0x4e487b7100000000000000000000000000000000000000000000000000000000\n        /* \"#utility.yul\":733:734   */\n      0x00\n        /* \"#utility.yul\":726:814   */\n      mstore\n        /* \"#utility.yul\":833:837   */\n      0x41\n        /* \"#utility.yul\":830:831   */\n      0x04\n        /* \"#utility.yul\":823:838   */\n      mstore\n        /* \"#utility.yul\":857:861   */\n      0x24\n        /* \"#utility.yul\":854:855   */\n      0x00\n        /* \"#utility.yul\":847:862   */\n      revert\n        /* \"#utility.yul\":874:1155   */\n    tag_79:\n        /* \"#utility.yul\":957:984   */\n      tag_136\n        /* \"#utility.yul\":979:983   */\n      dup3\n        /* \"#utility.yul\":957:984   */\n      tag_78\n      jump\t// in\n    tag_136:\n        /* \"#utility.yul\":949:955   */\n      dup2\n        /* \"#utility.yul\":945:985   */\n      add\n        /* \"#utility.yul\":1087:1093   */\n      dup2\n        /* \"#utility.yul\":1075:1085   */\n      dup2\n        /* \"#utility.yul\":1072:1094   */\n      lt\n        /* \"#utility.yul\":1051:1069   */\n      0xffffffffffffffff\n        /* \"#utility.yul\":1039:1049   */\n      dup3\n        /* \"#utility.yul\":1036:1070   */\n      gt\n        /* \"#utility.yul\":1033:1095   */\n      or\n        /* \"#utility.yul\":1030:1118   */\n      iszero\n      tag_137\n      jumpi\n        /* \"#utility.yul\":1098:1116   */\n      tag_138\n      tag_27\n      jump\t// in\n    tag_138:\n        /* \"#utility.yul\":1030:1118   */\n    tag_137:\n        /* \"#utility.yul\":1138:1148   */\n      dup1\n        /* \"#utility.yul\":1134:1136   */\n      0x40\n        /* \"#utility.yul\":1127:1149   */\n      mstore\n        /* \"#utility.yul\":917:1155   */\n      pop\n        /* \"#utility.yul\":874:1155   */\n      pop\n      pop\n      jump\t// out\n        /* \"#utility.yul\":1161:1290   */\n    tag_80:\n        /* \"#utility.yul\":1195:1201   */\n      0x00\n        /* \"#utility.yul\":1222:1242   */\n      tag_140\n      tag_73\n      jump\t// in\n    tag_140:\n        /* \"#utility.yul\":1212:1242   */\n      swap1\n      pop\n        /* \"#utility.yul\":1251:1284   */\n      tag_141\n        /* \"#utility.yul\":1279:1283   */\n      dup3\n        /* \"#utility.yul\":1271:1277   */\n      dup3\n        /* \"#utility.yul\":1251:1284   */\n      tag_79\n      jump\t// in\n    tag_141:\n        /* \"#utility.yul\":1161:1290   */\n      swap2\n      swap1\n      pop\n      jump\t// out\n        /* \"#utility.yul\":1296:1604   */\n    tag_81:\n        /* \"#utility.yul\":1358:1362   */\n      0x00\n        /* \"#utility.yul\":1448:1466   */\n      0xffffffffffffffff\n        /* \"#utility.yul\":1440:1446   */\n      dup3\n        /* \"#utility.yul\":1437:1467   */\n      gt\n        /* \"#utility.yul\":1434:1490   */\n      iszero\n      tag_143\n      jumpi\n        /* \"#utility.yul\":1470:1488   */\n      tag_144\n      tag_27\n      jump\t// in\n    tag_144:\n        /* \"#utility.yul\":1434:1490   */\n    tag_143:\n        /* \"#utility.yul\":1508:1537   */\n      tag_145\n        /* \"#utility.yul\":1530:1536   */\n      dup3\n        /* \"#utility.yul\":1508:1537   */\n      tag_78\n      jump\t// in\n    tag_145:\n        /* \"#utility.yul\":1500:1537   */\n      swap1\n      pop\n        /* \"#utility.yul\":1592:1596   */\n      0x20\n        /* \"#utility.yul\":1586:1590   */\n      dup2\n        /* \"#utility.yul\":1582:1597   */\n      add\n        /* \"#utility.yul\":1574:1597   */\n      swap1\n      pop\n        /* \"#utility.yul\":1296:1604   */\n      swap2\n      swap1\n      pop\n      jump\t// out\n        /* \"#utility.yul\":1610:1758   */\n    tag_82:\n        /* \"#utility.yul\":1708:1714   */\n      dup3\n        /* \"#utility.yul\":1703:1706   */\n      dup2\n        /* \"#utility.yul\":1698:1701   */\n      dup4\n        /* \"#utility.yul\":1685:1715   */\n      calldatacopy\n        /* \"#utility.yul\":1749:1750   */\n      0x00\n        /* \"#utility.yul\":1740:1746   */\n      dup4\n        /* \"#utility.yul\":1735:1738   */\n      dup4\n        /* \"#utility.yul\":1731:1747   */\n      add\n        /* \"#utility.yul\":1724:1751   */\n      mstore\n        /* \"#utility.yul\":1610:1758   */\n      pop\n      pop\n      pop\n      jump\t// out\n        /* \"#utility.yul\":1764:2189   */\n    tag_83:\n        /* \"#utility.yul\":1842:1847   */\n      0x00\n        /* \"#utility.yul\":1867:1933   */\n      tag_148\n        /* \"#utility.yul\":1883:1932   */\n      tag_149\n        /* \"#utility.yul\":1925:1931   */\n      dup5\n        /* \"#utility.yul\":1883:1932   */\n      tag_81\n      jump\t// in\n    tag_149:\n        /* \"#utility.yul\":1867:1933   */\n      tag_80\n      jump\t// in\n    tag_148:\n        /* \"#utility.yul\":1858:1933   */\n      swap1\n      pop\n        /* \"#utility.yul\":1956:1962   */\n      dup3\n        /* \"#utility.yul\":1949:1954   */\n      dup2\n        /* \"#utility.yul\":1942:1963   */\n      mstore\n        /* \"#utility.yul\":1994:1998   */\n      0x20\n        /* \"#utility.yul\":1987:1992   */\n      dup2\n        /* \"#utility.yul\":1983:1999   */\n      add\n        /* \"#utility.yul\":2032:2035   */\n      dup5\n        /* \"#utility.yul\":2023:2029   */\n      dup5\n        /* \"#utility.yul\":2018:2021   */\n      dup5\n        /* \"#utility.yul\":2014:2030   */\n      add\n        /* \"#utility.yul\":2011:2036   */\n      gt\n        /* \"#utility.yul\":2008:2120   */\n      iszero\n      tag_150\n      jumpi\n        /* \"#utility.yul\":2039:2118   */\n      tag_151\n      tag_77\n      jump\t// in\n    tag_151:\n        /* \"#utility.yul\":2008:2120   */\n    tag_150:\n        /* \"#utility.yul\":2129:2183   */\n      tag_152\n        /* \"#utility.yul\":2176:2182   */\n      dup5\n        /* \"#utility.yul\":2171:2174   */\n      dup3\n        /* \"#utility.yul\":2166:2169   */\n      dup6\n        /* \"#utility.yul\":2129:2183   */\n      tag_82\n      jump\t// in\n    tag_152:\n        /* \"#utility.yul\":1848:2189   */\n      pop\n        /* \"#utility.yul\":1764:2189   */\n      swap4\n      swap3\n      pop\n      pop\n      pop\n      jump\t// out\n        /* \"#utility.yul\":2209:2549   */\n    tag_84:\n        /* \"#utility.yul\":2265:2270   */\n      0x00\n        /* \"#utility.yul\":2314:2317   */\n      dup3\n        /* \"#utility.yul\":2307:2311   */\n      0x1f\n        /* \"#utility.yul\":2299:2305   */\n      dup4\n        /* \"#utility.yul\":2295:2312   */\n      add\n        /* \"#utility.yul\":2291:2318   */\n      slt\n        /* \"#utility.yul\":2281:2403   */\n      tag_154\n      jumpi\n        /* \"#utility.yul\":2322:2401   */\n      tag_155\n      tag_76\n      jump\t// in\n    tag_155:\n        /* \"#utility.yul\":2281:2403   */\n    tag_154:\n        /* \"#utility.yul\":2439:2445   */\n      dup2\n        /* \"#utility.yul\":2426:2446   */\n      calldataload\n        /* \"#utility.yul\":2464:2543   */\n      tag_156\n        /* \"#utility.yul\":2539:2542   */\n      dup5\n        /* \"#utility.yul\":2531:2537   */\n      dup3\n        /* \"#utility.yul\":2524:2528   */\n      0x20\n        /* \"#utility.yul\":2516:2522   */\n      dup7\n        /* \"#utility.yul\":2512:2529   */\n      add\n        /* \"#utility.yul\":2464:2543   */\n      tag_83\n      jump\t// in\n    tag_156:\n        /* \"#utility.yul\":2455:2543   */\n      swap2\n      pop\n        /* \"#utility.yul\":2271:2549   */\n      pop\n        /* \"#utility.yul\":2209:2549   */\n      swap3\n      swap2\n      pop\n      pop\n      jump\t// out\n        /* \"#utility.yul\":2555:2645   */\n    tag_85:\n        /* \"#utility.yul\":2589:2596   */\n      0x00\n        /* \"#utility.yul\":2632:2637   */\n      dup2\n        /* \"#utility.yul\":2625:2638   */\n      iszero\n        /* \"#utility.yul\":2618:2639   */\n      iszero\n        /* \"#utility.yul\":2607:2639   */\n      swap1\n      pop\n        /* \"#utility.yul\":2555:2645   */\n      swap2\n      swap1\n      pop\n      jump\t// out\n        /* \"#utility.yul\":2651:2767   */\n    tag_86:\n        /* \"#utility.yul\":2721:2742   */\n      tag_159\n        /* \"#utility.yul\":2736:2741   */\n      dup2\n        /* \"#utility.yul\":2721:2742   */\n      tag_85\n      jump\t// in\n    tag_159:\n        /* \"#utility.yul\":2714:2719   */\n      dup2\n        /* \"#utility.yul\":2711:2743   */\n      eq\n        /* \"#utility.yul\":2701:2761   */\n      tag_160\n      jumpi\n        /* \"#utility.yul\":2757:2758   */\n      0x00\n        /* \"#utility.yul\":2754:2755   */\n      dup1\n        /* \"#utility.yul\":2747:2759   */\n      revert\n        /* \"#utility.yul\":2701:2761   */\n    tag_160:\n        /* \"#utility.yul\":2651:2767   */\n      pop\n      jump\t// out\n        /* \"#utility.yul\":2773:2906   */\n    tag_87:\n        /* \"#utility.yul\":2816:2821   */\n      0x00\n        /* \"#utility.yul\":2854:2860   */\n      dup2\n        /* \"#utility.yul\":2841:2861   */\n      calldataload\n        /* \"#utility.yul\":2832:2861   */\n      swap1\n      pop\n        /* \"#utility.yul\":2870:2900   */\n      tag_162\n        /* \"#utility.yul\":2894:2899   */\n      dup2\n        /* \"#utility.yul\":2870:2900   */\n      tag_86\n      jump\t// in\n    tag_162:\n        /* \"#utility.yul\":2773:2906   */\n      swap3\n      swap2\n      pop\n      pop\n      jump\t// out\n        /* \"#utility.yul\":2912:3560   */\n    tag_8:\n        /* \"#utility.yul\":2987:2993   */\n      0x00\n        /* \"#utility.yul\":2995:3001   */\n      dup1\n        /* \"#utility.yul\":3044:3046   */\n      0x40\n        /* \"#utility.yul\":3032:3041   */\n      dup4\n        /* \"#utility.yul\":3023:3030   */\n      dup6\n        /* \"#utility.yul\":3019:3042   */\n      sub\n        /* \"#utility.yul\":3015:3047   */\n      slt\n        /* \"#utility.yul\":3012:3131   */\n      iszero\n      tag_164\n      jumpi\n        /* \"#utility.yul\":3050:3129   */\n      tag_165\n      tag_74\n      jump\t// in\n    tag_165:\n        /* \"#utility.yul\":3012:3131   */\n    tag_164:\n        /* \"#utility.yul\":3198:3199   */\n      0x00\n        /* \"#utility.yul\":3187:3196   */\n      dup4\n        /* \"#utility.yul\":3183:3200   */\n      add\n        /* \"#utility.yul\":3170:3201   */\n      calldataload\n        /* \"#utility.yul\":3228:3246   */\n      0xffffffffffffffff\n        /* \"#utility.yul\":3220:3226   */\n      dup2\n        /* \"#utility.yul\":3217:3247   */\n      gt\n        /* \"#utility.yul\":3214:3331   */\n      iszero\n      tag_166\n      jumpi\n        /* \"#utility.yul\":3250:3329   */\n      tag_167\n      tag_75\n      jump\t// in\n    tag_167:\n        /* \"#utility.yul\":3214:3331   */\n    tag_166:\n        /* \"#utility.yul\":3355:3418   */\n      tag_168\n        /* \"#utility.yul\":3410:3417   */\n      dup6\n        /* \"#utility.yul\":3401:3407   */\n      dup3\n        /* \"#utility.yul\":3390:3399   */\n      dup7\n        /* \"#utility.yul\":3386:3408   */\n      add\n        /* \"#utility.yul\":3355:3418   */\n      tag_84\n      jump\t// in\n    tag_168:\n        /* \"#utility.yul\":3345:3418   */\n      swap3\n      pop\n        /* \"#utility.yul\":3141:3428   */\n      pop\n        /* \"#utility.yul\":3467:3469   */\n      0x20\n        /* \"#utility.yul\":3493:3543   */\n      tag_169\n        /* \"#utility.yul\":3535:3542   */\n      dup6\n        /* \"#utility.yul\":3526:3532   */\n      dup3\n        /* \"#utility.yul\":3515:3524   */\n      dup7\n        /* \"#utility.yul\":3511:3533   */\n      add\n        /* \"#utility.yul\":3493:3543   */\n      tag_87\n      jump\t// in\n    tag_169:\n        /* \"#utility.yul\":3483:3543   */\n      swap2\n      pop\n        /* \"#utility.yul\":3438:3553   */\n      pop\n        /* \"#utility.yul\":2912:3560   */\n      swap3\n      pop\n      swap3\n      swap1\n      pop\n      jump\t// out\n        /* \"#utility.yul\":3566:3700   */\n    tag_88:\n        /* \"#utility.yul\":3653:3659   */\n      0x00\n        /* \"#utility.yul\":3687:3692   */\n      dup2\n        /* \"#utility.yul\":3681:3693   */\n      mload\n        /* \"#utility.yul\":3671:3693   */\n      swap1\n      pop\n        /* \"#utility.yul\":3566:3700   */\n      swap2\n      swap1\n      pop\n      jump\t// out\n        /* \"#utility.yul\":3706:3910   */\n    tag_89:\n        /* \"#utility.yul\":3825:3836   */\n      0x00\n        /* \"#utility.yul\":3859:3865   */\n      dup3\n        /* \"#utility.yul\":3854:3857   */\n      dup3\n        /* \"#utility.yul\":3847:3866   */\n      mstore\n        /* \"#utility.yul\":3899:3903   */\n      0x20\n        /* \"#utility.yul\":3894:3897   */\n      dup3\n        /* \"#utility.yul\":3890:3904   */\n      add\n        /* \"#utility.yul\":3875:3904   */\n      swap1\n      pop\n        /* \"#utility.yul\":3706:3910   */\n      swap3\n      swap2\n      pop\n      pop\n      jump\t// out\n        /* \"#utility.yul\":3916:4068   */\n    tag_90:\n        /* \"#utility.yul\":4003:4007   */\n      0x00\n        /* \"#utility.yul\":4026:4029   */\n      dup2\n        /* \"#utility.yul\":4018:4029   */\n      swap1\n      pop\n        /* \"#utility.yul\":4056:4060   */\n      0x20\n        /* \"#utility.yul\":4051:4054   */\n      dup3\n        /* \"#utility.yul\":4047:4061   */\n      add\n        /* \"#utility.yul\":4039:4061   */\n      swap1\n      pop\n        /* \"#utility.yul\":3916:4068   */\n      swap2\n      swap1\n      pop\n      jump\t// out\n        /* \"#utility.yul\":4074:4151   */\n    tag_91:\n        /* \"#utility.yul\":4111:4118   */\n      0x00\n        /* \"#utility.yul\":4140:4145   */\n      dup2\n        /* \"#utility.yul\":4129:4145   */\n      swap1\n      pop\n        /* \"#utility.yul\":4074:4151   */\n      swap2\n      swap1\n      pop\n      jump\t// out\n        /* \"#utility.yul\":4157:4265   */\n    tag_92:\n        /* \"#utility.yul\":4234:4258   */\n      tag_175\n        /* \"#utility.yul\":4252:4257   */\n      dup2\n        /* \"#utility.yul\":4234:4258   */\n      tag_91\n      jump\t// in\n    tag_175:\n        /* \"#utility.yul\":4229:4232   */\n      dup3\n        /* \"#utility.yul\":4222:4259   */\n      mstore\n        /* \"#utility.yul\":4157:4265   */\n      pop\n      pop\n      jump\t// out\n        /* \"#utility.yul\":4271:4397   */\n    tag_93:\n        /* \"#utility.yul\":4308:4315   */\n      0x00\n        /* \"#utility.yul\":4348:4390   */\n      0xffffffffffffffffffffffffffffffffffffffff\n        /* \"#utility.yul\":4341:4346   */\n      dup3\n        /* \"#utility.yul\":4337:4391   */\n      and\n        /* \"#utility.yul\":4326:4391   */\n      swap1\n      pop\n        /* \"#utility.yul\":4271:4397   */\n      swap2\n      swap1\n      pop\n      jump\t// out\n        /* \"#utility.yul\":4403:4499   */\n    tag_94:\n        /* \"#utility.yul\":4440:4447   */\n      0x00\n        /* \"#utility.yul\":4469:4493   */\n      tag_178\n        /* \"#utility.yul\":4487:4492   */\n      dup3\n        /* \"#utility.yul\":4469:4493   */\n      tag_93\n      jump\t// in\n    tag_178:\n        /* \"#utility.yul\":4458:4493   */\n      swap1\n      pop\n        /* \"#utility.yul\":4403:4499   */\n      swap2\n      swap1\n      pop\n      jump\t// out\n        /* \"#utility.yul\":4505:4613   */\n    tag_95:\n        /* \"#utility.yul\":4582:4606   */\n      tag_180\n        /* \"#utility.yul\":4600:4605   */\n      dup2\n        /* \"#utility.yul\":4582:4606   */\n      tag_94\n      jump\t// in\n    tag_180:\n        /* \"#utility.yul\":4577:4580   */\n      dup3\n        /* \"#utility.yul\":4570:4607   */\n      mstore\n        /* \"#utility.yul\":4505:4613   */\n      pop\n      pop\n      jump\t// out\n        /* \"#utility.yul\":4619:4718   */\n    tag_96:\n        /* \"#utility.yul\":4671:4677   */\n      0x00\n        /* \"#utility.yul\":4705:4710   */\n      dup2\n        /* \"#utility.yul\":4699:4711   */\n      mload\n        /* \"#utility.yul\":4689:4711   */\n      swap1\n      pop\n        /* \"#utility.yul\":4619:4718   */\n      swap2\n      swap1\n      pop\n      jump\t// out\n        /* \"#utility.yul\":4724:4883   */\n    tag_97:\n        /* \"#utility.yul\":4798:4809   */\n      0x00\n        /* \"#utility.yul\":4832:4838   */\n      dup3\n        /* \"#utility.yul\":4827:4830   */\n      dup3\n        /* \"#utility.yul\":4820:4839   */\n      mstore\n        /* \"#utility.yul\":4872:4876   */\n      0x20\n        /* \"#utility.yul\":4867:4870   */\n      dup3\n        /* \"#utility.yul\":4863:4877   */\n      add\n        /* \"#utility.yul\":4848:4877   */\n      swap1\n      pop\n        /* \"#utility.yul\":4724:4883   */\n      swap3\n      swap2\n      pop\n      pop\n      jump\t// out\n        /* \"#utility.yul\":4889:5028   */\n    tag_98:\n        /* \"#utility.yul\":4978:4984   */\n      dup3\n        /* \"#utility.yul\":4973:4976   */\n      dup2\n        /* \"#utility.yul\":4968:4971   */\n      dup4\n        /* \"#utility.yul\":4962:4985   */\n      mcopy\n        /* \"#utility.yul\":5019:5020   */\n      0x00\n        /* \"#utility.yul\":5010:5016   */\n      dup4\n        /* \"#utility.yul\":5005:5008   */\n      dup4\n        /* \"#utility.yul\":5001:5017   */\n      add\n        /* \"#utility.yul\":4994:5021   */\n      mstore\n        /* \"#utility.yul\":4889:5028   */\n      pop\n      pop\n      pop\n      jump\t// out\n        /* \"#utility.yul\":5034:5391   */\n    tag_99:\n        /* \"#utility.yul\":5112:5115   */\n      0x00\n        /* \"#utility.yul\":5140:5179   */\n      tag_185\n        /* \"#utility.yul\":5173:5178   */\n      dup3\n        /* \"#utility.yul\":5140:5179   */\n      tag_96\n      jump\t// in\n    tag_185:\n        /* \"#utility.yul\":5195:5256   */\n      tag_186\n        /* \"#utility.yul\":5249:5255   */\n      dup2\n        /* \"#utility.yul\":5244:5247   */\n      dup6\n        /* \"#utility.yul\":5195:5256   */\n      tag_97\n      jump\t// in\n    tag_186:\n        /* \"#utility.yul\":5188:5256   */\n      swap4\n      pop\n        /* \"#utility.yul\":5265:5330   */\n      tag_187\n        /* \"#utility.yul\":5323:5329   */\n      dup2\n        /* \"#utility.yul\":5318:5321   */\n      dup6\n        /* \"#utility.yul\":5311:5315   */\n      0x20\n        /* \"#utility.yul\":5304:5309   */\n      dup7\n        /* \"#utility.yul\":5300:5316   */\n      add\n        /* \"#utility.yul\":5265:5330   */\n      tag_98\n      jump\t// in\n    tag_187:\n        /* \"#utility.yul\":5355:5384   */\n      tag_188\n        /* \"#utility.yul\":5377:5383   */\n      dup2\n        /* \"#utility.yul\":5355:5384   */\n      tag_78\n      jump\t// in\n    tag_188:\n        /* \"#utility.yul\":5350:5353   */\n      dup5\n        /* \"#utility.yul\":5346:5385   */\n      add\n        /* \"#utility.yul\":5339:5385   */\n      swap2\n      pop\n        /* \"#utility.yul\":5116:5391   */\n      pop\n        /* \"#utility.yul\":5034:5391   */\n      swap3\n      swap2\n      pop\n      pop\n      jump\t// out\n        /* \"#utility.yul\":5397:5496   */\n    tag_100:\n        /* \"#utility.yul\":5468:5489   */\n      tag_190\n        /* \"#utility.yul\":5483:5488   */\n      dup2\n        /* \"#utility.yul\":5468:5489   */\n      tag_85\n      jump\t// in\n    tag_190:\n        /* \"#utility.yul\":5463:5466   */\n      dup3\n        /* \"#utility.yul\":5456:5490   */\n      mstore\n        /* \"#utility.yul\":5397:5496   */\n      pop\n      pop\n      jump\t// out\n        /* \"#utility.yul\":5562:6501   */\n    tag_101:\n        /* \"#utility.yul\":5661:5664   */\n      0x00\n        /* \"#utility.yul\":5697:5701   */\n      0x80\n        /* \"#utility.yul\":5692:5695   */\n      dup4\n        /* \"#utility.yul\":5688:5702   */\n      add\n        /* \"#utility.yul\":5782:5786   */\n      0x00\n        /* \"#utility.yul\":5775:5780   */\n      dup4\n        /* \"#utility.yul\":5771:5787   */\n      add\n        /* \"#utility.yul\":5765:5788   */\n      mload\n        /* \"#utility.yul\":5801:5864   */\n      tag_192\n        /* \"#utility.yul\":5858:5862   */\n      0x00\n        /* \"#utility.yul\":5853:5856   */\n      dup7\n        /* \"#utility.yul\":5849:5863   */\n      add\n        /* \"#utility.yul\":5835:5847   */\n      dup3\n        /* \"#utility.yul\":5801:5864   */\n      tag_92\n      jump\t// in\n    tag_192:\n        /* \"#utility.yul\":5712:5874   */\n      pop\n        /* \"#utility.yul\":5960:5964   */\n      0x20\n        /* \"#utility.yul\":5953:5958   */\n      dup4\n        /* \"#utility.yul\":5949:5965   */\n      add\n        /* \"#utility.yul\":5943:5966   */\n      mload\n        /* \"#utility.yul\":5979:6042   */\n      tag_193\n        /* \"#utility.yul\":6036:6040   */\n      0x20\n        /* \"#utility.yul\":6031:6034   */\n      dup7\n        /* \"#utility.yul\":6027:6041   */\n      add\n        /* \"#utility.yul\":6013:6025   */\n      dup3\n        /* \"#utility.yul\":5979:6042   */\n      tag_95\n      jump\t// in\n    tag_193:\n        /* \"#utility.yul\":5884:6052   */\n      pop\n        /* \"#utility.yul\":6138:6142   */\n      0x40\n        /* \"#utility.yul\":6131:6136   */\n      dup4\n        /* \"#utility.yul\":6127:6143   */\n      add\n        /* \"#utility.yul\":6121:6144   */\n      mload\n        /* \"#utility.yul\":6191:6194   */\n      dup5\n        /* \"#utility.yul\":6185:6189   */\n      dup3\n        /* \"#utility.yul\":6181:6195   */\n      sub\n        /* \"#utility.yul\":6174:6178   */\n      0x40\n        /* \"#utility.yul\":6169:6172   */\n      dup7\n        /* \"#utility.yul\":6165:6179   */\n      add\n        /* \"#utility.yul\":6158:6196   */\n      mstore\n        /* \"#utility.yul\":6217:6290   */\n      tag_194\n        /* \"#utility.yul\":6285:6289   */\n      dup3\n        /* \"#utility.yul\":6271:6283   */\n      dup3\n        /* \"#utility.yul\":6217:6290   */\n      tag_99\n      jump\t// in\n    tag_194:\n        /* \"#utility.yul\":6209:6290   */\n      swap2\n      pop\n        /* \"#utility.yul\":6062:6301   */\n      pop\n        /* \"#utility.yul\":6388:6392   */\n      0x60\n        /* \"#utility.yul\":6381:6386   */\n      dup4\n        /* \"#utility.yul\":6377:6393   */\n      add\n        /* \"#utility.yul\":6371:6394   */\n      mload\n        /* \"#utility.yul\":6407:6464   */\n      tag_195\n        /* \"#utility.yul\":6458:6462   */\n      0x60\n        /* \"#utility.yul\":6453:6456   */\n      dup7\n        /* \"#utility.yul\":6449:6463   */\n      add\n        /* \"#utility.yul\":6435:6447   */\n      dup3\n        /* \"#utility.yul\":6407:6464   */\n      tag_100\n      jump\t// in\n    tag_195:\n        /* \"#utility.yul\":6311:6474   */\n      pop\n        /* \"#utility.yul\":6491:6495   */\n      dup1\n        /* \"#utility.yul\":6484:6495   */\n      swap2\n      pop\n        /* \"#utility.yul\":5666:6501   */\n      pop\n        /* \"#utility.yul\":5562:6501   */\n      swap3\n      swap2\n      pop\n      pop\n      jump\t// out\n        /* \"#utility.yul\":6507:6743   */\n    tag_102:\n        /* \"#utility.yul\":6616:6626   */\n      0x00\n        /* \"#utility.yul\":6651:6737   */\n      tag_197\n        /* \"#utility.yul\":6733:6736   */\n      dup4\n        /* \"#utility.yul\":6725:6731   */\n      dup4\n        /* \"#utility.yul\":6651:6737   */\n      tag_101\n      jump\t// in\n    tag_197:\n        /* \"#utility.yul\":6637:6737   */\n      swap1\n      pop\n        /* \"#utility.yul\":6507:6743   */\n      swap3\n      swap2\n      pop\n      pop\n      jump\t// out\n        /* \"#utility.yul\":6749:6882   */\n    tag_103:\n        /* \"#utility.yul\":6839:6843   */\n      0x00\n        /* \"#utility.yul\":6871:6875   */\n      0x20\n        /* \"#utility.yul\":6866:6869   */\n      dup3\n        /* \"#utility.yul\":6862:6876   */\n      add\n        /* \"#utility.yul\":6854:6876   */\n      swap1\n      pop\n        /* \"#utility.yul\":6749:6882   */\n      swap2\n      swap1\n      pop\n      jump\t// out\n        /* \"#utility.yul\":6952:8023   */\n    tag_104:\n        /* \"#utility.yul\":7111:7114   */\n      0x00\n        /* \"#utility.yul\":7140:7214   */\n      tag_200\n        /* \"#utility.yul\":7208:7213   */\n      dup3\n        /* \"#utility.yul\":7140:7214   */\n      tag_88\n      jump\t// in\n    tag_200:\n        /* \"#utility.yul\":7230:7336   */\n      tag_201\n        /* \"#utility.yul\":7329:7335   */\n      dup2\n        /* \"#utility.yul\":7324:7327   */\n      dup6\n        /* \"#utility.yul\":7230:7336   */\n      tag_89\n      jump\t// in\n    tag_201:\n        /* \"#utility.yul\":7223:7336   */\n      swap4\n      pop\n        /* \"#utility.yul\":7362:7365   */\n      dup4\n        /* \"#utility.yul\":7407:7411   */\n      0x20\n        /* \"#utility.yul\":7399:7405   */\n      dup3\n        /* \"#utility.yul\":7395:7412   */\n      mul\n        /* \"#utility.yul\":7390:7393   */\n      dup6\n        /* \"#utility.yul\":7386:7413   */\n      add\n        /* \"#utility.yul\":7437:7513   */\n      tag_202\n        /* \"#utility.yul\":7507:7512   */\n      dup6\n        /* \"#utility.yul\":7437:7513   */\n      tag_90\n      jump\t// in\n    tag_202:\n        /* \"#utility.yul\":7536:7543   */\n      dup1\n        /* \"#utility.yul\":7567:7568   */\n      0x00\n        /* \"#utility.yul\":7552:7978   */\n    tag_203:\n        /* \"#utility.yul\":7577:7583   */\n      dup6\n        /* \"#utility.yul\":7574:7575   */\n      dup2\n        /* \"#utility.yul\":7571:7584   */\n      lt\n        /* \"#utility.yul\":7552:7978   */\n      iszero\n      tag_205\n      jumpi\n        /* \"#utility.yul\":7648:7657   */\n      dup5\n        /* \"#utility.yul\":7642:7646   */\n      dup5\n        /* \"#utility.yul\":7638:7658   */\n      sub\n        /* \"#utility.yul\":7633:7636   */\n      dup10\n        /* \"#utility.yul\":7626:7659   */\n      mstore\n        /* \"#utility.yul\":7699:7705   */\n      dup2\n        /* \"#utility.yul\":7693:7706   */\n      mload\n        /* \"#utility.yul\":7727:7831   */\n      tag_206\n        /* \"#utility.yul\":7826:7830   */\n      dup6\n        /* \"#utility.yul\":7811:7824   */\n      dup3\n        /* \"#utility.yul\":7727:7831   */\n      tag_102\n      jump\t// in\n    tag_206:\n        /* \"#utility.yul\":7719:7831   */\n      swap5\n      pop\n        /* \"#utility.yul\":7854:7934   */\n      tag_207\n        /* \"#utility.yul\":7927:7933   */\n      dup4\n        /* \"#utility.yul\":7854:7934   */\n      tag_103\n      jump\t// in\n    tag_207:\n        /* \"#utility.yul\":7844:7934   */\n      swap3\n      pop\n        /* \"#utility.yul\":7963:7967   */\n      0x20\n        /* \"#utility.yul\":7958:7961   */\n      dup11\n        /* \"#utility.yul\":7954:7968   */\n      add\n        /* \"#utility.yul\":7947:7968   */\n      swap10\n      pop\n        /* \"#utility.yul\":7612:7978   */\n      pop\n        /* \"#utility.yul\":7599:7600   */\n      0x01\n        /* \"#utility.yul\":7596:7597   */\n      dup2\n        /* \"#utility.yul\":7592:7601   */\n      add\n        /* \"#utility.yul\":7587:7601   */\n      swap1\n      pop\n        /* \"#utility.yul\":7552:7978   */\n      jump(tag_203)\n    tag_205:\n        /* \"#utility.yul\":7556:7570   */\n      pop\n        /* \"#utility.yul\":7994:7998   */\n      dup3\n        /* \"#utility.yul\":7987:7998   */\n      swap8\n      pop\n        /* \"#utility.yul\":8014:8017   */\n      dup8\n        /* \"#utility.yul\":8007:8017   */\n      swap6\n      pop\n        /* \"#utility.yul\":7116:8023   */\n      pop\n      pop\n      pop\n      pop\n      pop\n        /* \"#utility.yul\":6952:8023   */\n      swap3\n      swap2\n      pop\n      pop\n      jump\t// out\n        /* \"#utility.yul\":8029:8482   */\n    tag_13:\n        /* \"#utility.yul\":8212:8216   */\n      0x00\n        /* \"#utility.yul\":8250:8252   */\n      0x20\n        /* \"#utility.yul\":8239:8248   */\n      dup3\n        /* \"#utility.yul\":8235:8253   */\n      add\n        /* \"#utility.yul\":8227:8253   */\n      swap1\n      pop\n        /* \"#utility.yul\":8299:8308   */\n      dup2\n        /* \"#utility.yul\":8293:8297   */\n      dup2\n        /* \"#utility.yul\":8289:8309   */\n      sub\n        /* \"#utility.yul\":8285:8286   */\n      0x00\n        /* \"#utility.yul\":8274:8283   */\n      dup4\n        /* \"#utility.yul\":8270:8287   */\n      add\n        /* \"#utility.yul\":8263:8310   */\n      mstore\n        /* \"#utility.yul\":8327:8475   */\n      tag_209\n        /* \"#utility.yul\":8470:8474   */\n      dup2\n        /* \"#utility.yul\":8461:8467   */\n      dup5\n        /* \"#utility.yul\":8327:8475   */\n      tag_104\n      jump\t// in\n    tag_209:\n        /* \"#utility.yul\":8319:8475   */\n      swap1\n      pop\n        /* \"#utility.yul\":8029:8482   */\n      swap3\n      swap2\n      pop\n      pop\n      jump\t// out\n        /* \"#utility.yul\":8488:8610   */\n    tag_105:\n        /* \"#utility.yul\":8561:8585   */\n      tag_211\n        /* \"#utility.yul\":8579:8584   */\n      dup2\n        /* \"#utility.yul\":8561:8585   */\n      tag_91\n      jump\t// in\n    tag_211:\n        /* \"#utility.yul\":8554:8559   */\n      dup2\n        /* \"#utility.yul\":8551:8586   */\n      eq\n        /* \"#utility.yul\":8541:8604   */\n      tag_212\n      jumpi\n        /* \"#utility.yul\":8600:8601   */\n      0x00\n        /* \"#utility.yul\":8597:8598   */\n      dup1\n        /* \"#utility.yul\":8590:8602   */\n      revert\n        /* \"#utility.yul\":8541:8604   */\n    tag_212:\n        /* \"#utility.yul\":8488:8610   */\n      pop\n      jump\t// out\n        /* \"#utility.yul\":8616:8755   */\n    tag_106:\n        /* \"#utility.yul\":8662:8667   */\n      0x00\n        /* \"#utility.yul\":8700:8706   */\n      dup2\n        /* \"#utility.yul\":8687:8707   */\n      calldataload\n        /* \"#utility.yul\":8678:8707   */\n      swap1\n      pop\n        /* \"#utility.yul\":8716:8749   */\n      tag_214\n        /* \"#utility.yul\":8743:8748   */\n      dup2\n        /* \"#utility.yul\":8716:8749   */\n      tag_105\n      jump\t// in\n    tag_214:\n        /* \"#utility.yul\":8616:8755   */\n      swap3\n      swap2\n      pop\n      pop\n      jump\t// out\n        /* \"#utility.yul\":8761:9229   */\n    tag_16:\n        /* \"#utility.yul\":8826:8832   */\n      0x00\n        /* \"#utility.yul\":8834:8840   */\n      dup1\n        /* \"#utility.yul\":8883:8885   */\n      0x40\n        /* \"#utility.yul\":8871:8880   */\n      dup4\n        /* \"#utility.yul\":8862:8869   */\n      dup6\n        /* \"#utility.yul\":8858:8881   */\n      sub\n        /* \"#utility.yul\":8854:8886   */\n      slt\n        /* \"#utility.yul\":8851:8970   */\n      iszero\n      tag_216\n      jumpi\n        /* \"#utility.yul\":8889:8968   */\n      tag_217\n      tag_74\n      jump\t// in\n    tag_217:\n        /* \"#utility.yul\":8851:8970   */\n    tag_216:\n        /* \"#utility.yul\":9009:9010   */\n      0x00\n        /* \"#utility.yul\":9034:9087   */\n      tag_218\n        /* \"#utility.yul\":9079:9086   */\n      dup6\n        /* \"#utility.yul\":9070:9076   */\n      dup3\n        /* \"#utility.yul\":9059:9068   */\n      dup7\n        /* \"#utility.yul\":9055:9077   */\n      add\n        /* \"#utility.yul\":9034:9087   */\n      tag_106\n      jump\t// in\n    tag_218:\n        /* \"#utility.yul\":9024:9087   */\n      swap3\n      pop\n        /* \"#utility.yul\":8980:9097   */\n      pop\n        /* \"#utility.yul\":9136:9138   */\n      0x20\n        /* \"#utility.yul\":9162:9212   */\n      tag_219\n        /* \"#utility.yul\":9204:9211   */\n      dup6\n        /* \"#utility.yul\":9195:9201   */\n      dup3\n        /* \"#utility.yul\":9184:9193   */\n      dup7\n        /* \"#utility.yul\":9180:9202   */\n      add\n        /* \"#utility.yul\":9162:9212   */\n      tag_87\n      jump\t// in\n    tag_219:\n        /* \"#utility.yul\":9152:9212   */\n      swap2\n      pop\n        /* \"#utility.yul\":9107:9222   */\n      pop\n        /* \"#utility.yul\":8761:9229   */\n      swap3\n      pop\n      swap3\n      swap1\n      pop\n      jump\t// out\n        /* \"#utility.yul\":9235:9415   */\n    tag_107:\n        /* \"#utility.yul\":9283:9360   */\n      0x4e487b7100000000000000000000000000000000000000000000000000000000\n        /* \"#utility.yul\":9280:9281   */\n      0x00\n        /* \"#utility.yul\":9273:9361   */\n      mstore\n        /* \"#utility.yul\":9380:9384   */\n      0x22\n        /* \"#utility.yul\":9377:9378   */\n      0x04\n        /* \"#utility.yul\":9370:9385   */\n      mstore\n        /* \"#utility.yul\":9404:9408   */\n      0x24\n        /* \"#utility.yul\":9401:9402   */\n      0x00\n        /* \"#utility.yul\":9394:9409   */\n      revert\n        /* \"#utility.yul\":9421:9741   */\n    tag_45:\n        /* \"#utility.yul\":9465:9471   */\n      0x00\n        /* \"#utility.yul\":9502:9503   */\n      0x02\n        /* \"#utility.yul\":9496:9500   */\n      dup3\n        /* \"#utility.yul\":9492:9504   */\n      div\n        /* \"#utility.yul\":9482:9504   */\n      swap1\n      pop\n        /* \"#utility.yul\":9549:9550   */\n      0x01\n        /* \"#utility.yul\":9543:9547   */\n      dup3\n        /* \"#utility.yul\":9539:9551   */\n      and\n        /* \"#utility.yul\":9570:9588   */\n      dup1\n        /* \"#utility.yul\":9560:9641   */\n      tag_222\n      jumpi\n        /* \"#utility.yul\":9626:9630   */\n      0x7f\n        /* \"#utility.yul\":9618:9624   */\n      dup3\n        /* \"#utility.yul\":9614:9631   */\n      and\n        /* \"#utility.yul\":9604:9631   */\n      swap2\n      pop\n        /* \"#utility.yul\":9560:9641   */\n    tag_222:\n        /* \"#utility.yul\":9688:9690   */\n      0x20\n        /* \"#utility.yul\":9680:9686   */\n      dup3\n        /* \"#utility.yul\":9677:9691   */\n      lt\n        /* \"#utility.yul\":9657:9675   */\n      dup2\n        /* \"#utility.yul\":9654:9692   */\n      sub\n        /* \"#utility.yul\":9651:9735   */\n      tag_223\n      jumpi\n        /* \"#utility.yul\":9707:9725   */\n      tag_224\n      tag_107\n      jump\t// in\n    tag_224:\n        /* \"#utility.yul\":9651:9735   */\n    tag_223:\n        /* \"#utility.yul\":9472:9741   */\n      pop\n        /* \"#utility.yul\":9421:9741   */\n      swap2\n      swap1\n      pop\n      jump\t// out\n        /* \"#utility.yul\":9747:9888   */\n    tag_108:\n        /* \"#utility.yul\":9796:9800   */\n      0x00\n        /* \"#utility.yul\":9819:9822   */\n      dup2\n        /* \"#utility.yul\":9811:9822   */\n      swap1\n      pop\n        /* \"#utility.yul\":9842:9845   */\n      dup2\n        /* \"#utility.yul\":9839:9840   */\n      0x00\n        /* \"#utility.yul\":9832:9846   */\n      mstore\n        /* \"#utility.yul\":9876:9880   */\n      0x20\n        /* \"#utility.yul\":9873:9874   */\n      0x00\n        /* \"#utility.yul\":9863:9881   */\n      keccak256\n        /* \"#utility.yul\":9855:9881   */\n      swap1\n      pop\n        /* \"#utility.yul\":9747:9888   */\n      swap2\n      swap1\n      pop\n      jump\t// out\n        /* \"#utility.yul\":9894:9987   */\n    tag_109:\n        /* \"#utility.yul\":9931:9937   */\n      0x00\n        /* \"#utility.yul\":9978:9980   */\n      0x20\n        /* \"#utility.yul\":9973:9975   */\n      0x1f\n        /* \"#utility.yul\":9966:9971   */\n      dup4\n        /* \"#utility.yul\":9962:9976   */\n      add\n        /* \"#utility.yul\":9958:9981   */\n      div\n        /* \"#utility.yul\":9948:9981   */\n      swap1\n      pop\n        /* \"#utility.yul\":9894:9987   */\n      swap2\n      swap1\n      pop\n      jump\t// out\n        /* \"#utility.yul\":9993:10100   */\n    tag_110:\n        /* \"#utility.yul\":10037:10045   */\n      0x00\n        /* \"#utility.yul\":10087:10092   */\n      dup3\n        /* \"#utility.yul\":10081:10085   */\n      dup3\n        /* \"#utility.yul\":10077:10093   */\n      shl\n        /* \"#utility.yul\":10056:10093   */\n      swap1\n      pop\n        /* \"#utility.yul\":9993:10100   */\n      swap3\n      swap2\n      pop\n      pop\n      jump\t// out\n        /* \"#utility.yul\":10106:10499   */\n    tag_111:\n        /* \"#utility.yul\":10175:10181   */\n      0x00\n        /* \"#utility.yul\":10225:10226   */\n      0x08\n        /* \"#utility.yul\":10213:10223   */\n      dup4\n        /* \"#utility.yul\":10209:10227   */\n      mul\n        /* \"#utility.yul\":10248:10345   */\n      tag_229\n        /* \"#utility.yul\":10278:10344   */\n      0xffffffffffffffffffffffffffffffffffffffffffffffffffffffffffffffff\n        /* \"#utility.yul\":10267:10276   */\n      dup3\n        /* \"#utility.yul\":10248:10345   */\n      tag_110\n      jump\t// in\n    tag_229:\n        /* \"#utility.yul\":10366:10405   */\n      tag_230\n        /* \"#utility.yul\":10396:10404   */\n      dup7\n        /* \"#utility.yul\":10385:10394   */\n      dup4\n        /* \"#utility.yul\":10366:10405   */\n      tag_110\n      jump\t// in\n    tag_230:\n        /* \"#utility.yul\":10354:10405   */\n      swap6\n      pop\n        /* \"#utility.yul\":10438:10442   */\n      dup1\n        /* \"#utility.yul\":10434:10443   */\n      not\n        /* \"#utility.yul\":10427:10432   */\n      dup5\n        /* \"#utility.yul\":10423:10444   */\n      and\n        /* \"#utility.yul\":10414:10444   */\n      swap4\n      pop\n        /* \"#utility.yul\":10487:10491   */\n      dup1\n        /* \"#utility.yul\":10477:10485   */\n      dup7\n        /* \"#utility.yul\":10473:10492   */\n      and\n        /* \"#utility.yul\":10466:10471   */\n      dup5\n        /* \"#utility.yul\":10463:10493   */\n      or\n        /* \"#utility.yul\":10453:10493   */\n      swap3\n      pop\n        /* \"#utility.yul\":10182:10499   */\n      pop\n      pop\n        /* \"#utility.yul\":10106:10499   */\n      swap4\n      swap3\n      pop\n      pop\n      pop\n      jump\t// out\n        /* \"#utility.yul\":10505:10565   */\n    tag_112:\n        /* \"#utility.yul\":10533:10536   */\n      0x00\n        /* \"#utility.yul\":10554:10559   */\n      dup2\n        /* \"#utility.yul\":10547:10559   */\n      swap1\n      pop\n        /* \"#utility.yul\":10505:10565   */\n      swap2\n      swap1\n      pop\n      jump\t// out\n        /* \"#utility.yul\":10571:10713   */\n    tag_113:\n        /* \"#utility.yul\":10621:10630   */\n      0x00\n        /* \"#utility.yul\":10654:10707   */\n      tag_233\n        /* \"#utility.yul\":10672:10706   */\n      tag_234\n        /* \"#utility.yul\":10681:10705   */\n      tag_235\n        /* \"#utility.yul\":10699:10704   */\n      dup5\n        /* \"#utility.yul\":10681:10705   */\n      tag_91\n      jump\t// in\n    tag_235:\n        /* \"#utility.yul\":10672:10706   */\n      tag_112\n      jump\t// in\n    tag_234:\n        /* \"#utility.yul\":10654:10707   */\n      tag_91\n      jump\t// in\n    tag_233:\n        /* \"#utility.yul\":10641:10707   */\n      swap1\n      pop\n        /* \"#utility.yul\":10571:10713   */\n      swap2\n      swap1\n      pop\n      jump\t// out\n        /* \"#utility.yul\":10719:10794   */\n    tag_114:\n        /* \"#utility.yul\":10762:10765   */\n      0x00\n        /* \"#utility.yul\":10783:10788   */\n      dup2\n        /* \"#utility.yul\":10776:10788   */\n      swap1\n      pop\n        /* \"#utility.yul\":10719:10794   */\n      swap2\n      swap1\n      pop\n      jump\t// out\n        /* \"#utility.yul\":10800:11069   */\n    tag_115:\n        /* \"#utility.yul\":10910:10949   */\n      tag_238\n        /* \"#utility.yul\":10941:10948   */\n      dup4\n        /* \"#utility.yul\":10910:10949   */\n      tag_113\n      jump\t// in\n    tag_238:\n        /* \"#utility.yul\":10971:11062   */\n      tag_239\n        /* \"#utility.yul\":11020:11061   */\n      tag_240\n        /* \"#utility.yul\":11044:11060   */\n      dup3\n        /* \"#utility.yul\":11020:11061   */\n      tag_114\n      jump\t// in\n    tag_240:\n        /* \"#utility.yul\":11012:11018   */\n      dup5\n        /* \"#utility.yul\":11005:11009   */\n      dup5\n        /* \"#utility.yul\":10999:11010   */\n      sload\n        /* \"#utility.yul\":10971:11062   */\n      tag_111\n      jump\t// in\n    tag_239:\n        /* \"#utility.yul\":10965:10969   */\n      dup3\n        /* \"#utility.yul\":10958:11063   */\n      sstore\n        /* \"#utility.yul\":10876:11069   */\n      pop\n        /* \"#utility.yul\":10800:11069   */\n      pop\n      pop\n      pop\n      jump\t// out\n        /* \"#utility.yul\":11075:11148   */\n    tag_116:\n        /* \"#utility.yul\":11120:11123   */\n      0x00\n        /* \"#utility.yul\":11075:11148   */\n      swap1\n      jump\t// out\n        /* \"#utility.yul\":11154:11343   */\n    tag_117:\n        /* \"#utility.yul\":11231:11263   */\n      tag_243\n      tag_116\n      jump\t// in\n    tag_243:\n        /* \"#utility.yul\":11272:11337   */\n      tag_244\n        /* \"#utility.yul\":11330:11336   */\n      dup2\n        /* \"#utility.yul\":11322:11328   */\n      dup5\n        /* \"#utility.yul\":11316:11320   */\n      dup5\n        /* \"#utility.yul\":11272:11337   */\n      tag_115\n      jump\t// in\n    tag_244:\n        /* \"#utility.yul\":11207:11343   */\n      pop\n        /* \"#utility.yul\":11154:11343   */\n      pop\n      pop\n      jump\t// out\n        /* \"#utility.yul\":11349:11535   */\n    tag_118:\n        /* \"#utility.yul\":11409:11529   */\n    tag_246:\n        /* \"#utility.yul\":11426:11429   */\n      dup2\n        /* \"#utility.yul\":11419:11424   */\n      dup2\n        /* \"#utility.yul\":11416:11430   */\n      lt\n        /* \"#utility.yul\":11409:11529   */\n      iszero\n      tag_248\n      jumpi\n        /* \"#utility.yul\":11480:11519   */\n      tag_249\n        /* \"#utility.yul\":11517:11518   */\n      0x00\n        /* \"#utility.yul\":11510:11515   */\n      dup3\n        /* \"#utility.yul\":11480:11519   */\n      tag_117\n      jump\t// in\n    tag_249:\n        /* \"#utility.yul\":11453:11454   */\n      0x01\n        /* \"#utility.yul\":11446:11451   */\n      dup2\n        /* \"#utility.yul\":11442:11455   */\n      add\n        /* \"#utility.yul\":11433:11455   */\n      swap1\n      pop\n        /* \"#utility.yul\":11409:11529   */\n      jump(tag_246)\n    tag_248:\n        /* \"#utility.yul\":11349:11535   */\n      pop\n      pop\n      jump\t// out\n        /* \"#utility.yul\":11541:12084   */\n    tag_119:\n        /* \"#utility.yul\":11642:11644   */\n      0x1f\n        /* \"#utility.yul\":11637:11640   */\n      dup3\n        /* \"#utility.yul\":11634:11645   */\n      gt\n        /* \"#utility.yul\":11631:12077   */\n      iszero\n      tag_251\n      jumpi\n        /* \"#utility.yul\":11676:11714   */\n      tag_252\n        /* \"#utility.yul\":11708:11713   */\n      dup2\n        /* \"#utility.yul\":11676:11714   */\n      tag_108\n      jump\t// in\n    tag_252:\n        /* \"#utility.yul\":11760:11789   */\n      tag_253\n        /* \"#utility.yul\":11778:11788   */\n      dup5\n        /* \"#utility.yul\":11760:11789   */\n      tag_109\n      jump\t// in\n    tag_253:\n        /* \"#utility.yul\":11750:11758   */\n      dup2\n        /* \"#utility.yul\":11746:11790   */\n      add\n        /* \"#utility.yul\":11943:11945   */\n      0x20\n        /* \"#utility.yul\":11931:11941   */\n      dup6\n        /* \"#utility.yul\":11928:11946   */\n      lt\n        /* \"#utility.yul\":11925:11974   */\n      iszero\n      tag_254\n      jumpi\n        /* \"#utility.yul\":11964:11972   */\n      dup2\n        /* \"#utility.yul\":11949:11972   */\n      swap1\n      pop\n        /* \"#utility.yul\":11925:11974   */\n    tag_254:\n        /* \"#utility.yul\":11987:12067   */\n      tag_255\n        /* \"#utility.yul\":12043:12065   */\n      tag_256\n        /* \"#utility.yul\":12061:12064   */\n      dup6\n        /* \"#utility.yul\":12043:12065   */\n      tag_109\n      jump\t// in\n    tag_256:\n        /* \"#utility.yul\":12033:12041   */\n      dup4\n        /* \"#utility.yul\":12029:12066   */\n      add\n        /* \"#utility.yul\":12016:12027   */\n      dup3\n        /* \"#utility.yul\":11987:12067   */\n      tag_118\n      jump\t// in\n    tag_255:\n        /* \"#utility.yul\":11646:12077   */\n      pop\n      pop\n        /* \"#utility.yul\":11631:12077   */\n    tag_251:\n        /* \"#utility.yul\":11541:12084   */\n      pop\n      pop\n      pop\n      jump\t// out\n        /* \"#utility.yul\":12090:12207   */\n    tag_120:\n        /* \"#utility.yul\":12144:12152   */\n      0x00\n        /* \"#utility.yul\":12194:12199   */\n      dup3\n        /* \"#utility.yul\":12188:12192   */\n      dup3\n        /* \"#utility.yul\":12184:12200   */\n      shr\n        /* \"#utility.yul\":12163:12200   */\n      swap1\n      pop\n        /* \"#utility.yul\":12090:12207   */\n      swap3\n      swap2\n      pop\n      pop\n      jump\t// out\n        /* \"#utility.yul\":12213:12382   */\n    tag_121:\n        /* \"#utility.yul\":12257:12263   */\n      0x00\n        /* \"#utility.yul\":12290:12341   */\n      tag_259\n        /* \"#utility.yul\":12338:12339   */\n      0x00\n        /* \"#utility.yul\":12334:12340   */\n      not\n        /* \"#utility.yul\":12326:12331   */\n      dup5\n        /* \"#utility.yul\":12323:12324   */\n      0x08\n        /* \"#utility.yul\":12319:12332   */\n      mul\n        /* \"#utility.yul\":12290:12341   */\n      tag_120\n      jump\t// in\n    tag_259:\n        /* \"#utility.yul\":12286:12342   */\n      not\n        /* \"#utility.yul\":12371:12375   */\n      dup1\n        /* \"#utility.yul\":12365:12369   */\n      dup4\n        /* \"#utility.yul\":12361:12376   */\n      and\n        /* \"#utility.yul\":12351:12376   */\n      swap2\n      pop\n        /* \"#utility.yul\":12264:12382   */\n      pop\n        /* \"#utility.yul\":12213:12382   */\n      swap3\n      swap2\n      pop\n      pop\n      jump\t// out\n        /* \"#utility.yul\":12387:12682   */\n    tag_122:\n        /* \"#utility.yul\":12463:12467   */\n      0x00\n        /* \"#utility.yul\":12609:12638   */\n      tag_261\n        /* \"#utility.yul\":12634:12637   */\n      dup4\n        /* \"#utility.yul\":12628:12632   */\n      dup4\n        /* \"#utility.yul\":12609:12638   */\n      tag_121\n      jump\t// in\n    tag_261:\n        /* \"#utility.yul\":12601:12638   */\n      swap2\n      pop\n        /* \"#utility.yul\":12671:12674   */\n      dup3\n        /* \"#utility.yul\":12668:12669   */\n      0x02\n        /* \"#utility.yul\":12664:12675   */\n      mul\n        /* \"#utility.yul\":12658:12662   */\n      dup3\n        /* \"#utility.yul\":12655:12676   */\n      or\n        /* \"#utility.yul\":12647:12676   */\n      swap1\n      pop\n        /* \"#utility.yul\":12387:12682   */\n      swap3\n      swap2\n      pop\n      pop\n      jump\t// out\n        /* \"#utility.yul\":12687:14082   */\n    tag_21:\n        /* \"#utility.yul\":12804:12841   */\n      tag_263\n        /* \"#utility.yul\":12837:12840   */\n      dup3\n        /* \"#utility.yul\":12804:12841   */\n      tag_96\n      jump\t// in\n    tag_263:\n        /* \"#utility.yul\":12906:12924   */\n      0xffffffffffffffff\n        /* \"#utility.yul\":12898:12904   */\n      dup2\n        /* \"#utility.yul\":12895:12925   */\n      gt\n        /* \"#utility.yul\":12892:12948   */\n      iszero\n      tag_264\n      jumpi\n        /* \"#utility.yul\":12928:12946   */\n      tag_265\n      tag_27\n      jump\t// in\n    tag_265:\n        /* \"#utility.yul\":12892:12948   */\n    tag_264:\n        /* \"#utility.yul\":12972:13010   */\n      tag_266\n        /* \"#utility.yul\":13004:13008   */\n      dup3\n        /* \"#utility.yul\":12998:13009   */\n      sload\n        /* \"#utility.yul\":12972:13010   */\n      tag_45\n      jump\t// in\n    tag_266:\n        /* \"#utility.yul\":13057:13124   */\n      tag_267\n        /* \"#utility.yul\":13117:13123   */\n      dup3\n        /* \"#utility.yul\":13109:13115   */\n      dup3\n        /* \"#utility.yul\":13103:13107   */\n      dup6\n        /* \"#utility.yul\":13057:13124   */\n      tag_119\n      jump\t// in\n    tag_267:\n        /* \"#utility.yul\":13151:13152   */\n      0x00\n        /* \"#utility.yul\":13175:13179   */\n      0x20\n        /* \"#utility.yul\":13162:13179   */\n      swap1\n      pop\n        /* \"#utility.yul\":13207:13209   */\n      0x1f\n        /* \"#utility.yul\":13199:13205   */\n      dup4\n        /* \"#utility.yul\":13196:13210   */\n      gt\n        /* \"#utility.yul\":13224:13225   */\n      0x01\n        /* \"#utility.yul\":13219:13837   */\n      dup2\n      eq\n      tag_269\n      jumpi\n        /* \"#utility.yul\":13881:13882   */\n      0x00\n        /* \"#utility.yul\":13898:13904   */\n      dup5\n        /* \"#utility.yul\":13895:13972   */\n      iszero\n      tag_270\n      jumpi\n        /* \"#utility.yul\":13947:13956   */\n      dup3\n        /* \"#utility.yul\":13942:13945   */\n      dup8\n        /* \"#utility.yul\":13938:13957   */\n      add\n        /* \"#utility.yul\":13932:13958   */\n      mload\n        /* \"#utility.yul\":13923:13958   */\n      swap1\n      pop\n        /* \"#utility.yul\":13895:13972   */\n    tag_270:\n        /* \"#utility.yul\":13998:14065   */\n      tag_271\n        /* \"#utility.yul\":14058:14064   */\n      dup6\n        /* \"#utility.yul\":14051:14056   */\n      dup3\n        /* \"#utility.yul\":13998:14065   */\n      tag_122\n      jump\t// in\n    tag_271:\n        /* \"#utility.yul\":13992:13996   */\n      dup7\n        /* \"#utility.yul\":13985:14066   */\n      sstore\n        /* \"#utility.yul\":13854:14076   */\n      pop\n        /* \"#utility.yul\":13189:14076   */\n      jump(tag_268)\n        /* \"#utility.yul\":13219:13837   */\n    tag_269:\n        /* \"#utility.yul\":13271:13275   */\n      0x1f\n        /* \"#utility.yul\":13267:13276   */\n      not\n        /* \"#utility.yul\":13259:13265   */\n      dup5\n        /* \"#utility.yul\":13255:13277   */\n      and\n        /* \"#utility.yul\":13305:13342   */\n      tag_272\n        /* \"#utility.yul\":13337:13341   */\n      dup7\n        /* \"#utility.yul\":13305:13342   */\n      tag_108\n      jump\t// in\n    tag_272:\n        /* \"#utility.yul\":13364:13365   */\n      0x00\n        /* \"#utility.yul\":13378:13586   */\n    tag_273:\n        /* \"#utility.yul\":13392:13399   */\n      dup3\n        /* \"#utility.yul\":13389:13390   */\n      dup2\n        /* \"#utility.yul\":13386:13400   */\n      lt\n        /* \"#utility.yul\":13378:13586   */\n      iszero\n      tag_275\n      jumpi\n        /* \"#utility.yul\":13471:13480   */\n      dup5\n        /* \"#utility.yul\":13466:13469   */\n      dup10\n        /* \"#utility.yul\":13462:13481   */\n      add\n        /* \"#utility.yul\":13456:13482   */\n      mload\n        /* \"#utility.yul\":13448:13454   */\n      dup3\n        /* \"#utility.yul\":13441:13483   */\n      sstore\n        /* \"#utility.yul\":13522:13523   */\n      0x01\n        /* \"#utility.yul\":13514:13520   */\n      dup3\n        /* \"#utility.yul\":13510:13524   */\n      add\n        /* \"#utility.yul\":13500:13524   */\n      swap2\n      pop\n        /* \"#utility.yul\":13569:13571   */\n      0x20\n        /* \"#utility.yul\":13558:13567   */\n      dup6\n        /* \"#utility.yul\":13554:13572   */\n      add\n        /* \"#utility.yul\":13541:13572   */\n      swap5\n      pop\n        /* \"#utility.yul\":13415:13419   */\n      0x20\n        /* \"#utility.yul\":13412:13413   */\n      dup2\n        /* \"#utility.yul\":13408:13420   */\n      add\n        /* \"#utility.yul\":13403:13420   */\n      swap1\n      pop\n        /* \"#utility.yul\":13378:13586   */\n      jump(tag_273)\n    tag_275:\n        /* \"#utility.yul\":13614:13620   */\n      dup7\n        /* \"#utility.yul\":13605:13612   */\n      dup4\n        /* \"#utility.yul\":13602:13621   */\n      lt\n        /* \"#utility.yul\":13599:13778   */\n      iszero\n      tag_276\n      jumpi\n        /* \"#utility.yul\":13672:13681   */\n      dup5\n        /* \"#utility.yul\":13667:13670   */\n      dup10\n        /* \"#utility.yul\":13663:13682   */\n      add\n        /* \"#utility.yul\":13657:13683   */\n      mload\n        /* \"#utility.yul\":13715:13763   */\n      tag_277\n        /* \"#utility.yul\":13757:13761   */\n      0x1f\n        /* \"#utility.yul\":13749:13755   */\n      dup10\n        /* \"#utility.yul\":13745:13762   */\n      and\n        /* \"#utility.yul\":13734:13743   */\n      dup3\n        /* \"#utility.yul\":13715:13763   */\n      tag_121\n      jump\t// in\n    tag_277:\n        /* \"#utility.yul\":13707:13713   */\n      dup4\n        /* \"#utility.yul\":13700:13764   */\n      sstore\n        /* \"#utility.yul\":13622:13778   */\n      pop\n        /* \"#utility.yul\":13599:13778   */\n    tag_276:\n        /* \"#utility.yul\":13824:13825   */\n      0x01\n        /* \"#utility.yul\":13820:13821   */\n      0x02\n        /* \"#utility.yul\":13812:13818   */\n      dup9\n        /* \"#utility.yul\":13808:13822   */\n      mul\n        /* \"#utility.yul\":13804:13826   */\n      add\n        /* \"#utility.yul\":13798:13802   */\n      dup9\n        /* \"#utility.yul\":13791:13827   */\n      sstore\n        /* \"#utility.yul\":13226:13837   */\n      pop\n      pop\n      pop\n        /* \"#utility.yul\":13189:14076   */\n    tag_268:\n      pop\n        /* \"#utility.yul\":12779:14082   */\n      pop\n      pop\n      pop\n        /* \"#utility.yul\":12687:14082   */\n      pop\n      pop\n      jump\t// out\n        /* \"#utility.yul\":14088:14206   */\n    tag_123:\n        /* \"#utility.yul\":14175:14199   */\n      tag_279\n        /* \"#utility.yul\":14193:14198   */\n      dup2\n        /* \"#utility.yul\":14175:14199   */\n      tag_94\n      jump\t// in\n    tag_279:\n        /* \"#utility.yul\":14170:14173   */\n      dup3\n        /* \"#utility.yul\":14163:14200   */\n      mstore\n        /* \"#utility.yul\":14088:14206   */\n      pop\n      pop\n      jump\t// out\n        /* \"#utility.yul\":14212:14330   */\n    tag_124:\n        /* \"#utility.yul\":14299:14323   */\n      tag_281\n        /* \"#utility.yul\":14317:14322   */\n      dup2\n        /* \"#utility.yul\":14299:14323   */\n      tag_91\n      jump\t// in\n    tag_281:\n        /* \"#utility.yul\":14294:14297   */\n      dup3\n        /* \"#utility.yul\":14287:14324   */\n      mstore\n        /* \"#utility.yul\":14212:14330   */\n      pop\n      pop\n      jump\t// out\n        /* \"#utility.yul\":14336:14668   */\n    tag_23:\n        /* \"#utility.yul\":14457:14461   */\n      0x00\n        /* \"#utility.yul\":14495:14497   */\n      0x40\n        /* \"#utility.yul\":14484:14493   */\n      dup3\n        /* \"#utility.yul\":14480:14498   */\n      add\n        /* \"#utility.yul\":14472:14498   */\n      swap1\n      pop\n        /* \"#utility.yul\":14508:14579   */\n      tag_283\n        /* \"#utility.yul\":14576:14577   */\n      0x00\n        /* \"#utility.yul\":14565:14574   */\n      dup4\n        /* \"#utility.yul\":14561:14578   */\n      add\n        /* \"#utility.yul\":14552:14558   */\n      dup6\n        /* \"#utility.yul\":14508:14579   */\n      tag_123\n      jump\t// in\n    tag_283:\n        /* \"#utility.yul\":14589:14661   */\n      tag_284\n        /* \"#utility.yul\":14657:14659   */\n      0x20\n        /* \"#utility.yul\":14646:14655   */\n      dup4\n        /* \"#utility.yul\":14642:14660   */\n      add\n        /* \"#utility.yul\":14633:14639   */\n      dup5\n        /* \"#utility.yul\":14589:14661   */\n      tag_124\n      jump\t// in\n    tag_284:\n        /* \"#utility.yul\":14336:14668   */\n      swap4\n      swap3\n      pop\n      pop\n      pop\n      jump\t// out\n        /* \"#utility.yul\":14674:14854   */\n    tag_38:\n        /* \"#utility.yul\":14722:14799   */\n      0x4e487b7100000000000000000000000000000000000000000000000000000000\n        /* \"#utility.yul\":14719:14720   */\n      0x00\n        /* \"#utility.yul\":14712:14800   */\n      mstore\n        /* \"#utility.yul\":14819:14823   */\n      0x32\n        /* \"#utility.yul\":14816:14817   */\n      0x04\n        /* \"#utility.yul\":14809:14824   */\n      mstore\n        /* \"#utility.yul\":14843:14847   */\n      0x24\n        /* \"#utility.yul\":14840:14841   */\n      0x00\n        /* \"#utility.yul\":14833:14848   */\n      revert\n        /* \"#utility.yul\":14860:15040   */\n    tag_125:\n        /* \"#utility.yul\":14908:14985   */\n      0x4e487b7100000000000000000000000000000000000000000000000000000000\n        /* \"#utility.yul\":14905:14906   */\n      0x00\n        /* \"#utility.yul\":14898:14986   */\n      mstore\n        /* \"#utility.yul\":15005:15009   */\n      0x11\n        /* \"#utility.yul\":15002:15003   */\n      0x04\n        /* \"#utility.yul\":14995:15010   */\n      mstore\n        /* \"#utility.yul\":15029:15033   */\n      0x24\n        /* \"#utility.yul\":15026:15027   */\n      0x00\n        /* \"#utility.yul\":15019:15034   */\n      revert\n        /* \"#utility.yul\":15046:15279   */\n    tag_53:\n        /* \"#utility.yul\":15085:15088   */\n      0x00\n        /* \"#utility.yul\":15108:15132   */\n      tag_288\n        /* \"#utility.yul\":15126:15131   */\n      dup3\n        /* \"#utility.yul\":15108:15132   */\n      tag_91\n      jump\t// in\n    tag_288:\n        /* \"#utility.yul\":15099:15132   */\n      swap2\n      pop\n        /* \"#utility.yul\":15154:15220   */\n      0xffffffffffffffffffffffffffffffffffffffffffffffffffffffffffffffff\n        /* \"#utility.yul\":15147:15152   */\n      dup3\n        /* \"#utility.yul\":15144:15221   */\n      sub\n        /* \"#utility.yul\":15141:15244   */\n      tag_289\n      jumpi\n        /* \"#utility.yul\":15224:15242   */\n      tag_290\n      tag_125\n      jump\t// in\n    tag_290:\n        /* \"#utility.yul\":15141:15244   */\n    tag_289:\n        /* \"#utility.yul\":15271:15272   */\n      0x01\n        /* \"#utility.yul\":15264:15269   */\n      dup3\n        /* \"#utility.yul\":15260:15273   */\n      add\n        /* \"#utility.yul\":15253:15273   */\n      swap1\n      pop\n        /* \"#utility.yul\":15046:15279   */\n      swap2\n      swap1\n      pop\n      jump\t// out\n        /* \"#utility.yul\":15285:15394   */\n    tag_126:\n        /* \"#utility.yul\":15366:15387   */\n      tag_292\n        /* \"#utility.yul\":15381:15386   */\n      dup2\n        /* \"#utility.yul\":15366:15387   */\n      tag_85\n      jump\t// in\n    tag_292:\n        /* \"#utility.yul\":15361:15364   */\n      dup3\n        /* \"#utility.yul\":15354:15388   */\n      mstore\n        /* \"#utility.yul\":15285:15394   */\n      pop\n      pop\n      jump\t// out\n        /* \"#utility.yul\":15400:15720   */\n    tag_72:\n        /* \"#utility.yul\":15515:15519   */\n      0x00\n        /* \"#utility.yul\":15553:15555   */\n      0x40\n        /* \"#utility.yul\":15542:15551   */\n      dup3\n        /* \"#utility.yul\":15538:15556   */\n      add\n        /* \"#utility.yul\":15530:15556   */\n      swap1\n      pop\n        /* \"#utility.yul\":15566:15637   */\n      tag_294\n        /* \"#utility.yul\":15634:15635   */\n      0x00\n        /* \"#utility.yul\":15623:15632   */\n      dup4\n        /* \"#utility.yul\":15619:15636   */\n      add\n        /* \"#utility.yul\":15610:15616   */\n      dup6\n        /* \"#utility.yul\":15566:15637   */\n      tag_124\n      jump\t// in\n    tag_294:\n        /* \"#utility.yul\":15647:15713   */\n      tag_295\n        /* \"#utility.yul\":15709:15711   */\n      0x20\n        /* \"#utility.yul\":15698:15707   */\n      dup4\n        /* \"#utility.yul\":15694:15712   */\n      add\n        /* \"#utility.yul\":15685:15691   */\n      dup5\n        /* \"#utility.yul\":15647:15713   */\n      tag_126\n      jump\t// in\n    tag_295:\n        /* \"#utility.yul\":15400:15720   */\n      swap4\n      swap3\n      pop\n      pop\n      pop\n      jump\t// out\n\n    auxdata: 0xa26469706673582212201b2167ffaec0dd0b02474138416a2e63e110109cb40609c6eee2b18cce485aef64736f6c634300081a0033\n}\n",
				"bytecode": {
					"linkReferences": {},
					"object": "6080604052348015600e575f80fd5b50610eb58061001c5f395ff3fe608060405234801561000f575f80fd5b506004361061003f575f3560e01c806320df4581146100435780636e13f8181461005f578063aaba29071461007d575b5f80fd5b61005d600480360381019061005891906107d7565b610099565b005b610067610213565b6040516100749190610a12565b60405180910390f35b61009760048036038101906100929190610a5c565b61053e565b005b5f808054905090505f60405180608001604052808381526020013373ffffffffffffffffffffffffffffffffffffffff168152602001858152602001841515815250908060018154018082558091505060019003905f5260205f2090600402015f909190919091505f820151815f01556020820151816001015f6101000a81548173ffffffffffffffffffffffffffffffffffffffff021916908373ffffffffffffffffffffffffffffffffffffffff16021790555060408201518160020190816101649190610c94565b506060820151816003015f6101000a81548160ff02191690831515021790555050503360015f8381526020019081526020015f205f6101000a81548173ffffffffffffffffffffffffffffffffffffffff021916908373ffffffffffffffffffffffffffffffffffffffff1602179055507f1f54e1ba1832d428fbd7e7792beaf62b1fc5a382c207ffd614209c1413e94fda3382604051610206929190610d81565b60405180910390a1505050565b60605f808054905067ffffffffffffffff8111156102345761023361067e565b5b60405190808252806020026020018201604052801561026d57816020015b61025a610618565b8152602001906001900390816102525790505b5090505f805b5f8054905081101561048c573373ffffffffffffffffffffffffffffffffffffffff1660015f8381526020019081526020015f205f9054906101000a900473ffffffffffffffffffffffffffffffffffffffff1673ffffffffffffffffffffffffffffffffffffffff1614801561031b57505f15155f82815481106102fb576102fa610da8565b5b905f5260205f2090600402016003015f9054906101000a900460ff161515145b1561047f575f818154811061033357610332610da8565b5b905f5260205f2090600402016040518060800160405290815f8201548152602001600182015f9054906101000a900473ffffffffffffffffffffffffffffffffffffffff1673ffffffffffffffffffffffffffffffffffffffff1673ffffffffffffffffffffffffffffffffffffffff1681526020016002820180546103b890610ac7565b80601f01602080910402602001604051908101604052809291908181526020018280546103e490610ac7565b801561042f5780601f106104065761010080835404028352916020019161042f565b820191905f5260205f20905b81548152906001019060200180831161041257829003601f168201915b50505050508152602001600382015f9054906101000a900460ff16151515158152505083838151811061046557610464610da8565b5b6020026020010181905250818061047b90610e02565b9250505b8080600101915050610273565b505f8167ffffffffffffffff8111156104a8576104a761067e565b5b6040519080825280602002602001820160405280156104e157816020015b6104ce610618565b8152602001906001900390816104c65790505b5090505f5b828110156105345783818151811061050157610500610da8565b5b602002602001015182828151811061051c5761051b610da8565b5b602002602001018190525080806001019150506104e6565b5080935050505090565b3373ffffffffffffffffffffffffffffffffffffffff1660015f8481526020019081526020015f205f9054906101000a900473ffffffffffffffffffffffffffffffffffffffff1673ffffffffffffffffffffffffffffffffffffffff160361061457805f83815481106105b5576105b4610da8565b5b905f5260205f2090600402016003015f6101000a81548160ff0219169083151502179055507ff88a35c3d2016c409a46570b994a17b408dbc83c14a03f521512d50b85386d06828260405161060b929190610e58565b60405180910390a15b5050565b60405180608001604052805f81526020015f73ffffffffffffffffffffffffffffffffffffffff168152602001606081526020015f151581525090565b5f604051905090565b5f80fd5b5f80fd5b5f80fd5b5f80fd5b5f601f19601f8301169050919050565b7f4e487b71000000000000000000000000000000000000000000000000000000005f52604160045260245ffd5b6106b48261066e565b810181811067ffffffffffffffff821117156106d3576106d261067e565b5b80604052505050565b5f6106e5610655565b90506106f182826106ab565b919050565b5f67ffffffffffffffff8211156107105761070f61067e565b5b6107198261066e565b9050602081019050919050565b828183375f83830152505050565b5f610746610741846106f6565b6106dc565b9050828152602081018484840111156107625761076161066a565b5b61076d848285610726565b509392505050565b5f82601f83011261078957610788610666565b5b8135610799848260208601610734565b91505092915050565b5f8115159050919050565b6107b6816107a2565b81146107c0575f80fd5b50565b5f813590506107d1816107ad565b92915050565b5f80604083850312156107ed576107ec61065e565b5b5f83013567ffffffffffffffff81111561080a57610809610662565b5b61081685828601610775565b9250506020610827858286016107c3565b9150509250929050565b5f81519050919050565b5f82825260208201905092915050565b5f819050602082019050919050565b5f819050919050565b61086c8161085a565b82525050565b5f73ffffffffffffffffffffffffffffffffffffffff82169050919050565b5f61089b82610872565b9050919050565b6108ab81610891565b82525050565b5f81519050919050565b5f82825260208201905092915050565b8281835e5f83830152505050565b5f6108e3826108b1565b6108ed81856108bb565b93506108fd8185602086016108cb565b6109068161066e565b840191505092915050565b61091a816107a2565b82525050565b5f608083015f8301516109355f860182610863565b50602083015161094860208601826108a2565b506040830151848203604086015261096082826108d9565b91505060608301516109756060860182610911565b508091505092915050565b5f61098b8383610920565b905092915050565b5f602082019050919050565b5f6109a982610831565b6109b3818561083b565b9350836020820285016109c58561084b565b805f5b85811015610a0057848403895281516109e18582610980565b94506109ec83610993565b925060208a019950506001810190506109c8565b50829750879550505050505092915050565b5f6020820190508181035f830152610a2a818461099f565b905092915050565b610a3b8161085a565b8114610a45575f80fd5b50565b5f81359050610a5681610a32565b92915050565b5f8060408385031215610a7257610a7161065e565b5b5f610a7f85828601610a48565b9250506020610a90858286016107c3565b9150509250929050565b7f4e487b71000000000000000000000000000000000000000000000000000000005f52602260045260245ffd5b5f6002820490506001821680610ade57607f821691505b602082108103610af157610af0610a9a565b5b50919050565b5f819050815f5260205f209050919050565b5f6020601f8301049050919050565b5f82821b905092915050565b5f60088302610b537fffffffffffffffffffffffffffffffffffffffffffffffffffffffffffffffff82610b18565b610b5d8683610b18565b95508019841693508086168417925050509392505050565b5f819050919050565b5f610b98610b93610b8e8461085a565b610b75565b61085a565b9050919050565b5f819050919050565b610bb183610b7e565b610bc5610bbd82610b9f565b848454610b24565b825550505050565b5f90565b610bd9610bcd565b610be4818484610ba8565b505050565b5b81811015610c0757610bfc5f82610bd1565b600181019050610bea565b5050565b601f821115610c4c57610c1d81610af7565b610c2684610b09565b81016020851015610c35578190505b610c49610c4185610b09565b830182610be9565b50505b505050565b5f82821c905092915050565b5f610c6c5f1984600802610c51565b1980831691505092915050565b5f610c848383610c5d565b9150826002028217905092915050565b610c9d826108b1565b67ffffffffffffffff811115610cb657610cb561067e565b5b610cc08254610ac7565b610ccb828285610c0b565b5f60209050601f831160018114610cfc575f8415610cea578287015190505b610cf48582610c79565b865550610d5b565b601f198416610d0a86610af7565b5f5b82811015610d3157848901518255600182019150602085019450602081019050610d0c565b86831015610d4e5784890151610d4a601f891682610c5d565b8355505b6001600288020188555050505b505050505050565b610d6c81610891565b82525050565b610d7b8161085a565b82525050565b5f604082019050610d945f830185610d63565b610da16020830184610d72565b9392505050565b7f4e487b71000000000000000000000000000000000000000000000000000000005f52603260045260245ffd5b7f4e487b71000000000000000000000000000000000000000000000000000000005f52601160045260245ffd5b5f610e0c8261085a565b91507fffffffffffffffffffffffffffffffffffffffffffffffffffffffffffffffff8203610e3e57610e3d610dd5565b5b600182019050919050565b610e52816107a2565b82525050565b5f604082019050610e6b5f830185610d72565b610e786020830184610e49565b939250505056fea26469706673582212201b2167ffaec0dd0b02474138416a2e63e110109cb40609c6eee2b18cce485aef64736f6c634300081a0033",
					"opcodes": "PUSH1 0x80 PUSH1 0x40 MSTORE CALLVALUE DUP1 ISZERO PUSH1 0xE JUMPI PUSH0 DUP1 REVERT JUMPDEST POP PUSH2 0xEB5 DUP1 PUSH2 0x1C PUSH0 CODECOPY PUSH0 RETURN INVALID PUSH1 0x80 PUSH1 0x40 MSTORE CALLVALUE DUP1 ISZERO PUSH2 0xF JUMPI PUSH0 DUP1 REVERT JUMPDEST POP PUSH1 0x4 CALLDATASIZE LT PUSH2 0x3F JUMPI PUSH0 CALLDATALOAD PUSH1 0xE0 SHR DUP1 PUSH4 0x20DF4581 EQ PUSH2 0x43 JUMPI DUP1 PUSH4 0x6E13F818 EQ PUSH2 0x5F JUMPI DUP1 PUSH4 0xAABA2907 EQ PUSH2 0x7D JUMPI JUMPDEST PUSH0 DUP1 REVERT JUMPDEST PUSH2 0x5D PUSH1 0x4 DUP1 CALLDATASIZE SUB DUP2 ADD SWAP1 PUSH2 0x58 SWAP2 SWAP1 PUSH2 0x7D7 JUMP JUMPDEST PUSH2 0x99 JUMP JUMPDEST STOP JUMPDEST PUSH2 0x67 PUSH2 0x213 JUMP JUMPDEST PUSH1 0x40 MLOAD PUSH2 0x74 SWAP2 SWAP1 PUSH2 0xA12 JUMP JUMPDEST PUSH1 0x40 MLOAD DUP1 SWAP2 SUB SWAP1 RETURN JUMPDEST PUSH2 0x97 PUSH1 0x4 DUP1 CALLDATASIZE SUB DUP2 ADD SWAP1 PUSH2 0x92 SWAP2 SWAP1 PUSH2 0xA5C JUMP JUMPDEST PUSH2 0x53E JUMP JUMPDEST STOP JUMPDEST PUSH0 DUP1 DUP1 SLOAD SWAP1 POP SWAP1 POP PUSH0 PUSH1 0x40 MLOAD DUP1 PUSH1 0x80 ADD PUSH1 0x40 MSTORE DUP1 DUP4 DUP2 MSTORE PUSH1 0x20 ADD CALLER PUSH20 0xFFFFFFFFFFFFFFFFFFFFFFFFFFFFFFFFFFFFFFFF AND DUP2 MSTORE PUSH1 0x20 ADD DUP6 DUP2 MSTORE PUSH1 0x20 ADD DUP5 ISZERO ISZERO DUP2 MSTORE POP SWAP1 DUP1 PUSH1 0x1 DUP2 SLOAD ADD DUP1 DUP3 SSTORE DUP1 SWAP2 POP POP PUSH1 0x1 SWAP1 SUB SWAP1 PUSH0 MSTORE PUSH1 0x20 PUSH0 KECCAK256 SWAP1 PUSH1 0x4 MUL ADD PUSH0 SWAP1 SWAP2 SWAP1 SWAP2 SWAP1 SWAP2 POP PUSH0 DUP3 ADD MLOAD DUP2 PUSH0 ADD SSTORE PUSH1 0x20 DUP3 ADD MLOAD DUP2 PUSH1 0x1 ADD PUSH0 PUSH2 0x100 EXP DUP2 SLOAD DUP2 PUSH20 0xFFFFFFFFFFFFFFFFFFFFFFFFFFFFFFFFFFFFFFFF MUL NOT AND SWAP1 DUP4 PUSH20 0xFFFFFFFFFFFFFFFFFFFFFFFFFFFFFFFFFFFFFFFF AND MUL OR SWAP1 SSTORE POP PUSH1 0x40 DUP3 ADD MLOAD DUP2 PUSH1 0x2 ADD SWAP1 DUP2 PUSH2 0x164 SWAP2 SWAP1 PUSH2 0xC94 JUMP JUMPDEST POP PUSH1 0x60 DUP3 ADD MLOAD DUP2 PUSH1 0x3 ADD PUSH0 PUSH2 0x100 EXP DUP2 SLOAD DUP2 PUSH1 0xFF MUL NOT AND SWAP1 DUP4 ISZERO ISZERO MUL OR SWAP1 SSTORE POP POP POP CALLER PUSH1 0x1 PUSH0 DUP4 DUP2 MSTORE PUSH1 0x20 ADD SWAP1 DUP2 MSTORE PUSH1 0x20 ADD PUSH0 KECCAK256 PUSH0 PUSH2 0x100 EXP DUP2 SLOAD DUP2 PUSH20 0xFFFFFFFFFFFFFFFFFFFFFFFFFFFFFFFFFFFFFFFF MUL NOT AND SWAP1 DUP4 PUSH20 0xFFFFFFFFFFFFFFFFFFFFFFFFFFFFFFFFFFFFFFFF AND MUL OR SWAP1 SSTORE POP PUSH32 0x1F54E1BA1832D428FBD7E7792BEAF62B1FC5A382C207FFD614209C1413E94FDA CALLER DUP3 PUSH1 0x40 MLOAD PUSH2 0x206 SWAP3 SWAP2 SWAP1 PUSH2 0xD81 JUMP JUMPDEST PUSH1 0x40 MLOAD DUP1 SWAP2 SUB SWAP1 LOG1 POP POP POP JUMP JUMPDEST PUSH1 0x60 PUSH0 DUP1 DUP1 SLOAD SWAP1 POP PUSH8 0xFFFFFFFFFFFFFFFF DUP2 GT ISZERO PUSH2 0x234 JUMPI PUSH2 0x233 PUSH2 0x67E JUMP JUMPDEST JUMPDEST PUSH1 0x40 MLOAD SWAP1 DUP1 DUP3 MSTORE DUP1 PUSH1 0x20 MUL PUSH1 0x20 ADD DUP3 ADD PUSH1 0x40 MSTORE DUP1 ISZERO PUSH2 0x26D JUMPI DUP2 PUSH1 0x20 ADD JUMPDEST PUSH2 0x25A PUSH2 0x618 JUMP JUMPDEST DUP2 MSTORE PUSH1 0x20 ADD SWAP1 PUSH1 0x1 SWAP1 SUB SWAP1 DUP2 PUSH2 0x252 JUMPI SWAP1 POP JUMPDEST POP SWAP1 POP PUSH0 DUP1 JUMPDEST PUSH0 DUP1 SLOAD SWAP1 POP DUP2 LT ISZERO PUSH2 0x48C JUMPI CALLER PUSH20 0xFFFFFFFFFFFFFFFFFFFFFFFFFFFFFFFFFFFFFFFF AND PUSH1 0x1 PUSH0 DUP4 DUP2 MSTORE PUSH1 0x20 ADD SWAP1 DUP2 MSTORE PUSH1 0x20 ADD PUSH0 KECCAK256 PUSH0 SWAP1 SLOAD SWAP1 PUSH2 0x100 EXP SWAP1 DIV PUSH20 0xFFFFFFFFFFFFFFFFFFFFFFFFFFFFFFFFFFFFFFFF AND PUSH20 0xFFFFFFFFFFFFFFFFFFFFFFFFFFFFFFFFFFFFFFFF AND EQ DUP1 ISZERO PUSH2 0x31B JUMPI POP PUSH0 ISZERO ISZERO PUSH0 DUP3 DUP2 SLOAD DUP2 LT PUSH2 0x2FB JUMPI PUSH2 0x2FA PUSH2 0xDA8 JUMP JUMPDEST JUMPDEST SWAP1 PUSH0 MSTORE PUSH1 0x20 PUSH0 KECCAK256 SWAP1 PUSH1 0x4 MUL ADD PUSH1 0x3 ADD PUSH0 SWAP1 SLOAD SWAP1 PUSH2 0x100 EXP SWAP1 DIV PUSH1 0xFF AND ISZERO ISZERO EQ JUMPDEST ISZERO PUSH2 0x47F JUMPI PUSH0 DUP2 DUP2 SLOAD DUP2 LT PUSH2 0x333 JUMPI PUSH2 0x332 PUSH2 0xDA8 JUMP JUMPDEST JUMPDEST SWAP1 PUSH0 MSTORE PUSH1 0x20 PUSH0 KECCAK256 SWAP1 PUSH1 0x4 MUL ADD PUSH1 0x40 MLOAD DUP1 PUSH1 0x80 ADD PUSH1 0x40 MSTORE SWAP1 DUP2 PUSH0 DUP3 ADD SLOAD DUP2 MSTORE PUSH1 0x20 ADD PUSH1 0x1 DUP3 ADD PUSH0 SWAP1 SLOAD SWAP1 PUSH2 0x100 EXP SWAP1 DIV PUSH20 0xFFFFFFFFFFFFFFFFFFFFFFFFFFFFFFFFFFFFFFFF AND PUSH20 0xFFFFFFFFFFFFFFFFFFFFFFFFFFFFFFFFFFFFFFFF AND PUSH20 0xFFFFFFFFFFFFFFFFFFFFFFFFFFFFFFFFFFFFFFFF AND DUP2 MSTORE PUSH1 0x20 ADD PUSH1 0x2 DUP3 ADD DUP1 SLOAD PUSH2 0x3B8 SWAP1 PUSH2 0xAC7 JUMP JUMPDEST DUP1 PUSH1 0x1F ADD PUSH1 0x20 DUP1 SWAP2 DIV MUL PUSH1 0x20 ADD PUSH1 0x40 MLOAD SWAP1 DUP2 ADD PUSH1 0x40 MSTORE DUP1 SWAP3 SWAP2 SWAP1 DUP2 DUP2 MSTORE PUSH1 0x20 ADD DUP3 DUP1 SLOAD PUSH2 0x3E4 SWAP1 PUSH2 0xAC7 JUMP JUMPDEST DUP1 ISZERO PUSH2 0x42F JUMPI DUP1 PUSH1 0x1F LT PUSH2 0x406 JUMPI PUSH2 0x100 DUP1 DUP4 SLOAD DIV MUL DUP4 MSTORE SWAP2 PUSH1 0x20 ADD SWAP2 PUSH2 0x42F JUMP JUMPDEST DUP3 ADD SWAP2 SWAP1 PUSH0 MSTORE PUSH1 0x20 PUSH0 KECCAK256 SWAP1 JUMPDEST DUP2 SLOAD DUP2 MSTORE SWAP1 PUSH1 0x1 ADD SWAP1 PUSH1 0x20 ADD DUP1 DUP4 GT PUSH2 0x412 JUMPI DUP3 SWAP1 SUB PUSH1 0x1F AND DUP3 ADD SWAP2 JUMPDEST POP POP POP POP POP DUP2 MSTORE PUSH1 0x20 ADD PUSH1 0x3 DUP3 ADD PUSH0 SWAP1 SLOAD SWAP1 PUSH2 0x100 EXP SWAP1 DIV PUSH1 0xFF AND ISZERO ISZERO ISZERO ISZERO DUP2 MSTORE POP POP DUP4 DUP4 DUP2 MLOAD DUP2 LT PUSH2 0x465 JUMPI PUSH2 0x464 PUSH2 0xDA8 JUMP JUMPDEST JUMPDEST PUSH1 0x20 MUL PUSH1 0x20 ADD ADD DUP2 SWAP1 MSTORE POP DUP2 DUP1 PUSH2 0x47B SWAP1 PUSH2 0xE02 JUMP JUMPDEST SWAP3 POP POP JUMPDEST DUP1 DUP1 PUSH1 0x1 ADD SWAP2 POP POP PUSH2 0x273 JUMP JUMPDEST POP PUSH0 DUP2 PUSH8 0xFFFFFFFFFFFFFFFF DUP2 GT ISZERO PUSH2 0x4A8 JUMPI PUSH2 0x4A7 PUSH2 0x67E JUMP JUMPDEST JUMPDEST PUSH1 0x40 MLOAD SWAP1 DUP1 DUP3 MSTORE DUP1 PUSH1 0x20 MUL PUSH1 0x20 ADD DUP3 ADD PUSH1 0x40 MSTORE DUP1 ISZERO PUSH2 0x4E1 JUMPI DUP2 PUSH1 0x20 ADD JUMPDEST PUSH2 0x4CE PUSH2 0x618 JUMP JUMPDEST DUP2 MSTORE PUSH1 0x20 ADD SWAP1 PUSH1 0x1 SWAP1 SUB SWAP1 DUP2 PUSH2 0x4C6 JUMPI SWAP1 POP JUMPDEST POP SWAP1 POP PUSH0 JUMPDEST DUP3 DUP2 LT ISZERO PUSH2 0x534 JUMPI DUP4 DUP2 DUP2 MLOAD DUP2 LT PUSH2 0x501 JUMPI PUSH2 0x500 PUSH2 0xDA8 JUMP JUMPDEST JUMPDEST PUSH1 0x20 MUL PUSH1 0x20 ADD ADD MLOAD DUP3 DUP3 DUP2 MLOAD DUP2 LT PUSH2 0x51C JUMPI PUSH2 0x51B PUSH2 0xDA8 JUMP JUMPDEST JUMPDEST PUSH1 0x20 MUL PUSH1 0x20 ADD ADD DUP2 SWAP1 MSTORE POP DUP1 DUP1 PUSH1 0x1 ADD SWAP2 POP POP PUSH2 0x4E6 JUMP JUMPDEST POP DUP1 SWAP4 POP POP POP POP SWAP1 JUMP JUMPDEST CALLER PUSH20 0xFFFFFFFFFFFFFFFFFFFFFFFFFFFFFFFFFFFFFFFF AND PUSH1 0x1 PUSH0 DUP5 DUP2 MSTORE PUSH1 0x20 ADD SWAP1 DUP2 MSTORE PUSH1 0x20 ADD PUSH0 KECCAK256 PUSH0 SWAP1 SLOAD SWAP1 PUSH2 0x100 EXP SWAP1 DIV PUSH20 0xFFFFFFFFFFFFFFFFFFFFFFFFFFFFFFFFFFFFFFFF AND PUSH20 0xFFFFFFFFFFFFFFFFFFFFFFFFFFFFFFFFFFFFFFFF AND SUB PUSH2 0x614 JUMPI DUP1 PUSH0 DUP4 DUP2 SLOAD DUP2 LT PUSH2 0x5B5 JUMPI PUSH2 0x5B4 PUSH2 0xDA8 JUMP JUMPDEST JUMPDEST SWAP1 PUSH0 MSTORE PUSH1 0x20 PUSH0 KECCAK256 SWAP1 PUSH1 0x4 MUL ADD PUSH1 0x3 ADD PUSH0 PUSH2 0x100 EXP DUP2 SLOAD DUP2 PUSH1 0xFF MUL NOT AND SWAP1 DUP4 ISZERO ISZERO MUL OR SWAP1 SSTORE POP PUSH32 0xF88A35C3D2016C409A46570B994A17B408DBC83C14A03F521512D50B85386D06 DUP3 DUP3 PUSH1 0x40 MLOAD PUSH2 0x60B SWAP3 SWAP2 SWAP1 PUSH2 0xE58 JUMP JUMPDEST PUSH1 0x40 MLOAD DUP1 SWAP2 SUB SWAP1 LOG1 JUMPDEST POP POP JUMP JUMPDEST PUSH1 0x40 MLOAD DUP1 PUSH1 0x80 ADD PUSH1 0x40 MSTORE DUP1 PUSH0 DUP2 MSTORE PUSH1 0x20 ADD PUSH0 PUSH20 0xFFFFFFFFFFFFFFFFFFFFFFFFFFFFFFFFFFFFFFFF AND DUP2 MSTORE PUSH1 0x20 ADD PUSH1 0x60 DUP2 MSTORE PUSH1 0x20 ADD PUSH0 ISZERO ISZERO DUP2 MSTORE POP SWAP1 JUMP JUMPDEST PUSH0 PUSH1 0x40 MLOAD SWAP1 POP SWAP1 JUMP JUMPDEST PUSH0 DUP1 REVERT JUMPDEST PUSH0 DUP1 REVERT JUMPDEST PUSH0 DUP1 REVERT JUMPDEST PUSH0 DUP1 REVERT JUMPDEST PUSH0 PUSH1 0x1F NOT PUSH1 0x1F DUP4 ADD AND SWAP1 POP SWAP2 SWAP1 POP JUMP JUMPDEST PUSH32 0x4E487B7100000000000000000000000000000000000000000000000000000000 PUSH0 MSTORE PUSH1 0x41 PUSH1 0x4 MSTORE PUSH1 0x24 PUSH0 REVERT JUMPDEST PUSH2 0x6B4 DUP3 PUSH2 0x66E JUMP JUMPDEST DUP2 ADD DUP2 DUP2 LT PUSH8 0xFFFFFFFFFFFFFFFF DUP3 GT OR ISZERO PUSH2 0x6D3 JUMPI PUSH2 0x6D2 PUSH2 0x67E JUMP JUMPDEST JUMPDEST DUP1 PUSH1 0x40 MSTORE POP POP POP JUMP JUMPDEST PUSH0 PUSH2 0x6E5 PUSH2 0x655 JUMP JUMPDEST SWAP1 POP PUSH2 0x6F1 DUP3 DUP3 PUSH2 0x6AB JUMP JUMPDEST SWAP2 SWAP1 POP JUMP JUMPDEST PUSH0 PUSH8 0xFFFFFFFFFFFFFFFF DUP3 GT ISZERO PUSH2 0x710 JUMPI PUSH2 0x70F PUSH2 0x67E JUMP JUMPDEST JUMPDEST PUSH2 0x719 DUP3 PUSH2 0x66E JUMP JUMPDEST SWAP1 POP PUSH1 0x20 DUP2 ADD SWAP1 POP SWAP2 SWAP1 POP JUMP JUMPDEST DUP3 DUP2 DUP4 CALLDATACOPY PUSH0 DUP4 DUP4 ADD MSTORE POP POP POP JUMP JUMPDEST PUSH0 PUSH2 0x746 PUSH2 0x741 DUP5 PUSH2 0x6F6 JUMP JUMPDEST PUSH2 0x6DC JUMP JUMPDEST SWAP1 POP DUP3 DUP2 MSTORE PUSH1 0x20 DUP2 ADD DUP5 DUP5 DUP5 ADD GT ISZERO PUSH2 0x762 JUMPI PUSH2 0x761 PUSH2 0x66A JUMP JUMPDEST JUMPDEST PUSH2 0x76D DUP5 DUP3 DUP6 PUSH2 0x726 JUMP JUMPDEST POP SWAP4 SWAP3 POP POP POP JUMP JUMPDEST PUSH0 DUP3 PUSH1 0x1F DUP4 ADD SLT PUSH2 0x789 JUMPI PUSH2 0x788 PUSH2 0x666 JUMP JUMPDEST JUMPDEST DUP2 CALLDATALOAD PUSH2 0x799 DUP5 DUP3 PUSH1 0x20 DUP7 ADD PUSH2 0x734 JUMP JUMPDEST SWAP2 POP POP SWAP3 SWAP2 POP POP JUMP JUMPDEST PUSH0 DUP2 ISZERO ISZERO SWAP1 POP SWAP2 SWAP1 POP JUMP JUMPDEST PUSH2 0x7B6 DUP2 PUSH2 0x7A2 JUMP JUMPDEST DUP2 EQ PUSH2 0x7C0 JUMPI PUSH0 DUP1 REVERT JUMPDEST POP JUMP JUMPDEST PUSH0 DUP2 CALLDATALOAD SWAP1 POP PUSH2 0x7D1 DUP2 PUSH2 0x7AD JUMP JUMPDEST SWAP3 SWAP2 POP POP JUMP JUMPDEST PUSH0 DUP1 PUSH1 0x40 DUP4 DUP6 SUB SLT ISZERO PUSH2 0x7ED JUMPI PUSH2 0x7EC PUSH2 0x65E JUMP JUMPDEST JUMPDEST PUSH0 DUP4 ADD CALLDATALOAD PUSH8 0xFFFFFFFFFFFFFFFF DUP2 GT ISZERO PUSH2 0x80A JUMPI PUSH2 0x809 PUSH2 0x662 JUMP JUMPDEST JUMPDEST PUSH2 0x816 DUP6 DUP3 DUP7 ADD PUSH2 0x775 JUMP JUMPDEST SWAP3 POP POP PUSH1 0x20 PUSH2 0x827 DUP6 DUP3 DUP7 ADD PUSH2 0x7C3 JUMP JUMPDEST SWAP2 POP POP SWAP3 POP SWAP3 SWAP1 POP JUMP JUMPDEST PUSH0 DUP2 MLOAD SWAP1 POP SWAP2 SWAP1 POP JUMP JUMPDEST PUSH0 DUP3 DUP3 MSTORE PUSH1 0x20 DUP3 ADD SWAP1 POP SWAP3 SWAP2 POP POP JUMP JUMPDEST PUSH0 DUP2 SWAP1 POP PUSH1 0x20 DUP3 ADD SWAP1 POP SWAP2 SWAP1 POP JUMP JUMPDEST PUSH0 DUP2 SWAP1 POP SWAP2 SWAP1 POP JUMP JUMPDEST PUSH2 0x86C DUP2 PUSH2 0x85A JUMP JUMPDEST DUP3 MSTORE POP POP JUMP JUMPDEST PUSH0 PUSH20 0xFFFFFFFFFFFFFFFFFFFFFFFFFFFFFFFFFFFFFFFF DUP3 AND SWAP1 POP SWAP2 SWAP1 POP JUMP JUMPDEST PUSH0 PUSH2 0x89B DUP3 PUSH2 0x872 JUMP JUMPDEST SWAP1 POP SWAP2 SWAP1 POP JUMP JUMPDEST PUSH2 0x8AB DUP2 PUSH2 0x891 JUMP JUMPDEST DUP3 MSTORE POP POP JUMP JUMPDEST PUSH0 DUP2 MLOAD SWAP1 POP SWAP2 SWAP1 POP JUMP JUMPDEST PUSH0 DUP3 DUP3 MSTORE PUSH1 0x20 DUP3 ADD SWAP1 POP SWAP3 SWAP2 POP POP JUMP JUMPDEST DUP3 DUP2 DUP4 MCOPY PUSH0 DUP4 DUP4 ADD MSTORE POP POP POP JUMP JUMPDEST PUSH0 PUSH2 0x8E3 DUP3 PUSH2 0x8B1 JUMP JUMPDEST PUSH2 0x8ED DUP2 DUP6 PUSH2 0x8BB JUMP JUMPDEST SWAP4 POP PUSH2 0x8FD DUP2 DUP6 PUSH1 0x20 DUP7 ADD PUSH2 0x8CB JUMP JUMPDEST PUSH2 0x906 DUP2 PUSH2 0x66E JUMP JUMPDEST DUP5 ADD SWAP2 POP POP SWAP3 SWAP2 POP POP JUMP JUMPDEST PUSH2 0x91A DUP2 PUSH2 0x7A2 JUMP JUMPDEST DUP3 MSTORE POP POP JUMP JUMPDEST PUSH0 PUSH1 0x80 DUP4 ADD PUSH0 DUP4 ADD MLOAD PUSH2 0x935 PUSH0 DUP7 ADD DUP3 PUSH2 0x863 JUMP JUMPDEST POP PUSH1 0x20 DUP4 ADD MLOAD PUSH2 0x948 PUSH1 0x20 DUP7 ADD DUP3 PUSH2 0x8A2 JUMP JUMPDEST POP PUSH1 0x40 DUP4 ADD MLOAD DUP5 DUP3 SUB PUSH1 0x40 DUP7 ADD MSTORE PUSH2 0x960 DUP3 DUP3 PUSH2 0x8D9 JUMP JUMPDEST SWAP2 POP POP PUSH1 0x60 DUP4 ADD MLOAD PUSH2 0x975 PUSH1 0x60 DUP7 ADD DUP3 PUSH2 0x911 JUMP JUMPDEST POP DUP1 SWAP2 POP POP SWAP3 SWAP2 POP POP JUMP JUMPDEST PUSH0 PUSH2 0x98B DUP4 DUP4 PUSH2 0x920 JUMP JUMPDEST SWAP1 POP SWAP3 SWAP2 POP POP JUMP JUMPDEST PUSH0 PUSH1 0x20 DUP3 ADD SWAP1 POP SWAP2 SWAP1 POP JUMP JUMPDEST PUSH0 PUSH2 0x9A9 DUP3 PUSH2 0x831 JUMP JUMPDEST PUSH2 0x9B3 DUP2 DUP6 PUSH2 0x83B JUMP JUMPDEST SWAP4 POP DUP4 PUSH1 0x20 DUP3 MUL DUP6 ADD PUSH2 0x9C5 DUP6 PUSH2 0x84B JUMP JUMPDEST DUP1 PUSH0 JUMPDEST DUP6 DUP2 LT ISZERO PUSH2 0xA00 JUMPI DUP5 DUP5 SUB DUP10 MSTORE DUP2 MLOAD PUSH2 0x9E1 DUP6 DUP3 PUSH2 0x980 JUMP JUMPDEST SWAP5 POP PUSH2 0x9EC DUP4 PUSH2 0x993 JUMP JUMPDEST SWAP3 POP PUSH1 0x20 DUP11 ADD SWAP10 POP POP PUSH1 0x1 DUP2 ADD SWAP1 POP PUSH2 0x9C8 JUMP JUMPDEST POP DUP3 SWAP8 POP DUP8 SWAP6 POP POP POP POP POP POP SWAP3 SWAP2 POP POP JUMP JUMPDEST PUSH0 PUSH1 0x20 DUP3 ADD SWAP1 POP DUP2 DUP2 SUB PUSH0 DUP4 ADD MSTORE PUSH2 0xA2A DUP2 DUP5 PUSH2 0x99F JUMP JUMPDEST SWAP1 POP SWAP3 SWAP2 POP POP JUMP JUMPDEST PUSH2 0xA3B DUP2 PUSH2 0x85A JUMP JUMPDEST DUP2 EQ PUSH2 0xA45 JUMPI PUSH0 DUP1 REVERT JUMPDEST POP JUMP JUMPDEST PUSH0 DUP2 CALLDATALOAD SWAP1 POP PUSH2 0xA56 DUP2 PUSH2 0xA32 JUMP JUMPDEST SWAP3 SWAP2 POP POP JUMP JUMPDEST PUSH0 DUP1 PUSH1 0x40 DUP4 DUP6 SUB SLT ISZERO PUSH2 0xA72 JUMPI PUSH2 0xA71 PUSH2 0x65E JUMP JUMPDEST JUMPDEST PUSH0 PUSH2 0xA7F DUP6 DUP3 DUP7 ADD PUSH2 0xA48 JUMP JUMPDEST SWAP3 POP POP PUSH1 0x20 PUSH2 0xA90 DUP6 DUP3 DUP7 ADD PUSH2 0x7C3 JUMP JUMPDEST SWAP2 POP POP SWAP3 POP SWAP3 SWAP1 POP JUMP JUMPDEST PUSH32 0x4E487B7100000000000000000000000000000000000000000000000000000000 PUSH0 MSTORE PUSH1 0x22 PUSH1 0x4 MSTORE PUSH1 0x24 PUSH0 REVERT JUMPDEST PUSH0 PUSH1 0x2 DUP3 DIV SWAP1 POP PUSH1 0x1 DUP3 AND DUP1 PUSH2 0xADE JUMPI PUSH1 0x7F DUP3 AND SWAP2 POP JUMPDEST PUSH1 0x20 DUP3 LT DUP2 SUB PUSH2 0xAF1 JUMPI PUSH2 0xAF0 PUSH2 0xA9A JUMP JUMPDEST JUMPDEST POP SWAP2 SWAP1 POP JUMP JUMPDEST PUSH0 DUP2 SWAP1 POP DUP2 PUSH0 MSTORE PUSH1 0x20 PUSH0 KECCAK256 SWAP1 POP SWAP2 SWAP1 POP JUMP JUMPDEST PUSH0 PUSH1 0x20 PUSH1 0x1F DUP4 ADD DIV SWAP1 POP SWAP2 SWAP1 POP JUMP JUMPDEST PUSH0 DUP3 DUP3 SHL SWAP1 POP SWAP3 SWAP2 POP POP JUMP JUMPDEST PUSH0 PUSH1 0x8 DUP4 MUL PUSH2 0xB53 PUSH32 0xFFFFFFFFFFFFFFFFFFFFFFFFFFFFFFFFFFFFFFFFFFFFFFFFFFFFFFFFFFFFFFFF DUP3 PUSH2 0xB18 JUMP JUMPDEST PUSH2 0xB5D DUP7 DUP4 PUSH2 0xB18 JUMP JUMPDEST SWAP6 POP DUP1 NOT DUP5 AND SWAP4 POP DUP1 DUP7 AND DUP5 OR SWAP3 POP POP POP SWAP4 SWAP3 POP POP POP JUMP JUMPDEST PUSH0 DUP2 SWAP1 POP SWAP2 SWAP1 POP JUMP JUMPDEST PUSH0 PUSH2 0xB98 PUSH2 0xB93 PUSH2 0xB8E DUP5 PUSH2 0x85A JUMP JUMPDEST PUSH2 0xB75 JUMP JUMPDEST PUSH2 0x85A JUMP JUMPDEST SWAP1 POP SWAP2 SWAP1 POP JUMP JUMPDEST PUSH0 DUP2 SWAP1 POP SWAP2 SWAP1 POP JUMP JUMPDEST PUSH2 0xBB1 DUP4 PUSH2 0xB7E JUMP JUMPDEST PUSH2 0xBC5 PUSH2 0xBBD DUP3 PUSH2 0xB9F JUMP JUMPDEST DUP5 DUP5 SLOAD PUSH2 0xB24 JUMP JUMPDEST DUP3 SSTORE POP POP POP POP JUMP JUMPDEST PUSH0 SWAP1 JUMP JUMPDEST PUSH2 0xBD9 PUSH2 0xBCD JUMP JUMPDEST PUSH2 0xBE4 DUP2 DUP5 DUP5 PUSH2 0xBA8 JUMP JUMPDEST POP POP POP JUMP JUMPDEST JUMPDEST DUP2 DUP2 LT ISZERO PUSH2 0xC07 JUMPI PUSH2 0xBFC PUSH0 DUP3 PUSH2 0xBD1 JUMP JUMPDEST PUSH1 0x1 DUP2 ADD SWAP1 POP PUSH2 0xBEA JUMP JUMPDEST POP POP JUMP JUMPDEST PUSH1 0x1F DUP3 GT ISZERO PUSH2 0xC4C JUMPI PUSH2 0xC1D DUP2 PUSH2 0xAF7 JUMP JUMPDEST PUSH2 0xC26 DUP5 PUSH2 0xB09 JUMP JUMPDEST DUP2 ADD PUSH1 0x20 DUP6 LT ISZERO PUSH2 0xC35 JUMPI DUP2 SWAP1 POP JUMPDEST PUSH2 0xC49 PUSH2 0xC41 DUP6 PUSH2 0xB09 JUMP JUMPDEST DUP4 ADD DUP3 PUSH2 0xBE9 JUMP JUMPDEST POP POP JUMPDEST POP POP POP JUMP JUMPDEST PUSH0 DUP3 DUP3 SHR SWAP1 POP SWAP3 SWAP2 POP POP JUMP JUMPDEST PUSH0 PUSH2 0xC6C PUSH0 NOT DUP5 PUSH1 0x8 MUL PUSH2 0xC51 JUMP JUMPDEST NOT DUP1 DUP4 AND SWAP2 POP POP SWAP3 SWAP2 POP POP JUMP JUMPDEST PUSH0 PUSH2 0xC84 DUP4 DUP4 PUSH2 0xC5D JUMP JUMPDEST SWAP2 POP DUP3 PUSH1 0x2 MUL DUP3 OR SWAP1 POP SWAP3 SWAP2 POP POP JUMP JUMPDEST PUSH2 0xC9D DUP3 PUSH2 0x8B1 JUMP JUMPDEST PUSH8 0xFFFFFFFFFFFFFFFF DUP2 GT ISZERO PUSH2 0xCB6 JUMPI PUSH2 0xCB5 PUSH2 0x67E JUMP JUMPDEST JUMPDEST PUSH2 0xCC0 DUP3 SLOAD PUSH2 0xAC7 JUMP JUMPDEST PUSH2 0xCCB DUP3 DUP3 DUP6 PUSH2 0xC0B JUMP JUMPDEST PUSH0 PUSH1 0x20 SWAP1 POP PUSH1 0x1F DUP4 GT PUSH1 0x1 DUP2 EQ PUSH2 0xCFC JUMPI PUSH0 DUP5 ISZERO PUSH2 0xCEA JUMPI DUP3 DUP8 ADD MLOAD SWAP1 POP JUMPDEST PUSH2 0xCF4 DUP6 DUP3 PUSH2 0xC79 JUMP JUMPDEST DUP7 SSTORE POP PUSH2 0xD5B JUMP JUMPDEST PUSH1 0x1F NOT DUP5 AND PUSH2 0xD0A DUP7 PUSH2 0xAF7 JUMP JUMPDEST PUSH0 JUMPDEST DUP3 DUP2 LT ISZERO PUSH2 0xD31 JUMPI DUP5 DUP10 ADD MLOAD DUP3 SSTORE PUSH1 0x1 DUP3 ADD SWAP2 POP PUSH1 0x20 DUP6 ADD SWAP5 POP PUSH1 0x20 DUP2 ADD SWAP1 POP PUSH2 0xD0C JUMP JUMPDEST DUP7 DUP4 LT ISZERO PUSH2 0xD4E JUMPI DUP5 DUP10 ADD MLOAD PUSH2 0xD4A PUSH1 0x1F DUP10 AND DUP3 PUSH2 0xC5D JUMP JUMPDEST DUP4 SSTORE POP JUMPDEST PUSH1 0x1 PUSH1 0x2 DUP9 MUL ADD DUP9 SSTORE POP POP POP JUMPDEST POP POP POP POP POP POP JUMP JUMPDEST PUSH2 0xD6C DUP2 PUSH2 0x891 JUMP JUMPDEST DUP3 MSTORE POP POP JUMP JUMPDEST PUSH2 0xD7B DUP2 PUSH2 0x85A JUMP JUMPDEST DUP3 MSTORE POP POP JUMP JUMPDEST PUSH0 PUSH1 0x40 DUP3 ADD SWAP1 POP PUSH2 0xD94 PUSH0 DUP4 ADD DUP6 PUSH2 0xD63 JUMP JUMPDEST PUSH2 0xDA1 PUSH1 0x20 DUP4 ADD DUP5 PUSH2 0xD72 JUMP JUMPDEST SWAP4 SWAP3 POP POP POP JUMP JUMPDEST PUSH32 0x4E487B7100000000000000000000000000000000000000000000000000000000 PUSH0 MSTORE PUSH1 0x32 PUSH1 0x4 MSTORE PUSH1 0x24 PUSH0 REVERT JUMPDEST PUSH32 0x4E487B7100000000000000000000000000000000000000000000000000000000 PUSH0 MSTORE PUSH1 0x11 PUSH1 0x4 MSTORE PUSH1 0x24 PUSH0 REVERT JUMPDEST PUSH0 PUSH2 0xE0C DUP3 PUSH2 0x85A JUMP JUMPDEST SWAP2 POP PUSH32 0xFFFFFFFFFFFFFFFFFFFFFFFFFFFFFFFFFFFFFFFFFFFFFFFFFFFFFFFFFFFFFFFF DUP3 SUB PUSH2 0xE3E JUMPI PUSH2 0xE3D PUSH2 0xDD5 JUMP JUMPDEST JUMPDEST PUSH1 0x1 DUP3 ADD SWAP1 POP SWAP2 SWAP1 POP JUMP JUMPDEST PUSH2 0xE52 DUP2 PUSH2 0x7A2 JUMP JUMPDEST DUP3 MSTORE POP POP JUMP JUMPDEST PUSH0 PUSH1 0x40 DUP3 ADD SWAP1 POP PUSH2 0xE6B PUSH0 DUP4 ADD DUP6 PUSH2 0xD72 JUMP JUMPDEST PUSH2 0xE78 PUSH1 0x20 DUP4 ADD DUP5 PUSH2 0xE49 JUMP JUMPDEST SWAP4 SWAP3 POP POP POP JUMP INVALID LOG2 PUSH5 0x6970667358 0x22 SLT KECCAK256 SHL 0x21 PUSH8 0xFFAEC0DD0B024741 CODESIZE COINBASE PUSH11 0x2E63E110109CB40609C6EE 0xE2 0xB1 DUP13 0xCE BASEFEE GAS 0xEF PUSH5 0x736F6C6343 STOP ADDMOD BYTE STOP CALLER "
				},
				"gasEstimates": {
					"creation": {
						"codeDepositCost": "753000",
						"executionCost": "784",
						"totalCost": "753784"
					},
					"external": {
						"addTask(string,bool)": "infinite",
						"deleteTask(uint256,bool)": "infinite",
						"getMyTasks()": "infinite"
					}
				},
				"methodIdentifiers": {
					"addTask(string,bool)": "20df4581",
					"deleteTask(uint256,bool)": "aaba2907",
					"getMyTasks()": "6e13f818"
				}
			},
			"storageLayout": {
				"storage": [
					{
						"astId": 26,
						"contract": "contracts/TaskContract.sol:TaskContract",
						"label": "tasks",
						"offset": 0,
						"slot": "0",
						"type": "t_array(t_struct(Task)22_storage)dyn_storage"
					},
					{
						"astId": 30,
						"contract": "contracts/TaskContract.sol:TaskContract",
						"label": "taskToOwner",
						"offset": 0,
						"slot": "1",
						"type": "t_mapping(t_uint256,t_address)"
					}
				],
				"types": {
					"t_address": {
						"encoding": "inplace",
						"label": "address",
						"numberOfBytes": "20"
					},
					"t_array(t_struct(Task)22_storage)dyn_storage": {
						"base": "t_struct(Task)22_storage",
						"encoding": "dynamic_array",
						"label": "struct TaskContract.Task[]",
						"numberOfBytes": "32"
					},
					"t_bool": {
						"encoding": "inplace",
						"label": "bool",
						"numberOfBytes": "1"
					},
					"t_mapping(t_uint256,t_address)": {
						"encoding": "mapping",
						"key": "t_uint256",
						"label": "mapping(uint256 => address)",
						"numberOfBytes": "32",
						"value": "t_address"
					},
					"t_string_storage": {
						"encoding": "bytes",
						"label": "string",
						"numberOfBytes": "32"
					},
					"t_struct(Task)22_storage": {
						"encoding": "inplace",
						"label": "struct TaskContract.Task",
						"members": [
							{
								"astId": 15,
								"contract": "contracts/TaskContract.sol:TaskContract",
								"label": "id",
								"offset": 0,
								"slot": "0",
								"type": "t_uint256"
							},
							{
								"astId": 17,
								"contract": "contracts/TaskContract.sol:TaskContract",
								"label": "username",
								"offset": 0,
								"slot": "1",
								"type": "t_address"
							},
							{
								"astId": 19,
								"contract": "contracts/TaskContract.sol:TaskContract",
								"label": "taskText",
								"offset": 0,
								"slot": "2",
								"type": "t_string_storage"
							},
							{
								"astId": 21,
								"contract": "contracts/TaskContract.sol:TaskContract",
								"label": "isDeleted",
								"offset": 0,
								"slot": "3",
								"type": "t_bool"
							}
						],
						"numberOfBytes": "128"
					},
					"t_uint256": {
						"encoding": "inplace",
						"label": "uint256",
						"numberOfBytes": "32"
					}
				}
			},
			"userdoc": {
				"kind": "user",
				"methods": {},
				"version": 1
			}
		}
	}
}