{
	"contracts/Demo.sol": {
		"Artwork": {
			"abi": [
				{
					"anonymous": false,
					"inputs": [
						{
							"indexed": false,
							"internalType": "address",
							"name": "artist",
							"type": "address"
						},
						{
							"indexed": false,
							"internalType": "uint256",
							"name": "price",
							"type": "uint256"
						},
						{
							"indexed": false,
							"internalType": "uint256",
							"name": "artId",
							"type": "uint256"
						}
					],
					"name": "ArtWorkCreated",
					"type": "event"
				},
				{
					"anonymous": false,
					"inputs": [
						{
							"indexed": false,
							"internalType": "uint256",
							"name": "artId",
							"type": "uint256"
						},
						{
							"indexed": true,
							"internalType": "address",
							"name": "buyer",
							"type": "address"
						},
						{
							"indexed": true,
							"internalType": "address",
							"name": "seller",
							"type": "address"
						},
						{
							"indexed": false,
							"internalType": "uint256",
							"name": "amount",
							"type": "uint256"
						},
						{
							"indexed": false,
							"internalType": "uint256",
							"name": "totalAmount",
							"type": "uint256"
						}
					],
					"name": "ArtworkPurchased",
					"type": "event"
				},
				{
					"inputs": [
						{
							"internalType": "uint256",
							"name": "",
							"type": "uint256"
						}
					],
					"name": "artworks",
					"outputs": [
						{
							"internalType": "address",
							"name": "owner",
							"type": "address"
						},
						{
							"internalType": "string",
							"name": "image",
							"type": "string"
						},
						{
							"internalType": "string",
							"name": "description",
							"type": "string"
						},
						{
							"internalType": "uint256",
							"name": "price",
							"type": "uint256"
						},
						{
							"internalType": "string",
							"name": "credentials",
							"type": "string"
						},
						{
							"internalType": "uint256",
							"name": "quantity",
							"type": "uint256"
						},
						{
							"internalType": "bool",
							"name": "isVerified",
							"type": "bool"
						},
						{
							"internalType": "string",
							"name": "tokenUri",
							"type": "string"
						},
						{
							"internalType": "address",
							"name": "original_artist",
							"type": "address"
						}
					],
					"stateMutability": "view",
					"type": "function"
				},
				{
					"inputs": [
						{
							"internalType": "uint256",
							"name": "art_id",
							"type": "uint256"
						}
					],
					"name": "buyArtwork",
					"outputs": [],
					"stateMutability": "payable",
					"type": "function"
				},
				{
					"inputs": [
						{
							"internalType": "address",
							"name": "_owner",
							"type": "address"
						},
						{
							"internalType": "string",
							"name": "_image_path",
							"type": "string"
						},
						{
							"internalType": "string",
							"name": "_description",
							"type": "string"
						},
						{
							"internalType": "uint256",
							"name": "_price",
							"type": "uint256"
						},
						{
							"internalType": "string",
							"name": "_credentials",
							"type": "string"
						},
						{
							"internalType": "uint256",
							"name": "_quantity",
							"type": "uint256"
						}
					],
					"name": "createArt",
					"outputs": [],
					"stateMutability": "nonpayable",
					"type": "function"
				},
				{
					"inputs": [],
					"name": "getArtworks",
					"outputs": [
						{
							"components": [
								{
									"internalType": "address",
									"name": "owner",
									"type": "address"
								},
								{
									"internalType": "string",
									"name": "image",
									"type": "string"
								},
								{
									"internalType": "string",
									"name": "description",
									"type": "string"
								},
								{
									"internalType": "uint256",
									"name": "price",
									"type": "uint256"
								},
								{
									"internalType": "string",
									"name": "credentials",
									"type": "string"
								},
								{
									"internalType": "uint256",
									"name": "quantity",
									"type": "uint256"
								},
								{
									"internalType": "bool",
									"name": "isVerified",
									"type": "bool"
								},
								{
									"internalType": "string",
									"name": "tokenUri",
									"type": "string"
								},
								{
									"internalType": "address",
									"name": "original_artist",
									"type": "address"
								}
							],
							"internalType": "struct Artwork.Art[]",
							"name": "",
							"type": "tuple[]"
						}
					],
					"stateMutability": "view",
					"type": "function"
				},
				{
					"inputs": [
						{
							"internalType": "uint256",
							"name": "",
							"type": "uint256"
						}
					],
					"name": "purchases",
					"outputs": [
						{
							"internalType": "uint256",
							"name": "id",
							"type": "uint256"
						},
						{
							"internalType": "uint256",
							"name": "artId",
							"type": "uint256"
						},
						{
							"internalType": "address",
							"name": "buyer",
							"type": "address"
						},
						{
							"internalType": "address",
							"name": "seller",
							"type": "address"
						},
						{
							"internalType": "uint256",
							"name": "amount",
							"type": "uint256"
						},
						{
							"internalType": "uint256",
							"name": "total_amount",
							"type": "uint256"
						},
						{
							"internalType": "uint256",
							"name": "amounts_paid",
							"type": "uint256"
						},
						{
							"internalType": "uint256",
							"name": "amounts_remaining",
							"type": "uint256"
						},
						{
							"internalType": "string",
							"name": "delivery_state",
							"type": "string"
						},
						{
							"internalType": "bool",
							"name": "delivered_status",
							"type": "bool"
						}
					],
					"stateMutability": "view",
					"type": "function"
				}
			],
			"devdoc": {
				"kind": "dev",
				"methods": {},
				"version": 1
			},
			"evm": {
				"assembly": "    /* \"contracts/Demo.sol\":61:3254  contract Artwork {... */\n  mstore(0x40, 0x80)\n  callvalue\n  dup1\n  iszero\n  tag_1\n  jumpi\n  0x00\n  dup1\n  revert\ntag_1:\n  pop\n  dataSize(sub_0)\n  dup1\n  dataOffset(sub_0)\n  0x00\n  codecopy\n  0x00\n  return\nstop\n\nsub_0: assembly {\n        /* \"contracts/Demo.sol\":61:3254  contract Artwork {... */\n      mstore(0x40, 0x80)\n      jumpi(tag_1, lt(calldatasize, 0x04))\n      shr(0xe0, calldataload(0x00))\n      dup1\n      0xa71527\n      eq\n      tag_2\n      jumpi\n      dup1\n      0x4b602673\n      eq\n      tag_3\n      jumpi\n      dup1\n      0x79f9ec1c\n      eq\n      tag_4\n      jumpi\n      dup1\n      0x8392fe31\n      eq\n      tag_5\n      jumpi\n      dup1\n      0xe44c3c4b\n      eq\n      tag_6\n      jumpi\n    tag_1:\n      0x00\n      dup1\n      revert\n        /* \"contracts/Demo.sol\":1678:1977  function getArtworks() public view returns (Art[] memory) {... */\n    tag_2:\n      callvalue\n      dup1\n      iszero\n      tag_7\n      jumpi\n      0x00\n      dup1\n      revert\n    tag_7:\n      pop\n      tag_8\n      tag_9\n      jump\t// in\n    tag_8:\n      mload(0x40)\n      tag_10\n      swap2\n      swap1\n      tag_11\n      jump\t// in\n    tag_10:\n      mload(0x40)\n      dup1\n      swap2\n      sub\n      swap1\n      return\n        /* \"contracts/Demo.sol\":781:820  mapping(uint256 => Art) public artworks */\n    tag_3:\n      callvalue\n      dup1\n      iszero\n      tag_12\n      jumpi\n      0x00\n      dup1\n      revert\n    tag_12:\n      pop\n      tag_13\n      0x04\n      dup1\n      calldatasize\n      sub\n      dup2\n      add\n      swap1\n      tag_14\n      swap2\n      swap1\n      tag_15\n      jump\t// in\n    tag_14:\n      tag_16\n      jump\t// in\n    tag_13:\n      mload(0x40)\n      tag_17\n      swap10\n      swap9\n      swap8\n      swap7\n      swap6\n      swap5\n      swap4\n      swap3\n      swap2\n      swap1\n      tag_18\n      jump\t// in\n    tag_17:\n      mload(0x40)\n      dup1\n      swap2\n      sub\n      swap1\n      return\n        /* \"contracts/Demo.sol\":982:1647  function createArt(... */\n    tag_4:\n      callvalue\n      dup1\n      iszero\n      tag_19\n      jumpi\n      0x00\n      dup1\n      revert\n    tag_19:\n      pop\n      tag_20\n      0x04\n      dup1\n      calldatasize\n      sub\n      dup2\n      add\n      swap1\n      tag_21\n      swap2\n      swap1\n      tag_22\n      jump\t// in\n    tag_21:\n      tag_23\n      jump\t// in\n    tag_20:\n      stop\n        /* \"contracts/Demo.sol\":827:872  mapping(uint256 => Purchase) public purchases */\n    tag_5:\n      callvalue\n      dup1\n      iszero\n      tag_24\n      jumpi\n      0x00\n      dup1\n      revert\n    tag_24:\n      pop\n      tag_25\n      0x04\n      dup1\n      calldatasize\n      sub\n      dup2\n      add\n      swap1\n      tag_26\n      swap2\n      swap1\n      tag_15\n      jump\t// in\n    tag_26:\n      tag_27\n      jump\t// in\n    tag_25:\n      mload(0x40)\n      tag_28\n      swap11\n      swap10\n      swap9\n      swap8\n      swap7\n      swap6\n      swap5\n      swap4\n      swap3\n      swap2\n      swap1\n      tag_29\n      jump\t// in\n    tag_28:\n      mload(0x40)\n      dup1\n      swap2\n      sub\n      swap1\n      return\n        /* \"contracts/Demo.sol\":2218:3242  function buyArtwork(uint256 art_id) public payable {... */\n    tag_6:\n      tag_30\n      0x04\n      dup1\n      calldatasize\n      sub\n      dup2\n      add\n      swap1\n      tag_31\n      swap2\n      swap1\n      tag_15\n      jump\t// in\n    tag_31:\n      tag_32\n      jump\t// in\n    tag_30:\n      stop\n        /* \"contracts/Demo.sol\":1678:1977  function getArtworks() public view returns (Art[] memory) {... */\n    tag_9:\n        /* \"contracts/Demo.sol\":1722:1734  Art[] memory */\n      0x60\n        /* \"contracts/Demo.sol\":1747:1771  Art[] memory allArtworks */\n      0x00\n        /* \"contracts/Demo.sol\":1784:1793  art_count */\n      dup1\n      sload\n        /* \"contracts/Demo.sol\":1774:1794  new Art[](art_count) */\n      0xffffffffffffffff\n      dup2\n      gt\n      iszero\n      tag_34\n      jumpi\n      tag_35\n      tag_36\n      jump\t// in\n    tag_35:\n    tag_34:\n      mload(0x40)\n      swap1\n      dup1\n      dup3\n      mstore\n      dup1\n      0x20\n      mul\n      0x20\n      add\n      dup3\n      add\n      0x40\n      mstore\n      dup1\n      iszero\n      tag_37\n      jumpi\n      dup2\n      0x20\n      add\n    tag_38:\n      tag_39\n      tag_40\n      jump\t// in\n    tag_39:\n      dup2\n      mstore\n      0x20\n      add\n      swap1\n      0x01\n      swap1\n      sub\n      swap1\n      dup2\n      tag_38\n      jumpi\n      swap1\n      pop\n    tag_37:\n      pop\n        /* \"contracts/Demo.sol\":1747:1794  Art[] memory allArtworks = new Art[](art_count) */\n      swap1\n      pop\n        /* \"contracts/Demo.sol\":1812:1818  uint i */\n      0x00\n        /* \"contracts/Demo.sol\":1807:1939  for (uint i = 0; i < art_count; i++) {... */\n    tag_41:\n        /* \"contracts/Demo.sol\":1828:1837  art_count */\n      sload(0x00)\n        /* \"contracts/Demo.sol\":1824:1825  i */\n      dup2\n        /* \"contracts/Demo.sol\":1824:1837  i < art_count */\n      lt\n        /* \"contracts/Demo.sol\":1807:1939  for (uint i = 0; i < art_count; i++) {... */\n      iszero\n      tag_42\n      jumpi\n        /* \"contracts/Demo.sol\":1859:1875  Art storage item */\n      0x00\n        /* \"contracts/Demo.sol\":1878:1886  artworks */\n      0x02\n        /* \"contracts/Demo.sol\":1878:1889  artworks[i] */\n      0x00\n        /* \"contracts/Demo.sol\":1887:1888  i */\n      dup4\n        /* \"contracts/Demo.sol\":1878:1889  artworks[i] */\n      dup2\n      mstore\n      0x20\n      add\n      swap1\n      dup2\n      mstore\n      0x20\n      add\n      0x00\n      keccak256\n        /* \"contracts/Demo.sol\":1859:1889  Art storage item = artworks[i] */\n      swap1\n      pop\n        /* \"contracts/Demo.sol\":1923:1927  item */\n      dup1\n        /* \"contracts/Demo.sol\":1906:1927  allArtworks[i] = item */\n      mload(0x40)\n      dup1\n      0x0120\n      add\n      0x40\n      mstore\n      swap1\n      dup2\n      0x00\n      dup3\n      add\n      0x00\n      swap1\n      sload\n      swap1\n      0x0100\n      exp\n      swap1\n      div\n      0xffffffffffffffffffffffffffffffffffffffff\n      and\n      0xffffffffffffffffffffffffffffffffffffffff\n      and\n      0xffffffffffffffffffffffffffffffffffffffff\n      and\n      dup2\n      mstore\n      0x20\n      add\n      0x01\n      dup3\n      add\n      dup1\n      sload\n      tag_44\n      swap1\n      tag_45\n      jump\t// in\n    tag_44:\n      dup1\n      0x1f\n      add\n      0x20\n      dup1\n      swap2\n      div\n      mul\n      0x20\n      add\n      mload(0x40)\n      swap1\n      dup2\n      add\n      0x40\n      mstore\n      dup1\n      swap3\n      swap2\n      swap1\n      dup2\n      dup2\n      mstore\n      0x20\n      add\n      dup3\n      dup1\n      sload\n      tag_46\n      swap1\n      tag_45\n      jump\t// in\n    tag_46:\n      dup1\n      iszero\n      tag_47\n      jumpi\n      dup1\n      0x1f\n      lt\n      tag_48\n      jumpi\n      0x0100\n      dup1\n      dup4\n      sload\n      div\n      mul\n      dup4\n      mstore\n      swap2\n      0x20\n      add\n      swap2\n      jump(tag_47)\n    tag_48:\n      dup3\n      add\n      swap2\n      swap1\n      0x00\n      mstore\n      keccak256(0x00, 0x20)\n      swap1\n    tag_49:\n      dup2\n      sload\n      dup2\n      mstore\n      swap1\n      0x01\n      add\n      swap1\n      0x20\n      add\n      dup1\n      dup4\n      gt\n      tag_49\n      jumpi\n      dup3\n      swap1\n      sub\n      0x1f\n      and\n      dup3\n      add\n      swap2\n    tag_47:\n      pop\n      pop\n      pop\n      pop\n      pop\n      dup2\n      mstore\n      0x20\n      add\n      0x02\n      dup3\n      add\n      dup1\n      sload\n      tag_50\n      swap1\n      tag_45\n      jump\t// in\n    tag_50:\n      dup1\n      0x1f\n      add\n      0x20\n      dup1\n      swap2\n      div\n      mul\n      0x20\n      add\n      mload(0x40)\n      swap1\n      dup2\n      add\n      0x40\n      mstore\n      dup1\n      swap3\n      swap2\n      swap1\n      dup2\n      dup2\n      mstore\n      0x20\n      add\n      dup3\n      dup1\n      sload\n      tag_51\n      swap1\n      tag_45\n      jump\t// in\n    tag_51:\n      dup1\n      iszero\n      tag_52\n      jumpi\n      dup1\n      0x1f\n      lt\n      tag_53\n      jumpi\n      0x0100\n      dup1\n      dup4\n      sload\n      div\n      mul\n      dup4\n      mstore\n      swap2\n      0x20\n      add\n      swap2\n      jump(tag_52)\n    tag_53:\n      dup3\n      add\n      swap2\n      swap1\n      0x00\n      mstore\n      keccak256(0x00, 0x20)\n      swap1\n    tag_54:\n      dup2\n      sload\n      dup2\n      mstore\n      swap1\n      0x01\n      add\n      swap1\n      0x20\n      add\n      dup1\n      dup4\n      gt\n      tag_54\n      jumpi\n      dup3\n      swap1\n      sub\n      0x1f\n      and\n      dup3\n      add\n      swap2\n    tag_52:\n      pop\n      pop\n      pop\n      pop\n      pop\n      dup2\n      mstore\n      0x20\n      add\n      0x03\n      dup3\n      add\n      sload\n      dup2\n      mstore\n      0x20\n      add\n      0x04\n      dup3\n      add\n      dup1\n      sload\n      tag_55\n      swap1\n      tag_45\n      jump\t// in\n    tag_55:\n      dup1\n      0x1f\n      add\n      0x20\n      dup1\n      swap2\n      div\n      mul\n      0x20\n      add\n      mload(0x40)\n      swap1\n      dup2\n      add\n      0x40\n      mstore\n      dup1\n      swap3\n      swap2\n      swap1\n      dup2\n      dup2\n      mstore\n      0x20\n      add\n      dup3\n      dup1\n      sload\n      tag_56\n      swap1\n      tag_45\n      jump\t// in\n    tag_56:\n      dup1\n      iszero\n      tag_57\n      jumpi\n      dup1\n      0x1f\n      lt\n      tag_58\n      jumpi\n      0x0100\n      dup1\n      dup4\n      sload\n      div\n      mul\n      dup4\n      mstore\n      swap2\n      0x20\n      add\n      swap2\n      jump(tag_57)\n    tag_58:\n      dup3\n      add\n      swap2\n      swap1\n      0x00\n      mstore\n      keccak256(0x00, 0x20)\n      swap1\n    tag_59:\n      dup2\n      sload\n      dup2\n      mstore\n      swap1\n      0x01\n      add\n      swap1\n      0x20\n      add\n      dup1\n      dup4\n      gt\n      tag_59\n      jumpi\n      dup3\n      swap1\n      sub\n      0x1f\n      and\n      dup3\n      add\n      swap2\n    tag_57:\n      pop\n      pop\n      pop\n      pop\n      pop\n      dup2\n      mstore\n      0x20\n      add\n      0x05\n      dup3\n      add\n      sload\n      dup2\n      mstore\n      0x20\n      add\n      0x06\n      dup3\n      add\n      0x00\n      swap1\n      sload\n      swap1\n      0x0100\n      exp\n      swap1\n      div\n      0xff\n      and\n      iszero\n      iszero\n      iszero\n      iszero\n      dup2\n      mstore\n      0x20\n      add\n      0x07\n      dup3\n      add\n      dup1\n      sload\n      tag_60\n      swap1\n      tag_45\n      jump\t// in\n    tag_60:\n      dup1\n      0x1f\n      add\n      0x20\n      dup1\n      swap2\n      div\n      mul\n      0x20\n      add\n      mload(0x40)\n      swap1\n      dup2\n      add\n      0x40\n      mstore\n      dup1\n      swap3\n      swap2\n      swap1\n      dup2\n      dup2\n      mstore\n      0x20\n      add\n      dup3\n      dup1\n      sload\n      tag_61\n      swap1\n      tag_45\n      jump\t// in\n    tag_61:\n      dup1\n      iszero\n      tag_62\n      jumpi\n      dup1\n      0x1f\n      lt\n      tag_63\n      jumpi\n      0x0100\n      dup1\n      dup4\n      sload\n      div\n      mul\n      dup4\n      mstore\n      swap2\n      0x20\n      add\n      swap2\n      jump(tag_62)\n    tag_63:\n      dup3\n      add\n      swap2\n      swap1\n      0x00\n      mstore\n      keccak256(0x00, 0x20)\n      swap1\n    tag_64:\n      dup2\n      sload\n      dup2\n      mstore\n      swap1\n      0x01\n      add\n      swap1\n      0x20\n      add\n      dup1\n      dup4\n      gt\n      tag_64\n      jumpi\n      dup3\n      swap1\n      sub\n      0x1f\n      and\n      dup3\n      add\n      swap2\n    tag_62:\n      pop\n      pop\n      pop\n      pop\n      pop\n      dup2\n      mstore\n      0x20\n      add\n      0x08\n      dup3\n      add\n      0x00\n      swap1\n      sload\n      swap1\n      0x0100\n      exp\n      swap1\n      div\n      0xffffffffffffffffffffffffffffffffffffffff\n      and\n      0xffffffffffffffffffffffffffffffffffffffff\n      and\n      0xffffffffffffffffffffffffffffffffffffffff\n      and\n      dup2\n      mstore\n      pop\n      pop\n        /* \"contracts/Demo.sol\":1906:1917  allArtworks */\n      dup4\n        /* \"contracts/Demo.sol\":1918:1919  i */\n      dup4\n        /* \"contracts/Demo.sol\":1906:1920  allArtworks[i] */\n      dup2\n      mload\n      dup2\n      lt\n      tag_65\n      jumpi\n      tag_66\n      tag_67\n      jump\t// in\n    tag_66:\n    tag_65:\n      0x20\n      mul\n      0x20\n      add\n      add\n        /* \"contracts/Demo.sol\":1906:1927  allArtworks[i] = item */\n      dup2\n      swap1\n      mstore\n      pop\n        /* \"contracts/Demo.sol\":1844:1939  {... */\n      pop\n        /* \"contracts/Demo.sol\":1839:1842  i++ */\n      dup1\n      dup1\n      0x01\n      add\n      swap2\n      pop\n      pop\n        /* \"contracts/Demo.sol\":1807:1939  for (uint i = 0; i < art_count; i++) {... */\n      jump(tag_41)\n    tag_42:\n      pop\n        /* \"contracts/Demo.sol\":1958:1969  allArtworks */\n      dup1\n        /* \"contracts/Demo.sol\":1951:1969  return allArtworks */\n      swap2\n      pop\n      pop\n        /* \"contracts/Demo.sol\":1678:1977  function getArtworks() public view returns (Art[] memory) {... */\n      swap1\n      jump\t// out\n        /* \"contracts/Demo.sol\":781:820  mapping(uint256 => Art) public artworks */\n    tag_16:\n      mstore(0x20, 0x02)\n      dup1\n      0x00\n      mstore\n      keccak256(0x00, 0x40)\n      0x00\n      swap2\n      pop\n      swap1\n      pop\n      dup1\n      0x00\n      add\n      0x00\n      swap1\n      sload\n      swap1\n      0x0100\n      exp\n      swap1\n      div\n      0xffffffffffffffffffffffffffffffffffffffff\n      and\n      swap1\n      dup1\n      0x01\n      add\n      dup1\n      sload\n      tag_68\n      swap1\n      tag_45\n      jump\t// in\n    tag_68:\n      dup1\n      0x1f\n      add\n      0x20\n      dup1\n      swap2\n      div\n      mul\n      0x20\n      add\n      mload(0x40)\n      swap1\n      dup2\n      add\n      0x40\n      mstore\n      dup1\n      swap3\n      swap2\n      swap1\n      dup2\n      dup2\n      mstore\n      0x20\n      add\n      dup3\n      dup1\n      sload\n      tag_69\n      swap1\n      tag_45\n      jump\t// in\n    tag_69:\n      dup1\n      iszero\n      tag_70\n      jumpi\n      dup1\n      0x1f\n      lt\n      tag_71\n      jumpi\n      0x0100\n      dup1\n      dup4\n      sload\n      div\n      mul\n      dup4\n      mstore\n      swap2\n      0x20\n      add\n      swap2\n      jump(tag_70)\n    tag_71:\n      dup3\n      add\n      swap2\n      swap1\n      0x00\n      mstore\n      keccak256(0x00, 0x20)\n      swap1\n    tag_72:\n      dup2\n      sload\n      dup2\n      mstore\n      swap1\n      0x01\n      add\n      swap1\n      0x20\n      add\n      dup1\n      dup4\n      gt\n      tag_72\n      jumpi\n      dup3\n      swap1\n      sub\n      0x1f\n      and\n      dup3\n      add\n      swap2\n    tag_70:\n      pop\n      pop\n      pop\n      pop\n      pop\n      swap1\n      dup1\n      0x02\n      add\n      dup1\n      sload\n      tag_73\n      swap1\n      tag_45\n      jump\t// in\n    tag_73:\n      dup1\n      0x1f\n      add\n      0x20\n      dup1\n      swap2\n      div\n      mul\n      0x20\n      add\n      mload(0x40)\n      swap1\n      dup2\n      add\n      0x40\n      mstore\n      dup1\n      swap3\n      swap2\n      swap1\n      dup2\n      dup2\n      mstore\n      0x20\n      add\n      dup3\n      dup1\n      sload\n      tag_74\n      swap1\n      tag_45\n      jump\t// in\n    tag_74:\n      dup1\n      iszero\n      tag_75\n      jumpi\n      dup1\n      0x1f\n      lt\n      tag_76\n      jumpi\n      0x0100\n      dup1\n      dup4\n      sload\n      div\n      mul\n      dup4\n      mstore\n      swap2\n      0x20\n      add\n      swap2\n      jump(tag_75)\n    tag_76:\n      dup3\n      add\n      swap2\n      swap1\n      0x00\n      mstore\n      keccak256(0x00, 0x20)\n      swap1\n    tag_77:\n      dup2\n      sload\n      dup2\n      mstore\n      swap1\n      0x01\n      add\n      swap1\n      0x20\n      add\n      dup1\n      dup4\n      gt\n      tag_77\n      jumpi\n      dup3\n      swap1\n      sub\n      0x1f\n      and\n      dup3\n      add\n      swap2\n    tag_75:\n      pop\n      pop\n      pop\n      pop\n      pop\n      swap1\n      dup1\n      0x03\n      add\n      sload\n      swap1\n      dup1\n      0x04\n      add\n      dup1\n      sload\n      tag_78\n      swap1\n      tag_45\n      jump\t// in\n    tag_78:\n      dup1\n      0x1f\n      add\n      0x20\n      dup1\n      swap2\n      div\n      mul\n      0x20\n      add\n      mload(0x40)\n      swap1\n      dup2\n      add\n      0x40\n      mstore\n      dup1\n      swap3\n      swap2\n      swap1\n      dup2\n      dup2\n      mstore\n      0x20\n      add\n      dup3\n      dup1\n      sload\n      tag_79\n      swap1\n      tag_45\n      jump\t// in\n    tag_79:\n      dup1\n      iszero\n      tag_80\n      jumpi\n      dup1\n      0x1f\n      lt\n      tag_81\n      jumpi\n      0x0100\n      dup1\n      dup4\n      sload\n      div\n      mul\n      dup4\n      mstore\n      swap2\n      0x20\n      add\n      swap2\n      jump(tag_80)\n    tag_81:\n      dup3\n      add\n      swap2\n      swap1\n      0x00\n      mstore\n      keccak256(0x00, 0x20)\n      swap1\n    tag_82:\n      dup2\n      sload\n      dup2\n      mstore\n      swap1\n      0x01\n      add\n      swap1\n      0x20\n      add\n      dup1\n      dup4\n      gt\n      tag_82\n      jumpi\n      dup3\n      swap1\n      sub\n      0x1f\n      and\n      dup3\n      add\n      swap2\n    tag_80:\n      pop\n      pop\n      pop\n      pop\n      pop\n      swap1\n      dup1\n      0x05\n      add\n      sload\n      swap1\n      dup1\n      0x06\n      add\n      0x00\n      swap1\n      sload\n      swap1\n      0x0100\n      exp\n      swap1\n      div\n      0xff\n      and\n      swap1\n      dup1\n      0x07\n      add\n      dup1\n      sload\n      tag_83\n      swap1\n      tag_45\n      jump\t// in\n    tag_83:\n      dup1\n      0x1f\n      add\n      0x20\n      dup1\n      swap2\n      div\n      mul\n      0x20\n      add\n      mload(0x40)\n      swap1\n      dup2\n      add\n      0x40\n      mstore\n      dup1\n      swap3\n      swap2\n      swap1\n      dup2\n      dup2\n      mstore\n      0x20\n      add\n      dup3\n      dup1\n      sload\n      tag_84\n      swap1\n      tag_45\n      jump\t// in\n    tag_84:\n      dup1\n      iszero\n      tag_85\n      jumpi\n      dup1\n      0x1f\n      lt\n      tag_86\n      jumpi\n      0x0100\n      dup1\n      dup4\n      sload\n      div\n      mul\n      dup4\n      mstore\n      swap2\n      0x20\n      add\n      swap2\n      jump(tag_85)\n    tag_86:\n      dup3\n      add\n      swap2\n      swap1\n      0x00\n      mstore\n      keccak256(0x00, 0x20)\n      swap1\n    tag_87:\n      dup2\n      sload\n      dup2\n      mstore\n      swap1\n      0x01\n      add\n      swap1\n      0x20\n      add\n      dup1\n      dup4\n      gt\n      tag_87\n      jumpi\n      dup3\n      swap1\n      sub\n      0x1f\n      and\n      dup3\n      add\n      swap2\n    tag_85:\n      pop\n      pop\n      pop\n      pop\n      pop\n      swap1\n      dup1\n      0x08\n      add\n      0x00\n      swap1\n      sload\n      swap1\n      0x0100\n      exp\n      swap1\n      div\n      0xffffffffffffffffffffffffffffffffffffffff\n      and\n      swap1\n      pop\n      dup10\n      jump\t// out\n        /* \"contracts/Demo.sol\":982:1647  function createArt(... */\n    tag_23:\n        /* \"contracts/Demo.sol\":1214:1229  Art storage art */\n      0x00\n        /* \"contracts/Demo.sol\":1232:1240  artworks */\n      0x02\n        /* \"contracts/Demo.sol\":1232:1251  artworks[art_count] */\n      0x00\n        /* \"contracts/Demo.sol\":1241:1250  art_count */\n      dup1\n      sload\n        /* \"contracts/Demo.sol\":1232:1251  artworks[art_count] */\n      dup2\n      mstore\n      0x20\n      add\n      swap1\n      dup2\n      mstore\n      0x20\n      add\n      0x00\n      keccak256\n        /* \"contracts/Demo.sol\":1214:1251  Art storage art = artworks[art_count] */\n      swap1\n      pop\n        /* \"contracts/Demo.sol\":1274:1280  _owner */\n      dup7\n        /* \"contracts/Demo.sol\":1262:1265  art */\n      dup2\n        /* \"contracts/Demo.sol\":1262:1271  art.owner */\n      0x00\n      add\n      0x00\n        /* \"contracts/Demo.sol\":1262:1280  art.owner = _owner */\n      0x0100\n      exp\n      dup2\n      sload\n      dup2\n      0xffffffffffffffffffffffffffffffffffffffff\n      mul\n      not\n      and\n      swap1\n      dup4\n      0xffffffffffffffffffffffffffffffffffffffff\n      and\n      mul\n      or\n      swap1\n      sstore\n      pop\n        /* \"contracts/Demo.sol\":1303:1314  _image_path */\n      dup6\n        /* \"contracts/Demo.sol\":1291:1294  art */\n      dup2\n        /* \"contracts/Demo.sol\":1291:1300  art.image */\n      0x01\n      add\n        /* \"contracts/Demo.sol\":1291:1314  art.image = _image_path */\n      swap1\n      dup2\n      tag_89\n      swap2\n      swap1\n      tag_90\n      jump\t// in\n    tag_89:\n      pop\n        /* \"contracts/Demo.sol\":1343:1355  _description */\n      dup5\n        /* \"contracts/Demo.sol\":1325:1328  art */\n      dup2\n        /* \"contracts/Demo.sol\":1325:1340  art.description */\n      0x02\n      add\n        /* \"contracts/Demo.sol\":1325:1355  art.description = _description */\n      swap1\n      dup2\n      tag_91\n      swap2\n      swap1\n      tag_90\n      jump\t// in\n    tag_91:\n      pop\n        /* \"contracts/Demo.sol\":1378:1384  _price */\n      dup4\n        /* \"contracts/Demo.sol\":1366:1369  art */\n      dup2\n        /* \"contracts/Demo.sol\":1366:1375  art.price */\n      0x03\n      add\n        /* \"contracts/Demo.sol\":1366:1384  art.price = _price */\n      dup2\n      swap1\n      sstore\n      pop\n        /* \"contracts/Demo.sol\":1413:1425  _credentials */\n      dup3\n        /* \"contracts/Demo.sol\":1395:1398  art */\n      dup2\n        /* \"contracts/Demo.sol\":1395:1410  art.credentials */\n      0x04\n      add\n        /* \"contracts/Demo.sol\":1395:1425  art.credentials = _credentials */\n      swap1\n      dup2\n      tag_92\n      swap2\n      swap1\n      tag_90\n      jump\t// in\n    tag_92:\n      pop\n        /* \"contracts/Demo.sol\":1451:1460  _quantity */\n      dup2\n        /* \"contracts/Demo.sol\":1436:1439  art */\n      dup2\n        /* \"contracts/Demo.sol\":1436:1448  art.quantity */\n      0x05\n      add\n        /* \"contracts/Demo.sol\":1436:1460  art.quantity = _quantity */\n      dup2\n      swap1\n      sstore\n      pop\n        /* \"contracts/Demo.sol\":1488:1493  false */\n      0x00\n        /* \"contracts/Demo.sol\":1471:1474  art */\n      dup2\n        /* \"contracts/Demo.sol\":1471:1485  art.isVerified */\n      0x06\n      add\n      0x00\n        /* \"contracts/Demo.sol\":1471:1493  art.isVerified = false */\n      0x0100\n      exp\n      dup2\n      sload\n      dup2\n      0xff\n      mul\n      not\n      and\n      swap1\n      dup4\n      iszero\n      iszero\n      mul\n      or\n      swap1\n      sstore\n      pop\n        /* \"contracts/Demo.sol\":1504:1521  art.tokenUri = \"\" */\n      mload(0x40)\n      dup1\n      0x20\n      add\n      0x40\n      mstore\n      dup1\n      0x00\n      dup2\n      mstore\n      pop\n        /* \"contracts/Demo.sol\":1504:1507  art */\n      dup2\n        /* \"contracts/Demo.sol\":1504:1516  art.tokenUri */\n      0x07\n      add\n        /* \"contracts/Demo.sol\":1504:1521  art.tokenUri = \"\" */\n      swap1\n      dup2\n      tag_93\n      swap2\n      swap1\n      tag_90\n      jump\t// in\n    tag_93:\n      pop\n        /* \"contracts/Demo.sol\":1554:1560  _owner */\n      dup7\n        /* \"contracts/Demo.sol\":1532:1535  art */\n      dup2\n        /* \"contracts/Demo.sol\":1532:1551  art.original_artist */\n      0x08\n      add\n      0x00\n        /* \"contracts/Demo.sol\":1532:1560  art.original_artist = _owner */\n      0x0100\n      exp\n      dup2\n      sload\n      dup2\n      0xffffffffffffffffffffffffffffffffffffffff\n      mul\n      not\n      and\n      swap1\n      dup4\n      0xffffffffffffffffffffffffffffffffffffffff\n      and\n      mul\n      or\n      swap1\n      sstore\n      pop\n        /* \"contracts/Demo.sol\":1571:1580  art_count */\n      0x00\n      dup1\n        /* \"contracts/Demo.sol\":1571:1582  art_count++ */\n      dup2\n      sload\n      dup1\n      swap3\n      swap2\n      swap1\n      tag_94\n      swap1\n      tag_95\n      jump\t// in\n    tag_94:\n      swap2\n      swap1\n      pop\n      sstore\n      pop\n        /* \"contracts/Demo.sol\":1598:1639  ArtWorkCreated(_owner, _price, art_count) */\n      0x44d62de96131f2cacc99c1e9f98c05f0377cdeefb592f923d313af3058d22fdd\n        /* \"contracts/Demo.sol\":1613:1619  _owner */\n      dup8\n        /* \"contracts/Demo.sol\":1621:1627  _price */\n      dup6\n        /* \"contracts/Demo.sol\":1629:1638  art_count */\n      sload(0x00)\n        /* \"contracts/Demo.sol\":1598:1639  ArtWorkCreated(_owner, _price, art_count) */\n      mload(0x40)\n      tag_96\n      swap4\n      swap3\n      swap2\n      swap1\n      tag_97\n      jump\t// in\n    tag_96:\n      mload(0x40)\n      dup1\n      swap2\n      sub\n      swap1\n      log1\n        /* \"contracts/Demo.sol\":1203:1647  {... */\n      pop\n        /* \"contracts/Demo.sol\":982:1647  function createArt(... */\n      pop\n      pop\n      pop\n      pop\n      pop\n      pop\n      jump\t// out\n        /* \"contracts/Demo.sol\":827:872  mapping(uint256 => Purchase) public purchases */\n    tag_27:\n      mstore(0x20, 0x03)\n      dup1\n      0x00\n      mstore\n      keccak256(0x00, 0x40)\n      0x00\n      swap2\n      pop\n      swap1\n      pop\n      dup1\n      0x00\n      add\n      sload\n      swap1\n      dup1\n      0x01\n      add\n      sload\n      swap1\n      dup1\n      0x02\n      add\n      0x00\n      swap1\n      sload\n      swap1\n      0x0100\n      exp\n      swap1\n      div\n      0xffffffffffffffffffffffffffffffffffffffff\n      and\n      swap1\n      dup1\n      0x03\n      add\n      0x00\n      swap1\n      sload\n      swap1\n      0x0100\n      exp\n      swap1\n      div\n      0xffffffffffffffffffffffffffffffffffffffff\n      and\n      swap1\n      dup1\n      0x04\n      add\n      sload\n      swap1\n      dup1\n      0x05\n      add\n      sload\n      swap1\n      dup1\n      0x06\n      add\n      sload\n      swap1\n      dup1\n      0x07\n      add\n      sload\n      swap1\n      dup1\n      0x08\n      add\n      dup1\n      sload\n      tag_98\n      swap1\n      tag_45\n      jump\t// in\n    tag_98:\n      dup1\n      0x1f\n      add\n      0x20\n      dup1\n      swap2\n      div\n      mul\n      0x20\n      add\n      mload(0x40)\n      swap1\n      dup2\n      add\n      0x40\n      mstore\n      dup1\n      swap3\n      swap2\n      swap1\n      dup2\n      dup2\n      mstore\n      0x20\n      add\n      dup3\n      dup1\n      sload\n      tag_99\n      swap1\n      tag_45\n      jump\t// in\n    tag_99:\n      dup1\n      iszero\n      tag_100\n      jumpi\n      dup1\n      0x1f\n      lt\n      tag_101\n      jumpi\n      0x0100\n      dup1\n      dup4\n      sload\n      div\n      mul\n      dup4\n      mstore\n      swap2\n      0x20\n      add\n      swap2\n      jump(tag_100)\n    tag_101:\n      dup3\n      add\n      swap2\n      swap1\n      0x00\n      mstore\n      keccak256(0x00, 0x20)\n      swap1\n    tag_102:\n      dup2\n      sload\n      dup2\n      mstore\n      swap1\n      0x01\n      add\n      swap1\n      0x20\n      add\n      dup1\n      dup4\n      gt\n      tag_102\n      jumpi\n      dup3\n      swap1\n      sub\n      0x1f\n      and\n      dup3\n      add\n      swap2\n    tag_100:\n      pop\n      pop\n      pop\n      pop\n      pop\n      swap1\n      dup1\n      0x09\n      add\n      0x00\n      swap1\n      sload\n      swap1\n      0x0100\n      exp\n      swap1\n      div\n      0xff\n      and\n      swap1\n      pop\n      dup11\n      jump\t// out\n        /* \"contracts/Demo.sol\":2218:3242  function buyArtwork(uint256 art_id) public payable {... */\n    tag_32:\n        /* \"contracts/Demo.sol\":2280:2295  Art storage art */\n      0x00\n        /* \"contracts/Demo.sol\":2298:2306  artworks */\n      0x02\n        /* \"contracts/Demo.sol\":2298:2314  artworks[art_id] */\n      0x00\n        /* \"contracts/Demo.sol\":2307:2313  art_id */\n      dup4\n        /* \"contracts/Demo.sol\":2298:2314  artworks[art_id] */\n      dup2\n      mstore\n      0x20\n      add\n      swap1\n      dup2\n      mstore\n      0x20\n      add\n      0x00\n      keccak256\n        /* \"contracts/Demo.sol\":2280:2314  Art storage art = artworks[art_id] */\n      swap1\n      pop\n        /* \"contracts/Demo.sol\":2350:2351  0 */\n      0x00\n        /* \"contracts/Demo.sol\":2335:2338  art */\n      dup2\n        /* \"contracts/Demo.sol\":2335:2347  art.quantity */\n      0x05\n      add\n      sload\n        /* \"contracts/Demo.sol\":2335:2351  art.quantity > 0 */\n      gt\n        /* \"contracts/Demo.sol\":2327:2379  require(art.quantity > 0, \"Artwork is out of stock\") */\n      tag_104\n      jumpi\n      mload(0x40)\n      0x08c379a000000000000000000000000000000000000000000000000000000000\n      dup2\n      mstore\n      0x04\n      add\n      tag_105\n      swap1\n      tag_106\n      jump\t// in\n    tag_105:\n      mload(0x40)\n      dup1\n      swap2\n      sub\n      swap1\n      revert\n    tag_104:\n        /* \"contracts/Demo.sol\":2412:2415  art */\n      dup1\n        /* \"contracts/Demo.sol\":2412:2421  art.owner */\n      0x00\n      add\n      0x00\n      swap1\n      sload\n      swap1\n      0x0100\n      exp\n      swap1\n      div\n      0xffffffffffffffffffffffffffffffffffffffff\n      and\n        /* \"contracts/Demo.sol\":2398:2421  msg.sender != art.owner */\n      0xffffffffffffffffffffffffffffffffffffffff\n      and\n        /* \"contracts/Demo.sol\":2398:2408  msg.sender */\n      caller\n        /* \"contracts/Demo.sol\":2398:2421  msg.sender != art.owner */\n      0xffffffffffffffffffffffffffffffffffffffff\n      and\n      sub\n        /* \"contracts/Demo.sol\":2390:2460  require(msg.sender != art.owner, \"Owner cannot buy their own artwork\") */\n      tag_107\n      jumpi\n      mload(0x40)\n      0x08c379a000000000000000000000000000000000000000000000000000000000\n      dup2\n      mstore\n      0x04\n      add\n      tag_108\n      swap1\n      tag_109\n      jump\t// in\n    tag_108:\n      mload(0x40)\n      dup1\n      swap2\n      sub\n      swap1\n      revert\n    tag_107:\n        /* \"contracts/Demo.sol\":2471:2485  uint256 amount */\n      0x00\n        /* \"contracts/Demo.sol\":2488:2491  art */\n      dup2\n        /* \"contracts/Demo.sol\":2488:2497  art.price */\n      0x03\n      add\n      sload\n        /* \"contracts/Demo.sol\":2471:2497  uint256 amount = art.price */\n      swap1\n      pop\n        /* \"contracts/Demo.sol\":2531:2537  amount */\n      dup1\n        /* \"contracts/Demo.sol\":2518:2527  msg.value */\n      callvalue\n        /* \"contracts/Demo.sol\":2518:2537  msg.value == amount */\n      eq\n        /* \"contracts/Demo.sol\":2510:2566  require(msg.value == amount, \"Incorrect payment amount\") */\n      tag_110\n      jumpi\n      mload(0x40)\n      0x08c379a000000000000000000000000000000000000000000000000000000000\n      dup2\n      mstore\n      0x04\n      add\n      tag_111\n      swap1\n      tag_112\n      jump\t// in\n    tag_111:\n      mload(0x40)\n      dup1\n      swap2\n      sub\n      swap1\n      revert\n    tag_110:\n        /* \"contracts/Demo.sol\":2580:2589  bool sent */\n      0x00\n        /* \"contracts/Demo.sol\":2595:2598  art */\n      dup3\n        /* \"contracts/Demo.sol\":2595:2604  art.owner */\n      0x00\n      add\n      0x00\n      swap1\n      sload\n      swap1\n      0x0100\n      exp\n      swap1\n      div\n      0xffffffffffffffffffffffffffffffffffffffff\n      and\n        /* \"contracts/Demo.sol\":2595:2609  art.owner.call */\n      0xffffffffffffffffffffffffffffffffffffffff\n      and\n        /* \"contracts/Demo.sol\":2617:2623  amount */\n      dup3\n        /* \"contracts/Demo.sol\":2595:2628  art.owner.call{value: amount}(\"\") */\n      mload(0x40)\n      tag_113\n      swap1\n      tag_114\n      jump\t// in\n    tag_113:\n      0x00\n      mload(0x40)\n      dup1\n      dup4\n      sub\n      dup2\n      dup6\n      dup8\n      gas\n      call\n      swap3\n      pop\n      pop\n      pop\n      returndatasize\n      dup1\n      0x00\n      dup2\n      eq\n      tag_117\n      jumpi\n      mload(0x40)\n      swap2\n      pop\n      and(add(returndatasize, 0x3f), not(0x1f))\n      dup3\n      add\n      0x40\n      mstore\n      returndatasize\n      dup3\n      mstore\n      returndatasize\n      0x00\n      0x20\n      dup5\n      add\n      returndatacopy\n      jump(tag_116)\n    tag_117:\n      0x60\n      swap2\n      pop\n    tag_116:\n      pop\n        /* \"contracts/Demo.sol\":2579:2628  (bool sent, ) = art.owner.call{value: amount}(\"\") */\n      pop\n      swap1\n      pop\n        /* \"contracts/Demo.sol\":2647:2651  sent */\n      dup1\n        /* \"contracts/Demo.sol\":2639:2670  require(sent, \"Payment failed\") */\n      tag_118\n      jumpi\n      mload(0x40)\n      0x08c379a000000000000000000000000000000000000000000000000000000000\n      dup2\n      mstore\n      0x04\n      add\n      tag_119\n      swap1\n      tag_120\n      jump\t// in\n    tag_119:\n      mload(0x40)\n      dup1\n      swap2\n      sub\n      swap1\n      revert\n    tag_118:\n        /* \"contracts/Demo.sol\":2683:2686  art */\n      dup3\n        /* \"contracts/Demo.sol\":2683:2695  art.quantity */\n      0x05\n      add\n      0x00\n        /* \"contracts/Demo.sol\":2683:2697  art.quantity-- */\n      dup2\n      sload\n      dup1\n      swap3\n      swap2\n      swap1\n      tag_121\n      swap1\n      tag_122\n      jump\t// in\n    tag_121:\n      swap2\n      swap1\n      pop\n      sstore\n      pop\n        /* \"contracts/Demo.sol\":2738:3121  Purchase({... */\n      mload(0x40)\n      dup1\n      0x0140\n      add\n      0x40\n      mstore\n      dup1\n        /* \"contracts/Demo.sol\":2766:2780  purchase_count */\n      sload(0x01)\n        /* \"contracts/Demo.sol\":2738:3121  Purchase({... */\n      dup2\n      mstore\n      0x20\n      add\n        /* \"contracts/Demo.sol\":2802:2808  art_id */\n      dup6\n        /* \"contracts/Demo.sol\":2738:3121  Purchase({... */\n      dup2\n      mstore\n      0x20\n      add\n        /* \"contracts/Demo.sol\":2830:2840  msg.sender */\n      caller\n        /* \"contracts/Demo.sol\":2738:3121  Purchase({... */\n      0xffffffffffffffffffffffffffffffffffffffff\n      and\n      dup2\n      mstore\n      0x20\n      add\n        /* \"contracts/Demo.sol\":2863:2866  art */\n      dup5\n        /* \"contracts/Demo.sol\":2863:2872  art.owner */\n      0x00\n      add\n      0x00\n      swap1\n      sload\n      swap1\n      0x0100\n      exp\n      swap1\n      div\n      0xffffffffffffffffffffffffffffffffffffffff\n      and\n        /* \"contracts/Demo.sol\":2738:3121  Purchase({... */\n      0xffffffffffffffffffffffffffffffffffffffff\n      and\n      dup2\n      mstore\n      0x20\n      add\n        /* \"contracts/Demo.sol\":2895:2901  amount */\n      dup4\n        /* \"contracts/Demo.sol\":2738:3121  Purchase({... */\n      dup2\n      mstore\n      0x20\n      add\n        /* \"contracts/Demo.sol\":2930:2933  art */\n      dup5\n        /* \"contracts/Demo.sol\":2930:2939  art.price */\n      0x03\n      add\n      sload\n        /* \"contracts/Demo.sol\":2738:3121  Purchase({... */\n      dup2\n      mstore\n      0x20\n      add\n        /* \"contracts/Demo.sol\":2968:2974  amount */\n      dup4\n        /* \"contracts/Demo.sol\":2738:3121  Purchase({... */\n      dup2\n      mstore\n      0x20\n      add\n        /* \"contracts/Demo.sol\":3020:3026  amount */\n      dup4\n        /* \"contracts/Demo.sol\":3008:3011  art */\n      dup6\n        /* \"contracts/Demo.sol\":3008:3017  art.price */\n      0x03\n      add\n      sload\n        /* \"contracts/Demo.sol\":3008:3026  art.price - amount */\n      tag_123\n      swap2\n      swap1\n      tag_124\n      jump\t// in\n    tag_123:\n        /* \"contracts/Demo.sol\":2738:3121  Purchase({... */\n      dup2\n      mstore\n      0x20\n      add\n      mload(0x40)\n      dup1\n      0x40\n      add\n      0x40\n      mstore\n      dup1\n      0x0c\n      dup2\n      mstore\n      0x20\n      add\n      0x696e2077617265686f7573650000000000000000000000000000000000000000\n      dup2\n      mstore\n      pop\n      dup2\n      mstore\n      0x20\n      add\n        /* \"contracts/Demo.sol\":3104:3109  false */\n      0x00\n        /* \"contracts/Demo.sol\":2738:3121  Purchase({... */\n      iszero\n      iszero\n      dup2\n      mstore\n      pop\n        /* \"contracts/Demo.sol\":2710:2719  purchases */\n      0x03\n        /* \"contracts/Demo.sol\":2710:2735  purchases[purchase_count] */\n      0x00\n        /* \"contracts/Demo.sol\":2720:2734  purchase_count */\n      sload(0x01)\n        /* \"contracts/Demo.sol\":2710:2735  purchases[purchase_count] */\n      dup2\n      mstore\n      0x20\n      add\n      swap1\n      dup2\n      mstore\n      0x20\n      add\n      0x00\n      keccak256\n        /* \"contracts/Demo.sol\":2710:3121  purchases[purchase_count] = Purchase({... */\n      0x00\n      dup3\n      add\n      mload\n      dup2\n      0x00\n      add\n      sstore\n      0x20\n      dup3\n      add\n      mload\n      dup2\n      0x01\n      add\n      sstore\n      0x40\n      dup3\n      add\n      mload\n      dup2\n      0x02\n      add\n      exp(0x0100, 0x00)\n      dup2\n      sload\n      dup2\n      0xffffffffffffffffffffffffffffffffffffffff\n      mul\n      not\n      and\n      swap1\n      dup4\n      0xffffffffffffffffffffffffffffffffffffffff\n      and\n      mul\n      or\n      swap1\n      sstore\n      pop\n      0x60\n      dup3\n      add\n      mload\n      dup2\n      0x03\n      add\n      exp(0x0100, 0x00)\n      dup2\n      sload\n      dup2\n      0xffffffffffffffffffffffffffffffffffffffff\n      mul\n      not\n      and\n      swap1\n      dup4\n      0xffffffffffffffffffffffffffffffffffffffff\n      and\n      mul\n      or\n      swap1\n      sstore\n      pop\n      0x80\n      dup3\n      add\n      mload\n      dup2\n      0x04\n      add\n      sstore\n      0xa0\n      dup3\n      add\n      mload\n      dup2\n      0x05\n      add\n      sstore\n      0xc0\n      dup3\n      add\n      mload\n      dup2\n      0x06\n      add\n      sstore\n      0xe0\n      dup3\n      add\n      mload\n      dup2\n      0x07\n      add\n      sstore\n      0x0100\n      dup3\n      add\n      mload\n      dup2\n      0x08\n      add\n      swap1\n      dup2\n      tag_125\n      swap2\n      swap1\n      tag_90\n      jump\t// in\n    tag_125:\n      pop\n      0x0120\n      dup3\n      add\n      mload\n      dup2\n      0x09\n      add\n      exp(0x0100, 0x00)\n      dup2\n      sload\n      dup2\n      0xff\n      mul\n      not\n      and\n      swap1\n      dup4\n      iszero\n      iszero\n      mul\n      or\n      swap1\n      sstore\n      pop\n      swap1\n      pop\n      pop\n        /* \"contracts/Demo.sol\":3134:3148  purchase_count */\n      0x01\n      0x00\n        /* \"contracts/Demo.sol\":3134:3150  purchase_count++ */\n      dup2\n      sload\n      dup1\n      swap3\n      swap2\n      swap1\n      tag_126\n      swap1\n      tag_95\n      jump\t// in\n    tag_126:\n      swap2\n      swap1\n      pop\n      sstore\n      pop\n        /* \"contracts/Demo.sol\":3205:3208  art */\n      dup3\n        /* \"contracts/Demo.sol\":3205:3214  art.owner */\n      0x00\n      add\n      0x00\n      swap1\n      sload\n      swap1\n      0x0100\n      exp\n      swap1\n      div\n      0xffffffffffffffffffffffffffffffffffffffff\n      and\n        /* \"contracts/Demo.sol\":3168:3234  ArtworkPurchased(art_id, msg.sender, art.owner, amount, msg.value) */\n      0xffffffffffffffffffffffffffffffffffffffff\n      and\n        /* \"contracts/Demo.sol\":3193:3203  msg.sender */\n      caller\n        /* \"contracts/Demo.sol\":3168:3234  ArtworkPurchased(art_id, msg.sender, art.owner, amount, msg.value) */\n      0xffffffffffffffffffffffffffffffffffffffff\n      and\n      0x465c604f8dcf4d2dba83e76f95c4cb5876f0976ec008a9326b6d4b209142bb45\n        /* \"contracts/Demo.sol\":3185:3191  art_id */\n      dup7\n        /* \"contracts/Demo.sol\":3216:3222  amount */\n      dup6\n        /* \"contracts/Demo.sol\":3224:3233  msg.value */\n      callvalue\n        /* \"contracts/Demo.sol\":3168:3234  ArtworkPurchased(art_id, msg.sender, art.owner, amount, msg.value) */\n      mload(0x40)\n      tag_127\n      swap4\n      swap3\n      swap2\n      swap1\n      tag_128\n      jump\t// in\n    tag_127:\n      mload(0x40)\n      dup1\n      swap2\n      sub\n      swap1\n      log3\n        /* \"contracts/Demo.sol\":2269:3242  {... */\n      pop\n      pop\n      pop\n        /* \"contracts/Demo.sol\":2218:3242  function buyArtwork(uint256 art_id) public payable {... */\n      pop\n      jump\t// out\n    tag_40:\n      mload(0x40)\n      dup1\n      0x0120\n      add\n      0x40\n      mstore\n      dup1\n      and(0xffffffffffffffffffffffffffffffffffffffff, 0x00)\n      dup2\n      mstore\n      0x20\n      add\n      0x60\n      dup2\n      mstore\n      0x20\n      add\n      0x60\n      dup2\n      mstore\n      0x20\n      add\n      0x00\n      dup2\n      mstore\n      0x20\n      add\n      0x60\n      dup2\n      mstore\n      0x20\n      add\n      0x00\n      dup2\n      mstore\n      0x20\n      add\n      iszero(iszero(0x00))\n      dup2\n      mstore\n      0x20\n      add\n      0x60\n      dup2\n      mstore\n      0x20\n      add\n      and(0xffffffffffffffffffffffffffffffffffffffff, 0x00)\n      dup2\n      mstore\n      pop\n      swap1\n      jump\t// out\n        /* \"#utility.yul\":7:140   */\n    tag_129:\n        /* \"#utility.yul\":93:99   */\n      0x00\n        /* \"#utility.yul\":127:132   */\n      dup2\n        /* \"#utility.yul\":121:133   */\n      mload\n        /* \"#utility.yul\":111:133   */\n      swap1\n      pop\n        /* \"#utility.yul\":7:140   */\n      swap2\n      swap1\n      pop\n      jump\t// out\n        /* \"#utility.yul\":146:349   */\n    tag_130:\n        /* \"#utility.yul\":264:275   */\n      0x00\n        /* \"#utility.yul\":298:304   */\n      dup3\n        /* \"#utility.yul\":293:296   */\n      dup3\n        /* \"#utility.yul\":286:305   */\n      mstore\n        /* \"#utility.yul\":338:342   */\n      0x20\n        /* \"#utility.yul\":333:336   */\n      dup3\n        /* \"#utility.yul\":329:343   */\n      add\n        /* \"#utility.yul\":314:343   */\n      swap1\n      pop\n        /* \"#utility.yul\":146:349   */\n      swap3\n      swap2\n      pop\n      pop\n      jump\t// out\n        /* \"#utility.yul\":355:506   */\n    tag_131:\n        /* \"#utility.yul\":441:445   */\n      0x00\n        /* \"#utility.yul\":464:467   */\n      dup2\n        /* \"#utility.yul\":456:467   */\n      swap1\n      pop\n        /* \"#utility.yul\":494:498   */\n      0x20\n        /* \"#utility.yul\":489:492   */\n      dup3\n        /* \"#utility.yul\":485:499   */\n      add\n        /* \"#utility.yul\":477:499   */\n      swap1\n      pop\n        /* \"#utility.yul\":355:506   */\n      swap2\n      swap1\n      pop\n      jump\t// out\n        /* \"#utility.yul\":512:638   */\n    tag_132:\n        /* \"#utility.yul\":549:556   */\n      0x00\n        /* \"#utility.yul\":589:631   */\n      0xffffffffffffffffffffffffffffffffffffffff\n        /* \"#utility.yul\":582:587   */\n      dup3\n        /* \"#utility.yul\":578:632   */\n      and\n        /* \"#utility.yul\":567:632   */\n      swap1\n      pop\n        /* \"#utility.yul\":512:638   */\n      swap2\n      swap1\n      pop\n      jump\t// out\n        /* \"#utility.yul\":644:740   */\n    tag_133:\n        /* \"#utility.yul\":681:688   */\n      0x00\n        /* \"#utility.yul\":710:734   */\n      tag_202\n        /* \"#utility.yul\":728:733   */\n      dup3\n        /* \"#utility.yul\":710:734   */\n      tag_132\n      jump\t// in\n    tag_202:\n        /* \"#utility.yul\":699:734   */\n      swap1\n      pop\n        /* \"#utility.yul\":644:740   */\n      swap2\n      swap1\n      pop\n      jump\t// out\n        /* \"#utility.yul\":746:854   */\n    tag_134:\n        /* \"#utility.yul\":823:847   */\n      tag_204\n        /* \"#utility.yul\":841:846   */\n      dup2\n        /* \"#utility.yul\":823:847   */\n      tag_133\n      jump\t// in\n    tag_204:\n        /* \"#utility.yul\":818:821   */\n      dup3\n        /* \"#utility.yul\":811:848   */\n      mstore\n        /* \"#utility.yul\":746:854   */\n      pop\n      pop\n      jump\t// out\n        /* \"#utility.yul\":860:959   */\n    tag_135:\n        /* \"#utility.yul\":912:918   */\n      0x00\n        /* \"#utility.yul\":946:951   */\n      dup2\n        /* \"#utility.yul\":940:952   */\n      mload\n        /* \"#utility.yul\":930:952   */\n      swap1\n      pop\n        /* \"#utility.yul\":860:959   */\n      swap2\n      swap1\n      pop\n      jump\t// out\n        /* \"#utility.yul\":965:1124   */\n    tag_136:\n        /* \"#utility.yul\":1039:1050   */\n      0x00\n        /* \"#utility.yul\":1073:1079   */\n      dup3\n        /* \"#utility.yul\":1068:1071   */\n      dup3\n        /* \"#utility.yul\":1061:1080   */\n      mstore\n        /* \"#utility.yul\":1113:1117   */\n      0x20\n        /* \"#utility.yul\":1108:1111   */\n      dup3\n        /* \"#utility.yul\":1104:1118   */\n      add\n        /* \"#utility.yul\":1089:1118   */\n      swap1\n      pop\n        /* \"#utility.yul\":965:1124   */\n      swap3\n      swap2\n      pop\n      pop\n      jump\t// out\n        /* \"#utility.yul\":1130:1376   */\n    tag_137:\n        /* \"#utility.yul\":1211:1212   */\n      0x00\n        /* \"#utility.yul\":1221:1334   */\n    tag_208:\n        /* \"#utility.yul\":1235:1241   */\n      dup4\n        /* \"#utility.yul\":1232:1233   */\n      dup2\n        /* \"#utility.yul\":1229:1242   */\n      lt\n        /* \"#utility.yul\":1221:1334   */\n      iszero\n      tag_210\n      jumpi\n        /* \"#utility.yul\":1320:1321   */\n      dup1\n        /* \"#utility.yul\":1315:1318   */\n      dup3\n        /* \"#utility.yul\":1311:1322   */\n      add\n        /* \"#utility.yul\":1305:1323   */\n      mload\n        /* \"#utility.yul\":1301:1302   */\n      dup2\n        /* \"#utility.yul\":1296:1299   */\n      dup5\n        /* \"#utility.yul\":1292:1303   */\n      add\n        /* \"#utility.yul\":1285:1324   */\n      mstore\n        /* \"#utility.yul\":1257:1259   */\n      0x20\n        /* \"#utility.yul\":1254:1255   */\n      dup2\n        /* \"#utility.yul\":1250:1260   */\n      add\n        /* \"#utility.yul\":1245:1260   */\n      swap1\n      pop\n        /* \"#utility.yul\":1221:1334   */\n      jump(tag_208)\n    tag_210:\n        /* \"#utility.yul\":1368:1369   */\n      0x00\n        /* \"#utility.yul\":1359:1365   */\n      dup5\n        /* \"#utility.yul\":1354:1357   */\n      dup5\n        /* \"#utility.yul\":1350:1366   */\n      add\n        /* \"#utility.yul\":1343:1370   */\n      mstore\n        /* \"#utility.yul\":1192:1376   */\n      pop\n        /* \"#utility.yul\":1130:1376   */\n      pop\n      pop\n      pop\n      jump\t// out\n        /* \"#utility.yul\":1382:1484   */\n    tag_138:\n        /* \"#utility.yul\":1423:1429   */\n      0x00\n        /* \"#utility.yul\":1474:1476   */\n      0x1f\n        /* \"#utility.yul\":1470:1477   */\n      not\n        /* \"#utility.yul\":1465:1467   */\n      0x1f\n        /* \"#utility.yul\":1458:1463   */\n      dup4\n        /* \"#utility.yul\":1454:1468   */\n      add\n        /* \"#utility.yul\":1450:1478   */\n      and\n        /* \"#utility.yul\":1440:1478   */\n      swap1\n      pop\n        /* \"#utility.yul\":1382:1484   */\n      swap2\n      swap1\n      pop\n      jump\t// out\n        /* \"#utility.yul\":1490:1847   */\n    tag_139:\n        /* \"#utility.yul\":1568:1571   */\n      0x00\n        /* \"#utility.yul\":1596:1635   */\n      tag_213\n        /* \"#utility.yul\":1629:1634   */\n      dup3\n        /* \"#utility.yul\":1596:1635   */\n      tag_135\n      jump\t// in\n    tag_213:\n        /* \"#utility.yul\":1651:1712   */\n      tag_214\n        /* \"#utility.yul\":1705:1711   */\n      dup2\n        /* \"#utility.yul\":1700:1703   */\n      dup6\n        /* \"#utility.yul\":1651:1712   */\n      tag_136\n      jump\t// in\n    tag_214:\n        /* \"#utility.yul\":1644:1712   */\n      swap4\n      pop\n        /* \"#utility.yul\":1721:1786   */\n      tag_215\n        /* \"#utility.yul\":1779:1785   */\n      dup2\n        /* \"#utility.yul\":1774:1777   */\n      dup6\n        /* \"#utility.yul\":1767:1771   */\n      0x20\n        /* \"#utility.yul\":1760:1765   */\n      dup7\n        /* \"#utility.yul\":1756:1772   */\n      add\n        /* \"#utility.yul\":1721:1786   */\n      tag_137\n      jump\t// in\n    tag_215:\n        /* \"#utility.yul\":1811:1840   */\n      tag_216\n        /* \"#utility.yul\":1833:1839   */\n      dup2\n        /* \"#utility.yul\":1811:1840   */\n      tag_138\n      jump\t// in\n    tag_216:\n        /* \"#utility.yul\":1806:1809   */\n      dup5\n        /* \"#utility.yul\":1802:1841   */\n      add\n        /* \"#utility.yul\":1795:1841   */\n      swap2\n      pop\n        /* \"#utility.yul\":1572:1847   */\n      pop\n        /* \"#utility.yul\":1490:1847   */\n      swap3\n      swap2\n      pop\n      pop\n      jump\t// out\n        /* \"#utility.yul\":1853:1930   */\n    tag_140:\n        /* \"#utility.yul\":1890:1897   */\n      0x00\n        /* \"#utility.yul\":1919:1924   */\n      dup2\n        /* \"#utility.yul\":1908:1924   */\n      swap1\n      pop\n        /* \"#utility.yul\":1853:1930   */\n      swap2\n      swap1\n      pop\n      jump\t// out\n        /* \"#utility.yul\":1936:2044   */\n    tag_141:\n        /* \"#utility.yul\":2013:2037   */\n      tag_219\n        /* \"#utility.yul\":2031:2036   */\n      dup2\n        /* \"#utility.yul\":2013:2037   */\n      tag_140\n      jump\t// in\n    tag_219:\n        /* \"#utility.yul\":2008:2011   */\n      dup3\n        /* \"#utility.yul\":2001:2038   */\n      mstore\n        /* \"#utility.yul\":1936:2044   */\n      pop\n      pop\n      jump\t// out\n        /* \"#utility.yul\":2050:2140   */\n    tag_142:\n        /* \"#utility.yul\":2084:2091   */\n      0x00\n        /* \"#utility.yul\":2127:2132   */\n      dup2\n        /* \"#utility.yul\":2120:2133   */\n      iszero\n        /* \"#utility.yul\":2113:2134   */\n      iszero\n        /* \"#utility.yul\":2102:2134   */\n      swap1\n      pop\n        /* \"#utility.yul\":2050:2140   */\n      swap2\n      swap1\n      pop\n      jump\t// out\n        /* \"#utility.yul\":2146:2245   */\n    tag_143:\n        /* \"#utility.yul\":2217:2238   */\n      tag_222\n        /* \"#utility.yul\":2232:2237   */\n      dup2\n        /* \"#utility.yul\":2217:2238   */\n      tag_142\n      jump\t// in\n    tag_222:\n        /* \"#utility.yul\":2212:2215   */\n      dup3\n        /* \"#utility.yul\":2205:2239   */\n      mstore\n        /* \"#utility.yul\":2146:2245   */\n      pop\n      pop\n      jump\t// out\n        /* \"#utility.yul\":2299:4356   */\n    tag_144:\n        /* \"#utility.yul\":2396:2399   */\n      0x00\n        /* \"#utility.yul\":2432:2438   */\n      0x0120\n        /* \"#utility.yul\":2427:2430   */\n      dup4\n        /* \"#utility.yul\":2423:2439   */\n      add\n        /* \"#utility.yul\":2522:2526   */\n      0x00\n        /* \"#utility.yul\":2515:2520   */\n      dup4\n        /* \"#utility.yul\":2511:2527   */\n      add\n        /* \"#utility.yul\":2505:2528   */\n      mload\n        /* \"#utility.yul\":2541:2604   */\n      tag_224\n        /* \"#utility.yul\":2598:2602   */\n      0x00\n        /* \"#utility.yul\":2593:2596   */\n      dup7\n        /* \"#utility.yul\":2589:2603   */\n      add\n        /* \"#utility.yul\":2575:2587   */\n      dup3\n        /* \"#utility.yul\":2541:2604   */\n      tag_134\n      jump\t// in\n    tag_224:\n        /* \"#utility.yul\":2449:2614   */\n      pop\n        /* \"#utility.yul\":2697:2701   */\n      0x20\n        /* \"#utility.yul\":2690:2695   */\n      dup4\n        /* \"#utility.yul\":2686:2702   */\n      add\n        /* \"#utility.yul\":2680:2703   */\n      mload\n        /* \"#utility.yul\":2750:2753   */\n      dup5\n        /* \"#utility.yul\":2744:2748   */\n      dup3\n        /* \"#utility.yul\":2740:2754   */\n      sub\n        /* \"#utility.yul\":2733:2737   */\n      0x20\n        /* \"#utility.yul\":2728:2731   */\n      dup7\n        /* \"#utility.yul\":2724:2738   */\n      add\n        /* \"#utility.yul\":2717:2755   */\n      mstore\n        /* \"#utility.yul\":2776:2849   */\n      tag_225\n        /* \"#utility.yul\":2844:2848   */\n      dup3\n        /* \"#utility.yul\":2830:2842   */\n      dup3\n        /* \"#utility.yul\":2776:2849   */\n      tag_139\n      jump\t// in\n    tag_225:\n        /* \"#utility.yul\":2768:2849   */\n      swap2\n      pop\n        /* \"#utility.yul\":2624:2860   */\n      pop\n        /* \"#utility.yul\":2949:2953   */\n      0x40\n        /* \"#utility.yul\":2942:2947   */\n      dup4\n        /* \"#utility.yul\":2938:2954   */\n      add\n        /* \"#utility.yul\":2932:2955   */\n      mload\n        /* \"#utility.yul\":3002:3005   */\n      dup5\n        /* \"#utility.yul\":2996:3000   */\n      dup3\n        /* \"#utility.yul\":2992:3006   */\n      sub\n        /* \"#utility.yul\":2985:2989   */\n      0x40\n        /* \"#utility.yul\":2980:2983   */\n      dup7\n        /* \"#utility.yul\":2976:2990   */\n      add\n        /* \"#utility.yul\":2969:3007   */\n      mstore\n        /* \"#utility.yul\":3028:3101   */\n      tag_226\n        /* \"#utility.yul\":3096:3100   */\n      dup3\n        /* \"#utility.yul\":3082:3094   */\n      dup3\n        /* \"#utility.yul\":3028:3101   */\n      tag_139\n      jump\t// in\n    tag_226:\n        /* \"#utility.yul\":3020:3101   */\n      swap2\n      pop\n        /* \"#utility.yul\":2870:3112   */\n      pop\n        /* \"#utility.yul\":3195:3199   */\n      0x60\n        /* \"#utility.yul\":3188:3193   */\n      dup4\n        /* \"#utility.yul\":3184:3200   */\n      add\n        /* \"#utility.yul\":3178:3201   */\n      mload\n        /* \"#utility.yul\":3214:3277   */\n      tag_227\n        /* \"#utility.yul\":3271:3275   */\n      0x60\n        /* \"#utility.yul\":3266:3269   */\n      dup7\n        /* \"#utility.yul\":3262:3276   */\n      add\n        /* \"#utility.yul\":3248:3260   */\n      dup3\n        /* \"#utility.yul\":3214:3277   */\n      tag_141\n      jump\t// in\n    tag_227:\n        /* \"#utility.yul\":3122:3287   */\n      pop\n        /* \"#utility.yul\":3376:3380   */\n      0x80\n        /* \"#utility.yul\":3369:3374   */\n      dup4\n        /* \"#utility.yul\":3365:3381   */\n      add\n        /* \"#utility.yul\":3359:3382   */\n      mload\n        /* \"#utility.yul\":3429:3432   */\n      dup5\n        /* \"#utility.yul\":3423:3427   */\n      dup3\n        /* \"#utility.yul\":3419:3433   */\n      sub\n        /* \"#utility.yul\":3412:3416   */\n      0x80\n        /* \"#utility.yul\":3407:3410   */\n      dup7\n        /* \"#utility.yul\":3403:3417   */\n      add\n        /* \"#utility.yul\":3396:3434   */\n      mstore\n        /* \"#utility.yul\":3455:3528   */\n      tag_228\n        /* \"#utility.yul\":3523:3527   */\n      dup3\n        /* \"#utility.yul\":3509:3521   */\n      dup3\n        /* \"#utility.yul\":3455:3528   */\n      tag_139\n      jump\t// in\n    tag_228:\n        /* \"#utility.yul\":3447:3528   */\n      swap2\n      pop\n        /* \"#utility.yul\":3297:3539   */\n      pop\n        /* \"#utility.yul\":3625:3629   */\n      0xa0\n        /* \"#utility.yul\":3618:3623   */\n      dup4\n        /* \"#utility.yul\":3614:3630   */\n      add\n        /* \"#utility.yul\":3608:3631   */\n      mload\n        /* \"#utility.yul\":3644:3707   */\n      tag_229\n        /* \"#utility.yul\":3701:3705   */\n      0xa0\n        /* \"#utility.yul\":3696:3699   */\n      dup7\n        /* \"#utility.yul\":3692:3706   */\n      add\n        /* \"#utility.yul\":3678:3690   */\n      dup3\n        /* \"#utility.yul\":3644:3707   */\n      tag_141\n      jump\t// in\n    tag_229:\n        /* \"#utility.yul\":3549:3717   */\n      pop\n        /* \"#utility.yul\":3805:3809   */\n      0xc0\n        /* \"#utility.yul\":3798:3803   */\n      dup4\n        /* \"#utility.yul\":3794:3810   */\n      add\n        /* \"#utility.yul\":3788:3811   */\n      mload\n        /* \"#utility.yul\":3824:3881   */\n      tag_230\n        /* \"#utility.yul\":3875:3879   */\n      0xc0\n        /* \"#utility.yul\":3870:3873   */\n      dup7\n        /* \"#utility.yul\":3866:3880   */\n      add\n        /* \"#utility.yul\":3852:3864   */\n      dup3\n        /* \"#utility.yul\":3824:3881   */\n      tag_143\n      jump\t// in\n    tag_230:\n        /* \"#utility.yul\":3727:3891   */\n      pop\n        /* \"#utility.yul\":3977:3981   */\n      0xe0\n        /* \"#utility.yul\":3970:3975   */\n      dup4\n        /* \"#utility.yul\":3966:3982   */\n      add\n        /* \"#utility.yul\":3960:3983   */\n      mload\n        /* \"#utility.yul\":4030:4033   */\n      dup5\n        /* \"#utility.yul\":4024:4028   */\n      dup3\n        /* \"#utility.yul\":4020:4034   */\n      sub\n        /* \"#utility.yul\":4013:4017   */\n      0xe0\n        /* \"#utility.yul\":4008:4011   */\n      dup7\n        /* \"#utility.yul\":4004:4018   */\n      add\n        /* \"#utility.yul\":3997:4035   */\n      mstore\n        /* \"#utility.yul\":4056:4129   */\n      tag_231\n        /* \"#utility.yul\":4124:4128   */\n      dup3\n        /* \"#utility.yul\":4110:4122   */\n      dup3\n        /* \"#utility.yul\":4056:4129   */\n      tag_139\n      jump\t// in\n    tag_231:\n        /* \"#utility.yul\":4048:4129   */\n      swap2\n      pop\n        /* \"#utility.yul\":3901:4140   */\n      pop\n        /* \"#utility.yul\":4233:4239   */\n      0x0100\n        /* \"#utility.yul\":4226:4231   */\n      dup4\n        /* \"#utility.yul\":4222:4240   */\n      add\n        /* \"#utility.yul\":4216:4241   */\n      mload\n        /* \"#utility.yul\":4254:4319   */\n      tag_232\n        /* \"#utility.yul\":4311:4317   */\n      0x0100\n        /* \"#utility.yul\":4306:4309   */\n      dup7\n        /* \"#utility.yul\":4302:4318   */\n      add\n        /* \"#utility.yul\":4288:4300   */\n      dup3\n        /* \"#utility.yul\":4254:4319   */\n      tag_134\n      jump\t// in\n    tag_232:\n        /* \"#utility.yul\":4150:4329   */\n      pop\n        /* \"#utility.yul\":4346:4350   */\n      dup1\n        /* \"#utility.yul\":4339:4350   */\n      swap2\n      pop\n        /* \"#utility.yul\":2401:4356   */\n      pop\n        /* \"#utility.yul\":2299:4356   */\n      swap3\n      swap2\n      pop\n      pop\n      jump\t// out\n        /* \"#utility.yul\":4362:4594   */\n    tag_145:\n        /* \"#utility.yul\":4469:4479   */\n      0x00\n        /* \"#utility.yul\":4504:4588   */\n      tag_234\n        /* \"#utility.yul\":4584:4587   */\n      dup4\n        /* \"#utility.yul\":4576:4582   */\n      dup4\n        /* \"#utility.yul\":4504:4588   */\n      tag_144\n      jump\t// in\n    tag_234:\n        /* \"#utility.yul\":4490:4588   */\n      swap1\n      pop\n        /* \"#utility.yul\":4362:4594   */\n      swap3\n      swap2\n      pop\n      pop\n      jump\t// out\n        /* \"#utility.yul\":4600:4732   */\n    tag_146:\n        /* \"#utility.yul\":4689:4693   */\n      0x00\n        /* \"#utility.yul\":4721:4725   */\n      0x20\n        /* \"#utility.yul\":4716:4719   */\n      dup3\n        /* \"#utility.yul\":4712:4726   */\n      add\n        /* \"#utility.yul\":4704:4726   */\n      swap1\n      pop\n        /* \"#utility.yul\":4600:4732   */\n      swap2\n      swap1\n      pop\n      jump\t// out\n        /* \"#utility.yul\":4790:5853   */\n    tag_147:\n        /* \"#utility.yul\":4947:4950   */\n      0x00\n        /* \"#utility.yul\":4976:5049   */\n      tag_237\n        /* \"#utility.yul\":5043:5048   */\n      dup3\n        /* \"#utility.yul\":4976:5049   */\n      tag_129\n      jump\t// in\n    tag_237:\n        /* \"#utility.yul\":5065:5170   */\n      tag_238\n        /* \"#utility.yul\":5163:5169   */\n      dup2\n        /* \"#utility.yul\":5158:5161   */\n      dup6\n        /* \"#utility.yul\":5065:5170   */\n      tag_130\n      jump\t// in\n    tag_238:\n        /* \"#utility.yul\":5058:5170   */\n      swap4\n      pop\n        /* \"#utility.yul\":5196:5199   */\n      dup4\n        /* \"#utility.yul\":5241:5245   */\n      0x20\n        /* \"#utility.yul\":5233:5239   */\n      dup3\n        /* \"#utility.yul\":5229:5246   */\n      mul\n        /* \"#utility.yul\":5224:5227   */\n      dup6\n        /* \"#utility.yul\":5220:5247   */\n      add\n        /* \"#utility.yul\":5271:5346   */\n      tag_239\n        /* \"#utility.yul\":5340:5345   */\n      dup6\n        /* \"#utility.yul\":5271:5346   */\n      tag_131\n      jump\t// in\n    tag_239:\n        /* \"#utility.yul\":5369:5376   */\n      dup1\n        /* \"#utility.yul\":5400:5401   */\n      0x00\n        /* \"#utility.yul\":5385:5808   */\n    tag_240:\n        /* \"#utility.yul\":5410:5416   */\n      dup6\n        /* \"#utility.yul\":5407:5408   */\n      dup2\n        /* \"#utility.yul\":5404:5417   */\n      lt\n        /* \"#utility.yul\":5385:5808   */\n      iszero\n      tag_242\n      jumpi\n        /* \"#utility.yul\":5481:5490   */\n      dup5\n        /* \"#utility.yul\":5475:5479   */\n      dup5\n        /* \"#utility.yul\":5471:5491   */\n      sub\n        /* \"#utility.yul\":5466:5469   */\n      dup10\n        /* \"#utility.yul\":5459:5492   */\n      mstore\n        /* \"#utility.yul\":5532:5538   */\n      dup2\n        /* \"#utility.yul\":5526:5539   */\n      mload\n        /* \"#utility.yul\":5560:5662   */\n      tag_243\n        /* \"#utility.yul\":5657:5661   */\n      dup6\n        /* \"#utility.yul\":5642:5655   */\n      dup3\n        /* \"#utility.yul\":5560:5662   */\n      tag_145\n      jump\t// in\n    tag_243:\n        /* \"#utility.yul\":5552:5662   */\n      swap5\n      pop\n        /* \"#utility.yul\":5685:5764   */\n      tag_244\n        /* \"#utility.yul\":5757:5763   */\n      dup4\n        /* \"#utility.yul\":5685:5764   */\n      tag_146\n      jump\t// in\n    tag_244:\n        /* \"#utility.yul\":5675:5764   */\n      swap3\n      pop\n        /* \"#utility.yul\":5793:5797   */\n      0x20\n        /* \"#utility.yul\":5788:5791   */\n      dup11\n        /* \"#utility.yul\":5784:5798   */\n      add\n        /* \"#utility.yul\":5777:5798   */\n      swap10\n      pop\n        /* \"#utility.yul\":5445:5808   */\n      pop\n        /* \"#utility.yul\":5432:5433   */\n      0x01\n        /* \"#utility.yul\":5429:5430   */\n      dup2\n        /* \"#utility.yul\":5425:5434   */\n      add\n        /* \"#utility.yul\":5420:5434   */\n      swap1\n      pop\n        /* \"#utility.yul\":5385:5808   */\n      jump(tag_240)\n    tag_242:\n        /* \"#utility.yul\":5389:5403   */\n      pop\n        /* \"#utility.yul\":5824:5828   */\n      dup3\n        /* \"#utility.yul\":5817:5828   */\n      swap8\n      pop\n        /* \"#utility.yul\":5844:5847   */\n      dup8\n        /* \"#utility.yul\":5837:5847   */\n      swap6\n      pop\n        /* \"#utility.yul\":4952:5853   */\n      pop\n      pop\n      pop\n      pop\n      pop\n        /* \"#utility.yul\":4790:5853   */\n      swap3\n      swap2\n      pop\n      pop\n      jump\t// out\n        /* \"#utility.yul\":5859:6308   */\n    tag_11:\n        /* \"#utility.yul\":6040:6044   */\n      0x00\n        /* \"#utility.yul\":6078:6080   */\n      0x20\n        /* \"#utility.yul\":6067:6076   */\n      dup3\n        /* \"#utility.yul\":6063:6081   */\n      add\n        /* \"#utility.yul\":6055:6081   */\n      swap1\n      pop\n        /* \"#utility.yul\":6127:6136   */\n      dup2\n        /* \"#utility.yul\":6121:6125   */\n      dup2\n        /* \"#utility.yul\":6117:6137   */\n      sub\n        /* \"#utility.yul\":6113:6114   */\n      0x00\n        /* \"#utility.yul\":6102:6111   */\n      dup4\n        /* \"#utility.yul\":6098:6115   */\n      add\n        /* \"#utility.yul\":6091:6138   */\n      mstore\n        /* \"#utility.yul\":6155:6301   */\n      tag_246\n        /* \"#utility.yul\":6296:6300   */\n      dup2\n        /* \"#utility.yul\":6287:6293   */\n      dup5\n        /* \"#utility.yul\":6155:6301   */\n      tag_147\n      jump\t// in\n    tag_246:\n        /* \"#utility.yul\":6147:6301   */\n      swap1\n      pop\n        /* \"#utility.yul\":5859:6308   */\n      swap3\n      swap2\n      pop\n      pop\n      jump\t// out\n        /* \"#utility.yul\":6314:6389   */\n    tag_148:\n        /* \"#utility.yul\":6347:6353   */\n      0x00\n        /* \"#utility.yul\":6380:6382   */\n      0x40\n        /* \"#utility.yul\":6374:6383   */\n      mload\n        /* \"#utility.yul\":6364:6383   */\n      swap1\n      pop\n        /* \"#utility.yul\":6314:6389   */\n      swap1\n      jump\t// out\n        /* \"#utility.yul\":6395:6512   */\n    tag_149:\n        /* \"#utility.yul\":6504:6505   */\n      0x00\n        /* \"#utility.yul\":6501:6502   */\n      dup1\n        /* \"#utility.yul\":6494:6506   */\n      revert\n        /* \"#utility.yul\":6518:6635   */\n    tag_150:\n        /* \"#utility.yul\":6627:6628   */\n      0x00\n        /* \"#utility.yul\":6624:6625   */\n      dup1\n        /* \"#utility.yul\":6617:6629   */\n      revert\n        /* \"#utility.yul\":6641:6763   */\n    tag_151:\n        /* \"#utility.yul\":6714:6738   */\n      tag_251\n        /* \"#utility.yul\":6732:6737   */\n      dup2\n        /* \"#utility.yul\":6714:6738   */\n      tag_140\n      jump\t// in\n    tag_251:\n        /* \"#utility.yul\":6707:6712   */\n      dup2\n        /* \"#utility.yul\":6704:6739   */\n      eq\n        /* \"#utility.yul\":6694:6757   */\n      tag_252\n      jumpi\n        /* \"#utility.yul\":6753:6754   */\n      0x00\n        /* \"#utility.yul\":6750:6751   */\n      dup1\n        /* \"#utility.yul\":6743:6755   */\n      revert\n        /* \"#utility.yul\":6694:6757   */\n    tag_252:\n        /* \"#utility.yul\":6641:6763   */\n      pop\n      jump\t// out\n        /* \"#utility.yul\":6769:6908   */\n    tag_152:\n        /* \"#utility.yul\":6815:6820   */\n      0x00\n        /* \"#utility.yul\":6853:6859   */\n      dup2\n        /* \"#utility.yul\":6840:6860   */\n      calldataload\n        /* \"#utility.yul\":6831:6860   */\n      swap1\n      pop\n        /* \"#utility.yul\":6869:6902   */\n      tag_254\n        /* \"#utility.yul\":6896:6901   */\n      dup2\n        /* \"#utility.yul\":6869:6902   */\n      tag_151\n      jump\t// in\n    tag_254:\n        /* \"#utility.yul\":6769:6908   */\n      swap3\n      swap2\n      pop\n      pop\n      jump\t// out\n        /* \"#utility.yul\":6914:7243   */\n    tag_15:\n        /* \"#utility.yul\":6973:6979   */\n      0x00\n        /* \"#utility.yul\":7022:7024   */\n      0x20\n        /* \"#utility.yul\":7010:7019   */\n      dup3\n        /* \"#utility.yul\":7001:7008   */\n      dup5\n        /* \"#utility.yul\":6997:7020   */\n      sub\n        /* \"#utility.yul\":6993:7025   */\n      slt\n        /* \"#utility.yul\":6990:7109   */\n      iszero\n      tag_256\n      jumpi\n        /* \"#utility.yul\":7028:7107   */\n      tag_257\n      tag_149\n      jump\t// in\n    tag_257:\n        /* \"#utility.yul\":6990:7109   */\n    tag_256:\n        /* \"#utility.yul\":7148:7149   */\n      0x00\n        /* \"#utility.yul\":7173:7226   */\n      tag_258\n        /* \"#utility.yul\":7218:7225   */\n      dup5\n        /* \"#utility.yul\":7209:7215   */\n      dup3\n        /* \"#utility.yul\":7198:7207   */\n      dup6\n        /* \"#utility.yul\":7194:7216   */\n      add\n        /* \"#utility.yul\":7173:7226   */\n      tag_152\n      jump\t// in\n    tag_258:\n        /* \"#utility.yul\":7163:7226   */\n      swap2\n      pop\n        /* \"#utility.yul\":7119:7236   */\n      pop\n        /* \"#utility.yul\":6914:7243   */\n      swap3\n      swap2\n      pop\n      pop\n      jump\t// out\n        /* \"#utility.yul\":7249:7367   */\n    tag_153:\n        /* \"#utility.yul\":7336:7360   */\n      tag_260\n        /* \"#utility.yul\":7354:7359   */\n      dup2\n        /* \"#utility.yul\":7336:7360   */\n      tag_133\n      jump\t// in\n    tag_260:\n        /* \"#utility.yul\":7331:7334   */\n      dup3\n        /* \"#utility.yul\":7324:7361   */\n      mstore\n        /* \"#utility.yul\":7249:7367   */\n      pop\n      pop\n      jump\t// out\n        /* \"#utility.yul\":7373:7542   */\n    tag_154:\n        /* \"#utility.yul\":7457:7468   */\n      0x00\n        /* \"#utility.yul\":7491:7497   */\n      dup3\n        /* \"#utility.yul\":7486:7489   */\n      dup3\n        /* \"#utility.yul\":7479:7498   */\n      mstore\n        /* \"#utility.yul\":7531:7535   */\n      0x20\n        /* \"#utility.yul\":7526:7529   */\n      dup3\n        /* \"#utility.yul\":7522:7536   */\n      add\n        /* \"#utility.yul\":7507:7536   */\n      swap1\n      pop\n        /* \"#utility.yul\":7373:7542   */\n      swap3\n      swap2\n      pop\n      pop\n      jump\t// out\n        /* \"#utility.yul\":7548:7925   */\n    tag_155:\n        /* \"#utility.yul\":7636:7639   */\n      0x00\n        /* \"#utility.yul\":7664:7703   */\n      tag_263\n        /* \"#utility.yul\":7697:7702   */\n      dup3\n        /* \"#utility.yul\":7664:7703   */\n      tag_135\n      jump\t// in\n    tag_263:\n        /* \"#utility.yul\":7719:7790   */\n      tag_264\n        /* \"#utility.yul\":7783:7789   */\n      dup2\n        /* \"#utility.yul\":7778:7781   */\n      dup6\n        /* \"#utility.yul\":7719:7790   */\n      tag_154\n      jump\t// in\n    tag_264:\n        /* \"#utility.yul\":7712:7790   */\n      swap4\n      pop\n        /* \"#utility.yul\":7799:7864   */\n      tag_265\n        /* \"#utility.yul\":7857:7863   */\n      dup2\n        /* \"#utility.yul\":7852:7855   */\n      dup6\n        /* \"#utility.yul\":7845:7849   */\n      0x20\n        /* \"#utility.yul\":7838:7843   */\n      dup7\n        /* \"#utility.yul\":7834:7850   */\n      add\n        /* \"#utility.yul\":7799:7864   */\n      tag_137\n      jump\t// in\n    tag_265:\n        /* \"#utility.yul\":7889:7918   */\n      tag_266\n        /* \"#utility.yul\":7911:7917   */\n      dup2\n        /* \"#utility.yul\":7889:7918   */\n      tag_138\n      jump\t// in\n    tag_266:\n        /* \"#utility.yul\":7884:7887   */\n      dup5\n        /* \"#utility.yul\":7880:7919   */\n      add\n        /* \"#utility.yul\":7873:7919   */\n      swap2\n      pop\n        /* \"#utility.yul\":7640:7925   */\n      pop\n        /* \"#utility.yul\":7548:7925   */\n      swap3\n      swap2\n      pop\n      pop\n      jump\t// out\n        /* \"#utility.yul\":7931:8049   */\n    tag_156:\n        /* \"#utility.yul\":8018:8042   */\n      tag_268\n        /* \"#utility.yul\":8036:8041   */\n      dup2\n        /* \"#utility.yul\":8018:8042   */\n      tag_140\n      jump\t// in\n    tag_268:\n        /* \"#utility.yul\":8013:8016   */\n      dup3\n        /* \"#utility.yul\":8006:8043   */\n      mstore\n        /* \"#utility.yul\":7931:8049   */\n      pop\n      pop\n      jump\t// out\n        /* \"#utility.yul\":8055:8164   */\n    tag_157:\n        /* \"#utility.yul\":8136:8157   */\n      tag_270\n        /* \"#utility.yul\":8151:8156   */\n      dup2\n        /* \"#utility.yul\":8136:8157   */\n      tag_142\n      jump\t// in\n    tag_270:\n        /* \"#utility.yul\":8131:8134   */\n      dup3\n        /* \"#utility.yul\":8124:8158   */\n      mstore\n        /* \"#utility.yul\":8055:8164   */\n      pop\n      pop\n      jump\t// out\n        /* \"#utility.yul\":8170:9630   */\n    tag_18:\n        /* \"#utility.yul\":8561:8565   */\n      0x00\n        /* \"#utility.yul\":8599:8602   */\n      0x0120\n        /* \"#utility.yul\":8588:8597   */\n      dup3\n        /* \"#utility.yul\":8584:8603   */\n      add\n        /* \"#utility.yul\":8576:8603   */\n      swap1\n      pop\n        /* \"#utility.yul\":8613:8684   */\n      tag_272\n        /* \"#utility.yul\":8681:8682   */\n      0x00\n        /* \"#utility.yul\":8670:8679   */\n      dup4\n        /* \"#utility.yul\":8666:8683   */\n      add\n        /* \"#utility.yul\":8657:8663   */\n      dup13\n        /* \"#utility.yul\":8613:8684   */\n      tag_153\n      jump\t// in\n    tag_272:\n        /* \"#utility.yul\":8731:8740   */\n      dup2\n        /* \"#utility.yul\":8725:8729   */\n      dup2\n        /* \"#utility.yul\":8721:8741   */\n      sub\n        /* \"#utility.yul\":8716:8718   */\n      0x20\n        /* \"#utility.yul\":8705:8714   */\n      dup4\n        /* \"#utility.yul\":8701:8719   */\n      add\n        /* \"#utility.yul\":8694:8742   */\n      mstore\n        /* \"#utility.yul\":8759:8837   */\n      tag_273\n        /* \"#utility.yul\":8832:8836   */\n      dup2\n        /* \"#utility.yul\":8823:8829   */\n      dup12\n        /* \"#utility.yul\":8759:8837   */\n      tag_155\n      jump\t// in\n    tag_273:\n        /* \"#utility.yul\":8751:8837   */\n      swap1\n      pop\n        /* \"#utility.yul\":8884:8893   */\n      dup2\n        /* \"#utility.yul\":8878:8882   */\n      dup2\n        /* \"#utility.yul\":8874:8894   */\n      sub\n        /* \"#utility.yul\":8869:8871   */\n      0x40\n        /* \"#utility.yul\":8858:8867   */\n      dup4\n        /* \"#utility.yul\":8854:8872   */\n      add\n        /* \"#utility.yul\":8847:8895   */\n      mstore\n        /* \"#utility.yul\":8912:8990   */\n      tag_274\n        /* \"#utility.yul\":8985:8989   */\n      dup2\n        /* \"#utility.yul\":8976:8982   */\n      dup11\n        /* \"#utility.yul\":8912:8990   */\n      tag_155\n      jump\t// in\n    tag_274:\n        /* \"#utility.yul\":8904:8990   */\n      swap1\n      pop\n        /* \"#utility.yul\":9000:9072   */\n      tag_275\n        /* \"#utility.yul\":9068:9070   */\n      0x60\n        /* \"#utility.yul\":9057:9066   */\n      dup4\n        /* \"#utility.yul\":9053:9071   */\n      add\n        /* \"#utility.yul\":9044:9050   */\n      dup10\n        /* \"#utility.yul\":9000:9072   */\n      tag_156\n      jump\t// in\n    tag_275:\n        /* \"#utility.yul\":9120:9129   */\n      dup2\n        /* \"#utility.yul\":9114:9118   */\n      dup2\n        /* \"#utility.yul\":9110:9130   */\n      sub\n        /* \"#utility.yul\":9104:9107   */\n      0x80\n        /* \"#utility.yul\":9093:9102   */\n      dup4\n        /* \"#utility.yul\":9089:9108   */\n      add\n        /* \"#utility.yul\":9082:9131   */\n      mstore\n        /* \"#utility.yul\":9148:9226   */\n      tag_276\n        /* \"#utility.yul\":9221:9225   */\n      dup2\n        /* \"#utility.yul\":9212:9218   */\n      dup9\n        /* \"#utility.yul\":9148:9226   */\n      tag_155\n      jump\t// in\n    tag_276:\n        /* \"#utility.yul\":9140:9226   */\n      swap1\n      pop\n        /* \"#utility.yul\":9236:9309   */\n      tag_277\n        /* \"#utility.yul\":9304:9307   */\n      0xa0\n        /* \"#utility.yul\":9293:9302   */\n      dup4\n        /* \"#utility.yul\":9289:9308   */\n      add\n        /* \"#utility.yul\":9280:9286   */\n      dup8\n        /* \"#utility.yul\":9236:9309   */\n      tag_156\n      jump\t// in\n    tag_277:\n        /* \"#utility.yul\":9319:9386   */\n      tag_278\n        /* \"#utility.yul\":9381:9384   */\n      0xc0\n        /* \"#utility.yul\":9370:9379   */\n      dup4\n        /* \"#utility.yul\":9366:9385   */\n      add\n        /* \"#utility.yul\":9357:9363   */\n      dup7\n        /* \"#utility.yul\":9319:9386   */\n      tag_157\n      jump\t// in\n    tag_278:\n        /* \"#utility.yul\":9434:9443   */\n      dup2\n        /* \"#utility.yul\":9428:9432   */\n      dup2\n        /* \"#utility.yul\":9424:9444   */\n      sub\n        /* \"#utility.yul\":9418:9421   */\n      0xe0\n        /* \"#utility.yul\":9407:9416   */\n      dup4\n        /* \"#utility.yul\":9403:9422   */\n      add\n        /* \"#utility.yul\":9396:9445   */\n      mstore\n        /* \"#utility.yul\":9462:9540   */\n      tag_279\n        /* \"#utility.yul\":9535:9539   */\n      dup2\n        /* \"#utility.yul\":9526:9532   */\n      dup6\n        /* \"#utility.yul\":9462:9540   */\n      tag_155\n      jump\t// in\n    tag_279:\n        /* \"#utility.yul\":9454:9540   */\n      swap1\n      pop\n        /* \"#utility.yul\":9550:9623   */\n      tag_280\n        /* \"#utility.yul\":9618:9621   */\n      0x0100\n        /* \"#utility.yul\":9607:9616   */\n      dup4\n        /* \"#utility.yul\":9603:9622   */\n      add\n        /* \"#utility.yul\":9594:9600   */\n      dup5\n        /* \"#utility.yul\":9550:9623   */\n      tag_153\n      jump\t// in\n    tag_280:\n        /* \"#utility.yul\":8170:9630   */\n      swap11\n      swap10\n      pop\n      pop\n      pop\n      pop\n      pop\n      pop\n      pop\n      pop\n      pop\n      pop\n      jump\t// out\n        /* \"#utility.yul\":9636:9758   */\n    tag_158:\n        /* \"#utility.yul\":9709:9733   */\n      tag_282\n        /* \"#utility.yul\":9727:9732   */\n      dup2\n        /* \"#utility.yul\":9709:9733   */\n      tag_133\n      jump\t// in\n    tag_282:\n        /* \"#utility.yul\":9702:9707   */\n      dup2\n        /* \"#utility.yul\":9699:9734   */\n      eq\n        /* \"#utility.yul\":9689:9752   */\n      tag_283\n      jumpi\n        /* \"#utility.yul\":9748:9749   */\n      0x00\n        /* \"#utility.yul\":9745:9746   */\n      dup1\n        /* \"#utility.yul\":9738:9750   */\n      revert\n        /* \"#utility.yul\":9689:9752   */\n    tag_283:\n        /* \"#utility.yul\":9636:9758   */\n      pop\n      jump\t// out\n        /* \"#utility.yul\":9764:9903   */\n    tag_159:\n        /* \"#utility.yul\":9810:9815   */\n      0x00\n        /* \"#utility.yul\":9848:9854   */\n      dup2\n        /* \"#utility.yul\":9835:9855   */\n      calldataload\n        /* \"#utility.yul\":9826:9855   */\n      swap1\n      pop\n        /* \"#utility.yul\":9864:9897   */\n      tag_285\n        /* \"#utility.yul\":9891:9896   */\n      dup2\n        /* \"#utility.yul\":9864:9897   */\n      tag_158\n      jump\t// in\n    tag_285:\n        /* \"#utility.yul\":9764:9903   */\n      swap3\n      swap2\n      pop\n      pop\n      jump\t// out\n        /* \"#utility.yul\":9909:10026   */\n    tag_160:\n        /* \"#utility.yul\":10018:10019   */\n      0x00\n        /* \"#utility.yul\":10015:10016   */\n      dup1\n        /* \"#utility.yul\":10008:10020   */\n      revert\n        /* \"#utility.yul\":10032:10149   */\n    tag_161:\n        /* \"#utility.yul\":10141:10142   */\n      0x00\n        /* \"#utility.yul\":10138:10139   */\n      dup1\n        /* \"#utility.yul\":10131:10143   */\n      revert\n        /* \"#utility.yul\":10155:10335   */\n    tag_36:\n        /* \"#utility.yul\":10203:10280   */\n      0x4e487b7100000000000000000000000000000000000000000000000000000000\n        /* \"#utility.yul\":10200:10201   */\n      0x00\n        /* \"#utility.yul\":10193:10281   */\n      mstore\n        /* \"#utility.yul\":10300:10304   */\n      0x41\n        /* \"#utility.yul\":10297:10298   */\n      0x04\n        /* \"#utility.yul\":10290:10305   */\n      mstore\n        /* \"#utility.yul\":10324:10328   */\n      0x24\n        /* \"#utility.yul\":10321:10322   */\n      0x00\n        /* \"#utility.yul\":10314:10329   */\n      revert\n        /* \"#utility.yul\":10341:10622   */\n    tag_162:\n        /* \"#utility.yul\":10424:10451   */\n      tag_290\n        /* \"#utility.yul\":10446:10450   */\n      dup3\n        /* \"#utility.yul\":10424:10451   */\n      tag_138\n      jump\t// in\n    tag_290:\n        /* \"#utility.yul\":10416:10422   */\n      dup2\n        /* \"#utility.yul\":10412:10452   */\n      add\n        /* \"#utility.yul\":10554:10560   */\n      dup2\n        /* \"#utility.yul\":10542:10552   */\n      dup2\n        /* \"#utility.yul\":10539:10561   */\n      lt\n        /* \"#utility.yul\":10518:10536   */\n      0xffffffffffffffff\n        /* \"#utility.yul\":10506:10516   */\n      dup3\n        /* \"#utility.yul\":10503:10537   */\n      gt\n        /* \"#utility.yul\":10500:10562   */\n      or\n        /* \"#utility.yul\":10497:10585   */\n      iszero\n      tag_291\n      jumpi\n        /* \"#utility.yul\":10565:10583   */\n      tag_292\n      tag_36\n      jump\t// in\n    tag_292:\n        /* \"#utility.yul\":10497:10585   */\n    tag_291:\n        /* \"#utility.yul\":10605:10615   */\n      dup1\n        /* \"#utility.yul\":10601:10603   */\n      0x40\n        /* \"#utility.yul\":10594:10616   */\n      mstore\n        /* \"#utility.yul\":10384:10622   */\n      pop\n        /* \"#utility.yul\":10341:10622   */\n      pop\n      pop\n      jump\t// out\n        /* \"#utility.yul\":10628:10757   */\n    tag_163:\n        /* \"#utility.yul\":10662:10668   */\n      0x00\n        /* \"#utility.yul\":10689:10709   */\n      tag_294\n      tag_148\n      jump\t// in\n    tag_294:\n        /* \"#utility.yul\":10679:10709   */\n      swap1\n      pop\n        /* \"#utility.yul\":10718:10751   */\n      tag_295\n        /* \"#utility.yul\":10746:10750   */\n      dup3\n        /* \"#utility.yul\":10738:10744   */\n      dup3\n        /* \"#utility.yul\":10718:10751   */\n      tag_162\n      jump\t// in\n    tag_295:\n        /* \"#utility.yul\":10628:10757   */\n      swap2\n      swap1\n      pop\n      jump\t// out\n        /* \"#utility.yul\":10763:11071   */\n    tag_164:\n        /* \"#utility.yul\":10825:10829   */\n      0x00\n        /* \"#utility.yul\":10915:10933   */\n      0xffffffffffffffff\n        /* \"#utility.yul\":10907:10913   */\n      dup3\n        /* \"#utility.yul\":10904:10934   */\n      gt\n        /* \"#utility.yul\":10901:10957   */\n      iszero\n      tag_297\n      jumpi\n        /* \"#utility.yul\":10937:10955   */\n      tag_298\n      tag_36\n      jump\t// in\n    tag_298:\n        /* \"#utility.yul\":10901:10957   */\n    tag_297:\n        /* \"#utility.yul\":10975:11004   */\n      tag_299\n        /* \"#utility.yul\":10997:11003   */\n      dup3\n        /* \"#utility.yul\":10975:11004   */\n      tag_138\n      jump\t// in\n    tag_299:\n        /* \"#utility.yul\":10967:11004   */\n      swap1\n      pop\n        /* \"#utility.yul\":11059:11063   */\n      0x20\n        /* \"#utility.yul\":11053:11057   */\n      dup2\n        /* \"#utility.yul\":11049:11064   */\n      add\n        /* \"#utility.yul\":11041:11064   */\n      swap1\n      pop\n        /* \"#utility.yul\":10763:11071   */\n      swap2\n      swap1\n      pop\n      jump\t// out\n        /* \"#utility.yul\":11077:11223   */\n    tag_165:\n        /* \"#utility.yul\":11174:11180   */\n      dup3\n        /* \"#utility.yul\":11169:11172   */\n      dup2\n        /* \"#utility.yul\":11164:11167   */\n      dup4\n        /* \"#utility.yul\":11151:11181   */\n      calldatacopy\n        /* \"#utility.yul\":11215:11216   */\n      0x00\n        /* \"#utility.yul\":11206:11212   */\n      dup4\n        /* \"#utility.yul\":11201:11204   */\n      dup4\n        /* \"#utility.yul\":11197:11213   */\n      add\n        /* \"#utility.yul\":11190:11217   */\n      mstore\n        /* \"#utility.yul\":11077:11223   */\n      pop\n      pop\n      pop\n      jump\t// out\n        /* \"#utility.yul\":11229:11654   */\n    tag_166:\n        /* \"#utility.yul\":11307:11312   */\n      0x00\n        /* \"#utility.yul\":11332:11398   */\n      tag_302\n        /* \"#utility.yul\":11348:11397   */\n      tag_303\n        /* \"#utility.yul\":11390:11396   */\n      dup5\n        /* \"#utility.yul\":11348:11397   */\n      tag_164\n      jump\t// in\n    tag_303:\n        /* \"#utility.yul\":11332:11398   */\n      tag_163\n      jump\t// in\n    tag_302:\n        /* \"#utility.yul\":11323:11398   */\n      swap1\n      pop\n        /* \"#utility.yul\":11421:11427   */\n      dup3\n        /* \"#utility.yul\":11414:11419   */\n      dup2\n        /* \"#utility.yul\":11407:11428   */\n      mstore\n        /* \"#utility.yul\":11459:11463   */\n      0x20\n        /* \"#utility.yul\":11452:11457   */\n      dup2\n        /* \"#utility.yul\":11448:11464   */\n      add\n        /* \"#utility.yul\":11497:11500   */\n      dup5\n        /* \"#utility.yul\":11488:11494   */\n      dup5\n        /* \"#utility.yul\":11483:11486   */\n      dup5\n        /* \"#utility.yul\":11479:11495   */\n      add\n        /* \"#utility.yul\":11476:11501   */\n      gt\n        /* \"#utility.yul\":11473:11585   */\n      iszero\n      tag_304\n      jumpi\n        /* \"#utility.yul\":11504:11583   */\n      tag_305\n      tag_161\n      jump\t// in\n    tag_305:\n        /* \"#utility.yul\":11473:11585   */\n    tag_304:\n        /* \"#utility.yul\":11594:11648   */\n      tag_306\n        /* \"#utility.yul\":11641:11647   */\n      dup5\n        /* \"#utility.yul\":11636:11639   */\n      dup3\n        /* \"#utility.yul\":11631:11634   */\n      dup6\n        /* \"#utility.yul\":11594:11648   */\n      tag_165\n      jump\t// in\n    tag_306:\n        /* \"#utility.yul\":11313:11654   */\n      pop\n        /* \"#utility.yul\":11229:11654   */\n      swap4\n      swap3\n      pop\n      pop\n      pop\n      jump\t// out\n        /* \"#utility.yul\":11674:12014   */\n    tag_167:\n        /* \"#utility.yul\":11730:11735   */\n      0x00\n        /* \"#utility.yul\":11779:11782   */\n      dup3\n        /* \"#utility.yul\":11772:11776   */\n      0x1f\n        /* \"#utility.yul\":11764:11770   */\n      dup4\n        /* \"#utility.yul\":11760:11777   */\n      add\n        /* \"#utility.yul\":11756:11783   */\n      slt\n        /* \"#utility.yul\":11746:11868   */\n      tag_308\n      jumpi\n        /* \"#utility.yul\":11787:11866   */\n      tag_309\n      tag_160\n      jump\t// in\n    tag_309:\n        /* \"#utility.yul\":11746:11868   */\n    tag_308:\n        /* \"#utility.yul\":11904:11910   */\n      dup2\n        /* \"#utility.yul\":11891:11911   */\n      calldataload\n        /* \"#utility.yul\":11929:12008   */\n      tag_310\n        /* \"#utility.yul\":12004:12007   */\n      dup5\n        /* \"#utility.yul\":11996:12002   */\n      dup3\n        /* \"#utility.yul\":11989:11993   */\n      0x20\n        /* \"#utility.yul\":11981:11987   */\n      dup7\n        /* \"#utility.yul\":11977:11994   */\n      add\n        /* \"#utility.yul\":11929:12008   */\n      tag_166\n      jump\t// in\n    tag_310:\n        /* \"#utility.yul\":11920:12008   */\n      swap2\n      pop\n        /* \"#utility.yul\":11736:12014   */\n      pop\n        /* \"#utility.yul\":11674:12014   */\n      swap3\n      swap2\n      pop\n      pop\n      jump\t// out\n        /* \"#utility.yul\":12020:13617   */\n    tag_22:\n        /* \"#utility.yul\":12154:12160   */\n      0x00\n        /* \"#utility.yul\":12162:12168   */\n      dup1\n        /* \"#utility.yul\":12170:12176   */\n      0x00\n        /* \"#utility.yul\":12178:12184   */\n      dup1\n        /* \"#utility.yul\":12186:12192   */\n      0x00\n        /* \"#utility.yul\":12194:12200   */\n      dup1\n        /* \"#utility.yul\":12243:12246   */\n      0xc0\n        /* \"#utility.yul\":12231:12240   */\n      dup8\n        /* \"#utility.yul\":12222:12229   */\n      dup10\n        /* \"#utility.yul\":12218:12241   */\n      sub\n        /* \"#utility.yul\":12214:12247   */\n      slt\n        /* \"#utility.yul\":12211:12331   */\n      iszero\n      tag_312\n      jumpi\n        /* \"#utility.yul\":12250:12329   */\n      tag_313\n      tag_149\n      jump\t// in\n    tag_313:\n        /* \"#utility.yul\":12211:12331   */\n    tag_312:\n        /* \"#utility.yul\":12370:12371   */\n      0x00\n        /* \"#utility.yul\":12395:12448   */\n      tag_314\n        /* \"#utility.yul\":12440:12447   */\n      dup10\n        /* \"#utility.yul\":12431:12437   */\n      dup3\n        /* \"#utility.yul\":12420:12429   */\n      dup11\n        /* \"#utility.yul\":12416:12438   */\n      add\n        /* \"#utility.yul\":12395:12448   */\n      tag_159\n      jump\t// in\n    tag_314:\n        /* \"#utility.yul\":12385:12448   */\n      swap7\n      pop\n        /* \"#utility.yul\":12341:12458   */\n      pop\n        /* \"#utility.yul\":12525:12527   */\n      0x20\n        /* \"#utility.yul\":12514:12523   */\n      dup8\n        /* \"#utility.yul\":12510:12528   */\n      add\n        /* \"#utility.yul\":12497:12529   */\n      calldataload\n        /* \"#utility.yul\":12556:12574   */\n      0xffffffffffffffff\n        /* \"#utility.yul\":12548:12554   */\n      dup2\n        /* \"#utility.yul\":12545:12575   */\n      gt\n        /* \"#utility.yul\":12542:12659   */\n      iszero\n      tag_315\n      jumpi\n        /* \"#utility.yul\":12578:12657   */\n      tag_316\n      tag_150\n      jump\t// in\n    tag_316:\n        /* \"#utility.yul\":12542:12659   */\n    tag_315:\n        /* \"#utility.yul\":12683:12746   */\n      tag_317\n        /* \"#utility.yul\":12738:12745   */\n      dup10\n        /* \"#utility.yul\":12729:12735   */\n      dup3\n        /* \"#utility.yul\":12718:12727   */\n      dup11\n        /* \"#utility.yul\":12714:12736   */\n      add\n        /* \"#utility.yul\":12683:12746   */\n      tag_167\n      jump\t// in\n    tag_317:\n        /* \"#utility.yul\":12673:12746   */\n      swap6\n      pop\n        /* \"#utility.yul\":12468:12756   */\n      pop\n        /* \"#utility.yul\":12823:12825   */\n      0x40\n        /* \"#utility.yul\":12812:12821   */\n      dup8\n        /* \"#utility.yul\":12808:12826   */\n      add\n        /* \"#utility.yul\":12795:12827   */\n      calldataload\n        /* \"#utility.yul\":12854:12872   */\n      0xffffffffffffffff\n        /* \"#utility.yul\":12846:12852   */\n      dup2\n        /* \"#utility.yul\":12843:12873   */\n      gt\n        /* \"#utility.yul\":12840:12957   */\n      iszero\n      tag_318\n      jumpi\n        /* \"#utility.yul\":12876:12955   */\n      tag_319\n      tag_150\n      jump\t// in\n    tag_319:\n        /* \"#utility.yul\":12840:12957   */\n    tag_318:\n        /* \"#utility.yul\":12981:13044   */\n      tag_320\n        /* \"#utility.yul\":13036:13043   */\n      dup10\n        /* \"#utility.yul\":13027:13033   */\n      dup3\n        /* \"#utility.yul\":13016:13025   */\n      dup11\n        /* \"#utility.yul\":13012:13034   */\n      add\n        /* \"#utility.yul\":12981:13044   */\n      tag_167\n      jump\t// in\n    tag_320:\n        /* \"#utility.yul\":12971:13044   */\n      swap5\n      pop\n        /* \"#utility.yul\":12766:13054   */\n      pop\n        /* \"#utility.yul\":13093:13095   */\n      0x60\n        /* \"#utility.yul\":13119:13172   */\n      tag_321\n        /* \"#utility.yul\":13164:13171   */\n      dup10\n        /* \"#utility.yul\":13155:13161   */\n      dup3\n        /* \"#utility.yul\":13144:13153   */\n      dup11\n        /* \"#utility.yul\":13140:13162   */\n      add\n        /* \"#utility.yul\":13119:13172   */\n      tag_152\n      jump\t// in\n    tag_321:\n        /* \"#utility.yul\":13109:13172   */\n      swap4\n      pop\n        /* \"#utility.yul\":13064:13182   */\n      pop\n        /* \"#utility.yul\":13249:13252   */\n      0x80\n        /* \"#utility.yul\":13238:13247   */\n      dup8\n        /* \"#utility.yul\":13234:13253   */\n      add\n        /* \"#utility.yul\":13221:13254   */\n      calldataload\n        /* \"#utility.yul\":13281:13299   */\n      0xffffffffffffffff\n        /* \"#utility.yul\":13273:13279   */\n      dup2\n        /* \"#utility.yul\":13270:13300   */\n      gt\n        /* \"#utility.yul\":13267:13384   */\n      iszero\n      tag_322\n      jumpi\n        /* \"#utility.yul\":13303:13382   */\n      tag_323\n      tag_150\n      jump\t// in\n    tag_323:\n        /* \"#utility.yul\":13267:13384   */\n    tag_322:\n        /* \"#utility.yul\":13408:13471   */\n      tag_324\n        /* \"#utility.yul\":13463:13470   */\n      dup10\n        /* \"#utility.yul\":13454:13460   */\n      dup3\n        /* \"#utility.yul\":13443:13452   */\n      dup11\n        /* \"#utility.yul\":13439:13461   */\n      add\n        /* \"#utility.yul\":13408:13471   */\n      tag_167\n      jump\t// in\n    tag_324:\n        /* \"#utility.yul\":13398:13471   */\n      swap3\n      pop\n        /* \"#utility.yul\":13192:13481   */\n      pop\n        /* \"#utility.yul\":13520:13523   */\n      0xa0\n        /* \"#utility.yul\":13547:13600   */\n      tag_325\n        /* \"#utility.yul\":13592:13599   */\n      dup10\n        /* \"#utility.yul\":13583:13589   */\n      dup3\n        /* \"#utility.yul\":13572:13581   */\n      dup11\n        /* \"#utility.yul\":13568:13590   */\n      add\n        /* \"#utility.yul\":13547:13600   */\n      tag_152\n      jump\t// in\n    tag_325:\n        /* \"#utility.yul\":13537:13600   */\n      swap2\n      pop\n        /* \"#utility.yul\":13491:13610   */\n      pop\n        /* \"#utility.yul\":12020:13617   */\n      swap3\n      swap6\n      pop\n      swap3\n      swap6\n      pop\n      swap3\n      swap6\n      jump\t// out\n        /* \"#utility.yul\":13623:14921   */\n    tag_29:\n        /* \"#utility.yul\":13982:13986   */\n      0x00\n        /* \"#utility.yul\":14020:14023   */\n      0x0140\n        /* \"#utility.yul\":14009:14018   */\n      dup3\n        /* \"#utility.yul\":14005:14024   */\n      add\n        /* \"#utility.yul\":13997:14024   */\n      swap1\n      pop\n        /* \"#utility.yul\":14034:14105   */\n      tag_327\n        /* \"#utility.yul\":14102:14103   */\n      0x00\n        /* \"#utility.yul\":14091:14100   */\n      dup4\n        /* \"#utility.yul\":14087:14104   */\n      add\n        /* \"#utility.yul\":14078:14084   */\n      dup14\n        /* \"#utility.yul\":14034:14105   */\n      tag_156\n      jump\t// in\n    tag_327:\n        /* \"#utility.yul\":14115:14187   */\n      tag_328\n        /* \"#utility.yul\":14183:14185   */\n      0x20\n        /* \"#utility.yul\":14172:14181   */\n      dup4\n        /* \"#utility.yul\":14168:14186   */\n      add\n        /* \"#utility.yul\":14159:14165   */\n      dup13\n        /* \"#utility.yul\":14115:14187   */\n      tag_156\n      jump\t// in\n    tag_328:\n        /* \"#utility.yul\":14197:14269   */\n      tag_329\n        /* \"#utility.yul\":14265:14267   */\n      0x40\n        /* \"#utility.yul\":14254:14263   */\n      dup4\n        /* \"#utility.yul\":14250:14268   */\n      add\n        /* \"#utility.yul\":14241:14247   */\n      dup12\n        /* \"#utility.yul\":14197:14269   */\n      tag_153\n      jump\t// in\n    tag_329:\n        /* \"#utility.yul\":14279:14351   */\n      tag_330\n        /* \"#utility.yul\":14347:14349   */\n      0x60\n        /* \"#utility.yul\":14336:14345   */\n      dup4\n        /* \"#utility.yul\":14332:14350   */\n      add\n        /* \"#utility.yul\":14323:14329   */\n      dup11\n        /* \"#utility.yul\":14279:14351   */\n      tag_153\n      jump\t// in\n    tag_330:\n        /* \"#utility.yul\":14361:14434   */\n      tag_331\n        /* \"#utility.yul\":14429:14432   */\n      0x80\n        /* \"#utility.yul\":14418:14427   */\n      dup4\n        /* \"#utility.yul\":14414:14433   */\n      add\n        /* \"#utility.yul\":14405:14411   */\n      dup10\n        /* \"#utility.yul\":14361:14434   */\n      tag_156\n      jump\t// in\n    tag_331:\n        /* \"#utility.yul\":14444:14517   */\n      tag_332\n        /* \"#utility.yul\":14512:14515   */\n      0xa0\n        /* \"#utility.yul\":14501:14510   */\n      dup4\n        /* \"#utility.yul\":14497:14516   */\n      add\n        /* \"#utility.yul\":14488:14494   */\n      dup9\n        /* \"#utility.yul\":14444:14517   */\n      tag_156\n      jump\t// in\n    tag_332:\n        /* \"#utility.yul\":14527:14600   */\n      tag_333\n        /* \"#utility.yul\":14595:14598   */\n      0xc0\n        /* \"#utility.yul\":14584:14593   */\n      dup4\n        /* \"#utility.yul\":14580:14599   */\n      add\n        /* \"#utility.yul\":14571:14577   */\n      dup8\n        /* \"#utility.yul\":14527:14600   */\n      tag_156\n      jump\t// in\n    tag_333:\n        /* \"#utility.yul\":14610:14683   */\n      tag_334\n        /* \"#utility.yul\":14678:14681   */\n      0xe0\n        /* \"#utility.yul\":14667:14676   */\n      dup4\n        /* \"#utility.yul\":14663:14682   */\n      add\n        /* \"#utility.yul\":14654:14660   */\n      dup7\n        /* \"#utility.yul\":14610:14683   */\n      tag_156\n      jump\t// in\n    tag_334:\n        /* \"#utility.yul\":14731:14740   */\n      dup2\n        /* \"#utility.yul\":14725:14729   */\n      dup2\n        /* \"#utility.yul\":14721:14741   */\n      sub\n        /* \"#utility.yul\":14715:14718   */\n      0x0100\n        /* \"#utility.yul\":14704:14713   */\n      dup4\n        /* \"#utility.yul\":14700:14719   */\n      add\n        /* \"#utility.yul\":14693:14742   */\n      mstore\n        /* \"#utility.yul\":14759:14837   */\n      tag_335\n        /* \"#utility.yul\":14832:14836   */\n      dup2\n        /* \"#utility.yul\":14823:14829   */\n      dup6\n        /* \"#utility.yul\":14759:14837   */\n      tag_155\n      jump\t// in\n    tag_335:\n        /* \"#utility.yul\":14751:14837   */\n      swap1\n      pop\n        /* \"#utility.yul\":14847:14914   */\n      tag_336\n        /* \"#utility.yul\":14909:14912   */\n      0x0120\n        /* \"#utility.yul\":14898:14907   */\n      dup4\n        /* \"#utility.yul\":14894:14913   */\n      add\n        /* \"#utility.yul\":14885:14891   */\n      dup5\n        /* \"#utility.yul\":14847:14914   */\n      tag_157\n      jump\t// in\n    tag_336:\n        /* \"#utility.yul\":13623:14921   */\n      swap12\n      swap11\n      pop\n      pop\n      pop\n      pop\n      pop\n      pop\n      pop\n      pop\n      pop\n      pop\n      pop\n      jump\t// out\n        /* \"#utility.yul\":14927:15107   */\n    tag_168:\n        /* \"#utility.yul\":14975:15052   */\n      0x4e487b7100000000000000000000000000000000000000000000000000000000\n        /* \"#utility.yul\":14972:14973   */\n      0x00\n        /* \"#utility.yul\":14965:15053   */\n      mstore\n        /* \"#utility.yul\":15072:15076   */\n      0x22\n        /* \"#utility.yul\":15069:15070   */\n      0x04\n        /* \"#utility.yul\":15062:15077   */\n      mstore\n        /* \"#utility.yul\":15096:15100   */\n      0x24\n        /* \"#utility.yul\":15093:15094   */\n      0x00\n        /* \"#utility.yul\":15086:15101   */\n      revert\n        /* \"#utility.yul\":15113:15433   */\n    tag_45:\n        /* \"#utility.yul\":15157:15163   */\n      0x00\n        /* \"#utility.yul\":15194:15195   */\n      0x02\n        /* \"#utility.yul\":15188:15192   */\n      dup3\n        /* \"#utility.yul\":15184:15196   */\n      div\n        /* \"#utility.yul\":15174:15196   */\n      swap1\n      pop\n        /* \"#utility.yul\":15241:15242   */\n      0x01\n        /* \"#utility.yul\":15235:15239   */\n      dup3\n        /* \"#utility.yul\":15231:15243   */\n      and\n        /* \"#utility.yul\":15262:15280   */\n      dup1\n        /* \"#utility.yul\":15252:15333   */\n      tag_339\n      jumpi\n        /* \"#utility.yul\":15318:15322   */\n      0x7f\n        /* \"#utility.yul\":15310:15316   */\n      dup3\n        /* \"#utility.yul\":15306:15323   */\n      and\n        /* \"#utility.yul\":15296:15323   */\n      swap2\n      pop\n        /* \"#utility.yul\":15252:15333   */\n    tag_339:\n        /* \"#utility.yul\":15380:15382   */\n      0x20\n        /* \"#utility.yul\":15372:15378   */\n      dup3\n        /* \"#utility.yul\":15369:15383   */\n      lt\n        /* \"#utility.yul\":15349:15367   */\n      dup2\n        /* \"#utility.yul\":15346:15384   */\n      sub\n        /* \"#utility.yul\":15343:15427   */\n      tag_340\n      jumpi\n        /* \"#utility.yul\":15399:15417   */\n      tag_341\n      tag_168\n      jump\t// in\n    tag_341:\n        /* \"#utility.yul\":15343:15427   */\n    tag_340:\n        /* \"#utility.yul\":15164:15433   */\n      pop\n        /* \"#utility.yul\":15113:15433   */\n      swap2\n      swap1\n      pop\n      jump\t// out\n        /* \"#utility.yul\":15439:15619   */\n    tag_67:\n        /* \"#utility.yul\":15487:15564   */\n      0x4e487b7100000000000000000000000000000000000000000000000000000000\n        /* \"#utility.yul\":15484:15485   */\n      0x00\n        /* \"#utility.yul\":15477:15565   */\n      mstore\n        /* \"#utility.yul\":15584:15588   */\n      0x32\n        /* \"#utility.yul\":15581:15582   */\n      0x04\n        /* \"#utility.yul\":15574:15589   */\n      mstore\n        /* \"#utility.yul\":15608:15612   */\n      0x24\n        /* \"#utility.yul\":15605:15606   */\n      0x00\n        /* \"#utility.yul\":15598:15613   */\n      revert\n        /* \"#utility.yul\":15625:15766   */\n    tag_169:\n        /* \"#utility.yul\":15674:15678   */\n      0x00\n        /* \"#utility.yul\":15697:15700   */\n      dup2\n        /* \"#utility.yul\":15689:15700   */\n      swap1\n      pop\n        /* \"#utility.yul\":15720:15723   */\n      dup2\n        /* \"#utility.yul\":15717:15718   */\n      0x00\n        /* \"#utility.yul\":15710:15724   */\n      mstore\n        /* \"#utility.yul\":15754:15758   */\n      0x20\n        /* \"#utility.yul\":15751:15752   */\n      0x00\n        /* \"#utility.yul\":15741:15759   */\n      keccak256\n        /* \"#utility.yul\":15733:15759   */\n      swap1\n      pop\n        /* \"#utility.yul\":15625:15766   */\n      swap2\n      swap1\n      pop\n      jump\t// out\n        /* \"#utility.yul\":15772:15865   */\n    tag_170:\n        /* \"#utility.yul\":15809:15815   */\n      0x00\n        /* \"#utility.yul\":15856:15858   */\n      0x20\n        /* \"#utility.yul\":15851:15853   */\n      0x1f\n        /* \"#utility.yul\":15844:15849   */\n      dup4\n        /* \"#utility.yul\":15840:15854   */\n      add\n        /* \"#utility.yul\":15836:15859   */\n      div\n        /* \"#utility.yul\":15826:15859   */\n      swap1\n      pop\n        /* \"#utility.yul\":15772:15865   */\n      swap2\n      swap1\n      pop\n      jump\t// out\n        /* \"#utility.yul\":15871:15978   */\n    tag_171:\n        /* \"#utility.yul\":15915:15923   */\n      0x00\n        /* \"#utility.yul\":15965:15970   */\n      dup3\n        /* \"#utility.yul\":15959:15963   */\n      dup3\n        /* \"#utility.yul\":15955:15971   */\n      shl\n        /* \"#utility.yul\":15934:15971   */\n      swap1\n      pop\n        /* \"#utility.yul\":15871:15978   */\n      swap3\n      swap2\n      pop\n      pop\n      jump\t// out\n        /* \"#utility.yul\":15984:16377   */\n    tag_172:\n        /* \"#utility.yul\":16053:16059   */\n      0x00\n        /* \"#utility.yul\":16103:16104   */\n      0x08\n        /* \"#utility.yul\":16091:16101   */\n      dup4\n        /* \"#utility.yul\":16087:16105   */\n      mul\n        /* \"#utility.yul\":16126:16223   */\n      tag_347\n        /* \"#utility.yul\":16156:16222   */\n      0xffffffffffffffffffffffffffffffffffffffffffffffffffffffffffffffff\n        /* \"#utility.yul\":16145:16154   */\n      dup3\n        /* \"#utility.yul\":16126:16223   */\n      tag_171\n      jump\t// in\n    tag_347:\n        /* \"#utility.yul\":16244:16283   */\n      tag_348\n        /* \"#utility.yul\":16274:16282   */\n      dup7\n        /* \"#utility.yul\":16263:16272   */\n      dup4\n        /* \"#utility.yul\":16244:16283   */\n      tag_171\n      jump\t// in\n    tag_348:\n        /* \"#utility.yul\":16232:16283   */\n      swap6\n      pop\n        /* \"#utility.yul\":16316:16320   */\n      dup1\n        /* \"#utility.yul\":16312:16321   */\n      not\n        /* \"#utility.yul\":16305:16310   */\n      dup5\n        /* \"#utility.yul\":16301:16322   */\n      and\n        /* \"#utility.yul\":16292:16322   */\n      swap4\n      pop\n        /* \"#utility.yul\":16365:16369   */\n      dup1\n        /* \"#utility.yul\":16355:16363   */\n      dup7\n        /* \"#utility.yul\":16351:16370   */\n      and\n        /* \"#utility.yul\":16344:16349   */\n      dup5\n        /* \"#utility.yul\":16341:16371   */\n      or\n        /* \"#utility.yul\":16331:16371   */\n      swap3\n      pop\n        /* \"#utility.yul\":16060:16377   */\n      pop\n      pop\n        /* \"#utility.yul\":15984:16377   */\n      swap4\n      swap3\n      pop\n      pop\n      pop\n      jump\t// out\n        /* \"#utility.yul\":16383:16443   */\n    tag_173:\n        /* \"#utility.yul\":16411:16414   */\n      0x00\n        /* \"#utility.yul\":16432:16437   */\n      dup2\n        /* \"#utility.yul\":16425:16437   */\n      swap1\n      pop\n        /* \"#utility.yul\":16383:16443   */\n      swap2\n      swap1\n      pop\n      jump\t// out\n        /* \"#utility.yul\":16449:16591   */\n    tag_174:\n        /* \"#utility.yul\":16499:16508   */\n      0x00\n        /* \"#utility.yul\":16532:16585   */\n      tag_351\n        /* \"#utility.yul\":16550:16584   */\n      tag_352\n        /* \"#utility.yul\":16559:16583   */\n      tag_353\n        /* \"#utility.yul\":16577:16582   */\n      dup5\n        /* \"#utility.yul\":16559:16583   */\n      tag_140\n      jump\t// in\n    tag_353:\n        /* \"#utility.yul\":16550:16584   */\n      tag_173\n      jump\t// in\n    tag_352:\n        /* \"#utility.yul\":16532:16585   */\n      tag_140\n      jump\t// in\n    tag_351:\n        /* \"#utility.yul\":16519:16585   */\n      swap1\n      pop\n        /* \"#utility.yul\":16449:16591   */\n      swap2\n      swap1\n      pop\n      jump\t// out\n        /* \"#utility.yul\":16597:16672   */\n    tag_175:\n        /* \"#utility.yul\":16640:16643   */\n      0x00\n        /* \"#utility.yul\":16661:16666   */\n      dup2\n        /* \"#utility.yul\":16654:16666   */\n      swap1\n      pop\n        /* \"#utility.yul\":16597:16672   */\n      swap2\n      swap1\n      pop\n      jump\t// out\n        /* \"#utility.yul\":16678:16947   */\n    tag_176:\n        /* \"#utility.yul\":16788:16827   */\n      tag_356\n        /* \"#utility.yul\":16819:16826   */\n      dup4\n        /* \"#utility.yul\":16788:16827   */\n      tag_174\n      jump\t// in\n    tag_356:\n        /* \"#utility.yul\":16849:16940   */\n      tag_357\n        /* \"#utility.yul\":16898:16939   */\n      tag_358\n        /* \"#utility.yul\":16922:16938   */\n      dup3\n        /* \"#utility.yul\":16898:16939   */\n      tag_175\n      jump\t// in\n    tag_358:\n        /* \"#utility.yul\":16890:16896   */\n      dup5\n        /* \"#utility.yul\":16883:16887   */\n      dup5\n        /* \"#utility.yul\":16877:16888   */\n      sload\n        /* \"#utility.yul\":16849:16940   */\n      tag_172\n      jump\t// in\n    tag_357:\n        /* \"#utility.yul\":16843:16847   */\n      dup3\n        /* \"#utility.yul\":16836:16941   */\n      sstore\n        /* \"#utility.yul\":16754:16947   */\n      pop\n        /* \"#utility.yul\":16678:16947   */\n      pop\n      pop\n      pop\n      jump\t// out\n        /* \"#utility.yul\":16953:17026   */\n    tag_177:\n        /* \"#utility.yul\":16998:17001   */\n      0x00\n        /* \"#utility.yul\":16953:17026   */\n      swap1\n      jump\t// out\n        /* \"#utility.yul\":17032:17221   */\n    tag_178:\n        /* \"#utility.yul\":17109:17141   */\n      tag_361\n      tag_177\n      jump\t// in\n    tag_361:\n        /* \"#utility.yul\":17150:17215   */\n      tag_362\n        /* \"#utility.yul\":17208:17214   */\n      dup2\n        /* \"#utility.yul\":17200:17206   */\n      dup5\n        /* \"#utility.yul\":17194:17198   */\n      dup5\n        /* \"#utility.yul\":17150:17215   */\n      tag_176\n      jump\t// in\n    tag_362:\n        /* \"#utility.yul\":17085:17221   */\n      pop\n        /* \"#utility.yul\":17032:17221   */\n      pop\n      pop\n      jump\t// out\n        /* \"#utility.yul\":17227:17413   */\n    tag_179:\n        /* \"#utility.yul\":17287:17407   */\n    tag_364:\n        /* \"#utility.yul\":17304:17307   */\n      dup2\n        /* \"#utility.yul\":17297:17302   */\n      dup2\n        /* \"#utility.yul\":17294:17308   */\n      lt\n        /* \"#utility.yul\":17287:17407   */\n      iszero\n      tag_366\n      jumpi\n        /* \"#utility.yul\":17358:17397   */\n      tag_367\n        /* \"#utility.yul\":17395:17396   */\n      0x00\n        /* \"#utility.yul\":17388:17393   */\n      dup3\n        /* \"#utility.yul\":17358:17397   */\n      tag_178\n      jump\t// in\n    tag_367:\n        /* \"#utility.yul\":17331:17332   */\n      0x01\n        /* \"#utility.yul\":17324:17329   */\n      dup2\n        /* \"#utility.yul\":17320:17333   */\n      add\n        /* \"#utility.yul\":17311:17333   */\n      swap1\n      pop\n        /* \"#utility.yul\":17287:17407   */\n      jump(tag_364)\n    tag_366:\n        /* \"#utility.yul\":17227:17413   */\n      pop\n      pop\n      jump\t// out\n        /* \"#utility.yul\":17419:17962   */\n    tag_180:\n        /* \"#utility.yul\":17520:17522   */\n      0x1f\n        /* \"#utility.yul\":17515:17518   */\n      dup3\n        /* \"#utility.yul\":17512:17523   */\n      gt\n        /* \"#utility.yul\":17509:17955   */\n      iszero\n      tag_369\n      jumpi\n        /* \"#utility.yul\":17554:17592   */\n      tag_370\n        /* \"#utility.yul\":17586:17591   */\n      dup2\n        /* \"#utility.yul\":17554:17592   */\n      tag_169\n      jump\t// in\n    tag_370:\n        /* \"#utility.yul\":17638:17667   */\n      tag_371\n        /* \"#utility.yul\":17656:17666   */\n      dup5\n        /* \"#utility.yul\":17638:17667   */\n      tag_170\n      jump\t// in\n    tag_371:\n        /* \"#utility.yul\":17628:17636   */\n      dup2\n        /* \"#utility.yul\":17624:17668   */\n      add\n        /* \"#utility.yul\":17821:17823   */\n      0x20\n        /* \"#utility.yul\":17809:17819   */\n      dup6\n        /* \"#utility.yul\":17806:17824   */\n      lt\n        /* \"#utility.yul\":17803:17852   */\n      iszero\n      tag_372\n      jumpi\n        /* \"#utility.yul\":17842:17850   */\n      dup2\n        /* \"#utility.yul\":17827:17850   */\n      swap1\n      pop\n        /* \"#utility.yul\":17803:17852   */\n    tag_372:\n        /* \"#utility.yul\":17865:17945   */\n      tag_373\n        /* \"#utility.yul\":17921:17943   */\n      tag_374\n        /* \"#utility.yul\":17939:17942   */\n      dup6\n        /* \"#utility.yul\":17921:17943   */\n      tag_170\n      jump\t// in\n    tag_374:\n        /* \"#utility.yul\":17911:17919   */\n      dup4\n        /* \"#utility.yul\":17907:17944   */\n      add\n        /* \"#utility.yul\":17894:17905   */\n      dup3\n        /* \"#utility.yul\":17865:17945   */\n      tag_179\n      jump\t// in\n    tag_373:\n        /* \"#utility.yul\":17524:17955   */\n      pop\n      pop\n        /* \"#utility.yul\":17509:17955   */\n    tag_369:\n        /* \"#utility.yul\":17419:17962   */\n      pop\n      pop\n      pop\n      jump\t// out\n        /* \"#utility.yul\":17968:18085   */\n    tag_181:\n        /* \"#utility.yul\":18022:18030   */\n      0x00\n        /* \"#utility.yul\":18072:18077   */\n      dup3\n        /* \"#utility.yul\":18066:18070   */\n      dup3\n        /* \"#utility.yul\":18062:18078   */\n      shr\n        /* \"#utility.yul\":18041:18078   */\n      swap1\n      pop\n        /* \"#utility.yul\":17968:18085   */\n      swap3\n      swap2\n      pop\n      pop\n      jump\t// out\n        /* \"#utility.yul\":18091:18260   */\n    tag_182:\n        /* \"#utility.yul\":18135:18141   */\n      0x00\n        /* \"#utility.yul\":18168:18219   */\n      tag_377\n        /* \"#utility.yul\":18216:18217   */\n      0x00\n        /* \"#utility.yul\":18212:18218   */\n      not\n        /* \"#utility.yul\":18204:18209   */\n      dup5\n        /* \"#utility.yul\":18201:18202   */\n      0x08\n        /* \"#utility.yul\":18197:18210   */\n      mul\n        /* \"#utility.yul\":18168:18219   */\n      tag_181\n      jump\t// in\n    tag_377:\n        /* \"#utility.yul\":18164:18220   */\n      not\n        /* \"#utility.yul\":18249:18253   */\n      dup1\n        /* \"#utility.yul\":18243:18247   */\n      dup4\n        /* \"#utility.yul\":18239:18254   */\n      and\n        /* \"#utility.yul\":18229:18254   */\n      swap2\n      pop\n        /* \"#utility.yul\":18142:18260   */\n      pop\n        /* \"#utility.yul\":18091:18260   */\n      swap3\n      swap2\n      pop\n      pop\n      jump\t// out\n        /* \"#utility.yul\":18265:18560   */\n    tag_183:\n        /* \"#utility.yul\":18341:18345   */\n      0x00\n        /* \"#utility.yul\":18487:18516   */\n      tag_379\n        /* \"#utility.yul\":18512:18515   */\n      dup4\n        /* \"#utility.yul\":18506:18510   */\n      dup4\n        /* \"#utility.yul\":18487:18516   */\n      tag_182\n      jump\t// in\n    tag_379:\n        /* \"#utility.yul\":18479:18516   */\n      swap2\n      pop\n        /* \"#utility.yul\":18549:18552   */\n      dup3\n        /* \"#utility.yul\":18546:18547   */\n      0x02\n        /* \"#utility.yul\":18542:18553   */\n      mul\n        /* \"#utility.yul\":18536:18540   */\n      dup3\n        /* \"#utility.yul\":18533:18554   */\n      or\n        /* \"#utility.yul\":18525:18554   */\n      swap1\n      pop\n        /* \"#utility.yul\":18265:18560   */\n      swap3\n      swap2\n      pop\n      pop\n      jump\t// out\n        /* \"#utility.yul\":18565:19960   */\n    tag_90:\n        /* \"#utility.yul\":18682:18719   */\n      tag_381\n        /* \"#utility.yul\":18715:18718   */\n      dup3\n        /* \"#utility.yul\":18682:18719   */\n      tag_135\n      jump\t// in\n    tag_381:\n        /* \"#utility.yul\":18784:18802   */\n      0xffffffffffffffff\n        /* \"#utility.yul\":18776:18782   */\n      dup2\n        /* \"#utility.yul\":18773:18803   */\n      gt\n        /* \"#utility.yul\":18770:18826   */\n      iszero\n      tag_382\n      jumpi\n        /* \"#utility.yul\":18806:18824   */\n      tag_383\n      tag_36\n      jump\t// in\n    tag_383:\n        /* \"#utility.yul\":18770:18826   */\n    tag_382:\n        /* \"#utility.yul\":18850:18888   */\n      tag_384\n        /* \"#utility.yul\":18882:18886   */\n      dup3\n        /* \"#utility.yul\":18876:18887   */\n      sload\n        /* \"#utility.yul\":18850:18888   */\n      tag_45\n      jump\t// in\n    tag_384:\n        /* \"#utility.yul\":18935:19002   */\n      tag_385\n        /* \"#utility.yul\":18995:19001   */\n      dup3\n        /* \"#utility.yul\":18987:18993   */\n      dup3\n        /* \"#utility.yul\":18981:18985   */\n      dup6\n        /* \"#utility.yul\":18935:19002   */\n      tag_180\n      jump\t// in\n    tag_385:\n        /* \"#utility.yul\":19029:19030   */\n      0x00\n        /* \"#utility.yul\":19053:19057   */\n      0x20\n        /* \"#utility.yul\":19040:19057   */\n      swap1\n      pop\n        /* \"#utility.yul\":19085:19087   */\n      0x1f\n        /* \"#utility.yul\":19077:19083   */\n      dup4\n        /* \"#utility.yul\":19074:19088   */\n      gt\n        /* \"#utility.yul\":19102:19103   */\n      0x01\n        /* \"#utility.yul\":19097:19715   */\n      dup2\n      eq\n      tag_387\n      jumpi\n        /* \"#utility.yul\":19759:19760   */\n      0x00\n        /* \"#utility.yul\":19776:19782   */\n      dup5\n        /* \"#utility.yul\":19773:19850   */\n      iszero\n      tag_388\n      jumpi\n        /* \"#utility.yul\":19825:19834   */\n      dup3\n        /* \"#utility.yul\":19820:19823   */\n      dup8\n        /* \"#utility.yul\":19816:19835   */\n      add\n        /* \"#utility.yul\":19810:19836   */\n      mload\n        /* \"#utility.yul\":19801:19836   */\n      swap1\n      pop\n        /* \"#utility.yul\":19773:19850   */\n    tag_388:\n        /* \"#utility.yul\":19876:19943   */\n      tag_389\n        /* \"#utility.yul\":19936:19942   */\n      dup6\n        /* \"#utility.yul\":19929:19934   */\n      dup3\n        /* \"#utility.yul\":19876:19943   */\n      tag_183\n      jump\t// in\n    tag_389:\n        /* \"#utility.yul\":19870:19874   */\n      dup7\n        /* \"#utility.yul\":19863:19944   */\n      sstore\n        /* \"#utility.yul\":19732:19954   */\n      pop\n        /* \"#utility.yul\":19067:19954   */\n      jump(tag_386)\n        /* \"#utility.yul\":19097:19715   */\n    tag_387:\n        /* \"#utility.yul\":19149:19153   */\n      0x1f\n        /* \"#utility.yul\":19145:19154   */\n      not\n        /* \"#utility.yul\":19137:19143   */\n      dup5\n        /* \"#utility.yul\":19133:19155   */\n      and\n        /* \"#utility.yul\":19183:19220   */\n      tag_390\n        /* \"#utility.yul\":19215:19219   */\n      dup7\n        /* \"#utility.yul\":19183:19220   */\n      tag_169\n      jump\t// in\n    tag_390:\n        /* \"#utility.yul\":19242:19243   */\n      0x00\n        /* \"#utility.yul\":19256:19464   */\n    tag_391:\n        /* \"#utility.yul\":19270:19277   */\n      dup3\n        /* \"#utility.yul\":19267:19268   */\n      dup2\n        /* \"#utility.yul\":19264:19278   */\n      lt\n        /* \"#utility.yul\":19256:19464   */\n      iszero\n      tag_393\n      jumpi\n        /* \"#utility.yul\":19349:19358   */\n      dup5\n        /* \"#utility.yul\":19344:19347   */\n      dup10\n        /* \"#utility.yul\":19340:19359   */\n      add\n        /* \"#utility.yul\":19334:19360   */\n      mload\n        /* \"#utility.yul\":19326:19332   */\n      dup3\n        /* \"#utility.yul\":19319:19361   */\n      sstore\n        /* \"#utility.yul\":19400:19401   */\n      0x01\n        /* \"#utility.yul\":19392:19398   */\n      dup3\n        /* \"#utility.yul\":19388:19402   */\n      add\n        /* \"#utility.yul\":19378:19402   */\n      swap2\n      pop\n        /* \"#utility.yul\":19447:19449   */\n      0x20\n        /* \"#utility.yul\":19436:19445   */\n      dup6\n        /* \"#utility.yul\":19432:19450   */\n      add\n        /* \"#utility.yul\":19419:19450   */\n      swap5\n      pop\n        /* \"#utility.yul\":19293:19297   */\n      0x20\n        /* \"#utility.yul\":19290:19291   */\n      dup2\n        /* \"#utility.yul\":19286:19298   */\n      add\n        /* \"#utility.yul\":19281:19298   */\n      swap1\n      pop\n        /* \"#utility.yul\":19256:19464   */\n      jump(tag_391)\n    tag_393:\n        /* \"#utility.yul\":19492:19498   */\n      dup7\n        /* \"#utility.yul\":19483:19490   */\n      dup4\n        /* \"#utility.yul\":19480:19499   */\n      lt\n        /* \"#utility.yul\":19477:19656   */\n      iszero\n      tag_394\n      jumpi\n        /* \"#utility.yul\":19550:19559   */\n      dup5\n        /* \"#utility.yul\":19545:19548   */\n      dup10\n        /* \"#utility.yul\":19541:19560   */\n      add\n        /* \"#utility.yul\":19535:19561   */\n      mload\n        /* \"#utility.yul\":19593:19641   */\n      tag_395\n        /* \"#utility.yul\":19635:19639   */\n      0x1f\n        /* \"#utility.yul\":19627:19633   */\n      dup10\n        /* \"#utility.yul\":19623:19640   */\n      and\n        /* \"#utility.yul\":19612:19621   */\n      dup3\n        /* \"#utility.yul\":19593:19641   */\n      tag_182\n      jump\t// in\n    tag_395:\n        /* \"#utility.yul\":19585:19591   */\n      dup4\n        /* \"#utility.yul\":19578:19642   */\n      sstore\n        /* \"#utility.yul\":19500:19656   */\n      pop\n        /* \"#utility.yul\":19477:19656   */\n    tag_394:\n        /* \"#utility.yul\":19702:19703   */\n      0x01\n        /* \"#utility.yul\":19698:19699   */\n      0x02\n        /* \"#utility.yul\":19690:19696   */\n      dup9\n        /* \"#utility.yul\":19686:19700   */\n      mul\n        /* \"#utility.yul\":19682:19704   */\n      add\n        /* \"#utility.yul\":19676:19680   */\n      dup9\n        /* \"#utility.yul\":19669:19705   */\n      sstore\n        /* \"#utility.yul\":19104:19715   */\n      pop\n      pop\n      pop\n        /* \"#utility.yul\":19067:19954   */\n    tag_386:\n      pop\n        /* \"#utility.yul\":18657:19960   */\n      pop\n      pop\n      pop\n        /* \"#utility.yul\":18565:19960   */\n      pop\n      pop\n      jump\t// out\n        /* \"#utility.yul\":19966:20146   */\n    tag_184:\n        /* \"#utility.yul\":20014:20091   */\n      0x4e487b7100000000000000000000000000000000000000000000000000000000\n        /* \"#utility.yul\":20011:20012   */\n      0x00\n        /* \"#utility.yul\":20004:20092   */\n      mstore\n        /* \"#utility.yul\":20111:20115   */\n      0x11\n        /* \"#utility.yul\":20108:20109   */\n      0x04\n        /* \"#utility.yul\":20101:20116   */\n      mstore\n        /* \"#utility.yul\":20135:20139   */\n      0x24\n        /* \"#utility.yul\":20132:20133   */\n      0x00\n        /* \"#utility.yul\":20125:20140   */\n      revert\n        /* \"#utility.yul\":20152:20385   */\n    tag_95:\n        /* \"#utility.yul\":20191:20194   */\n      0x00\n        /* \"#utility.yul\":20214:20238   */\n      tag_398\n        /* \"#utility.yul\":20232:20237   */\n      dup3\n        /* \"#utility.yul\":20214:20238   */\n      tag_140\n      jump\t// in\n    tag_398:\n        /* \"#utility.yul\":20205:20238   */\n      swap2\n      pop\n        /* \"#utility.yul\":20260:20326   */\n      0xffffffffffffffffffffffffffffffffffffffffffffffffffffffffffffffff\n        /* \"#utility.yul\":20253:20258   */\n      dup3\n        /* \"#utility.yul\":20250:20327   */\n      sub\n        /* \"#utility.yul\":20247:20350   */\n      tag_399\n      jumpi\n        /* \"#utility.yul\":20330:20348   */\n      tag_400\n      tag_184\n      jump\t// in\n    tag_400:\n        /* \"#utility.yul\":20247:20350   */\n    tag_399:\n        /* \"#utility.yul\":20377:20378   */\n      0x01\n        /* \"#utility.yul\":20370:20375   */\n      dup3\n        /* \"#utility.yul\":20366:20379   */\n      add\n        /* \"#utility.yul\":20359:20379   */\n      swap1\n      pop\n        /* \"#utility.yul\":20152:20385   */\n      swap2\n      swap1\n      pop\n      jump\t// out\n        /* \"#utility.yul\":20391:20833   */\n    tag_97:\n        /* \"#utility.yul\":20540:20544   */\n      0x00\n        /* \"#utility.yul\":20578:20580   */\n      0x60\n        /* \"#utility.yul\":20567:20576   */\n      dup3\n        /* \"#utility.yul\":20563:20581   */\n      add\n        /* \"#utility.yul\":20555:20581   */\n      swap1\n      pop\n        /* \"#utility.yul\":20591:20662   */\n      tag_402\n        /* \"#utility.yul\":20659:20660   */\n      0x00\n        /* \"#utility.yul\":20648:20657   */\n      dup4\n        /* \"#utility.yul\":20644:20661   */\n      add\n        /* \"#utility.yul\":20635:20641   */\n      dup7\n        /* \"#utility.yul\":20591:20662   */\n      tag_153\n      jump\t// in\n    tag_402:\n        /* \"#utility.yul\":20672:20744   */\n      tag_403\n        /* \"#utility.yul\":20740:20742   */\n      0x20\n        /* \"#utility.yul\":20729:20738   */\n      dup4\n        /* \"#utility.yul\":20725:20743   */\n      add\n        /* \"#utility.yul\":20716:20722   */\n      dup6\n        /* \"#utility.yul\":20672:20744   */\n      tag_156\n      jump\t// in\n    tag_403:\n        /* \"#utility.yul\":20754:20826   */\n      tag_404\n        /* \"#utility.yul\":20822:20824   */\n      0x40\n        /* \"#utility.yul\":20811:20820   */\n      dup4\n        /* \"#utility.yul\":20807:20825   */\n      add\n        /* \"#utility.yul\":20798:20804   */\n      dup5\n        /* \"#utility.yul\":20754:20826   */\n      tag_156\n      jump\t// in\n    tag_404:\n        /* \"#utility.yul\":20391:20833   */\n      swap5\n      swap4\n      pop\n      pop\n      pop\n      pop\n      jump\t// out\n        /* \"#utility.yul\":20839:21012   */\n    tag_185:\n        /* \"#utility.yul\":20979:21004   */\n      0x417274776f726b206973206f7574206f662073746f636b000000000000000000\n        /* \"#utility.yul\":20975:20976   */\n      0x00\n        /* \"#utility.yul\":20967:20973   */\n      dup3\n        /* \"#utility.yul\":20963:20977   */\n      add\n        /* \"#utility.yul\":20956:21005   */\n      mstore\n        /* \"#utility.yul\":20839:21012   */\n      pop\n      jump\t// out\n        /* \"#utility.yul\":21018:21384   */\n    tag_186:\n        /* \"#utility.yul\":21160:21163   */\n      0x00\n        /* \"#utility.yul\":21181:21248   */\n      tag_407\n        /* \"#utility.yul\":21245:21247   */\n      0x17\n        /* \"#utility.yul\":21240:21243   */\n      dup4\n        /* \"#utility.yul\":21181:21248   */\n      tag_154\n      jump\t// in\n    tag_407:\n        /* \"#utility.yul\":21174:21248   */\n      swap2\n      pop\n        /* \"#utility.yul\":21257:21350   */\n      tag_408\n        /* \"#utility.yul\":21346:21349   */\n      dup3\n        /* \"#utility.yul\":21257:21350   */\n      tag_185\n      jump\t// in\n    tag_408:\n        /* \"#utility.yul\":21375:21377   */\n      0x20\n        /* \"#utility.yul\":21370:21373   */\n      dup3\n        /* \"#utility.yul\":21366:21378   */\n      add\n        /* \"#utility.yul\":21359:21378   */\n      swap1\n      pop\n        /* \"#utility.yul\":21018:21384   */\n      swap2\n      swap1\n      pop\n      jump\t// out\n        /* \"#utility.yul\":21390:21809   */\n    tag_106:\n        /* \"#utility.yul\":21556:21560   */\n      0x00\n        /* \"#utility.yul\":21594:21596   */\n      0x20\n        /* \"#utility.yul\":21583:21592   */\n      dup3\n        /* \"#utility.yul\":21579:21597   */\n      add\n        /* \"#utility.yul\":21571:21597   */\n      swap1\n      pop\n        /* \"#utility.yul\":21643:21652   */\n      dup2\n        /* \"#utility.yul\":21637:21641   */\n      dup2\n        /* \"#utility.yul\":21633:21653   */\n      sub\n        /* \"#utility.yul\":21629:21630   */\n      0x00\n        /* \"#utility.yul\":21618:21627   */\n      dup4\n        /* \"#utility.yul\":21614:21631   */\n      add\n        /* \"#utility.yul\":21607:21654   */\n      mstore\n        /* \"#utility.yul\":21671:21802   */\n      tag_410\n        /* \"#utility.yul\":21797:21801   */\n      dup2\n        /* \"#utility.yul\":21671:21802   */\n      tag_186\n      jump\t// in\n    tag_410:\n        /* \"#utility.yul\":21663:21802   */\n      swap1\n      pop\n        /* \"#utility.yul\":21390:21809   */\n      swap2\n      swap1\n      pop\n      jump\t// out\n        /* \"#utility.yul\":21815:22036   */\n    tag_187:\n        /* \"#utility.yul\":21955:21989   */\n      0x4f776e65722063616e6e6f7420627579207468656972206f776e20617274776f\n        /* \"#utility.yul\":21951:21952   */\n      0x00\n        /* \"#utility.yul\":21943:21949   */\n      dup3\n        /* \"#utility.yul\":21939:21953   */\n      add\n        /* \"#utility.yul\":21932:21990   */\n      mstore\n        /* \"#utility.yul\":22024:22028   */\n      0x726b000000000000000000000000000000000000000000000000000000000000\n        /* \"#utility.yul\":22019:22021   */\n      0x20\n        /* \"#utility.yul\":22011:22017   */\n      dup3\n        /* \"#utility.yul\":22007:22022   */\n      add\n        /* \"#utility.yul\":22000:22029   */\n      mstore\n        /* \"#utility.yul\":21815:22036   */\n      pop\n      jump\t// out\n        /* \"#utility.yul\":22042:22408   */\n    tag_188:\n        /* \"#utility.yul\":22184:22187   */\n      0x00\n        /* \"#utility.yul\":22205:22272   */\n      tag_413\n        /* \"#utility.yul\":22269:22271   */\n      0x22\n        /* \"#utility.yul\":22264:22267   */\n      dup4\n        /* \"#utility.yul\":22205:22272   */\n      tag_154\n      jump\t// in\n    tag_413:\n        /* \"#utility.yul\":22198:22272   */\n      swap2\n      pop\n        /* \"#utility.yul\":22281:22374   */\n      tag_414\n        /* \"#utility.yul\":22370:22373   */\n      dup3\n        /* \"#utility.yul\":22281:22374   */\n      tag_187\n      jump\t// in\n    tag_414:\n        /* \"#utility.yul\":22399:22401   */\n      0x40\n        /* \"#utility.yul\":22394:22397   */\n      dup3\n        /* \"#utility.yul\":22390:22402   */\n      add\n        /* \"#utility.yul\":22383:22402   */\n      swap1\n      pop\n        /* \"#utility.yul\":22042:22408   */\n      swap2\n      swap1\n      pop\n      jump\t// out\n        /* \"#utility.yul\":22414:22833   */\n    tag_109:\n        /* \"#utility.yul\":22580:22584   */\n      0x00\n        /* \"#utility.yul\":22618:22620   */\n      0x20\n        /* \"#utility.yul\":22607:22616   */\n      dup3\n        /* \"#utility.yul\":22603:22621   */\n      add\n        /* \"#utility.yul\":22595:22621   */\n      swap1\n      pop\n        /* \"#utility.yul\":22667:22676   */\n      dup2\n        /* \"#utility.yul\":22661:22665   */\n      dup2\n        /* \"#utility.yul\":22657:22677   */\n      sub\n        /* \"#utility.yul\":22653:22654   */\n      0x00\n        /* \"#utility.yul\":22642:22651   */\n      dup4\n        /* \"#utility.yul\":22638:22655   */\n      add\n        /* \"#utility.yul\":22631:22678   */\n      mstore\n        /* \"#utility.yul\":22695:22826   */\n      tag_416\n        /* \"#utility.yul\":22821:22825   */\n      dup2\n        /* \"#utility.yul\":22695:22826   */\n      tag_188\n      jump\t// in\n    tag_416:\n        /* \"#utility.yul\":22687:22826   */\n      swap1\n      pop\n        /* \"#utility.yul\":22414:22833   */\n      swap2\n      swap1\n      pop\n      jump\t// out\n        /* \"#utility.yul\":22839:23013   */\n    tag_189:\n        /* \"#utility.yul\":22979:23005   */\n      0x496e636f7272656374207061796d656e7420616d6f756e740000000000000000\n        /* \"#utility.yul\":22975:22976   */\n      0x00\n        /* \"#utility.yul\":22967:22973   */\n      dup3\n        /* \"#utility.yul\":22963:22977   */\n      add\n        /* \"#utility.yul\":22956:23006   */\n      mstore\n        /* \"#utility.yul\":22839:23013   */\n      pop\n      jump\t// out\n        /* \"#utility.yul\":23019:23385   */\n    tag_190:\n        /* \"#utility.yul\":23161:23164   */\n      0x00\n        /* \"#utility.yul\":23182:23249   */\n      tag_419\n        /* \"#utility.yul\":23246:23248   */\n      0x18\n        /* \"#utility.yul\":23241:23244   */\n      dup4\n        /* \"#utility.yul\":23182:23249   */\n      tag_154\n      jump\t// in\n    tag_419:\n        /* \"#utility.yul\":23175:23249   */\n      swap2\n      pop\n        /* \"#utility.yul\":23258:23351   */\n      tag_420\n        /* \"#utility.yul\":23347:23350   */\n      dup3\n        /* \"#utility.yul\":23258:23351   */\n      tag_189\n      jump\t// in\n    tag_420:\n        /* \"#utility.yul\":23376:23378   */\n      0x20\n        /* \"#utility.yul\":23371:23374   */\n      dup3\n        /* \"#utility.yul\":23367:23379   */\n      add\n        /* \"#utility.yul\":23360:23379   */\n      swap1\n      pop\n        /* \"#utility.yul\":23019:23385   */\n      swap2\n      swap1\n      pop\n      jump\t// out\n        /* \"#utility.yul\":23391:23810   */\n    tag_112:\n        /* \"#utility.yul\":23557:23561   */\n      0x00\n        /* \"#utility.yul\":23595:23597   */\n      0x20\n        /* \"#utility.yul\":23584:23593   */\n      dup3\n        /* \"#utility.yul\":23580:23598   */\n      add\n        /* \"#utility.yul\":23572:23598   */\n      swap1\n      pop\n        /* \"#utility.yul\":23644:23653   */\n      dup2\n        /* \"#utility.yul\":23638:23642   */\n      dup2\n        /* \"#utility.yul\":23634:23654   */\n      sub\n        /* \"#utility.yul\":23630:23631   */\n      0x00\n        /* \"#utility.yul\":23619:23628   */\n      dup4\n        /* \"#utility.yul\":23615:23632   */\n      add\n        /* \"#utility.yul\":23608:23655   */\n      mstore\n        /* \"#utility.yul\":23672:23803   */\n      tag_422\n        /* \"#utility.yul\":23798:23802   */\n      dup2\n        /* \"#utility.yul\":23672:23803   */\n      tag_190\n      jump\t// in\n    tag_422:\n        /* \"#utility.yul\":23664:23803   */\n      swap1\n      pop\n        /* \"#utility.yul\":23391:23810   */\n      swap2\n      swap1\n      pop\n      jump\t// out\n        /* \"#utility.yul\":23816:23963   */\n    tag_191:\n        /* \"#utility.yul\":23917:23928   */\n      0x00\n        /* \"#utility.yul\":23954:23957   */\n      dup2\n        /* \"#utility.yul\":23939:23957   */\n      swap1\n      pop\n        /* \"#utility.yul\":23816:23963   */\n      swap3\n      swap2\n      pop\n      pop\n      jump\t// out\n        /* \"#utility.yul\":23969:24083   */\n    tag_192:\n      pop\n      jump\t// out\n        /* \"#utility.yul\":24089:24487   */\n    tag_193:\n        /* \"#utility.yul\":24248:24251   */\n      0x00\n        /* \"#utility.yul\":24269:24352   */\n      tag_426\n        /* \"#utility.yul\":24350:24351   */\n      0x00\n        /* \"#utility.yul\":24345:24348   */\n      dup4\n        /* \"#utility.yul\":24269:24352   */\n      tag_191\n      jump\t// in\n    tag_426:\n        /* \"#utility.yul\":24262:24352   */\n      swap2\n      pop\n        /* \"#utility.yul\":24361:24454   */\n      tag_427\n        /* \"#utility.yul\":24450:24453   */\n      dup3\n        /* \"#utility.yul\":24361:24454   */\n      tag_192\n      jump\t// in\n    tag_427:\n        /* \"#utility.yul\":24479:24480   */\n      0x00\n        /* \"#utility.yul\":24474:24477   */\n      dup3\n        /* \"#utility.yul\":24470:24481   */\n      add\n        /* \"#utility.yul\":24463:24481   */\n      swap1\n      pop\n        /* \"#utility.yul\":24089:24487   */\n      swap2\n      swap1\n      pop\n      jump\t// out\n        /* \"#utility.yul\":24493:24872   */\n    tag_114:\n        /* \"#utility.yul\":24677:24680   */\n      0x00\n        /* \"#utility.yul\":24699:24846   */\n      tag_429\n        /* \"#utility.yul\":24842:24845   */\n      dup3\n        /* \"#utility.yul\":24699:24846   */\n      tag_193\n      jump\t// in\n    tag_429:\n        /* \"#utility.yul\":24692:24846   */\n      swap2\n      pop\n        /* \"#utility.yul\":24863:24866   */\n      dup2\n        /* \"#utility.yul\":24856:24866   */\n      swap1\n      pop\n        /* \"#utility.yul\":24493:24872   */\n      swap2\n      swap1\n      pop\n      jump\t// out\n        /* \"#utility.yul\":24878:25042   */\n    tag_194:\n        /* \"#utility.yul\":25018:25034   */\n      0x5061796d656e74206661696c6564000000000000000000000000000000000000\n        /* \"#utility.yul\":25014:25015   */\n      0x00\n        /* \"#utility.yul\":25006:25012   */\n      dup3\n        /* \"#utility.yul\":25002:25016   */\n      add\n        /* \"#utility.yul\":24995:25035   */\n      mstore\n        /* \"#utility.yul\":24878:25042   */\n      pop\n      jump\t// out\n        /* \"#utility.yul\":25048:25414   */\n    tag_195:\n        /* \"#utility.yul\":25190:25193   */\n      0x00\n        /* \"#utility.yul\":25211:25278   */\n      tag_432\n        /* \"#utility.yul\":25275:25277   */\n      0x0e\n        /* \"#utility.yul\":25270:25273   */\n      dup4\n        /* \"#utility.yul\":25211:25278   */\n      tag_154\n      jump\t// in\n    tag_432:\n        /* \"#utility.yul\":25204:25278   */\n      swap2\n      pop\n        /* \"#utility.yul\":25287:25380   */\n      tag_433\n        /* \"#utility.yul\":25376:25379   */\n      dup3\n        /* \"#utility.yul\":25287:25380   */\n      tag_194\n      jump\t// in\n    tag_433:\n        /* \"#utility.yul\":25405:25407   */\n      0x20\n        /* \"#utility.yul\":25400:25403   */\n      dup3\n        /* \"#utility.yul\":25396:25408   */\n      add\n        /* \"#utility.yul\":25389:25408   */\n      swap1\n      pop\n        /* \"#utility.yul\":25048:25414   */\n      swap2\n      swap1\n      pop\n      jump\t// out\n        /* \"#utility.yul\":25420:25839   */\n    tag_120:\n        /* \"#utility.yul\":25586:25590   */\n      0x00\n        /* \"#utility.yul\":25624:25626   */\n      0x20\n        /* \"#utility.yul\":25613:25622   */\n      dup3\n        /* \"#utility.yul\":25609:25627   */\n      add\n        /* \"#utility.yul\":25601:25627   */\n      swap1\n      pop\n        /* \"#utility.yul\":25673:25682   */\n      dup2\n        /* \"#utility.yul\":25667:25671   */\n      dup2\n        /* \"#utility.yul\":25663:25683   */\n      sub\n        /* \"#utility.yul\":25659:25660   */\n      0x00\n        /* \"#utility.yul\":25648:25657   */\n      dup4\n        /* \"#utility.yul\":25644:25661   */\n      add\n        /* \"#utility.yul\":25637:25684   */\n      mstore\n        /* \"#utility.yul\":25701:25832   */\n      tag_435\n        /* \"#utility.yul\":25827:25831   */\n      dup2\n        /* \"#utility.yul\":25701:25832   */\n      tag_195\n      jump\t// in\n    tag_435:\n        /* \"#utility.yul\":25693:25832   */\n      swap1\n      pop\n        /* \"#utility.yul\":25420:25839   */\n      swap2\n      swap1\n      pop\n      jump\t// out\n        /* \"#utility.yul\":25845:26016   */\n    tag_122:\n        /* \"#utility.yul\":25884:25887   */\n      0x00\n        /* \"#utility.yul\":25907:25931   */\n      tag_437\n        /* \"#utility.yul\":25925:25930   */\n      dup3\n        /* \"#utility.yul\":25907:25931   */\n      tag_140\n      jump\t// in\n    tag_437:\n        /* \"#utility.yul\":25898:25931   */\n      swap2\n      pop\n        /* \"#utility.yul\":25953:25957   */\n      0x00\n        /* \"#utility.yul\":25946:25951   */\n      dup3\n        /* \"#utility.yul\":25943:25958   */\n      sub\n        /* \"#utility.yul\":25940:25981   */\n      tag_438\n      jumpi\n        /* \"#utility.yul\":25961:25979   */\n      tag_439\n      tag_184\n      jump\t// in\n    tag_439:\n        /* \"#utility.yul\":25940:25981   */\n    tag_438:\n        /* \"#utility.yul\":26008:26009   */\n      0x01\n        /* \"#utility.yul\":26001:26006   */\n      dup3\n        /* \"#utility.yul\":25997:26010   */\n      sub\n        /* \"#utility.yul\":25990:26010   */\n      swap1\n      pop\n        /* \"#utility.yul\":25845:26016   */\n      swap2\n      swap1\n      pop\n      jump\t// out\n        /* \"#utility.yul\":26022:26216   */\n    tag_124:\n        /* \"#utility.yul\":26062:26066   */\n      0x00\n        /* \"#utility.yul\":26082:26102   */\n      tag_441\n        /* \"#utility.yul\":26100:26101   */\n      dup3\n        /* \"#utility.yul\":26082:26102   */\n      tag_140\n      jump\t// in\n    tag_441:\n        /* \"#utility.yul\":26077:26102   */\n      swap2\n      pop\n        /* \"#utility.yul\":26116:26136   */\n      tag_442\n        /* \"#utility.yul\":26134:26135   */\n      dup4\n        /* \"#utility.yul\":26116:26136   */\n      tag_140\n      jump\t// in\n    tag_442:\n        /* \"#utility.yul\":26111:26136   */\n      swap3\n      pop\n        /* \"#utility.yul\":26160:26161   */\n      dup3\n        /* \"#utility.yul\":26157:26158   */\n      dup3\n        /* \"#utility.yul\":26153:26162   */\n      sub\n        /* \"#utility.yul\":26145:26162   */\n      swap1\n      pop\n        /* \"#utility.yul\":26184:26185   */\n      dup2\n        /* \"#utility.yul\":26178:26182   */\n      dup2\n        /* \"#utility.yul\":26175:26186   */\n      gt\n        /* \"#utility.yul\":26172:26209   */\n      iszero\n      tag_443\n      jumpi\n        /* \"#utility.yul\":26189:26207   */\n      tag_444\n      tag_184\n      jump\t// in\n    tag_444:\n        /* \"#utility.yul\":26172:26209   */\n    tag_443:\n        /* \"#utility.yul\":26022:26216   */\n      swap3\n      swap2\n      pop\n      pop\n      jump\t// out\n        /* \"#utility.yul\":26222:26664   */\n    tag_128:\n        /* \"#utility.yul\":26371:26375   */\n      0x00\n        /* \"#utility.yul\":26409:26411   */\n      0x60\n        /* \"#utility.yul\":26398:26407   */\n      dup3\n        /* \"#utility.yul\":26394:26412   */\n      add\n        /* \"#utility.yul\":26386:26412   */\n      swap1\n      pop\n        /* \"#utility.yul\":26422:26493   */\n      tag_446\n        /* \"#utility.yul\":26490:26491   */\n      0x00\n        /* \"#utility.yul\":26479:26488   */\n      dup4\n        /* \"#utility.yul\":26475:26492   */\n      add\n        /* \"#utility.yul\":26466:26472   */\n      dup7\n        /* \"#utility.yul\":26422:26493   */\n      tag_156\n      jump\t// in\n    tag_446:\n        /* \"#utility.yul\":26503:26575   */\n      tag_447\n        /* \"#utility.yul\":26571:26573   */\n      0x20\n        /* \"#utility.yul\":26560:26569   */\n      dup4\n        /* \"#utility.yul\":26556:26574   */\n      add\n        /* \"#utility.yul\":26547:26553   */\n      dup6\n        /* \"#utility.yul\":26503:26575   */\n      tag_156\n      jump\t// in\n    tag_447:\n        /* \"#utility.yul\":26585:26657   */\n      tag_448\n        /* \"#utility.yul\":26653:26655   */\n      0x40\n        /* \"#utility.yul\":26642:26651   */\n      dup4\n        /* \"#utility.yul\":26638:26656   */\n      add\n        /* \"#utility.yul\":26629:26635   */\n      dup5\n        /* \"#utility.yul\":26585:26657   */\n      tag_156\n      jump\t// in\n    tag_448:\n        /* \"#utility.yul\":26222:26664   */\n      swap5\n      swap4\n      pop\n      pop\n      pop\n      pop\n      jump\t// out\n\n    auxdata: 0xa2646970667358221220fd5ed8bb6bf45f18ba5a96d0b0ea41f2c357c328712e0d514c7cae1d360a713164736f6c63430008180033\n}\n",
				"bytecode": {
					"linkReferences": {},
					"object": "608060405234801561000f575f80fd5b50611ceb8061001d5f395ff3fe608060405260043610610048575f3560e01c8062a715271461004c5780634b6026731461007657806379f9ec1c146100ba5780638392fe31146100e2578063e44c3c4b14610127575b5f80fd5b348015610057575f80fd5b50610060610143565b60405161006d919061120a565b60405180910390f35b348015610081575f80fd5b5061009c60048036038101906100979190611265565b610514565b6040516100b199989796959493929190611305565b60405180910390f35b3480156100c5575f80fd5b506100e060048036038101906100db9190611502565b6107c0565b005b3480156100ed575f80fd5b5061010860048036038101906101039190611265565b610936565b60405161011e9a999897969594939291906115df565b60405180910390f35b610141600480360381019061013c9190611265565b610a56565b005b60605f805467ffffffffffffffff811115610161576101606113de565b5b60405190808252806020026020018201604052801561019a57816020015b610187610f08565b81526020019060019003908161017f5790505b5090505f5b5f5481101561050c575f60025f8381526020019081526020015f20905080604051806101200160405290815f82015f9054906101000a900473ffffffffffffffffffffffffffffffffffffffff1673ffffffffffffffffffffffffffffffffffffffff1673ffffffffffffffffffffffffffffffffffffffff16815260200160018201805461022d906116ad565b80601f0160208091040260200160405190810160405280929190818152602001828054610259906116ad565b80156102a45780601f1061027b576101008083540402835291602001916102a4565b820191905f5260205f20905b81548152906001019060200180831161028757829003601f168201915b505050505081526020016002820180546102bd906116ad565b80601f01602080910402602001604051908101604052809291908181526020018280546102e9906116ad565b80156103345780601f1061030b57610100808354040283529160200191610334565b820191905f5260205f20905b81548152906001019060200180831161031757829003601f168201915b5050505050815260200160038201548152602001600482018054610357906116ad565b80601f0160208091040260200160405190810160405280929190818152602001828054610383906116ad565b80156103ce5780601f106103a5576101008083540402835291602001916103ce565b820191905f5260205f20905b8154815290600101906020018083116103b157829003601f168201915b5050505050815260200160058201548152602001600682015f9054906101000a900460ff1615151515815260200160078201805461040b906116ad565b80601f0160208091040260200160405190810160405280929190818152602001828054610437906116ad565b80156104825780601f1061045957610100808354040283529160200191610482565b820191905f5260205f20905b81548152906001019060200180831161046557829003601f168201915b50505050508152602001600882015f9054906101000a900473ffffffffffffffffffffffffffffffffffffffff1673ffffffffffffffffffffffffffffffffffffffff1673ffffffffffffffffffffffffffffffffffffffff16815250508383815181106104f3576104f26116dd565b5b602002602001018190525050808060010191505061019f565b508091505090565b6002602052805f5260405f205f91509050805f015f9054906101000a900473ffffffffffffffffffffffffffffffffffffffff1690806001018054610558906116ad565b80601f0160208091040260200160405190810160405280929190818152602001828054610584906116ad565b80156105cf5780601f106105a6576101008083540402835291602001916105cf565b820191905f5260205f20905b8154815290600101906020018083116105b257829003601f168201915b5050505050908060020180546105e4906116ad565b80601f0160208091040260200160405190810160405280929190818152602001828054610610906116ad565b801561065b5780601f106106325761010080835404028352916020019161065b565b820191905f5260205f20905b81548152906001019060200180831161063e57829003601f168201915b505050505090806003015490806004018054610676906116ad565b80601f01602080910402602001604051908101604052809291908181526020018280546106a2906116ad565b80156106ed5780601f106106c4576101008083540402835291602001916106ed565b820191905f5260205f20905b8154815290600101906020018083116106d057829003601f168201915b505050505090806005015490806006015f9054906101000a900460ff169080600701805461071a906116ad565b80601f0160208091040260200160405190810160405280929190818152602001828054610746906116ad565b80156107915780601f1061076857610100808354040283529160200191610791565b820191905f5260205f20905b81548152906001019060200180831161077457829003601f168201915b505050505090806008015f9054906101000a900473ffffffffffffffffffffffffffffffffffffffff16905089565b5f60025f805481526020019081526020015f20905086815f015f6101000a81548173ffffffffffffffffffffffffffffffffffffffff021916908373ffffffffffffffffffffffffffffffffffffffff1602179055508581600101908161082791906118a7565b508481600201908161083991906118a7565b508381600301819055508281600401908161085491906118a7565b508181600501819055505f816006015f6101000a81548160ff02191690831515021790555060405180602001604052805f81525081600701908161089891906118a7565b5086816008015f6101000a81548173ffffffffffffffffffffffffffffffffffffffff021916908373ffffffffffffffffffffffffffffffffffffffff1602179055505f808154809291906108ec906119a3565b91905055507f44d62de96131f2cacc99c1e9f98c05f0377cdeefb592f923d313af3058d22fdd87855f54604051610925939291906119ea565b60405180910390a150505050505050565b6003602052805f5260405f205f91509050805f015490806001015490806002015f9054906101000a900473ffffffffffffffffffffffffffffffffffffffff1690806003015f9054906101000a900473ffffffffffffffffffffffffffffffffffffffff16908060040154908060050154908060060154908060070154908060080180546109c3906116ad565b80601f01602080910402602001604051908101604052809291908181526020018280546109ef906116ad565b8015610a3a5780601f10610a1157610100808354040283529160200191610a3a565b820191905f5260205f20905b815481529060010190602001808311610a1d57829003601f168201915b505050505090806009015f9054906101000a900460ff1690508a565b5f60025f8381526020019081526020015f2090505f816005015411610ab0576040517f08c379a0000000000000000000000000000000000000000000000000000000008152600401610aa790611a69565b60405180910390fd5b805f015f9054906101000a900473ffffffffffffffffffffffffffffffffffffffff1673ffffffffffffffffffffffffffffffffffffffff163373ffffffffffffffffffffffffffffffffffffffff1603610b40576040517f08c379a0000000000000000000000000000000000000000000000000000000008152600401610b3790611af7565b60405180910390fd5b5f81600301549050803414610b8a576040517f08c379a0000000000000000000000000000000000000000000000000000000008152600401610b8190611b5f565b60405180910390fd5b5f825f015f9054906101000a900473ffffffffffffffffffffffffffffffffffffffff1673ffffffffffffffffffffffffffffffffffffffff1682604051610bd190611baa565b5f6040518083038185875af1925050503d805f8114610c0b576040519150601f19603f3d011682016040523d82523d5f602084013e610c10565b606091505b5050905080610c54576040517f08c379a0000000000000000000000000000000000000000000000000000000008152600401610c4b90611c08565b60405180910390fd5b826005015f815480929190610c6890611c26565b919050555060405180610140016040528060015481526020018581526020013373ffffffffffffffffffffffffffffffffffffffff168152602001845f015f9054906101000a900473ffffffffffffffffffffffffffffffffffffffff1673ffffffffffffffffffffffffffffffffffffffff16815260200183815260200184600301548152602001838152602001838560030154610d079190611c4d565b81526020016040518060400160405280600c81526020017f696e2077617265686f757365000000000000000000000000000000000000000081525081526020015f151581525060035f60015481526020019081526020015f205f820151815f0155602082015181600101556040820151816002015f6101000a81548173ffffffffffffffffffffffffffffffffffffffff021916908373ffffffffffffffffffffffffffffffffffffffff1602179055506060820151816003015f6101000a81548173ffffffffffffffffffffffffffffffffffffffff021916908373ffffffffffffffffffffffffffffffffffffffff1602179055506080820151816004015560a0820151816005015560c0820151816006015560e08201518160070155610100820151816008019081610e3c91906118a7565b50610120820151816009015f6101000a81548160ff02191690831515021790555090505060015f815480929190610e72906119a3565b9190505550825f015f9054906101000a900473ffffffffffffffffffffffffffffffffffffffff1673ffffffffffffffffffffffffffffffffffffffff163373ffffffffffffffffffffffffffffffffffffffff167f465c604f8dcf4d2dba83e76f95c4cb5876f0976ec008a9326b6d4b209142bb45868534604051610efa93929190611c80565b60405180910390a350505050565b6040518061012001604052805f73ffffffffffffffffffffffffffffffffffffffff16815260200160608152602001606081526020015f8152602001606081526020015f81526020015f15158152602001606081526020015f73ffffffffffffffffffffffffffffffffffffffff1681525090565b5f81519050919050565b5f82825260208201905092915050565b5f819050602082019050919050565b5f73ffffffffffffffffffffffffffffffffffffffff82169050919050565b5f610fcf82610fa6565b9050919050565b610fdf81610fc5565b82525050565b5f81519050919050565b5f82825260208201905092915050565b5f5b8381101561101c578082015181840152602081019050611001565b5f8484015250505050565b5f601f19601f8301169050919050565b5f61104182610fe5565b61104b8185610fef565b935061105b818560208601610fff565b61106481611027565b840191505092915050565b5f819050919050565b6110818161106f565b82525050565b5f8115159050919050565b61109b81611087565b82525050565b5f61012083015f8301516110b75f860182610fd6565b50602083015184820360208601526110cf8282611037565b915050604083015184820360408601526110e98282611037565b91505060608301516110fe6060860182611078565b50608083015184820360808601526111168282611037565b91505060a083015161112b60a0860182611078565b5060c083015161113e60c0860182611092565b5060e083015184820360e08601526111568282611037565b91505061010083015161116d610100860182610fd6565b508091505092915050565b5f61118383836110a1565b905092915050565b5f602082019050919050565b5f6111a182610f7d565b6111ab8185610f87565b9350836020820285016111bd85610f97565b805f5b858110156111f857848403895281516111d98582611178565b94506111e48361118b565b925060208a019950506001810190506111c0565b50829750879550505050505092915050565b5f6020820190508181035f8301526112228184611197565b905092915050565b5f604051905090565b5f80fd5b5f80fd5b6112448161106f565b811461124e575f80fd5b50565b5f8135905061125f8161123b565b92915050565b5f6020828403121561127a57611279611233565b5b5f61128784828501611251565b91505092915050565b61129981610fc5565b82525050565b5f82825260208201905092915050565b5f6112b982610fe5565b6112c3818561129f565b93506112d3818560208601610fff565b6112dc81611027565b840191505092915050565b6112f08161106f565b82525050565b6112ff81611087565b82525050565b5f610120820190506113195f83018c611290565b818103602083015261132b818b6112af565b9050818103604083015261133f818a6112af565b905061134e60608301896112e7565b818103608083015261136081886112af565b905061136f60a08301876112e7565b61137c60c08301866112f6565b81810360e083015261138e81856112af565b905061139e610100830184611290565b9a9950505050505050505050565b6113b581610fc5565b81146113bf575f80fd5b50565b5f813590506113d0816113ac565b92915050565b5f80fd5b5f80fd5b7f4e487b71000000000000000000000000000000000000000000000000000000005f52604160045260245ffd5b61141482611027565b810181811067ffffffffffffffff82111715611433576114326113de565b5b80604052505050565b5f61144561122a565b9050611451828261140b565b919050565b5f67ffffffffffffffff8211156114705761146f6113de565b5b61147982611027565b9050602081019050919050565b828183375f83830152505050565b5f6114a66114a184611456565b61143c565b9050828152602081018484840111156114c2576114c16113da565b5b6114cd848285611486565b509392505050565b5f82601f8301126114e9576114e86113d6565b5b81356114f9848260208601611494565b91505092915050565b5f805f805f8060c0878903121561151c5761151b611233565b5b5f61152989828a016113c2565b965050602087013567ffffffffffffffff81111561154a57611549611237565b5b61155689828a016114d5565b955050604087013567ffffffffffffffff81111561157757611576611237565b5b61158389828a016114d5565b945050606061159489828a01611251565b935050608087013567ffffffffffffffff8111156115b5576115b4611237565b5b6115c189828a016114d5565b92505060a06115d289828a01611251565b9150509295509295509295565b5f610140820190506115f35f83018d6112e7565b611600602083018c6112e7565b61160d604083018b611290565b61161a606083018a611290565b61162760808301896112e7565b61163460a08301886112e7565b61164160c08301876112e7565b61164e60e08301866112e7565b81810361010083015261166181856112af565b90506116716101208301846112f6565b9b9a5050505050505050505050565b7f4e487b71000000000000000000000000000000000000000000000000000000005f52602260045260245ffd5b5f60028204905060018216806116c457607f821691505b6020821081036116d7576116d6611680565b5b50919050565b7f4e487b71000000000000000000000000000000000000000000000000000000005f52603260045260245ffd5b5f819050815f5260205f209050919050565b5f6020601f8301049050919050565b5f82821b905092915050565b5f600883026117667fffffffffffffffffffffffffffffffffffffffffffffffffffffffffffffffff8261172b565b611770868361172b565b95508019841693508086168417925050509392505050565b5f819050919050565b5f6117ab6117a66117a18461106f565b611788565b61106f565b9050919050565b5f819050919050565b6117c483611791565b6117d86117d0826117b2565b848454611737565b825550505050565b5f90565b6117ec6117e0565b6117f78184846117bb565b505050565b5b8181101561181a5761180f5f826117e4565b6001810190506117fd565b5050565b601f82111561185f576118308161170a565b6118398461171c565b81016020851015611848578190505b61185c6118548561171c565b8301826117fc565b50505b505050565b5f82821c905092915050565b5f61187f5f1984600802611864565b1980831691505092915050565b5f6118978383611870565b9150826002028217905092915050565b6118b082610fe5565b67ffffffffffffffff8111156118c9576118c86113de565b5b6118d382546116ad565b6118de82828561181e565b5f60209050601f83116001811461190f575f84156118fd578287015190505b611907858261188c565b86555061196e565b601f19841661191d8661170a565b5f5b828110156119445784890151825560018201915060208501945060208101905061191f565b86831015611961578489015161195d601f891682611870565b8355505b6001600288020188555050505b505050505050565b7f4e487b71000000000000000000000000000000000000000000000000000000005f52601160045260245ffd5b5f6119ad8261106f565b91507fffffffffffffffffffffffffffffffffffffffffffffffffffffffffffffffff82036119df576119de611976565b5b600182019050919050565b5f6060820190506119fd5f830186611290565b611a0a60208301856112e7565b611a1760408301846112e7565b949350505050565b7f417274776f726b206973206f7574206f662073746f636b0000000000000000005f82015250565b5f611a5360178361129f565b9150611a5e82611a1f565b602082019050919050565b5f6020820190508181035f830152611a8081611a47565b9050919050565b7f4f776e65722063616e6e6f7420627579207468656972206f776e20617274776f5f8201527f726b000000000000000000000000000000000000000000000000000000000000602082015250565b5f611ae160228361129f565b9150611aec82611a87565b604082019050919050565b5f6020820190508181035f830152611b0e81611ad5565b9050919050565b7f496e636f7272656374207061796d656e7420616d6f756e7400000000000000005f82015250565b5f611b4960188361129f565b9150611b5482611b15565b602082019050919050565b5f6020820190508181035f830152611b7681611b3d565b9050919050565b5f81905092915050565b50565b5f611b955f83611b7d565b9150611ba082611b87565b5f82019050919050565b5f611bb482611b8a565b9150819050919050565b7f5061796d656e74206661696c65640000000000000000000000000000000000005f82015250565b5f611bf2600e8361129f565b9150611bfd82611bbe565b602082019050919050565b5f6020820190508181035f830152611c1f81611be6565b9050919050565b5f611c308261106f565b91505f8203611c4257611c41611976565b5b600182039050919050565b5f611c578261106f565b9150611c628361106f565b9250828203905081811115611c7a57611c79611976565b5b92915050565b5f606082019050611c935f8301866112e7565b611ca060208301856112e7565b611cad60408301846112e7565b94935050505056fea2646970667358221220fd5ed8bb6bf45f18ba5a96d0b0ea41f2c357c328712e0d514c7cae1d360a713164736f6c63430008180033",
					"opcodes": "PUSH1 0x80 PUSH1 0x40 MSTORE CALLVALUE DUP1 ISZERO PUSH2 0xF JUMPI PUSH0 DUP1 REVERT JUMPDEST POP PUSH2 0x1CEB DUP1 PUSH2 0x1D PUSH0 CODECOPY PUSH0 RETURN INVALID PUSH1 0x80 PUSH1 0x40 MSTORE PUSH1 0x4 CALLDATASIZE LT PUSH2 0x48 JUMPI PUSH0 CALLDATALOAD PUSH1 0xE0 SHR DUP1 PUSH3 0xA71527 EQ PUSH2 0x4C JUMPI DUP1 PUSH4 0x4B602673 EQ PUSH2 0x76 JUMPI DUP1 PUSH4 0x79F9EC1C EQ PUSH2 0xBA JUMPI DUP1 PUSH4 0x8392FE31 EQ PUSH2 0xE2 JUMPI DUP1 PUSH4 0xE44C3C4B EQ PUSH2 0x127 JUMPI JUMPDEST PUSH0 DUP1 REVERT JUMPDEST CALLVALUE DUP1 ISZERO PUSH2 0x57 JUMPI PUSH0 DUP1 REVERT JUMPDEST POP PUSH2 0x60 PUSH2 0x143 JUMP JUMPDEST PUSH1 0x40 MLOAD PUSH2 0x6D SWAP2 SWAP1 PUSH2 0x120A JUMP JUMPDEST PUSH1 0x40 MLOAD DUP1 SWAP2 SUB SWAP1 RETURN JUMPDEST CALLVALUE DUP1 ISZERO PUSH2 0x81 JUMPI PUSH0 DUP1 REVERT JUMPDEST POP PUSH2 0x9C PUSH1 0x4 DUP1 CALLDATASIZE SUB DUP2 ADD SWAP1 PUSH2 0x97 SWAP2 SWAP1 PUSH2 0x1265 JUMP JUMPDEST PUSH2 0x514 JUMP JUMPDEST PUSH1 0x40 MLOAD PUSH2 0xB1 SWAP10 SWAP9 SWAP8 SWAP7 SWAP6 SWAP5 SWAP4 SWAP3 SWAP2 SWAP1 PUSH2 0x1305 JUMP JUMPDEST PUSH1 0x40 MLOAD DUP1 SWAP2 SUB SWAP1 RETURN JUMPDEST CALLVALUE DUP1 ISZERO PUSH2 0xC5 JUMPI PUSH0 DUP1 REVERT JUMPDEST POP PUSH2 0xE0 PUSH1 0x4 DUP1 CALLDATASIZE SUB DUP2 ADD SWAP1 PUSH2 0xDB SWAP2 SWAP1 PUSH2 0x1502 JUMP JUMPDEST PUSH2 0x7C0 JUMP JUMPDEST STOP JUMPDEST CALLVALUE DUP1 ISZERO PUSH2 0xED JUMPI PUSH0 DUP1 REVERT JUMPDEST POP PUSH2 0x108 PUSH1 0x4 DUP1 CALLDATASIZE SUB DUP2 ADD SWAP1 PUSH2 0x103 SWAP2 SWAP1 PUSH2 0x1265 JUMP JUMPDEST PUSH2 0x936 JUMP JUMPDEST PUSH1 0x40 MLOAD PUSH2 0x11E SWAP11 SWAP10 SWAP9 SWAP8 SWAP7 SWAP6 SWAP5 SWAP4 SWAP3 SWAP2 SWAP1 PUSH2 0x15DF JUMP JUMPDEST PUSH1 0x40 MLOAD DUP1 SWAP2 SUB SWAP1 RETURN JUMPDEST PUSH2 0x141 PUSH1 0x4 DUP1 CALLDATASIZE SUB DUP2 ADD SWAP1 PUSH2 0x13C SWAP2 SWAP1 PUSH2 0x1265 JUMP JUMPDEST PUSH2 0xA56 JUMP JUMPDEST STOP JUMPDEST PUSH1 0x60 PUSH0 DUP1 SLOAD PUSH8 0xFFFFFFFFFFFFFFFF DUP2 GT ISZERO PUSH2 0x161 JUMPI PUSH2 0x160 PUSH2 0x13DE JUMP JUMPDEST JUMPDEST PUSH1 0x40 MLOAD SWAP1 DUP1 DUP3 MSTORE DUP1 PUSH1 0x20 MUL PUSH1 0x20 ADD DUP3 ADD PUSH1 0x40 MSTORE DUP1 ISZERO PUSH2 0x19A JUMPI DUP2 PUSH1 0x20 ADD JUMPDEST PUSH2 0x187 PUSH2 0xF08 JUMP JUMPDEST DUP2 MSTORE PUSH1 0x20 ADD SWAP1 PUSH1 0x1 SWAP1 SUB SWAP1 DUP2 PUSH2 0x17F JUMPI SWAP1 POP JUMPDEST POP SWAP1 POP PUSH0 JUMPDEST PUSH0 SLOAD DUP2 LT ISZERO PUSH2 0x50C JUMPI PUSH0 PUSH1 0x2 PUSH0 DUP4 DUP2 MSTORE PUSH1 0x20 ADD SWAP1 DUP2 MSTORE PUSH1 0x20 ADD PUSH0 KECCAK256 SWAP1 POP DUP1 PUSH1 0x40 MLOAD DUP1 PUSH2 0x120 ADD PUSH1 0x40 MSTORE SWAP1 DUP2 PUSH0 DUP3 ADD PUSH0 SWAP1 SLOAD SWAP1 PUSH2 0x100 EXP SWAP1 DIV PUSH20 0xFFFFFFFFFFFFFFFFFFFFFFFFFFFFFFFFFFFFFFFF AND PUSH20 0xFFFFFFFFFFFFFFFFFFFFFFFFFFFFFFFFFFFFFFFF AND PUSH20 0xFFFFFFFFFFFFFFFFFFFFFFFFFFFFFFFFFFFFFFFF AND DUP2 MSTORE PUSH1 0x20 ADD PUSH1 0x1 DUP3 ADD DUP1 SLOAD PUSH2 0x22D SWAP1 PUSH2 0x16AD JUMP JUMPDEST DUP1 PUSH1 0x1F ADD PUSH1 0x20 DUP1 SWAP2 DIV MUL PUSH1 0x20 ADD PUSH1 0x40 MLOAD SWAP1 DUP2 ADD PUSH1 0x40 MSTORE DUP1 SWAP3 SWAP2 SWAP1 DUP2 DUP2 MSTORE PUSH1 0x20 ADD DUP3 DUP1 SLOAD PUSH2 0x259 SWAP1 PUSH2 0x16AD JUMP JUMPDEST DUP1 ISZERO PUSH2 0x2A4 JUMPI DUP1 PUSH1 0x1F LT PUSH2 0x27B JUMPI PUSH2 0x100 DUP1 DUP4 SLOAD DIV MUL DUP4 MSTORE SWAP2 PUSH1 0x20 ADD SWAP2 PUSH2 0x2A4 JUMP JUMPDEST DUP3 ADD SWAP2 SWAP1 PUSH0 MSTORE PUSH1 0x20 PUSH0 KECCAK256 SWAP1 JUMPDEST DUP2 SLOAD DUP2 MSTORE SWAP1 PUSH1 0x1 ADD SWAP1 PUSH1 0x20 ADD DUP1 DUP4 GT PUSH2 0x287 JUMPI DUP3 SWAP1 SUB PUSH1 0x1F AND DUP3 ADD SWAP2 JUMPDEST POP POP POP POP POP DUP2 MSTORE PUSH1 0x20 ADD PUSH1 0x2 DUP3 ADD DUP1 SLOAD PUSH2 0x2BD SWAP1 PUSH2 0x16AD JUMP JUMPDEST DUP1 PUSH1 0x1F ADD PUSH1 0x20 DUP1 SWAP2 DIV MUL PUSH1 0x20 ADD PUSH1 0x40 MLOAD SWAP1 DUP2 ADD PUSH1 0x40 MSTORE DUP1 SWAP3 SWAP2 SWAP1 DUP2 DUP2 MSTORE PUSH1 0x20 ADD DUP3 DUP1 SLOAD PUSH2 0x2E9 SWAP1 PUSH2 0x16AD JUMP JUMPDEST DUP1 ISZERO PUSH2 0x334 JUMPI DUP1 PUSH1 0x1F LT PUSH2 0x30B JUMPI PUSH2 0x100 DUP1 DUP4 SLOAD DIV MUL DUP4 MSTORE SWAP2 PUSH1 0x20 ADD SWAP2 PUSH2 0x334 JUMP JUMPDEST DUP3 ADD SWAP2 SWAP1 PUSH0 MSTORE PUSH1 0x20 PUSH0 KECCAK256 SWAP1 JUMPDEST DUP2 SLOAD DUP2 MSTORE SWAP1 PUSH1 0x1 ADD SWAP1 PUSH1 0x20 ADD DUP1 DUP4 GT PUSH2 0x317 JUMPI DUP3 SWAP1 SUB PUSH1 0x1F AND DUP3 ADD SWAP2 JUMPDEST POP POP POP POP POP DUP2 MSTORE PUSH1 0x20 ADD PUSH1 0x3 DUP3 ADD SLOAD DUP2 MSTORE PUSH1 0x20 ADD PUSH1 0x4 DUP3 ADD DUP1 SLOAD PUSH2 0x357 SWAP1 PUSH2 0x16AD JUMP JUMPDEST DUP1 PUSH1 0x1F ADD PUSH1 0x20 DUP1 SWAP2 DIV MUL PUSH1 0x20 ADD PUSH1 0x40 MLOAD SWAP1 DUP2 ADD PUSH1 0x40 MSTORE DUP1 SWAP3 SWAP2 SWAP1 DUP2 DUP2 MSTORE PUSH1 0x20 ADD DUP3 DUP1 SLOAD PUSH2 0x383 SWAP1 PUSH2 0x16AD JUMP JUMPDEST DUP1 ISZERO PUSH2 0x3CE JUMPI DUP1 PUSH1 0x1F LT PUSH2 0x3A5 JUMPI PUSH2 0x100 DUP1 DUP4 SLOAD DIV MUL DUP4 MSTORE SWAP2 PUSH1 0x20 ADD SWAP2 PUSH2 0x3CE JUMP JUMPDEST DUP3 ADD SWAP2 SWAP1 PUSH0 MSTORE PUSH1 0x20 PUSH0 KECCAK256 SWAP1 JUMPDEST DUP2 SLOAD DUP2 MSTORE SWAP1 PUSH1 0x1 ADD SWAP1 PUSH1 0x20 ADD DUP1 DUP4 GT PUSH2 0x3B1 JUMPI DUP3 SWAP1 SUB PUSH1 0x1F AND DUP3 ADD SWAP2 JUMPDEST POP POP POP POP POP DUP2 MSTORE PUSH1 0x20 ADD PUSH1 0x5 DUP3 ADD SLOAD DUP2 MSTORE PUSH1 0x20 ADD PUSH1 0x6 DUP3 ADD PUSH0 SWAP1 SLOAD SWAP1 PUSH2 0x100 EXP SWAP1 DIV PUSH1 0xFF AND ISZERO ISZERO ISZERO ISZERO DUP2 MSTORE PUSH1 0x20 ADD PUSH1 0x7 DUP3 ADD DUP1 SLOAD PUSH2 0x40B SWAP1 PUSH2 0x16AD JUMP JUMPDEST DUP1 PUSH1 0x1F ADD PUSH1 0x20 DUP1 SWAP2 DIV MUL PUSH1 0x20 ADD PUSH1 0x40 MLOAD SWAP1 DUP2 ADD PUSH1 0x40 MSTORE DUP1 SWAP3 SWAP2 SWAP1 DUP2 DUP2 MSTORE PUSH1 0x20 ADD DUP3 DUP1 SLOAD PUSH2 0x437 SWAP1 PUSH2 0x16AD JUMP JUMPDEST DUP1 ISZERO PUSH2 0x482 JUMPI DUP1 PUSH1 0x1F LT PUSH2 0x459 JUMPI PUSH2 0x100 DUP1 DUP4 SLOAD DIV MUL DUP4 MSTORE SWAP2 PUSH1 0x20 ADD SWAP2 PUSH2 0x482 JUMP JUMPDEST DUP3 ADD SWAP2 SWAP1 PUSH0 MSTORE PUSH1 0x20 PUSH0 KECCAK256 SWAP1 JUMPDEST DUP2 SLOAD DUP2 MSTORE SWAP1 PUSH1 0x1 ADD SWAP1 PUSH1 0x20 ADD DUP1 DUP4 GT PUSH2 0x465 JUMPI DUP3 SWAP1 SUB PUSH1 0x1F AND DUP3 ADD SWAP2 JUMPDEST POP POP POP POP POP DUP2 MSTORE PUSH1 0x20 ADD PUSH1 0x8 DUP3 ADD PUSH0 SWAP1 SLOAD SWAP1 PUSH2 0x100 EXP SWAP1 DIV PUSH20 0xFFFFFFFFFFFFFFFFFFFFFFFFFFFFFFFFFFFFFFFF AND PUSH20 0xFFFFFFFFFFFFFFFFFFFFFFFFFFFFFFFFFFFFFFFF AND PUSH20 0xFFFFFFFFFFFFFFFFFFFFFFFFFFFFFFFFFFFFFFFF AND DUP2 MSTORE POP POP DUP4 DUP4 DUP2 MLOAD DUP2 LT PUSH2 0x4F3 JUMPI PUSH2 0x4F2 PUSH2 0x16DD JUMP JUMPDEST JUMPDEST PUSH1 0x20 MUL PUSH1 0x20 ADD ADD DUP2 SWAP1 MSTORE POP POP DUP1 DUP1 PUSH1 0x1 ADD SWAP2 POP POP PUSH2 0x19F JUMP JUMPDEST POP DUP1 SWAP2 POP POP SWAP1 JUMP JUMPDEST PUSH1 0x2 PUSH1 0x20 MSTORE DUP1 PUSH0 MSTORE PUSH1 0x40 PUSH0 KECCAK256 PUSH0 SWAP2 POP SWAP1 POP DUP1 PUSH0 ADD PUSH0 SWAP1 SLOAD SWAP1 PUSH2 0x100 EXP SWAP1 DIV PUSH20 0xFFFFFFFFFFFFFFFFFFFFFFFFFFFFFFFFFFFFFFFF AND SWAP1 DUP1 PUSH1 0x1 ADD DUP1 SLOAD PUSH2 0x558 SWAP1 PUSH2 0x16AD JUMP JUMPDEST DUP1 PUSH1 0x1F ADD PUSH1 0x20 DUP1 SWAP2 DIV MUL PUSH1 0x20 ADD PUSH1 0x40 MLOAD SWAP1 DUP2 ADD PUSH1 0x40 MSTORE DUP1 SWAP3 SWAP2 SWAP1 DUP2 DUP2 MSTORE PUSH1 0x20 ADD DUP3 DUP1 SLOAD PUSH2 0x584 SWAP1 PUSH2 0x16AD JUMP JUMPDEST DUP1 ISZERO PUSH2 0x5CF JUMPI DUP1 PUSH1 0x1F LT PUSH2 0x5A6 JUMPI PUSH2 0x100 DUP1 DUP4 SLOAD DIV MUL DUP4 MSTORE SWAP2 PUSH1 0x20 ADD SWAP2 PUSH2 0x5CF JUMP JUMPDEST DUP3 ADD SWAP2 SWAP1 PUSH0 MSTORE PUSH1 0x20 PUSH0 KECCAK256 SWAP1 JUMPDEST DUP2 SLOAD DUP2 MSTORE SWAP1 PUSH1 0x1 ADD SWAP1 PUSH1 0x20 ADD DUP1 DUP4 GT PUSH2 0x5B2 JUMPI DUP3 SWAP1 SUB PUSH1 0x1F AND DUP3 ADD SWAP2 JUMPDEST POP POP POP POP POP SWAP1 DUP1 PUSH1 0x2 ADD DUP1 SLOAD PUSH2 0x5E4 SWAP1 PUSH2 0x16AD JUMP JUMPDEST DUP1 PUSH1 0x1F ADD PUSH1 0x20 DUP1 SWAP2 DIV MUL PUSH1 0x20 ADD PUSH1 0x40 MLOAD SWAP1 DUP2 ADD PUSH1 0x40 MSTORE DUP1 SWAP3 SWAP2 SWAP1 DUP2 DUP2 MSTORE PUSH1 0x20 ADD DUP3 DUP1 SLOAD PUSH2 0x610 SWAP1 PUSH2 0x16AD JUMP JUMPDEST DUP1 ISZERO PUSH2 0x65B JUMPI DUP1 PUSH1 0x1F LT PUSH2 0x632 JUMPI PUSH2 0x100 DUP1 DUP4 SLOAD DIV MUL DUP4 MSTORE SWAP2 PUSH1 0x20 ADD SWAP2 PUSH2 0x65B JUMP JUMPDEST DUP3 ADD SWAP2 SWAP1 PUSH0 MSTORE PUSH1 0x20 PUSH0 KECCAK256 SWAP1 JUMPDEST DUP2 SLOAD DUP2 MSTORE SWAP1 PUSH1 0x1 ADD SWAP1 PUSH1 0x20 ADD DUP1 DUP4 GT PUSH2 0x63E JUMPI DUP3 SWAP1 SUB PUSH1 0x1F AND DUP3 ADD SWAP2 JUMPDEST POP POP POP POP POP SWAP1 DUP1 PUSH1 0x3 ADD SLOAD SWAP1 DUP1 PUSH1 0x4 ADD DUP1 SLOAD PUSH2 0x676 SWAP1 PUSH2 0x16AD JUMP JUMPDEST DUP1 PUSH1 0x1F ADD PUSH1 0x20 DUP1 SWAP2 DIV MUL PUSH1 0x20 ADD PUSH1 0x40 MLOAD SWAP1 DUP2 ADD PUSH1 0x40 MSTORE DUP1 SWAP3 SWAP2 SWAP1 DUP2 DUP2 MSTORE PUSH1 0x20 ADD DUP3 DUP1 SLOAD PUSH2 0x6A2 SWAP1 PUSH2 0x16AD JUMP JUMPDEST DUP1 ISZERO PUSH2 0x6ED JUMPI DUP1 PUSH1 0x1F LT PUSH2 0x6C4 JUMPI PUSH2 0x100 DUP1 DUP4 SLOAD DIV MUL DUP4 MSTORE SWAP2 PUSH1 0x20 ADD SWAP2 PUSH2 0x6ED JUMP JUMPDEST DUP3 ADD SWAP2 SWAP1 PUSH0 MSTORE PUSH1 0x20 PUSH0 KECCAK256 SWAP1 JUMPDEST DUP2 SLOAD DUP2 MSTORE SWAP1 PUSH1 0x1 ADD SWAP1 PUSH1 0x20 ADD DUP1 DUP4 GT PUSH2 0x6D0 JUMPI DUP3 SWAP1 SUB PUSH1 0x1F AND DUP3 ADD SWAP2 JUMPDEST POP POP POP POP POP SWAP1 DUP1 PUSH1 0x5 ADD SLOAD SWAP1 DUP1 PUSH1 0x6 ADD PUSH0 SWAP1 SLOAD SWAP1 PUSH2 0x100 EXP SWAP1 DIV PUSH1 0xFF AND SWAP1 DUP1 PUSH1 0x7 ADD DUP1 SLOAD PUSH2 0x71A SWAP1 PUSH2 0x16AD JUMP JUMPDEST DUP1 PUSH1 0x1F ADD PUSH1 0x20 DUP1 SWAP2 DIV MUL PUSH1 0x20 ADD PUSH1 0x40 MLOAD SWAP1 DUP2 ADD PUSH1 0x40 MSTORE DUP1 SWAP3 SWAP2 SWAP1 DUP2 DUP2 MSTORE PUSH1 0x20 ADD DUP3 DUP1 SLOAD PUSH2 0x746 SWAP1 PUSH2 0x16AD JUMP JUMPDEST DUP1 ISZERO PUSH2 0x791 JUMPI DUP1 PUSH1 0x1F LT PUSH2 0x768 JUMPI PUSH2 0x100 DUP1 DUP4 SLOAD DIV MUL DUP4 MSTORE SWAP2 PUSH1 0x20 ADD SWAP2 PUSH2 0x791 JUMP JUMPDEST DUP3 ADD SWAP2 SWAP1 PUSH0 MSTORE PUSH1 0x20 PUSH0 KECCAK256 SWAP1 JUMPDEST DUP2 SLOAD DUP2 MSTORE SWAP1 PUSH1 0x1 ADD SWAP1 PUSH1 0x20 ADD DUP1 DUP4 GT PUSH2 0x774 JUMPI DUP3 SWAP1 SUB PUSH1 0x1F AND DUP3 ADD SWAP2 JUMPDEST POP POP POP POP POP SWAP1 DUP1 PUSH1 0x8 ADD PUSH0 SWAP1 SLOAD SWAP1 PUSH2 0x100 EXP SWAP1 DIV PUSH20 0xFFFFFFFFFFFFFFFFFFFFFFFFFFFFFFFFFFFFFFFF AND SWAP1 POP DUP10 JUMP JUMPDEST PUSH0 PUSH1 0x2 PUSH0 DUP1 SLOAD DUP2 MSTORE PUSH1 0x20 ADD SWAP1 DUP2 MSTORE PUSH1 0x20 ADD PUSH0 KECCAK256 SWAP1 POP DUP7 DUP2 PUSH0 ADD PUSH0 PUSH2 0x100 EXP DUP2 SLOAD DUP2 PUSH20 0xFFFFFFFFFFFFFFFFFFFFFFFFFFFFFFFFFFFFFFFF MUL NOT AND SWAP1 DUP4 PUSH20 0xFFFFFFFFFFFFFFFFFFFFFFFFFFFFFFFFFFFFFFFF AND MUL OR SWAP1 SSTORE POP DUP6 DUP2 PUSH1 0x1 ADD SWAP1 DUP2 PUSH2 0x827 SWAP2 SWAP1 PUSH2 0x18A7 JUMP JUMPDEST POP DUP5 DUP2 PUSH1 0x2 ADD SWAP1 DUP2 PUSH2 0x839 SWAP2 SWAP1 PUSH2 0x18A7 JUMP JUMPDEST POP DUP4 DUP2 PUSH1 0x3 ADD DUP2 SWAP1 SSTORE POP DUP3 DUP2 PUSH1 0x4 ADD SWAP1 DUP2 PUSH2 0x854 SWAP2 SWAP1 PUSH2 0x18A7 JUMP JUMPDEST POP DUP2 DUP2 PUSH1 0x5 ADD DUP2 SWAP1 SSTORE POP PUSH0 DUP2 PUSH1 0x6 ADD PUSH0 PUSH2 0x100 EXP DUP2 SLOAD DUP2 PUSH1 0xFF MUL NOT AND SWAP1 DUP4 ISZERO ISZERO MUL OR SWAP1 SSTORE POP PUSH1 0x40 MLOAD DUP1 PUSH1 0x20 ADD PUSH1 0x40 MSTORE DUP1 PUSH0 DUP2 MSTORE POP DUP2 PUSH1 0x7 ADD SWAP1 DUP2 PUSH2 0x898 SWAP2 SWAP1 PUSH2 0x18A7 JUMP JUMPDEST POP DUP7 DUP2 PUSH1 0x8 ADD PUSH0 PUSH2 0x100 EXP DUP2 SLOAD DUP2 PUSH20 0xFFFFFFFFFFFFFFFFFFFFFFFFFFFFFFFFFFFFFFFF MUL NOT AND SWAP1 DUP4 PUSH20 0xFFFFFFFFFFFFFFFFFFFFFFFFFFFFFFFFFFFFFFFF AND MUL OR SWAP1 SSTORE POP PUSH0 DUP1 DUP2 SLOAD DUP1 SWAP3 SWAP2 SWAP1 PUSH2 0x8EC SWAP1 PUSH2 0x19A3 JUMP JUMPDEST SWAP2 SWAP1 POP SSTORE POP PUSH32 0x44D62DE96131F2CACC99C1E9F98C05F0377CDEEFB592F923D313AF3058D22FDD DUP8 DUP6 PUSH0 SLOAD PUSH1 0x40 MLOAD PUSH2 0x925 SWAP4 SWAP3 SWAP2 SWAP1 PUSH2 0x19EA JUMP JUMPDEST PUSH1 0x40 MLOAD DUP1 SWAP2 SUB SWAP1 LOG1 POP POP POP POP POP POP POP JUMP JUMPDEST PUSH1 0x3 PUSH1 0x20 MSTORE DUP1 PUSH0 MSTORE PUSH1 0x40 PUSH0 KECCAK256 PUSH0 SWAP2 POP SWAP1 POP DUP1 PUSH0 ADD SLOAD SWAP1 DUP1 PUSH1 0x1 ADD SLOAD SWAP1 DUP1 PUSH1 0x2 ADD PUSH0 SWAP1 SLOAD SWAP1 PUSH2 0x100 EXP SWAP1 DIV PUSH20 0xFFFFFFFFFFFFFFFFFFFFFFFFFFFFFFFFFFFFFFFF AND SWAP1 DUP1 PUSH1 0x3 ADD PUSH0 SWAP1 SLOAD SWAP1 PUSH2 0x100 EXP SWAP1 DIV PUSH20 0xFFFFFFFFFFFFFFFFFFFFFFFFFFFFFFFFFFFFFFFF AND SWAP1 DUP1 PUSH1 0x4 ADD SLOAD SWAP1 DUP1 PUSH1 0x5 ADD SLOAD SWAP1 DUP1 PUSH1 0x6 ADD SLOAD SWAP1 DUP1 PUSH1 0x7 ADD SLOAD SWAP1 DUP1 PUSH1 0x8 ADD DUP1 SLOAD PUSH2 0x9C3 SWAP1 PUSH2 0x16AD JUMP JUMPDEST DUP1 PUSH1 0x1F ADD PUSH1 0x20 DUP1 SWAP2 DIV MUL PUSH1 0x20 ADD PUSH1 0x40 MLOAD SWAP1 DUP2 ADD PUSH1 0x40 MSTORE DUP1 SWAP3 SWAP2 SWAP1 DUP2 DUP2 MSTORE PUSH1 0x20 ADD DUP3 DUP1 SLOAD PUSH2 0x9EF SWAP1 PUSH2 0x16AD JUMP JUMPDEST DUP1 ISZERO PUSH2 0xA3A JUMPI DUP1 PUSH1 0x1F LT PUSH2 0xA11 JUMPI PUSH2 0x100 DUP1 DUP4 SLOAD DIV MUL DUP4 MSTORE SWAP2 PUSH1 0x20 ADD SWAP2 PUSH2 0xA3A JUMP JUMPDEST DUP3 ADD SWAP2 SWAP1 PUSH0 MSTORE PUSH1 0x20 PUSH0 KECCAK256 SWAP1 JUMPDEST DUP2 SLOAD DUP2 MSTORE SWAP1 PUSH1 0x1 ADD SWAP1 PUSH1 0x20 ADD DUP1 DUP4 GT PUSH2 0xA1D JUMPI DUP3 SWAP1 SUB PUSH1 0x1F AND DUP3 ADD SWAP2 JUMPDEST POP POP POP POP POP SWAP1 DUP1 PUSH1 0x9 ADD PUSH0 SWAP1 SLOAD SWAP1 PUSH2 0x100 EXP SWAP1 DIV PUSH1 0xFF AND SWAP1 POP DUP11 JUMP JUMPDEST PUSH0 PUSH1 0x2 PUSH0 DUP4 DUP2 MSTORE PUSH1 0x20 ADD SWAP1 DUP2 MSTORE PUSH1 0x20 ADD PUSH0 KECCAK256 SWAP1 POP PUSH0 DUP2 PUSH1 0x5 ADD SLOAD GT PUSH2 0xAB0 JUMPI PUSH1 0x40 MLOAD PUSH32 0x8C379A000000000000000000000000000000000000000000000000000000000 DUP2 MSTORE PUSH1 0x4 ADD PUSH2 0xAA7 SWAP1 PUSH2 0x1A69 JUMP JUMPDEST PUSH1 0x40 MLOAD DUP1 SWAP2 SUB SWAP1 REVERT JUMPDEST DUP1 PUSH0 ADD PUSH0 SWAP1 SLOAD SWAP1 PUSH2 0x100 EXP SWAP1 DIV PUSH20 0xFFFFFFFFFFFFFFFFFFFFFFFFFFFFFFFFFFFFFFFF AND PUSH20 0xFFFFFFFFFFFFFFFFFFFFFFFFFFFFFFFFFFFFFFFF AND CALLER PUSH20 0xFFFFFFFFFFFFFFFFFFFFFFFFFFFFFFFFFFFFFFFF AND SUB PUSH2 0xB40 JUMPI PUSH1 0x40 MLOAD PUSH32 0x8C379A000000000000000000000000000000000000000000000000000000000 DUP2 MSTORE PUSH1 0x4 ADD PUSH2 0xB37 SWAP1 PUSH2 0x1AF7 JUMP JUMPDEST PUSH1 0x40 MLOAD DUP1 SWAP2 SUB SWAP1 REVERT JUMPDEST PUSH0 DUP2 PUSH1 0x3 ADD SLOAD SWAP1 POP DUP1 CALLVALUE EQ PUSH2 0xB8A JUMPI PUSH1 0x40 MLOAD PUSH32 0x8C379A000000000000000000000000000000000000000000000000000000000 DUP2 MSTORE PUSH1 0x4 ADD PUSH2 0xB81 SWAP1 PUSH2 0x1B5F JUMP JUMPDEST PUSH1 0x40 MLOAD DUP1 SWAP2 SUB SWAP1 REVERT JUMPDEST PUSH0 DUP3 PUSH0 ADD PUSH0 SWAP1 SLOAD SWAP1 PUSH2 0x100 EXP SWAP1 DIV PUSH20 0xFFFFFFFFFFFFFFFFFFFFFFFFFFFFFFFFFFFFFFFF AND PUSH20 0xFFFFFFFFFFFFFFFFFFFFFFFFFFFFFFFFFFFFFFFF AND DUP3 PUSH1 0x40 MLOAD PUSH2 0xBD1 SWAP1 PUSH2 0x1BAA JUMP JUMPDEST PUSH0 PUSH1 0x40 MLOAD DUP1 DUP4 SUB DUP2 DUP6 DUP8 GAS CALL SWAP3 POP POP POP RETURNDATASIZE DUP1 PUSH0 DUP2 EQ PUSH2 0xC0B JUMPI PUSH1 0x40 MLOAD SWAP2 POP PUSH1 0x1F NOT PUSH1 0x3F RETURNDATASIZE ADD AND DUP3 ADD PUSH1 0x40 MSTORE RETURNDATASIZE DUP3 MSTORE RETURNDATASIZE PUSH0 PUSH1 0x20 DUP5 ADD RETURNDATACOPY PUSH2 0xC10 JUMP JUMPDEST PUSH1 0x60 SWAP2 POP JUMPDEST POP POP SWAP1 POP DUP1 PUSH2 0xC54 JUMPI PUSH1 0x40 MLOAD PUSH32 0x8C379A000000000000000000000000000000000000000000000000000000000 DUP2 MSTORE PUSH1 0x4 ADD PUSH2 0xC4B SWAP1 PUSH2 0x1C08 JUMP JUMPDEST PUSH1 0x40 MLOAD DUP1 SWAP2 SUB SWAP1 REVERT JUMPDEST DUP3 PUSH1 0x5 ADD PUSH0 DUP2 SLOAD DUP1 SWAP3 SWAP2 SWAP1 PUSH2 0xC68 SWAP1 PUSH2 0x1C26 JUMP JUMPDEST SWAP2 SWAP1 POP SSTORE POP PUSH1 0x40 MLOAD DUP1 PUSH2 0x140 ADD PUSH1 0x40 MSTORE DUP1 PUSH1 0x1 SLOAD DUP2 MSTORE PUSH1 0x20 ADD DUP6 DUP2 MSTORE PUSH1 0x20 ADD CALLER PUSH20 0xFFFFFFFFFFFFFFFFFFFFFFFFFFFFFFFFFFFFFFFF AND DUP2 MSTORE PUSH1 0x20 ADD DUP5 PUSH0 ADD PUSH0 SWAP1 SLOAD SWAP1 PUSH2 0x100 EXP SWAP1 DIV PUSH20 0xFFFFFFFFFFFFFFFFFFFFFFFFFFFFFFFFFFFFFFFF AND PUSH20 0xFFFFFFFFFFFFFFFFFFFFFFFFFFFFFFFFFFFFFFFF AND DUP2 MSTORE PUSH1 0x20 ADD DUP4 DUP2 MSTORE PUSH1 0x20 ADD DUP5 PUSH1 0x3 ADD SLOAD DUP2 MSTORE PUSH1 0x20 ADD DUP4 DUP2 MSTORE PUSH1 0x20 ADD DUP4 DUP6 PUSH1 0x3 ADD SLOAD PUSH2 0xD07 SWAP2 SWAP1 PUSH2 0x1C4D JUMP JUMPDEST DUP2 MSTORE PUSH1 0x20 ADD PUSH1 0x40 MLOAD DUP1 PUSH1 0x40 ADD PUSH1 0x40 MSTORE DUP1 PUSH1 0xC DUP2 MSTORE PUSH1 0x20 ADD PUSH32 0x696E2077617265686F7573650000000000000000000000000000000000000000 DUP2 MSTORE POP DUP2 MSTORE PUSH1 0x20 ADD PUSH0 ISZERO ISZERO DUP2 MSTORE POP PUSH1 0x3 PUSH0 PUSH1 0x1 SLOAD DUP2 MSTORE PUSH1 0x20 ADD SWAP1 DUP2 MSTORE PUSH1 0x20 ADD PUSH0 KECCAK256 PUSH0 DUP3 ADD MLOAD DUP2 PUSH0 ADD SSTORE PUSH1 0x20 DUP3 ADD MLOAD DUP2 PUSH1 0x1 ADD SSTORE PUSH1 0x40 DUP3 ADD MLOAD DUP2 PUSH1 0x2 ADD PUSH0 PUSH2 0x100 EXP DUP2 SLOAD DUP2 PUSH20 0xFFFFFFFFFFFFFFFFFFFFFFFFFFFFFFFFFFFFFFFF MUL NOT AND SWAP1 DUP4 PUSH20 0xFFFFFFFFFFFFFFFFFFFFFFFFFFFFFFFFFFFFFFFF AND MUL OR SWAP1 SSTORE POP PUSH1 0x60 DUP3 ADD MLOAD DUP2 PUSH1 0x3 ADD PUSH0 PUSH2 0x100 EXP DUP2 SLOAD DUP2 PUSH20 0xFFFFFFFFFFFFFFFFFFFFFFFFFFFFFFFFFFFFFFFF MUL NOT AND SWAP1 DUP4 PUSH20 0xFFFFFFFFFFFFFFFFFFFFFFFFFFFFFFFFFFFFFFFF AND MUL OR SWAP1 SSTORE POP PUSH1 0x80 DUP3 ADD MLOAD DUP2 PUSH1 0x4 ADD SSTORE PUSH1 0xA0 DUP3 ADD MLOAD DUP2 PUSH1 0x5 ADD SSTORE PUSH1 0xC0 DUP3 ADD MLOAD DUP2 PUSH1 0x6 ADD SSTORE PUSH1 0xE0 DUP3 ADD MLOAD DUP2 PUSH1 0x7 ADD SSTORE PUSH2 0x100 DUP3 ADD MLOAD DUP2 PUSH1 0x8 ADD SWAP1 DUP2 PUSH2 0xE3C SWAP2 SWAP1 PUSH2 0x18A7 JUMP JUMPDEST POP PUSH2 0x120 DUP3 ADD MLOAD DUP2 PUSH1 0x9 ADD PUSH0 PUSH2 0x100 EXP DUP2 SLOAD DUP2 PUSH1 0xFF MUL NOT AND SWAP1 DUP4 ISZERO ISZERO MUL OR SWAP1 SSTORE POP SWAP1 POP POP PUSH1 0x1 PUSH0 DUP2 SLOAD DUP1 SWAP3 SWAP2 SWAP1 PUSH2 0xE72 SWAP1 PUSH2 0x19A3 JUMP JUMPDEST SWAP2 SWAP1 POP SSTORE POP DUP3 PUSH0 ADD PUSH0 SWAP1 SLOAD SWAP1 PUSH2 0x100 EXP SWAP1 DIV PUSH20 0xFFFFFFFFFFFFFFFFFFFFFFFFFFFFFFFFFFFFFFFF AND PUSH20 0xFFFFFFFFFFFFFFFFFFFFFFFFFFFFFFFFFFFFFFFF AND CALLER PUSH20 0xFFFFFFFFFFFFFFFFFFFFFFFFFFFFFFFFFFFFFFFF AND PUSH32 0x465C604F8DCF4D2DBA83E76F95C4CB5876F0976EC008A9326B6D4B209142BB45 DUP7 DUP6 CALLVALUE PUSH1 0x40 MLOAD PUSH2 0xEFA SWAP4 SWAP3 SWAP2 SWAP1 PUSH2 0x1C80 JUMP JUMPDEST PUSH1 0x40 MLOAD DUP1 SWAP2 SUB SWAP1 LOG3 POP POP POP POP JUMP JUMPDEST PUSH1 0x40 MLOAD DUP1 PUSH2 0x120 ADD PUSH1 0x40 MSTORE DUP1 PUSH0 PUSH20 0xFFFFFFFFFFFFFFFFFFFFFFFFFFFFFFFFFFFFFFFF AND DUP2 MSTORE PUSH1 0x20 ADD PUSH1 0x60 DUP2 MSTORE PUSH1 0x20 ADD PUSH1 0x60 DUP2 MSTORE PUSH1 0x20 ADD PUSH0 DUP2 MSTORE PUSH1 0x20 ADD PUSH1 0x60 DUP2 MSTORE PUSH1 0x20 ADD PUSH0 DUP2 MSTORE PUSH1 0x20 ADD PUSH0 ISZERO ISZERO DUP2 MSTORE PUSH1 0x20 ADD PUSH1 0x60 DUP2 MSTORE PUSH1 0x20 ADD PUSH0 PUSH20 0xFFFFFFFFFFFFFFFFFFFFFFFFFFFFFFFFFFFFFFFF AND DUP2 MSTORE POP SWAP1 JUMP JUMPDEST PUSH0 DUP2 MLOAD SWAP1 POP SWAP2 SWAP1 POP JUMP JUMPDEST PUSH0 DUP3 DUP3 MSTORE PUSH1 0x20 DUP3 ADD SWAP1 POP SWAP3 SWAP2 POP POP JUMP JUMPDEST PUSH0 DUP2 SWAP1 POP PUSH1 0x20 DUP3 ADD SWAP1 POP SWAP2 SWAP1 POP JUMP JUMPDEST PUSH0 PUSH20 0xFFFFFFFFFFFFFFFFFFFFFFFFFFFFFFFFFFFFFFFF DUP3 AND SWAP1 POP SWAP2 SWAP1 POP JUMP JUMPDEST PUSH0 PUSH2 0xFCF DUP3 PUSH2 0xFA6 JUMP JUMPDEST SWAP1 POP SWAP2 SWAP1 POP JUMP JUMPDEST PUSH2 0xFDF DUP2 PUSH2 0xFC5 JUMP JUMPDEST DUP3 MSTORE POP POP JUMP JUMPDEST PUSH0 DUP2 MLOAD SWAP1 POP SWAP2 SWAP1 POP JUMP JUMPDEST PUSH0 DUP3 DUP3 MSTORE PUSH1 0x20 DUP3 ADD SWAP1 POP SWAP3 SWAP2 POP POP JUMP JUMPDEST PUSH0 JUMPDEST DUP4 DUP2 LT ISZERO PUSH2 0x101C JUMPI DUP1 DUP3 ADD MLOAD DUP2 DUP5 ADD MSTORE PUSH1 0x20 DUP2 ADD SWAP1 POP PUSH2 0x1001 JUMP JUMPDEST PUSH0 DUP5 DUP5 ADD MSTORE POP POP POP POP JUMP JUMPDEST PUSH0 PUSH1 0x1F NOT PUSH1 0x1F DUP4 ADD AND SWAP1 POP SWAP2 SWAP1 POP JUMP JUMPDEST PUSH0 PUSH2 0x1041 DUP3 PUSH2 0xFE5 JUMP JUMPDEST PUSH2 0x104B DUP2 DUP6 PUSH2 0xFEF JUMP JUMPDEST SWAP4 POP PUSH2 0x105B DUP2 DUP6 PUSH1 0x20 DUP7 ADD PUSH2 0xFFF JUMP JUMPDEST PUSH2 0x1064 DUP2 PUSH2 0x1027 JUMP JUMPDEST DUP5 ADD SWAP2 POP POP SWAP3 SWAP2 POP POP JUMP JUMPDEST PUSH0 DUP2 SWAP1 POP SWAP2 SWAP1 POP JUMP JUMPDEST PUSH2 0x1081 DUP2 PUSH2 0x106F JUMP JUMPDEST DUP3 MSTORE POP POP JUMP JUMPDEST PUSH0 DUP2 ISZERO ISZERO SWAP1 POP SWAP2 SWAP1 POP JUMP JUMPDEST PUSH2 0x109B DUP2 PUSH2 0x1087 JUMP JUMPDEST DUP3 MSTORE POP POP JUMP JUMPDEST PUSH0 PUSH2 0x120 DUP4 ADD PUSH0 DUP4 ADD MLOAD PUSH2 0x10B7 PUSH0 DUP7 ADD DUP3 PUSH2 0xFD6 JUMP JUMPDEST POP PUSH1 0x20 DUP4 ADD MLOAD DUP5 DUP3 SUB PUSH1 0x20 DUP7 ADD MSTORE PUSH2 0x10CF DUP3 DUP3 PUSH2 0x1037 JUMP JUMPDEST SWAP2 POP POP PUSH1 0x40 DUP4 ADD MLOAD DUP5 DUP3 SUB PUSH1 0x40 DUP7 ADD MSTORE PUSH2 0x10E9 DUP3 DUP3 PUSH2 0x1037 JUMP JUMPDEST SWAP2 POP POP PUSH1 0x60 DUP4 ADD MLOAD PUSH2 0x10FE PUSH1 0x60 DUP7 ADD DUP3 PUSH2 0x1078 JUMP JUMPDEST POP PUSH1 0x80 DUP4 ADD MLOAD DUP5 DUP3 SUB PUSH1 0x80 DUP7 ADD MSTORE PUSH2 0x1116 DUP3 DUP3 PUSH2 0x1037 JUMP JUMPDEST SWAP2 POP POP PUSH1 0xA0 DUP4 ADD MLOAD PUSH2 0x112B PUSH1 0xA0 DUP7 ADD DUP3 PUSH2 0x1078 JUMP JUMPDEST POP PUSH1 0xC0 DUP4 ADD MLOAD PUSH2 0x113E PUSH1 0xC0 DUP7 ADD DUP3 PUSH2 0x1092 JUMP JUMPDEST POP PUSH1 0xE0 DUP4 ADD MLOAD DUP5 DUP3 SUB PUSH1 0xE0 DUP7 ADD MSTORE PUSH2 0x1156 DUP3 DUP3 PUSH2 0x1037 JUMP JUMPDEST SWAP2 POP POP PUSH2 0x100 DUP4 ADD MLOAD PUSH2 0x116D PUSH2 0x100 DUP7 ADD DUP3 PUSH2 0xFD6 JUMP JUMPDEST POP DUP1 SWAP2 POP POP SWAP3 SWAP2 POP POP JUMP JUMPDEST PUSH0 PUSH2 0x1183 DUP4 DUP4 PUSH2 0x10A1 JUMP JUMPDEST SWAP1 POP SWAP3 SWAP2 POP POP JUMP JUMPDEST PUSH0 PUSH1 0x20 DUP3 ADD SWAP1 POP SWAP2 SWAP1 POP JUMP JUMPDEST PUSH0 PUSH2 0x11A1 DUP3 PUSH2 0xF7D JUMP JUMPDEST PUSH2 0x11AB DUP2 DUP6 PUSH2 0xF87 JUMP JUMPDEST SWAP4 POP DUP4 PUSH1 0x20 DUP3 MUL DUP6 ADD PUSH2 0x11BD DUP6 PUSH2 0xF97 JUMP JUMPDEST DUP1 PUSH0 JUMPDEST DUP6 DUP2 LT ISZERO PUSH2 0x11F8 JUMPI DUP5 DUP5 SUB DUP10 MSTORE DUP2 MLOAD PUSH2 0x11D9 DUP6 DUP3 PUSH2 0x1178 JUMP JUMPDEST SWAP5 POP PUSH2 0x11E4 DUP4 PUSH2 0x118B JUMP JUMPDEST SWAP3 POP PUSH1 0x20 DUP11 ADD SWAP10 POP POP PUSH1 0x1 DUP2 ADD SWAP1 POP PUSH2 0x11C0 JUMP JUMPDEST POP DUP3 SWAP8 POP DUP8 SWAP6 POP POP POP POP POP POP SWAP3 SWAP2 POP POP JUMP JUMPDEST PUSH0 PUSH1 0x20 DUP3 ADD SWAP1 POP DUP2 DUP2 SUB PUSH0 DUP4 ADD MSTORE PUSH2 0x1222 DUP2 DUP5 PUSH2 0x1197 JUMP JUMPDEST SWAP1 POP SWAP3 SWAP2 POP POP JUMP JUMPDEST PUSH0 PUSH1 0x40 MLOAD SWAP1 POP SWAP1 JUMP JUMPDEST PUSH0 DUP1 REVERT JUMPDEST PUSH0 DUP1 REVERT JUMPDEST PUSH2 0x1244 DUP2 PUSH2 0x106F JUMP JUMPDEST DUP2 EQ PUSH2 0x124E JUMPI PUSH0 DUP1 REVERT JUMPDEST POP JUMP JUMPDEST PUSH0 DUP2 CALLDATALOAD SWAP1 POP PUSH2 0x125F DUP2 PUSH2 0x123B JUMP JUMPDEST SWAP3 SWAP2 POP POP JUMP JUMPDEST PUSH0 PUSH1 0x20 DUP3 DUP5 SUB SLT ISZERO PUSH2 0x127A JUMPI PUSH2 0x1279 PUSH2 0x1233 JUMP JUMPDEST JUMPDEST PUSH0 PUSH2 0x1287 DUP5 DUP3 DUP6 ADD PUSH2 0x1251 JUMP JUMPDEST SWAP2 POP POP SWAP3 SWAP2 POP POP JUMP JUMPDEST PUSH2 0x1299 DUP2 PUSH2 0xFC5 JUMP JUMPDEST DUP3 MSTORE POP POP JUMP JUMPDEST PUSH0 DUP3 DUP3 MSTORE PUSH1 0x20 DUP3 ADD SWAP1 POP SWAP3 SWAP2 POP POP JUMP JUMPDEST PUSH0 PUSH2 0x12B9 DUP3 PUSH2 0xFE5 JUMP JUMPDEST PUSH2 0x12C3 DUP2 DUP6 PUSH2 0x129F JUMP JUMPDEST SWAP4 POP PUSH2 0x12D3 DUP2 DUP6 PUSH1 0x20 DUP7 ADD PUSH2 0xFFF JUMP JUMPDEST PUSH2 0x12DC DUP2 PUSH2 0x1027 JUMP JUMPDEST DUP5 ADD SWAP2 POP POP SWAP3 SWAP2 POP POP JUMP JUMPDEST PUSH2 0x12F0 DUP2 PUSH2 0x106F JUMP JUMPDEST DUP3 MSTORE POP POP JUMP JUMPDEST PUSH2 0x12FF DUP2 PUSH2 0x1087 JUMP JUMPDEST DUP3 MSTORE POP POP JUMP JUMPDEST PUSH0 PUSH2 0x120 DUP3 ADD SWAP1 POP PUSH2 0x1319 PUSH0 DUP4 ADD DUP13 PUSH2 0x1290 JUMP JUMPDEST DUP2 DUP2 SUB PUSH1 0x20 DUP4 ADD MSTORE PUSH2 0x132B DUP2 DUP12 PUSH2 0x12AF JUMP JUMPDEST SWAP1 POP DUP2 DUP2 SUB PUSH1 0x40 DUP4 ADD MSTORE PUSH2 0x133F DUP2 DUP11 PUSH2 0x12AF JUMP JUMPDEST SWAP1 POP PUSH2 0x134E PUSH1 0x60 DUP4 ADD DUP10 PUSH2 0x12E7 JUMP JUMPDEST DUP2 DUP2 SUB PUSH1 0x80 DUP4 ADD MSTORE PUSH2 0x1360 DUP2 DUP9 PUSH2 0x12AF JUMP JUMPDEST SWAP1 POP PUSH2 0x136F PUSH1 0xA0 DUP4 ADD DUP8 PUSH2 0x12E7 JUMP JUMPDEST PUSH2 0x137C PUSH1 0xC0 DUP4 ADD DUP7 PUSH2 0x12F6 JUMP JUMPDEST DUP2 DUP2 SUB PUSH1 0xE0 DUP4 ADD MSTORE PUSH2 0x138E DUP2 DUP6 PUSH2 0x12AF JUMP JUMPDEST SWAP1 POP PUSH2 0x139E PUSH2 0x100 DUP4 ADD DUP5 PUSH2 0x1290 JUMP JUMPDEST SWAP11 SWAP10 POP POP POP POP POP POP POP POP POP POP JUMP JUMPDEST PUSH2 0x13B5 DUP2 PUSH2 0xFC5 JUMP JUMPDEST DUP2 EQ PUSH2 0x13BF JUMPI PUSH0 DUP1 REVERT JUMPDEST POP JUMP JUMPDEST PUSH0 DUP2 CALLDATALOAD SWAP1 POP PUSH2 0x13D0 DUP2 PUSH2 0x13AC JUMP JUMPDEST SWAP3 SWAP2 POP POP JUMP JUMPDEST PUSH0 DUP1 REVERT JUMPDEST PUSH0 DUP1 REVERT JUMPDEST PUSH32 0x4E487B7100000000000000000000000000000000000000000000000000000000 PUSH0 MSTORE PUSH1 0x41 PUSH1 0x4 MSTORE PUSH1 0x24 PUSH0 REVERT JUMPDEST PUSH2 0x1414 DUP3 PUSH2 0x1027 JUMP JUMPDEST DUP2 ADD DUP2 DUP2 LT PUSH8 0xFFFFFFFFFFFFFFFF DUP3 GT OR ISZERO PUSH2 0x1433 JUMPI PUSH2 0x1432 PUSH2 0x13DE JUMP JUMPDEST JUMPDEST DUP1 PUSH1 0x40 MSTORE POP POP POP JUMP JUMPDEST PUSH0 PUSH2 0x1445 PUSH2 0x122A JUMP JUMPDEST SWAP1 POP PUSH2 0x1451 DUP3 DUP3 PUSH2 0x140B JUMP JUMPDEST SWAP2 SWAP1 POP JUMP JUMPDEST PUSH0 PUSH8 0xFFFFFFFFFFFFFFFF DUP3 GT ISZERO PUSH2 0x1470 JUMPI PUSH2 0x146F PUSH2 0x13DE JUMP JUMPDEST JUMPDEST PUSH2 0x1479 DUP3 PUSH2 0x1027 JUMP JUMPDEST SWAP1 POP PUSH1 0x20 DUP2 ADD SWAP1 POP SWAP2 SWAP1 POP JUMP JUMPDEST DUP3 DUP2 DUP4 CALLDATACOPY PUSH0 DUP4 DUP4 ADD MSTORE POP POP POP JUMP JUMPDEST PUSH0 PUSH2 0x14A6 PUSH2 0x14A1 DUP5 PUSH2 0x1456 JUMP JUMPDEST PUSH2 0x143C JUMP JUMPDEST SWAP1 POP DUP3 DUP2 MSTORE PUSH1 0x20 DUP2 ADD DUP5 DUP5 DUP5 ADD GT ISZERO PUSH2 0x14C2 JUMPI PUSH2 0x14C1 PUSH2 0x13DA JUMP JUMPDEST JUMPDEST PUSH2 0x14CD DUP5 DUP3 DUP6 PUSH2 0x1486 JUMP JUMPDEST POP SWAP4 SWAP3 POP POP POP JUMP JUMPDEST PUSH0 DUP3 PUSH1 0x1F DUP4 ADD SLT PUSH2 0x14E9 JUMPI PUSH2 0x14E8 PUSH2 0x13D6 JUMP JUMPDEST JUMPDEST DUP2 CALLDATALOAD PUSH2 0x14F9 DUP5 DUP3 PUSH1 0x20 DUP7 ADD PUSH2 0x1494 JUMP JUMPDEST SWAP2 POP POP SWAP3 SWAP2 POP POP JUMP JUMPDEST PUSH0 DUP1 PUSH0 DUP1 PUSH0 DUP1 PUSH1 0xC0 DUP8 DUP10 SUB SLT ISZERO PUSH2 0x151C JUMPI PUSH2 0x151B PUSH2 0x1233 JUMP JUMPDEST JUMPDEST PUSH0 PUSH2 0x1529 DUP10 DUP3 DUP11 ADD PUSH2 0x13C2 JUMP JUMPDEST SWAP7 POP POP PUSH1 0x20 DUP8 ADD CALLDATALOAD PUSH8 0xFFFFFFFFFFFFFFFF DUP2 GT ISZERO PUSH2 0x154A JUMPI PUSH2 0x1549 PUSH2 0x1237 JUMP JUMPDEST JUMPDEST PUSH2 0x1556 DUP10 DUP3 DUP11 ADD PUSH2 0x14D5 JUMP JUMPDEST SWAP6 POP POP PUSH1 0x40 DUP8 ADD CALLDATALOAD PUSH8 0xFFFFFFFFFFFFFFFF DUP2 GT ISZERO PUSH2 0x1577 JUMPI PUSH2 0x1576 PUSH2 0x1237 JUMP JUMPDEST JUMPDEST PUSH2 0x1583 DUP10 DUP3 DUP11 ADD PUSH2 0x14D5 JUMP JUMPDEST SWAP5 POP POP PUSH1 0x60 PUSH2 0x1594 DUP10 DUP3 DUP11 ADD PUSH2 0x1251 JUMP JUMPDEST SWAP4 POP POP PUSH1 0x80 DUP8 ADD CALLDATALOAD PUSH8 0xFFFFFFFFFFFFFFFF DUP2 GT ISZERO PUSH2 0x15B5 JUMPI PUSH2 0x15B4 PUSH2 0x1237 JUMP JUMPDEST JUMPDEST PUSH2 0x15C1 DUP10 DUP3 DUP11 ADD PUSH2 0x14D5 JUMP JUMPDEST SWAP3 POP POP PUSH1 0xA0 PUSH2 0x15D2 DUP10 DUP3 DUP11 ADD PUSH2 0x1251 JUMP JUMPDEST SWAP2 POP POP SWAP3 SWAP6 POP SWAP3 SWAP6 POP SWAP3 SWAP6 JUMP JUMPDEST PUSH0 PUSH2 0x140 DUP3 ADD SWAP1 POP PUSH2 0x15F3 PUSH0 DUP4 ADD DUP14 PUSH2 0x12E7 JUMP JUMPDEST PUSH2 0x1600 PUSH1 0x20 DUP4 ADD DUP13 PUSH2 0x12E7 JUMP JUMPDEST PUSH2 0x160D PUSH1 0x40 DUP4 ADD DUP12 PUSH2 0x1290 JUMP JUMPDEST PUSH2 0x161A PUSH1 0x60 DUP4 ADD DUP11 PUSH2 0x1290 JUMP JUMPDEST PUSH2 0x1627 PUSH1 0x80 DUP4 ADD DUP10 PUSH2 0x12E7 JUMP JUMPDEST PUSH2 0x1634 PUSH1 0xA0 DUP4 ADD DUP9 PUSH2 0x12E7 JUMP JUMPDEST PUSH2 0x1641 PUSH1 0xC0 DUP4 ADD DUP8 PUSH2 0x12E7 JUMP JUMPDEST PUSH2 0x164E PUSH1 0xE0 DUP4 ADD DUP7 PUSH2 0x12E7 JUMP JUMPDEST DUP2 DUP2 SUB PUSH2 0x100 DUP4 ADD MSTORE PUSH2 0x1661 DUP2 DUP6 PUSH2 0x12AF JUMP JUMPDEST SWAP1 POP PUSH2 0x1671 PUSH2 0x120 DUP4 ADD DUP5 PUSH2 0x12F6 JUMP JUMPDEST SWAP12 SWAP11 POP POP POP POP POP POP POP POP POP POP POP JUMP JUMPDEST PUSH32 0x4E487B7100000000000000000000000000000000000000000000000000000000 PUSH0 MSTORE PUSH1 0x22 PUSH1 0x4 MSTORE PUSH1 0x24 PUSH0 REVERT JUMPDEST PUSH0 PUSH1 0x2 DUP3 DIV SWAP1 POP PUSH1 0x1 DUP3 AND DUP1 PUSH2 0x16C4 JUMPI PUSH1 0x7F DUP3 AND SWAP2 POP JUMPDEST PUSH1 0x20 DUP3 LT DUP2 SUB PUSH2 0x16D7 JUMPI PUSH2 0x16D6 PUSH2 0x1680 JUMP JUMPDEST JUMPDEST POP SWAP2 SWAP1 POP JUMP JUMPDEST PUSH32 0x4E487B7100000000000000000000000000000000000000000000000000000000 PUSH0 MSTORE PUSH1 0x32 PUSH1 0x4 MSTORE PUSH1 0x24 PUSH0 REVERT JUMPDEST PUSH0 DUP2 SWAP1 POP DUP2 PUSH0 MSTORE PUSH1 0x20 PUSH0 KECCAK256 SWAP1 POP SWAP2 SWAP1 POP JUMP JUMPDEST PUSH0 PUSH1 0x20 PUSH1 0x1F DUP4 ADD DIV SWAP1 POP SWAP2 SWAP1 POP JUMP JUMPDEST PUSH0 DUP3 DUP3 SHL SWAP1 POP SWAP3 SWAP2 POP POP JUMP JUMPDEST PUSH0 PUSH1 0x8 DUP4 MUL PUSH2 0x1766 PUSH32 0xFFFFFFFFFFFFFFFFFFFFFFFFFFFFFFFFFFFFFFFFFFFFFFFFFFFFFFFFFFFFFFFF DUP3 PUSH2 0x172B JUMP JUMPDEST PUSH2 0x1770 DUP7 DUP4 PUSH2 0x172B JUMP JUMPDEST SWAP6 POP DUP1 NOT DUP5 AND SWAP4 POP DUP1 DUP7 AND DUP5 OR SWAP3 POP POP POP SWAP4 SWAP3 POP POP POP JUMP JUMPDEST PUSH0 DUP2 SWAP1 POP SWAP2 SWAP1 POP JUMP JUMPDEST PUSH0 PUSH2 0x17AB PUSH2 0x17A6 PUSH2 0x17A1 DUP5 PUSH2 0x106F JUMP JUMPDEST PUSH2 0x1788 JUMP JUMPDEST PUSH2 0x106F JUMP JUMPDEST SWAP1 POP SWAP2 SWAP1 POP JUMP JUMPDEST PUSH0 DUP2 SWAP1 POP SWAP2 SWAP1 POP JUMP JUMPDEST PUSH2 0x17C4 DUP4 PUSH2 0x1791 JUMP JUMPDEST PUSH2 0x17D8 PUSH2 0x17D0 DUP3 PUSH2 0x17B2 JUMP JUMPDEST DUP5 DUP5 SLOAD PUSH2 0x1737 JUMP JUMPDEST DUP3 SSTORE POP POP POP POP JUMP JUMPDEST PUSH0 SWAP1 JUMP JUMPDEST PUSH2 0x17EC PUSH2 0x17E0 JUMP JUMPDEST PUSH2 0x17F7 DUP2 DUP5 DUP5 PUSH2 0x17BB JUMP JUMPDEST POP POP POP JUMP JUMPDEST JUMPDEST DUP2 DUP2 LT ISZERO PUSH2 0x181A JUMPI PUSH2 0x180F PUSH0 DUP3 PUSH2 0x17E4 JUMP JUMPDEST PUSH1 0x1 DUP2 ADD SWAP1 POP PUSH2 0x17FD JUMP JUMPDEST POP POP JUMP JUMPDEST PUSH1 0x1F DUP3 GT ISZERO PUSH2 0x185F JUMPI PUSH2 0x1830 DUP2 PUSH2 0x170A JUMP JUMPDEST PUSH2 0x1839 DUP5 PUSH2 0x171C JUMP JUMPDEST DUP2 ADD PUSH1 0x20 DUP6 LT ISZERO PUSH2 0x1848 JUMPI DUP2 SWAP1 POP JUMPDEST PUSH2 0x185C PUSH2 0x1854 DUP6 PUSH2 0x171C JUMP JUMPDEST DUP4 ADD DUP3 PUSH2 0x17FC JUMP JUMPDEST POP POP JUMPDEST POP POP POP JUMP JUMPDEST PUSH0 DUP3 DUP3 SHR SWAP1 POP SWAP3 SWAP2 POP POP JUMP JUMPDEST PUSH0 PUSH2 0x187F PUSH0 NOT DUP5 PUSH1 0x8 MUL PUSH2 0x1864 JUMP JUMPDEST NOT DUP1 DUP4 AND SWAP2 POP POP SWAP3 SWAP2 POP POP JUMP JUMPDEST PUSH0 PUSH2 0x1897 DUP4 DUP4 PUSH2 0x1870 JUMP JUMPDEST SWAP2 POP DUP3 PUSH1 0x2 MUL DUP3 OR SWAP1 POP SWAP3 SWAP2 POP POP JUMP JUMPDEST PUSH2 0x18B0 DUP3 PUSH2 0xFE5 JUMP JUMPDEST PUSH8 0xFFFFFFFFFFFFFFFF DUP2 GT ISZERO PUSH2 0x18C9 JUMPI PUSH2 0x18C8 PUSH2 0x13DE JUMP JUMPDEST JUMPDEST PUSH2 0x18D3 DUP3 SLOAD PUSH2 0x16AD JUMP JUMPDEST PUSH2 0x18DE DUP3 DUP3 DUP6 PUSH2 0x181E JUMP JUMPDEST PUSH0 PUSH1 0x20 SWAP1 POP PUSH1 0x1F DUP4 GT PUSH1 0x1 DUP2 EQ PUSH2 0x190F JUMPI PUSH0 DUP5 ISZERO PUSH2 0x18FD JUMPI DUP3 DUP8 ADD MLOAD SWAP1 POP JUMPDEST PUSH2 0x1907 DUP6 DUP3 PUSH2 0x188C JUMP JUMPDEST DUP7 SSTORE POP PUSH2 0x196E JUMP JUMPDEST PUSH1 0x1F NOT DUP5 AND PUSH2 0x191D DUP7 PUSH2 0x170A JUMP JUMPDEST PUSH0 JUMPDEST DUP3 DUP2 LT ISZERO PUSH2 0x1944 JUMPI DUP5 DUP10 ADD MLOAD DUP3 SSTORE PUSH1 0x1 DUP3 ADD SWAP2 POP PUSH1 0x20 DUP6 ADD SWAP5 POP PUSH1 0x20 DUP2 ADD SWAP1 POP PUSH2 0x191F JUMP JUMPDEST DUP7 DUP4 LT ISZERO PUSH2 0x1961 JUMPI DUP5 DUP10 ADD MLOAD PUSH2 0x195D PUSH1 0x1F DUP10 AND DUP3 PUSH2 0x1870 JUMP JUMPDEST DUP4 SSTORE POP JUMPDEST PUSH1 0x1 PUSH1 0x2 DUP9 MUL ADD DUP9 SSTORE POP POP POP JUMPDEST POP POP POP POP POP POP JUMP JUMPDEST PUSH32 0x4E487B7100000000000000000000000000000000000000000000000000000000 PUSH0 MSTORE PUSH1 0x11 PUSH1 0x4 MSTORE PUSH1 0x24 PUSH0 REVERT JUMPDEST PUSH0 PUSH2 0x19AD DUP3 PUSH2 0x106F JUMP JUMPDEST SWAP2 POP PUSH32 0xFFFFFFFFFFFFFFFFFFFFFFFFFFFFFFFFFFFFFFFFFFFFFFFFFFFFFFFFFFFFFFFF DUP3 SUB PUSH2 0x19DF JUMPI PUSH2 0x19DE PUSH2 0x1976 JUMP JUMPDEST JUMPDEST PUSH1 0x1 DUP3 ADD SWAP1 POP SWAP2 SWAP1 POP JUMP JUMPDEST PUSH0 PUSH1 0x60 DUP3 ADD SWAP1 POP PUSH2 0x19FD PUSH0 DUP4 ADD DUP7 PUSH2 0x1290 JUMP JUMPDEST PUSH2 0x1A0A PUSH1 0x20 DUP4 ADD DUP6 PUSH2 0x12E7 JUMP JUMPDEST PUSH2 0x1A17 PUSH1 0x40 DUP4 ADD DUP5 PUSH2 0x12E7 JUMP JUMPDEST SWAP5 SWAP4 POP POP POP POP JUMP JUMPDEST PUSH32 0x417274776F726B206973206F7574206F662073746F636B000000000000000000 PUSH0 DUP3 ADD MSTORE POP JUMP JUMPDEST PUSH0 PUSH2 0x1A53 PUSH1 0x17 DUP4 PUSH2 0x129F JUMP JUMPDEST SWAP2 POP PUSH2 0x1A5E DUP3 PUSH2 0x1A1F JUMP JUMPDEST PUSH1 0x20 DUP3 ADD SWAP1 POP SWAP2 SWAP1 POP JUMP JUMPDEST PUSH0 PUSH1 0x20 DUP3 ADD SWAP1 POP DUP2 DUP2 SUB PUSH0 DUP4 ADD MSTORE PUSH2 0x1A80 DUP2 PUSH2 0x1A47 JUMP JUMPDEST SWAP1 POP SWAP2 SWAP1 POP JUMP JUMPDEST PUSH32 0x4F776E65722063616E6E6F7420627579207468656972206F776E20617274776F PUSH0 DUP3 ADD MSTORE PUSH32 0x726B000000000000000000000000000000000000000000000000000000000000 PUSH1 0x20 DUP3 ADD MSTORE POP JUMP JUMPDEST PUSH0 PUSH2 0x1AE1 PUSH1 0x22 DUP4 PUSH2 0x129F JUMP JUMPDEST SWAP2 POP PUSH2 0x1AEC DUP3 PUSH2 0x1A87 JUMP JUMPDEST PUSH1 0x40 DUP3 ADD SWAP1 POP SWAP2 SWAP1 POP JUMP JUMPDEST PUSH0 PUSH1 0x20 DUP3 ADD SWAP1 POP DUP2 DUP2 SUB PUSH0 DUP4 ADD MSTORE PUSH2 0x1B0E DUP2 PUSH2 0x1AD5 JUMP JUMPDEST SWAP1 POP SWAP2 SWAP1 POP JUMP JUMPDEST PUSH32 0x496E636F7272656374207061796D656E7420616D6F756E740000000000000000 PUSH0 DUP3 ADD MSTORE POP JUMP JUMPDEST PUSH0 PUSH2 0x1B49 PUSH1 0x18 DUP4 PUSH2 0x129F JUMP JUMPDEST SWAP2 POP PUSH2 0x1B54 DUP3 PUSH2 0x1B15 JUMP JUMPDEST PUSH1 0x20 DUP3 ADD SWAP1 POP SWAP2 SWAP1 POP JUMP JUMPDEST PUSH0 PUSH1 0x20 DUP3 ADD SWAP1 POP DUP2 DUP2 SUB PUSH0 DUP4 ADD MSTORE PUSH2 0x1B76 DUP2 PUSH2 0x1B3D JUMP JUMPDEST SWAP1 POP SWAP2 SWAP1 POP JUMP JUMPDEST PUSH0 DUP2 SWAP1 POP SWAP3 SWAP2 POP POP JUMP JUMPDEST POP JUMP JUMPDEST PUSH0 PUSH2 0x1B95 PUSH0 DUP4 PUSH2 0x1B7D JUMP JUMPDEST SWAP2 POP PUSH2 0x1BA0 DUP3 PUSH2 0x1B87 JUMP JUMPDEST PUSH0 DUP3 ADD SWAP1 POP SWAP2 SWAP1 POP JUMP JUMPDEST PUSH0 PUSH2 0x1BB4 DUP3 PUSH2 0x1B8A JUMP JUMPDEST SWAP2 POP DUP2 SWAP1 POP SWAP2 SWAP1 POP JUMP JUMPDEST PUSH32 0x5061796D656E74206661696C6564000000000000000000000000000000000000 PUSH0 DUP3 ADD MSTORE POP JUMP JUMPDEST PUSH0 PUSH2 0x1BF2 PUSH1 0xE DUP4 PUSH2 0x129F JUMP JUMPDEST SWAP2 POP PUSH2 0x1BFD DUP3 PUSH2 0x1BBE JUMP JUMPDEST PUSH1 0x20 DUP3 ADD SWAP1 POP SWAP2 SWAP1 POP JUMP JUMPDEST PUSH0 PUSH1 0x20 DUP3 ADD SWAP1 POP DUP2 DUP2 SUB PUSH0 DUP4 ADD MSTORE PUSH2 0x1C1F DUP2 PUSH2 0x1BE6 JUMP JUMPDEST SWAP1 POP SWAP2 SWAP1 POP JUMP JUMPDEST PUSH0 PUSH2 0x1C30 DUP3 PUSH2 0x106F JUMP JUMPDEST SWAP2 POP PUSH0 DUP3 SUB PUSH2 0x1C42 JUMPI PUSH2 0x1C41 PUSH2 0x1976 JUMP JUMPDEST JUMPDEST PUSH1 0x1 DUP3 SUB SWAP1 POP SWAP2 SWAP1 POP JUMP JUMPDEST PUSH0 PUSH2 0x1C57 DUP3 PUSH2 0x106F JUMP JUMPDEST SWAP2 POP PUSH2 0x1C62 DUP4 PUSH2 0x106F JUMP JUMPDEST SWAP3 POP DUP3 DUP3 SUB SWAP1 POP DUP2 DUP2 GT ISZERO PUSH2 0x1C7A JUMPI PUSH2 0x1C79 PUSH2 0x1976 JUMP JUMPDEST JUMPDEST SWAP3 SWAP2 POP POP JUMP JUMPDEST PUSH0 PUSH1 0x60 DUP3 ADD SWAP1 POP PUSH2 0x1C93 PUSH0 DUP4 ADD DUP7 PUSH2 0x12E7 JUMP JUMPDEST PUSH2 0x1CA0 PUSH1 0x20 DUP4 ADD DUP6 PUSH2 0x12E7 JUMP JUMPDEST PUSH2 0x1CAD PUSH1 0x40 DUP4 ADD DUP5 PUSH2 0x12E7 JUMP JUMPDEST SWAP5 SWAP4 POP POP POP POP JUMP INVALID LOG2 PUSH5 0x6970667358 0x22 SLT KECCAK256 REVERT MCOPY 0xD8 0xBB PUSH12 0xF45F18BA5A96D0B0EA41F2C3 JUMPI 0xC3 0x28 PUSH18 0x2E0D514C7CAE1D360A713164736F6C634300 ADDMOD XOR STOP CALLER "
				},
				"gasEstimates": {
					"creation": {
						"codeDepositCost": "1480600",
						"executionCost": "1546",
						"totalCost": "1482146"
					},
					"external": {
						"artworks(uint256)": "infinite",
						"buyArtwork(uint256)": "infinite",
						"createArt(address,string,string,uint256,string,uint256)": "infinite",
						"getArtworks()": "infinite",
						"purchases(uint256)": "infinite"
					}
				},
				"methodIdentifiers": {
					"artworks(uint256)": "4b602673",
					"buyArtwork(uint256)": "e44c3c4b",
					"createArt(address,string,string,uint256,string,uint256)": "79f9ec1c",
					"getArtworks()": "00a71527",
					"purchases(uint256)": "8392fe31"
				}
			},
			"storageLayout": {
				"storage": [
					{
						"astId": 43,
						"contract": "contracts/Demo.sol:Artwork",
						"label": "art_count",
						"offset": 0,
						"slot": "0",
						"type": "t_uint256"
					},
					{
						"astId": 45,
						"contract": "contracts/Demo.sol:Artwork",
						"label": "purchase_count",
						"offset": 0,
						"slot": "1",
						"type": "t_uint256"
					},
					{
						"astId": 50,
						"contract": "contracts/Demo.sol:Artwork",
						"label": "artworks",
						"offset": 0,
						"slot": "2",
						"type": "t_mapping(t_uint256,t_struct(Art)20_storage)"
					},
					{
						"astId": 55,
						"contract": "contracts/Demo.sol:Artwork",
						"label": "purchases",
						"offset": 0,
						"slot": "3",
						"type": "t_mapping(t_uint256,t_struct(Purchase)41_storage)"
					}
				],
				"types": {
					"t_address": {
						"encoding": "inplace",
						"label": "address",
						"numberOfBytes": "20"
					},
					"t_bool": {
						"encoding": "inplace",
						"label": "bool",
						"numberOfBytes": "1"
					},
					"t_mapping(t_uint256,t_struct(Art)20_storage)": {
						"encoding": "mapping",
						"key": "t_uint256",
						"label": "mapping(uint256 => struct Artwork.Art)",
						"numberOfBytes": "32",
						"value": "t_struct(Art)20_storage"
					},
					"t_mapping(t_uint256,t_struct(Purchase)41_storage)": {
						"encoding": "mapping",
						"key": "t_uint256",
						"label": "mapping(uint256 => struct Artwork.Purchase)",
						"numberOfBytes": "32",
						"value": "t_struct(Purchase)41_storage"
					},
					"t_string_storage": {
						"encoding": "bytes",
						"label": "string",
						"numberOfBytes": "32"
					},
					"t_struct(Art)20_storage": {
						"encoding": "inplace",
						"label": "struct Artwork.Art",
						"members": [
							{
								"astId": 3,
								"contract": "contracts/Demo.sol:Artwork",
								"label": "owner",
								"offset": 0,
								"slot": "0",
								"type": "t_address"
							},
							{
								"astId": 5,
								"contract": "contracts/Demo.sol:Artwork",
								"label": "image",
								"offset": 0,
								"slot": "1",
								"type": "t_string_storage"
							},
							{
								"astId": 7,
								"contract": "contracts/Demo.sol:Artwork",
								"label": "description",
								"offset": 0,
								"slot": "2",
								"type": "t_string_storage"
							},
							{
								"astId": 9,
								"contract": "contracts/Demo.sol:Artwork",
								"label": "price",
								"offset": 0,
								"slot": "3",
								"type": "t_uint256"
							},
							{
								"astId": 11,
								"contract": "contracts/Demo.sol:Artwork",
								"label": "credentials",
								"offset": 0,
								"slot": "4",
								"type": "t_string_storage"
							},
							{
								"astId": 13,
								"contract": "contracts/Demo.sol:Artwork",
								"label": "quantity",
								"offset": 0,
								"slot": "5",
								"type": "t_uint256"
							},
							{
								"astId": 15,
								"contract": "contracts/Demo.sol:Artwork",
								"label": "isVerified",
								"offset": 0,
								"slot": "6",
								"type": "t_bool"
							},
							{
								"astId": 17,
								"contract": "contracts/Demo.sol:Artwork",
								"label": "tokenUri",
								"offset": 0,
								"slot": "7",
								"type": "t_string_storage"
							},
							{
								"astId": 19,
								"contract": "contracts/Demo.sol:Artwork",
								"label": "original_artist",
								"offset": 0,
								"slot": "8",
								"type": "t_address"
							}
						],
						"numberOfBytes": "288"
					},
					"t_struct(Purchase)41_storage": {
						"encoding": "inplace",
						"label": "struct Artwork.Purchase",
						"members": [
							{
								"astId": 22,
								"contract": "contracts/Demo.sol:Artwork",
								"label": "id",
								"offset": 0,
								"slot": "0",
								"type": "t_uint256"
							},
							{
								"astId": 24,
								"contract": "contracts/Demo.sol:Artwork",
								"label": "artId",
								"offset": 0,
								"slot": "1",
								"type": "t_uint256"
							},
							{
								"astId": 26,
								"contract": "contracts/Demo.sol:Artwork",
								"label": "buyer",
								"offset": 0,
								"slot": "2",
								"type": "t_address"
							},
							{
								"astId": 28,
								"contract": "contracts/Demo.sol:Artwork",
								"label": "seller",
								"offset": 0,
								"slot": "3",
								"type": "t_address"
							},
							{
								"astId": 30,
								"contract": "contracts/Demo.sol:Artwork",
								"label": "amount",
								"offset": 0,
								"slot": "4",
								"type": "t_uint256"
							},
							{
								"astId": 32,
								"contract": "contracts/Demo.sol:Artwork",
								"label": "total_amount",
								"offset": 0,
								"slot": "5",
								"type": "t_uint256"
							},
							{
								"astId": 34,
								"contract": "contracts/Demo.sol:Artwork",
								"label": "amounts_paid",
								"offset": 0,
								"slot": "6",
								"type": "t_uint256"
							},
							{
								"astId": 36,
								"contract": "contracts/Demo.sol:Artwork",
								"label": "amounts_remaining",
								"offset": 0,
								"slot": "7",
								"type": "t_uint256"
							},
							{
								"astId": 38,
								"contract": "contracts/Demo.sol:Artwork",
								"label": "delivery_state",
								"offset": 0,
								"slot": "8",
								"type": "t_string_storage"
							},
							{
								"astId": 40,
								"contract": "contracts/Demo.sol:Artwork",
								"label": "delivered_status",
								"offset": 0,
								"slot": "9",
								"type": "t_bool"
							}
						],
						"numberOfBytes": "320"
					},
					"t_uint256": {
						"encoding": "inplace",
						"label": "uint256",
						"numberOfBytes": "32"
					}
				}
			},
			"userdoc": {
				"kind": "user",
				"methods": {},
				"version": 1
			}
		}
	}
}