{
	"fest/Artwork.sol": {
		"Artwork": {
			"abi": [
				{
					"anonymous": false,
					"inputs": [
						{
							"indexed": false,
							"internalType": "uint256",
							"name": "artId",
							"type": "uint256"
						},
						{
							"indexed": false,
							"internalType": "address",
							"name": "buyer",
							"type": "address"
						},
						{
							"indexed": false,
							"internalType": "address",
							"name": "seller",
							"type": "address"
						},
						{
							"indexed": false,
							"internalType": "uint256",
							"name": "amount",
							"type": "uint256"
						}
					],
					"name": "ArtworkPurchased",
					"type": "event"
				},
				{
					"inputs": [
						{
							"internalType": "uint256",
							"name": "",
							"type": "uint256"
						}
					],
					"name": "artworks",
					"outputs": [
						{
							"internalType": "address",
							"name": "owner",
							"type": "address"
						},
						{
							"internalType": "string",
							"name": "image",
							"type": "string"
						},
						{
							"internalType": "string",
							"name": "description",
							"type": "string"
						},
						{
							"internalType": "uint256",
							"name": "price",
							"type": "uint256"
						},
						{
							"internalType": "string",
							"name": "credentials",
							"type": "string"
						},
						{
							"internalType": "uint256",
							"name": "quantity",
							"type": "uint256"
						},
						{
							"internalType": "bool",
							"name": "isVerified",
							"type": "bool"
						},
						{
							"internalType": "string",
							"name": "tokenUri",
							"type": "string"
						},
						{
							"internalType": "address",
							"name": "original_artist",
							"type": "address"
						}
					],
					"stateMutability": "view",
					"type": "function"
				},
				{
					"inputs": [
						{
							"internalType": "uint256",
							"name": "art_id",
							"type": "uint256"
						}
					],
					"name": "buyArtwork",
					"outputs": [],
					"stateMutability": "payable",
					"type": "function"
				},
				{
					"inputs": [
						{
							"internalType": "uint256",
							"name": "purchase_id",
							"type": "uint256"
						}
					],
					"name": "completeDelivery",
					"outputs": [
						{
							"internalType": "string",
							"name": "",
							"type": "string"
						}
					],
					"stateMutability": "nonpayable",
					"type": "function"
				},
				{
					"inputs": [
						{
							"internalType": "address",
							"name": "_owner",
							"type": "address"
						},
						{
							"internalType": "string",
							"name": "_image_path",
							"type": "string"
						},
						{
							"internalType": "string",
							"name": "_description",
							"type": "string"
						},
						{
							"internalType": "uint256",
							"name": "_price",
							"type": "uint256"
						},
						{
							"internalType": "string",
							"name": "_credentials",
							"type": "string"
						},
						{
							"internalType": "uint256",
							"name": "_quantity",
							"type": "uint256"
						}
					],
					"name": "createArt",
					"outputs": [],
					"stateMutability": "nonpayable",
					"type": "function"
				},
				{
					"inputs": [
						{
							"internalType": "uint256",
							"name": "art_id",
							"type": "uint256"
						}
					],
					"name": "getArtQuantity",
					"outputs": [
						{
							"internalType": "uint256",
							"name": "",
							"type": "uint256"
						}
					],
					"stateMutability": "view",
					"type": "function"
				},
				{
					"inputs": [],
					"name": "getArtworks",
					"outputs": [
						{
							"components": [
								{
									"internalType": "address",
									"name": "owner",
									"type": "address"
								},
								{
									"internalType": "string",
									"name": "image",
									"type": "string"
								},
								{
									"internalType": "string",
									"name": "description",
									"type": "string"
								},
								{
									"internalType": "uint256",
									"name": "price",
									"type": "uint256"
								},
								{
									"internalType": "string",
									"name": "credentials",
									"type": "string"
								},
								{
									"internalType": "uint256",
									"name": "quantity",
									"type": "uint256"
								},
								{
									"internalType": "bool",
									"name": "isVerified",
									"type": "bool"
								},
								{
									"internalType": "string",
									"name": "tokenUri",
									"type": "string"
								},
								{
									"internalType": "address",
									"name": "original_artist",
									"type": "address"
								}
							],
							"internalType": "struct Artwork.Art[]",
							"name": "",
							"type": "tuple[]"
						}
					],
					"stateMutability": "view",
					"type": "function"
				},
				{
					"inputs": [],
					"name": "getPurchases",
					"outputs": [
						{
							"components": [
								{
									"internalType": "uint256",
									"name": "id",
									"type": "uint256"
								},
								{
									"internalType": "uint256",
									"name": "artId",
									"type": "uint256"
								},
								{
									"internalType": "address",
									"name": "buyer",
									"type": "address"
								},
								{
									"internalType": "address",
									"name": "seller",
									"type": "address"
								},
								{
									"internalType": "uint256",
									"name": "amount",
									"type": "uint256"
								},
								{
									"internalType": "uint256",
									"name": "total_amount",
									"type": "uint256"
								},
								{
									"internalType": "uint256",
									"name": "amounts_paid",
									"type": "uint256"
								},
								{
									"internalType": "uint256",
									"name": "amounts_remaining",
									"type": "uint256"
								},
								{
									"internalType": "string",
									"name": "delivery_state",
									"type": "string"
								},
								{
									"internalType": "bool",
									"name": "delivered_status",
									"type": "bool"
								}
							],
							"internalType": "struct Artwork.Purchase[]",
							"name": "",
							"type": "tuple[]"
						}
					],
					"stateMutability": "view",
					"type": "function"
				},
				{
					"inputs": [
						{
							"internalType": "uint256",
							"name": "_purchase_id",
							"type": "uint256"
						}
					],
					"name": "goodsDelivered",
					"outputs": [],
					"stateMutability": "payable",
					"type": "function"
				},
				{
					"inputs": [
						{
							"internalType": "uint256",
							"name": "",
							"type": "uint256"
						}
					],
					"name": "purchases",
					"outputs": [
						{
							"internalType": "uint256",
							"name": "id",
							"type": "uint256"
						},
						{
							"internalType": "uint256",
							"name": "artId",
							"type": "uint256"
						},
						{
							"internalType": "address",
							"name": "buyer",
							"type": "address"
						},
						{
							"internalType": "address",
							"name": "seller",
							"type": "address"
						},
						{
							"internalType": "uint256",
							"name": "amount",
							"type": "uint256"
						},
						{
							"internalType": "uint256",
							"name": "total_amount",
							"type": "uint256"
						},
						{
							"internalType": "uint256",
							"name": "amounts_paid",
							"type": "uint256"
						},
						{
							"internalType": "uint256",
							"name": "amounts_remaining",
							"type": "uint256"
						},
						{
							"internalType": "string",
							"name": "delivery_state",
							"type": "string"
						},
						{
							"internalType": "bool",
							"name": "delivered_status",
							"type": "bool"
						}
					],
					"stateMutability": "view",
					"type": "function"
				},
				{
					"inputs": [
						{
							"internalType": "uint256",
							"name": "purchase_id",
							"type": "uint256"
						}
					],
					"name": "startDelivery",
					"outputs": [
						{
							"internalType": "string",
							"name": "",
							"type": "string"
						}
					],
					"stateMutability": "nonpayable",
					"type": "function"
				},
				{
					"inputs": [
						{
							"internalType": "uint256",
							"name": "art_id",
							"type": "uint256"
						},
						{
							"internalType": "uint256",
							"name": "_new_quantity",
							"type": "uint256"
						}
					],
					"name": "updateQuantity",
					"outputs": [
						{
							"internalType": "uint256",
							"name": "",
							"type": "uint256"
						}
					],
					"stateMutability": "nonpayable",
					"type": "function"
				}
			],
			"devdoc": {
				"kind": "dev",
				"methods": {},
				"version": 1
			},
			"evm": {
				"assembly": "    /* \"fest/Artwork.sol\":67:5622  contract Artwork {... */\n  mstore(0x40, 0x80)\n  callvalue\n  dup1\n  iszero\n  tag_1\n  jumpi\n  0x00\n  dup1\n  revert\ntag_1:\n  pop\n  dataSize(sub_0)\n  dup1\n  dataOffset(sub_0)\n  0x00\n  codecopy\n  0x00\n  return\nstop\n\nsub_0: assembly {\n        /* \"fest/Artwork.sol\":67:5622  contract Artwork {... */\n      mstore(0x40, 0x80)\n      jumpi(tag_1, lt(calldatasize, 0x04))\n      shr(0xe0, calldataload(0x00))\n      dup1\n      0x82c9804a\n      gt\n      tag_13\n      jumpi\n      dup1\n      0x82c9804a\n      eq\n      tag_7\n      jumpi\n      dup1\n      0x8392fe31\n      eq\n      tag_8\n      jumpi\n      dup1\n      0x94ecf65d\n      eq\n      tag_9\n      jumpi\n      dup1\n      0x9b171c1e\n      eq\n      tag_10\n      jumpi\n      dup1\n      0xc47f0f90\n      eq\n      tag_11\n      jumpi\n      dup1\n      0xe44c3c4b\n      eq\n      tag_12\n      jumpi\n      jump(tag_1)\n    tag_13:\n      dup1\n      0xa71527\n      eq\n      tag_2\n      jumpi\n      dup1\n      0x385fe0a9\n      eq\n      tag_3\n      jumpi\n      dup1\n      0x4b602673\n      eq\n      tag_4\n      jumpi\n      dup1\n      0x79cd4921\n      eq\n      tag_5\n      jumpi\n      dup1\n      0x79f9ec1c\n      eq\n      tag_6\n      jumpi\n    tag_1:\n      0x00\n      dup1\n      revert\n        /* \"fest/Artwork.sol\":4272:4571  function getArtworks() public view returns (Art[] memory) {... */\n    tag_2:\n      callvalue\n      dup1\n      iszero\n      tag_14\n      jumpi\n      0x00\n      dup1\n      revert\n    tag_14:\n      pop\n      tag_15\n      tag_16\n      jump\t// in\n    tag_15:\n      mload(0x40)\n      tag_17\n      swap2\n      swap1\n      tag_18\n      jump\t// in\n    tag_17:\n      mload(0x40)\n      dup1\n      swap2\n      sub\n      swap1\n      return\n        /* \"fest/Artwork.sol\":3151:3385  function startDelivery(uint256 purchase_id) public returns (string memory) {... */\n    tag_3:\n      callvalue\n      dup1\n      iszero\n      tag_19\n      jumpi\n      0x00\n      dup1\n      revert\n    tag_19:\n      pop\n      tag_20\n      0x04\n      dup1\n      calldatasize\n      sub\n      dup2\n      add\n      swap1\n      tag_21\n      swap2\n      swap1\n      tag_22\n      jump\t// in\n    tag_21:\n      tag_23\n      jump\t// in\n    tag_20:\n      mload(0x40)\n      tag_24\n      swap2\n      swap1\n      tag_25\n      jump\t// in\n    tag_24:\n      mload(0x40)\n      dup1\n      swap2\n      sub\n      swap1\n      return\n        /* \"fest/Artwork.sol\":787:826  mapping(uint256 => Art) public artworks */\n    tag_4:\n      callvalue\n      dup1\n      iszero\n      tag_26\n      jumpi\n      0x00\n      dup1\n      revert\n    tag_26:\n      pop\n      tag_27\n      0x04\n      dup1\n      calldatasize\n      sub\n      dup2\n      add\n      swap1\n      tag_28\n      swap2\n      swap1\n      tag_22\n      jump\t// in\n    tag_28:\n      tag_29\n      jump\t// in\n    tag_27:\n      mload(0x40)\n      tag_30\n      swap10\n      swap9\n      swap8\n      swap7\n      swap6\n      swap5\n      swap4\n      swap3\n      swap2\n      swap1\n      tag_31\n      jump\t// in\n    tag_30:\n      mload(0x40)\n      dup1\n      swap2\n      sub\n      swap1\n      return\n        /* \"fest/Artwork.sol\":1562:1797  function updateQuantity(... */\n    tag_5:\n      callvalue\n      dup1\n      iszero\n      tag_32\n      jumpi\n      0x00\n      dup1\n      revert\n    tag_32:\n      pop\n      tag_33\n      0x04\n      dup1\n      calldatasize\n      sub\n      dup2\n      add\n      swap1\n      tag_34\n      swap2\n      swap1\n      tag_35\n      jump\t// in\n    tag_34:\n      tag_36\n      jump\t// in\n    tag_33:\n      mload(0x40)\n      tag_37\n      swap2\n      swap1\n      tag_38\n      jump\t// in\n    tag_37:\n      mload(0x40)\n      dup1\n      swap2\n      sub\n      swap1\n      return\n        /* \"fest/Artwork.sol\":910:1518  function createArt(... */\n    tag_6:\n      callvalue\n      dup1\n      iszero\n      tag_39\n      jumpi\n      0x00\n      dup1\n      revert\n    tag_39:\n      pop\n      tag_40\n      0x04\n      dup1\n      calldatasize\n      sub\n      dup2\n      add\n      swap1\n      tag_41\n      swap2\n      swap1\n      tag_42\n      jump\t// in\n    tag_41:\n      tag_43\n      jump\t// in\n    tag_40:\n      stop\n        /* \"fest/Artwork.sol\":3419:3671  function completeDelivery(... */\n    tag_7:\n      callvalue\n      dup1\n      iszero\n      tag_44\n      jumpi\n      0x00\n      dup1\n      revert\n    tag_44:\n      pop\n      tag_45\n      0x04\n      dup1\n      calldatasize\n      sub\n      dup2\n      add\n      swap1\n      tag_46\n      swap2\n      swap1\n      tag_22\n      jump\t// in\n    tag_46:\n      tag_47\n      jump\t// in\n    tag_45:\n      mload(0x40)\n      tag_48\n      swap2\n      swap1\n      tag_25\n      jump\t// in\n    tag_48:\n      mload(0x40)\n      dup1\n      swap2\n      sub\n      swap1\n      return\n        /* \"fest/Artwork.sol\":833:878  mapping(uint256 => Purchase) public purchases */\n    tag_8:\n      callvalue\n      dup1\n      iszero\n      tag_49\n      jumpi\n      0x00\n      dup1\n      revert\n    tag_49:\n      pop\n      tag_50\n      0x04\n      dup1\n      calldatasize\n      sub\n      dup2\n      add\n      swap1\n      tag_51\n      swap2\n      swap1\n      tag_22\n      jump\t// in\n    tag_51:\n      tag_52\n      jump\t// in\n    tag_50:\n      mload(0x40)\n      tag_53\n      swap11\n      swap10\n      swap9\n      swap8\n      swap7\n      swap6\n      swap5\n      swap4\n      swap3\n      swap2\n      swap1\n      tag_54\n      jump\t// in\n    tag_53:\n      mload(0x40)\n      dup1\n      swap2\n      sub\n      swap1\n      return\n        /* \"fest/Artwork.sol\":4587:5256  function goodsDelivered(uint256 _purchase_id) public payable{... */\n    tag_9:\n      tag_55\n      0x04\n      dup1\n      calldatasize\n      sub\n      dup2\n      add\n      swap1\n      tag_56\n      swap2\n      swap1\n      tag_22\n      jump\t// in\n    tag_56:\n      tag_57\n      jump\t// in\n    tag_55:\n      stop\n        /* \"fest/Artwork.sol\":3706:3859  function getArtQuantity(uint256 art_id) public view returns (uint256) {... */\n    tag_10:\n      callvalue\n      dup1\n      iszero\n      tag_58\n      jumpi\n      0x00\n      dup1\n      revert\n    tag_58:\n      pop\n      tag_59\n      0x04\n      dup1\n      calldatasize\n      sub\n      dup2\n      add\n      swap1\n      tag_60\n      swap2\n      swap1\n      tag_22\n      jump\t// in\n    tag_60:\n      tag_61\n      jump\t// in\n    tag_59:\n      mload(0x40)\n      tag_62\n      swap2\n      swap1\n      tag_38\n      jump\t// in\n    tag_62:\n      mload(0x40)\n      dup1\n      swap2\n      sub\n      swap1\n      return\n        /* \"fest/Artwork.sol\":5291:5619  function getPurchases() public view returns (Purchase[] memory) {... */\n    tag_11:\n      callvalue\n      dup1\n      iszero\n      tag_63\n      jumpi\n      0x00\n      dup1\n      revert\n    tag_63:\n      pop\n      tag_64\n      tag_65\n      jump\t// in\n    tag_64:\n      mload(0x40)\n      tag_66\n      swap2\n      swap1\n      tag_67\n      jump\t// in\n    tag_66:\n      mload(0x40)\n      dup1\n      swap2\n      sub\n      swap1\n      return\n        /* \"fest/Artwork.sol\":2016:3120  function buyArtwork(uint256 art_id) public payable {... */\n    tag_12:\n      tag_68\n      0x04\n      dup1\n      calldatasize\n      sub\n      dup2\n      add\n      swap1\n      tag_69\n      swap2\n      swap1\n      tag_22\n      jump\t// in\n    tag_69:\n      tag_70\n      jump\t// in\n    tag_68:\n      stop\n        /* \"fest/Artwork.sol\":4272:4571  function getArtworks() public view returns (Art[] memory) {... */\n    tag_16:\n        /* \"fest/Artwork.sol\":4316:4328  Art[] memory */\n      0x60\n        /* \"fest/Artwork.sol\":4341:4365  Art[] memory allArtworks */\n      0x00\n        /* \"fest/Artwork.sol\":4378:4387  art_count */\n      dup1\n      sload\n        /* \"fest/Artwork.sol\":4368:4388  new Art[](art_count) */\n      0xffffffffffffffff\n      dup2\n      gt\n      iszero\n      tag_72\n      jumpi\n      tag_73\n      tag_74\n      jump\t// in\n    tag_73:\n    tag_72:\n      mload(0x40)\n      swap1\n      dup1\n      dup3\n      mstore\n      dup1\n      0x20\n      mul\n      0x20\n      add\n      dup3\n      add\n      0x40\n      mstore\n      dup1\n      iszero\n      tag_75\n      jumpi\n      dup2\n      0x20\n      add\n    tag_76:\n      tag_77\n      tag_78\n      jump\t// in\n    tag_77:\n      dup2\n      mstore\n      0x20\n      add\n      swap1\n      0x01\n      swap1\n      sub\n      swap1\n      dup2\n      tag_76\n      jumpi\n      swap1\n      pop\n    tag_75:\n      pop\n        /* \"fest/Artwork.sol\":4341:4388  Art[] memory allArtworks = new Art[](art_count) */\n      swap1\n      pop\n        /* \"fest/Artwork.sol\":4406:4412  uint i */\n      0x00\n        /* \"fest/Artwork.sol\":4401:4533  for (uint i = 0; i < art_count; i++) {... */\n    tag_79:\n        /* \"fest/Artwork.sol\":4422:4431  art_count */\n      sload(0x00)\n        /* \"fest/Artwork.sol\":4418:4419  i */\n      dup2\n        /* \"fest/Artwork.sol\":4418:4431  i < art_count */\n      lt\n        /* \"fest/Artwork.sol\":4401:4533  for (uint i = 0; i < art_count; i++) {... */\n      iszero\n      tag_80\n      jumpi\n        /* \"fest/Artwork.sol\":4453:4469  Art storage item */\n      0x00\n        /* \"fest/Artwork.sol\":4472:4480  artworks */\n      0x02\n        /* \"fest/Artwork.sol\":4472:4483  artworks[i] */\n      0x00\n        /* \"fest/Artwork.sol\":4481:4482  i */\n      dup4\n        /* \"fest/Artwork.sol\":4472:4483  artworks[i] */\n      dup2\n      mstore\n      0x20\n      add\n      swap1\n      dup2\n      mstore\n      0x20\n      add\n      0x00\n      keccak256\n        /* \"fest/Artwork.sol\":4453:4483  Art storage item = artworks[i] */\n      swap1\n      pop\n        /* \"fest/Artwork.sol\":4517:4521  item */\n      dup1\n        /* \"fest/Artwork.sol\":4500:4521  allArtworks[i] = item */\n      mload(0x40)\n      dup1\n      0x0120\n      add\n      0x40\n      mstore\n      swap1\n      dup2\n      0x00\n      dup3\n      add\n      0x00\n      swap1\n      sload\n      swap1\n      0x0100\n      exp\n      swap1\n      div\n      0xffffffffffffffffffffffffffffffffffffffff\n      and\n      0xffffffffffffffffffffffffffffffffffffffff\n      and\n      0xffffffffffffffffffffffffffffffffffffffff\n      and\n      dup2\n      mstore\n      0x20\n      add\n      0x01\n      dup3\n      add\n      dup1\n      sload\n      tag_82\n      swap1\n      tag_83\n      jump\t// in\n    tag_82:\n      dup1\n      0x1f\n      add\n      0x20\n      dup1\n      swap2\n      div\n      mul\n      0x20\n      add\n      mload(0x40)\n      swap1\n      dup2\n      add\n      0x40\n      mstore\n      dup1\n      swap3\n      swap2\n      swap1\n      dup2\n      dup2\n      mstore\n      0x20\n      add\n      dup3\n      dup1\n      sload\n      tag_84\n      swap1\n      tag_83\n      jump\t// in\n    tag_84:\n      dup1\n      iszero\n      tag_85\n      jumpi\n      dup1\n      0x1f\n      lt\n      tag_86\n      jumpi\n      0x0100\n      dup1\n      dup4\n      sload\n      div\n      mul\n      dup4\n      mstore\n      swap2\n      0x20\n      add\n      swap2\n      jump(tag_85)\n    tag_86:\n      dup3\n      add\n      swap2\n      swap1\n      0x00\n      mstore\n      keccak256(0x00, 0x20)\n      swap1\n    tag_87:\n      dup2\n      sload\n      dup2\n      mstore\n      swap1\n      0x01\n      add\n      swap1\n      0x20\n      add\n      dup1\n      dup4\n      gt\n      tag_87\n      jumpi\n      dup3\n      swap1\n      sub\n      0x1f\n      and\n      dup3\n      add\n      swap2\n    tag_85:\n      pop\n      pop\n      pop\n      pop\n      pop\n      dup2\n      mstore\n      0x20\n      add\n      0x02\n      dup3\n      add\n      dup1\n      sload\n      tag_88\n      swap1\n      tag_83\n      jump\t// in\n    tag_88:\n      dup1\n      0x1f\n      add\n      0x20\n      dup1\n      swap2\n      div\n      mul\n      0x20\n      add\n      mload(0x40)\n      swap1\n      dup2\n      add\n      0x40\n      mstore\n      dup1\n      swap3\n      swap2\n      swap1\n      dup2\n      dup2\n      mstore\n      0x20\n      add\n      dup3\n      dup1\n      sload\n      tag_89\n      swap1\n      tag_83\n      jump\t// in\n    tag_89:\n      dup1\n      iszero\n      tag_90\n      jumpi\n      dup1\n      0x1f\n      lt\n      tag_91\n      jumpi\n      0x0100\n      dup1\n      dup4\n      sload\n      div\n      mul\n      dup4\n      mstore\n      swap2\n      0x20\n      add\n      swap2\n      jump(tag_90)\n    tag_91:\n      dup3\n      add\n      swap2\n      swap1\n      0x00\n      mstore\n      keccak256(0x00, 0x20)\n      swap1\n    tag_92:\n      dup2\n      sload\n      dup2\n      mstore\n      swap1\n      0x01\n      add\n      swap1\n      0x20\n      add\n      dup1\n      dup4\n      gt\n      tag_92\n      jumpi\n      dup3\n      swap1\n      sub\n      0x1f\n      and\n      dup3\n      add\n      swap2\n    tag_90:\n      pop\n      pop\n      pop\n      pop\n      pop\n      dup2\n      mstore\n      0x20\n      add\n      0x03\n      dup3\n      add\n      sload\n      dup2\n      mstore\n      0x20\n      add\n      0x04\n      dup3\n      add\n      dup1\n      sload\n      tag_93\n      swap1\n      tag_83\n      jump\t// in\n    tag_93:\n      dup1\n      0x1f\n      add\n      0x20\n      dup1\n      swap2\n      div\n      mul\n      0x20\n      add\n      mload(0x40)\n      swap1\n      dup2\n      add\n      0x40\n      mstore\n      dup1\n      swap3\n      swap2\n      swap1\n      dup2\n      dup2\n      mstore\n      0x20\n      add\n      dup3\n      dup1\n      sload\n      tag_94\n      swap1\n      tag_83\n      jump\t// in\n    tag_94:\n      dup1\n      iszero\n      tag_95\n      jumpi\n      dup1\n      0x1f\n      lt\n      tag_96\n      jumpi\n      0x0100\n      dup1\n      dup4\n      sload\n      div\n      mul\n      dup4\n      mstore\n      swap2\n      0x20\n      add\n      swap2\n      jump(tag_95)\n    tag_96:\n      dup3\n      add\n      swap2\n      swap1\n      0x00\n      mstore\n      keccak256(0x00, 0x20)\n      swap1\n    tag_97:\n      dup2\n      sload\n      dup2\n      mstore\n      swap1\n      0x01\n      add\n      swap1\n      0x20\n      add\n      dup1\n      dup4\n      gt\n      tag_97\n      jumpi\n      dup3\n      swap1\n      sub\n      0x1f\n      and\n      dup3\n      add\n      swap2\n    tag_95:\n      pop\n      pop\n      pop\n      pop\n      pop\n      dup2\n      mstore\n      0x20\n      add\n      0x05\n      dup3\n      add\n      sload\n      dup2\n      mstore\n      0x20\n      add\n      0x06\n      dup3\n      add\n      0x00\n      swap1\n      sload\n      swap1\n      0x0100\n      exp\n      swap1\n      div\n      0xff\n      and\n      iszero\n      iszero\n      iszero\n      iszero\n      dup2\n      mstore\n      0x20\n      add\n      0x07\n      dup3\n      add\n      dup1\n      sload\n      tag_98\n      swap1\n      tag_83\n      jump\t// in\n    tag_98:\n      dup1\n      0x1f\n      add\n      0x20\n      dup1\n      swap2\n      div\n      mul\n      0x20\n      add\n      mload(0x40)\n      swap1\n      dup2\n      add\n      0x40\n      mstore\n      dup1\n      swap3\n      swap2\n      swap1\n      dup2\n      dup2\n      mstore\n      0x20\n      add\n      dup3\n      dup1\n      sload\n      tag_99\n      swap1\n      tag_83\n      jump\t// in\n    tag_99:\n      dup1\n      iszero\n      tag_100\n      jumpi\n      dup1\n      0x1f\n      lt\n      tag_101\n      jumpi\n      0x0100\n      dup1\n      dup4\n      sload\n      div\n      mul\n      dup4\n      mstore\n      swap2\n      0x20\n      add\n      swap2\n      jump(tag_100)\n    tag_101:\n      dup3\n      add\n      swap2\n      swap1\n      0x00\n      mstore\n      keccak256(0x00, 0x20)\n      swap1\n    tag_102:\n      dup2\n      sload\n      dup2\n      mstore\n      swap1\n      0x01\n      add\n      swap1\n      0x20\n      add\n      dup1\n      dup4\n      gt\n      tag_102\n      jumpi\n      dup3\n      swap1\n      sub\n      0x1f\n      and\n      dup3\n      add\n      swap2\n    tag_100:\n      pop\n      pop\n      pop\n      pop\n      pop\n      dup2\n      mstore\n      0x20\n      add\n      0x08\n      dup3\n      add\n      0x00\n      swap1\n      sload\n      swap1\n      0x0100\n      exp\n      swap1\n      div\n      0xffffffffffffffffffffffffffffffffffffffff\n      and\n      0xffffffffffffffffffffffffffffffffffffffff\n      and\n      0xffffffffffffffffffffffffffffffffffffffff\n      and\n      dup2\n      mstore\n      pop\n      pop\n        /* \"fest/Artwork.sol\":4500:4511  allArtworks */\n      dup4\n        /* \"fest/Artwork.sol\":4512:4513  i */\n      dup4\n        /* \"fest/Artwork.sol\":4500:4514  allArtworks[i] */\n      dup2\n      mload\n      dup2\n      lt\n      tag_103\n      jumpi\n      tag_104\n      tag_105\n      jump\t// in\n    tag_104:\n    tag_103:\n      0x20\n      mul\n      0x20\n      add\n      add\n        /* \"fest/Artwork.sol\":4500:4521  allArtworks[i] = item */\n      dup2\n      swap1\n      mstore\n      pop\n        /* \"fest/Artwork.sol\":4438:4533  {... */\n      pop\n        /* \"fest/Artwork.sol\":4433:4436  i++ */\n      dup1\n      dup1\n      0x01\n      add\n      swap2\n      pop\n      pop\n        /* \"fest/Artwork.sol\":4401:4533  for (uint i = 0; i < art_count; i++) {... */\n      jump(tag_79)\n    tag_80:\n      pop\n        /* \"fest/Artwork.sol\":4552:4563  allArtworks */\n      dup1\n        /* \"fest/Artwork.sol\":4545:4563  return allArtworks */\n      swap2\n      pop\n      pop\n        /* \"fest/Artwork.sol\":4272:4571  function getArtworks() public view returns (Art[] memory) {... */\n      swap1\n      jump\t// out\n        /* \"fest/Artwork.sol\":3151:3385  function startDelivery(uint256 purchase_id) public returns (string memory) {... */\n    tag_23:\n        /* \"fest/Artwork.sol\":3211:3224  string memory */\n      0x60\n        /* \"fest/Artwork.sol\":3237:3262  Purchase storage purchase */\n      0x00\n        /* \"fest/Artwork.sol\":3265:3274  purchases */\n      0x03\n        /* \"fest/Artwork.sol\":3265:3287  purchases[purchase_id] */\n      0x00\n        /* \"fest/Artwork.sol\":3275:3286  purchase_id */\n      dup5\n        /* \"fest/Artwork.sol\":3265:3287  purchases[purchase_id] */\n      dup2\n      mstore\n      0x20\n      add\n      swap1\n      dup2\n      mstore\n      0x20\n      add\n      0x00\n      keccak256\n        /* \"fest/Artwork.sol\":3237:3287  Purchase storage purchase = purchases[purchase_id] */\n      swap1\n      pop\n        /* \"fest/Artwork.sol\":3298:3336  purchase.delivery_state = \"Dispatched\" */\n      mload(0x40)\n      dup1\n      0x40\n      add\n      0x40\n      mstore\n      dup1\n      0x0a\n      dup2\n      mstore\n      0x20\n      add\n      0x4469737061746368656400000000000000000000000000000000000000000000\n      dup2\n      mstore\n      pop\n        /* \"fest/Artwork.sol\":3298:3306  purchase */\n      dup2\n        /* \"fest/Artwork.sol\":3298:3321  purchase.delivery_state */\n      0x08\n      add\n        /* \"fest/Artwork.sol\":3298:3336  purchase.delivery_state = \"Dispatched\" */\n      swap1\n      dup2\n      tag_107\n      swap2\n      swap1\n      tag_108\n      jump\t// in\n    tag_107:\n      pop\n        /* \"fest/Artwork.sol\":3354:3362  purchase */\n      dup1\n        /* \"fest/Artwork.sol\":3354:3377  purchase.delivery_state */\n      0x08\n      add\n        /* \"fest/Artwork.sol\":3347:3377  return purchase.delivery_state */\n      dup1\n      sload\n      tag_109\n      swap1\n      tag_83\n      jump\t// in\n    tag_109:\n      dup1\n      0x1f\n      add\n      0x20\n      dup1\n      swap2\n      div\n      mul\n      0x20\n      add\n      mload(0x40)\n      swap1\n      dup2\n      add\n      0x40\n      mstore\n      dup1\n      swap3\n      swap2\n      swap1\n      dup2\n      dup2\n      mstore\n      0x20\n      add\n      dup3\n      dup1\n      sload\n      tag_110\n      swap1\n      tag_83\n      jump\t// in\n    tag_110:\n      dup1\n      iszero\n      tag_111\n      jumpi\n      dup1\n      0x1f\n      lt\n      tag_112\n      jumpi\n      0x0100\n      dup1\n      dup4\n      sload\n      div\n      mul\n      dup4\n      mstore\n      swap2\n      0x20\n      add\n      swap2\n      jump(tag_111)\n    tag_112:\n      dup3\n      add\n      swap2\n      swap1\n      0x00\n      mstore\n      keccak256(0x00, 0x20)\n      swap1\n    tag_113:\n      dup2\n      sload\n      dup2\n      mstore\n      swap1\n      0x01\n      add\n      swap1\n      0x20\n      add\n      dup1\n      dup4\n      gt\n      tag_113\n      jumpi\n      dup3\n      swap1\n      sub\n      0x1f\n      and\n      dup3\n      add\n      swap2\n    tag_111:\n      pop\n      pop\n      pop\n      pop\n      pop\n      swap2\n      pop\n      pop\n        /* \"fest/Artwork.sol\":3151:3385  function startDelivery(uint256 purchase_id) public returns (string memory) {... */\n      swap2\n      swap1\n      pop\n      jump\t// out\n        /* \"fest/Artwork.sol\":787:826  mapping(uint256 => Art) public artworks */\n    tag_29:\n      mstore(0x20, 0x02)\n      dup1\n      0x00\n      mstore\n      keccak256(0x00, 0x40)\n      0x00\n      swap2\n      pop\n      swap1\n      pop\n      dup1\n      0x00\n      add\n      0x00\n      swap1\n      sload\n      swap1\n      0x0100\n      exp\n      swap1\n      div\n      0xffffffffffffffffffffffffffffffffffffffff\n      and\n      swap1\n      dup1\n      0x01\n      add\n      dup1\n      sload\n      tag_114\n      swap1\n      tag_83\n      jump\t// in\n    tag_114:\n      dup1\n      0x1f\n      add\n      0x20\n      dup1\n      swap2\n      div\n      mul\n      0x20\n      add\n      mload(0x40)\n      swap1\n      dup2\n      add\n      0x40\n      mstore\n      dup1\n      swap3\n      swap2\n      swap1\n      dup2\n      dup2\n      mstore\n      0x20\n      add\n      dup3\n      dup1\n      sload\n      tag_115\n      swap1\n      tag_83\n      jump\t// in\n    tag_115:\n      dup1\n      iszero\n      tag_116\n      jumpi\n      dup1\n      0x1f\n      lt\n      tag_117\n      jumpi\n      0x0100\n      dup1\n      dup4\n      sload\n      div\n      mul\n      dup4\n      mstore\n      swap2\n      0x20\n      add\n      swap2\n      jump(tag_116)\n    tag_117:\n      dup3\n      add\n      swap2\n      swap1\n      0x00\n      mstore\n      keccak256(0x00, 0x20)\n      swap1\n    tag_118:\n      dup2\n      sload\n      dup2\n      mstore\n      swap1\n      0x01\n      add\n      swap1\n      0x20\n      add\n      dup1\n      dup4\n      gt\n      tag_118\n      jumpi\n      dup3\n      swap1\n      sub\n      0x1f\n      and\n      dup3\n      add\n      swap2\n    tag_116:\n      pop\n      pop\n      pop\n      pop\n      pop\n      swap1\n      dup1\n      0x02\n      add\n      dup1\n      sload\n      tag_119\n      swap1\n      tag_83\n      jump\t// in\n    tag_119:\n      dup1\n      0x1f\n      add\n      0x20\n      dup1\n      swap2\n      div\n      mul\n      0x20\n      add\n      mload(0x40)\n      swap1\n      dup2\n      add\n      0x40\n      mstore\n      dup1\n      swap3\n      swap2\n      swap1\n      dup2\n      dup2\n      mstore\n      0x20\n      add\n      dup3\n      dup1\n      sload\n      tag_120\n      swap1\n      tag_83\n      jump\t// in\n    tag_120:\n      dup1\n      iszero\n      tag_121\n      jumpi\n      dup1\n      0x1f\n      lt\n      tag_122\n      jumpi\n      0x0100\n      dup1\n      dup4\n      sload\n      div\n      mul\n      dup4\n      mstore\n      swap2\n      0x20\n      add\n      swap2\n      jump(tag_121)\n    tag_122:\n      dup3\n      add\n      swap2\n      swap1\n      0x00\n      mstore\n      keccak256(0x00, 0x20)\n      swap1\n    tag_123:\n      dup2\n      sload\n      dup2\n      mstore\n      swap1\n      0x01\n      add\n      swap1\n      0x20\n      add\n      dup1\n      dup4\n      gt\n      tag_123\n      jumpi\n      dup3\n      swap1\n      sub\n      0x1f\n      and\n      dup3\n      add\n      swap2\n    tag_121:\n      pop\n      pop\n      pop\n      pop\n      pop\n      swap1\n      dup1\n      0x03\n      add\n      sload\n      swap1\n      dup1\n      0x04\n      add\n      dup1\n      sload\n      tag_124\n      swap1\n      tag_83\n      jump\t// in\n    tag_124:\n      dup1\n      0x1f\n      add\n      0x20\n      dup1\n      swap2\n      div\n      mul\n      0x20\n      add\n      mload(0x40)\n      swap1\n      dup2\n      add\n      0x40\n      mstore\n      dup1\n      swap3\n      swap2\n      swap1\n      dup2\n      dup2\n      mstore\n      0x20\n      add\n      dup3\n      dup1\n      sload\n      tag_125\n      swap1\n      tag_83\n      jump\t// in\n    tag_125:\n      dup1\n      iszero\n      tag_126\n      jumpi\n      dup1\n      0x1f\n      lt\n      tag_127\n      jumpi\n      0x0100\n      dup1\n      dup4\n      sload\n      div\n      mul\n      dup4\n      mstore\n      swap2\n      0x20\n      add\n      swap2\n      jump(tag_126)\n    tag_127:\n      dup3\n      add\n      swap2\n      swap1\n      0x00\n      mstore\n      keccak256(0x00, 0x20)\n      swap1\n    tag_128:\n      dup2\n      sload\n      dup2\n      mstore\n      swap1\n      0x01\n      add\n      swap1\n      0x20\n      add\n      dup1\n      dup4\n      gt\n      tag_128\n      jumpi\n      dup3\n      swap1\n      sub\n      0x1f\n      and\n      dup3\n      add\n      swap2\n    tag_126:\n      pop\n      pop\n      pop\n      pop\n      pop\n      swap1\n      dup1\n      0x05\n      add\n      sload\n      swap1\n      dup1\n      0x06\n      add\n      0x00\n      swap1\n      sload\n      swap1\n      0x0100\n      exp\n      swap1\n      div\n      0xff\n      and\n      swap1\n      dup1\n      0x07\n      add\n      dup1\n      sload\n      tag_129\n      swap1\n      tag_83\n      jump\t// in\n    tag_129:\n      dup1\n      0x1f\n      add\n      0x20\n      dup1\n      swap2\n      div\n      mul\n      0x20\n      add\n      mload(0x40)\n      swap1\n      dup2\n      add\n      0x40\n      mstore\n      dup1\n      swap3\n      swap2\n      swap1\n      dup2\n      dup2\n      mstore\n      0x20\n      add\n      dup3\n      dup1\n      sload\n      tag_130\n      swap1\n      tag_83\n      jump\t// in\n    tag_130:\n      dup1\n      iszero\n      tag_131\n      jumpi\n      dup1\n      0x1f\n      lt\n      tag_132\n      jumpi\n      0x0100\n      dup1\n      dup4\n      sload\n      div\n      mul\n      dup4\n      mstore\n      swap2\n      0x20\n      add\n      swap2\n      jump(tag_131)\n    tag_132:\n      dup3\n      add\n      swap2\n      swap1\n      0x00\n      mstore\n      keccak256(0x00, 0x20)\n      swap1\n    tag_133:\n      dup2\n      sload\n      dup2\n      mstore\n      swap1\n      0x01\n      add\n      swap1\n      0x20\n      add\n      dup1\n      dup4\n      gt\n      tag_133\n      jumpi\n      dup3\n      swap1\n      sub\n      0x1f\n      and\n      dup3\n      add\n      swap2\n    tag_131:\n      pop\n      pop\n      pop\n      pop\n      pop\n      swap1\n      dup1\n      0x08\n      add\n      0x00\n      swap1\n      sload\n      swap1\n      0x0100\n      exp\n      swap1\n      div\n      0xffffffffffffffffffffffffffffffffffffffff\n      and\n      swap1\n      pop\n      dup10\n      jump\t// out\n        /* \"fest/Artwork.sol\":1562:1797  function updateQuantity(... */\n    tag_36:\n        /* \"fest/Artwork.sol\":1666:1673  uint256 */\n      0x00\n        /* \"fest/Artwork.sol\":1686:1701  Art storage art */\n      dup1\n        /* \"fest/Artwork.sol\":1704:1712  artworks */\n      0x02\n        /* \"fest/Artwork.sol\":1704:1720  artworks[art_id] */\n      0x00\n        /* \"fest/Artwork.sol\":1713:1719  art_id */\n      dup6\n        /* \"fest/Artwork.sol\":1704:1720  artworks[art_id] */\n      dup2\n      mstore\n      0x20\n      add\n      swap1\n      dup2\n      mstore\n      0x20\n      add\n      0x00\n      keccak256\n        /* \"fest/Artwork.sol\":1686:1720  Art storage art = artworks[art_id] */\n      swap1\n      pop\n        /* \"fest/Artwork.sol\":1746:1759  _new_quantity */\n      dup3\n        /* \"fest/Artwork.sol\":1731:1734  art */\n      dup2\n        /* \"fest/Artwork.sol\":1731:1743  art.quantity */\n      0x05\n      add\n        /* \"fest/Artwork.sol\":1731:1759  art.quantity = _new_quantity */\n      dup2\n      swap1\n      sstore\n      pop\n        /* \"fest/Artwork.sol\":1777:1780  art */\n      dup1\n        /* \"fest/Artwork.sol\":1777:1789  art.quantity */\n      0x05\n      add\n      sload\n        /* \"fest/Artwork.sol\":1770:1789  return art.quantity */\n      swap2\n      pop\n      pop\n        /* \"fest/Artwork.sol\":1562:1797  function updateQuantity(... */\n      swap3\n      swap2\n      pop\n      pop\n      jump\t// out\n        /* \"fest/Artwork.sol\":910:1518  function createArt(... */\n    tag_43:\n        /* \"fest/Artwork.sol\":1142:1157  Art storage art */\n      0x00\n        /* \"fest/Artwork.sol\":1160:1168  artworks */\n      0x02\n        /* \"fest/Artwork.sol\":1160:1179  artworks[art_count] */\n      0x00\n        /* \"fest/Artwork.sol\":1169:1178  art_count */\n      dup1\n      sload\n        /* \"fest/Artwork.sol\":1160:1179  artworks[art_count] */\n      dup2\n      mstore\n      0x20\n      add\n      swap1\n      dup2\n      mstore\n      0x20\n      add\n      0x00\n      keccak256\n        /* \"fest/Artwork.sol\":1142:1179  Art storage art = artworks[art_count] */\n      swap1\n      pop\n        /* \"fest/Artwork.sol\":1202:1208  _owner */\n      dup7\n        /* \"fest/Artwork.sol\":1190:1193  art */\n      dup2\n        /* \"fest/Artwork.sol\":1190:1199  art.owner */\n      0x00\n      add\n      0x00\n        /* \"fest/Artwork.sol\":1190:1208  art.owner = _owner */\n      0x0100\n      exp\n      dup2\n      sload\n      dup2\n      0xffffffffffffffffffffffffffffffffffffffff\n      mul\n      not\n      and\n      swap1\n      dup4\n      0xffffffffffffffffffffffffffffffffffffffff\n      and\n      mul\n      or\n      swap1\n      sstore\n      pop\n        /* \"fest/Artwork.sol\":1231:1242  _image_path */\n      dup6\n        /* \"fest/Artwork.sol\":1219:1222  art */\n      dup2\n        /* \"fest/Artwork.sol\":1219:1228  art.image */\n      0x01\n      add\n        /* \"fest/Artwork.sol\":1219:1242  art.image = _image_path */\n      swap1\n      dup2\n      tag_136\n      swap2\n      swap1\n      tag_108\n      jump\t// in\n    tag_136:\n      pop\n        /* \"fest/Artwork.sol\":1271:1283  _description */\n      dup5\n        /* \"fest/Artwork.sol\":1253:1256  art */\n      dup2\n        /* \"fest/Artwork.sol\":1253:1268  art.description */\n      0x02\n      add\n        /* \"fest/Artwork.sol\":1253:1283  art.description = _description */\n      swap1\n      dup2\n      tag_137\n      swap2\n      swap1\n      tag_108\n      jump\t// in\n    tag_137:\n      pop\n        /* \"fest/Artwork.sol\":1306:1312  _price */\n      dup4\n        /* \"fest/Artwork.sol\":1294:1297  art */\n      dup2\n        /* \"fest/Artwork.sol\":1294:1303  art.price */\n      0x03\n      add\n        /* \"fest/Artwork.sol\":1294:1312  art.price = _price */\n      dup2\n      swap1\n      sstore\n      pop\n        /* \"fest/Artwork.sol\":1341:1353  _credentials */\n      dup3\n        /* \"fest/Artwork.sol\":1323:1326  art */\n      dup2\n        /* \"fest/Artwork.sol\":1323:1338  art.credentials */\n      0x04\n      add\n        /* \"fest/Artwork.sol\":1323:1353  art.credentials = _credentials */\n      swap1\n      dup2\n      tag_138\n      swap2\n      swap1\n      tag_108\n      jump\t// in\n    tag_138:\n      pop\n        /* \"fest/Artwork.sol\":1379:1388  _quantity */\n      dup2\n        /* \"fest/Artwork.sol\":1364:1367  art */\n      dup2\n        /* \"fest/Artwork.sol\":1364:1376  art.quantity */\n      0x05\n      add\n        /* \"fest/Artwork.sol\":1364:1388  art.quantity = _quantity */\n      dup2\n      swap1\n      sstore\n      pop\n        /* \"fest/Artwork.sol\":1416:1421  false */\n      0x00\n        /* \"fest/Artwork.sol\":1399:1402  art */\n      dup2\n        /* \"fest/Artwork.sol\":1399:1413  art.isVerified */\n      0x06\n      add\n      0x00\n        /* \"fest/Artwork.sol\":1399:1421  art.isVerified = false */\n      0x0100\n      exp\n      dup2\n      sload\n      dup2\n      0xff\n      mul\n      not\n      and\n      swap1\n      dup4\n      iszero\n      iszero\n      mul\n      or\n      swap1\n      sstore\n      pop\n        /* \"fest/Artwork.sol\":1432:1449  art.tokenUri = \"\" */\n      mload(0x40)\n      dup1\n      0x20\n      add\n      0x40\n      mstore\n      dup1\n      0x00\n      dup2\n      mstore\n      pop\n        /* \"fest/Artwork.sol\":1432:1435  art */\n      dup2\n        /* \"fest/Artwork.sol\":1432:1444  art.tokenUri */\n      0x07\n      add\n        /* \"fest/Artwork.sol\":1432:1449  art.tokenUri = \"\" */\n      swap1\n      dup2\n      tag_139\n      swap2\n      swap1\n      tag_108\n      jump\t// in\n    tag_139:\n      pop\n        /* \"fest/Artwork.sol\":1482:1488  _owner */\n      dup7\n        /* \"fest/Artwork.sol\":1460:1463  art */\n      dup2\n        /* \"fest/Artwork.sol\":1460:1479  art.original_artist */\n      0x08\n      add\n      0x00\n        /* \"fest/Artwork.sol\":1460:1488  art.original_artist = _owner */\n      0x0100\n      exp\n      dup2\n      sload\n      dup2\n      0xffffffffffffffffffffffffffffffffffffffff\n      mul\n      not\n      and\n      swap1\n      dup4\n      0xffffffffffffffffffffffffffffffffffffffff\n      and\n      mul\n      or\n      swap1\n      sstore\n      pop\n        /* \"fest/Artwork.sol\":1499:1508  art_count */\n      0x00\n      dup1\n        /* \"fest/Artwork.sol\":1499:1510  art_count++ */\n      dup2\n      sload\n      dup1\n      swap3\n      swap2\n      swap1\n      tag_140\n      swap1\n      tag_141\n      jump\t// in\n    tag_140:\n      swap2\n      swap1\n      pop\n      sstore\n      pop\n        /* \"fest/Artwork.sol\":1131:1518  {... */\n      pop\n        /* \"fest/Artwork.sol\":910:1518  function createArt(... */\n      pop\n      pop\n      pop\n      pop\n      pop\n      pop\n      jump\t// out\n        /* \"fest/Artwork.sol\":3419:3671  function completeDelivery(... */\n    tag_47:\n        /* \"fest/Artwork.sol\":3498:3511  string memory */\n      0x60\n        /* \"fest/Artwork.sol\":3524:3549  Purchase storage purchase */\n      0x00\n        /* \"fest/Artwork.sol\":3552:3561  purchases */\n      0x03\n        /* \"fest/Artwork.sol\":3552:3574  purchases[purchase_id] */\n      0x00\n        /* \"fest/Artwork.sol\":3562:3573  purchase_id */\n      dup5\n        /* \"fest/Artwork.sol\":3552:3574  purchases[purchase_id] */\n      dup2\n      mstore\n      0x20\n      add\n      swap1\n      dup2\n      mstore\n      0x20\n      add\n      0x00\n      keccak256\n        /* \"fest/Artwork.sol\":3524:3574  Purchase storage purchase = purchases[purchase_id] */\n      swap1\n      pop\n        /* \"fest/Artwork.sol\":3585:3622  purchase.delivery_state = \"Delivered\" */\n      mload(0x40)\n      dup1\n      0x40\n      add\n      0x40\n      mstore\n      dup1\n      0x09\n      dup2\n      mstore\n      0x20\n      add\n      0x44656c6976657265640000000000000000000000000000000000000000000000\n      dup2\n      mstore\n      pop\n        /* \"fest/Artwork.sol\":3585:3593  purchase */\n      dup2\n        /* \"fest/Artwork.sol\":3585:3608  purchase.delivery_state */\n      0x08\n      add\n        /* \"fest/Artwork.sol\":3585:3622  purchase.delivery_state = \"Delivered\" */\n      swap1\n      dup2\n      tag_143\n      swap2\n      swap1\n      tag_108\n      jump\t// in\n    tag_143:\n      pop\n        /* \"fest/Artwork.sol\":3640:3648  purchase */\n      dup1\n        /* \"fest/Artwork.sol\":3640:3663  purchase.delivery_state */\n      0x08\n      add\n        /* \"fest/Artwork.sol\":3633:3663  return purchase.delivery_state */\n      dup1\n      sload\n      tag_144\n      swap1\n      tag_83\n      jump\t// in\n    tag_144:\n      dup1\n      0x1f\n      add\n      0x20\n      dup1\n      swap2\n      div\n      mul\n      0x20\n      add\n      mload(0x40)\n      swap1\n      dup2\n      add\n      0x40\n      mstore\n      dup1\n      swap3\n      swap2\n      swap1\n      dup2\n      dup2\n      mstore\n      0x20\n      add\n      dup3\n      dup1\n      sload\n      tag_145\n      swap1\n      tag_83\n      jump\t// in\n    tag_145:\n      dup1\n      iszero\n      tag_146\n      jumpi\n      dup1\n      0x1f\n      lt\n      tag_147\n      jumpi\n      0x0100\n      dup1\n      dup4\n      sload\n      div\n      mul\n      dup4\n      mstore\n      swap2\n      0x20\n      add\n      swap2\n      jump(tag_146)\n    tag_147:\n      dup3\n      add\n      swap2\n      swap1\n      0x00\n      mstore\n      keccak256(0x00, 0x20)\n      swap1\n    tag_148:\n      dup2\n      sload\n      dup2\n      mstore\n      swap1\n      0x01\n      add\n      swap1\n      0x20\n      add\n      dup1\n      dup4\n      gt\n      tag_148\n      jumpi\n      dup3\n      swap1\n      sub\n      0x1f\n      and\n      dup3\n      add\n      swap2\n    tag_146:\n      pop\n      pop\n      pop\n      pop\n      pop\n      swap2\n      pop\n      pop\n        /* \"fest/Artwork.sol\":3419:3671  function completeDelivery(... */\n      swap2\n      swap1\n      pop\n      jump\t// out\n        /* \"fest/Artwork.sol\":833:878  mapping(uint256 => Purchase) public purchases */\n    tag_52:\n      mstore(0x20, 0x03)\n      dup1\n      0x00\n      mstore\n      keccak256(0x00, 0x40)\n      0x00\n      swap2\n      pop\n      swap1\n      pop\n      dup1\n      0x00\n      add\n      sload\n      swap1\n      dup1\n      0x01\n      add\n      sload\n      swap1\n      dup1\n      0x02\n      add\n      0x00\n      swap1\n      sload\n      swap1\n      0x0100\n      exp\n      swap1\n      div\n      0xffffffffffffffffffffffffffffffffffffffff\n      and\n      swap1\n      dup1\n      0x03\n      add\n      0x00\n      swap1\n      sload\n      swap1\n      0x0100\n      exp\n      swap1\n      div\n      0xffffffffffffffffffffffffffffffffffffffff\n      and\n      swap1\n      dup1\n      0x04\n      add\n      sload\n      swap1\n      dup1\n      0x05\n      add\n      sload\n      swap1\n      dup1\n      0x06\n      add\n      sload\n      swap1\n      dup1\n      0x07\n      add\n      sload\n      swap1\n      dup1\n      0x08\n      add\n      dup1\n      sload\n      tag_149\n      swap1\n      tag_83\n      jump\t// in\n    tag_149:\n      dup1\n      0x1f\n      add\n      0x20\n      dup1\n      swap2\n      div\n      mul\n      0x20\n      add\n      mload(0x40)\n      swap1\n      dup2\n      add\n      0x40\n      mstore\n      dup1\n      swap3\n      swap2\n      swap1\n      dup2\n      dup2\n      mstore\n      0x20\n      add\n      dup3\n      dup1\n      sload\n      tag_150\n      swap1\n      tag_83\n      jump\t// in\n    tag_150:\n      dup1\n      iszero\n      tag_151\n      jumpi\n      dup1\n      0x1f\n      lt\n      tag_152\n      jumpi\n      0x0100\n      dup1\n      dup4\n      sload\n      div\n      mul\n      dup4\n      mstore\n      swap2\n      0x20\n      add\n      swap2\n      jump(tag_151)\n    tag_152:\n      dup3\n      add\n      swap2\n      swap1\n      0x00\n      mstore\n      keccak256(0x00, 0x20)\n      swap1\n    tag_153:\n      dup2\n      sload\n      dup2\n      mstore\n      swap1\n      0x01\n      add\n      swap1\n      0x20\n      add\n      dup1\n      dup4\n      gt\n      tag_153\n      jumpi\n      dup3\n      swap1\n      sub\n      0x1f\n      and\n      dup3\n      add\n      swap2\n    tag_151:\n      pop\n      pop\n      pop\n      pop\n      pop\n      swap1\n      dup1\n      0x09\n      add\n      0x00\n      swap1\n      sload\n      swap1\n      0x0100\n      exp\n      swap1\n      div\n      0xff\n      and\n      swap1\n      pop\n      dup11\n      jump\t// out\n        /* \"fest/Artwork.sol\":4587:5256  function goodsDelivered(uint256 _purchase_id) public payable{... */\n    tag_57:\n        /* \"fest/Artwork.sol\":4658:4683  Purchase storage purchase */\n      0x00\n        /* \"fest/Artwork.sol\":4686:4695  purchases */\n      0x03\n        /* \"fest/Artwork.sol\":4686:4709  purchases[_purchase_id] */\n      0x00\n        /* \"fest/Artwork.sol\":4696:4708  _purchase_id */\n      dup4\n        /* \"fest/Artwork.sol\":4686:4709  purchases[_purchase_id] */\n      dup2\n      mstore\n      0x20\n      add\n      swap1\n      dup2\n      mstore\n      0x20\n      add\n      0x00\n      keccak256\n        /* \"fest/Artwork.sol\":4658:4709  Purchase storage purchase = purchases[_purchase_id] */\n      swap1\n      pop\n        /* \"fest/Artwork.sol\":4748:4752  true */\n      0x01\n        /* \"fest/Artwork.sol\":4720:4728  purchase */\n      dup2\n        /* \"fest/Artwork.sol\":4720:4745  purchase.delivered_status */\n      0x09\n      add\n      0x00\n        /* \"fest/Artwork.sol\":4720:4752  purchase.delivered_status = true */\n      0x0100\n      exp\n      dup2\n      sload\n      dup2\n      0xff\n      mul\n      not\n      and\n      swap1\n      dup4\n      iszero\n      iszero\n      mul\n      or\n      swap1\n      sstore\n      pop\n        /* \"fest/Artwork.sol\":4765:4780  Art storage art */\n      0x00\n        /* \"fest/Artwork.sol\":4783:4791  artworks */\n      0x02\n        /* \"fest/Artwork.sol\":4783:4807  artworks[purchase.artId] */\n      0x00\n        /* \"fest/Artwork.sol\":4792:4800  purchase */\n      dup4\n        /* \"fest/Artwork.sol\":4792:4806  purchase.artId */\n      0x01\n      add\n      sload\n        /* \"fest/Artwork.sol\":4783:4807  artworks[purchase.artId] */\n      dup2\n      mstore\n      0x20\n      add\n      swap1\n      dup2\n      mstore\n      0x20\n      add\n      0x00\n      keccak256\n        /* \"fest/Artwork.sol\":4765:4807  Art storage art = artworks[purchase.artId] */\n      swap1\n      pop\n        /* \"fest/Artwork.sol\":4820:4834  uint256 amount */\n      0x00\n        /* \"fest/Artwork.sol\":4837:4845  purchase */\n      dup3\n        /* \"fest/Artwork.sol\":4837:4863  purchase.amounts_remaining */\n      0x07\n      add\n      sload\n        /* \"fest/Artwork.sol\":4820:4863  uint256 amount = purchase.amounts_remaining */\n      swap1\n      pop\n        /* \"fest/Artwork.sol\":4897:4903  amount */\n      dup1\n        /* \"fest/Artwork.sol\":4884:4893  msg.value */\n      callvalue\n        /* \"fest/Artwork.sol\":4884:4903  msg.value == amount */\n      eq\n        /* \"fest/Artwork.sol\":4876:4932  require(msg.value == amount, \"Incorrect payment amount\") */\n      tag_155\n      jumpi\n      mload(0x40)\n      0x08c379a000000000000000000000000000000000000000000000000000000000\n      dup2\n      mstore\n      0x04\n      add\n      tag_156\n      swap1\n      tag_157\n      jump\t// in\n    tag_156:\n      mload(0x40)\n      dup1\n      swap2\n      sub\n      swap1\n      revert\n    tag_155:\n        /* \"fest/Artwork.sol\":4946:4955  bool sent */\n      0x00\n        /* \"fest/Artwork.sol\":4969:4972  art */\n      dup3\n        /* \"fest/Artwork.sol\":4969:4978  art.owner */\n      0x00\n      add\n      0x00\n      swap1\n      sload\n      swap1\n      0x0100\n      exp\n      swap1\n      div\n      0xffffffffffffffffffffffffffffffffffffffff\n      and\n        /* \"fest/Artwork.sol\":4961:4984  payable(art.owner).call */\n      0xffffffffffffffffffffffffffffffffffffffff\n      and\n        /* \"fest/Artwork.sol\":4992:4998  amount */\n      dup3\n        /* \"fest/Artwork.sol\":4961:5003  payable(art.owner).call{value: amount}(\"\") */\n      mload(0x40)\n      tag_158\n      swap1\n      tag_159\n      jump\t// in\n    tag_158:\n      0x00\n      mload(0x40)\n      dup1\n      dup4\n      sub\n      dup2\n      dup6\n      dup8\n      gas\n      call\n      swap3\n      pop\n      pop\n      pop\n      returndatasize\n      dup1\n      0x00\n      dup2\n      eq\n      tag_162\n      jumpi\n      mload(0x40)\n      swap2\n      pop\n      and(add(returndatasize, 0x3f), not(0x1f))\n      dup3\n      add\n      0x40\n      mstore\n      returndatasize\n      dup3\n      mstore\n      returndatasize\n      0x00\n      0x20\n      dup5\n      add\n      returndatacopy\n      jump(tag_161)\n    tag_162:\n      0x60\n      swap2\n      pop\n    tag_161:\n      pop\n        /* \"fest/Artwork.sol\":4945:5003  (bool sent, ) = payable(art.owner).call{value: amount}(\"\") */\n      pop\n      swap1\n      pop\n        /* \"fest/Artwork.sol\":5022:5026  sent */\n      dup1\n        /* \"fest/Artwork.sol\":5014:5045  require(sent, \"Payment failed\") */\n      tag_163\n      jumpi\n      mload(0x40)\n      0x08c379a000000000000000000000000000000000000000000000000000000000\n      dup2\n      mstore\n      0x04\n      add\n      tag_164\n      swap1\n      tag_165\n      jump\t// in\n    tag_164:\n      mload(0x40)\n      dup1\n      swap2\n      sub\n      swap1\n      revert\n    tag_163:\n        /* \"fest/Artwork.sol\":5061:5124  ArtworkPurchased(purchase.artId, msg.sender, art.owner, amount) */\n      0xa27a7e11a23b47207454244ae3eddefdfaf476d024076f73c2d5bb9f36ebe8db\n        /* \"fest/Artwork.sol\":5078:5086  purchase */\n      dup5\n        /* \"fest/Artwork.sol\":5078:5092  purchase.artId */\n      0x01\n      add\n      sload\n        /* \"fest/Artwork.sol\":5094:5104  msg.sender */\n      caller\n        /* \"fest/Artwork.sol\":5106:5109  art */\n      dup6\n        /* \"fest/Artwork.sol\":5106:5115  art.owner */\n      0x00\n      add\n      0x00\n      swap1\n      sload\n      swap1\n      0x0100\n      exp\n      swap1\n      div\n      0xffffffffffffffffffffffffffffffffffffffff\n      and\n        /* \"fest/Artwork.sol\":5117:5123  amount */\n      dup6\n        /* \"fest/Artwork.sol\":5061:5124  ArtworkPurchased(purchase.artId, msg.sender, art.owner, amount) */\n      mload(0x40)\n      tag_166\n      swap5\n      swap4\n      swap3\n      swap2\n      swap1\n      tag_167\n      jump\t// in\n    tag_166:\n      mload(0x40)\n      dup1\n      swap2\n      sub\n      swap1\n      log1\n        /* \"fest/Artwork.sol\":5147:5157  msg.sender */\n      caller\n        /* \"fest/Artwork.sol\":5135:5138  art */\n      dup4\n        /* \"fest/Artwork.sol\":5135:5144  art.owner */\n      0x00\n      add\n      0x00\n        /* \"fest/Artwork.sol\":5135:5157  art.owner = msg.sender */\n      0x0100\n      exp\n      dup2\n      sload\n      dup2\n      0xffffffffffffffffffffffffffffffffffffffff\n      mul\n      not\n      and\n      swap1\n      dup4\n      0xffffffffffffffffffffffffffffffffffffffff\n      and\n      mul\n      or\n      swap1\n      sstore\n      pop\n        /* \"fest/Artwork.sol\":5195:5201  amount */\n      dup2\n        /* \"fest/Artwork.sol\":5170:5178  purchase */\n      dup5\n        /* \"fest/Artwork.sol\":5170:5191  purchase.amounts_paid */\n      0x06\n      add\n      0x00\n        /* \"fest/Artwork.sol\":5170:5201  purchase.amounts_paid += amount */\n      dup3\n      dup3\n      sload\n      tag_168\n      swap2\n      swap1\n      tag_169\n      jump\t// in\n    tag_168:\n      swap3\n      pop\n      pop\n      dup2\n      swap1\n      sstore\n      pop\n        /* \"fest/Artwork.sol\":5242:5248  amount */\n      dup2\n        /* \"fest/Artwork.sol\":5212:5220  purchase */\n      dup5\n        /* \"fest/Artwork.sol\":5212:5238  purchase.amounts_remaining */\n      0x07\n      add\n      0x00\n        /* \"fest/Artwork.sol\":5212:5248  purchase.amounts_remaining -= amount */\n      dup3\n      dup3\n      sload\n      tag_170\n      swap2\n      swap1\n      tag_171\n      jump\t// in\n    tag_170:\n      swap3\n      pop\n      pop\n      dup2\n      swap1\n      sstore\n      pop\n        /* \"fest/Artwork.sol\":4647:5256  {... */\n      pop\n      pop\n      pop\n      pop\n        /* \"fest/Artwork.sol\":4587:5256  function goodsDelivered(uint256 _purchase_id) public payable{... */\n      pop\n      jump\t// out\n        /* \"fest/Artwork.sol\":3706:3859  function getArtQuantity(uint256 art_id) public view returns (uint256) {... */\n    tag_61:\n        /* \"fest/Artwork.sol\":3767:3774  uint256 */\n      0x00\n        /* \"fest/Artwork.sol\":3787:3802  Art storage art */\n      dup1\n        /* \"fest/Artwork.sol\":3805:3813  artworks */\n      0x02\n        /* \"fest/Artwork.sol\":3805:3821  artworks[art_id] */\n      0x00\n        /* \"fest/Artwork.sol\":3814:3820  art_id */\n      dup5\n        /* \"fest/Artwork.sol\":3805:3821  artworks[art_id] */\n      dup2\n      mstore\n      0x20\n      add\n      swap1\n      dup2\n      mstore\n      0x20\n      add\n      0x00\n      keccak256\n        /* \"fest/Artwork.sol\":3787:3821  Art storage art = artworks[art_id] */\n      swap1\n      pop\n        /* \"fest/Artwork.sol\":3839:3842  art */\n      dup1\n        /* \"fest/Artwork.sol\":3839:3851  art.quantity */\n      0x05\n      add\n      sload\n        /* \"fest/Artwork.sol\":3832:3851  return art.quantity */\n      swap2\n      pop\n      pop\n        /* \"fest/Artwork.sol\":3706:3859  function getArtQuantity(uint256 art_id) public view returns (uint256) {... */\n      swap2\n      swap1\n      pop\n      jump\t// out\n        /* \"fest/Artwork.sol\":5291:5619  function getPurchases() public view returns (Purchase[] memory) {... */\n    tag_65:\n        /* \"fest/Artwork.sol\":5336:5353  Purchase[] memory */\n      0x60\n        /* \"fest/Artwork.sol\":5366:5396  Purchase[] memory allPurchases */\n      0x00\n        /* \"fest/Artwork.sol\":5414:5428  purchase_count */\n      sload(0x01)\n        /* \"fest/Artwork.sol\":5399:5429  new Purchase[](purchase_count) */\n      0xffffffffffffffff\n      dup2\n      gt\n      iszero\n      tag_174\n      jumpi\n      tag_175\n      tag_74\n      jump\t// in\n    tag_175:\n    tag_174:\n      mload(0x40)\n      swap1\n      dup1\n      dup3\n      mstore\n      dup1\n      0x20\n      mul\n      0x20\n      add\n      dup3\n      add\n      0x40\n      mstore\n      dup1\n      iszero\n      tag_176\n      jumpi\n      dup2\n      0x20\n      add\n    tag_177:\n      tag_178\n      tag_179\n      jump\t// in\n    tag_178:\n      dup2\n      mstore\n      0x20\n      add\n      swap1\n      0x01\n      swap1\n      sub\n      swap1\n      dup2\n      tag_177\n      jumpi\n      swap1\n      pop\n    tag_176:\n      pop\n        /* \"fest/Artwork.sol\":5366:5429  Purchase[] memory allPurchases = new Purchase[](purchase_count) */\n      swap1\n      pop\n        /* \"fest/Artwork.sol\":5445:5451  uint i */\n      0x00\n        /* \"fest/Artwork.sol\":5440:5582  for (uint i = 0; i < purchase_count; i++) {... */\n    tag_180:\n        /* \"fest/Artwork.sol\":5461:5475  purchase_count */\n      sload(0x01)\n        /* \"fest/Artwork.sol\":5457:5458  i */\n      dup2\n        /* \"fest/Artwork.sol\":5457:5475  i < purchase_count */\n      lt\n        /* \"fest/Artwork.sol\":5440:5582  for (uint i = 0; i < purchase_count; i++) {... */\n      iszero\n      tag_181\n      jumpi\n        /* \"fest/Artwork.sol\":5497:5518  Purchase storage item */\n      0x00\n        /* \"fest/Artwork.sol\":5521:5530  purchases */\n      0x03\n        /* \"fest/Artwork.sol\":5521:5533  purchases[i] */\n      0x00\n        /* \"fest/Artwork.sol\":5531:5532  i */\n      dup4\n        /* \"fest/Artwork.sol\":5521:5533  purchases[i] */\n      dup2\n      mstore\n      0x20\n      add\n      swap1\n      dup2\n      mstore\n      0x20\n      add\n      0x00\n      keccak256\n        /* \"fest/Artwork.sol\":5497:5533  Purchase storage item = purchases[i] */\n      swap1\n      pop\n        /* \"fest/Artwork.sol\":5566:5570  item */\n      dup1\n        /* \"fest/Artwork.sol\":5548:5570  allPurchases[i] = item */\n      mload(0x40)\n      dup1\n      0x0140\n      add\n      0x40\n      mstore\n      swap1\n      dup2\n      0x00\n      dup3\n      add\n      sload\n      dup2\n      mstore\n      0x20\n      add\n      0x01\n      dup3\n      add\n      sload\n      dup2\n      mstore\n      0x20\n      add\n      0x02\n      dup3\n      add\n      0x00\n      swap1\n      sload\n      swap1\n      0x0100\n      exp\n      swap1\n      div\n      0xffffffffffffffffffffffffffffffffffffffff\n      and\n      0xffffffffffffffffffffffffffffffffffffffff\n      and\n      0xffffffffffffffffffffffffffffffffffffffff\n      and\n      dup2\n      mstore\n      0x20\n      add\n      0x03\n      dup3\n      add\n      0x00\n      swap1\n      sload\n      swap1\n      0x0100\n      exp\n      swap1\n      div\n      0xffffffffffffffffffffffffffffffffffffffff\n      and\n      0xffffffffffffffffffffffffffffffffffffffff\n      and\n      0xffffffffffffffffffffffffffffffffffffffff\n      and\n      dup2\n      mstore\n      0x20\n      add\n      0x04\n      dup3\n      add\n      sload\n      dup2\n      mstore\n      0x20\n      add\n      0x05\n      dup3\n      add\n      sload\n      dup2\n      mstore\n      0x20\n      add\n      0x06\n      dup3\n      add\n      sload\n      dup2\n      mstore\n      0x20\n      add\n      0x07\n      dup3\n      add\n      sload\n      dup2\n      mstore\n      0x20\n      add\n      0x08\n      dup3\n      add\n      dup1\n      sload\n      tag_183\n      swap1\n      tag_83\n      jump\t// in\n    tag_183:\n      dup1\n      0x1f\n      add\n      0x20\n      dup1\n      swap2\n      div\n      mul\n      0x20\n      add\n      mload(0x40)\n      swap1\n      dup2\n      add\n      0x40\n      mstore\n      dup1\n      swap3\n      swap2\n      swap1\n      dup2\n      dup2\n      mstore\n      0x20\n      add\n      dup3\n      dup1\n      sload\n      tag_184\n      swap1\n      tag_83\n      jump\t// in\n    tag_184:\n      dup1\n      iszero\n      tag_185\n      jumpi\n      dup1\n      0x1f\n      lt\n      tag_186\n      jumpi\n      0x0100\n      dup1\n      dup4\n      sload\n      div\n      mul\n      dup4\n      mstore\n      swap2\n      0x20\n      add\n      swap2\n      jump(tag_185)\n    tag_186:\n      dup3\n      add\n      swap2\n      swap1\n      0x00\n      mstore\n      keccak256(0x00, 0x20)\n      swap1\n    tag_187:\n      dup2\n      sload\n      dup2\n      mstore\n      swap1\n      0x01\n      add\n      swap1\n      0x20\n      add\n      dup1\n      dup4\n      gt\n      tag_187\n      jumpi\n      dup3\n      swap1\n      sub\n      0x1f\n      and\n      dup3\n      add\n      swap2\n    tag_185:\n      pop\n      pop\n      pop\n      pop\n      pop\n      dup2\n      mstore\n      0x20\n      add\n      0x09\n      dup3\n      add\n      0x00\n      swap1\n      sload\n      swap1\n      0x0100\n      exp\n      swap1\n      div\n      0xff\n      and\n      iszero\n      iszero\n      iszero\n      iszero\n      dup2\n      mstore\n      pop\n      pop\n        /* \"fest/Artwork.sol\":5548:5560  allPurchases */\n      dup4\n        /* \"fest/Artwork.sol\":5561:5562  i */\n      dup4\n        /* \"fest/Artwork.sol\":5548:5563  allPurchases[i] */\n      dup2\n      mload\n      dup2\n      lt\n      tag_188\n      jumpi\n      tag_189\n      tag_105\n      jump\t// in\n    tag_189:\n    tag_188:\n      0x20\n      mul\n      0x20\n      add\n      add\n        /* \"fest/Artwork.sol\":5548:5570  allPurchases[i] = item */\n      dup2\n      swap1\n      mstore\n      pop\n        /* \"fest/Artwork.sol\":5482:5582  {... */\n      pop\n        /* \"fest/Artwork.sol\":5477:5480  i++ */\n      dup1\n      dup1\n      0x01\n      add\n      swap2\n      pop\n      pop\n        /* \"fest/Artwork.sol\":5440:5582  for (uint i = 0; i < purchase_count; i++) {... */\n      jump(tag_180)\n    tag_181:\n      pop\n        /* \"fest/Artwork.sol\":5599:5611  allPurchases */\n      dup1\n        /* \"fest/Artwork.sol\":5592:5611  return allPurchases */\n      swap2\n      pop\n      pop\n        /* \"fest/Artwork.sol\":5291:5619  function getPurchases() public view returns (Purchase[] memory) {... */\n      swap1\n      jump\t// out\n        /* \"fest/Artwork.sol\":2016:3120  function buyArtwork(uint256 art_id) public payable {... */\n    tag_70:\n        /* \"fest/Artwork.sol\":2078:2093  Art storage art */\n      0x00\n        /* \"fest/Artwork.sol\":2096:2104  artworks */\n      0x02\n        /* \"fest/Artwork.sol\":2096:2112  artworks[art_id] */\n      0x00\n        /* \"fest/Artwork.sol\":2105:2111  art_id */\n      dup4\n        /* \"fest/Artwork.sol\":2096:2112  artworks[art_id] */\n      dup2\n      mstore\n      0x20\n      add\n      swap1\n      dup2\n      mstore\n      0x20\n      add\n      0x00\n      keccak256\n        /* \"fest/Artwork.sol\":2078:2112  Art storage art = artworks[art_id] */\n      swap1\n      pop\n        /* \"fest/Artwork.sol\":2148:2149  0 */\n      0x00\n        /* \"fest/Artwork.sol\":2133:2136  art */\n      dup2\n        /* \"fest/Artwork.sol\":2133:2145  art.quantity */\n      0x05\n      add\n      sload\n        /* \"fest/Artwork.sol\":2133:2149  art.quantity > 0 */\n      gt\n        /* \"fest/Artwork.sol\":2125:2177  require(art.quantity > 0, \"Artwork is out of stock\") */\n      tag_191\n      jumpi\n      mload(0x40)\n      0x08c379a000000000000000000000000000000000000000000000000000000000\n      dup2\n      mstore\n      0x04\n      add\n      tag_192\n      swap1\n      tag_193\n      jump\t// in\n    tag_192:\n      mload(0x40)\n      dup1\n      swap2\n      sub\n      swap1\n      revert\n    tag_191:\n        /* \"fest/Artwork.sol\":2190:2204  uint256 amount */\n      0x00\n        /* \"fest/Artwork.sol\":2224:2227  100 */\n      0x64\n        /* \"fest/Artwork.sol\":2213:2216  art */\n      dup3\n        /* \"fest/Artwork.sol\":2213:2222  art.price */\n      0x03\n      add\n      sload\n        /* \"fest/Artwork.sol\":2208:2210  10 */\n      0x0a\n        /* \"fest/Artwork.sol\":2208:2222  10 * art.price */\n      tag_194\n      swap2\n      swap1\n      tag_195\n      jump\t// in\n    tag_194:\n        /* \"fest/Artwork.sol\":2207:2227  (10 * art.price)/100 */\n      tag_196\n      swap2\n      swap1\n      tag_197\n      jump\t// in\n    tag_196:\n        /* \"fest/Artwork.sol\":2190:2227  uint256 amount = (10 * art.price)/100 */\n      swap1\n      pop\n        /* \"fest/Artwork.sol\":2351:2357  amount */\n      dup1\n        /* \"fest/Artwork.sol\":2338:2347  msg.value */\n      callvalue\n        /* \"fest/Artwork.sol\":2338:2357  msg.value == amount */\n      eq\n        /* \"fest/Artwork.sol\":2330:2386  require(msg.value == amount, \"Incorrect payment amount\") */\n      tag_198\n      jumpi\n      mload(0x40)\n      0x08c379a000000000000000000000000000000000000000000000000000000000\n      dup2\n      mstore\n      0x04\n      add\n      tag_199\n      swap1\n      tag_157\n      jump\t// in\n    tag_199:\n      mload(0x40)\n      dup1\n      swap2\n      sub\n      swap1\n      revert\n    tag_198:\n        /* \"fest/Artwork.sol\":2400:2409  bool sent */\n      0x00\n        /* \"fest/Artwork.sol\":2423:2426  art */\n      dup3\n        /* \"fest/Artwork.sol\":2423:2432  art.owner */\n      0x00\n      add\n      0x00\n      swap1\n      sload\n      swap1\n      0x0100\n      exp\n      swap1\n      div\n      0xffffffffffffffffffffffffffffffffffffffff\n      and\n        /* \"fest/Artwork.sol\":2415:2438  payable(art.owner).call */\n      0xffffffffffffffffffffffffffffffffffffffff\n      and\n        /* \"fest/Artwork.sol\":2446:2452  amount */\n      dup3\n        /* \"fest/Artwork.sol\":2415:2457  payable(art.owner).call{value: amount}(\"\") */\n      mload(0x40)\n      tag_200\n      swap1\n      tag_159\n      jump\t// in\n    tag_200:\n      0x00\n      mload(0x40)\n      dup1\n      dup4\n      sub\n      dup2\n      dup6\n      dup8\n      gas\n      call\n      swap3\n      pop\n      pop\n      pop\n      returndatasize\n      dup1\n      0x00\n      dup2\n      eq\n      tag_203\n      jumpi\n      mload(0x40)\n      swap2\n      pop\n      and(add(returndatasize, 0x3f), not(0x1f))\n      dup3\n      add\n      0x40\n      mstore\n      returndatasize\n      dup3\n      mstore\n      returndatasize\n      0x00\n      0x20\n      dup5\n      add\n      returndatacopy\n      jump(tag_202)\n    tag_203:\n      0x60\n      swap2\n      pop\n    tag_202:\n      pop\n        /* \"fest/Artwork.sol\":2399:2457  (bool sent, ) = payable(art.owner).call{value: amount}(\"\") */\n      pop\n      swap1\n      pop\n        /* \"fest/Artwork.sol\":2476:2480  sent */\n      dup1\n        /* \"fest/Artwork.sol\":2468:2499  require(sent, \"Payment failed\") */\n      tag_204\n      jumpi\n      mload(0x40)\n      0x08c379a000000000000000000000000000000000000000000000000000000000\n      dup2\n      mstore\n      0x04\n      add\n      tag_205\n      swap1\n      tag_165\n      jump\t// in\n    tag_205:\n      mload(0x40)\n      dup1\n      swap2\n      sub\n      swap1\n      revert\n    tag_204:\n        /* \"fest/Artwork.sol\":2512:2515  art */\n      dup3\n        /* \"fest/Artwork.sol\":2512:2524  art.quantity */\n      0x05\n      add\n      0x00\n        /* \"fest/Artwork.sol\":2512:2526  art.quantity-- */\n      dup2\n      sload\n      dup1\n      swap3\n      swap2\n      swap1\n      tag_206\n      swap1\n      tag_207\n      jump\t// in\n    tag_206:\n      swap2\n      swap1\n      pop\n      sstore\n      pop\n        /* \"fest/Artwork.sol\":2539:2564  Purchase storage purchase */\n      0x00\n        /* \"fest/Artwork.sol\":2567:2576  purchases */\n      0x03\n        /* \"fest/Artwork.sol\":2567:2592  purchases[purchase_count] */\n      0x00\n        /* \"fest/Artwork.sol\":2577:2591  purchase_count */\n      sload(0x01)\n        /* \"fest/Artwork.sol\":2567:2592  purchases[purchase_count] */\n      dup2\n      mstore\n      0x20\n      add\n      swap1\n      dup2\n      mstore\n      0x20\n      add\n      0x00\n      keccak256\n        /* \"fest/Artwork.sol\":2539:2592  Purchase storage purchase = purchases[purchase_count] */\n      swap1\n      pop\n        /* \"fest/Artwork.sol\":2617:2631  purchase_count */\n      sload(0x01)\n        /* \"fest/Artwork.sol\":2603:2611  purchase */\n      dup2\n        /* \"fest/Artwork.sol\":2603:2614  purchase.id */\n      0x00\n      add\n        /* \"fest/Artwork.sol\":2603:2631  purchase.id = purchase_count */\n      dup2\n      swap1\n      sstore\n      pop\n        /* \"fest/Artwork.sol\":2659:2665  art_id */\n      dup5\n        /* \"fest/Artwork.sol\":2642:2650  purchase */\n      dup2\n        /* \"fest/Artwork.sol\":2642:2656  purchase.artId */\n      0x01\n      add\n        /* \"fest/Artwork.sol\":2642:2665  purchase.artId = art_id */\n      dup2\n      swap1\n      sstore\n      pop\n        /* \"fest/Artwork.sol\":2693:2703  msg.sender */\n      caller\n        /* \"fest/Artwork.sol\":2676:2684  purchase */\n      dup2\n        /* \"fest/Artwork.sol\":2676:2690  purchase.buyer */\n      0x02\n      add\n      0x00\n        /* \"fest/Artwork.sol\":2676:2703  purchase.buyer = msg.sender */\n      0x0100\n      exp\n      dup2\n      sload\n      dup2\n      0xffffffffffffffffffffffffffffffffffffffff\n      mul\n      not\n      and\n      swap1\n      dup4\n      0xffffffffffffffffffffffffffffffffffffffff\n      and\n      mul\n      or\n      swap1\n      sstore\n      pop\n        /* \"fest/Artwork.sol\":2732:2735  art */\n      dup4\n        /* \"fest/Artwork.sol\":2732:2741  art.owner */\n      0x00\n      add\n      0x00\n      swap1\n      sload\n      swap1\n      0x0100\n      exp\n      swap1\n      div\n      0xffffffffffffffffffffffffffffffffffffffff\n      and\n        /* \"fest/Artwork.sol\":2714:2722  purchase */\n      dup2\n        /* \"fest/Artwork.sol\":2714:2729  purchase.seller */\n      0x03\n      add\n      0x00\n        /* \"fest/Artwork.sol\":2714:2741  purchase.seller = art.owner */\n      0x0100\n      exp\n      dup2\n      sload\n      dup2\n      0xffffffffffffffffffffffffffffffffffffffff\n      mul\n      not\n      and\n      swap1\n      dup4\n      0xffffffffffffffffffffffffffffffffffffffff\n      and\n      mul\n      or\n      swap1\n      sstore\n      pop\n        /* \"fest/Artwork.sol\":2770:2776  amount */\n      dup3\n        /* \"fest/Artwork.sol\":2752:2760  purchase */\n      dup2\n        /* \"fest/Artwork.sol\":2752:2767  purchase.amount */\n      0x04\n      add\n        /* \"fest/Artwork.sol\":2752:2776  purchase.amount = amount */\n      dup2\n      swap1\n      sstore\n      pop\n        /* \"fest/Artwork.sol\":2811:2814  art */\n      dup4\n        /* \"fest/Artwork.sol\":2811:2820  art.price */\n      0x03\n      add\n      sload\n        /* \"fest/Artwork.sol\":2787:2795  purchase */\n      dup2\n        /* \"fest/Artwork.sol\":2787:2808  purchase.total_amount */\n      0x05\n      add\n        /* \"fest/Artwork.sol\":2787:2820  purchase.total_amount = art.price */\n      dup2\n      swap1\n      sstore\n      pop\n        /* \"fest/Artwork.sol\":2855:2861  amount */\n      dup3\n        /* \"fest/Artwork.sol\":2831:2839  purchase */\n      dup2\n        /* \"fest/Artwork.sol\":2831:2852  purchase.amounts_paid */\n      0x06\n      add\n        /* \"fest/Artwork.sol\":2831:2861  purchase.amounts_paid = amount */\n      dup2\n      swap1\n      sstore\n      pop\n        /* \"fest/Artwork.sol\":2913:2919  amount */\n      dup3\n        /* \"fest/Artwork.sol\":2901:2904  art */\n      dup5\n        /* \"fest/Artwork.sol\":2901:2910  art.price */\n      0x03\n      add\n      sload\n        /* \"fest/Artwork.sol\":2901:2919  art.price - amount */\n      tag_208\n      swap2\n      swap1\n      tag_171\n      jump\t// in\n    tag_208:\n        /* \"fest/Artwork.sol\":2872:2880  purchase */\n      dup2\n        /* \"fest/Artwork.sol\":2872:2898  purchase.amounts_remaining */\n      0x07\n      add\n        /* \"fest/Artwork.sol\":2872:2919  purchase.amounts_remaining = art.price - amount */\n      dup2\n      swap1\n      sstore\n      pop\n        /* \"fest/Artwork.sol\":2930:2970  purchase.delivery_state = \"in warehouse\" */\n      mload(0x40)\n      dup1\n      0x40\n      add\n      0x40\n      mstore\n      dup1\n      0x0c\n      dup2\n      mstore\n      0x20\n      add\n      0x696e2077617265686f7573650000000000000000000000000000000000000000\n      dup2\n      mstore\n      pop\n        /* \"fest/Artwork.sol\":2930:2938  purchase */\n      dup2\n        /* \"fest/Artwork.sol\":2930:2953  purchase.delivery_state */\n      0x08\n      add\n        /* \"fest/Artwork.sol\":2930:2970  purchase.delivery_state = \"in warehouse\" */\n      swap1\n      dup2\n      tag_209\n      swap2\n      swap1\n      tag_108\n      jump\t// in\n    tag_209:\n      pop\n        /* \"fest/Artwork.sol\":3009:3014  false */\n      0x00\n        /* \"fest/Artwork.sol\":2981:2989  purchase */\n      dup2\n        /* \"fest/Artwork.sol\":2981:3006  purchase.delivered_status */\n      0x09\n      add\n      0x00\n        /* \"fest/Artwork.sol\":2981:3014  purchase.delivered_status = false */\n      0x0100\n      exp\n      dup2\n      sload\n      dup2\n      0xff\n      mul\n      not\n      and\n      swap1\n      dup4\n      iszero\n      iszero\n      mul\n      or\n      swap1\n      sstore\n      pop\n        /* \"fest/Artwork.sol\":3025:3039  purchase_count */\n      0x01\n      0x00\n        /* \"fest/Artwork.sol\":3025:3041  purchase_count++ */\n      dup2\n      sload\n      dup1\n      swap3\n      swap2\n      swap1\n      tag_210\n      swap1\n      tag_141\n      jump\t// in\n    tag_210:\n      swap2\n      swap1\n      pop\n      sstore\n      pop\n        /* \"fest/Artwork.sol\":3057:3112  ArtworkPurchased(art_id, msg.sender, art.owner, amount) */\n      0xa27a7e11a23b47207454244ae3eddefdfaf476d024076f73c2d5bb9f36ebe8db\n        /* \"fest/Artwork.sol\":3074:3080  art_id */\n      dup6\n        /* \"fest/Artwork.sol\":3082:3092  msg.sender */\n      caller\n        /* \"fest/Artwork.sol\":3094:3097  art */\n      dup7\n        /* \"fest/Artwork.sol\":3094:3103  art.owner */\n      0x00\n      add\n      0x00\n      swap1\n      sload\n      swap1\n      0x0100\n      exp\n      swap1\n      div\n      0xffffffffffffffffffffffffffffffffffffffff\n      and\n        /* \"fest/Artwork.sol\":3105:3111  amount */\n      dup7\n        /* \"fest/Artwork.sol\":3057:3112  ArtworkPurchased(art_id, msg.sender, art.owner, amount) */\n      mload(0x40)\n      tag_211\n      swap5\n      swap4\n      swap3\n      swap2\n      swap1\n      tag_167\n      jump\t// in\n    tag_211:\n      mload(0x40)\n      dup1\n      swap2\n      sub\n      swap1\n      log1\n        /* \"fest/Artwork.sol\":2067:3120  {... */\n      pop\n      pop\n      pop\n      pop\n        /* \"fest/Artwork.sol\":2016:3120  function buyArtwork(uint256 art_id) public payable {... */\n      pop\n      jump\t// out\n    tag_78:\n      mload(0x40)\n      dup1\n      0x0120\n      add\n      0x40\n      mstore\n      dup1\n      and(0xffffffffffffffffffffffffffffffffffffffff, 0x00)\n      dup2\n      mstore\n      0x20\n      add\n      0x60\n      dup2\n      mstore\n      0x20\n      add\n      0x60\n      dup2\n      mstore\n      0x20\n      add\n      0x00\n      dup2\n      mstore\n      0x20\n      add\n      0x60\n      dup2\n      mstore\n      0x20\n      add\n      0x00\n      dup2\n      mstore\n      0x20\n      add\n      iszero(iszero(0x00))\n      dup2\n      mstore\n      0x20\n      add\n      0x60\n      dup2\n      mstore\n      0x20\n      add\n      and(0xffffffffffffffffffffffffffffffffffffffff, 0x00)\n      dup2\n      mstore\n      pop\n      swap1\n      jump\t// out\n    tag_179:\n      mload(0x40)\n      dup1\n      0x0140\n      add\n      0x40\n      mstore\n      dup1\n      0x00\n      dup2\n      mstore\n      0x20\n      add\n      0x00\n      dup2\n      mstore\n      0x20\n      add\n      and(0xffffffffffffffffffffffffffffffffffffffff, 0x00)\n      dup2\n      mstore\n      0x20\n      add\n      and(0xffffffffffffffffffffffffffffffffffffffff, 0x00)\n      dup2\n      mstore\n      0x20\n      add\n      0x00\n      dup2\n      mstore\n      0x20\n      add\n      0x00\n      dup2\n      mstore\n      0x20\n      add\n      0x00\n      dup2\n      mstore\n      0x20\n      add\n      0x00\n      dup2\n      mstore\n      0x20\n      add\n      0x60\n      dup2\n      mstore\n      0x20\n      add\n      iszero(iszero(0x00))\n      dup2\n      mstore\n      pop\n      swap1\n      jump\t// out\n        /* \"#utility.yul\":7:140   */\n    tag_212:\n        /* \"#utility.yul\":93:99   */\n      0x00\n        /* \"#utility.yul\":127:132   */\n      dup2\n        /* \"#utility.yul\":121:133   */\n      mload\n        /* \"#utility.yul\":111:133   */\n      swap1\n      pop\n        /* \"#utility.yul\":7:140   */\n      swap2\n      swap1\n      pop\n      jump\t// out\n        /* \"#utility.yul\":146:349   */\n    tag_213:\n        /* \"#utility.yul\":264:275   */\n      0x00\n        /* \"#utility.yul\":298:304   */\n      dup3\n        /* \"#utility.yul\":293:296   */\n      dup3\n        /* \"#utility.yul\":286:305   */\n      mstore\n        /* \"#utility.yul\":338:342   */\n      0x20\n        /* \"#utility.yul\":333:336   */\n      dup3\n        /* \"#utility.yul\":329:343   */\n      add\n        /* \"#utility.yul\":314:343   */\n      swap1\n      pop\n        /* \"#utility.yul\":146:349   */\n      swap3\n      swap2\n      pop\n      pop\n      jump\t// out\n        /* \"#utility.yul\":355:506   */\n    tag_214:\n        /* \"#utility.yul\":441:445   */\n      0x00\n        /* \"#utility.yul\":464:467   */\n      dup2\n        /* \"#utility.yul\":456:467   */\n      swap1\n      pop\n        /* \"#utility.yul\":494:498   */\n      0x20\n        /* \"#utility.yul\":489:492   */\n      dup3\n        /* \"#utility.yul\":485:499   */\n      add\n        /* \"#utility.yul\":477:499   */\n      swap1\n      pop\n        /* \"#utility.yul\":355:506   */\n      swap2\n      swap1\n      pop\n      jump\t// out\n        /* \"#utility.yul\":512:638   */\n    tag_215:\n        /* \"#utility.yul\":549:556   */\n      0x00\n        /* \"#utility.yul\":589:631   */\n      0xffffffffffffffffffffffffffffffffffffffff\n        /* \"#utility.yul\":582:587   */\n      dup3\n        /* \"#utility.yul\":578:632   */\n      and\n        /* \"#utility.yul\":567:632   */\n      swap1\n      pop\n        /* \"#utility.yul\":512:638   */\n      swap2\n      swap1\n      pop\n      jump\t// out\n        /* \"#utility.yul\":644:740   */\n    tag_216:\n        /* \"#utility.yul\":681:688   */\n      0x00\n        /* \"#utility.yul\":710:734   */\n      tag_291\n        /* \"#utility.yul\":728:733   */\n      dup3\n        /* \"#utility.yul\":710:734   */\n      tag_215\n      jump\t// in\n    tag_291:\n        /* \"#utility.yul\":699:734   */\n      swap1\n      pop\n        /* \"#utility.yul\":644:740   */\n      swap2\n      swap1\n      pop\n      jump\t// out\n        /* \"#utility.yul\":746:854   */\n    tag_217:\n        /* \"#utility.yul\":823:847   */\n      tag_293\n        /* \"#utility.yul\":841:846   */\n      dup2\n        /* \"#utility.yul\":823:847   */\n      tag_216\n      jump\t// in\n    tag_293:\n        /* \"#utility.yul\":818:821   */\n      dup3\n        /* \"#utility.yul\":811:848   */\n      mstore\n        /* \"#utility.yul\":746:854   */\n      pop\n      pop\n      jump\t// out\n        /* \"#utility.yul\":860:959   */\n    tag_218:\n        /* \"#utility.yul\":912:918   */\n      0x00\n        /* \"#utility.yul\":946:951   */\n      dup2\n        /* \"#utility.yul\":940:952   */\n      mload\n        /* \"#utility.yul\":930:952   */\n      swap1\n      pop\n        /* \"#utility.yul\":860:959   */\n      swap2\n      swap1\n      pop\n      jump\t// out\n        /* \"#utility.yul\":965:1124   */\n    tag_219:\n        /* \"#utility.yul\":1039:1050   */\n      0x00\n        /* \"#utility.yul\":1073:1079   */\n      dup3\n        /* \"#utility.yul\":1068:1071   */\n      dup3\n        /* \"#utility.yul\":1061:1080   */\n      mstore\n        /* \"#utility.yul\":1113:1117   */\n      0x20\n        /* \"#utility.yul\":1108:1111   */\n      dup3\n        /* \"#utility.yul\":1104:1118   */\n      add\n        /* \"#utility.yul\":1089:1118   */\n      swap1\n      pop\n        /* \"#utility.yul\":965:1124   */\n      swap3\n      swap2\n      pop\n      pop\n      jump\t// out\n        /* \"#utility.yul\":1130:1269   */\n    tag_220:\n        /* \"#utility.yul\":1219:1225   */\n      dup3\n        /* \"#utility.yul\":1214:1217   */\n      dup2\n        /* \"#utility.yul\":1209:1212   */\n      dup4\n        /* \"#utility.yul\":1203:1226   */\n      mcopy\n        /* \"#utility.yul\":1260:1261   */\n      0x00\n        /* \"#utility.yul\":1251:1257   */\n      dup4\n        /* \"#utility.yul\":1246:1249   */\n      dup4\n        /* \"#utility.yul\":1242:1258   */\n      add\n        /* \"#utility.yul\":1235:1262   */\n      mstore\n        /* \"#utility.yul\":1130:1269   */\n      pop\n      pop\n      pop\n      jump\t// out\n        /* \"#utility.yul\":1275:1377   */\n    tag_221:\n        /* \"#utility.yul\":1316:1322   */\n      0x00\n        /* \"#utility.yul\":1367:1369   */\n      0x1f\n        /* \"#utility.yul\":1363:1370   */\n      not\n        /* \"#utility.yul\":1358:1360   */\n      0x1f\n        /* \"#utility.yul\":1351:1356   */\n      dup4\n        /* \"#utility.yul\":1347:1361   */\n      add\n        /* \"#utility.yul\":1343:1371   */\n      and\n        /* \"#utility.yul\":1333:1371   */\n      swap1\n      pop\n        /* \"#utility.yul\":1275:1377   */\n      swap2\n      swap1\n      pop\n      jump\t// out\n        /* \"#utility.yul\":1383:1740   */\n    tag_222:\n        /* \"#utility.yul\":1461:1464   */\n      0x00\n        /* \"#utility.yul\":1489:1528   */\n      tag_299\n        /* \"#utility.yul\":1522:1527   */\n      dup3\n        /* \"#utility.yul\":1489:1528   */\n      tag_218\n      jump\t// in\n    tag_299:\n        /* \"#utility.yul\":1544:1605   */\n      tag_300\n        /* \"#utility.yul\":1598:1604   */\n      dup2\n        /* \"#utility.yul\":1593:1596   */\n      dup6\n        /* \"#utility.yul\":1544:1605   */\n      tag_219\n      jump\t// in\n    tag_300:\n        /* \"#utility.yul\":1537:1605   */\n      swap4\n      pop\n        /* \"#utility.yul\":1614:1679   */\n      tag_301\n        /* \"#utility.yul\":1672:1678   */\n      dup2\n        /* \"#utility.yul\":1667:1670   */\n      dup6\n        /* \"#utility.yul\":1660:1664   */\n      0x20\n        /* \"#utility.yul\":1653:1658   */\n      dup7\n        /* \"#utility.yul\":1649:1665   */\n      add\n        /* \"#utility.yul\":1614:1679   */\n      tag_220\n      jump\t// in\n    tag_301:\n        /* \"#utility.yul\":1704:1733   */\n      tag_302\n        /* \"#utility.yul\":1726:1732   */\n      dup2\n        /* \"#utility.yul\":1704:1733   */\n      tag_221\n      jump\t// in\n    tag_302:\n        /* \"#utility.yul\":1699:1702   */\n      dup5\n        /* \"#utility.yul\":1695:1734   */\n      add\n        /* \"#utility.yul\":1688:1734   */\n      swap2\n      pop\n        /* \"#utility.yul\":1465:1740   */\n      pop\n        /* \"#utility.yul\":1383:1740   */\n      swap3\n      swap2\n      pop\n      pop\n      jump\t// out\n        /* \"#utility.yul\":1746:1823   */\n    tag_223:\n        /* \"#utility.yul\":1783:1790   */\n      0x00\n        /* \"#utility.yul\":1812:1817   */\n      dup2\n        /* \"#utility.yul\":1801:1817   */\n      swap1\n      pop\n        /* \"#utility.yul\":1746:1823   */\n      swap2\n      swap1\n      pop\n      jump\t// out\n        /* \"#utility.yul\":1829:1937   */\n    tag_224:\n        /* \"#utility.yul\":1906:1930   */\n      tag_305\n        /* \"#utility.yul\":1924:1929   */\n      dup2\n        /* \"#utility.yul\":1906:1930   */\n      tag_223\n      jump\t// in\n    tag_305:\n        /* \"#utility.yul\":1901:1904   */\n      dup3\n        /* \"#utility.yul\":1894:1931   */\n      mstore\n        /* \"#utility.yul\":1829:1937   */\n      pop\n      pop\n      jump\t// out\n        /* \"#utility.yul\":1943:2033   */\n    tag_225:\n        /* \"#utility.yul\":1977:1984   */\n      0x00\n        /* \"#utility.yul\":2020:2025   */\n      dup2\n        /* \"#utility.yul\":2013:2026   */\n      iszero\n        /* \"#utility.yul\":2006:2027   */\n      iszero\n        /* \"#utility.yul\":1995:2027   */\n      swap1\n      pop\n        /* \"#utility.yul\":1943:2033   */\n      swap2\n      swap1\n      pop\n      jump\t// out\n        /* \"#utility.yul\":2039:2138   */\n    tag_226:\n        /* \"#utility.yul\":2110:2131   */\n      tag_308\n        /* \"#utility.yul\":2125:2130   */\n      dup2\n        /* \"#utility.yul\":2110:2131   */\n      tag_225\n      jump\t// in\n    tag_308:\n        /* \"#utility.yul\":2105:2108   */\n      dup3\n        /* \"#utility.yul\":2098:2132   */\n      mstore\n        /* \"#utility.yul\":2039:2138   */\n      pop\n      pop\n      jump\t// out\n        /* \"#utility.yul\":2192:4249   */\n    tag_227:\n        /* \"#utility.yul\":2289:2292   */\n      0x00\n        /* \"#utility.yul\":2325:2331   */\n      0x0120\n        /* \"#utility.yul\":2320:2323   */\n      dup4\n        /* \"#utility.yul\":2316:2332   */\n      add\n        /* \"#utility.yul\":2415:2419   */\n      0x00\n        /* \"#utility.yul\":2408:2413   */\n      dup4\n        /* \"#utility.yul\":2404:2420   */\n      add\n        /* \"#utility.yul\":2398:2421   */\n      mload\n        /* \"#utility.yul\":2434:2497   */\n      tag_310\n        /* \"#utility.yul\":2491:2495   */\n      0x00\n        /* \"#utility.yul\":2486:2489   */\n      dup7\n        /* \"#utility.yul\":2482:2496   */\n      add\n        /* \"#utility.yul\":2468:2480   */\n      dup3\n        /* \"#utility.yul\":2434:2497   */\n      tag_217\n      jump\t// in\n    tag_310:\n        /* \"#utility.yul\":2342:2507   */\n      pop\n        /* \"#utility.yul\":2590:2594   */\n      0x20\n        /* \"#utility.yul\":2583:2588   */\n      dup4\n        /* \"#utility.yul\":2579:2595   */\n      add\n        /* \"#utility.yul\":2573:2596   */\n      mload\n        /* \"#utility.yul\":2643:2646   */\n      dup5\n        /* \"#utility.yul\":2637:2641   */\n      dup3\n        /* \"#utility.yul\":2633:2647   */\n      sub\n        /* \"#utility.yul\":2626:2630   */\n      0x20\n        /* \"#utility.yul\":2621:2624   */\n      dup7\n        /* \"#utility.yul\":2617:2631   */\n      add\n        /* \"#utility.yul\":2610:2648   */\n      mstore\n        /* \"#utility.yul\":2669:2742   */\n      tag_311\n        /* \"#utility.yul\":2737:2741   */\n      dup3\n        /* \"#utility.yul\":2723:2735   */\n      dup3\n        /* \"#utility.yul\":2669:2742   */\n      tag_222\n      jump\t// in\n    tag_311:\n        /* \"#utility.yul\":2661:2742   */\n      swap2\n      pop\n        /* \"#utility.yul\":2517:2753   */\n      pop\n        /* \"#utility.yul\":2842:2846   */\n      0x40\n        /* \"#utility.yul\":2835:2840   */\n      dup4\n        /* \"#utility.yul\":2831:2847   */\n      add\n        /* \"#utility.yul\":2825:2848   */\n      mload\n        /* \"#utility.yul\":2895:2898   */\n      dup5\n        /* \"#utility.yul\":2889:2893   */\n      dup3\n        /* \"#utility.yul\":2885:2899   */\n      sub\n        /* \"#utility.yul\":2878:2882   */\n      0x40\n        /* \"#utility.yul\":2873:2876   */\n      dup7\n        /* \"#utility.yul\":2869:2883   */\n      add\n        /* \"#utility.yul\":2862:2900   */\n      mstore\n        /* \"#utility.yul\":2921:2994   */\n      tag_312\n        /* \"#utility.yul\":2989:2993   */\n      dup3\n        /* \"#utility.yul\":2975:2987   */\n      dup3\n        /* \"#utility.yul\":2921:2994   */\n      tag_222\n      jump\t// in\n    tag_312:\n        /* \"#utility.yul\":2913:2994   */\n      swap2\n      pop\n        /* \"#utility.yul\":2763:3005   */\n      pop\n        /* \"#utility.yul\":3088:3092   */\n      0x60\n        /* \"#utility.yul\":3081:3086   */\n      dup4\n        /* \"#utility.yul\":3077:3093   */\n      add\n        /* \"#utility.yul\":3071:3094   */\n      mload\n        /* \"#utility.yul\":3107:3170   */\n      tag_313\n        /* \"#utility.yul\":3164:3168   */\n      0x60\n        /* \"#utility.yul\":3159:3162   */\n      dup7\n        /* \"#utility.yul\":3155:3169   */\n      add\n        /* \"#utility.yul\":3141:3153   */\n      dup3\n        /* \"#utility.yul\":3107:3170   */\n      tag_224\n      jump\t// in\n    tag_313:\n        /* \"#utility.yul\":3015:3180   */\n      pop\n        /* \"#utility.yul\":3269:3273   */\n      0x80\n        /* \"#utility.yul\":3262:3267   */\n      dup4\n        /* \"#utility.yul\":3258:3274   */\n      add\n        /* \"#utility.yul\":3252:3275   */\n      mload\n        /* \"#utility.yul\":3322:3325   */\n      dup5\n        /* \"#utility.yul\":3316:3320   */\n      dup3\n        /* \"#utility.yul\":3312:3326   */\n      sub\n        /* \"#utility.yul\":3305:3309   */\n      0x80\n        /* \"#utility.yul\":3300:3303   */\n      dup7\n        /* \"#utility.yul\":3296:3310   */\n      add\n        /* \"#utility.yul\":3289:3327   */\n      mstore\n        /* \"#utility.yul\":3348:3421   */\n      tag_314\n        /* \"#utility.yul\":3416:3420   */\n      dup3\n        /* \"#utility.yul\":3402:3414   */\n      dup3\n        /* \"#utility.yul\":3348:3421   */\n      tag_222\n      jump\t// in\n    tag_314:\n        /* \"#utility.yul\":3340:3421   */\n      swap2\n      pop\n        /* \"#utility.yul\":3190:3432   */\n      pop\n        /* \"#utility.yul\":3518:3522   */\n      0xa0\n        /* \"#utility.yul\":3511:3516   */\n      dup4\n        /* \"#utility.yul\":3507:3523   */\n      add\n        /* \"#utility.yul\":3501:3524   */\n      mload\n        /* \"#utility.yul\":3537:3600   */\n      tag_315\n        /* \"#utility.yul\":3594:3598   */\n      0xa0\n        /* \"#utility.yul\":3589:3592   */\n      dup7\n        /* \"#utility.yul\":3585:3599   */\n      add\n        /* \"#utility.yul\":3571:3583   */\n      dup3\n        /* \"#utility.yul\":3537:3600   */\n      tag_224\n      jump\t// in\n    tag_315:\n        /* \"#utility.yul\":3442:3610   */\n      pop\n        /* \"#utility.yul\":3698:3702   */\n      0xc0\n        /* \"#utility.yul\":3691:3696   */\n      dup4\n        /* \"#utility.yul\":3687:3703   */\n      add\n        /* \"#utility.yul\":3681:3704   */\n      mload\n        /* \"#utility.yul\":3717:3774   */\n      tag_316\n        /* \"#utility.yul\":3768:3772   */\n      0xc0\n        /* \"#utility.yul\":3763:3766   */\n      dup7\n        /* \"#utility.yul\":3759:3773   */\n      add\n        /* \"#utility.yul\":3745:3757   */\n      dup3\n        /* \"#utility.yul\":3717:3774   */\n      tag_226\n      jump\t// in\n    tag_316:\n        /* \"#utility.yul\":3620:3784   */\n      pop\n        /* \"#utility.yul\":3870:3874   */\n      0xe0\n        /* \"#utility.yul\":3863:3868   */\n      dup4\n        /* \"#utility.yul\":3859:3875   */\n      add\n        /* \"#utility.yul\":3853:3876   */\n      mload\n        /* \"#utility.yul\":3923:3926   */\n      dup5\n        /* \"#utility.yul\":3917:3921   */\n      dup3\n        /* \"#utility.yul\":3913:3927   */\n      sub\n        /* \"#utility.yul\":3906:3910   */\n      0xe0\n        /* \"#utility.yul\":3901:3904   */\n      dup7\n        /* \"#utility.yul\":3897:3911   */\n      add\n        /* \"#utility.yul\":3890:3928   */\n      mstore\n        /* \"#utility.yul\":3949:4022   */\n      tag_317\n        /* \"#utility.yul\":4017:4021   */\n      dup3\n        /* \"#utility.yul\":4003:4015   */\n      dup3\n        /* \"#utility.yul\":3949:4022   */\n      tag_222\n      jump\t// in\n    tag_317:\n        /* \"#utility.yul\":3941:4022   */\n      swap2\n      pop\n        /* \"#utility.yul\":3794:4033   */\n      pop\n        /* \"#utility.yul\":4126:4132   */\n      0x0100\n        /* \"#utility.yul\":4119:4124   */\n      dup4\n        /* \"#utility.yul\":4115:4133   */\n      add\n        /* \"#utility.yul\":4109:4134   */\n      mload\n        /* \"#utility.yul\":4147:4212   */\n      tag_318\n        /* \"#utility.yul\":4204:4210   */\n      0x0100\n        /* \"#utility.yul\":4199:4202   */\n      dup7\n        /* \"#utility.yul\":4195:4211   */\n      add\n        /* \"#utility.yul\":4181:4193   */\n      dup3\n        /* \"#utility.yul\":4147:4212   */\n      tag_217\n      jump\t// in\n    tag_318:\n        /* \"#utility.yul\":4043:4222   */\n      pop\n        /* \"#utility.yul\":4239:4243   */\n      dup1\n        /* \"#utility.yul\":4232:4243   */\n      swap2\n      pop\n        /* \"#utility.yul\":2294:4249   */\n      pop\n        /* \"#utility.yul\":2192:4249   */\n      swap3\n      swap2\n      pop\n      pop\n      jump\t// out\n        /* \"#utility.yul\":4255:4487   */\n    tag_228:\n        /* \"#utility.yul\":4362:4372   */\n      0x00\n        /* \"#utility.yul\":4397:4481   */\n      tag_320\n        /* \"#utility.yul\":4477:4480   */\n      dup4\n        /* \"#utility.yul\":4469:4475   */\n      dup4\n        /* \"#utility.yul\":4397:4481   */\n      tag_227\n      jump\t// in\n    tag_320:\n        /* \"#utility.yul\":4383:4481   */\n      swap1\n      pop\n        /* \"#utility.yul\":4255:4487   */\n      swap3\n      swap2\n      pop\n      pop\n      jump\t// out\n        /* \"#utility.yul\":4493:4625   */\n    tag_229:\n        /* \"#utility.yul\":4582:4586   */\n      0x00\n        /* \"#utility.yul\":4614:4618   */\n      0x20\n        /* \"#utility.yul\":4609:4612   */\n      dup3\n        /* \"#utility.yul\":4605:4619   */\n      add\n        /* \"#utility.yul\":4597:4619   */\n      swap1\n      pop\n        /* \"#utility.yul\":4493:4625   */\n      swap2\n      swap1\n      pop\n      jump\t// out\n        /* \"#utility.yul\":4683:5746   */\n    tag_230:\n        /* \"#utility.yul\":4840:4843   */\n      0x00\n        /* \"#utility.yul\":4869:4942   */\n      tag_323\n        /* \"#utility.yul\":4936:4941   */\n      dup3\n        /* \"#utility.yul\":4869:4942   */\n      tag_212\n      jump\t// in\n    tag_323:\n        /* \"#utility.yul\":4958:5063   */\n      tag_324\n        /* \"#utility.yul\":5056:5062   */\n      dup2\n        /* \"#utility.yul\":5051:5054   */\n      dup6\n        /* \"#utility.yul\":4958:5063   */\n      tag_213\n      jump\t// in\n    tag_324:\n        /* \"#utility.yul\":4951:5063   */\n      swap4\n      pop\n        /* \"#utility.yul\":5089:5092   */\n      dup4\n        /* \"#utility.yul\":5134:5138   */\n      0x20\n        /* \"#utility.yul\":5126:5132   */\n      dup3\n        /* \"#utility.yul\":5122:5139   */\n      mul\n        /* \"#utility.yul\":5117:5120   */\n      dup6\n        /* \"#utility.yul\":5113:5140   */\n      add\n        /* \"#utility.yul\":5164:5239   */\n      tag_325\n        /* \"#utility.yul\":5233:5238   */\n      dup6\n        /* \"#utility.yul\":5164:5239   */\n      tag_214\n      jump\t// in\n    tag_325:\n        /* \"#utility.yul\":5262:5269   */\n      dup1\n        /* \"#utility.yul\":5293:5294   */\n      0x00\n        /* \"#utility.yul\":5278:5701   */\n    tag_326:\n        /* \"#utility.yul\":5303:5309   */\n      dup6\n        /* \"#utility.yul\":5300:5301   */\n      dup2\n        /* \"#utility.yul\":5297:5310   */\n      lt\n        /* \"#utility.yul\":5278:5701   */\n      iszero\n      tag_328\n      jumpi\n        /* \"#utility.yul\":5374:5383   */\n      dup5\n        /* \"#utility.yul\":5368:5372   */\n      dup5\n        /* \"#utility.yul\":5364:5384   */\n      sub\n        /* \"#utility.yul\":5359:5362   */\n      dup10\n        /* \"#utility.yul\":5352:5385   */\n      mstore\n        /* \"#utility.yul\":5425:5431   */\n      dup2\n        /* \"#utility.yul\":5419:5432   */\n      mload\n        /* \"#utility.yul\":5453:5555   */\n      tag_329\n        /* \"#utility.yul\":5550:5554   */\n      dup6\n        /* \"#utility.yul\":5535:5548   */\n      dup3\n        /* \"#utility.yul\":5453:5555   */\n      tag_228\n      jump\t// in\n    tag_329:\n        /* \"#utility.yul\":5445:5555   */\n      swap5\n      pop\n        /* \"#utility.yul\":5578:5657   */\n      tag_330\n        /* \"#utility.yul\":5650:5656   */\n      dup4\n        /* \"#utility.yul\":5578:5657   */\n      tag_229\n      jump\t// in\n    tag_330:\n        /* \"#utility.yul\":5568:5657   */\n      swap3\n      pop\n        /* \"#utility.yul\":5686:5690   */\n      0x20\n        /* \"#utility.yul\":5681:5684   */\n      dup11\n        /* \"#utility.yul\":5677:5691   */\n      add\n        /* \"#utility.yul\":5670:5691   */\n      swap10\n      pop\n        /* \"#utility.yul\":5338:5701   */\n      pop\n        /* \"#utility.yul\":5325:5326   */\n      0x01\n        /* \"#utility.yul\":5322:5323   */\n      dup2\n        /* \"#utility.yul\":5318:5327   */\n      add\n        /* \"#utility.yul\":5313:5327   */\n      swap1\n      pop\n        /* \"#utility.yul\":5278:5701   */\n      jump(tag_326)\n    tag_328:\n        /* \"#utility.yul\":5282:5296   */\n      pop\n        /* \"#utility.yul\":5717:5721   */\n      dup3\n        /* \"#utility.yul\":5710:5721   */\n      swap8\n      pop\n        /* \"#utility.yul\":5737:5740   */\n      dup8\n        /* \"#utility.yul\":5730:5740   */\n      swap6\n      pop\n        /* \"#utility.yul\":4845:5746   */\n      pop\n      pop\n      pop\n      pop\n      pop\n        /* \"#utility.yul\":4683:5746   */\n      swap3\n      swap2\n      pop\n      pop\n      jump\t// out\n        /* \"#utility.yul\":5752:6201   */\n    tag_18:\n        /* \"#utility.yul\":5933:5937   */\n      0x00\n        /* \"#utility.yul\":5971:5973   */\n      0x20\n        /* \"#utility.yul\":5960:5969   */\n      dup3\n        /* \"#utility.yul\":5956:5974   */\n      add\n        /* \"#utility.yul\":5948:5974   */\n      swap1\n      pop\n        /* \"#utility.yul\":6020:6029   */\n      dup2\n        /* \"#utility.yul\":6014:6018   */\n      dup2\n        /* \"#utility.yul\":6010:6030   */\n      sub\n        /* \"#utility.yul\":6006:6007   */\n      0x00\n        /* \"#utility.yul\":5995:6004   */\n      dup4\n        /* \"#utility.yul\":5991:6008   */\n      add\n        /* \"#utility.yul\":5984:6031   */\n      mstore\n        /* \"#utility.yul\":6048:6194   */\n      tag_332\n        /* \"#utility.yul\":6189:6193   */\n      dup2\n        /* \"#utility.yul\":6180:6186   */\n      dup5\n        /* \"#utility.yul\":6048:6194   */\n      tag_230\n      jump\t// in\n    tag_332:\n        /* \"#utility.yul\":6040:6194   */\n      swap1\n      pop\n        /* \"#utility.yul\":5752:6201   */\n      swap3\n      swap2\n      pop\n      pop\n      jump\t// out\n        /* \"#utility.yul\":6207:6282   */\n    tag_231:\n        /* \"#utility.yul\":6240:6246   */\n      0x00\n        /* \"#utility.yul\":6273:6275   */\n      0x40\n        /* \"#utility.yul\":6267:6276   */\n      mload\n        /* \"#utility.yul\":6257:6276   */\n      swap1\n      pop\n        /* \"#utility.yul\":6207:6282   */\n      swap1\n      jump\t// out\n        /* \"#utility.yul\":6288:6405   */\n    tag_232:\n        /* \"#utility.yul\":6397:6398   */\n      0x00\n        /* \"#utility.yul\":6394:6395   */\n      dup1\n        /* \"#utility.yul\":6387:6399   */\n      revert\n        /* \"#utility.yul\":6411:6528   */\n    tag_233:\n        /* \"#utility.yul\":6520:6521   */\n      0x00\n        /* \"#utility.yul\":6517:6518   */\n      dup1\n        /* \"#utility.yul\":6510:6522   */\n      revert\n        /* \"#utility.yul\":6534:6656   */\n    tag_234:\n        /* \"#utility.yul\":6607:6631   */\n      tag_337\n        /* \"#utility.yul\":6625:6630   */\n      dup2\n        /* \"#utility.yul\":6607:6631   */\n      tag_223\n      jump\t// in\n    tag_337:\n        /* \"#utility.yul\":6600:6605   */\n      dup2\n        /* \"#utility.yul\":6597:6632   */\n      eq\n        /* \"#utility.yul\":6587:6650   */\n      tag_338\n      jumpi\n        /* \"#utility.yul\":6646:6647   */\n      0x00\n        /* \"#utility.yul\":6643:6644   */\n      dup1\n        /* \"#utility.yul\":6636:6648   */\n      revert\n        /* \"#utility.yul\":6587:6650   */\n    tag_338:\n        /* \"#utility.yul\":6534:6656   */\n      pop\n      jump\t// out\n        /* \"#utility.yul\":6662:6801   */\n    tag_235:\n        /* \"#utility.yul\":6708:6713   */\n      0x00\n        /* \"#utility.yul\":6746:6752   */\n      dup2\n        /* \"#utility.yul\":6733:6753   */\n      calldataload\n        /* \"#utility.yul\":6724:6753   */\n      swap1\n      pop\n        /* \"#utility.yul\":6762:6795   */\n      tag_340\n        /* \"#utility.yul\":6789:6794   */\n      dup2\n        /* \"#utility.yul\":6762:6795   */\n      tag_234\n      jump\t// in\n    tag_340:\n        /* \"#utility.yul\":6662:6801   */\n      swap3\n      swap2\n      pop\n      pop\n      jump\t// out\n        /* \"#utility.yul\":6807:7136   */\n    tag_22:\n        /* \"#utility.yul\":6866:6872   */\n      0x00\n        /* \"#utility.yul\":6915:6917   */\n      0x20\n        /* \"#utility.yul\":6903:6912   */\n      dup3\n        /* \"#utility.yul\":6894:6901   */\n      dup5\n        /* \"#utility.yul\":6890:6913   */\n      sub\n        /* \"#utility.yul\":6886:6918   */\n      slt\n        /* \"#utility.yul\":6883:7002   */\n      iszero\n      tag_342\n      jumpi\n        /* \"#utility.yul\":6921:7000   */\n      tag_343\n      tag_232\n      jump\t// in\n    tag_343:\n        /* \"#utility.yul\":6883:7002   */\n    tag_342:\n        /* \"#utility.yul\":7041:7042   */\n      0x00\n        /* \"#utility.yul\":7066:7119   */\n      tag_344\n        /* \"#utility.yul\":7111:7118   */\n      dup5\n        /* \"#utility.yul\":7102:7108   */\n      dup3\n        /* \"#utility.yul\":7091:7100   */\n      dup6\n        /* \"#utility.yul\":7087:7109   */\n      add\n        /* \"#utility.yul\":7066:7119   */\n      tag_235\n      jump\t// in\n    tag_344:\n        /* \"#utility.yul\":7056:7119   */\n      swap2\n      pop\n        /* \"#utility.yul\":7012:7129   */\n      pop\n        /* \"#utility.yul\":6807:7136   */\n      swap3\n      swap2\n      pop\n      pop\n      jump\t// out\n        /* \"#utility.yul\":7142:7311   */\n    tag_236:\n        /* \"#utility.yul\":7226:7237   */\n      0x00\n        /* \"#utility.yul\":7260:7266   */\n      dup3\n        /* \"#utility.yul\":7255:7258   */\n      dup3\n        /* \"#utility.yul\":7248:7267   */\n      mstore\n        /* \"#utility.yul\":7300:7304   */\n      0x20\n        /* \"#utility.yul\":7295:7298   */\n      dup3\n        /* \"#utility.yul\":7291:7305   */\n      add\n        /* \"#utility.yul\":7276:7305   */\n      swap1\n      pop\n        /* \"#utility.yul\":7142:7311   */\n      swap3\n      swap2\n      pop\n      pop\n      jump\t// out\n        /* \"#utility.yul\":7317:7694   */\n    tag_237:\n        /* \"#utility.yul\":7405:7408   */\n      0x00\n        /* \"#utility.yul\":7433:7472   */\n      tag_347\n        /* \"#utility.yul\":7466:7471   */\n      dup3\n        /* \"#utility.yul\":7433:7472   */\n      tag_218\n      jump\t// in\n    tag_347:\n        /* \"#utility.yul\":7488:7559   */\n      tag_348\n        /* \"#utility.yul\":7552:7558   */\n      dup2\n        /* \"#utility.yul\":7547:7550   */\n      dup6\n        /* \"#utility.yul\":7488:7559   */\n      tag_236\n      jump\t// in\n    tag_348:\n        /* \"#utility.yul\":7481:7559   */\n      swap4\n      pop\n        /* \"#utility.yul\":7568:7633   */\n      tag_349\n        /* \"#utility.yul\":7626:7632   */\n      dup2\n        /* \"#utility.yul\":7621:7624   */\n      dup6\n        /* \"#utility.yul\":7614:7618   */\n      0x20\n        /* \"#utility.yul\":7607:7612   */\n      dup7\n        /* \"#utility.yul\":7603:7619   */\n      add\n        /* \"#utility.yul\":7568:7633   */\n      tag_220\n      jump\t// in\n    tag_349:\n        /* \"#utility.yul\":7658:7687   */\n      tag_350\n        /* \"#utility.yul\":7680:7686   */\n      dup2\n        /* \"#utility.yul\":7658:7687   */\n      tag_221\n      jump\t// in\n    tag_350:\n        /* \"#utility.yul\":7653:7656   */\n      dup5\n        /* \"#utility.yul\":7649:7688   */\n      add\n        /* \"#utility.yul\":7642:7688   */\n      swap2\n      pop\n        /* \"#utility.yul\":7409:7694   */\n      pop\n        /* \"#utility.yul\":7317:7694   */\n      swap3\n      swap2\n      pop\n      pop\n      jump\t// out\n        /* \"#utility.yul\":7700:8013   */\n    tag_25:\n        /* \"#utility.yul\":7813:7817   */\n      0x00\n        /* \"#utility.yul\":7851:7853   */\n      0x20\n        /* \"#utility.yul\":7840:7849   */\n      dup3\n        /* \"#utility.yul\":7836:7854   */\n      add\n        /* \"#utility.yul\":7828:7854   */\n      swap1\n      pop\n        /* \"#utility.yul\":7900:7909   */\n      dup2\n        /* \"#utility.yul\":7894:7898   */\n      dup2\n        /* \"#utility.yul\":7890:7910   */\n      sub\n        /* \"#utility.yul\":7886:7887   */\n      0x00\n        /* \"#utility.yul\":7875:7884   */\n      dup4\n        /* \"#utility.yul\":7871:7888   */\n      add\n        /* \"#utility.yul\":7864:7911   */\n      mstore\n        /* \"#utility.yul\":7928:8006   */\n      tag_352\n        /* \"#utility.yul\":8001:8005   */\n      dup2\n        /* \"#utility.yul\":7992:7998   */\n      dup5\n        /* \"#utility.yul\":7928:8006   */\n      tag_237\n      jump\t// in\n    tag_352:\n        /* \"#utility.yul\":7920:8006   */\n      swap1\n      pop\n        /* \"#utility.yul\":7700:8013   */\n      swap3\n      swap2\n      pop\n      pop\n      jump\t// out\n        /* \"#utility.yul\":8019:8137   */\n    tag_238:\n        /* \"#utility.yul\":8106:8130   */\n      tag_354\n        /* \"#utility.yul\":8124:8129   */\n      dup2\n        /* \"#utility.yul\":8106:8130   */\n      tag_216\n      jump\t// in\n    tag_354:\n        /* \"#utility.yul\":8101:8104   */\n      dup3\n        /* \"#utility.yul\":8094:8131   */\n      mstore\n        /* \"#utility.yul\":8019:8137   */\n      pop\n      pop\n      jump\t// out\n        /* \"#utility.yul\":8143:8261   */\n    tag_239:\n        /* \"#utility.yul\":8230:8254   */\n      tag_356\n        /* \"#utility.yul\":8248:8253   */\n      dup2\n        /* \"#utility.yul\":8230:8254   */\n      tag_223\n      jump\t// in\n    tag_356:\n        /* \"#utility.yul\":8225:8228   */\n      dup3\n        /* \"#utility.yul\":8218:8255   */\n      mstore\n        /* \"#utility.yul\":8143:8261   */\n      pop\n      pop\n      jump\t// out\n        /* \"#utility.yul\":8267:8376   */\n    tag_240:\n        /* \"#utility.yul\":8348:8369   */\n      tag_358\n        /* \"#utility.yul\":8363:8368   */\n      dup2\n        /* \"#utility.yul\":8348:8369   */\n      tag_225\n      jump\t// in\n    tag_358:\n        /* \"#utility.yul\":8343:8346   */\n      dup3\n        /* \"#utility.yul\":8336:8370   */\n      mstore\n        /* \"#utility.yul\":8267:8376   */\n      pop\n      pop\n      jump\t// out\n        /* \"#utility.yul\":8382:9842   */\n    tag_31:\n        /* \"#utility.yul\":8773:8777   */\n      0x00\n        /* \"#utility.yul\":8811:8814   */\n      0x0120\n        /* \"#utility.yul\":8800:8809   */\n      dup3\n        /* \"#utility.yul\":8796:8815   */\n      add\n        /* \"#utility.yul\":8788:8815   */\n      swap1\n      pop\n        /* \"#utility.yul\":8825:8896   */\n      tag_360\n        /* \"#utility.yul\":8893:8894   */\n      0x00\n        /* \"#utility.yul\":8882:8891   */\n      dup4\n        /* \"#utility.yul\":8878:8895   */\n      add\n        /* \"#utility.yul\":8869:8875   */\n      dup13\n        /* \"#utility.yul\":8825:8896   */\n      tag_238\n      jump\t// in\n    tag_360:\n        /* \"#utility.yul\":8943:8952   */\n      dup2\n        /* \"#utility.yul\":8937:8941   */\n      dup2\n        /* \"#utility.yul\":8933:8953   */\n      sub\n        /* \"#utility.yul\":8928:8930   */\n      0x20\n        /* \"#utility.yul\":8917:8926   */\n      dup4\n        /* \"#utility.yul\":8913:8931   */\n      add\n        /* \"#utility.yul\":8906:8954   */\n      mstore\n        /* \"#utility.yul\":8971:9049   */\n      tag_361\n        /* \"#utility.yul\":9044:9048   */\n      dup2\n        /* \"#utility.yul\":9035:9041   */\n      dup12\n        /* \"#utility.yul\":8971:9049   */\n      tag_237\n      jump\t// in\n    tag_361:\n        /* \"#utility.yul\":8963:9049   */\n      swap1\n      pop\n        /* \"#utility.yul\":9096:9105   */\n      dup2\n        /* \"#utility.yul\":9090:9094   */\n      dup2\n        /* \"#utility.yul\":9086:9106   */\n      sub\n        /* \"#utility.yul\":9081:9083   */\n      0x40\n        /* \"#utility.yul\":9070:9079   */\n      dup4\n        /* \"#utility.yul\":9066:9084   */\n      add\n        /* \"#utility.yul\":9059:9107   */\n      mstore\n        /* \"#utility.yul\":9124:9202   */\n      tag_362\n        /* \"#utility.yul\":9197:9201   */\n      dup2\n        /* \"#utility.yul\":9188:9194   */\n      dup11\n        /* \"#utility.yul\":9124:9202   */\n      tag_237\n      jump\t// in\n    tag_362:\n        /* \"#utility.yul\":9116:9202   */\n      swap1\n      pop\n        /* \"#utility.yul\":9212:9284   */\n      tag_363\n        /* \"#utility.yul\":9280:9282   */\n      0x60\n        /* \"#utility.yul\":9269:9278   */\n      dup4\n        /* \"#utility.yul\":9265:9283   */\n      add\n        /* \"#utility.yul\":9256:9262   */\n      dup10\n        /* \"#utility.yul\":9212:9284   */\n      tag_239\n      jump\t// in\n    tag_363:\n        /* \"#utility.yul\":9332:9341   */\n      dup2\n        /* \"#utility.yul\":9326:9330   */\n      dup2\n        /* \"#utility.yul\":9322:9342   */\n      sub\n        /* \"#utility.yul\":9316:9319   */\n      0x80\n        /* \"#utility.yul\":9305:9314   */\n      dup4\n        /* \"#utility.yul\":9301:9320   */\n      add\n        /* \"#utility.yul\":9294:9343   */\n      mstore\n        /* \"#utility.yul\":9360:9438   */\n      tag_364\n        /* \"#utility.yul\":9433:9437   */\n      dup2\n        /* \"#utility.yul\":9424:9430   */\n      dup9\n        /* \"#utility.yul\":9360:9438   */\n      tag_237\n      jump\t// in\n    tag_364:\n        /* \"#utility.yul\":9352:9438   */\n      swap1\n      pop\n        /* \"#utility.yul\":9448:9521   */\n      tag_365\n        /* \"#utility.yul\":9516:9519   */\n      0xa0\n        /* \"#utility.yul\":9505:9514   */\n      dup4\n        /* \"#utility.yul\":9501:9520   */\n      add\n        /* \"#utility.yul\":9492:9498   */\n      dup8\n        /* \"#utility.yul\":9448:9521   */\n      tag_239\n      jump\t// in\n    tag_365:\n        /* \"#utility.yul\":9531:9598   */\n      tag_366\n        /* \"#utility.yul\":9593:9596   */\n      0xc0\n        /* \"#utility.yul\":9582:9591   */\n      dup4\n        /* \"#utility.yul\":9578:9597   */\n      add\n        /* \"#utility.yul\":9569:9575   */\n      dup7\n        /* \"#utility.yul\":9531:9598   */\n      tag_240\n      jump\t// in\n    tag_366:\n        /* \"#utility.yul\":9646:9655   */\n      dup2\n        /* \"#utility.yul\":9640:9644   */\n      dup2\n        /* \"#utility.yul\":9636:9656   */\n      sub\n        /* \"#utility.yul\":9630:9633   */\n      0xe0\n        /* \"#utility.yul\":9619:9628   */\n      dup4\n        /* \"#utility.yul\":9615:9634   */\n      add\n        /* \"#utility.yul\":9608:9657   */\n      mstore\n        /* \"#utility.yul\":9674:9752   */\n      tag_367\n        /* \"#utility.yul\":9747:9751   */\n      dup2\n        /* \"#utility.yul\":9738:9744   */\n      dup6\n        /* \"#utility.yul\":9674:9752   */\n      tag_237\n      jump\t// in\n    tag_367:\n        /* \"#utility.yul\":9666:9752   */\n      swap1\n      pop\n        /* \"#utility.yul\":9762:9835   */\n      tag_368\n        /* \"#utility.yul\":9830:9833   */\n      0x0100\n        /* \"#utility.yul\":9819:9828   */\n      dup4\n        /* \"#utility.yul\":9815:9834   */\n      add\n        /* \"#utility.yul\":9806:9812   */\n      dup5\n        /* \"#utility.yul\":9762:9835   */\n      tag_238\n      jump\t// in\n    tag_368:\n        /* \"#utility.yul\":8382:9842   */\n      swap11\n      swap10\n      pop\n      pop\n      pop\n      pop\n      pop\n      pop\n      pop\n      pop\n      pop\n      pop\n      jump\t// out\n        /* \"#utility.yul\":9848:10322   */\n    tag_35:\n        /* \"#utility.yul\":9916:9922   */\n      0x00\n        /* \"#utility.yul\":9924:9930   */\n      dup1\n        /* \"#utility.yul\":9973:9975   */\n      0x40\n        /* \"#utility.yul\":9961:9970   */\n      dup4\n        /* \"#utility.yul\":9952:9959   */\n      dup6\n        /* \"#utility.yul\":9948:9971   */\n      sub\n        /* \"#utility.yul\":9944:9976   */\n      slt\n        /* \"#utility.yul\":9941:10060   */\n      iszero\n      tag_370\n      jumpi\n        /* \"#utility.yul\":9979:10058   */\n      tag_371\n      tag_232\n      jump\t// in\n    tag_371:\n        /* \"#utility.yul\":9941:10060   */\n    tag_370:\n        /* \"#utility.yul\":10099:10100   */\n      0x00\n        /* \"#utility.yul\":10124:10177   */\n      tag_372\n        /* \"#utility.yul\":10169:10176   */\n      dup6\n        /* \"#utility.yul\":10160:10166   */\n      dup3\n        /* \"#utility.yul\":10149:10158   */\n      dup7\n        /* \"#utility.yul\":10145:10167   */\n      add\n        /* \"#utility.yul\":10124:10177   */\n      tag_235\n      jump\t// in\n    tag_372:\n        /* \"#utility.yul\":10114:10177   */\n      swap3\n      pop\n        /* \"#utility.yul\":10070:10187   */\n      pop\n        /* \"#utility.yul\":10226:10228   */\n      0x20\n        /* \"#utility.yul\":10252:10305   */\n      tag_373\n        /* \"#utility.yul\":10297:10304   */\n      dup6\n        /* \"#utility.yul\":10288:10294   */\n      dup3\n        /* \"#utility.yul\":10277:10286   */\n      dup7\n        /* \"#utility.yul\":10273:10295   */\n      add\n        /* \"#utility.yul\":10252:10305   */\n      tag_235\n      jump\t// in\n    tag_373:\n        /* \"#utility.yul\":10242:10305   */\n      swap2\n      pop\n        /* \"#utility.yul\":10197:10315   */\n      pop\n        /* \"#utility.yul\":9848:10322   */\n      swap3\n      pop\n      swap3\n      swap1\n      pop\n      jump\t// out\n        /* \"#utility.yul\":10328:10550   */\n    tag_38:\n        /* \"#utility.yul\":10421:10425   */\n      0x00\n        /* \"#utility.yul\":10459:10461   */\n      0x20\n        /* \"#utility.yul\":10448:10457   */\n      dup3\n        /* \"#utility.yul\":10444:10462   */\n      add\n        /* \"#utility.yul\":10436:10462   */\n      swap1\n      pop\n        /* \"#utility.yul\":10472:10543   */\n      tag_375\n        /* \"#utility.yul\":10540:10541   */\n      0x00\n        /* \"#utility.yul\":10529:10538   */\n      dup4\n        /* \"#utility.yul\":10525:10542   */\n      add\n        /* \"#utility.yul\":10516:10522   */\n      dup5\n        /* \"#utility.yul\":10472:10543   */\n      tag_239\n      jump\t// in\n    tag_375:\n        /* \"#utility.yul\":10328:10550   */\n      swap3\n      swap2\n      pop\n      pop\n      jump\t// out\n        /* \"#utility.yul\":10556:10678   */\n    tag_241:\n        /* \"#utility.yul\":10629:10653   */\n      tag_377\n        /* \"#utility.yul\":10647:10652   */\n      dup2\n        /* \"#utility.yul\":10629:10653   */\n      tag_216\n      jump\t// in\n    tag_377:\n        /* \"#utility.yul\":10622:10627   */\n      dup2\n        /* \"#utility.yul\":10619:10654   */\n      eq\n        /* \"#utility.yul\":10609:10672   */\n      tag_378\n      jumpi\n        /* \"#utility.yul\":10668:10669   */\n      0x00\n        /* \"#utility.yul\":10665:10666   */\n      dup1\n        /* \"#utility.yul\":10658:10670   */\n      revert\n        /* \"#utility.yul\":10609:10672   */\n    tag_378:\n        /* \"#utility.yul\":10556:10678   */\n      pop\n      jump\t// out\n        /* \"#utility.yul\":10684:10823   */\n    tag_242:\n        /* \"#utility.yul\":10730:10735   */\n      0x00\n        /* \"#utility.yul\":10768:10774   */\n      dup2\n        /* \"#utility.yul\":10755:10775   */\n      calldataload\n        /* \"#utility.yul\":10746:10775   */\n      swap1\n      pop\n        /* \"#utility.yul\":10784:10817   */\n      tag_380\n        /* \"#utility.yul\":10811:10816   */\n      dup2\n        /* \"#utility.yul\":10784:10817   */\n      tag_241\n      jump\t// in\n    tag_380:\n        /* \"#utility.yul\":10684:10823   */\n      swap3\n      swap2\n      pop\n      pop\n      jump\t// out\n        /* \"#utility.yul\":10829:10946   */\n    tag_243:\n        /* \"#utility.yul\":10938:10939   */\n      0x00\n        /* \"#utility.yul\":10935:10936   */\n      dup1\n        /* \"#utility.yul\":10928:10940   */\n      revert\n        /* \"#utility.yul\":10952:11069   */\n    tag_244:\n        /* \"#utility.yul\":11061:11062   */\n      0x00\n        /* \"#utility.yul\":11058:11059   */\n      dup1\n        /* \"#utility.yul\":11051:11063   */\n      revert\n        /* \"#utility.yul\":11075:11255   */\n    tag_74:\n        /* \"#utility.yul\":11123:11200   */\n      0x4e487b7100000000000000000000000000000000000000000000000000000000\n        /* \"#utility.yul\":11120:11121   */\n      0x00\n        /* \"#utility.yul\":11113:11201   */\n      mstore\n        /* \"#utility.yul\":11220:11224   */\n      0x41\n        /* \"#utility.yul\":11217:11218   */\n      0x04\n        /* \"#utility.yul\":11210:11225   */\n      mstore\n        /* \"#utility.yul\":11244:11248   */\n      0x24\n        /* \"#utility.yul\":11241:11242   */\n      0x00\n        /* \"#utility.yul\":11234:11249   */\n      revert\n        /* \"#utility.yul\":11261:11542   */\n    tag_245:\n        /* \"#utility.yul\":11344:11371   */\n      tag_385\n        /* \"#utility.yul\":11366:11370   */\n      dup3\n        /* \"#utility.yul\":11344:11371   */\n      tag_221\n      jump\t// in\n    tag_385:\n        /* \"#utility.yul\":11336:11342   */\n      dup2\n        /* \"#utility.yul\":11332:11372   */\n      add\n        /* \"#utility.yul\":11474:11480   */\n      dup2\n        /* \"#utility.yul\":11462:11472   */\n      dup2\n        /* \"#utility.yul\":11459:11481   */\n      lt\n        /* \"#utility.yul\":11438:11456   */\n      0xffffffffffffffff\n        /* \"#utility.yul\":11426:11436   */\n      dup3\n        /* \"#utility.yul\":11423:11457   */\n      gt\n        /* \"#utility.yul\":11420:11482   */\n      or\n        /* \"#utility.yul\":11417:11505   */\n      iszero\n      tag_386\n      jumpi\n        /* \"#utility.yul\":11485:11503   */\n      tag_387\n      tag_74\n      jump\t// in\n    tag_387:\n        /* \"#utility.yul\":11417:11505   */\n    tag_386:\n        /* \"#utility.yul\":11525:11535   */\n      dup1\n        /* \"#utility.yul\":11521:11523   */\n      0x40\n        /* \"#utility.yul\":11514:11536   */\n      mstore\n        /* \"#utility.yul\":11304:11542   */\n      pop\n        /* \"#utility.yul\":11261:11542   */\n      pop\n      pop\n      jump\t// out\n        /* \"#utility.yul\":11548:11677   */\n    tag_246:\n        /* \"#utility.yul\":11582:11588   */\n      0x00\n        /* \"#utility.yul\":11609:11629   */\n      tag_389\n      tag_231\n      jump\t// in\n    tag_389:\n        /* \"#utility.yul\":11599:11629   */\n      swap1\n      pop\n        /* \"#utility.yul\":11638:11671   */\n      tag_390\n        /* \"#utility.yul\":11666:11670   */\n      dup3\n        /* \"#utility.yul\":11658:11664   */\n      dup3\n        /* \"#utility.yul\":11638:11671   */\n      tag_245\n      jump\t// in\n    tag_390:\n        /* \"#utility.yul\":11548:11677   */\n      swap2\n      swap1\n      pop\n      jump\t// out\n        /* \"#utility.yul\":11683:11991   */\n    tag_247:\n        /* \"#utility.yul\":11745:11749   */\n      0x00\n        /* \"#utility.yul\":11835:11853   */\n      0xffffffffffffffff\n        /* \"#utility.yul\":11827:11833   */\n      dup3\n        /* \"#utility.yul\":11824:11854   */\n      gt\n        /* \"#utility.yul\":11821:11877   */\n      iszero\n      tag_392\n      jumpi\n        /* \"#utility.yul\":11857:11875   */\n      tag_393\n      tag_74\n      jump\t// in\n    tag_393:\n        /* \"#utility.yul\":11821:11877   */\n    tag_392:\n        /* \"#utility.yul\":11895:11924   */\n      tag_394\n        /* \"#utility.yul\":11917:11923   */\n      dup3\n        /* \"#utility.yul\":11895:11924   */\n      tag_221\n      jump\t// in\n    tag_394:\n        /* \"#utility.yul\":11887:11924   */\n      swap1\n      pop\n        /* \"#utility.yul\":11979:11983   */\n      0x20\n        /* \"#utility.yul\":11973:11977   */\n      dup2\n        /* \"#utility.yul\":11969:11984   */\n      add\n        /* \"#utility.yul\":11961:11984   */\n      swap1\n      pop\n        /* \"#utility.yul\":11683:11991   */\n      swap2\n      swap1\n      pop\n      jump\t// out\n        /* \"#utility.yul\":11997:12145   */\n    tag_248:\n        /* \"#utility.yul\":12095:12101   */\n      dup3\n        /* \"#utility.yul\":12090:12093   */\n      dup2\n        /* \"#utility.yul\":12085:12088   */\n      dup4\n        /* \"#utility.yul\":12072:12102   */\n      calldatacopy\n        /* \"#utility.yul\":12136:12137   */\n      0x00\n        /* \"#utility.yul\":12127:12133   */\n      dup4\n        /* \"#utility.yul\":12122:12125   */\n      dup4\n        /* \"#utility.yul\":12118:12134   */\n      add\n        /* \"#utility.yul\":12111:12138   */\n      mstore\n        /* \"#utility.yul\":11997:12145   */\n      pop\n      pop\n      pop\n      jump\t// out\n        /* \"#utility.yul\":12151:12576   */\n    tag_249:\n        /* \"#utility.yul\":12229:12234   */\n      0x00\n        /* \"#utility.yul\":12254:12320   */\n      tag_397\n        /* \"#utility.yul\":12270:12319   */\n      tag_398\n        /* \"#utility.yul\":12312:12318   */\n      dup5\n        /* \"#utility.yul\":12270:12319   */\n      tag_247\n      jump\t// in\n    tag_398:\n        /* \"#utility.yul\":12254:12320   */\n      tag_246\n      jump\t// in\n    tag_397:\n        /* \"#utility.yul\":12245:12320   */\n      swap1\n      pop\n        /* \"#utility.yul\":12343:12349   */\n      dup3\n        /* \"#utility.yul\":12336:12341   */\n      dup2\n        /* \"#utility.yul\":12329:12350   */\n      mstore\n        /* \"#utility.yul\":12381:12385   */\n      0x20\n        /* \"#utility.yul\":12374:12379   */\n      dup2\n        /* \"#utility.yul\":12370:12386   */\n      add\n        /* \"#utility.yul\":12419:12422   */\n      dup5\n        /* \"#utility.yul\":12410:12416   */\n      dup5\n        /* \"#utility.yul\":12405:12408   */\n      dup5\n        /* \"#utility.yul\":12401:12417   */\n      add\n        /* \"#utility.yul\":12398:12423   */\n      gt\n        /* \"#utility.yul\":12395:12507   */\n      iszero\n      tag_399\n      jumpi\n        /* \"#utility.yul\":12426:12505   */\n      tag_400\n      tag_244\n      jump\t// in\n    tag_400:\n        /* \"#utility.yul\":12395:12507   */\n    tag_399:\n        /* \"#utility.yul\":12516:12570   */\n      tag_401\n        /* \"#utility.yul\":12563:12569   */\n      dup5\n        /* \"#utility.yul\":12558:12561   */\n      dup3\n        /* \"#utility.yul\":12553:12556   */\n      dup6\n        /* \"#utility.yul\":12516:12570   */\n      tag_248\n      jump\t// in\n    tag_401:\n        /* \"#utility.yul\":12235:12576   */\n      pop\n        /* \"#utility.yul\":12151:12576   */\n      swap4\n      swap3\n      pop\n      pop\n      pop\n      jump\t// out\n        /* \"#utility.yul\":12596:12936   */\n    tag_250:\n        /* \"#utility.yul\":12652:12657   */\n      0x00\n        /* \"#utility.yul\":12701:12704   */\n      dup3\n        /* \"#utility.yul\":12694:12698   */\n      0x1f\n        /* \"#utility.yul\":12686:12692   */\n      dup4\n        /* \"#utility.yul\":12682:12699   */\n      add\n        /* \"#utility.yul\":12678:12705   */\n      slt\n        /* \"#utility.yul\":12668:12790   */\n      tag_403\n      jumpi\n        /* \"#utility.yul\":12709:12788   */\n      tag_404\n      tag_243\n      jump\t// in\n    tag_404:\n        /* \"#utility.yul\":12668:12790   */\n    tag_403:\n        /* \"#utility.yul\":12826:12832   */\n      dup2\n        /* \"#utility.yul\":12813:12833   */\n      calldataload\n        /* \"#utility.yul\":12851:12930   */\n      tag_405\n        /* \"#utility.yul\":12926:12929   */\n      dup5\n        /* \"#utility.yul\":12918:12924   */\n      dup3\n        /* \"#utility.yul\":12911:12915   */\n      0x20\n        /* \"#utility.yul\":12903:12909   */\n      dup7\n        /* \"#utility.yul\":12899:12916   */\n      add\n        /* \"#utility.yul\":12851:12930   */\n      tag_249\n      jump\t// in\n    tag_405:\n        /* \"#utility.yul\":12842:12930   */\n      swap2\n      pop\n        /* \"#utility.yul\":12658:12936   */\n      pop\n        /* \"#utility.yul\":12596:12936   */\n      swap3\n      swap2\n      pop\n      pop\n      jump\t// out\n        /* \"#utility.yul\":12942:14539   */\n    tag_42:\n        /* \"#utility.yul\":13076:13082   */\n      0x00\n        /* \"#utility.yul\":13084:13090   */\n      dup1\n        /* \"#utility.yul\":13092:13098   */\n      0x00\n        /* \"#utility.yul\":13100:13106   */\n      dup1\n        /* \"#utility.yul\":13108:13114   */\n      0x00\n        /* \"#utility.yul\":13116:13122   */\n      dup1\n        /* \"#utility.yul\":13165:13168   */\n      0xc0\n        /* \"#utility.yul\":13153:13162   */\n      dup8\n        /* \"#utility.yul\":13144:13151   */\n      dup10\n        /* \"#utility.yul\":13140:13163   */\n      sub\n        /* \"#utility.yul\":13136:13169   */\n      slt\n        /* \"#utility.yul\":13133:13253   */\n      iszero\n      tag_407\n      jumpi\n        /* \"#utility.yul\":13172:13251   */\n      tag_408\n      tag_232\n      jump\t// in\n    tag_408:\n        /* \"#utility.yul\":13133:13253   */\n    tag_407:\n        /* \"#utility.yul\":13292:13293   */\n      0x00\n        /* \"#utility.yul\":13317:13370   */\n      tag_409\n        /* \"#utility.yul\":13362:13369   */\n      dup10\n        /* \"#utility.yul\":13353:13359   */\n      dup3\n        /* \"#utility.yul\":13342:13351   */\n      dup11\n        /* \"#utility.yul\":13338:13360   */\n      add\n        /* \"#utility.yul\":13317:13370   */\n      tag_242\n      jump\t// in\n    tag_409:\n        /* \"#utility.yul\":13307:13370   */\n      swap7\n      pop\n        /* \"#utility.yul\":13263:13380   */\n      pop\n        /* \"#utility.yul\":13447:13449   */\n      0x20\n        /* \"#utility.yul\":13436:13445   */\n      dup8\n        /* \"#utility.yul\":13432:13450   */\n      add\n        /* \"#utility.yul\":13419:13451   */\n      calldataload\n        /* \"#utility.yul\":13478:13496   */\n      0xffffffffffffffff\n        /* \"#utility.yul\":13470:13476   */\n      dup2\n        /* \"#utility.yul\":13467:13497   */\n      gt\n        /* \"#utility.yul\":13464:13581   */\n      iszero\n      tag_410\n      jumpi\n        /* \"#utility.yul\":13500:13579   */\n      tag_411\n      tag_233\n      jump\t// in\n    tag_411:\n        /* \"#utility.yul\":13464:13581   */\n    tag_410:\n        /* \"#utility.yul\":13605:13668   */\n      tag_412\n        /* \"#utility.yul\":13660:13667   */\n      dup10\n        /* \"#utility.yul\":13651:13657   */\n      dup3\n        /* \"#utility.yul\":13640:13649   */\n      dup11\n        /* \"#utility.yul\":13636:13658   */\n      add\n        /* \"#utility.yul\":13605:13668   */\n      tag_250\n      jump\t// in\n    tag_412:\n        /* \"#utility.yul\":13595:13668   */\n      swap6\n      pop\n        /* \"#utility.yul\":13390:13678   */\n      pop\n        /* \"#utility.yul\":13745:13747   */\n      0x40\n        /* \"#utility.yul\":13734:13743   */\n      dup8\n        /* \"#utility.yul\":13730:13748   */\n      add\n        /* \"#utility.yul\":13717:13749   */\n      calldataload\n        /* \"#utility.yul\":13776:13794   */\n      0xffffffffffffffff\n        /* \"#utility.yul\":13768:13774   */\n      dup2\n        /* \"#utility.yul\":13765:13795   */\n      gt\n        /* \"#utility.yul\":13762:13879   */\n      iszero\n      tag_413\n      jumpi\n        /* \"#utility.yul\":13798:13877   */\n      tag_414\n      tag_233\n      jump\t// in\n    tag_414:\n        /* \"#utility.yul\":13762:13879   */\n    tag_413:\n        /* \"#utility.yul\":13903:13966   */\n      tag_415\n        /* \"#utility.yul\":13958:13965   */\n      dup10\n        /* \"#utility.yul\":13949:13955   */\n      dup3\n        /* \"#utility.yul\":13938:13947   */\n      dup11\n        /* \"#utility.yul\":13934:13956   */\n      add\n        /* \"#utility.yul\":13903:13966   */\n      tag_250\n      jump\t// in\n    tag_415:\n        /* \"#utility.yul\":13893:13966   */\n      swap5\n      pop\n        /* \"#utility.yul\":13688:13976   */\n      pop\n        /* \"#utility.yul\":14015:14017   */\n      0x60\n        /* \"#utility.yul\":14041:14094   */\n      tag_416\n        /* \"#utility.yul\":14086:14093   */\n      dup10\n        /* \"#utility.yul\":14077:14083   */\n      dup3\n        /* \"#utility.yul\":14066:14075   */\n      dup11\n        /* \"#utility.yul\":14062:14084   */\n      add\n        /* \"#utility.yul\":14041:14094   */\n      tag_235\n      jump\t// in\n    tag_416:\n        /* \"#utility.yul\":14031:14094   */\n      swap4\n      pop\n        /* \"#utility.yul\":13986:14104   */\n      pop\n        /* \"#utility.yul\":14171:14174   */\n      0x80\n        /* \"#utility.yul\":14160:14169   */\n      dup8\n        /* \"#utility.yul\":14156:14175   */\n      add\n        /* \"#utility.yul\":14143:14176   */\n      calldataload\n        /* \"#utility.yul\":14203:14221   */\n      0xffffffffffffffff\n        /* \"#utility.yul\":14195:14201   */\n      dup2\n        /* \"#utility.yul\":14192:14222   */\n      gt\n        /* \"#utility.yul\":14189:14306   */\n      iszero\n      tag_417\n      jumpi\n        /* \"#utility.yul\":14225:14304   */\n      tag_418\n      tag_233\n      jump\t// in\n    tag_418:\n        /* \"#utility.yul\":14189:14306   */\n    tag_417:\n        /* \"#utility.yul\":14330:14393   */\n      tag_419\n        /* \"#utility.yul\":14385:14392   */\n      dup10\n        /* \"#utility.yul\":14376:14382   */\n      dup3\n        /* \"#utility.yul\":14365:14374   */\n      dup11\n        /* \"#utility.yul\":14361:14383   */\n      add\n        /* \"#utility.yul\":14330:14393   */\n      tag_250\n      jump\t// in\n    tag_419:\n        /* \"#utility.yul\":14320:14393   */\n      swap3\n      pop\n        /* \"#utility.yul\":14114:14403   */\n      pop\n        /* \"#utility.yul\":14442:14445   */\n      0xa0\n        /* \"#utility.yul\":14469:14522   */\n      tag_420\n        /* \"#utility.yul\":14514:14521   */\n      dup10\n        /* \"#utility.yul\":14505:14511   */\n      dup3\n        /* \"#utility.yul\":14494:14503   */\n      dup11\n        /* \"#utility.yul\":14490:14512   */\n      add\n        /* \"#utility.yul\":14469:14522   */\n      tag_235\n      jump\t// in\n    tag_420:\n        /* \"#utility.yul\":14459:14522   */\n      swap2\n      pop\n        /* \"#utility.yul\":14413:14532   */\n      pop\n        /* \"#utility.yul\":12942:14539   */\n      swap3\n      swap6\n      pop\n      swap3\n      swap6\n      pop\n      swap3\n      swap6\n      jump\t// out\n        /* \"#utility.yul\":14545:15843   */\n    tag_54:\n        /* \"#utility.yul\":14904:14908   */\n      0x00\n        /* \"#utility.yul\":14942:14945   */\n      0x0140\n        /* \"#utility.yul\":14931:14940   */\n      dup3\n        /* \"#utility.yul\":14927:14946   */\n      add\n        /* \"#utility.yul\":14919:14946   */\n      swap1\n      pop\n        /* \"#utility.yul\":14956:15027   */\n      tag_422\n        /* \"#utility.yul\":15024:15025   */\n      0x00\n        /* \"#utility.yul\":15013:15022   */\n      dup4\n        /* \"#utility.yul\":15009:15026   */\n      add\n        /* \"#utility.yul\":15000:15006   */\n      dup14\n        /* \"#utility.yul\":14956:15027   */\n      tag_239\n      jump\t// in\n    tag_422:\n        /* \"#utility.yul\":15037:15109   */\n      tag_423\n        /* \"#utility.yul\":15105:15107   */\n      0x20\n        /* \"#utility.yul\":15094:15103   */\n      dup4\n        /* \"#utility.yul\":15090:15108   */\n      add\n        /* \"#utility.yul\":15081:15087   */\n      dup13\n        /* \"#utility.yul\":15037:15109   */\n      tag_239\n      jump\t// in\n    tag_423:\n        /* \"#utility.yul\":15119:15191   */\n      tag_424\n        /* \"#utility.yul\":15187:15189   */\n      0x40\n        /* \"#utility.yul\":15176:15185   */\n      dup4\n        /* \"#utility.yul\":15172:15190   */\n      add\n        /* \"#utility.yul\":15163:15169   */\n      dup12\n        /* \"#utility.yul\":15119:15191   */\n      tag_238\n      jump\t// in\n    tag_424:\n        /* \"#utility.yul\":15201:15273   */\n      tag_425\n        /* \"#utility.yul\":15269:15271   */\n      0x60\n        /* \"#utility.yul\":15258:15267   */\n      dup4\n        /* \"#utility.yul\":15254:15272   */\n      add\n        /* \"#utility.yul\":15245:15251   */\n      dup11\n        /* \"#utility.yul\":15201:15273   */\n      tag_238\n      jump\t// in\n    tag_425:\n        /* \"#utility.yul\":15283:15356   */\n      tag_426\n        /* \"#utility.yul\":15351:15354   */\n      0x80\n        /* \"#utility.yul\":15340:15349   */\n      dup4\n        /* \"#utility.yul\":15336:15355   */\n      add\n        /* \"#utility.yul\":15327:15333   */\n      dup10\n        /* \"#utility.yul\":15283:15356   */\n      tag_239\n      jump\t// in\n    tag_426:\n        /* \"#utility.yul\":15366:15439   */\n      tag_427\n        /* \"#utility.yul\":15434:15437   */\n      0xa0\n        /* \"#utility.yul\":15423:15432   */\n      dup4\n        /* \"#utility.yul\":15419:15438   */\n      add\n        /* \"#utility.yul\":15410:15416   */\n      dup9\n        /* \"#utility.yul\":15366:15439   */\n      tag_239\n      jump\t// in\n    tag_427:\n        /* \"#utility.yul\":15449:15522   */\n      tag_428\n        /* \"#utility.yul\":15517:15520   */\n      0xc0\n        /* \"#utility.yul\":15506:15515   */\n      dup4\n        /* \"#utility.yul\":15502:15521   */\n      add\n        /* \"#utility.yul\":15493:15499   */\n      dup8\n        /* \"#utility.yul\":15449:15522   */\n      tag_239\n      jump\t// in\n    tag_428:\n        /* \"#utility.yul\":15532:15605   */\n      tag_429\n        /* \"#utility.yul\":15600:15603   */\n      0xe0\n        /* \"#utility.yul\":15589:15598   */\n      dup4\n        /* \"#utility.yul\":15585:15604   */\n      add\n        /* \"#utility.yul\":15576:15582   */\n      dup7\n        /* \"#utility.yul\":15532:15605   */\n      tag_239\n      jump\t// in\n    tag_429:\n        /* \"#utility.yul\":15653:15662   */\n      dup2\n        /* \"#utility.yul\":15647:15651   */\n      dup2\n        /* \"#utility.yul\":15643:15663   */\n      sub\n        /* \"#utility.yul\":15637:15640   */\n      0x0100\n        /* \"#utility.yul\":15626:15635   */\n      dup4\n        /* \"#utility.yul\":15622:15641   */\n      add\n        /* \"#utility.yul\":15615:15664   */\n      mstore\n        /* \"#utility.yul\":15681:15759   */\n      tag_430\n        /* \"#utility.yul\":15754:15758   */\n      dup2\n        /* \"#utility.yul\":15745:15751   */\n      dup6\n        /* \"#utility.yul\":15681:15759   */\n      tag_237\n      jump\t// in\n    tag_430:\n        /* \"#utility.yul\":15673:15759   */\n      swap1\n      pop\n        /* \"#utility.yul\":15769:15836   */\n      tag_431\n        /* \"#utility.yul\":15831:15834   */\n      0x0120\n        /* \"#utility.yul\":15820:15829   */\n      dup4\n        /* \"#utility.yul\":15816:15835   */\n      add\n        /* \"#utility.yul\":15807:15813   */\n      dup5\n        /* \"#utility.yul\":15769:15836   */\n      tag_240\n      jump\t// in\n    tag_431:\n        /* \"#utility.yul\":14545:15843   */\n      swap12\n      swap11\n      pop\n      pop\n      pop\n      pop\n      pop\n      pop\n      pop\n      pop\n      pop\n      pop\n      pop\n      jump\t// out\n        /* \"#utility.yul\":15849:15987   */\n    tag_251:\n        /* \"#utility.yul\":15940:15946   */\n      0x00\n        /* \"#utility.yul\":15974:15979   */\n      dup2\n        /* \"#utility.yul\":15968:15980   */\n      mload\n        /* \"#utility.yul\":15958:15980   */\n      swap1\n      pop\n        /* \"#utility.yul\":15849:15987   */\n      swap2\n      swap1\n      pop\n      jump\t// out\n        /* \"#utility.yul\":15993:16201   */\n    tag_252:\n        /* \"#utility.yul\":16116:16127   */\n      0x00\n        /* \"#utility.yul\":16150:16156   */\n      dup3\n        /* \"#utility.yul\":16145:16148   */\n      dup3\n        /* \"#utility.yul\":16138:16157   */\n      mstore\n        /* \"#utility.yul\":16190:16194   */\n      0x20\n        /* \"#utility.yul\":16185:16188   */\n      dup3\n        /* \"#utility.yul\":16181:16195   */\n      add\n        /* \"#utility.yul\":16166:16195   */\n      swap1\n      pop\n        /* \"#utility.yul\":15993:16201   */\n      swap3\n      swap2\n      pop\n      pop\n      jump\t// out\n        /* \"#utility.yul\":16207:16363   */\n    tag_253:\n        /* \"#utility.yul\":16298:16302   */\n      0x00\n        /* \"#utility.yul\":16321:16324   */\n      dup2\n        /* \"#utility.yul\":16313:16324   */\n      swap1\n      pop\n        /* \"#utility.yul\":16351:16355   */\n      0x20\n        /* \"#utility.yul\":16346:16349   */\n      dup3\n        /* \"#utility.yul\":16342:16356   */\n      add\n        /* \"#utility.yul\":16334:16356   */\n      swap1\n      pop\n        /* \"#utility.yul\":16207:16363   */\n      swap2\n      swap1\n      pop\n      jump\t// out\n        /* \"#utility.yul\":16427:18472   */\n    tag_254:\n        /* \"#utility.yul\":16534:16537   */\n      0x00\n        /* \"#utility.yul\":16570:16576   */\n      0x0140\n        /* \"#utility.yul\":16565:16568   */\n      dup4\n        /* \"#utility.yul\":16561:16577   */\n      add\n        /* \"#utility.yul\":16657:16661   */\n      0x00\n        /* \"#utility.yul\":16650:16655   */\n      dup4\n        /* \"#utility.yul\":16646:16662   */\n      add\n        /* \"#utility.yul\":16640:16663   */\n      mload\n        /* \"#utility.yul\":16676:16739   */\n      tag_436\n        /* \"#utility.yul\":16733:16737   */\n      0x00\n        /* \"#utility.yul\":16728:16731   */\n      dup7\n        /* \"#utility.yul\":16724:16738   */\n      add\n        /* \"#utility.yul\":16710:16722   */\n      dup3\n        /* \"#utility.yul\":16676:16739   */\n      tag_224\n      jump\t// in\n    tag_436:\n        /* \"#utility.yul\":16587:16749   */\n      pop\n        /* \"#utility.yul\":16832:16836   */\n      0x20\n        /* \"#utility.yul\":16825:16830   */\n      dup4\n        /* \"#utility.yul\":16821:16837   */\n      add\n        /* \"#utility.yul\":16815:16838   */\n      mload\n        /* \"#utility.yul\":16851:16914   */\n      tag_437\n        /* \"#utility.yul\":16908:16912   */\n      0x20\n        /* \"#utility.yul\":16903:16906   */\n      dup7\n        /* \"#utility.yul\":16899:16913   */\n      add\n        /* \"#utility.yul\":16885:16897   */\n      dup3\n        /* \"#utility.yul\":16851:16914   */\n      tag_224\n      jump\t// in\n    tag_437:\n        /* \"#utility.yul\":16759:16924   */\n      pop\n        /* \"#utility.yul\":17007:17011   */\n      0x40\n        /* \"#utility.yul\":17000:17005   */\n      dup4\n        /* \"#utility.yul\":16996:17012   */\n      add\n        /* \"#utility.yul\":16990:17013   */\n      mload\n        /* \"#utility.yul\":17026:17089   */\n      tag_438\n        /* \"#utility.yul\":17083:17087   */\n      0x40\n        /* \"#utility.yul\":17078:17081   */\n      dup7\n        /* \"#utility.yul\":17074:17088   */\n      add\n        /* \"#utility.yul\":17060:17072   */\n      dup3\n        /* \"#utility.yul\":17026:17089   */\n      tag_217\n      jump\t// in\n    tag_438:\n        /* \"#utility.yul\":16934:17099   */\n      pop\n        /* \"#utility.yul\":17183:17187   */\n      0x60\n        /* \"#utility.yul\":17176:17181   */\n      dup4\n        /* \"#utility.yul\":17172:17188   */\n      add\n        /* \"#utility.yul\":17166:17189   */\n      mload\n        /* \"#utility.yul\":17202:17265   */\n      tag_439\n        /* \"#utility.yul\":17259:17263   */\n      0x60\n        /* \"#utility.yul\":17254:17257   */\n      dup7\n        /* \"#utility.yul\":17250:17264   */\n      add\n        /* \"#utility.yul\":17236:17248   */\n      dup3\n        /* \"#utility.yul\":17202:17265   */\n      tag_217\n      jump\t// in\n    tag_439:\n        /* \"#utility.yul\":17109:17275   */\n      pop\n        /* \"#utility.yul\":17359:17363   */\n      0x80\n        /* \"#utility.yul\":17352:17357   */\n      dup4\n        /* \"#utility.yul\":17348:17364   */\n      add\n        /* \"#utility.yul\":17342:17365   */\n      mload\n        /* \"#utility.yul\":17378:17441   */\n      tag_440\n        /* \"#utility.yul\":17435:17439   */\n      0x80\n        /* \"#utility.yul\":17430:17433   */\n      dup7\n        /* \"#utility.yul\":17426:17440   */\n      add\n        /* \"#utility.yul\":17412:17424   */\n      dup3\n        /* \"#utility.yul\":17378:17441   */\n      tag_224\n      jump\t// in\n    tag_440:\n        /* \"#utility.yul\":17285:17451   */\n      pop\n        /* \"#utility.yul\":17541:17545   */\n      0xa0\n        /* \"#utility.yul\":17534:17539   */\n      dup4\n        /* \"#utility.yul\":17530:17546   */\n      add\n        /* \"#utility.yul\":17524:17547   */\n      mload\n        /* \"#utility.yul\":17560:17623   */\n      tag_441\n        /* \"#utility.yul\":17617:17621   */\n      0xa0\n        /* \"#utility.yul\":17612:17615   */\n      dup7\n        /* \"#utility.yul\":17608:17622   */\n      add\n        /* \"#utility.yul\":17594:17606   */\n      dup3\n        /* \"#utility.yul\":17560:17623   */\n      tag_224\n      jump\t// in\n    tag_441:\n        /* \"#utility.yul\":17461:17633   */\n      pop\n        /* \"#utility.yul\":17723:17727   */\n      0xc0\n        /* \"#utility.yul\":17716:17721   */\n      dup4\n        /* \"#utility.yul\":17712:17728   */\n      add\n        /* \"#utility.yul\":17706:17729   */\n      mload\n        /* \"#utility.yul\":17742:17805   */\n      tag_442\n        /* \"#utility.yul\":17799:17803   */\n      0xc0\n        /* \"#utility.yul\":17794:17797   */\n      dup7\n        /* \"#utility.yul\":17790:17804   */\n      add\n        /* \"#utility.yul\":17776:17788   */\n      dup3\n        /* \"#utility.yul\":17742:17805   */\n      tag_224\n      jump\t// in\n    tag_442:\n        /* \"#utility.yul\":17643:17815   */\n      pop\n        /* \"#utility.yul\":17910:17914   */\n      0xe0\n        /* \"#utility.yul\":17903:17908   */\n      dup4\n        /* \"#utility.yul\":17899:17915   */\n      add\n        /* \"#utility.yul\":17893:17916   */\n      mload\n        /* \"#utility.yul\":17929:17992   */\n      tag_443\n        /* \"#utility.yul\":17986:17990   */\n      0xe0\n        /* \"#utility.yul\":17981:17984   */\n      dup7\n        /* \"#utility.yul\":17977:17991   */\n      add\n        /* \"#utility.yul\":17963:17975   */\n      dup3\n        /* \"#utility.yul\":17929:17992   */\n      tag_224\n      jump\t// in\n    tag_443:\n        /* \"#utility.yul\":17825:18002   */\n      pop\n        /* \"#utility.yul\":18094:18100   */\n      0x0100\n        /* \"#utility.yul\":18087:18092   */\n      dup4\n        /* \"#utility.yul\":18083:18101   */\n      add\n        /* \"#utility.yul\":18077:18102   */\n      mload\n        /* \"#utility.yul\":18151:18154   */\n      dup5\n        /* \"#utility.yul\":18145:18149   */\n      dup3\n        /* \"#utility.yul\":18141:18155   */\n      sub\n        /* \"#utility.yul\":18132:18138   */\n      0x0100\n        /* \"#utility.yul\":18127:18130   */\n      dup7\n        /* \"#utility.yul\":18123:18139   */\n      add\n        /* \"#utility.yul\":18116:18156   */\n      mstore\n        /* \"#utility.yul\":18177:18250   */\n      tag_444\n        /* \"#utility.yul\":18245:18249   */\n      dup3\n        /* \"#utility.yul\":18231:18243   */\n      dup3\n        /* \"#utility.yul\":18177:18250   */\n      tag_222\n      jump\t// in\n    tag_444:\n        /* \"#utility.yul\":18169:18250   */\n      swap2\n      pop\n        /* \"#utility.yul\":18012:18261   */\n      pop\n        /* \"#utility.yul\":18355:18361   */\n      0x0120\n        /* \"#utility.yul\":18348:18353   */\n      dup4\n        /* \"#utility.yul\":18344:18362   */\n      add\n        /* \"#utility.yul\":18338:18363   */\n      mload\n        /* \"#utility.yul\":18376:18435   */\n      tag_445\n        /* \"#utility.yul\":18427:18433   */\n      0x0120\n        /* \"#utility.yul\":18422:18425   */\n      dup7\n        /* \"#utility.yul\":18418:18434   */\n      add\n        /* \"#utility.yul\":18404:18416   */\n      dup3\n        /* \"#utility.yul\":18376:18435   */\n      tag_226\n      jump\t// in\n    tag_445:\n        /* \"#utility.yul\":18271:18445   */\n      pop\n        /* \"#utility.yul\":18462:18466   */\n      dup1\n        /* \"#utility.yul\":18455:18466   */\n      swap2\n      pop\n        /* \"#utility.yul\":16539:18472   */\n      pop\n        /* \"#utility.yul\":16427:18472   */\n      swap3\n      swap2\n      pop\n      pop\n      jump\t// out\n        /* \"#utility.yul\":18478:18730   */\n    tag_255:\n        /* \"#utility.yul\":18595:18605   */\n      0x00\n        /* \"#utility.yul\":18630:18724   */\n      tag_447\n        /* \"#utility.yul\":18720:18723   */\n      dup4\n        /* \"#utility.yul\":18712:18718   */\n      dup4\n        /* \"#utility.yul\":18630:18724   */\n      tag_254\n      jump\t// in\n    tag_447:\n        /* \"#utility.yul\":18616:18724   */\n      swap1\n      pop\n        /* \"#utility.yul\":18478:18730   */\n      swap3\n      swap2\n      pop\n      pop\n      jump\t// out\n        /* \"#utility.yul\":18736:18873   */\n    tag_256:\n        /* \"#utility.yul\":18830:18834   */\n      0x00\n        /* \"#utility.yul\":18862:18866   */\n      0x20\n        /* \"#utility.yul\":18857:18860   */\n      dup3\n        /* \"#utility.yul\":18853:18867   */\n      add\n        /* \"#utility.yul\":18845:18867   */\n      swap1\n      pop\n        /* \"#utility.yul\":18736:18873   */\n      swap2\n      swap1\n      pop\n      jump\t// out\n        /* \"#utility.yul\":18941:20044   */\n    tag_257:\n        /* \"#utility.yul\":19108:19111   */\n      0x00\n        /* \"#utility.yul\":19137:19215   */\n      tag_450\n        /* \"#utility.yul\":19209:19214   */\n      dup3\n        /* \"#utility.yul\":19137:19215   */\n      tag_251\n      jump\t// in\n    tag_450:\n        /* \"#utility.yul\":19231:19341   */\n      tag_451\n        /* \"#utility.yul\":19334:19340   */\n      dup2\n        /* \"#utility.yul\":19329:19332   */\n      dup6\n        /* \"#utility.yul\":19231:19341   */\n      tag_252\n      jump\t// in\n    tag_451:\n        /* \"#utility.yul\":19224:19341   */\n      swap4\n      pop\n        /* \"#utility.yul\":19367:19370   */\n      dup4\n        /* \"#utility.yul\":19412:19416   */\n      0x20\n        /* \"#utility.yul\":19404:19410   */\n      dup3\n        /* \"#utility.yul\":19400:19417   */\n      mul\n        /* \"#utility.yul\":19395:19398   */\n      dup6\n        /* \"#utility.yul\":19391:19418   */\n      add\n        /* \"#utility.yul\":19442:19522   */\n      tag_452\n        /* \"#utility.yul\":19516:19521   */\n      dup6\n        /* \"#utility.yul\":19442:19522   */\n      tag_253\n      jump\t// in\n    tag_452:\n        /* \"#utility.yul\":19545:19552   */\n      dup1\n        /* \"#utility.yul\":19576:19577   */\n      0x00\n        /* \"#utility.yul\":19561:19999   */\n    tag_453:\n        /* \"#utility.yul\":19586:19592   */\n      dup6\n        /* \"#utility.yul\":19583:19584   */\n      dup2\n        /* \"#utility.yul\":19580:19593   */\n      lt\n        /* \"#utility.yul\":19561:19999   */\n      iszero\n      tag_455\n      jumpi\n        /* \"#utility.yul\":19657:19666   */\n      dup5\n        /* \"#utility.yul\":19651:19655   */\n      dup5\n        /* \"#utility.yul\":19647:19667   */\n      sub\n        /* \"#utility.yul\":19642:19645   */\n      dup10\n        /* \"#utility.yul\":19635:19668   */\n      mstore\n        /* \"#utility.yul\":19708:19714   */\n      dup2\n        /* \"#utility.yul\":19702:19715   */\n      mload\n        /* \"#utility.yul\":19736:19848   */\n      tag_456\n        /* \"#utility.yul\":19843:19847   */\n      dup6\n        /* \"#utility.yul\":19828:19841   */\n      dup3\n        /* \"#utility.yul\":19736:19848   */\n      tag_255\n      jump\t// in\n    tag_456:\n        /* \"#utility.yul\":19728:19848   */\n      swap5\n      pop\n        /* \"#utility.yul\":19871:19955   */\n      tag_457\n        /* \"#utility.yul\":19948:19954   */\n      dup4\n        /* \"#utility.yul\":19871:19955   */\n      tag_256\n      jump\t// in\n    tag_457:\n        /* \"#utility.yul\":19861:19955   */\n      swap3\n      pop\n        /* \"#utility.yul\":19984:19988   */\n      0x20\n        /* \"#utility.yul\":19979:19982   */\n      dup11\n        /* \"#utility.yul\":19975:19989   */\n      add\n        /* \"#utility.yul\":19968:19989   */\n      swap10\n      pop\n        /* \"#utility.yul\":19621:19999   */\n      pop\n        /* \"#utility.yul\":19608:19609   */\n      0x01\n        /* \"#utility.yul\":19605:19606   */\n      dup2\n        /* \"#utility.yul\":19601:19610   */\n      add\n        /* \"#utility.yul\":19596:19610   */\n      swap1\n      pop\n        /* \"#utility.yul\":19561:19999   */\n      jump(tag_453)\n    tag_455:\n        /* \"#utility.yul\":19565:19579   */\n      pop\n        /* \"#utility.yul\":20015:20019   */\n      dup3\n        /* \"#utility.yul\":20008:20019   */\n      swap8\n      pop\n        /* \"#utility.yul\":20035:20038   */\n      dup8\n        /* \"#utility.yul\":20028:20038   */\n      swap6\n      pop\n        /* \"#utility.yul\":19113:20044   */\n      pop\n      pop\n      pop\n      pop\n      pop\n        /* \"#utility.yul\":18941:20044   */\n      swap3\n      swap2\n      pop\n      pop\n      jump\t// out\n        /* \"#utility.yul\":20050:20519   */\n    tag_67:\n        /* \"#utility.yul\":20241:20245   */\n      0x00\n        /* \"#utility.yul\":20279:20281   */\n      0x20\n        /* \"#utility.yul\":20268:20277   */\n      dup3\n        /* \"#utility.yul\":20264:20282   */\n      add\n        /* \"#utility.yul\":20256:20282   */\n      swap1\n      pop\n        /* \"#utility.yul\":20328:20337   */\n      dup2\n        /* \"#utility.yul\":20322:20326   */\n      dup2\n        /* \"#utility.yul\":20318:20338   */\n      sub\n        /* \"#utility.yul\":20314:20315   */\n      0x00\n        /* \"#utility.yul\":20303:20312   */\n      dup4\n        /* \"#utility.yul\":20299:20316   */\n      add\n        /* \"#utility.yul\":20292:20339   */\n      mstore\n        /* \"#utility.yul\":20356:20512   */\n      tag_459\n        /* \"#utility.yul\":20507:20511   */\n      dup2\n        /* \"#utility.yul\":20498:20504   */\n      dup5\n        /* \"#utility.yul\":20356:20512   */\n      tag_257\n      jump\t// in\n    tag_459:\n        /* \"#utility.yul\":20348:20512   */\n      swap1\n      pop\n        /* \"#utility.yul\":20050:20519   */\n      swap3\n      swap2\n      pop\n      pop\n      jump\t// out\n        /* \"#utility.yul\":20525:20705   */\n    tag_258:\n        /* \"#utility.yul\":20573:20650   */\n      0x4e487b7100000000000000000000000000000000000000000000000000000000\n        /* \"#utility.yul\":20570:20571   */\n      0x00\n        /* \"#utility.yul\":20563:20651   */\n      mstore\n        /* \"#utility.yul\":20670:20674   */\n      0x22\n        /* \"#utility.yul\":20667:20668   */\n      0x04\n        /* \"#utility.yul\":20660:20675   */\n      mstore\n        /* \"#utility.yul\":20694:20698   */\n      0x24\n        /* \"#utility.yul\":20691:20692   */\n      0x00\n        /* \"#utility.yul\":20684:20699   */\n      revert\n        /* \"#utility.yul\":20711:21031   */\n    tag_83:\n        /* \"#utility.yul\":20755:20761   */\n      0x00\n        /* \"#utility.yul\":20792:20793   */\n      0x02\n        /* \"#utility.yul\":20786:20790   */\n      dup3\n        /* \"#utility.yul\":20782:20794   */\n      div\n        /* \"#utility.yul\":20772:20794   */\n      swap1\n      pop\n        /* \"#utility.yul\":20839:20840   */\n      0x01\n        /* \"#utility.yul\":20833:20837   */\n      dup3\n        /* \"#utility.yul\":20829:20841   */\n      and\n        /* \"#utility.yul\":20860:20878   */\n      dup1\n        /* \"#utility.yul\":20850:20931   */\n      tag_462\n      jumpi\n        /* \"#utility.yul\":20916:20920   */\n      0x7f\n        /* \"#utility.yul\":20908:20914   */\n      dup3\n        /* \"#utility.yul\":20904:20921   */\n      and\n        /* \"#utility.yul\":20894:20921   */\n      swap2\n      pop\n        /* \"#utility.yul\":20850:20931   */\n    tag_462:\n        /* \"#utility.yul\":20978:20980   */\n      0x20\n        /* \"#utility.yul\":20970:20976   */\n      dup3\n        /* \"#utility.yul\":20967:20981   */\n      lt\n        /* \"#utility.yul\":20947:20965   */\n      dup2\n        /* \"#utility.yul\":20944:20982   */\n      sub\n        /* \"#utility.yul\":20941:21025   */\n      tag_463\n      jumpi\n        /* \"#utility.yul\":20997:21015   */\n      tag_464\n      tag_258\n      jump\t// in\n    tag_464:\n        /* \"#utility.yul\":20941:21025   */\n    tag_463:\n        /* \"#utility.yul\":20762:21031   */\n      pop\n        /* \"#utility.yul\":20711:21031   */\n      swap2\n      swap1\n      pop\n      jump\t// out\n        /* \"#utility.yul\":21037:21217   */\n    tag_105:\n        /* \"#utility.yul\":21085:21162   */\n      0x4e487b7100000000000000000000000000000000000000000000000000000000\n        /* \"#utility.yul\":21082:21083   */\n      0x00\n        /* \"#utility.yul\":21075:21163   */\n      mstore\n        /* \"#utility.yul\":21182:21186   */\n      0x32\n        /* \"#utility.yul\":21179:21180   */\n      0x04\n        /* \"#utility.yul\":21172:21187   */\n      mstore\n        /* \"#utility.yul\":21206:21210   */\n      0x24\n        /* \"#utility.yul\":21203:21204   */\n      0x00\n        /* \"#utility.yul\":21196:21211   */\n      revert\n        /* \"#utility.yul\":21223:21364   */\n    tag_259:\n        /* \"#utility.yul\":21272:21276   */\n      0x00\n        /* \"#utility.yul\":21295:21298   */\n      dup2\n        /* \"#utility.yul\":21287:21298   */\n      swap1\n      pop\n        /* \"#utility.yul\":21318:21321   */\n      dup2\n        /* \"#utility.yul\":21315:21316   */\n      0x00\n        /* \"#utility.yul\":21308:21322   */\n      mstore\n        /* \"#utility.yul\":21352:21356   */\n      0x20\n        /* \"#utility.yul\":21349:21350   */\n      0x00\n        /* \"#utility.yul\":21339:21357   */\n      keccak256\n        /* \"#utility.yul\":21331:21357   */\n      swap1\n      pop\n        /* \"#utility.yul\":21223:21364   */\n      swap2\n      swap1\n      pop\n      jump\t// out\n        /* \"#utility.yul\":21370:21463   */\n    tag_260:\n        /* \"#utility.yul\":21407:21413   */\n      0x00\n        /* \"#utility.yul\":21454:21456   */\n      0x20\n        /* \"#utility.yul\":21449:21451   */\n      0x1f\n        /* \"#utility.yul\":21442:21447   */\n      dup4\n        /* \"#utility.yul\":21438:21452   */\n      add\n        /* \"#utility.yul\":21434:21457   */\n      div\n        /* \"#utility.yul\":21424:21457   */\n      swap1\n      pop\n        /* \"#utility.yul\":21370:21463   */\n      swap2\n      swap1\n      pop\n      jump\t// out\n        /* \"#utility.yul\":21469:21576   */\n    tag_261:\n        /* \"#utility.yul\":21513:21521   */\n      0x00\n        /* \"#utility.yul\":21563:21568   */\n      dup3\n        /* \"#utility.yul\":21557:21561   */\n      dup3\n        /* \"#utility.yul\":21553:21569   */\n      shl\n        /* \"#utility.yul\":21532:21569   */\n      swap1\n      pop\n        /* \"#utility.yul\":21469:21576   */\n      swap3\n      swap2\n      pop\n      pop\n      jump\t// out\n        /* \"#utility.yul\":21582:21975   */\n    tag_262:\n        /* \"#utility.yul\":21651:21657   */\n      0x00\n        /* \"#utility.yul\":21701:21702   */\n      0x08\n        /* \"#utility.yul\":21689:21699   */\n      dup4\n        /* \"#utility.yul\":21685:21703   */\n      mul\n        /* \"#utility.yul\":21724:21821   */\n      tag_470\n        /* \"#utility.yul\":21754:21820   */\n      0xffffffffffffffffffffffffffffffffffffffffffffffffffffffffffffffff\n        /* \"#utility.yul\":21743:21752   */\n      dup3\n        /* \"#utility.yul\":21724:21821   */\n      tag_261\n      jump\t// in\n    tag_470:\n        /* \"#utility.yul\":21842:21881   */\n      tag_471\n        /* \"#utility.yul\":21872:21880   */\n      dup7\n        /* \"#utility.yul\":21861:21870   */\n      dup4\n        /* \"#utility.yul\":21842:21881   */\n      tag_261\n      jump\t// in\n    tag_471:\n        /* \"#utility.yul\":21830:21881   */\n      swap6\n      pop\n        /* \"#utility.yul\":21914:21918   */\n      dup1\n        /* \"#utility.yul\":21910:21919   */\n      not\n        /* \"#utility.yul\":21903:21908   */\n      dup5\n        /* \"#utility.yul\":21899:21920   */\n      and\n        /* \"#utility.yul\":21890:21920   */\n      swap4\n      pop\n        /* \"#utility.yul\":21963:21967   */\n      dup1\n        /* \"#utility.yul\":21953:21961   */\n      dup7\n        /* \"#utility.yul\":21949:21968   */\n      and\n        /* \"#utility.yul\":21942:21947   */\n      dup5\n        /* \"#utility.yul\":21939:21969   */\n      or\n        /* \"#utility.yul\":21929:21969   */\n      swap3\n      pop\n        /* \"#utility.yul\":21658:21975   */\n      pop\n      pop\n        /* \"#utility.yul\":21582:21975   */\n      swap4\n      swap3\n      pop\n      pop\n      pop\n      jump\t// out\n        /* \"#utility.yul\":21981:22041   */\n    tag_263:\n        /* \"#utility.yul\":22009:22012   */\n      0x00\n        /* \"#utility.yul\":22030:22035   */\n      dup2\n        /* \"#utility.yul\":22023:22035   */\n      swap1\n      pop\n        /* \"#utility.yul\":21981:22041   */\n      swap2\n      swap1\n      pop\n      jump\t// out\n        /* \"#utility.yul\":22047:22189   */\n    tag_264:\n        /* \"#utility.yul\":22097:22106   */\n      0x00\n        /* \"#utility.yul\":22130:22183   */\n      tag_474\n        /* \"#utility.yul\":22148:22182   */\n      tag_475\n        /* \"#utility.yul\":22157:22181   */\n      tag_476\n        /* \"#utility.yul\":22175:22180   */\n      dup5\n        /* \"#utility.yul\":22157:22181   */\n      tag_223\n      jump\t// in\n    tag_476:\n        /* \"#utility.yul\":22148:22182   */\n      tag_263\n      jump\t// in\n    tag_475:\n        /* \"#utility.yul\":22130:22183   */\n      tag_223\n      jump\t// in\n    tag_474:\n        /* \"#utility.yul\":22117:22183   */\n      swap1\n      pop\n        /* \"#utility.yul\":22047:22189   */\n      swap2\n      swap1\n      pop\n      jump\t// out\n        /* \"#utility.yul\":22195:22270   */\n    tag_265:\n        /* \"#utility.yul\":22238:22241   */\n      0x00\n        /* \"#utility.yul\":22259:22264   */\n      dup2\n        /* \"#utility.yul\":22252:22264   */\n      swap1\n      pop\n        /* \"#utility.yul\":22195:22270   */\n      swap2\n      swap1\n      pop\n      jump\t// out\n        /* \"#utility.yul\":22276:22545   */\n    tag_266:\n        /* \"#utility.yul\":22386:22425   */\n      tag_479\n        /* \"#utility.yul\":22417:22424   */\n      dup4\n        /* \"#utility.yul\":22386:22425   */\n      tag_264\n      jump\t// in\n    tag_479:\n        /* \"#utility.yul\":22447:22538   */\n      tag_480\n        /* \"#utility.yul\":22496:22537   */\n      tag_481\n        /* \"#utility.yul\":22520:22536   */\n      dup3\n        /* \"#utility.yul\":22496:22537   */\n      tag_265\n      jump\t// in\n    tag_481:\n        /* \"#utility.yul\":22488:22494   */\n      dup5\n        /* \"#utility.yul\":22481:22485   */\n      dup5\n        /* \"#utility.yul\":22475:22486   */\n      sload\n        /* \"#utility.yul\":22447:22538   */\n      tag_262\n      jump\t// in\n    tag_480:\n        /* \"#utility.yul\":22441:22445   */\n      dup3\n        /* \"#utility.yul\":22434:22539   */\n      sstore\n        /* \"#utility.yul\":22352:22545   */\n      pop\n        /* \"#utility.yul\":22276:22545   */\n      pop\n      pop\n      pop\n      jump\t// out\n        /* \"#utility.yul\":22551:22624   */\n    tag_267:\n        /* \"#utility.yul\":22596:22599   */\n      0x00\n        /* \"#utility.yul\":22551:22624   */\n      swap1\n      jump\t// out\n        /* \"#utility.yul\":22630:22819   */\n    tag_268:\n        /* \"#utility.yul\":22707:22739   */\n      tag_484\n      tag_267\n      jump\t// in\n    tag_484:\n        /* \"#utility.yul\":22748:22813   */\n      tag_485\n        /* \"#utility.yul\":22806:22812   */\n      dup2\n        /* \"#utility.yul\":22798:22804   */\n      dup5\n        /* \"#utility.yul\":22792:22796   */\n      dup5\n        /* \"#utility.yul\":22748:22813   */\n      tag_266\n      jump\t// in\n    tag_485:\n        /* \"#utility.yul\":22683:22819   */\n      pop\n        /* \"#utility.yul\":22630:22819   */\n      pop\n      pop\n      jump\t// out\n        /* \"#utility.yul\":22825:23011   */\n    tag_269:\n        /* \"#utility.yul\":22885:23005   */\n    tag_487:\n        /* \"#utility.yul\":22902:22905   */\n      dup2\n        /* \"#utility.yul\":22895:22900   */\n      dup2\n        /* \"#utility.yul\":22892:22906   */\n      lt\n        /* \"#utility.yul\":22885:23005   */\n      iszero\n      tag_489\n      jumpi\n        /* \"#utility.yul\":22956:22995   */\n      tag_490\n        /* \"#utility.yul\":22993:22994   */\n      0x00\n        /* \"#utility.yul\":22986:22991   */\n      dup3\n        /* \"#utility.yul\":22956:22995   */\n      tag_268\n      jump\t// in\n    tag_490:\n        /* \"#utility.yul\":22929:22930   */\n      0x01\n        /* \"#utility.yul\":22922:22927   */\n      dup2\n        /* \"#utility.yul\":22918:22931   */\n      add\n        /* \"#utility.yul\":22909:22931   */\n      swap1\n      pop\n        /* \"#utility.yul\":22885:23005   */\n      jump(tag_487)\n    tag_489:\n        /* \"#utility.yul\":22825:23011   */\n      pop\n      pop\n      jump\t// out\n        /* \"#utility.yul\":23017:23560   */\n    tag_270:\n        /* \"#utility.yul\":23118:23120   */\n      0x1f\n        /* \"#utility.yul\":23113:23116   */\n      dup3\n        /* \"#utility.yul\":23110:23121   */\n      gt\n        /* \"#utility.yul\":23107:23553   */\n      iszero\n      tag_492\n      jumpi\n        /* \"#utility.yul\":23152:23190   */\n      tag_493\n        /* \"#utility.yul\":23184:23189   */\n      dup2\n        /* \"#utility.yul\":23152:23190   */\n      tag_259\n      jump\t// in\n    tag_493:\n        /* \"#utility.yul\":23236:23265   */\n      tag_494\n        /* \"#utility.yul\":23254:23264   */\n      dup5\n        /* \"#utility.yul\":23236:23265   */\n      tag_260\n      jump\t// in\n    tag_494:\n        /* \"#utility.yul\":23226:23234   */\n      dup2\n        /* \"#utility.yul\":23222:23266   */\n      add\n        /* \"#utility.yul\":23419:23421   */\n      0x20\n        /* \"#utility.yul\":23407:23417   */\n      dup6\n        /* \"#utility.yul\":23404:23422   */\n      lt\n        /* \"#utility.yul\":23401:23450   */\n      iszero\n      tag_495\n      jumpi\n        /* \"#utility.yul\":23440:23448   */\n      dup2\n        /* \"#utility.yul\":23425:23448   */\n      swap1\n      pop\n        /* \"#utility.yul\":23401:23450   */\n    tag_495:\n        /* \"#utility.yul\":23463:23543   */\n      tag_496\n        /* \"#utility.yul\":23519:23541   */\n      tag_497\n        /* \"#utility.yul\":23537:23540   */\n      dup6\n        /* \"#utility.yul\":23519:23541   */\n      tag_260\n      jump\t// in\n    tag_497:\n        /* \"#utility.yul\":23509:23517   */\n      dup4\n        /* \"#utility.yul\":23505:23542   */\n      add\n        /* \"#utility.yul\":23492:23503   */\n      dup3\n        /* \"#utility.yul\":23463:23543   */\n      tag_269\n      jump\t// in\n    tag_496:\n        /* \"#utility.yul\":23122:23553   */\n      pop\n      pop\n        /* \"#utility.yul\":23107:23553   */\n    tag_492:\n        /* \"#utility.yul\":23017:23560   */\n      pop\n      pop\n      pop\n      jump\t// out\n        /* \"#utility.yul\":23566:23683   */\n    tag_271:\n        /* \"#utility.yul\":23620:23628   */\n      0x00\n        /* \"#utility.yul\":23670:23675   */\n      dup3\n        /* \"#utility.yul\":23664:23668   */\n      dup3\n        /* \"#utility.yul\":23660:23676   */\n      shr\n        /* \"#utility.yul\":23639:23676   */\n      swap1\n      pop\n        /* \"#utility.yul\":23566:23683   */\n      swap3\n      swap2\n      pop\n      pop\n      jump\t// out\n        /* \"#utility.yul\":23689:23858   */\n    tag_272:\n        /* \"#utility.yul\":23733:23739   */\n      0x00\n        /* \"#utility.yul\":23766:23817   */\n      tag_500\n        /* \"#utility.yul\":23814:23815   */\n      0x00\n        /* \"#utility.yul\":23810:23816   */\n      not\n        /* \"#utility.yul\":23802:23807   */\n      dup5\n        /* \"#utility.yul\":23799:23800   */\n      0x08\n        /* \"#utility.yul\":23795:23808   */\n      mul\n        /* \"#utility.yul\":23766:23817   */\n      tag_271\n      jump\t// in\n    tag_500:\n        /* \"#utility.yul\":23762:23818   */\n      not\n        /* \"#utility.yul\":23847:23851   */\n      dup1\n        /* \"#utility.yul\":23841:23845   */\n      dup4\n        /* \"#utility.yul\":23837:23852   */\n      and\n        /* \"#utility.yul\":23827:23852   */\n      swap2\n      pop\n        /* \"#utility.yul\":23740:23858   */\n      pop\n        /* \"#utility.yul\":23689:23858   */\n      swap3\n      swap2\n      pop\n      pop\n      jump\t// out\n        /* \"#utility.yul\":23863:24158   */\n    tag_273:\n        /* \"#utility.yul\":23939:23943   */\n      0x00\n        /* \"#utility.yul\":24085:24114   */\n      tag_502\n        /* \"#utility.yul\":24110:24113   */\n      dup4\n        /* \"#utility.yul\":24104:24108   */\n      dup4\n        /* \"#utility.yul\":24085:24114   */\n      tag_272\n      jump\t// in\n    tag_502:\n        /* \"#utility.yul\":24077:24114   */\n      swap2\n      pop\n        /* \"#utility.yul\":24147:24150   */\n      dup3\n        /* \"#utility.yul\":24144:24145   */\n      0x02\n        /* \"#utility.yul\":24140:24151   */\n      mul\n        /* \"#utility.yul\":24134:24138   */\n      dup3\n        /* \"#utility.yul\":24131:24152   */\n      or\n        /* \"#utility.yul\":24123:24152   */\n      swap1\n      pop\n        /* \"#utility.yul\":23863:24158   */\n      swap3\n      swap2\n      pop\n      pop\n      jump\t// out\n        /* \"#utility.yul\":24163:25558   */\n    tag_108:\n        /* \"#utility.yul\":24280:24317   */\n      tag_504\n        /* \"#utility.yul\":24313:24316   */\n      dup3\n        /* \"#utility.yul\":24280:24317   */\n      tag_218\n      jump\t// in\n    tag_504:\n        /* \"#utility.yul\":24382:24400   */\n      0xffffffffffffffff\n        /* \"#utility.yul\":24374:24380   */\n      dup2\n        /* \"#utility.yul\":24371:24401   */\n      gt\n        /* \"#utility.yul\":24368:24424   */\n      iszero\n      tag_505\n      jumpi\n        /* \"#utility.yul\":24404:24422   */\n      tag_506\n      tag_74\n      jump\t// in\n    tag_506:\n        /* \"#utility.yul\":24368:24424   */\n    tag_505:\n        /* \"#utility.yul\":24448:24486   */\n      tag_507\n        /* \"#utility.yul\":24480:24484   */\n      dup3\n        /* \"#utility.yul\":24474:24485   */\n      sload\n        /* \"#utility.yul\":24448:24486   */\n      tag_83\n      jump\t// in\n    tag_507:\n        /* \"#utility.yul\":24533:24600   */\n      tag_508\n        /* \"#utility.yul\":24593:24599   */\n      dup3\n        /* \"#utility.yul\":24585:24591   */\n      dup3\n        /* \"#utility.yul\":24579:24583   */\n      dup6\n        /* \"#utility.yul\":24533:24600   */\n      tag_270\n      jump\t// in\n    tag_508:\n        /* \"#utility.yul\":24627:24628   */\n      0x00\n        /* \"#utility.yul\":24651:24655   */\n      0x20\n        /* \"#utility.yul\":24638:24655   */\n      swap1\n      pop\n        /* \"#utility.yul\":24683:24685   */\n      0x1f\n        /* \"#utility.yul\":24675:24681   */\n      dup4\n        /* \"#utility.yul\":24672:24686   */\n      gt\n        /* \"#utility.yul\":24700:24701   */\n      0x01\n        /* \"#utility.yul\":24695:25313   */\n      dup2\n      eq\n      tag_510\n      jumpi\n        /* \"#utility.yul\":25357:25358   */\n      0x00\n        /* \"#utility.yul\":25374:25380   */\n      dup5\n        /* \"#utility.yul\":25371:25448   */\n      iszero\n      tag_511\n      jumpi\n        /* \"#utility.yul\":25423:25432   */\n      dup3\n        /* \"#utility.yul\":25418:25421   */\n      dup8\n        /* \"#utility.yul\":25414:25433   */\n      add\n        /* \"#utility.yul\":25408:25434   */\n      mload\n        /* \"#utility.yul\":25399:25434   */\n      swap1\n      pop\n        /* \"#utility.yul\":25371:25448   */\n    tag_511:\n        /* \"#utility.yul\":25474:25541   */\n      tag_512\n        /* \"#utility.yul\":25534:25540   */\n      dup6\n        /* \"#utility.yul\":25527:25532   */\n      dup3\n        /* \"#utility.yul\":25474:25541   */\n      tag_273\n      jump\t// in\n    tag_512:\n        /* \"#utility.yul\":25468:25472   */\n      dup7\n        /* \"#utility.yul\":25461:25542   */\n      sstore\n        /* \"#utility.yul\":25330:25552   */\n      pop\n        /* \"#utility.yul\":24665:25552   */\n      jump(tag_509)\n        /* \"#utility.yul\":24695:25313   */\n    tag_510:\n        /* \"#utility.yul\":24747:24751   */\n      0x1f\n        /* \"#utility.yul\":24743:24752   */\n      not\n        /* \"#utility.yul\":24735:24741   */\n      dup5\n        /* \"#utility.yul\":24731:24753   */\n      and\n        /* \"#utility.yul\":24781:24818   */\n      tag_513\n        /* \"#utility.yul\":24813:24817   */\n      dup7\n        /* \"#utility.yul\":24781:24818   */\n      tag_259\n      jump\t// in\n    tag_513:\n        /* \"#utility.yul\":24840:24841   */\n      0x00\n        /* \"#utility.yul\":24854:25062   */\n    tag_514:\n        /* \"#utility.yul\":24868:24875   */\n      dup3\n        /* \"#utility.yul\":24865:24866   */\n      dup2\n        /* \"#utility.yul\":24862:24876   */\n      lt\n        /* \"#utility.yul\":24854:25062   */\n      iszero\n      tag_516\n      jumpi\n        /* \"#utility.yul\":24947:24956   */\n      dup5\n        /* \"#utility.yul\":24942:24945   */\n      dup10\n        /* \"#utility.yul\":24938:24957   */\n      add\n        /* \"#utility.yul\":24932:24958   */\n      mload\n        /* \"#utility.yul\":24924:24930   */\n      dup3\n        /* \"#utility.yul\":24917:24959   */\n      sstore\n        /* \"#utility.yul\":24998:24999   */\n      0x01\n        /* \"#utility.yul\":24990:24996   */\n      dup3\n        /* \"#utility.yul\":24986:25000   */\n      add\n        /* \"#utility.yul\":24976:25000   */\n      swap2\n      pop\n        /* \"#utility.yul\":25045:25047   */\n      0x20\n        /* \"#utility.yul\":25034:25043   */\n      dup6\n        /* \"#utility.yul\":25030:25048   */\n      add\n        /* \"#utility.yul\":25017:25048   */\n      swap5\n      pop\n        /* \"#utility.yul\":24891:24895   */\n      0x20\n        /* \"#utility.yul\":24888:24889   */\n      dup2\n        /* \"#utility.yul\":24884:24896   */\n      add\n        /* \"#utility.yul\":24879:24896   */\n      swap1\n      pop\n        /* \"#utility.yul\":24854:25062   */\n      jump(tag_514)\n    tag_516:\n        /* \"#utility.yul\":25090:25096   */\n      dup7\n        /* \"#utility.yul\":25081:25088   */\n      dup4\n        /* \"#utility.yul\":25078:25097   */\n      lt\n        /* \"#utility.yul\":25075:25254   */\n      iszero\n      tag_517\n      jumpi\n        /* \"#utility.yul\":25148:25157   */\n      dup5\n        /* \"#utility.yul\":25143:25146   */\n      dup10\n        /* \"#utility.yul\":25139:25158   */\n      add\n        /* \"#utility.yul\":25133:25159   */\n      mload\n        /* \"#utility.yul\":25191:25239   */\n      tag_518\n        /* \"#utility.yul\":25233:25237   */\n      0x1f\n        /* \"#utility.yul\":25225:25231   */\n      dup10\n        /* \"#utility.yul\":25221:25238   */\n      and\n        /* \"#utility.yul\":25210:25219   */\n      dup3\n        /* \"#utility.yul\":25191:25239   */\n      tag_272\n      jump\t// in\n    tag_518:\n        /* \"#utility.yul\":25183:25189   */\n      dup4\n        /* \"#utility.yul\":25176:25240   */\n      sstore\n        /* \"#utility.yul\":25098:25254   */\n      pop\n        /* \"#utility.yul\":25075:25254   */\n    tag_517:\n        /* \"#utility.yul\":25300:25301   */\n      0x01\n        /* \"#utility.yul\":25296:25297   */\n      0x02\n        /* \"#utility.yul\":25288:25294   */\n      dup9\n        /* \"#utility.yul\":25284:25298   */\n      mul\n        /* \"#utility.yul\":25280:25302   */\n      add\n        /* \"#utility.yul\":25274:25278   */\n      dup9\n        /* \"#utility.yul\":25267:25303   */\n      sstore\n        /* \"#utility.yul\":24702:25313   */\n      pop\n      pop\n      pop\n        /* \"#utility.yul\":24665:25552   */\n    tag_509:\n      pop\n        /* \"#utility.yul\":24255:25558   */\n      pop\n      pop\n      pop\n        /* \"#utility.yul\":24163:25558   */\n      pop\n      pop\n      jump\t// out\n        /* \"#utility.yul\":25564:25744   */\n    tag_274:\n        /* \"#utility.yul\":25612:25689   */\n      0x4e487b7100000000000000000000000000000000000000000000000000000000\n        /* \"#utility.yul\":25609:25610   */\n      0x00\n        /* \"#utility.yul\":25602:25690   */\n      mstore\n        /* \"#utility.yul\":25709:25713   */\n      0x11\n        /* \"#utility.yul\":25706:25707   */\n      0x04\n        /* \"#utility.yul\":25699:25714   */\n      mstore\n        /* \"#utility.yul\":25733:25737   */\n      0x24\n        /* \"#utility.yul\":25730:25731   */\n      0x00\n        /* \"#utility.yul\":25723:25738   */\n      revert\n        /* \"#utility.yul\":25750:25983   */\n    tag_141:\n        /* \"#utility.yul\":25789:25792   */\n      0x00\n        /* \"#utility.yul\":25812:25836   */\n      tag_521\n        /* \"#utility.yul\":25830:25835   */\n      dup3\n        /* \"#utility.yul\":25812:25836   */\n      tag_223\n      jump\t// in\n    tag_521:\n        /* \"#utility.yul\":25803:25836   */\n      swap2\n      pop\n        /* \"#utility.yul\":25858:25924   */\n      0xffffffffffffffffffffffffffffffffffffffffffffffffffffffffffffffff\n        /* \"#utility.yul\":25851:25856   */\n      dup3\n        /* \"#utility.yul\":25848:25925   */\n      sub\n        /* \"#utility.yul\":25845:25948   */\n      tag_522\n      jumpi\n        /* \"#utility.yul\":25928:25946   */\n      tag_523\n      tag_274\n      jump\t// in\n    tag_523:\n        /* \"#utility.yul\":25845:25948   */\n    tag_522:\n        /* \"#utility.yul\":25975:25976   */\n      0x01\n        /* \"#utility.yul\":25968:25973   */\n      dup3\n        /* \"#utility.yul\":25964:25977   */\n      add\n        /* \"#utility.yul\":25957:25977   */\n      swap1\n      pop\n        /* \"#utility.yul\":25750:25983   */\n      swap2\n      swap1\n      pop\n      jump\t// out\n        /* \"#utility.yul\":25989:26163   */\n    tag_275:\n        /* \"#utility.yul\":26129:26155   */\n      0x496e636f7272656374207061796d656e7420616d6f756e740000000000000000\n        /* \"#utility.yul\":26125:26126   */\n      0x00\n        /* \"#utility.yul\":26117:26123   */\n      dup3\n        /* \"#utility.yul\":26113:26127   */\n      add\n        /* \"#utility.yul\":26106:26156   */\n      mstore\n        /* \"#utility.yul\":25989:26163   */\n      pop\n      jump\t// out\n        /* \"#utility.yul\":26169:26535   */\n    tag_276:\n        /* \"#utility.yul\":26311:26314   */\n      0x00\n        /* \"#utility.yul\":26332:26399   */\n      tag_526\n        /* \"#utility.yul\":26396:26398   */\n      0x18\n        /* \"#utility.yul\":26391:26394   */\n      dup4\n        /* \"#utility.yul\":26332:26399   */\n      tag_236\n      jump\t// in\n    tag_526:\n        /* \"#utility.yul\":26325:26399   */\n      swap2\n      pop\n        /* \"#utility.yul\":26408:26501   */\n      tag_527\n        /* \"#utility.yul\":26497:26500   */\n      dup3\n        /* \"#utility.yul\":26408:26501   */\n      tag_275\n      jump\t// in\n    tag_527:\n        /* \"#utility.yul\":26526:26528   */\n      0x20\n        /* \"#utility.yul\":26521:26524   */\n      dup3\n        /* \"#utility.yul\":26517:26529   */\n      add\n        /* \"#utility.yul\":26510:26529   */\n      swap1\n      pop\n        /* \"#utility.yul\":26169:26535   */\n      swap2\n      swap1\n      pop\n      jump\t// out\n        /* \"#utility.yul\":26541:26960   */\n    tag_157:\n        /* \"#utility.yul\":26707:26711   */\n      0x00\n        /* \"#utility.yul\":26745:26747   */\n      0x20\n        /* \"#utility.yul\":26734:26743   */\n      dup3\n        /* \"#utility.yul\":26730:26748   */\n      add\n        /* \"#utility.yul\":26722:26748   */\n      swap1\n      pop\n        /* \"#utility.yul\":26794:26803   */\n      dup2\n        /* \"#utility.yul\":26788:26792   */\n      dup2\n        /* \"#utility.yul\":26784:26804   */\n      sub\n        /* \"#utility.yul\":26780:26781   */\n      0x00\n        /* \"#utility.yul\":26769:26778   */\n      dup4\n        /* \"#utility.yul\":26765:26782   */\n      add\n        /* \"#utility.yul\":26758:26805   */\n      mstore\n        /* \"#utility.yul\":26822:26953   */\n      tag_529\n        /* \"#utility.yul\":26948:26952   */\n      dup2\n        /* \"#utility.yul\":26822:26953   */\n      tag_276\n      jump\t// in\n    tag_529:\n        /* \"#utility.yul\":26814:26953   */\n      swap1\n      pop\n        /* \"#utility.yul\":26541:26960   */\n      swap2\n      swap1\n      pop\n      jump\t// out\n        /* \"#utility.yul\":26966:27113   */\n    tag_277:\n        /* \"#utility.yul\":27067:27078   */\n      0x00\n        /* \"#utility.yul\":27104:27107   */\n      dup2\n        /* \"#utility.yul\":27089:27107   */\n      swap1\n      pop\n        /* \"#utility.yul\":26966:27113   */\n      swap3\n      swap2\n      pop\n      pop\n      jump\t// out\n        /* \"#utility.yul\":27119:27233   */\n    tag_278:\n      pop\n      jump\t// out\n        /* \"#utility.yul\":27239:27637   */\n    tag_279:\n        /* \"#utility.yul\":27398:27401   */\n      0x00\n        /* \"#utility.yul\":27419:27502   */\n      tag_533\n        /* \"#utility.yul\":27500:27501   */\n      0x00\n        /* \"#utility.yul\":27495:27498   */\n      dup4\n        /* \"#utility.yul\":27419:27502   */\n      tag_277\n      jump\t// in\n    tag_533:\n        /* \"#utility.yul\":27412:27502   */\n      swap2\n      pop\n        /* \"#utility.yul\":27511:27604   */\n      tag_534\n        /* \"#utility.yul\":27600:27603   */\n      dup3\n        /* \"#utility.yul\":27511:27604   */\n      tag_278\n      jump\t// in\n    tag_534:\n        /* \"#utility.yul\":27629:27630   */\n      0x00\n        /* \"#utility.yul\":27624:27627   */\n      dup3\n        /* \"#utility.yul\":27620:27631   */\n      add\n        /* \"#utility.yul\":27613:27631   */\n      swap1\n      pop\n        /* \"#utility.yul\":27239:27637   */\n      swap2\n      swap1\n      pop\n      jump\t// out\n        /* \"#utility.yul\":27643:28022   */\n    tag_159:\n        /* \"#utility.yul\":27827:27830   */\n      0x00\n        /* \"#utility.yul\":27849:27996   */\n      tag_536\n        /* \"#utility.yul\":27992:27995   */\n      dup3\n        /* \"#utility.yul\":27849:27996   */\n      tag_279\n      jump\t// in\n    tag_536:\n        /* \"#utility.yul\":27842:27996   */\n      swap2\n      pop\n        /* \"#utility.yul\":28013:28016   */\n      dup2\n        /* \"#utility.yul\":28006:28016   */\n      swap1\n      pop\n        /* \"#utility.yul\":27643:28022   */\n      swap2\n      swap1\n      pop\n      jump\t// out\n        /* \"#utility.yul\":28028:28192   */\n    tag_280:\n        /* \"#utility.yul\":28168:28184   */\n      0x5061796d656e74206661696c6564000000000000000000000000000000000000\n        /* \"#utility.yul\":28164:28165   */\n      0x00\n        /* \"#utility.yul\":28156:28162   */\n      dup3\n        /* \"#utility.yul\":28152:28166   */\n      add\n        /* \"#utility.yul\":28145:28185   */\n      mstore\n        /* \"#utility.yul\":28028:28192   */\n      pop\n      jump\t// out\n        /* \"#utility.yul\":28198:28564   */\n    tag_281:\n        /* \"#utility.yul\":28340:28343   */\n      0x00\n        /* \"#utility.yul\":28361:28428   */\n      tag_539\n        /* \"#utility.yul\":28425:28427   */\n      0x0e\n        /* \"#utility.yul\":28420:28423   */\n      dup4\n        /* \"#utility.yul\":28361:28428   */\n      tag_236\n      jump\t// in\n    tag_539:\n        /* \"#utility.yul\":28354:28428   */\n      swap2\n      pop\n        /* \"#utility.yul\":28437:28530   */\n      tag_540\n        /* \"#utility.yul\":28526:28529   */\n      dup3\n        /* \"#utility.yul\":28437:28530   */\n      tag_280\n      jump\t// in\n    tag_540:\n        /* \"#utility.yul\":28555:28557   */\n      0x20\n        /* \"#utility.yul\":28550:28553   */\n      dup3\n        /* \"#utility.yul\":28546:28558   */\n      add\n        /* \"#utility.yul\":28539:28558   */\n      swap1\n      pop\n        /* \"#utility.yul\":28198:28564   */\n      swap2\n      swap1\n      pop\n      jump\t// out\n        /* \"#utility.yul\":28570:28989   */\n    tag_165:\n        /* \"#utility.yul\":28736:28740   */\n      0x00\n        /* \"#utility.yul\":28774:28776   */\n      0x20\n        /* \"#utility.yul\":28763:28772   */\n      dup3\n        /* \"#utility.yul\":28759:28777   */\n      add\n        /* \"#utility.yul\":28751:28777   */\n      swap1\n      pop\n        /* \"#utility.yul\":28823:28832   */\n      dup2\n        /* \"#utility.yul\":28817:28821   */\n      dup2\n        /* \"#utility.yul\":28813:28833   */\n      sub\n        /* \"#utility.yul\":28809:28810   */\n      0x00\n        /* \"#utility.yul\":28798:28807   */\n      dup4\n        /* \"#utility.yul\":28794:28811   */\n      add\n        /* \"#utility.yul\":28787:28834   */\n      mstore\n        /* \"#utility.yul\":28851:28982   */\n      tag_542\n        /* \"#utility.yul\":28977:28981   */\n      dup2\n        /* \"#utility.yul\":28851:28982   */\n      tag_281\n      jump\t// in\n    tag_542:\n        /* \"#utility.yul\":28843:28982   */\n      swap1\n      pop\n        /* \"#utility.yul\":28570:28989   */\n      swap2\n      swap1\n      pop\n      jump\t// out\n        /* \"#utility.yul\":28995:29548   */\n    tag_167:\n        /* \"#utility.yul\":29172:29176   */\n      0x00\n        /* \"#utility.yul\":29210:29213   */\n      0x80\n        /* \"#utility.yul\":29199:29208   */\n      dup3\n        /* \"#utility.yul\":29195:29214   */\n      add\n        /* \"#utility.yul\":29187:29214   */\n      swap1\n      pop\n        /* \"#utility.yul\":29224:29295   */\n      tag_544\n        /* \"#utility.yul\":29292:29293   */\n      0x00\n        /* \"#utility.yul\":29281:29290   */\n      dup4\n        /* \"#utility.yul\":29277:29294   */\n      add\n        /* \"#utility.yul\":29268:29274   */\n      dup8\n        /* \"#utility.yul\":29224:29295   */\n      tag_239\n      jump\t// in\n    tag_544:\n        /* \"#utility.yul\":29305:29377   */\n      tag_545\n        /* \"#utility.yul\":29373:29375   */\n      0x20\n        /* \"#utility.yul\":29362:29371   */\n      dup4\n        /* \"#utility.yul\":29358:29376   */\n      add\n        /* \"#utility.yul\":29349:29355   */\n      dup7\n        /* \"#utility.yul\":29305:29377   */\n      tag_238\n      jump\t// in\n    tag_545:\n        /* \"#utility.yul\":29387:29459   */\n      tag_546\n        /* \"#utility.yul\":29455:29457   */\n      0x40\n        /* \"#utility.yul\":29444:29453   */\n      dup4\n        /* \"#utility.yul\":29440:29458   */\n      add\n        /* \"#utility.yul\":29431:29437   */\n      dup6\n        /* \"#utility.yul\":29387:29459   */\n      tag_238\n      jump\t// in\n    tag_546:\n        /* \"#utility.yul\":29469:29541   */\n      tag_547\n        /* \"#utility.yul\":29537:29539   */\n      0x60\n        /* \"#utility.yul\":29526:29535   */\n      dup4\n        /* \"#utility.yul\":29522:29540   */\n      add\n        /* \"#utility.yul\":29513:29519   */\n      dup5\n        /* \"#utility.yul\":29469:29541   */\n      tag_239\n      jump\t// in\n    tag_547:\n        /* \"#utility.yul\":28995:29548   */\n      swap6\n      swap5\n      pop\n      pop\n      pop\n      pop\n      pop\n      jump\t// out\n        /* \"#utility.yul\":29554:29745   */\n    tag_169:\n        /* \"#utility.yul\":29594:29597   */\n      0x00\n        /* \"#utility.yul\":29613:29633   */\n      tag_549\n        /* \"#utility.yul\":29631:29632   */\n      dup3\n        /* \"#utility.yul\":29613:29633   */\n      tag_223\n      jump\t// in\n    tag_549:\n        /* \"#utility.yul\":29608:29633   */\n      swap2\n      pop\n        /* \"#utility.yul\":29647:29667   */\n      tag_550\n        /* \"#utility.yul\":29665:29666   */\n      dup4\n        /* \"#utility.yul\":29647:29667   */\n      tag_223\n      jump\t// in\n    tag_550:\n        /* \"#utility.yul\":29642:29667   */\n      swap3\n      pop\n        /* \"#utility.yul\":29690:29691   */\n      dup3\n        /* \"#utility.yul\":29687:29688   */\n      dup3\n        /* \"#utility.yul\":29683:29692   */\n      add\n        /* \"#utility.yul\":29676:29692   */\n      swap1\n      pop\n        /* \"#utility.yul\":29711:29714   */\n      dup1\n        /* \"#utility.yul\":29708:29709   */\n      dup3\n        /* \"#utility.yul\":29705:29715   */\n      gt\n        /* \"#utility.yul\":29702:29738   */\n      iszero\n      tag_551\n      jumpi\n        /* \"#utility.yul\":29718:29736   */\n      tag_552\n      tag_274\n      jump\t// in\n    tag_552:\n        /* \"#utility.yul\":29702:29738   */\n    tag_551:\n        /* \"#utility.yul\":29554:29745   */\n      swap3\n      swap2\n      pop\n      pop\n      jump\t// out\n        /* \"#utility.yul\":29751:29945   */\n    tag_171:\n        /* \"#utility.yul\":29791:29795   */\n      0x00\n        /* \"#utility.yul\":29811:29831   */\n      tag_554\n        /* \"#utility.yul\":29829:29830   */\n      dup3\n        /* \"#utility.yul\":29811:29831   */\n      tag_223\n      jump\t// in\n    tag_554:\n        /* \"#utility.yul\":29806:29831   */\n      swap2\n      pop\n        /* \"#utility.yul\":29845:29865   */\n      tag_555\n        /* \"#utility.yul\":29863:29864   */\n      dup4\n        /* \"#utility.yul\":29845:29865   */\n      tag_223\n      jump\t// in\n    tag_555:\n        /* \"#utility.yul\":29840:29865   */\n      swap3\n      pop\n        /* \"#utility.yul\":29889:29890   */\n      dup3\n        /* \"#utility.yul\":29886:29887   */\n      dup3\n        /* \"#utility.yul\":29882:29891   */\n      sub\n        /* \"#utility.yul\":29874:29891   */\n      swap1\n      pop\n        /* \"#utility.yul\":29913:29914   */\n      dup2\n        /* \"#utility.yul\":29907:29911   */\n      dup2\n        /* \"#utility.yul\":29904:29915   */\n      gt\n        /* \"#utility.yul\":29901:29938   */\n      iszero\n      tag_556\n      jumpi\n        /* \"#utility.yul\":29918:29936   */\n      tag_557\n      tag_274\n      jump\t// in\n    tag_557:\n        /* \"#utility.yul\":29901:29938   */\n    tag_556:\n        /* \"#utility.yul\":29751:29945   */\n      swap3\n      swap2\n      pop\n      pop\n      jump\t// out\n        /* \"#utility.yul\":29951:30124   */\n    tag_282:\n        /* \"#utility.yul\":30091:30116   */\n      0x417274776f726b206973206f7574206f662073746f636b000000000000000000\n        /* \"#utility.yul\":30087:30088   */\n      0x00\n        /* \"#utility.yul\":30079:30085   */\n      dup3\n        /* \"#utility.yul\":30075:30089   */\n      add\n        /* \"#utility.yul\":30068:30117   */\n      mstore\n        /* \"#utility.yul\":29951:30124   */\n      pop\n      jump\t// out\n        /* \"#utility.yul\":30130:30496   */\n    tag_283:\n        /* \"#utility.yul\":30272:30275   */\n      0x00\n        /* \"#utility.yul\":30293:30360   */\n      tag_560\n        /* \"#utility.yul\":30357:30359   */\n      0x17\n        /* \"#utility.yul\":30352:30355   */\n      dup4\n        /* \"#utility.yul\":30293:30360   */\n      tag_236\n      jump\t// in\n    tag_560:\n        /* \"#utility.yul\":30286:30360   */\n      swap2\n      pop\n        /* \"#utility.yul\":30369:30462   */\n      tag_561\n        /* \"#utility.yul\":30458:30461   */\n      dup3\n        /* \"#utility.yul\":30369:30462   */\n      tag_282\n      jump\t// in\n    tag_561:\n        /* \"#utility.yul\":30487:30489   */\n      0x20\n        /* \"#utility.yul\":30482:30485   */\n      dup3\n        /* \"#utility.yul\":30478:30490   */\n      add\n        /* \"#utility.yul\":30471:30490   */\n      swap1\n      pop\n        /* \"#utility.yul\":30130:30496   */\n      swap2\n      swap1\n      pop\n      jump\t// out\n        /* \"#utility.yul\":30502:30921   */\n    tag_193:\n        /* \"#utility.yul\":30668:30672   */\n      0x00\n        /* \"#utility.yul\":30706:30708   */\n      0x20\n        /* \"#utility.yul\":30695:30704   */\n      dup3\n        /* \"#utility.yul\":30691:30709   */\n      add\n        /* \"#utility.yul\":30683:30709   */\n      swap1\n      pop\n        /* \"#utility.yul\":30755:30764   */\n      dup2\n        /* \"#utility.yul\":30749:30753   */\n      dup2\n        /* \"#utility.yul\":30745:30765   */\n      sub\n        /* \"#utility.yul\":30741:30742   */\n      0x00\n        /* \"#utility.yul\":30730:30739   */\n      dup4\n        /* \"#utility.yul\":30726:30743   */\n      add\n        /* \"#utility.yul\":30719:30766   */\n      mstore\n        /* \"#utility.yul\":30783:30914   */\n      tag_563\n        /* \"#utility.yul\":30909:30913   */\n      dup2\n        /* \"#utility.yul\":30783:30914   */\n      tag_283\n      jump\t// in\n    tag_563:\n        /* \"#utility.yul\":30775:30914   */\n      swap1\n      pop\n        /* \"#utility.yul\":30502:30921   */\n      swap2\n      swap1\n      pop\n      jump\t// out\n        /* \"#utility.yul\":30927:31337   */\n    tag_195:\n        /* \"#utility.yul\":30967:30974   */\n      0x00\n        /* \"#utility.yul\":30990:31010   */\n      tag_565\n        /* \"#utility.yul\":31008:31009   */\n      dup3\n        /* \"#utility.yul\":30990:31010   */\n      tag_223\n      jump\t// in\n    tag_565:\n        /* \"#utility.yul\":30985:31010   */\n      swap2\n      pop\n        /* \"#utility.yul\":31024:31044   */\n      tag_566\n        /* \"#utility.yul\":31042:31043   */\n      dup4\n        /* \"#utility.yul\":31024:31044   */\n      tag_223\n      jump\t// in\n    tag_566:\n        /* \"#utility.yul\":31019:31044   */\n      swap3\n      pop\n        /* \"#utility.yul\":31079:31080   */\n      dup3\n        /* \"#utility.yul\":31076:31077   */\n      dup3\n        /* \"#utility.yul\":31072:31081   */\n      mul\n        /* \"#utility.yul\":31101:31131   */\n      tag_567\n        /* \"#utility.yul\":31119:31130   */\n      dup2\n        /* \"#utility.yul\":31101:31131   */\n      tag_223\n      jump\t// in\n    tag_567:\n        /* \"#utility.yul\":31090:31131   */\n      swap2\n      pop\n        /* \"#utility.yul\":31280:31281   */\n      dup3\n        /* \"#utility.yul\":31271:31278   */\n      dup3\n        /* \"#utility.yul\":31267:31282   */\n      div\n        /* \"#utility.yul\":31264:31265   */\n      dup5\n        /* \"#utility.yul\":31261:31283   */\n      eq\n        /* \"#utility.yul\":31241:31242   */\n      dup4\n        /* \"#utility.yul\":31234:31243   */\n      iszero\n        /* \"#utility.yul\":31214:31297   */\n      or\n        /* \"#utility.yul\":31191:31330   */\n      tag_568\n      jumpi\n        /* \"#utility.yul\":31310:31328   */\n      tag_569\n      tag_274\n      jump\t// in\n    tag_569:\n        /* \"#utility.yul\":31191:31330   */\n    tag_568:\n        /* \"#utility.yul\":30975:31337   */\n      pop\n        /* \"#utility.yul\":30927:31337   */\n      swap3\n      swap2\n      pop\n      pop\n      jump\t// out\n        /* \"#utility.yul\":31343:31523   */\n    tag_284:\n        /* \"#utility.yul\":31391:31468   */\n      0x4e487b7100000000000000000000000000000000000000000000000000000000\n        /* \"#utility.yul\":31388:31389   */\n      0x00\n        /* \"#utility.yul\":31381:31469   */\n      mstore\n        /* \"#utility.yul\":31488:31492   */\n      0x12\n        /* \"#utility.yul\":31485:31486   */\n      0x04\n        /* \"#utility.yul\":31478:31493   */\n      mstore\n        /* \"#utility.yul\":31512:31516   */\n      0x24\n        /* \"#utility.yul\":31509:31510   */\n      0x00\n        /* \"#utility.yul\":31502:31517   */\n      revert\n        /* \"#utility.yul\":31529:31714   */\n    tag_197:\n        /* \"#utility.yul\":31569:31570   */\n      0x00\n        /* \"#utility.yul\":31586:31606   */\n      tag_572\n        /* \"#utility.yul\":31604:31605   */\n      dup3\n        /* \"#utility.yul\":31586:31606   */\n      tag_223\n      jump\t// in\n    tag_572:\n        /* \"#utility.yul\":31581:31606   */\n      swap2\n      pop\n        /* \"#utility.yul\":31620:31640   */\n      tag_573\n        /* \"#utility.yul\":31638:31639   */\n      dup4\n        /* \"#utility.yul\":31620:31640   */\n      tag_223\n      jump\t// in\n    tag_573:\n        /* \"#utility.yul\":31615:31640   */\n      swap3\n      pop\n        /* \"#utility.yul\":31659:31660   */\n      dup3\n        /* \"#utility.yul\":31649:31684   */\n      tag_574\n      jumpi\n        /* \"#utility.yul\":31664:31682   */\n      tag_575\n      tag_284\n      jump\t// in\n    tag_575:\n        /* \"#utility.yul\":31649:31684   */\n    tag_574:\n        /* \"#utility.yul\":31706:31707   */\n      dup3\n        /* \"#utility.yul\":31703:31704   */\n      dup3\n        /* \"#utility.yul\":31699:31708   */\n      div\n        /* \"#utility.yul\":31694:31708   */\n      swap1\n      pop\n        /* \"#utility.yul\":31529:31714   */\n      swap3\n      swap2\n      pop\n      pop\n      jump\t// out\n        /* \"#utility.yul\":31720:31891   */\n    tag_207:\n        /* \"#utility.yul\":31759:31762   */\n      0x00\n        /* \"#utility.yul\":31782:31806   */\n      tag_577\n        /* \"#utility.yul\":31800:31805   */\n      dup3\n        /* \"#utility.yul\":31782:31806   */\n      tag_223\n      jump\t// in\n    tag_577:\n        /* \"#utility.yul\":31773:31806   */\n      swap2\n      pop\n        /* \"#utility.yul\":31828:31832   */\n      0x00\n        /* \"#utility.yul\":31821:31826   */\n      dup3\n        /* \"#utility.yul\":31818:31833   */\n      sub\n        /* \"#utility.yul\":31815:31856   */\n      tag_578\n      jumpi\n        /* \"#utility.yul\":31836:31854   */\n      tag_579\n      tag_274\n      jump\t// in\n    tag_579:\n        /* \"#utility.yul\":31815:31856   */\n    tag_578:\n        /* \"#utility.yul\":31883:31884   */\n      0x01\n        /* \"#utility.yul\":31876:31881   */\n      dup3\n        /* \"#utility.yul\":31872:31885   */\n      sub\n        /* \"#utility.yul\":31865:31885   */\n      swap1\n      pop\n        /* \"#utility.yul\":31720:31891   */\n      swap2\n      swap1\n      pop\n      jump\t// out\n\n    auxdata: 0xa264697066735822122097826c573e4c01c4e6dbd6ced6f011a7b701924682d20a42426e8acfa1cb0e1164736f6c634300081a0033\n}\n",
				"bytecode": {
					"linkReferences": {},
					"object": "6080604052348015600e575f80fd5b506126608061001c5f395ff3fe60806040526004361061009a575f3560e01c806382c9804a1161006357806382c9804a146101ac5780638392fe31146101e857806394ecf65d1461022d5780639b171c1e14610249578063c47f0f9014610285578063e44c3c4b146102af5761009a565b8062a715271461009e578063385fe0a9146100c85780634b6026731461010457806379cd49211461014857806379f9ec1c14610184575b5f80fd5b3480156100a9575f80fd5b506100b26102cb565b6040516100bf919061193a565b60405180910390f35b3480156100d3575f80fd5b506100ee60048036038101906100e99190611995565b61069c565b6040516100fb9190611a08565b60405180910390f35b34801561010f575f80fd5b5061012a60048036038101906101259190611995565b61078c565b60405161013f99989796959493929190611a55565b60405180910390f35b348015610153575f80fd5b5061016e60048036038101906101699190611afc565b610a38565b60405161017b9190611b3a565b60405180910390f35b34801561018f575f80fd5b506101aa60048036038101906101a59190611ca9565b610a64565b005b3480156101b7575f80fd5b506101d260048036038101906101cd9190611995565b610b9e565b6040516101df9190611a08565b60405180910390f35b3480156101f3575f80fd5b5061020e60048036038101906102099190611995565b610c8e565b6040516102249a99989796959493929190611d86565b60405180910390f35b61024760048036038101906102429190611995565b610dae565b005b348015610254575f80fd5b5061026f600480360381019061026a9190611995565b610fe9565b60405161027c9190611b3a565b60405180910390f35b348015610290575f80fd5b5061029961100b565b6040516102a69190611fb9565b60405180910390f35b6102c960048036038101906102c49190611995565b611256565b005b60605f805467ffffffffffffffff8111156102e9576102e8611b85565b5b60405190808252806020026020018201604052801561032257816020015b61030f6115da565b8152602001906001900390816103075790505b5090505f5b5f54811015610694575f60025f8381526020019081526020015f20905080604051806101200160405290815f82015f9054906101000a900473ffffffffffffffffffffffffffffffffffffffff1673ffffffffffffffffffffffffffffffffffffffff1673ffffffffffffffffffffffffffffffffffffffff1681526020016001820180546103b590612006565b80601f01602080910402602001604051908101604052809291908181526020018280546103e190612006565b801561042c5780601f106104035761010080835404028352916020019161042c565b820191905f5260205f20905b81548152906001019060200180831161040f57829003601f168201915b5050505050815260200160028201805461044590612006565b80601f016020809104026020016040519081016040528092919081815260200182805461047190612006565b80156104bc5780601f10610493576101008083540402835291602001916104bc565b820191905f5260205f20905b81548152906001019060200180831161049f57829003601f168201915b50505050508152602001600382015481526020016004820180546104df90612006565b80601f016020809104026020016040519081016040528092919081815260200182805461050b90612006565b80156105565780601f1061052d57610100808354040283529160200191610556565b820191905f5260205f20905b81548152906001019060200180831161053957829003601f168201915b5050505050815260200160058201548152602001600682015f9054906101000a900460ff1615151515815260200160078201805461059390612006565b80601f01602080910402602001604051908101604052809291908181526020018280546105bf90612006565b801561060a5780601f106105e15761010080835404028352916020019161060a565b820191905f5260205f20905b8154815290600101906020018083116105ed57829003601f168201915b50505050508152602001600882015f9054906101000a900473ffffffffffffffffffffffffffffffffffffffff1673ffffffffffffffffffffffffffffffffffffffff1673ffffffffffffffffffffffffffffffffffffffff168152505083838151811061067b5761067a612036565b5b6020026020010181905250508080600101915050610327565b508091505090565b60605f60035f8481526020019081526020015f2090506040518060400160405280600a81526020017f44697370617463686564000000000000000000000000000000000000000000008152508160080190816106f89190612200565b5080600801805461070890612006565b80601f016020809104026020016040519081016040528092919081815260200182805461073490612006565b801561077f5780601f106107565761010080835404028352916020019161077f565b820191905f5260205f20905b81548152906001019060200180831161076257829003601f168201915b5050505050915050919050565b6002602052805f5260405f205f91509050805f015f9054906101000a900473ffffffffffffffffffffffffffffffffffffffff16908060010180546107d090612006565b80601f01602080910402602001604051908101604052809291908181526020018280546107fc90612006565b80156108475780601f1061081e57610100808354040283529160200191610847565b820191905f5260205f20905b81548152906001019060200180831161082a57829003601f168201915b50505050509080600201805461085c90612006565b80601f016020809104026020016040519081016040528092919081815260200182805461088890612006565b80156108d35780601f106108aa576101008083540402835291602001916108d3565b820191905f5260205f20905b8154815290600101906020018083116108b657829003601f168201915b5050505050908060030154908060040180546108ee90612006565b80601f016020809104026020016040519081016040528092919081815260200182805461091a90612006565b80156109655780601f1061093c57610100808354040283529160200191610965565b820191905f5260205f20905b81548152906001019060200180831161094857829003601f168201915b505050505090806005015490806006015f9054906101000a900460ff169080600701805461099290612006565b80601f01602080910402602001604051908101604052809291908181526020018280546109be90612006565b8015610a095780601f106109e057610100808354040283529160200191610a09565b820191905f5260205f20905b8154815290600101906020018083116109ec57829003601f168201915b505050505090806008015f9054906101000a900473ffffffffffffffffffffffffffffffffffffffff16905089565b5f8060025f8581526020019081526020015f209050828160050181905550806005015491505092915050565b5f60025f805481526020019081526020015f20905086815f015f6101000a81548173ffffffffffffffffffffffffffffffffffffffff021916908373ffffffffffffffffffffffffffffffffffffffff16021790555085816001019081610acb9190612200565b5084816002019081610add9190612200565b5083816003018190555082816004019081610af89190612200565b508181600501819055505f816006015f6101000a81548160ff02191690831515021790555060405180602001604052805f815250816007019081610b3c9190612200565b5086816008015f6101000a81548173ffffffffffffffffffffffffffffffffffffffff021916908373ffffffffffffffffffffffffffffffffffffffff1602179055505f80815480929190610b90906122fc565b919050555050505050505050565b60605f60035f8481526020019081526020015f2090506040518060400160405280600981526020017f44656c6976657265640000000000000000000000000000000000000000000000815250816008019081610bfa9190612200565b50806008018054610c0a90612006565b80601f0160208091040260200160405190810160405280929190818152602001828054610c3690612006565b8015610c815780601f10610c5857610100808354040283529160200191610c81565b820191905f5260205f20905b815481529060010190602001808311610c6457829003601f168201915b5050505050915050919050565b6003602052805f5260405f205f91509050805f015490806001015490806002015f9054906101000a900473ffffffffffffffffffffffffffffffffffffffff1690806003015f9054906101000a900473ffffffffffffffffffffffffffffffffffffffff1690806004015490806005015490806006015490806007015490806008018054610d1b90612006565b80601f0160208091040260200160405190810160405280929190818152602001828054610d4790612006565b8015610d925780601f10610d6957610100808354040283529160200191610d92565b820191905f5260205f20905b815481529060010190602001808311610d7557829003601f168201915b505050505090806009015f9054906101000a900460ff1690508a565b5f60035f8381526020019081526020015f2090506001816009015f6101000a81548160ff0219169083151502179055505f60025f836001015481526020019081526020015f2090505f82600701549050803414610e40576040517f08c379a0000000000000000000000000000000000000000000000000000000008152600401610e379061238d565b60405180910390fd5b5f825f015f9054906101000a900473ffffffffffffffffffffffffffffffffffffffff1673ffffffffffffffffffffffffffffffffffffffff1682604051610e87906123d8565b5f6040518083038185875af1925050503d805f8114610ec1576040519150601f19603f3d011682016040523d82523d5f602084013e610ec6565b606091505b5050905080610f0a576040517f08c379a0000000000000000000000000000000000000000000000000000000008152600401610f0190612436565b60405180910390fd5b7fa27a7e11a23b47207454244ae3eddefdfaf476d024076f73c2d5bb9f36ebe8db846001015433855f015f9054906101000a900473ffffffffffffffffffffffffffffffffffffffff1685604051610f659493929190612454565b60405180910390a133835f015f6101000a81548173ffffffffffffffffffffffffffffffffffffffff021916908373ffffffffffffffffffffffffffffffffffffffff16021790555081846006015f828254610fc19190612497565b9250508190555081846007015f828254610fdb91906124ca565b925050819055505050505050565b5f8060025f8481526020019081526020015f2090508060050154915050919050565b60605f60015467ffffffffffffffff81111561102a57611029611b85565b5b60405190808252806020026020018201604052801561106357816020015b61105061164f565b8152602001906001900390816110485790505b5090505f5b60015481101561124e575f60035f8381526020019081526020015f20905080604051806101400160405290815f820154815260200160018201548152602001600282015f9054906101000a900473ffffffffffffffffffffffffffffffffffffffff1673ffffffffffffffffffffffffffffffffffffffff1673ffffffffffffffffffffffffffffffffffffffff168152602001600382015f9054906101000a900473ffffffffffffffffffffffffffffffffffffffff1673ffffffffffffffffffffffffffffffffffffffff1673ffffffffffffffffffffffffffffffffffffffff1681526020016004820154815260200160058201548152602001600682015481526020016007820154815260200160088201805461118890612006565b80601f01602080910402602001604051908101604052809291908181526020018280546111b490612006565b80156111ff5780601f106111d6576101008083540402835291602001916111ff565b820191905f5260205f20905b8154815290600101906020018083116111e257829003601f168201915b50505050508152602001600982015f9054906101000a900460ff16151515158152505083838151811061123557611234612036565b5b6020026020010181905250508080600101915050611068565b508091505090565b5f60025f8381526020019081526020015f2090505f8160050154116112b0576040517f08c379a00000000000000000000000000000000000000000000000000000000081526004016112a790612547565b60405180910390fd5b5f60648260030154600a6112c49190612565565b6112ce91906125d3565b9050803414611312576040517f08c379a00000000000000000000000000000000000000000000000000000000081526004016113099061238d565b60405180910390fd5b5f825f015f9054906101000a900473ffffffffffffffffffffffffffffffffffffffff1673ffffffffffffffffffffffffffffffffffffffff1682604051611359906123d8565b5f6040518083038185875af1925050503d805f8114611393576040519150601f19603f3d011682016040523d82523d5f602084013e611398565b606091505b50509050806113dc576040517f08c379a00000000000000000000000000000000000000000000000000000000081526004016113d390612436565b60405180910390fd5b826005015f8154809291906113f090612603565b91905055505f60035f60015481526020019081526020015f209050600154815f018190555084816001018190555033816002015f6101000a81548173ffffffffffffffffffffffffffffffffffffffff021916908373ffffffffffffffffffffffffffffffffffffffff160217905550835f015f9054906101000a900473ffffffffffffffffffffffffffffffffffffffff16816003015f6101000a81548173ffffffffffffffffffffffffffffffffffffffff021916908373ffffffffffffffffffffffffffffffffffffffff160217905550828160040181905550836003015481600501819055508281600601819055508284600301546114f391906124ca565b81600701819055506040518060400160405280600c81526020017f696e2077617265686f75736500000000000000000000000000000000000000008152508160080190816115419190612200565b505f816009015f6101000a81548160ff02191690831515021790555060015f81548092919061156f906122fc565b91905055507fa27a7e11a23b47207454244ae3eddefdfaf476d024076f73c2d5bb9f36ebe8db8533865f015f9054906101000a900473ffffffffffffffffffffffffffffffffffffffff16866040516115cb9493929190612454565b60405180910390a15050505050565b6040518061012001604052805f73ffffffffffffffffffffffffffffffffffffffff16815260200160608152602001606081526020015f8152602001606081526020015f81526020015f15158152602001606081526020015f73ffffffffffffffffffffffffffffffffffffffff1681525090565b6040518061014001604052805f81526020015f81526020015f73ffffffffffffffffffffffffffffffffffffffff1681526020015f73ffffffffffffffffffffffffffffffffffffffff1681526020015f81526020015f81526020015f81526020015f8152602001606081526020015f151581525090565b5f81519050919050565b5f82825260208201905092915050565b5f819050602082019050919050565b5f73ffffffffffffffffffffffffffffffffffffffff82169050919050565b5f611719826116f0565b9050919050565b6117298161170f565b82525050565b5f81519050919050565b5f82825260208201905092915050565b8281835e5f83830152505050565b5f601f19601f8301169050919050565b5f6117718261172f565b61177b8185611739565b935061178b818560208601611749565b61179481611757565b840191505092915050565b5f819050919050565b6117b18161179f565b82525050565b5f8115159050919050565b6117cb816117b7565b82525050565b5f61012083015f8301516117e75f860182611720565b50602083015184820360208601526117ff8282611767565b915050604083015184820360408601526118198282611767565b915050606083015161182e60608601826117a8565b50608083015184820360808601526118468282611767565b91505060a083015161185b60a08601826117a8565b5060c083015161186e60c08601826117c2565b5060e083015184820360e08601526118868282611767565b91505061010083015161189d610100860182611720565b508091505092915050565b5f6118b383836117d1565b905092915050565b5f602082019050919050565b5f6118d1826116c7565b6118db81856116d1565b9350836020820285016118ed856116e1565b805f5b85811015611928578484038952815161190985826118a8565b9450611914836118bb565b925060208a019950506001810190506118f0565b50829750879550505050505092915050565b5f6020820190508181035f83015261195281846118c7565b905092915050565b5f604051905090565b5f80fd5b5f80fd5b6119748161179f565b811461197e575f80fd5b50565b5f8135905061198f8161196b565b92915050565b5f602082840312156119aa576119a9611963565b5b5f6119b784828501611981565b91505092915050565b5f82825260208201905092915050565b5f6119da8261172f565b6119e481856119c0565b93506119f4818560208601611749565b6119fd81611757565b840191505092915050565b5f6020820190508181035f830152611a2081846119d0565b905092915050565b611a318161170f565b82525050565b611a408161179f565b82525050565b611a4f816117b7565b82525050565b5f61012082019050611a695f83018c611a28565b8181036020830152611a7b818b6119d0565b90508181036040830152611a8f818a6119d0565b9050611a9e6060830189611a37565b8181036080830152611ab081886119d0565b9050611abf60a0830187611a37565b611acc60c0830186611a46565b81810360e0830152611ade81856119d0565b9050611aee610100830184611a28565b9a9950505050505050505050565b5f8060408385031215611b1257611b11611963565b5b5f611b1f85828601611981565b9250506020611b3085828601611981565b9150509250929050565b5f602082019050611b4d5f830184611a37565b92915050565b611b5c8161170f565b8114611b66575f80fd5b50565b5f81359050611b7781611b53565b92915050565b5f80fd5b5f80fd5b7f4e487b71000000000000000000000000000000000000000000000000000000005f52604160045260245ffd5b611bbb82611757565b810181811067ffffffffffffffff82111715611bda57611bd9611b85565b5b80604052505050565b5f611bec61195a565b9050611bf88282611bb2565b919050565b5f67ffffffffffffffff821115611c1757611c16611b85565b5b611c2082611757565b9050602081019050919050565b828183375f83830152505050565b5f611c4d611c4884611bfd565b611be3565b905082815260208101848484011115611c6957611c68611b81565b5b611c74848285611c2d565b509392505050565b5f82601f830112611c9057611c8f611b7d565b5b8135611ca0848260208601611c3b565b91505092915050565b5f805f805f8060c08789031215611cc357611cc2611963565b5b5f611cd089828a01611b69565b965050602087013567ffffffffffffffff811115611cf157611cf0611967565b5b611cfd89828a01611c7c565b955050604087013567ffffffffffffffff811115611d1e57611d1d611967565b5b611d2a89828a01611c7c565b9450506060611d3b89828a01611981565b935050608087013567ffffffffffffffff811115611d5c57611d5b611967565b5b611d6889828a01611c7c565b92505060a0611d7989828a01611981565b9150509295509295509295565b5f61014082019050611d9a5f83018d611a37565b611da7602083018c611a37565b611db4604083018b611a28565b611dc1606083018a611a28565b611dce6080830189611a37565b611ddb60a0830188611a37565b611de860c0830187611a37565b611df560e0830186611a37565b818103610100830152611e0881856119d0565b9050611e18610120830184611a46565b9b9a5050505050505050505050565b5f81519050919050565b5f82825260208201905092915050565b5f819050602082019050919050565b5f61014083015f830151611e665f8601826117a8565b506020830151611e7960208601826117a8565b506040830151611e8c6040860182611720565b506060830151611e9f6060860182611720565b506080830151611eb260808601826117a8565b5060a0830151611ec560a08601826117a8565b5060c0830151611ed860c08601826117a8565b5060e0830151611eeb60e08601826117a8565b50610100830151848203610100860152611f058282611767565b915050610120830151611f1c6101208601826117c2565b508091505092915050565b5f611f328383611e50565b905092915050565b5f602082019050919050565b5f611f5082611e27565b611f5a8185611e31565b935083602082028501611f6c85611e41565b805f5b85811015611fa75784840389528151611f888582611f27565b9450611f9383611f3a565b925060208a01995050600181019050611f6f565b50829750879550505050505092915050565b5f6020820190508181035f830152611fd18184611f46565b905092915050565b7f4e487b71000000000000000000000000000000000000000000000000000000005f52602260045260245ffd5b5f600282049050600182168061201d57607f821691505b6020821081036120305761202f611fd9565b5b50919050565b7f4e487b71000000000000000000000000000000000000000000000000000000005f52603260045260245ffd5b5f819050815f5260205f209050919050565b5f6020601f8301049050919050565b5f82821b905092915050565b5f600883026120bf7fffffffffffffffffffffffffffffffffffffffffffffffffffffffffffffffff82612084565b6120c98683612084565b95508019841693508086168417925050509392505050565b5f819050919050565b5f6121046120ff6120fa8461179f565b6120e1565b61179f565b9050919050565b5f819050919050565b61211d836120ea565b6121316121298261210b565b848454612090565b825550505050565b5f90565b612145612139565b612150818484612114565b505050565b5b81811015612173576121685f8261213d565b600181019050612156565b5050565b601f8211156121b85761218981612063565b61219284612075565b810160208510156121a1578190505b6121b56121ad85612075565b830182612155565b50505b505050565b5f82821c905092915050565b5f6121d85f19846008026121bd565b1980831691505092915050565b5f6121f083836121c9565b9150826002028217905092915050565b6122098261172f565b67ffffffffffffffff81111561222257612221611b85565b5b61222c8254612006565b612237828285612177565b5f60209050601f831160018114612268575f8415612256578287015190505b61226085826121e5565b8655506122c7565b601f19841661227686612063565b5f5b8281101561229d57848901518255600182019150602085019450602081019050612278565b868310156122ba57848901516122b6601f8916826121c9565b8355505b6001600288020188555050505b505050505050565b7f4e487b71000000000000000000000000000000000000000000000000000000005f52601160045260245ffd5b5f6123068261179f565b91507fffffffffffffffffffffffffffffffffffffffffffffffffffffffffffffffff8203612338576123376122cf565b5b600182019050919050565b7f496e636f7272656374207061796d656e7420616d6f756e7400000000000000005f82015250565b5f6123776018836119c0565b915061238282612343565b602082019050919050565b5f6020820190508181035f8301526123a48161236b565b9050919050565b5f81905092915050565b50565b5f6123c35f836123ab565b91506123ce826123b5565b5f82019050919050565b5f6123e2826123b8565b9150819050919050565b7f5061796d656e74206661696c65640000000000000000000000000000000000005f82015250565b5f612420600e836119c0565b915061242b826123ec565b602082019050919050565b5f6020820190508181035f83015261244d81612414565b9050919050565b5f6080820190506124675f830187611a37565b6124746020830186611a28565b6124816040830185611a28565b61248e6060830184611a37565b95945050505050565b5f6124a18261179f565b91506124ac8361179f565b92508282019050808211156124c4576124c36122cf565b5b92915050565b5f6124d48261179f565b91506124df8361179f565b92508282039050818111156124f7576124f66122cf565b5b92915050565b7f417274776f726b206973206f7574206f662073746f636b0000000000000000005f82015250565b5f6125316017836119c0565b915061253c826124fd565b602082019050919050565b5f6020820190508181035f83015261255e81612525565b9050919050565b5f61256f8261179f565b915061257a8361179f565b92508282026125888161179f565b9150828204841483151761259f5761259e6122cf565b5b5092915050565b7f4e487b71000000000000000000000000000000000000000000000000000000005f52601260045260245ffd5b5f6125dd8261179f565b91506125e88361179f565b9250826125f8576125f76125a6565b5b828204905092915050565b5f61260d8261179f565b91505f820361261f5761261e6122cf565b5b60018203905091905056fea264697066735822122097826c573e4c01c4e6dbd6ced6f011a7b701924682d20a42426e8acfa1cb0e1164736f6c634300081a0033",
					"opcodes": "PUSH1 0x80 PUSH1 0x40 MSTORE CALLVALUE DUP1 ISZERO PUSH1 0xE JUMPI PUSH0 DUP1 REVERT JUMPDEST POP PUSH2 0x2660 DUP1 PUSH2 0x1C PUSH0 CODECOPY PUSH0 RETURN INVALID PUSH1 0x80 PUSH1 0x40 MSTORE PUSH1 0x4 CALLDATASIZE LT PUSH2 0x9A JUMPI PUSH0 CALLDATALOAD PUSH1 0xE0 SHR DUP1 PUSH4 0x82C9804A GT PUSH2 0x63 JUMPI DUP1 PUSH4 0x82C9804A EQ PUSH2 0x1AC JUMPI DUP1 PUSH4 0x8392FE31 EQ PUSH2 0x1E8 JUMPI DUP1 PUSH4 0x94ECF65D EQ PUSH2 0x22D JUMPI DUP1 PUSH4 0x9B171C1E EQ PUSH2 0x249 JUMPI DUP1 PUSH4 0xC47F0F90 EQ PUSH2 0x285 JUMPI DUP1 PUSH4 0xE44C3C4B EQ PUSH2 0x2AF JUMPI PUSH2 0x9A JUMP JUMPDEST DUP1 PUSH3 0xA71527 EQ PUSH2 0x9E JUMPI DUP1 PUSH4 0x385FE0A9 EQ PUSH2 0xC8 JUMPI DUP1 PUSH4 0x4B602673 EQ PUSH2 0x104 JUMPI DUP1 PUSH4 0x79CD4921 EQ PUSH2 0x148 JUMPI DUP1 PUSH4 0x79F9EC1C EQ PUSH2 0x184 JUMPI JUMPDEST PUSH0 DUP1 REVERT JUMPDEST CALLVALUE DUP1 ISZERO PUSH2 0xA9 JUMPI PUSH0 DUP1 REVERT JUMPDEST POP PUSH2 0xB2 PUSH2 0x2CB JUMP JUMPDEST PUSH1 0x40 MLOAD PUSH2 0xBF SWAP2 SWAP1 PUSH2 0x193A JUMP JUMPDEST PUSH1 0x40 MLOAD DUP1 SWAP2 SUB SWAP1 RETURN JUMPDEST CALLVALUE DUP1 ISZERO PUSH2 0xD3 JUMPI PUSH0 DUP1 REVERT JUMPDEST POP PUSH2 0xEE PUSH1 0x4 DUP1 CALLDATASIZE SUB DUP2 ADD SWAP1 PUSH2 0xE9 SWAP2 SWAP1 PUSH2 0x1995 JUMP JUMPDEST PUSH2 0x69C JUMP JUMPDEST PUSH1 0x40 MLOAD PUSH2 0xFB SWAP2 SWAP1 PUSH2 0x1A08 JUMP JUMPDEST PUSH1 0x40 MLOAD DUP1 SWAP2 SUB SWAP1 RETURN JUMPDEST CALLVALUE DUP1 ISZERO PUSH2 0x10F JUMPI PUSH0 DUP1 REVERT JUMPDEST POP PUSH2 0x12A PUSH1 0x4 DUP1 CALLDATASIZE SUB DUP2 ADD SWAP1 PUSH2 0x125 SWAP2 SWAP1 PUSH2 0x1995 JUMP JUMPDEST PUSH2 0x78C JUMP JUMPDEST PUSH1 0x40 MLOAD PUSH2 0x13F SWAP10 SWAP9 SWAP8 SWAP7 SWAP6 SWAP5 SWAP4 SWAP3 SWAP2 SWAP1 PUSH2 0x1A55 JUMP JUMPDEST PUSH1 0x40 MLOAD DUP1 SWAP2 SUB SWAP1 RETURN JUMPDEST CALLVALUE DUP1 ISZERO PUSH2 0x153 JUMPI PUSH0 DUP1 REVERT JUMPDEST POP PUSH2 0x16E PUSH1 0x4 DUP1 CALLDATASIZE SUB DUP2 ADD SWAP1 PUSH2 0x169 SWAP2 SWAP1 PUSH2 0x1AFC JUMP JUMPDEST PUSH2 0xA38 JUMP JUMPDEST PUSH1 0x40 MLOAD PUSH2 0x17B SWAP2 SWAP1 PUSH2 0x1B3A JUMP JUMPDEST PUSH1 0x40 MLOAD DUP1 SWAP2 SUB SWAP1 RETURN JUMPDEST CALLVALUE DUP1 ISZERO PUSH2 0x18F JUMPI PUSH0 DUP1 REVERT JUMPDEST POP PUSH2 0x1AA PUSH1 0x4 DUP1 CALLDATASIZE SUB DUP2 ADD SWAP1 PUSH2 0x1A5 SWAP2 SWAP1 PUSH2 0x1CA9 JUMP JUMPDEST PUSH2 0xA64 JUMP JUMPDEST STOP JUMPDEST CALLVALUE DUP1 ISZERO PUSH2 0x1B7 JUMPI PUSH0 DUP1 REVERT JUMPDEST POP PUSH2 0x1D2 PUSH1 0x4 DUP1 CALLDATASIZE SUB DUP2 ADD SWAP1 PUSH2 0x1CD SWAP2 SWAP1 PUSH2 0x1995 JUMP JUMPDEST PUSH2 0xB9E JUMP JUMPDEST PUSH1 0x40 MLOAD PUSH2 0x1DF SWAP2 SWAP1 PUSH2 0x1A08 JUMP JUMPDEST PUSH1 0x40 MLOAD DUP1 SWAP2 SUB SWAP1 RETURN JUMPDEST CALLVALUE DUP1 ISZERO PUSH2 0x1F3 JUMPI PUSH0 DUP1 REVERT JUMPDEST POP PUSH2 0x20E PUSH1 0x4 DUP1 CALLDATASIZE SUB DUP2 ADD SWAP1 PUSH2 0x209 SWAP2 SWAP1 PUSH2 0x1995 JUMP JUMPDEST PUSH2 0xC8E JUMP JUMPDEST PUSH1 0x40 MLOAD PUSH2 0x224 SWAP11 SWAP10 SWAP9 SWAP8 SWAP7 SWAP6 SWAP5 SWAP4 SWAP3 SWAP2 SWAP1 PUSH2 0x1D86 JUMP JUMPDEST PUSH1 0x40 MLOAD DUP1 SWAP2 SUB SWAP1 RETURN JUMPDEST PUSH2 0x247 PUSH1 0x4 DUP1 CALLDATASIZE SUB DUP2 ADD SWAP1 PUSH2 0x242 SWAP2 SWAP1 PUSH2 0x1995 JUMP JUMPDEST PUSH2 0xDAE JUMP JUMPDEST STOP JUMPDEST CALLVALUE DUP1 ISZERO PUSH2 0x254 JUMPI PUSH0 DUP1 REVERT JUMPDEST POP PUSH2 0x26F PUSH1 0x4 DUP1 CALLDATASIZE SUB DUP2 ADD SWAP1 PUSH2 0x26A SWAP2 SWAP1 PUSH2 0x1995 JUMP JUMPDEST PUSH2 0xFE9 JUMP JUMPDEST PUSH1 0x40 MLOAD PUSH2 0x27C SWAP2 SWAP1 PUSH2 0x1B3A JUMP JUMPDEST PUSH1 0x40 MLOAD DUP1 SWAP2 SUB SWAP1 RETURN JUMPDEST CALLVALUE DUP1 ISZERO PUSH2 0x290 JUMPI PUSH0 DUP1 REVERT JUMPDEST POP PUSH2 0x299 PUSH2 0x100B JUMP JUMPDEST PUSH1 0x40 MLOAD PUSH2 0x2A6 SWAP2 SWAP1 PUSH2 0x1FB9 JUMP JUMPDEST PUSH1 0x40 MLOAD DUP1 SWAP2 SUB SWAP1 RETURN JUMPDEST PUSH2 0x2C9 PUSH1 0x4 DUP1 CALLDATASIZE SUB DUP2 ADD SWAP1 PUSH2 0x2C4 SWAP2 SWAP1 PUSH2 0x1995 JUMP JUMPDEST PUSH2 0x1256 JUMP JUMPDEST STOP JUMPDEST PUSH1 0x60 PUSH0 DUP1 SLOAD PUSH8 0xFFFFFFFFFFFFFFFF DUP2 GT ISZERO PUSH2 0x2E9 JUMPI PUSH2 0x2E8 PUSH2 0x1B85 JUMP JUMPDEST JUMPDEST PUSH1 0x40 MLOAD SWAP1 DUP1 DUP3 MSTORE DUP1 PUSH1 0x20 MUL PUSH1 0x20 ADD DUP3 ADD PUSH1 0x40 MSTORE DUP1 ISZERO PUSH2 0x322 JUMPI DUP2 PUSH1 0x20 ADD JUMPDEST PUSH2 0x30F PUSH2 0x15DA JUMP JUMPDEST DUP2 MSTORE PUSH1 0x20 ADD SWAP1 PUSH1 0x1 SWAP1 SUB SWAP1 DUP2 PUSH2 0x307 JUMPI SWAP1 POP JUMPDEST POP SWAP1 POP PUSH0 JUMPDEST PUSH0 SLOAD DUP2 LT ISZERO PUSH2 0x694 JUMPI PUSH0 PUSH1 0x2 PUSH0 DUP4 DUP2 MSTORE PUSH1 0x20 ADD SWAP1 DUP2 MSTORE PUSH1 0x20 ADD PUSH0 KECCAK256 SWAP1 POP DUP1 PUSH1 0x40 MLOAD DUP1 PUSH2 0x120 ADD PUSH1 0x40 MSTORE SWAP1 DUP2 PUSH0 DUP3 ADD PUSH0 SWAP1 SLOAD SWAP1 PUSH2 0x100 EXP SWAP1 DIV PUSH20 0xFFFFFFFFFFFFFFFFFFFFFFFFFFFFFFFFFFFFFFFF AND PUSH20 0xFFFFFFFFFFFFFFFFFFFFFFFFFFFFFFFFFFFFFFFF AND PUSH20 0xFFFFFFFFFFFFFFFFFFFFFFFFFFFFFFFFFFFFFFFF AND DUP2 MSTORE PUSH1 0x20 ADD PUSH1 0x1 DUP3 ADD DUP1 SLOAD PUSH2 0x3B5 SWAP1 PUSH2 0x2006 JUMP JUMPDEST DUP1 PUSH1 0x1F ADD PUSH1 0x20 DUP1 SWAP2 DIV MUL PUSH1 0x20 ADD PUSH1 0x40 MLOAD SWAP1 DUP2 ADD PUSH1 0x40 MSTORE DUP1 SWAP3 SWAP2 SWAP1 DUP2 DUP2 MSTORE PUSH1 0x20 ADD DUP3 DUP1 SLOAD PUSH2 0x3E1 SWAP1 PUSH2 0x2006 JUMP JUMPDEST DUP1 ISZERO PUSH2 0x42C JUMPI DUP1 PUSH1 0x1F LT PUSH2 0x403 JUMPI PUSH2 0x100 DUP1 DUP4 SLOAD DIV MUL DUP4 MSTORE SWAP2 PUSH1 0x20 ADD SWAP2 PUSH2 0x42C JUMP JUMPDEST DUP3 ADD SWAP2 SWAP1 PUSH0 MSTORE PUSH1 0x20 PUSH0 KECCAK256 SWAP1 JUMPDEST DUP2 SLOAD DUP2 MSTORE SWAP1 PUSH1 0x1 ADD SWAP1 PUSH1 0x20 ADD DUP1 DUP4 GT PUSH2 0x40F JUMPI DUP3 SWAP1 SUB PUSH1 0x1F AND DUP3 ADD SWAP2 JUMPDEST POP POP POP POP POP DUP2 MSTORE PUSH1 0x20 ADD PUSH1 0x2 DUP3 ADD DUP1 SLOAD PUSH2 0x445 SWAP1 PUSH2 0x2006 JUMP JUMPDEST DUP1 PUSH1 0x1F ADD PUSH1 0x20 DUP1 SWAP2 DIV MUL PUSH1 0x20 ADD PUSH1 0x40 MLOAD SWAP1 DUP2 ADD PUSH1 0x40 MSTORE DUP1 SWAP3 SWAP2 SWAP1 DUP2 DUP2 MSTORE PUSH1 0x20 ADD DUP3 DUP1 SLOAD PUSH2 0x471 SWAP1 PUSH2 0x2006 JUMP JUMPDEST DUP1 ISZERO PUSH2 0x4BC JUMPI DUP1 PUSH1 0x1F LT PUSH2 0x493 JUMPI PUSH2 0x100 DUP1 DUP4 SLOAD DIV MUL DUP4 MSTORE SWAP2 PUSH1 0x20 ADD SWAP2 PUSH2 0x4BC JUMP JUMPDEST DUP3 ADD SWAP2 SWAP1 PUSH0 MSTORE PUSH1 0x20 PUSH0 KECCAK256 SWAP1 JUMPDEST DUP2 SLOAD DUP2 MSTORE SWAP1 PUSH1 0x1 ADD SWAP1 PUSH1 0x20 ADD DUP1 DUP4 GT PUSH2 0x49F JUMPI DUP3 SWAP1 SUB PUSH1 0x1F AND DUP3 ADD SWAP2 JUMPDEST POP POP POP POP POP DUP2 MSTORE PUSH1 0x20 ADD PUSH1 0x3 DUP3 ADD SLOAD DUP2 MSTORE PUSH1 0x20 ADD PUSH1 0x4 DUP3 ADD DUP1 SLOAD PUSH2 0x4DF SWAP1 PUSH2 0x2006 JUMP JUMPDEST DUP1 PUSH1 0x1F ADD PUSH1 0x20 DUP1 SWAP2 DIV MUL PUSH1 0x20 ADD PUSH1 0x40 MLOAD SWAP1 DUP2 ADD PUSH1 0x40 MSTORE DUP1 SWAP3 SWAP2 SWAP1 DUP2 DUP2 MSTORE PUSH1 0x20 ADD DUP3 DUP1 SLOAD PUSH2 0x50B SWAP1 PUSH2 0x2006 JUMP JUMPDEST DUP1 ISZERO PUSH2 0x556 JUMPI DUP1 PUSH1 0x1F LT PUSH2 0x52D JUMPI PUSH2 0x100 DUP1 DUP4 SLOAD DIV MUL DUP4 MSTORE SWAP2 PUSH1 0x20 ADD SWAP2 PUSH2 0x556 JUMP JUMPDEST DUP3 ADD SWAP2 SWAP1 PUSH0 MSTORE PUSH1 0x20 PUSH0 KECCAK256 SWAP1 JUMPDEST DUP2 SLOAD DUP2 MSTORE SWAP1 PUSH1 0x1 ADD SWAP1 PUSH1 0x20 ADD DUP1 DUP4 GT PUSH2 0x539 JUMPI DUP3 SWAP1 SUB PUSH1 0x1F AND DUP3 ADD SWAP2 JUMPDEST POP POP POP POP POP DUP2 MSTORE PUSH1 0x20 ADD PUSH1 0x5 DUP3 ADD SLOAD DUP2 MSTORE PUSH1 0x20 ADD PUSH1 0x6 DUP3 ADD PUSH0 SWAP1 SLOAD SWAP1 PUSH2 0x100 EXP SWAP1 DIV PUSH1 0xFF AND ISZERO ISZERO ISZERO ISZERO DUP2 MSTORE PUSH1 0x20 ADD PUSH1 0x7 DUP3 ADD DUP1 SLOAD PUSH2 0x593 SWAP1 PUSH2 0x2006 JUMP JUMPDEST DUP1 PUSH1 0x1F ADD PUSH1 0x20 DUP1 SWAP2 DIV MUL PUSH1 0x20 ADD PUSH1 0x40 MLOAD SWAP1 DUP2 ADD PUSH1 0x40 MSTORE DUP1 SWAP3 SWAP2 SWAP1 DUP2 DUP2 MSTORE PUSH1 0x20 ADD DUP3 DUP1 SLOAD PUSH2 0x5BF SWAP1 PUSH2 0x2006 JUMP JUMPDEST DUP1 ISZERO PUSH2 0x60A JUMPI DUP1 PUSH1 0x1F LT PUSH2 0x5E1 JUMPI PUSH2 0x100 DUP1 DUP4 SLOAD DIV MUL DUP4 MSTORE SWAP2 PUSH1 0x20 ADD SWAP2 PUSH2 0x60A JUMP JUMPDEST DUP3 ADD SWAP2 SWAP1 PUSH0 MSTORE PUSH1 0x20 PUSH0 KECCAK256 SWAP1 JUMPDEST DUP2 SLOAD DUP2 MSTORE SWAP1 PUSH1 0x1 ADD SWAP1 PUSH1 0x20 ADD DUP1 DUP4 GT PUSH2 0x5ED JUMPI DUP3 SWAP1 SUB PUSH1 0x1F AND DUP3 ADD SWAP2 JUMPDEST POP POP POP POP POP DUP2 MSTORE PUSH1 0x20 ADD PUSH1 0x8 DUP3 ADD PUSH0 SWAP1 SLOAD SWAP1 PUSH2 0x100 EXP SWAP1 DIV PUSH20 0xFFFFFFFFFFFFFFFFFFFFFFFFFFFFFFFFFFFFFFFF AND PUSH20 0xFFFFFFFFFFFFFFFFFFFFFFFFFFFFFFFFFFFFFFFF AND PUSH20 0xFFFFFFFFFFFFFFFFFFFFFFFFFFFFFFFFFFFFFFFF AND DUP2 MSTORE POP POP DUP4 DUP4 DUP2 MLOAD DUP2 LT PUSH2 0x67B JUMPI PUSH2 0x67A PUSH2 0x2036 JUMP JUMPDEST JUMPDEST PUSH1 0x20 MUL PUSH1 0x20 ADD ADD DUP2 SWAP1 MSTORE POP POP DUP1 DUP1 PUSH1 0x1 ADD SWAP2 POP POP PUSH2 0x327 JUMP JUMPDEST POP DUP1 SWAP2 POP POP SWAP1 JUMP JUMPDEST PUSH1 0x60 PUSH0 PUSH1 0x3 PUSH0 DUP5 DUP2 MSTORE PUSH1 0x20 ADD SWAP1 DUP2 MSTORE PUSH1 0x20 ADD PUSH0 KECCAK256 SWAP1 POP PUSH1 0x40 MLOAD DUP1 PUSH1 0x40 ADD PUSH1 0x40 MSTORE DUP1 PUSH1 0xA DUP2 MSTORE PUSH1 0x20 ADD PUSH32 0x4469737061746368656400000000000000000000000000000000000000000000 DUP2 MSTORE POP DUP2 PUSH1 0x8 ADD SWAP1 DUP2 PUSH2 0x6F8 SWAP2 SWAP1 PUSH2 0x2200 JUMP JUMPDEST POP DUP1 PUSH1 0x8 ADD DUP1 SLOAD PUSH2 0x708 SWAP1 PUSH2 0x2006 JUMP JUMPDEST DUP1 PUSH1 0x1F ADD PUSH1 0x20 DUP1 SWAP2 DIV MUL PUSH1 0x20 ADD PUSH1 0x40 MLOAD SWAP1 DUP2 ADD PUSH1 0x40 MSTORE DUP1 SWAP3 SWAP2 SWAP1 DUP2 DUP2 MSTORE PUSH1 0x20 ADD DUP3 DUP1 SLOAD PUSH2 0x734 SWAP1 PUSH2 0x2006 JUMP JUMPDEST DUP1 ISZERO PUSH2 0x77F JUMPI DUP1 PUSH1 0x1F LT PUSH2 0x756 JUMPI PUSH2 0x100 DUP1 DUP4 SLOAD DIV MUL DUP4 MSTORE SWAP2 PUSH1 0x20 ADD SWAP2 PUSH2 0x77F JUMP JUMPDEST DUP3 ADD SWAP2 SWAP1 PUSH0 MSTORE PUSH1 0x20 PUSH0 KECCAK256 SWAP1 JUMPDEST DUP2 SLOAD DUP2 MSTORE SWAP1 PUSH1 0x1 ADD SWAP1 PUSH1 0x20 ADD DUP1 DUP4 GT PUSH2 0x762 JUMPI DUP3 SWAP1 SUB PUSH1 0x1F AND DUP3 ADD SWAP2 JUMPDEST POP POP POP POP POP SWAP2 POP POP SWAP2 SWAP1 POP JUMP JUMPDEST PUSH1 0x2 PUSH1 0x20 MSTORE DUP1 PUSH0 MSTORE PUSH1 0x40 PUSH0 KECCAK256 PUSH0 SWAP2 POP SWAP1 POP DUP1 PUSH0 ADD PUSH0 SWAP1 SLOAD SWAP1 PUSH2 0x100 EXP SWAP1 DIV PUSH20 0xFFFFFFFFFFFFFFFFFFFFFFFFFFFFFFFFFFFFFFFF AND SWAP1 DUP1 PUSH1 0x1 ADD DUP1 SLOAD PUSH2 0x7D0 SWAP1 PUSH2 0x2006 JUMP JUMPDEST DUP1 PUSH1 0x1F ADD PUSH1 0x20 DUP1 SWAP2 DIV MUL PUSH1 0x20 ADD PUSH1 0x40 MLOAD SWAP1 DUP2 ADD PUSH1 0x40 MSTORE DUP1 SWAP3 SWAP2 SWAP1 DUP2 DUP2 MSTORE PUSH1 0x20 ADD DUP3 DUP1 SLOAD PUSH2 0x7FC SWAP1 PUSH2 0x2006 JUMP JUMPDEST DUP1 ISZERO PUSH2 0x847 JUMPI DUP1 PUSH1 0x1F LT PUSH2 0x81E JUMPI PUSH2 0x100 DUP1 DUP4 SLOAD DIV MUL DUP4 MSTORE SWAP2 PUSH1 0x20 ADD SWAP2 PUSH2 0x847 JUMP JUMPDEST DUP3 ADD SWAP2 SWAP1 PUSH0 MSTORE PUSH1 0x20 PUSH0 KECCAK256 SWAP1 JUMPDEST DUP2 SLOAD DUP2 MSTORE SWAP1 PUSH1 0x1 ADD SWAP1 PUSH1 0x20 ADD DUP1 DUP4 GT PUSH2 0x82A JUMPI DUP3 SWAP1 SUB PUSH1 0x1F AND DUP3 ADD SWAP2 JUMPDEST POP POP POP POP POP SWAP1 DUP1 PUSH1 0x2 ADD DUP1 SLOAD PUSH2 0x85C SWAP1 PUSH2 0x2006 JUMP JUMPDEST DUP1 PUSH1 0x1F ADD PUSH1 0x20 DUP1 SWAP2 DIV MUL PUSH1 0x20 ADD PUSH1 0x40 MLOAD SWAP1 DUP2 ADD PUSH1 0x40 MSTORE DUP1 SWAP3 SWAP2 SWAP1 DUP2 DUP2 MSTORE PUSH1 0x20 ADD DUP3 DUP1 SLOAD PUSH2 0x888 SWAP1 PUSH2 0x2006 JUMP JUMPDEST DUP1 ISZERO PUSH2 0x8D3 JUMPI DUP1 PUSH1 0x1F LT PUSH2 0x8AA JUMPI PUSH2 0x100 DUP1 DUP4 SLOAD DIV MUL DUP4 MSTORE SWAP2 PUSH1 0x20 ADD SWAP2 PUSH2 0x8D3 JUMP JUMPDEST DUP3 ADD SWAP2 SWAP1 PUSH0 MSTORE PUSH1 0x20 PUSH0 KECCAK256 SWAP1 JUMPDEST DUP2 SLOAD DUP2 MSTORE SWAP1 PUSH1 0x1 ADD SWAP1 PUSH1 0x20 ADD DUP1 DUP4 GT PUSH2 0x8B6 JUMPI DUP3 SWAP1 SUB PUSH1 0x1F AND DUP3 ADD SWAP2 JUMPDEST POP POP POP POP POP SWAP1 DUP1 PUSH1 0x3 ADD SLOAD SWAP1 DUP1 PUSH1 0x4 ADD DUP1 SLOAD PUSH2 0x8EE SWAP1 PUSH2 0x2006 JUMP JUMPDEST DUP1 PUSH1 0x1F ADD PUSH1 0x20 DUP1 SWAP2 DIV MUL PUSH1 0x20 ADD PUSH1 0x40 MLOAD SWAP1 DUP2 ADD PUSH1 0x40 MSTORE DUP1 SWAP3 SWAP2 SWAP1 DUP2 DUP2 MSTORE PUSH1 0x20 ADD DUP3 DUP1 SLOAD PUSH2 0x91A SWAP1 PUSH2 0x2006 JUMP JUMPDEST DUP1 ISZERO PUSH2 0x965 JUMPI DUP1 PUSH1 0x1F LT PUSH2 0x93C JUMPI PUSH2 0x100 DUP1 DUP4 SLOAD DIV MUL DUP4 MSTORE SWAP2 PUSH1 0x20 ADD SWAP2 PUSH2 0x965 JUMP JUMPDEST DUP3 ADD SWAP2 SWAP1 PUSH0 MSTORE PUSH1 0x20 PUSH0 KECCAK256 SWAP1 JUMPDEST DUP2 SLOAD DUP2 MSTORE SWAP1 PUSH1 0x1 ADD SWAP1 PUSH1 0x20 ADD DUP1 DUP4 GT PUSH2 0x948 JUMPI DUP3 SWAP1 SUB PUSH1 0x1F AND DUP3 ADD SWAP2 JUMPDEST POP POP POP POP POP SWAP1 DUP1 PUSH1 0x5 ADD SLOAD SWAP1 DUP1 PUSH1 0x6 ADD PUSH0 SWAP1 SLOAD SWAP1 PUSH2 0x100 EXP SWAP1 DIV PUSH1 0xFF AND SWAP1 DUP1 PUSH1 0x7 ADD DUP1 SLOAD PUSH2 0x992 SWAP1 PUSH2 0x2006 JUMP JUMPDEST DUP1 PUSH1 0x1F ADD PUSH1 0x20 DUP1 SWAP2 DIV MUL PUSH1 0x20 ADD PUSH1 0x40 MLOAD SWAP1 DUP2 ADD PUSH1 0x40 MSTORE DUP1 SWAP3 SWAP2 SWAP1 DUP2 DUP2 MSTORE PUSH1 0x20 ADD DUP3 DUP1 SLOAD PUSH2 0x9BE SWAP1 PUSH2 0x2006 JUMP JUMPDEST DUP1 ISZERO PUSH2 0xA09 JUMPI DUP1 PUSH1 0x1F LT PUSH2 0x9E0 JUMPI PUSH2 0x100 DUP1 DUP4 SLOAD DIV MUL DUP4 MSTORE SWAP2 PUSH1 0x20 ADD SWAP2 PUSH2 0xA09 JUMP JUMPDEST DUP3 ADD SWAP2 SWAP1 PUSH0 MSTORE PUSH1 0x20 PUSH0 KECCAK256 SWAP1 JUMPDEST DUP2 SLOAD DUP2 MSTORE SWAP1 PUSH1 0x1 ADD SWAP1 PUSH1 0x20 ADD DUP1 DUP4 GT PUSH2 0x9EC JUMPI DUP3 SWAP1 SUB PUSH1 0x1F AND DUP3 ADD SWAP2 JUMPDEST POP POP POP POP POP SWAP1 DUP1 PUSH1 0x8 ADD PUSH0 SWAP1 SLOAD SWAP1 PUSH2 0x100 EXP SWAP1 DIV PUSH20 0xFFFFFFFFFFFFFFFFFFFFFFFFFFFFFFFFFFFFFFFF AND SWAP1 POP DUP10 JUMP JUMPDEST PUSH0 DUP1 PUSH1 0x2 PUSH0 DUP6 DUP2 MSTORE PUSH1 0x20 ADD SWAP1 DUP2 MSTORE PUSH1 0x20 ADD PUSH0 KECCAK256 SWAP1 POP DUP3 DUP2 PUSH1 0x5 ADD DUP2 SWAP1 SSTORE POP DUP1 PUSH1 0x5 ADD SLOAD SWAP2 POP POP SWAP3 SWAP2 POP POP JUMP JUMPDEST PUSH0 PUSH1 0x2 PUSH0 DUP1 SLOAD DUP2 MSTORE PUSH1 0x20 ADD SWAP1 DUP2 MSTORE PUSH1 0x20 ADD PUSH0 KECCAK256 SWAP1 POP DUP7 DUP2 PUSH0 ADD PUSH0 PUSH2 0x100 EXP DUP2 SLOAD DUP2 PUSH20 0xFFFFFFFFFFFFFFFFFFFFFFFFFFFFFFFFFFFFFFFF MUL NOT AND SWAP1 DUP4 PUSH20 0xFFFFFFFFFFFFFFFFFFFFFFFFFFFFFFFFFFFFFFFF AND MUL OR SWAP1 SSTORE POP DUP6 DUP2 PUSH1 0x1 ADD SWAP1 DUP2 PUSH2 0xACB SWAP2 SWAP1 PUSH2 0x2200 JUMP JUMPDEST POP DUP5 DUP2 PUSH1 0x2 ADD SWAP1 DUP2 PUSH2 0xADD SWAP2 SWAP1 PUSH2 0x2200 JUMP JUMPDEST POP DUP4 DUP2 PUSH1 0x3 ADD DUP2 SWAP1 SSTORE POP DUP3 DUP2 PUSH1 0x4 ADD SWAP1 DUP2 PUSH2 0xAF8 SWAP2 SWAP1 PUSH2 0x2200 JUMP JUMPDEST POP DUP2 DUP2 PUSH1 0x5 ADD DUP2 SWAP1 SSTORE POP PUSH0 DUP2 PUSH1 0x6 ADD PUSH0 PUSH2 0x100 EXP DUP2 SLOAD DUP2 PUSH1 0xFF MUL NOT AND SWAP1 DUP4 ISZERO ISZERO MUL OR SWAP1 SSTORE POP PUSH1 0x40 MLOAD DUP1 PUSH1 0x20 ADD PUSH1 0x40 MSTORE DUP1 PUSH0 DUP2 MSTORE POP DUP2 PUSH1 0x7 ADD SWAP1 DUP2 PUSH2 0xB3C SWAP2 SWAP1 PUSH2 0x2200 JUMP JUMPDEST POP DUP7 DUP2 PUSH1 0x8 ADD PUSH0 PUSH2 0x100 EXP DUP2 SLOAD DUP2 PUSH20 0xFFFFFFFFFFFFFFFFFFFFFFFFFFFFFFFFFFFFFFFF MUL NOT AND SWAP1 DUP4 PUSH20 0xFFFFFFFFFFFFFFFFFFFFFFFFFFFFFFFFFFFFFFFF AND MUL OR SWAP1 SSTORE POP PUSH0 DUP1 DUP2 SLOAD DUP1 SWAP3 SWAP2 SWAP1 PUSH2 0xB90 SWAP1 PUSH2 0x22FC JUMP JUMPDEST SWAP2 SWAP1 POP SSTORE POP POP POP POP POP POP POP POP JUMP JUMPDEST PUSH1 0x60 PUSH0 PUSH1 0x3 PUSH0 DUP5 DUP2 MSTORE PUSH1 0x20 ADD SWAP1 DUP2 MSTORE PUSH1 0x20 ADD PUSH0 KECCAK256 SWAP1 POP PUSH1 0x40 MLOAD DUP1 PUSH1 0x40 ADD PUSH1 0x40 MSTORE DUP1 PUSH1 0x9 DUP2 MSTORE PUSH1 0x20 ADD PUSH32 0x44656C6976657265640000000000000000000000000000000000000000000000 DUP2 MSTORE POP DUP2 PUSH1 0x8 ADD SWAP1 DUP2 PUSH2 0xBFA SWAP2 SWAP1 PUSH2 0x2200 JUMP JUMPDEST POP DUP1 PUSH1 0x8 ADD DUP1 SLOAD PUSH2 0xC0A SWAP1 PUSH2 0x2006 JUMP JUMPDEST DUP1 PUSH1 0x1F ADD PUSH1 0x20 DUP1 SWAP2 DIV MUL PUSH1 0x20 ADD PUSH1 0x40 MLOAD SWAP1 DUP2 ADD PUSH1 0x40 MSTORE DUP1 SWAP3 SWAP2 SWAP1 DUP2 DUP2 MSTORE PUSH1 0x20 ADD DUP3 DUP1 SLOAD PUSH2 0xC36 SWAP1 PUSH2 0x2006 JUMP JUMPDEST DUP1 ISZERO PUSH2 0xC81 JUMPI DUP1 PUSH1 0x1F LT PUSH2 0xC58 JUMPI PUSH2 0x100 DUP1 DUP4 SLOAD DIV MUL DUP4 MSTORE SWAP2 PUSH1 0x20 ADD SWAP2 PUSH2 0xC81 JUMP JUMPDEST DUP3 ADD SWAP2 SWAP1 PUSH0 MSTORE PUSH1 0x20 PUSH0 KECCAK256 SWAP1 JUMPDEST DUP2 SLOAD DUP2 MSTORE SWAP1 PUSH1 0x1 ADD SWAP1 PUSH1 0x20 ADD DUP1 DUP4 GT PUSH2 0xC64 JUMPI DUP3 SWAP1 SUB PUSH1 0x1F AND DUP3 ADD SWAP2 JUMPDEST POP POP POP POP POP SWAP2 POP POP SWAP2 SWAP1 POP JUMP JUMPDEST PUSH1 0x3 PUSH1 0x20 MSTORE DUP1 PUSH0 MSTORE PUSH1 0x40 PUSH0 KECCAK256 PUSH0 SWAP2 POP SWAP1 POP DUP1 PUSH0 ADD SLOAD SWAP1 DUP1 PUSH1 0x1 ADD SLOAD SWAP1 DUP1 PUSH1 0x2 ADD PUSH0 SWAP1 SLOAD SWAP1 PUSH2 0x100 EXP SWAP1 DIV PUSH20 0xFFFFFFFFFFFFFFFFFFFFFFFFFFFFFFFFFFFFFFFF AND SWAP1 DUP1 PUSH1 0x3 ADD PUSH0 SWAP1 SLOAD SWAP1 PUSH2 0x100 EXP SWAP1 DIV PUSH20 0xFFFFFFFFFFFFFFFFFFFFFFFFFFFFFFFFFFFFFFFF AND SWAP1 DUP1 PUSH1 0x4 ADD SLOAD SWAP1 DUP1 PUSH1 0x5 ADD SLOAD SWAP1 DUP1 PUSH1 0x6 ADD SLOAD SWAP1 DUP1 PUSH1 0x7 ADD SLOAD SWAP1 DUP1 PUSH1 0x8 ADD DUP1 SLOAD PUSH2 0xD1B SWAP1 PUSH2 0x2006 JUMP JUMPDEST DUP1 PUSH1 0x1F ADD PUSH1 0x20 DUP1 SWAP2 DIV MUL PUSH1 0x20 ADD PUSH1 0x40 MLOAD SWAP1 DUP2 ADD PUSH1 0x40 MSTORE DUP1 SWAP3 SWAP2 SWAP1 DUP2 DUP2 MSTORE PUSH1 0x20 ADD DUP3 DUP1 SLOAD PUSH2 0xD47 SWAP1 PUSH2 0x2006 JUMP JUMPDEST DUP1 ISZERO PUSH2 0xD92 JUMPI DUP1 PUSH1 0x1F LT PUSH2 0xD69 JUMPI PUSH2 0x100 DUP1 DUP4 SLOAD DIV MUL DUP4 MSTORE SWAP2 PUSH1 0x20 ADD SWAP2 PUSH2 0xD92 JUMP JUMPDEST DUP3 ADD SWAP2 SWAP1 PUSH0 MSTORE PUSH1 0x20 PUSH0 KECCAK256 SWAP1 JUMPDEST DUP2 SLOAD DUP2 MSTORE SWAP1 PUSH1 0x1 ADD SWAP1 PUSH1 0x20 ADD DUP1 DUP4 GT PUSH2 0xD75 JUMPI DUP3 SWAP1 SUB PUSH1 0x1F AND DUP3 ADD SWAP2 JUMPDEST POP POP POP POP POP SWAP1 DUP1 PUSH1 0x9 ADD PUSH0 SWAP1 SLOAD SWAP1 PUSH2 0x100 EXP SWAP1 DIV PUSH1 0xFF AND SWAP1 POP DUP11 JUMP JUMPDEST PUSH0 PUSH1 0x3 PUSH0 DUP4 DUP2 MSTORE PUSH1 0x20 ADD SWAP1 DUP2 MSTORE PUSH1 0x20 ADD PUSH0 KECCAK256 SWAP1 POP PUSH1 0x1 DUP2 PUSH1 0x9 ADD PUSH0 PUSH2 0x100 EXP DUP2 SLOAD DUP2 PUSH1 0xFF MUL NOT AND SWAP1 DUP4 ISZERO ISZERO MUL OR SWAP1 SSTORE POP PUSH0 PUSH1 0x2 PUSH0 DUP4 PUSH1 0x1 ADD SLOAD DUP2 MSTORE PUSH1 0x20 ADD SWAP1 DUP2 MSTORE PUSH1 0x20 ADD PUSH0 KECCAK256 SWAP1 POP PUSH0 DUP3 PUSH1 0x7 ADD SLOAD SWAP1 POP DUP1 CALLVALUE EQ PUSH2 0xE40 JUMPI PUSH1 0x40 MLOAD PUSH32 0x8C379A000000000000000000000000000000000000000000000000000000000 DUP2 MSTORE PUSH1 0x4 ADD PUSH2 0xE37 SWAP1 PUSH2 0x238D JUMP JUMPDEST PUSH1 0x40 MLOAD DUP1 SWAP2 SUB SWAP1 REVERT JUMPDEST PUSH0 DUP3 PUSH0 ADD PUSH0 SWAP1 SLOAD SWAP1 PUSH2 0x100 EXP SWAP1 DIV PUSH20 0xFFFFFFFFFFFFFFFFFFFFFFFFFFFFFFFFFFFFFFFF AND PUSH20 0xFFFFFFFFFFFFFFFFFFFFFFFFFFFFFFFFFFFFFFFF AND DUP3 PUSH1 0x40 MLOAD PUSH2 0xE87 SWAP1 PUSH2 0x23D8 JUMP JUMPDEST PUSH0 PUSH1 0x40 MLOAD DUP1 DUP4 SUB DUP2 DUP6 DUP8 GAS CALL SWAP3 POP POP POP RETURNDATASIZE DUP1 PUSH0 DUP2 EQ PUSH2 0xEC1 JUMPI PUSH1 0x40 MLOAD SWAP2 POP PUSH1 0x1F NOT PUSH1 0x3F RETURNDATASIZE ADD AND DUP3 ADD PUSH1 0x40 MSTORE RETURNDATASIZE DUP3 MSTORE RETURNDATASIZE PUSH0 PUSH1 0x20 DUP5 ADD RETURNDATACOPY PUSH2 0xEC6 JUMP JUMPDEST PUSH1 0x60 SWAP2 POP JUMPDEST POP POP SWAP1 POP DUP1 PUSH2 0xF0A JUMPI PUSH1 0x40 MLOAD PUSH32 0x8C379A000000000000000000000000000000000000000000000000000000000 DUP2 MSTORE PUSH1 0x4 ADD PUSH2 0xF01 SWAP1 PUSH2 0x2436 JUMP JUMPDEST PUSH1 0x40 MLOAD DUP1 SWAP2 SUB SWAP1 REVERT JUMPDEST PUSH32 0xA27A7E11A23B47207454244AE3EDDEFDFAF476D024076F73C2D5BB9F36EBE8DB DUP5 PUSH1 0x1 ADD SLOAD CALLER DUP6 PUSH0 ADD PUSH0 SWAP1 SLOAD SWAP1 PUSH2 0x100 EXP SWAP1 DIV PUSH20 0xFFFFFFFFFFFFFFFFFFFFFFFFFFFFFFFFFFFFFFFF AND DUP6 PUSH1 0x40 MLOAD PUSH2 0xF65 SWAP5 SWAP4 SWAP3 SWAP2 SWAP1 PUSH2 0x2454 JUMP JUMPDEST PUSH1 0x40 MLOAD DUP1 SWAP2 SUB SWAP1 LOG1 CALLER DUP4 PUSH0 ADD PUSH0 PUSH2 0x100 EXP DUP2 SLOAD DUP2 PUSH20 0xFFFFFFFFFFFFFFFFFFFFFFFFFFFFFFFFFFFFFFFF MUL NOT AND SWAP1 DUP4 PUSH20 0xFFFFFFFFFFFFFFFFFFFFFFFFFFFFFFFFFFFFFFFF AND MUL OR SWAP1 SSTORE POP DUP2 DUP5 PUSH1 0x6 ADD PUSH0 DUP3 DUP3 SLOAD PUSH2 0xFC1 SWAP2 SWAP1 PUSH2 0x2497 JUMP JUMPDEST SWAP3 POP POP DUP2 SWAP1 SSTORE POP DUP2 DUP5 PUSH1 0x7 ADD PUSH0 DUP3 DUP3 SLOAD PUSH2 0xFDB SWAP2 SWAP1 PUSH2 0x24CA JUMP JUMPDEST SWAP3 POP POP DUP2 SWAP1 SSTORE POP POP POP POP POP POP JUMP JUMPDEST PUSH0 DUP1 PUSH1 0x2 PUSH0 DUP5 DUP2 MSTORE PUSH1 0x20 ADD SWAP1 DUP2 MSTORE PUSH1 0x20 ADD PUSH0 KECCAK256 SWAP1 POP DUP1 PUSH1 0x5 ADD SLOAD SWAP2 POP POP SWAP2 SWAP1 POP JUMP JUMPDEST PUSH1 0x60 PUSH0 PUSH1 0x1 SLOAD PUSH8 0xFFFFFFFFFFFFFFFF DUP2 GT ISZERO PUSH2 0x102A JUMPI PUSH2 0x1029 PUSH2 0x1B85 JUMP JUMPDEST JUMPDEST PUSH1 0x40 MLOAD SWAP1 DUP1 DUP3 MSTORE DUP1 PUSH1 0x20 MUL PUSH1 0x20 ADD DUP3 ADD PUSH1 0x40 MSTORE DUP1 ISZERO PUSH2 0x1063 JUMPI DUP2 PUSH1 0x20 ADD JUMPDEST PUSH2 0x1050 PUSH2 0x164F JUMP JUMPDEST DUP2 MSTORE PUSH1 0x20 ADD SWAP1 PUSH1 0x1 SWAP1 SUB SWAP1 DUP2 PUSH2 0x1048 JUMPI SWAP1 POP JUMPDEST POP SWAP1 POP PUSH0 JUMPDEST PUSH1 0x1 SLOAD DUP2 LT ISZERO PUSH2 0x124E JUMPI PUSH0 PUSH1 0x3 PUSH0 DUP4 DUP2 MSTORE PUSH1 0x20 ADD SWAP1 DUP2 MSTORE PUSH1 0x20 ADD PUSH0 KECCAK256 SWAP1 POP DUP1 PUSH1 0x40 MLOAD DUP1 PUSH2 0x140 ADD PUSH1 0x40 MSTORE SWAP1 DUP2 PUSH0 DUP3 ADD SLOAD DUP2 MSTORE PUSH1 0x20 ADD PUSH1 0x1 DUP3 ADD SLOAD DUP2 MSTORE PUSH1 0x20 ADD PUSH1 0x2 DUP3 ADD PUSH0 SWAP1 SLOAD SWAP1 PUSH2 0x100 EXP SWAP1 DIV PUSH20 0xFFFFFFFFFFFFFFFFFFFFFFFFFFFFFFFFFFFFFFFF AND PUSH20 0xFFFFFFFFFFFFFFFFFFFFFFFFFFFFFFFFFFFFFFFF AND PUSH20 0xFFFFFFFFFFFFFFFFFFFFFFFFFFFFFFFFFFFFFFFF AND DUP2 MSTORE PUSH1 0x20 ADD PUSH1 0x3 DUP3 ADD PUSH0 SWAP1 SLOAD SWAP1 PUSH2 0x100 EXP SWAP1 DIV PUSH20 0xFFFFFFFFFFFFFFFFFFFFFFFFFFFFFFFFFFFFFFFF AND PUSH20 0xFFFFFFFFFFFFFFFFFFFFFFFFFFFFFFFFFFFFFFFF AND PUSH20 0xFFFFFFFFFFFFFFFFFFFFFFFFFFFFFFFFFFFFFFFF AND DUP2 MSTORE PUSH1 0x20 ADD PUSH1 0x4 DUP3 ADD SLOAD DUP2 MSTORE PUSH1 0x20 ADD PUSH1 0x5 DUP3 ADD SLOAD DUP2 MSTORE PUSH1 0x20 ADD PUSH1 0x6 DUP3 ADD SLOAD DUP2 MSTORE PUSH1 0x20 ADD PUSH1 0x7 DUP3 ADD SLOAD DUP2 MSTORE PUSH1 0x20 ADD PUSH1 0x8 DUP3 ADD DUP1 SLOAD PUSH2 0x1188 SWAP1 PUSH2 0x2006 JUMP JUMPDEST DUP1 PUSH1 0x1F ADD PUSH1 0x20 DUP1 SWAP2 DIV MUL PUSH1 0x20 ADD PUSH1 0x40 MLOAD SWAP1 DUP2 ADD PUSH1 0x40 MSTORE DUP1 SWAP3 SWAP2 SWAP1 DUP2 DUP2 MSTORE PUSH1 0x20 ADD DUP3 DUP1 SLOAD PUSH2 0x11B4 SWAP1 PUSH2 0x2006 JUMP JUMPDEST DUP1 ISZERO PUSH2 0x11FF JUMPI DUP1 PUSH1 0x1F LT PUSH2 0x11D6 JUMPI PUSH2 0x100 DUP1 DUP4 SLOAD DIV MUL DUP4 MSTORE SWAP2 PUSH1 0x20 ADD SWAP2 PUSH2 0x11FF JUMP JUMPDEST DUP3 ADD SWAP2 SWAP1 PUSH0 MSTORE PUSH1 0x20 PUSH0 KECCAK256 SWAP1 JUMPDEST DUP2 SLOAD DUP2 MSTORE SWAP1 PUSH1 0x1 ADD SWAP1 PUSH1 0x20 ADD DUP1 DUP4 GT PUSH2 0x11E2 JUMPI DUP3 SWAP1 SUB PUSH1 0x1F AND DUP3 ADD SWAP2 JUMPDEST POP POP POP POP POP DUP2 MSTORE PUSH1 0x20 ADD PUSH1 0x9 DUP3 ADD PUSH0 SWAP1 SLOAD SWAP1 PUSH2 0x100 EXP SWAP1 DIV PUSH1 0xFF AND ISZERO ISZERO ISZERO ISZERO DUP2 MSTORE POP POP DUP4 DUP4 DUP2 MLOAD DUP2 LT PUSH2 0x1235 JUMPI PUSH2 0x1234 PUSH2 0x2036 JUMP JUMPDEST JUMPDEST PUSH1 0x20 MUL PUSH1 0x20 ADD ADD DUP2 SWAP1 MSTORE POP POP DUP1 DUP1 PUSH1 0x1 ADD SWAP2 POP POP PUSH2 0x1068 JUMP JUMPDEST POP DUP1 SWAP2 POP POP SWAP1 JUMP JUMPDEST PUSH0 PUSH1 0x2 PUSH0 DUP4 DUP2 MSTORE PUSH1 0x20 ADD SWAP1 DUP2 MSTORE PUSH1 0x20 ADD PUSH0 KECCAK256 SWAP1 POP PUSH0 DUP2 PUSH1 0x5 ADD SLOAD GT PUSH2 0x12B0 JUMPI PUSH1 0x40 MLOAD PUSH32 0x8C379A000000000000000000000000000000000000000000000000000000000 DUP2 MSTORE PUSH1 0x4 ADD PUSH2 0x12A7 SWAP1 PUSH2 0x2547 JUMP JUMPDEST PUSH1 0x40 MLOAD DUP1 SWAP2 SUB SWAP1 REVERT JUMPDEST PUSH0 PUSH1 0x64 DUP3 PUSH1 0x3 ADD SLOAD PUSH1 0xA PUSH2 0x12C4 SWAP2 SWAP1 PUSH2 0x2565 JUMP JUMPDEST PUSH2 0x12CE SWAP2 SWAP1 PUSH2 0x25D3 JUMP JUMPDEST SWAP1 POP DUP1 CALLVALUE EQ PUSH2 0x1312 JUMPI PUSH1 0x40 MLOAD PUSH32 0x8C379A000000000000000000000000000000000000000000000000000000000 DUP2 MSTORE PUSH1 0x4 ADD PUSH2 0x1309 SWAP1 PUSH2 0x238D JUMP JUMPDEST PUSH1 0x40 MLOAD DUP1 SWAP2 SUB SWAP1 REVERT JUMPDEST PUSH0 DUP3 PUSH0 ADD PUSH0 SWAP1 SLOAD SWAP1 PUSH2 0x100 EXP SWAP1 DIV PUSH20 0xFFFFFFFFFFFFFFFFFFFFFFFFFFFFFFFFFFFFFFFF AND PUSH20 0xFFFFFFFFFFFFFFFFFFFFFFFFFFFFFFFFFFFFFFFF AND DUP3 PUSH1 0x40 MLOAD PUSH2 0x1359 SWAP1 PUSH2 0x23D8 JUMP JUMPDEST PUSH0 PUSH1 0x40 MLOAD DUP1 DUP4 SUB DUP2 DUP6 DUP8 GAS CALL SWAP3 POP POP POP RETURNDATASIZE DUP1 PUSH0 DUP2 EQ PUSH2 0x1393 JUMPI PUSH1 0x40 MLOAD SWAP2 POP PUSH1 0x1F NOT PUSH1 0x3F RETURNDATASIZE ADD AND DUP3 ADD PUSH1 0x40 MSTORE RETURNDATASIZE DUP3 MSTORE RETURNDATASIZE PUSH0 PUSH1 0x20 DUP5 ADD RETURNDATACOPY PUSH2 0x1398 JUMP JUMPDEST PUSH1 0x60 SWAP2 POP JUMPDEST POP POP SWAP1 POP DUP1 PUSH2 0x13DC JUMPI PUSH1 0x40 MLOAD PUSH32 0x8C379A000000000000000000000000000000000000000000000000000000000 DUP2 MSTORE PUSH1 0x4 ADD PUSH2 0x13D3 SWAP1 PUSH2 0x2436 JUMP JUMPDEST PUSH1 0x40 MLOAD DUP1 SWAP2 SUB SWAP1 REVERT JUMPDEST DUP3 PUSH1 0x5 ADD PUSH0 DUP2 SLOAD DUP1 SWAP3 SWAP2 SWAP1 PUSH2 0x13F0 SWAP1 PUSH2 0x2603 JUMP JUMPDEST SWAP2 SWAP1 POP SSTORE POP PUSH0 PUSH1 0x3 PUSH0 PUSH1 0x1 SLOAD DUP2 MSTORE PUSH1 0x20 ADD SWAP1 DUP2 MSTORE PUSH1 0x20 ADD PUSH0 KECCAK256 SWAP1 POP PUSH1 0x1 SLOAD DUP2 PUSH0 ADD DUP2 SWAP1 SSTORE POP DUP5 DUP2 PUSH1 0x1 ADD DUP2 SWAP1 SSTORE POP CALLER DUP2 PUSH1 0x2 ADD PUSH0 PUSH2 0x100 EXP DUP2 SLOAD DUP2 PUSH20 0xFFFFFFFFFFFFFFFFFFFFFFFFFFFFFFFFFFFFFFFF MUL NOT AND SWAP1 DUP4 PUSH20 0xFFFFFFFFFFFFFFFFFFFFFFFFFFFFFFFFFFFFFFFF AND MUL OR SWAP1 SSTORE POP DUP4 PUSH0 ADD PUSH0 SWAP1 SLOAD SWAP1 PUSH2 0x100 EXP SWAP1 DIV PUSH20 0xFFFFFFFFFFFFFFFFFFFFFFFFFFFFFFFFFFFFFFFF AND DUP2 PUSH1 0x3 ADD PUSH0 PUSH2 0x100 EXP DUP2 SLOAD DUP2 PUSH20 0xFFFFFFFFFFFFFFFFFFFFFFFFFFFFFFFFFFFFFFFF MUL NOT AND SWAP1 DUP4 PUSH20 0xFFFFFFFFFFFFFFFFFFFFFFFFFFFFFFFFFFFFFFFF AND MUL OR SWAP1 SSTORE POP DUP3 DUP2 PUSH1 0x4 ADD DUP2 SWAP1 SSTORE POP DUP4 PUSH1 0x3 ADD SLOAD DUP2 PUSH1 0x5 ADD DUP2 SWAP1 SSTORE POP DUP3 DUP2 PUSH1 0x6 ADD DUP2 SWAP1 SSTORE POP DUP3 DUP5 PUSH1 0x3 ADD SLOAD PUSH2 0x14F3 SWAP2 SWAP1 PUSH2 0x24CA JUMP JUMPDEST DUP2 PUSH1 0x7 ADD DUP2 SWAP1 SSTORE POP PUSH1 0x40 MLOAD DUP1 PUSH1 0x40 ADD PUSH1 0x40 MSTORE DUP1 PUSH1 0xC DUP2 MSTORE PUSH1 0x20 ADD PUSH32 0x696E2077617265686F7573650000000000000000000000000000000000000000 DUP2 MSTORE POP DUP2 PUSH1 0x8 ADD SWAP1 DUP2 PUSH2 0x1541 SWAP2 SWAP1 PUSH2 0x2200 JUMP JUMPDEST POP PUSH0 DUP2 PUSH1 0x9 ADD PUSH0 PUSH2 0x100 EXP DUP2 SLOAD DUP2 PUSH1 0xFF MUL NOT AND SWAP1 DUP4 ISZERO ISZERO MUL OR SWAP1 SSTORE POP PUSH1 0x1 PUSH0 DUP2 SLOAD DUP1 SWAP3 SWAP2 SWAP1 PUSH2 0x156F SWAP1 PUSH2 0x22FC JUMP JUMPDEST SWAP2 SWAP1 POP SSTORE POP PUSH32 0xA27A7E11A23B47207454244AE3EDDEFDFAF476D024076F73C2D5BB9F36EBE8DB DUP6 CALLER DUP7 PUSH0 ADD PUSH0 SWAP1 SLOAD SWAP1 PUSH2 0x100 EXP SWAP1 DIV PUSH20 0xFFFFFFFFFFFFFFFFFFFFFFFFFFFFFFFFFFFFFFFF AND DUP7 PUSH1 0x40 MLOAD PUSH2 0x15CB SWAP5 SWAP4 SWAP3 SWAP2 SWAP1 PUSH2 0x2454 JUMP JUMPDEST PUSH1 0x40 MLOAD DUP1 SWAP2 SUB SWAP1 LOG1 POP POP POP POP POP JUMP JUMPDEST PUSH1 0x40 MLOAD DUP1 PUSH2 0x120 ADD PUSH1 0x40 MSTORE DUP1 PUSH0 PUSH20 0xFFFFFFFFFFFFFFFFFFFFFFFFFFFFFFFFFFFFFFFF AND DUP2 MSTORE PUSH1 0x20 ADD PUSH1 0x60 DUP2 MSTORE PUSH1 0x20 ADD PUSH1 0x60 DUP2 MSTORE PUSH1 0x20 ADD PUSH0 DUP2 MSTORE PUSH1 0x20 ADD PUSH1 0x60 DUP2 MSTORE PUSH1 0x20 ADD PUSH0 DUP2 MSTORE PUSH1 0x20 ADD PUSH0 ISZERO ISZERO DUP2 MSTORE PUSH1 0x20 ADD PUSH1 0x60 DUP2 MSTORE PUSH1 0x20 ADD PUSH0 PUSH20 0xFFFFFFFFFFFFFFFFFFFFFFFFFFFFFFFFFFFFFFFF AND DUP2 MSTORE POP SWAP1 JUMP JUMPDEST PUSH1 0x40 MLOAD DUP1 PUSH2 0x140 ADD PUSH1 0x40 MSTORE DUP1 PUSH0 DUP2 MSTORE PUSH1 0x20 ADD PUSH0 DUP2 MSTORE PUSH1 0x20 ADD PUSH0 PUSH20 0xFFFFFFFFFFFFFFFFFFFFFFFFFFFFFFFFFFFFFFFF AND DUP2 MSTORE PUSH1 0x20 ADD PUSH0 PUSH20 0xFFFFFFFFFFFFFFFFFFFFFFFFFFFFFFFFFFFFFFFF AND DUP2 MSTORE PUSH1 0x20 ADD PUSH0 DUP2 MSTORE PUSH1 0x20 ADD PUSH0 DUP2 MSTORE PUSH1 0x20 ADD PUSH0 DUP2 MSTORE PUSH1 0x20 ADD PUSH0 DUP2 MSTORE PUSH1 0x20 ADD PUSH1 0x60 DUP2 MSTORE PUSH1 0x20 ADD PUSH0 ISZERO ISZERO DUP2 MSTORE POP SWAP1 JUMP JUMPDEST PUSH0 DUP2 MLOAD SWAP1 POP SWAP2 SWAP1 POP JUMP JUMPDEST PUSH0 DUP3 DUP3 MSTORE PUSH1 0x20 DUP3 ADD SWAP1 POP SWAP3 SWAP2 POP POP JUMP JUMPDEST PUSH0 DUP2 SWAP1 POP PUSH1 0x20 DUP3 ADD SWAP1 POP SWAP2 SWAP1 POP JUMP JUMPDEST PUSH0 PUSH20 0xFFFFFFFFFFFFFFFFFFFFFFFFFFFFFFFFFFFFFFFF DUP3 AND SWAP1 POP SWAP2 SWAP1 POP JUMP JUMPDEST PUSH0 PUSH2 0x1719 DUP3 PUSH2 0x16F0 JUMP JUMPDEST SWAP1 POP SWAP2 SWAP1 POP JUMP JUMPDEST PUSH2 0x1729 DUP2 PUSH2 0x170F JUMP JUMPDEST DUP3 MSTORE POP POP JUMP JUMPDEST PUSH0 DUP2 MLOAD SWAP1 POP SWAP2 SWAP1 POP JUMP JUMPDEST PUSH0 DUP3 DUP3 MSTORE PUSH1 0x20 DUP3 ADD SWAP1 POP SWAP3 SWAP2 POP POP JUMP JUMPDEST DUP3 DUP2 DUP4 MCOPY PUSH0 DUP4 DUP4 ADD MSTORE POP POP POP JUMP JUMPDEST PUSH0 PUSH1 0x1F NOT PUSH1 0x1F DUP4 ADD AND SWAP1 POP SWAP2 SWAP1 POP JUMP JUMPDEST PUSH0 PUSH2 0x1771 DUP3 PUSH2 0x172F JUMP JUMPDEST PUSH2 0x177B DUP2 DUP6 PUSH2 0x1739 JUMP JUMPDEST SWAP4 POP PUSH2 0x178B DUP2 DUP6 PUSH1 0x20 DUP7 ADD PUSH2 0x1749 JUMP JUMPDEST PUSH2 0x1794 DUP2 PUSH2 0x1757 JUMP JUMPDEST DUP5 ADD SWAP2 POP POP SWAP3 SWAP2 POP POP JUMP JUMPDEST PUSH0 DUP2 SWAP1 POP SWAP2 SWAP1 POP JUMP JUMPDEST PUSH2 0x17B1 DUP2 PUSH2 0x179F JUMP JUMPDEST DUP3 MSTORE POP POP JUMP JUMPDEST PUSH0 DUP2 ISZERO ISZERO SWAP1 POP SWAP2 SWAP1 POP JUMP JUMPDEST PUSH2 0x17CB DUP2 PUSH2 0x17B7 JUMP JUMPDEST DUP3 MSTORE POP POP JUMP JUMPDEST PUSH0 PUSH2 0x120 DUP4 ADD PUSH0 DUP4 ADD MLOAD PUSH2 0x17E7 PUSH0 DUP7 ADD DUP3 PUSH2 0x1720 JUMP JUMPDEST POP PUSH1 0x20 DUP4 ADD MLOAD DUP5 DUP3 SUB PUSH1 0x20 DUP7 ADD MSTORE PUSH2 0x17FF DUP3 DUP3 PUSH2 0x1767 JUMP JUMPDEST SWAP2 POP POP PUSH1 0x40 DUP4 ADD MLOAD DUP5 DUP3 SUB PUSH1 0x40 DUP7 ADD MSTORE PUSH2 0x1819 DUP3 DUP3 PUSH2 0x1767 JUMP JUMPDEST SWAP2 POP POP PUSH1 0x60 DUP4 ADD MLOAD PUSH2 0x182E PUSH1 0x60 DUP7 ADD DUP3 PUSH2 0x17A8 JUMP JUMPDEST POP PUSH1 0x80 DUP4 ADD MLOAD DUP5 DUP3 SUB PUSH1 0x80 DUP7 ADD MSTORE PUSH2 0x1846 DUP3 DUP3 PUSH2 0x1767 JUMP JUMPDEST SWAP2 POP POP PUSH1 0xA0 DUP4 ADD MLOAD PUSH2 0x185B PUSH1 0xA0 DUP7 ADD DUP3 PUSH2 0x17A8 JUMP JUMPDEST POP PUSH1 0xC0 DUP4 ADD MLOAD PUSH2 0x186E PUSH1 0xC0 DUP7 ADD DUP3 PUSH2 0x17C2 JUMP JUMPDEST POP PUSH1 0xE0 DUP4 ADD MLOAD DUP5 DUP3 SUB PUSH1 0xE0 DUP7 ADD MSTORE PUSH2 0x1886 DUP3 DUP3 PUSH2 0x1767 JUMP JUMPDEST SWAP2 POP POP PUSH2 0x100 DUP4 ADD MLOAD PUSH2 0x189D PUSH2 0x100 DUP7 ADD DUP3 PUSH2 0x1720 JUMP JUMPDEST POP DUP1 SWAP2 POP POP SWAP3 SWAP2 POP POP JUMP JUMPDEST PUSH0 PUSH2 0x18B3 DUP4 DUP4 PUSH2 0x17D1 JUMP JUMPDEST SWAP1 POP SWAP3 SWAP2 POP POP JUMP JUMPDEST PUSH0 PUSH1 0x20 DUP3 ADD SWAP1 POP SWAP2 SWAP1 POP JUMP JUMPDEST PUSH0 PUSH2 0x18D1 DUP3 PUSH2 0x16C7 JUMP JUMPDEST PUSH2 0x18DB DUP2 DUP6 PUSH2 0x16D1 JUMP JUMPDEST SWAP4 POP DUP4 PUSH1 0x20 DUP3 MUL DUP6 ADD PUSH2 0x18ED DUP6 PUSH2 0x16E1 JUMP JUMPDEST DUP1 PUSH0 JUMPDEST DUP6 DUP2 LT ISZERO PUSH2 0x1928 JUMPI DUP5 DUP5 SUB DUP10 MSTORE DUP2 MLOAD PUSH2 0x1909 DUP6 DUP3 PUSH2 0x18A8 JUMP JUMPDEST SWAP5 POP PUSH2 0x1914 DUP4 PUSH2 0x18BB JUMP JUMPDEST SWAP3 POP PUSH1 0x20 DUP11 ADD SWAP10 POP POP PUSH1 0x1 DUP2 ADD SWAP1 POP PUSH2 0x18F0 JUMP JUMPDEST POP DUP3 SWAP8 POP DUP8 SWAP6 POP POP POP POP POP POP SWAP3 SWAP2 POP POP JUMP JUMPDEST PUSH0 PUSH1 0x20 DUP3 ADD SWAP1 POP DUP2 DUP2 SUB PUSH0 DUP4 ADD MSTORE PUSH2 0x1952 DUP2 DUP5 PUSH2 0x18C7 JUMP JUMPDEST SWAP1 POP SWAP3 SWAP2 POP POP JUMP JUMPDEST PUSH0 PUSH1 0x40 MLOAD SWAP1 POP SWAP1 JUMP JUMPDEST PUSH0 DUP1 REVERT JUMPDEST PUSH0 DUP1 REVERT JUMPDEST PUSH2 0x1974 DUP2 PUSH2 0x179F JUMP JUMPDEST DUP2 EQ PUSH2 0x197E JUMPI PUSH0 DUP1 REVERT JUMPDEST POP JUMP JUMPDEST PUSH0 DUP2 CALLDATALOAD SWAP1 POP PUSH2 0x198F DUP2 PUSH2 0x196B JUMP JUMPDEST SWAP3 SWAP2 POP POP JUMP JUMPDEST PUSH0 PUSH1 0x20 DUP3 DUP5 SUB SLT ISZERO PUSH2 0x19AA JUMPI PUSH2 0x19A9 PUSH2 0x1963 JUMP JUMPDEST JUMPDEST PUSH0 PUSH2 0x19B7 DUP5 DUP3 DUP6 ADD PUSH2 0x1981 JUMP JUMPDEST SWAP2 POP POP SWAP3 SWAP2 POP POP JUMP JUMPDEST PUSH0 DUP3 DUP3 MSTORE PUSH1 0x20 DUP3 ADD SWAP1 POP SWAP3 SWAP2 POP POP JUMP JUMPDEST PUSH0 PUSH2 0x19DA DUP3 PUSH2 0x172F JUMP JUMPDEST PUSH2 0x19E4 DUP2 DUP6 PUSH2 0x19C0 JUMP JUMPDEST SWAP4 POP PUSH2 0x19F4 DUP2 DUP6 PUSH1 0x20 DUP7 ADD PUSH2 0x1749 JUMP JUMPDEST PUSH2 0x19FD DUP2 PUSH2 0x1757 JUMP JUMPDEST DUP5 ADD SWAP2 POP POP SWAP3 SWAP2 POP POP JUMP JUMPDEST PUSH0 PUSH1 0x20 DUP3 ADD SWAP1 POP DUP2 DUP2 SUB PUSH0 DUP4 ADD MSTORE PUSH2 0x1A20 DUP2 DUP5 PUSH2 0x19D0 JUMP JUMPDEST SWAP1 POP SWAP3 SWAP2 POP POP JUMP JUMPDEST PUSH2 0x1A31 DUP2 PUSH2 0x170F JUMP JUMPDEST DUP3 MSTORE POP POP JUMP JUMPDEST PUSH2 0x1A40 DUP2 PUSH2 0x179F JUMP JUMPDEST DUP3 MSTORE POP POP JUMP JUMPDEST PUSH2 0x1A4F DUP2 PUSH2 0x17B7 JUMP JUMPDEST DUP3 MSTORE POP POP JUMP JUMPDEST PUSH0 PUSH2 0x120 DUP3 ADD SWAP1 POP PUSH2 0x1A69 PUSH0 DUP4 ADD DUP13 PUSH2 0x1A28 JUMP JUMPDEST DUP2 DUP2 SUB PUSH1 0x20 DUP4 ADD MSTORE PUSH2 0x1A7B DUP2 DUP12 PUSH2 0x19D0 JUMP JUMPDEST SWAP1 POP DUP2 DUP2 SUB PUSH1 0x40 DUP4 ADD MSTORE PUSH2 0x1A8F DUP2 DUP11 PUSH2 0x19D0 JUMP JUMPDEST SWAP1 POP PUSH2 0x1A9E PUSH1 0x60 DUP4 ADD DUP10 PUSH2 0x1A37 JUMP JUMPDEST DUP2 DUP2 SUB PUSH1 0x80 DUP4 ADD MSTORE PUSH2 0x1AB0 DUP2 DUP9 PUSH2 0x19D0 JUMP JUMPDEST SWAP1 POP PUSH2 0x1ABF PUSH1 0xA0 DUP4 ADD DUP8 PUSH2 0x1A37 JUMP JUMPDEST PUSH2 0x1ACC PUSH1 0xC0 DUP4 ADD DUP7 PUSH2 0x1A46 JUMP JUMPDEST DUP2 DUP2 SUB PUSH1 0xE0 DUP4 ADD MSTORE PUSH2 0x1ADE DUP2 DUP6 PUSH2 0x19D0 JUMP JUMPDEST SWAP1 POP PUSH2 0x1AEE PUSH2 0x100 DUP4 ADD DUP5 PUSH2 0x1A28 JUMP JUMPDEST SWAP11 SWAP10 POP POP POP POP POP POP POP POP POP POP JUMP JUMPDEST PUSH0 DUP1 PUSH1 0x40 DUP4 DUP6 SUB SLT ISZERO PUSH2 0x1B12 JUMPI PUSH2 0x1B11 PUSH2 0x1963 JUMP JUMPDEST JUMPDEST PUSH0 PUSH2 0x1B1F DUP6 DUP3 DUP7 ADD PUSH2 0x1981 JUMP JUMPDEST SWAP3 POP POP PUSH1 0x20 PUSH2 0x1B30 DUP6 DUP3 DUP7 ADD PUSH2 0x1981 JUMP JUMPDEST SWAP2 POP POP SWAP3 POP SWAP3 SWAP1 POP JUMP JUMPDEST PUSH0 PUSH1 0x20 DUP3 ADD SWAP1 POP PUSH2 0x1B4D PUSH0 DUP4 ADD DUP5 PUSH2 0x1A37 JUMP JUMPDEST SWAP3 SWAP2 POP POP JUMP JUMPDEST PUSH2 0x1B5C DUP2 PUSH2 0x170F JUMP JUMPDEST DUP2 EQ PUSH2 0x1B66 JUMPI PUSH0 DUP1 REVERT JUMPDEST POP JUMP JUMPDEST PUSH0 DUP2 CALLDATALOAD SWAP1 POP PUSH2 0x1B77 DUP2 PUSH2 0x1B53 JUMP JUMPDEST SWAP3 SWAP2 POP POP JUMP JUMPDEST PUSH0 DUP1 REVERT JUMPDEST PUSH0 DUP1 REVERT JUMPDEST PUSH32 0x4E487B7100000000000000000000000000000000000000000000000000000000 PUSH0 MSTORE PUSH1 0x41 PUSH1 0x4 MSTORE PUSH1 0x24 PUSH0 REVERT JUMPDEST PUSH2 0x1BBB DUP3 PUSH2 0x1757 JUMP JUMPDEST DUP2 ADD DUP2 DUP2 LT PUSH8 0xFFFFFFFFFFFFFFFF DUP3 GT OR ISZERO PUSH2 0x1BDA JUMPI PUSH2 0x1BD9 PUSH2 0x1B85 JUMP JUMPDEST JUMPDEST DUP1 PUSH1 0x40 MSTORE POP POP POP JUMP JUMPDEST PUSH0 PUSH2 0x1BEC PUSH2 0x195A JUMP JUMPDEST SWAP1 POP PUSH2 0x1BF8 DUP3 DUP3 PUSH2 0x1BB2 JUMP JUMPDEST SWAP2 SWAP1 POP JUMP JUMPDEST PUSH0 PUSH8 0xFFFFFFFFFFFFFFFF DUP3 GT ISZERO PUSH2 0x1C17 JUMPI PUSH2 0x1C16 PUSH2 0x1B85 JUMP JUMPDEST JUMPDEST PUSH2 0x1C20 DUP3 PUSH2 0x1757 JUMP JUMPDEST SWAP1 POP PUSH1 0x20 DUP2 ADD SWAP1 POP SWAP2 SWAP1 POP JUMP JUMPDEST DUP3 DUP2 DUP4 CALLDATACOPY PUSH0 DUP4 DUP4 ADD MSTORE POP POP POP JUMP JUMPDEST PUSH0 PUSH2 0x1C4D PUSH2 0x1C48 DUP5 PUSH2 0x1BFD JUMP JUMPDEST PUSH2 0x1BE3 JUMP JUMPDEST SWAP1 POP DUP3 DUP2 MSTORE PUSH1 0x20 DUP2 ADD DUP5 DUP5 DUP5 ADD GT ISZERO PUSH2 0x1C69 JUMPI PUSH2 0x1C68 PUSH2 0x1B81 JUMP JUMPDEST JUMPDEST PUSH2 0x1C74 DUP5 DUP3 DUP6 PUSH2 0x1C2D JUMP JUMPDEST POP SWAP4 SWAP3 POP POP POP JUMP JUMPDEST PUSH0 DUP3 PUSH1 0x1F DUP4 ADD SLT PUSH2 0x1C90 JUMPI PUSH2 0x1C8F PUSH2 0x1B7D JUMP JUMPDEST JUMPDEST DUP2 CALLDATALOAD PUSH2 0x1CA0 DUP5 DUP3 PUSH1 0x20 DUP7 ADD PUSH2 0x1C3B JUMP JUMPDEST SWAP2 POP POP SWAP3 SWAP2 POP POP JUMP JUMPDEST PUSH0 DUP1 PUSH0 DUP1 PUSH0 DUP1 PUSH1 0xC0 DUP8 DUP10 SUB SLT ISZERO PUSH2 0x1CC3 JUMPI PUSH2 0x1CC2 PUSH2 0x1963 JUMP JUMPDEST JUMPDEST PUSH0 PUSH2 0x1CD0 DUP10 DUP3 DUP11 ADD PUSH2 0x1B69 JUMP JUMPDEST SWAP7 POP POP PUSH1 0x20 DUP8 ADD CALLDATALOAD PUSH8 0xFFFFFFFFFFFFFFFF DUP2 GT ISZERO PUSH2 0x1CF1 JUMPI PUSH2 0x1CF0 PUSH2 0x1967 JUMP JUMPDEST JUMPDEST PUSH2 0x1CFD DUP10 DUP3 DUP11 ADD PUSH2 0x1C7C JUMP JUMPDEST SWAP6 POP POP PUSH1 0x40 DUP8 ADD CALLDATALOAD PUSH8 0xFFFFFFFFFFFFFFFF DUP2 GT ISZERO PUSH2 0x1D1E JUMPI PUSH2 0x1D1D PUSH2 0x1967 JUMP JUMPDEST JUMPDEST PUSH2 0x1D2A DUP10 DUP3 DUP11 ADD PUSH2 0x1C7C JUMP JUMPDEST SWAP5 POP POP PUSH1 0x60 PUSH2 0x1D3B DUP10 DUP3 DUP11 ADD PUSH2 0x1981 JUMP JUMPDEST SWAP4 POP POP PUSH1 0x80 DUP8 ADD CALLDATALOAD PUSH8 0xFFFFFFFFFFFFFFFF DUP2 GT ISZERO PUSH2 0x1D5C JUMPI PUSH2 0x1D5B PUSH2 0x1967 JUMP JUMPDEST JUMPDEST PUSH2 0x1D68 DUP10 DUP3 DUP11 ADD PUSH2 0x1C7C JUMP JUMPDEST SWAP3 POP POP PUSH1 0xA0 PUSH2 0x1D79 DUP10 DUP3 DUP11 ADD PUSH2 0x1981 JUMP JUMPDEST SWAP2 POP POP SWAP3 SWAP6 POP SWAP3 SWAP6 POP SWAP3 SWAP6 JUMP JUMPDEST PUSH0 PUSH2 0x140 DUP3 ADD SWAP1 POP PUSH2 0x1D9A PUSH0 DUP4 ADD DUP14 PUSH2 0x1A37 JUMP JUMPDEST PUSH2 0x1DA7 PUSH1 0x20 DUP4 ADD DUP13 PUSH2 0x1A37 JUMP JUMPDEST PUSH2 0x1DB4 PUSH1 0x40 DUP4 ADD DUP12 PUSH2 0x1A28 JUMP JUMPDEST PUSH2 0x1DC1 PUSH1 0x60 DUP4 ADD DUP11 PUSH2 0x1A28 JUMP JUMPDEST PUSH2 0x1DCE PUSH1 0x80 DUP4 ADD DUP10 PUSH2 0x1A37 JUMP JUMPDEST PUSH2 0x1DDB PUSH1 0xA0 DUP4 ADD DUP9 PUSH2 0x1A37 JUMP JUMPDEST PUSH2 0x1DE8 PUSH1 0xC0 DUP4 ADD DUP8 PUSH2 0x1A37 JUMP JUMPDEST PUSH2 0x1DF5 PUSH1 0xE0 DUP4 ADD DUP7 PUSH2 0x1A37 JUMP JUMPDEST DUP2 DUP2 SUB PUSH2 0x100 DUP4 ADD MSTORE PUSH2 0x1E08 DUP2 DUP6 PUSH2 0x19D0 JUMP JUMPDEST SWAP1 POP PUSH2 0x1E18 PUSH2 0x120 DUP4 ADD DUP5 PUSH2 0x1A46 JUMP JUMPDEST SWAP12 SWAP11 POP POP POP POP POP POP POP POP POP POP POP JUMP JUMPDEST PUSH0 DUP2 MLOAD SWAP1 POP SWAP2 SWAP1 POP JUMP JUMPDEST PUSH0 DUP3 DUP3 MSTORE PUSH1 0x20 DUP3 ADD SWAP1 POP SWAP3 SWAP2 POP POP JUMP JUMPDEST PUSH0 DUP2 SWAP1 POP PUSH1 0x20 DUP3 ADD SWAP1 POP SWAP2 SWAP1 POP JUMP JUMPDEST PUSH0 PUSH2 0x140 DUP4 ADD PUSH0 DUP4 ADD MLOAD PUSH2 0x1E66 PUSH0 DUP7 ADD DUP3 PUSH2 0x17A8 JUMP JUMPDEST POP PUSH1 0x20 DUP4 ADD MLOAD PUSH2 0x1E79 PUSH1 0x20 DUP7 ADD DUP3 PUSH2 0x17A8 JUMP JUMPDEST POP PUSH1 0x40 DUP4 ADD MLOAD PUSH2 0x1E8C PUSH1 0x40 DUP7 ADD DUP3 PUSH2 0x1720 JUMP JUMPDEST POP PUSH1 0x60 DUP4 ADD MLOAD PUSH2 0x1E9F PUSH1 0x60 DUP7 ADD DUP3 PUSH2 0x1720 JUMP JUMPDEST POP PUSH1 0x80 DUP4 ADD MLOAD PUSH2 0x1EB2 PUSH1 0x80 DUP7 ADD DUP3 PUSH2 0x17A8 JUMP JUMPDEST POP PUSH1 0xA0 DUP4 ADD MLOAD PUSH2 0x1EC5 PUSH1 0xA0 DUP7 ADD DUP3 PUSH2 0x17A8 JUMP JUMPDEST POP PUSH1 0xC0 DUP4 ADD MLOAD PUSH2 0x1ED8 PUSH1 0xC0 DUP7 ADD DUP3 PUSH2 0x17A8 JUMP JUMPDEST POP PUSH1 0xE0 DUP4 ADD MLOAD PUSH2 0x1EEB PUSH1 0xE0 DUP7 ADD DUP3 PUSH2 0x17A8 JUMP JUMPDEST POP PUSH2 0x100 DUP4 ADD MLOAD DUP5 DUP3 SUB PUSH2 0x100 DUP7 ADD MSTORE PUSH2 0x1F05 DUP3 DUP3 PUSH2 0x1767 JUMP JUMPDEST SWAP2 POP POP PUSH2 0x120 DUP4 ADD MLOAD PUSH2 0x1F1C PUSH2 0x120 DUP7 ADD DUP3 PUSH2 0x17C2 JUMP JUMPDEST POP DUP1 SWAP2 POP POP SWAP3 SWAP2 POP POP JUMP JUMPDEST PUSH0 PUSH2 0x1F32 DUP4 DUP4 PUSH2 0x1E50 JUMP JUMPDEST SWAP1 POP SWAP3 SWAP2 POP POP JUMP JUMPDEST PUSH0 PUSH1 0x20 DUP3 ADD SWAP1 POP SWAP2 SWAP1 POP JUMP JUMPDEST PUSH0 PUSH2 0x1F50 DUP3 PUSH2 0x1E27 JUMP JUMPDEST PUSH2 0x1F5A DUP2 DUP6 PUSH2 0x1E31 JUMP JUMPDEST SWAP4 POP DUP4 PUSH1 0x20 DUP3 MUL DUP6 ADD PUSH2 0x1F6C DUP6 PUSH2 0x1E41 JUMP JUMPDEST DUP1 PUSH0 JUMPDEST DUP6 DUP2 LT ISZERO PUSH2 0x1FA7 JUMPI DUP5 DUP5 SUB DUP10 MSTORE DUP2 MLOAD PUSH2 0x1F88 DUP6 DUP3 PUSH2 0x1F27 JUMP JUMPDEST SWAP5 POP PUSH2 0x1F93 DUP4 PUSH2 0x1F3A JUMP JUMPDEST SWAP3 POP PUSH1 0x20 DUP11 ADD SWAP10 POP POP PUSH1 0x1 DUP2 ADD SWAP1 POP PUSH2 0x1F6F JUMP JUMPDEST POP DUP3 SWAP8 POP DUP8 SWAP6 POP POP POP POP POP POP SWAP3 SWAP2 POP POP JUMP JUMPDEST PUSH0 PUSH1 0x20 DUP3 ADD SWAP1 POP DUP2 DUP2 SUB PUSH0 DUP4 ADD MSTORE PUSH2 0x1FD1 DUP2 DUP5 PUSH2 0x1F46 JUMP JUMPDEST SWAP1 POP SWAP3 SWAP2 POP POP JUMP JUMPDEST PUSH32 0x4E487B7100000000000000000000000000000000000000000000000000000000 PUSH0 MSTORE PUSH1 0x22 PUSH1 0x4 MSTORE PUSH1 0x24 PUSH0 REVERT JUMPDEST PUSH0 PUSH1 0x2 DUP3 DIV SWAP1 POP PUSH1 0x1 DUP3 AND DUP1 PUSH2 0x201D JUMPI PUSH1 0x7F DUP3 AND SWAP2 POP JUMPDEST PUSH1 0x20 DUP3 LT DUP2 SUB PUSH2 0x2030 JUMPI PUSH2 0x202F PUSH2 0x1FD9 JUMP JUMPDEST JUMPDEST POP SWAP2 SWAP1 POP JUMP JUMPDEST PUSH32 0x4E487B7100000000000000000000000000000000000000000000000000000000 PUSH0 MSTORE PUSH1 0x32 PUSH1 0x4 MSTORE PUSH1 0x24 PUSH0 REVERT JUMPDEST PUSH0 DUP2 SWAP1 POP DUP2 PUSH0 MSTORE PUSH1 0x20 PUSH0 KECCAK256 SWAP1 POP SWAP2 SWAP1 POP JUMP JUMPDEST PUSH0 PUSH1 0x20 PUSH1 0x1F DUP4 ADD DIV SWAP1 POP SWAP2 SWAP1 POP JUMP JUMPDEST PUSH0 DUP3 DUP3 SHL SWAP1 POP SWAP3 SWAP2 POP POP JUMP JUMPDEST PUSH0 PUSH1 0x8 DUP4 MUL PUSH2 0x20BF PUSH32 0xFFFFFFFFFFFFFFFFFFFFFFFFFFFFFFFFFFFFFFFFFFFFFFFFFFFFFFFFFFFFFFFF DUP3 PUSH2 0x2084 JUMP JUMPDEST PUSH2 0x20C9 DUP7 DUP4 PUSH2 0x2084 JUMP JUMPDEST SWAP6 POP DUP1 NOT DUP5 AND SWAP4 POP DUP1 DUP7 AND DUP5 OR SWAP3 POP POP POP SWAP4 SWAP3 POP POP POP JUMP JUMPDEST PUSH0 DUP2 SWAP1 POP SWAP2 SWAP1 POP JUMP JUMPDEST PUSH0 PUSH2 0x2104 PUSH2 0x20FF PUSH2 0x20FA DUP5 PUSH2 0x179F JUMP JUMPDEST PUSH2 0x20E1 JUMP JUMPDEST PUSH2 0x179F JUMP JUMPDEST SWAP1 POP SWAP2 SWAP1 POP JUMP JUMPDEST PUSH0 DUP2 SWAP1 POP SWAP2 SWAP1 POP JUMP JUMPDEST PUSH2 0x211D DUP4 PUSH2 0x20EA JUMP JUMPDEST PUSH2 0x2131 PUSH2 0x2129 DUP3 PUSH2 0x210B JUMP JUMPDEST DUP5 DUP5 SLOAD PUSH2 0x2090 JUMP JUMPDEST DUP3 SSTORE POP POP POP POP JUMP JUMPDEST PUSH0 SWAP1 JUMP JUMPDEST PUSH2 0x2145 PUSH2 0x2139 JUMP JUMPDEST PUSH2 0x2150 DUP2 DUP5 DUP5 PUSH2 0x2114 JUMP JUMPDEST POP POP POP JUMP JUMPDEST JUMPDEST DUP2 DUP2 LT ISZERO PUSH2 0x2173 JUMPI PUSH2 0x2168 PUSH0 DUP3 PUSH2 0x213D JUMP JUMPDEST PUSH1 0x1 DUP2 ADD SWAP1 POP PUSH2 0x2156 JUMP JUMPDEST POP POP JUMP JUMPDEST PUSH1 0x1F DUP3 GT ISZERO PUSH2 0x21B8 JUMPI PUSH2 0x2189 DUP2 PUSH2 0x2063 JUMP JUMPDEST PUSH2 0x2192 DUP5 PUSH2 0x2075 JUMP JUMPDEST DUP2 ADD PUSH1 0x20 DUP6 LT ISZERO PUSH2 0x21A1 JUMPI DUP2 SWAP1 POP JUMPDEST PUSH2 0x21B5 PUSH2 0x21AD DUP6 PUSH2 0x2075 JUMP JUMPDEST DUP4 ADD DUP3 PUSH2 0x2155 JUMP JUMPDEST POP POP JUMPDEST POP POP POP JUMP JUMPDEST PUSH0 DUP3 DUP3 SHR SWAP1 POP SWAP3 SWAP2 POP POP JUMP JUMPDEST PUSH0 PUSH2 0x21D8 PUSH0 NOT DUP5 PUSH1 0x8 MUL PUSH2 0x21BD JUMP JUMPDEST NOT DUP1 DUP4 AND SWAP2 POP POP SWAP3 SWAP2 POP POP JUMP JUMPDEST PUSH0 PUSH2 0x21F0 DUP4 DUP4 PUSH2 0x21C9 JUMP JUMPDEST SWAP2 POP DUP3 PUSH1 0x2 MUL DUP3 OR SWAP1 POP SWAP3 SWAP2 POP POP JUMP JUMPDEST PUSH2 0x2209 DUP3 PUSH2 0x172F JUMP JUMPDEST PUSH8 0xFFFFFFFFFFFFFFFF DUP2 GT ISZERO PUSH2 0x2222 JUMPI PUSH2 0x2221 PUSH2 0x1B85 JUMP JUMPDEST JUMPDEST PUSH2 0x222C DUP3 SLOAD PUSH2 0x2006 JUMP JUMPDEST PUSH2 0x2237 DUP3 DUP3 DUP6 PUSH2 0x2177 JUMP JUMPDEST PUSH0 PUSH1 0x20 SWAP1 POP PUSH1 0x1F DUP4 GT PUSH1 0x1 DUP2 EQ PUSH2 0x2268 JUMPI PUSH0 DUP5 ISZERO PUSH2 0x2256 JUMPI DUP3 DUP8 ADD MLOAD SWAP1 POP JUMPDEST PUSH2 0x2260 DUP6 DUP3 PUSH2 0x21E5 JUMP JUMPDEST DUP7 SSTORE POP PUSH2 0x22C7 JUMP JUMPDEST PUSH1 0x1F NOT DUP5 AND PUSH2 0x2276 DUP7 PUSH2 0x2063 JUMP JUMPDEST PUSH0 JUMPDEST DUP3 DUP2 LT ISZERO PUSH2 0x229D JUMPI DUP5 DUP10 ADD MLOAD DUP3 SSTORE PUSH1 0x1 DUP3 ADD SWAP2 POP PUSH1 0x20 DUP6 ADD SWAP5 POP PUSH1 0x20 DUP2 ADD SWAP1 POP PUSH2 0x2278 JUMP JUMPDEST DUP7 DUP4 LT ISZERO PUSH2 0x22BA JUMPI DUP5 DUP10 ADD MLOAD PUSH2 0x22B6 PUSH1 0x1F DUP10 AND DUP3 PUSH2 0x21C9 JUMP JUMPDEST DUP4 SSTORE POP JUMPDEST PUSH1 0x1 PUSH1 0x2 DUP9 MUL ADD DUP9 SSTORE POP POP POP JUMPDEST POP POP POP POP POP POP JUMP JUMPDEST PUSH32 0x4E487B7100000000000000000000000000000000000000000000000000000000 PUSH0 MSTORE PUSH1 0x11 PUSH1 0x4 MSTORE PUSH1 0x24 PUSH0 REVERT JUMPDEST PUSH0 PUSH2 0x2306 DUP3 PUSH2 0x179F JUMP JUMPDEST SWAP2 POP PUSH32 0xFFFFFFFFFFFFFFFFFFFFFFFFFFFFFFFFFFFFFFFFFFFFFFFFFFFFFFFFFFFFFFFF DUP3 SUB PUSH2 0x2338 JUMPI PUSH2 0x2337 PUSH2 0x22CF JUMP JUMPDEST JUMPDEST PUSH1 0x1 DUP3 ADD SWAP1 POP SWAP2 SWAP1 POP JUMP JUMPDEST PUSH32 0x496E636F7272656374207061796D656E7420616D6F756E740000000000000000 PUSH0 DUP3 ADD MSTORE POP JUMP JUMPDEST PUSH0 PUSH2 0x2377 PUSH1 0x18 DUP4 PUSH2 0x19C0 JUMP JUMPDEST SWAP2 POP PUSH2 0x2382 DUP3 PUSH2 0x2343 JUMP JUMPDEST PUSH1 0x20 DUP3 ADD SWAP1 POP SWAP2 SWAP1 POP JUMP JUMPDEST PUSH0 PUSH1 0x20 DUP3 ADD SWAP1 POP DUP2 DUP2 SUB PUSH0 DUP4 ADD MSTORE PUSH2 0x23A4 DUP2 PUSH2 0x236B JUMP JUMPDEST SWAP1 POP SWAP2 SWAP1 POP JUMP JUMPDEST PUSH0 DUP2 SWAP1 POP SWAP3 SWAP2 POP POP JUMP JUMPDEST POP JUMP JUMPDEST PUSH0 PUSH2 0x23C3 PUSH0 DUP4 PUSH2 0x23AB JUMP JUMPDEST SWAP2 POP PUSH2 0x23CE DUP3 PUSH2 0x23B5 JUMP JUMPDEST PUSH0 DUP3 ADD SWAP1 POP SWAP2 SWAP1 POP JUMP JUMPDEST PUSH0 PUSH2 0x23E2 DUP3 PUSH2 0x23B8 JUMP JUMPDEST SWAP2 POP DUP2 SWAP1 POP SWAP2 SWAP1 POP JUMP JUMPDEST PUSH32 0x5061796D656E74206661696C6564000000000000000000000000000000000000 PUSH0 DUP3 ADD MSTORE POP JUMP JUMPDEST PUSH0 PUSH2 0x2420 PUSH1 0xE DUP4 PUSH2 0x19C0 JUMP JUMPDEST SWAP2 POP PUSH2 0x242B DUP3 PUSH2 0x23EC JUMP JUMPDEST PUSH1 0x20 DUP3 ADD SWAP1 POP SWAP2 SWAP1 POP JUMP JUMPDEST PUSH0 PUSH1 0x20 DUP3 ADD SWAP1 POP DUP2 DUP2 SUB PUSH0 DUP4 ADD MSTORE PUSH2 0x244D DUP2 PUSH2 0x2414 JUMP JUMPDEST SWAP1 POP SWAP2 SWAP1 POP JUMP JUMPDEST PUSH0 PUSH1 0x80 DUP3 ADD SWAP1 POP PUSH2 0x2467 PUSH0 DUP4 ADD DUP8 PUSH2 0x1A37 JUMP JUMPDEST PUSH2 0x2474 PUSH1 0x20 DUP4 ADD DUP7 PUSH2 0x1A28 JUMP JUMPDEST PUSH2 0x2481 PUSH1 0x40 DUP4 ADD DUP6 PUSH2 0x1A28 JUMP JUMPDEST PUSH2 0x248E PUSH1 0x60 DUP4 ADD DUP5 PUSH2 0x1A37 JUMP JUMPDEST SWAP6 SWAP5 POP POP POP POP POP JUMP JUMPDEST PUSH0 PUSH2 0x24A1 DUP3 PUSH2 0x179F JUMP JUMPDEST SWAP2 POP PUSH2 0x24AC DUP4 PUSH2 0x179F JUMP JUMPDEST SWAP3 POP DUP3 DUP3 ADD SWAP1 POP DUP1 DUP3 GT ISZERO PUSH2 0x24C4 JUMPI PUSH2 0x24C3 PUSH2 0x22CF JUMP JUMPDEST JUMPDEST SWAP3 SWAP2 POP POP JUMP JUMPDEST PUSH0 PUSH2 0x24D4 DUP3 PUSH2 0x179F JUMP JUMPDEST SWAP2 POP PUSH2 0x24DF DUP4 PUSH2 0x179F JUMP JUMPDEST SWAP3 POP DUP3 DUP3 SUB SWAP1 POP DUP2 DUP2 GT ISZERO PUSH2 0x24F7 JUMPI PUSH2 0x24F6 PUSH2 0x22CF JUMP JUMPDEST JUMPDEST SWAP3 SWAP2 POP POP JUMP JUMPDEST PUSH32 0x417274776F726B206973206F7574206F662073746F636B000000000000000000 PUSH0 DUP3 ADD MSTORE POP JUMP JUMPDEST PUSH0 PUSH2 0x2531 PUSH1 0x17 DUP4 PUSH2 0x19C0 JUMP JUMPDEST SWAP2 POP PUSH2 0x253C DUP3 PUSH2 0x24FD JUMP JUMPDEST PUSH1 0x20 DUP3 ADD SWAP1 POP SWAP2 SWAP1 POP JUMP JUMPDEST PUSH0 PUSH1 0x20 DUP3 ADD SWAP1 POP DUP2 DUP2 SUB PUSH0 DUP4 ADD MSTORE PUSH2 0x255E DUP2 PUSH2 0x2525 JUMP JUMPDEST SWAP1 POP SWAP2 SWAP1 POP JUMP JUMPDEST PUSH0 PUSH2 0x256F DUP3 PUSH2 0x179F JUMP JUMPDEST SWAP2 POP PUSH2 0x257A DUP4 PUSH2 0x179F JUMP JUMPDEST SWAP3 POP DUP3 DUP3 MUL PUSH2 0x2588 DUP2 PUSH2 0x179F JUMP JUMPDEST SWAP2 POP DUP3 DUP3 DIV DUP5 EQ DUP4 ISZERO OR PUSH2 0x259F JUMPI PUSH2 0x259E PUSH2 0x22CF JUMP JUMPDEST JUMPDEST POP SWAP3 SWAP2 POP POP JUMP JUMPDEST PUSH32 0x4E487B7100000000000000000000000000000000000000000000000000000000 PUSH0 MSTORE PUSH1 0x12 PUSH1 0x4 MSTORE PUSH1 0x24 PUSH0 REVERT JUMPDEST PUSH0 PUSH2 0x25DD DUP3 PUSH2 0x179F JUMP JUMPDEST SWAP2 POP PUSH2 0x25E8 DUP4 PUSH2 0x179F JUMP JUMPDEST SWAP3 POP DUP3 PUSH2 0x25F8 JUMPI PUSH2 0x25F7 PUSH2 0x25A6 JUMP JUMPDEST JUMPDEST DUP3 DUP3 DIV SWAP1 POP SWAP3 SWAP2 POP POP JUMP JUMPDEST PUSH0 PUSH2 0x260D DUP3 PUSH2 0x179F JUMP JUMPDEST SWAP2 POP PUSH0 DUP3 SUB PUSH2 0x261F JUMPI PUSH2 0x261E PUSH2 0x22CF JUMP JUMPDEST JUMPDEST PUSH1 0x1 DUP3 SUB SWAP1 POP SWAP2 SWAP1 POP JUMP INVALID LOG2 PUSH5 0x6970667358 0x22 SLT KECCAK256 SWAP8 DUP3 PUSH13 0x573E4C01C4E6DBD6CED6F011A7 0xB7 ADD SWAP3 CHAINID DUP3 0xD2 EXP TIMESTAMP TIMESTAMP PUSH15 0x8ACFA1CB0E1164736F6C634300081A STOP CALLER "
				},
				"gasEstimates": {
					"creation": {
						"codeDepositCost": "1964800",
						"executionCost": "2075",
						"totalCost": "1966875"
					},
					"external": {
						"artworks(uint256)": "infinite",
						"buyArtwork(uint256)": "infinite",
						"completeDelivery(uint256)": "infinite",
						"createArt(address,string,string,uint256,string,uint256)": "infinite",
						"getArtQuantity(uint256)": "infinite",
						"getArtworks()": "infinite",
						"getPurchases()": "infinite",
						"goodsDelivered(uint256)": "infinite",
						"purchases(uint256)": "infinite",
						"startDelivery(uint256)": "infinite",
						"updateQuantity(uint256,uint256)": "infinite"
					}
				},
				"methodIdentifiers": {
					"artworks(uint256)": "4b602673",
					"buyArtwork(uint256)": "e44c3c4b",
					"completeDelivery(uint256)": "82c9804a",
					"createArt(address,string,string,uint256,string,uint256)": "79f9ec1c",
					"getArtQuantity(uint256)": "9b171c1e",
					"getArtworks()": "00a71527",
					"getPurchases()": "c47f0f90",
					"goodsDelivered(uint256)": "94ecf65d",
					"purchases(uint256)": "8392fe31",
					"startDelivery(uint256)": "385fe0a9",
					"updateQuantity(uint256,uint256)": "79cd4921"
				}
			},
			"storageLayout": {
				"storage": [
					{
						"astId": 43,
						"contract": "fest/Artwork.sol:Artwork",
						"label": "art_count",
						"offset": 0,
						"slot": "0",
						"type": "t_uint256"
					},
					{
						"astId": 45,
						"contract": "fest/Artwork.sol:Artwork",
						"label": "purchase_count",
						"offset": 0,
						"slot": "1",
						"type": "t_uint256"
					},
					{
						"astId": 50,
						"contract": "fest/Artwork.sol:Artwork",
						"label": "artworks",
						"offset": 0,
						"slot": "2",
						"type": "t_mapping(t_uint256,t_struct(Art)20_storage)"
					},
					{
						"astId": 55,
						"contract": "fest/Artwork.sol:Artwork",
						"label": "purchases",
						"offset": 0,
						"slot": "3",
						"type": "t_mapping(t_uint256,t_struct(Purchase)41_storage)"
					}
				],
				"types": {
					"t_address": {
						"encoding": "inplace",
						"label": "address",
						"numberOfBytes": "20"
					},
					"t_bool": {
						"encoding": "inplace",
						"label": "bool",
						"numberOfBytes": "1"
					},
					"t_mapping(t_uint256,t_struct(Art)20_storage)": {
						"encoding": "mapping",
						"key": "t_uint256",
						"label": "mapping(uint256 => struct Artwork.Art)",
						"numberOfBytes": "32",
						"value": "t_struct(Art)20_storage"
					},
					"t_mapping(t_uint256,t_struct(Purchase)41_storage)": {
						"encoding": "mapping",
						"key": "t_uint256",
						"label": "mapping(uint256 => struct Artwork.Purchase)",
						"numberOfBytes": "32",
						"value": "t_struct(Purchase)41_storage"
					},
					"t_string_storage": {
						"encoding": "bytes",
						"label": "string",
						"numberOfBytes": "32"
					},
					"t_struct(Art)20_storage": {
						"encoding": "inplace",
						"label": "struct Artwork.Art",
						"members": [
							{
								"astId": 3,
								"contract": "fest/Artwork.sol:Artwork",
								"label": "owner",
								"offset": 0,
								"slot": "0",
								"type": "t_address"
							},
							{
								"astId": 5,
								"contract": "fest/Artwork.sol:Artwork",
								"label": "image",
								"offset": 0,
								"slot": "1",
								"type": "t_string_storage"
							},
							{
								"astId": 7,
								"contract": "fest/Artwork.sol:Artwork",
								"label": "description",
								"offset": 0,
								"slot": "2",
								"type": "t_string_storage"
							},
							{
								"astId": 9,
								"contract": "fest/Artwork.sol:Artwork",
								"label": "price",
								"offset": 0,
								"slot": "3",
								"type": "t_uint256"
							},
							{
								"astId": 11,
								"contract": "fest/Artwork.sol:Artwork",
								"label": "credentials",
								"offset": 0,
								"slot": "4",
								"type": "t_string_storage"
							},
							{
								"astId": 13,
								"contract": "fest/Artwork.sol:Artwork",
								"label": "quantity",
								"offset": 0,
								"slot": "5",
								"type": "t_uint256"
							},
							{
								"astId": 15,
								"contract": "fest/Artwork.sol:Artwork",
								"label": "isVerified",
								"offset": 0,
								"slot": "6",
								"type": "t_bool"
							},
							{
								"astId": 17,
								"contract": "fest/Artwork.sol:Artwork",
								"label": "tokenUri",
								"offset": 0,
								"slot": "7",
								"type": "t_string_storage"
							},
							{
								"astId": 19,
								"contract": "fest/Artwork.sol:Artwork",
								"label": "original_artist",
								"offset": 0,
								"slot": "8",
								"type": "t_address"
							}
						],
						"numberOfBytes": "288"
					},
					"t_struct(Purchase)41_storage": {
						"encoding": "inplace",
						"label": "struct Artwork.Purchase",
						"members": [
							{
								"astId": 22,
								"contract": "fest/Artwork.sol:Artwork",
								"label": "id",
								"offset": 0,
								"slot": "0",
								"type": "t_uint256"
							},
							{
								"astId": 24,
								"contract": "fest/Artwork.sol:Artwork",
								"label": "artId",
								"offset": 0,
								"slot": "1",
								"type": "t_uint256"
							},
							{
								"astId": 26,
								"contract": "fest/Artwork.sol:Artwork",
								"label": "buyer",
								"offset": 0,
								"slot": "2",
								"type": "t_address"
							},
							{
								"astId": 28,
								"contract": "fest/Artwork.sol:Artwork",
								"label": "seller",
								"offset": 0,
								"slot": "3",
								"type": "t_address"
							},
							{
								"astId": 30,
								"contract": "fest/Artwork.sol:Artwork",
								"label": "amount",
								"offset": 0,
								"slot": "4",
								"type": "t_uint256"
							},
							{
								"astId": 32,
								"contract": "fest/Artwork.sol:Artwork",
								"label": "total_amount",
								"offset": 0,
								"slot": "5",
								"type": "t_uint256"
							},
							{
								"astId": 34,
								"contract": "fest/Artwork.sol:Artwork",
								"label": "amounts_paid",
								"offset": 0,
								"slot": "6",
								"type": "t_uint256"
							},
							{
								"astId": 36,
								"contract": "fest/Artwork.sol:Artwork",
								"label": "amounts_remaining",
								"offset": 0,
								"slot": "7",
								"type": "t_uint256"
							},
							{
								"astId": 38,
								"contract": "fest/Artwork.sol:Artwork",
								"label": "delivery_state",
								"offset": 0,
								"slot": "8",
								"type": "t_string_storage"
							},
							{
								"astId": 40,
								"contract": "fest/Artwork.sol:Artwork",
								"label": "delivered_status",
								"offset": 0,
								"slot": "9",
								"type": "t_bool"
							}
						],
						"numberOfBytes": "320"
					},
					"t_uint256": {
						"encoding": "inplace",
						"label": "uint256",
						"numberOfBytes": "32"
					}
				}
			},
			"userdoc": {
				"kind": "user",
				"methods": {},
				"version": 1
			}
		}
	}
}